:020000040800F2
:10000000B8210020C10100080D0A00081D070008E2
:10001000090A000801030008651300080000000039
:100020000000000000000000000000002D1000088B
:100030002D06000800000000B10D00084511000861
:10004000DB010008DB010008DB010008DB01000820
:10005000DB010008DB010008DB010008DB01000810
:10006000DB010008DB010008DB010008DB01000800
:10007000DB010008DB010008DB010008DB010008F0
:10008000DB010008DB010008DB010008DB010008E0
:10009000DB010008DB010008DB010008DB010008D0
:1000A000DB010008DB010008DB010008DB010008C0
:1000B00015120008DB010008DB010008DB01000865
:1000C000DB010008DB010008DB010008DB010008A0
:1000D000DB010008B1120008DB010008DB010008A9
:1000E000DB010008DB010008DB010008DB01000880
:1000F000DB010008DB010008DB010008DB01000870
:10010000DB010008DB01000851120008DB010008D8
:10011000DB010008DB010008DB010008DB0100084F
:10012000BD050008DB010008DB010008DB01000859
:10013000DB010008DB010008DB010008DB0100082F
:10014000DB010008DB010008DB010008DB0100081F
:10015000DB010008DB010008DB010008DB0100080F
:10016000DB010008DB010008DB010008DB010008FF
:10017000DB010008DB010008DB01000800000000D3
:10018000DB010008DB010008DB010008DB010008DF
:10019000DB010008DB010008DB01000800000000B3
:1001A000DB010008DB010008DB010008DFF80CD0F0
:1001B00000F04AF800480047091C0008B821002058
:1001C0000648804706480047FEE7FEE7FEE7FEE7F1
:1001D000FEE7FEE7FEE7FEE7FEE7FEE74D1100085B
:1001E000AD0100082DE9F05F0546002092469B46D0
:1001F00088460646814640241BE02846414647463D
:10020000224600F042F853465A46C01A914110D394
:1002100011461846224600F029F82D1A67EB01080E
:100220004F4622460120002100F020F817EB00097C
:100230004E41201EA4F10104DFDC484631462A4627
:100240004346BDE8F09F0000064C074D06E0E0681D
:1002500040F0010394E8070098471034AC42F6D30D
:10026000FFF7A8FF88300008A8300008202A04DB28
:10027000203A00FA02F1002070479140C2F12003B9
:1002800020FA03F3194390407047202A04DB203AF8
:1002900021FA02F00021704721FA02F3D040C2F1A6
:1002A0002002914008431946704770B58C1810F829
:1002B000015B15F0070301D110F8013B2A1106D1AB
:1002C00010F8012B03E010F8016B01F8016B5B1EC5
:1002D000F9D12B0705D40023521E0DD401F8013BA0
:1002E000FAE710F8013BCB1A921C03E013F8015B0C
:1002F00001F8015B521EF9D5A142D8D3002070BD90
:1003000000BFFEE700200149087070470F00002081
:1003100000200149087070470E00002010B54FF40E
:10032000406001F009FF40F6074001F005FF40F68C
:10033000064001F001FF012302220021074801F0DD
:1003400013FC102301220021054801F00DFC0823B5
:1003500001220021034801F007FC10BD000002400B
:10036000001C02400018024010B540F6014001F0A8
:10037000E3FE40F6084001F0DFFE20230122114693
:10038000104801F0F1FB2023022200210D4801F06A
:100390001AFC20210B4801F0D8FB4FF48073012296
:1003A0001146094801F0E0FB4FF48073022200215E
:1003B000054801F008FC4FF48071034801F0C3FBCD
:1003C00010BD0000000402400020024010B54FF4B0
:1003D000A06001F0C5FC10BD38B501F095FD1020FE
:1003E00001F0EAFD102001F0F9FD0446012C29D1AD
:1003F00001F05CFB002001F0C7FCE00301F0E6FC2B
:100400004FF4A05001F0D6FC092002234FF4F07203
:1004100019210090580501F0C5FE182001F0CCFD0F
:1004200000BF192001F0B6FD0028FAD0022001F02B
:1004300007FF00BF01F010FF0028FBD04FF08070D5
:1004400001F012FF38BD7FB504460D464FF48050D1
:1004500001F072FE4FF0804002F0E2FA684602F0CE
:1004600006FCADF800500020ADF804000294ADF891
:10047000060069464FF0804002F09AFB0121880790
:1004800002F0E2FB002201211C2001F007FC4FF0EA
:10049000804002F087FB7FBD7FB504460D4641F2E8
:1004A000030001F049FE0F4802F0BAFA684602F074
:1004B000DEFBADF800500020ADF804000294ADF86A
:1004C00006006946074802F073FB0121054802F067
:1004D000BBFB00220121322001F0E0FB014802F0C9
:1004E00061FB7FBD000C004010B504464FF4406036
:1004F00001F022FE41F2041001F01EFE4FF40072E2
:1005000007212B4801F0F0FA4FF400730122022179
:10051000274801F029FB4FF40073022200212448F0
:1005200001F051FB4FF480620721214801F0DCFA11
:100530004FF48063002202211D4801F015FB4FF4A7
:100540008063022200211A4801F03DFB194802F0A5
:1005500017FC2146174802F095FB0021154802F0D0
:1005600058FD0021134802F064FD0021114802F0FB
:1005700040FD04210F4802F044FD08210D4802F01F
:1005800050FD40F205310B4802F0FDFC40F2053110
:10059000084802F0F8FC074802F060FC002211460F
:1005A000252001F07BFB00200349087010BD0000EE
:1005B00000000240001001401400002010B520226D
:1005C0000021074801F070F940B10648008800F0AA
:1005D000CBFE20220021024801F047F910BD0000A7
:1005E000006402404E16002030B50346002016E09D
:1005F000B3F900509C68645D0C541C88641C24B2E0
:100600001C80B3F90040B3F90450AC4201DB002474
:100610001C80441C20B2DC88641E24B2DC80B3F948
:100620000640002C01DD9042E2DB30BD7047000047
:1006300001B50749009808604FF0E02040694FF08D
:10064000E021886100BF024800680028FBD108BD96
:100650005C16002070B50346002016E00C5CB3F970
:1006600002609D68AC555C88641C24B25C80B3F960
:100670000240B3F90450AC4201DB00245C80441C0E
:1006800020B2DC88641C24B2DC80B3F90640B3F9E4
:100690000450AC4201DA9042E0DB70BD70B5034615
:1006A000002018E031F81040B3F902609D6825F889
:1006B00016405C88641C24B25C80B3F90240B3F934
:1006C0000450AC4201DB00245C80441C20B2DC8876
:1006D000641C24B2DC80B3F90640B3F90450AC4288
:1006E00001DA9042DEDB70BD10B5012003490870CD
:1006F00040F20731024802F046FC10BD1400002011
:100700000010014001480078704700000F000020F1
:1007100001480078704700000E00002000BFFEE78F
:1007200010B54FF4007301221146124801F01CFA73
:100730004FF40073022201210E4801F044FA4FF4F5
:1007400000710C4801F001FA4FF48071094801F082
:10075000FCF900F071F84FF40071064801F0F3F96C
:1007600000F06AF84FF48071024801F0ECF900F0F3
:1007700063F810BD0004024010B54FF4007301226D
:1007800011460E4801F0F0F94FF4007302220121E6
:100790000A4801F018FA4FF40071084801F0D3F943
:1007A0004FF48071054801F0D0F900F045F84FF49E
:1007B0000071024801F0C9F910BD000000040240B8
:1007C00010B54FF400711B4801F0BFF900F034F888
:1007D0004FF48071174801F0B8F900F02DF84FF48C
:1007E000007301220021134801F0BEF905E0601CEE
:1007F000C4B2FE2C01DDFFF7BFFF4FF400710D48BE
:1008000001F0AAF90028F2D14FF48071094801F0F3
:100810009AF900F011F84FF40073012211460548CF
:1008200001F0A2F94FF4007302220121014801F006
:10083000CAF910BD00040240782000BF011EA0F1DB
:10084000010290B2FAD1704710B500F07FFC00F0C1
:100850003EF800F025F800F073F800F03DF800F0E5
:100860001BF84FF4E13000F077F800F009F800F0E1
:100870001BF800F033F900F04DFB01F093FF10BDC1
:1008800010B5FFF74BFDFF200249087000204870AB
:10089000887010BD0400002010B5FFF765FD10BD85
:1008A00010B5FFF793FD10BD704730B50B4600241F
:1008B000048044808280C4808360002104E000249E
:1008C00085686C544C1C21B29142F8DB30BD10B5E8
:1008D000FFF782FD10BD704730B5164800684FF431
:1008E0007A72B0FBF2F1481EB0F1807F01D3012093
:1008F0001BE0481E4FF0E022506150170F220028E5
:1009000004DB13071C0E0C4B1C5406E013071D0ED2
:100910000A4B00F00F04241F1D5500BF00204FF0AC
:10092000E022906107201061002008B100BFFEE7BF
:1009300030BD00006016002000E400E018ED00E08B
:1009400010B5EF2140F2E730FFF77DFDEF2140F2D7
:10095000E730FFF7A1FD10BD10B5044600F004F824
:100960002046FFF7C1FD10BD10B5002406E00020B1
:100970000A4908550A490855601C04B2B4F5007FBD
:10098000F5DB4FF4007205490648FFF78EFF4FF480
:10099000007203490448FFF788FF10BD801600204D
:1009A00080180020681600207416002070B50446D8
:1009B00012480088401C1149088008460088A0425F
:1009C0001BDB0020088020210D4801F0F4F8C0F165
:1009D0000100C5B22A462021094801F0B8F84FF4B9
:1009E0008071084801F0E7F8C0F10100C5B22A465D
:1009F0004FF48071034801F0AAF870BD0200002096
:100A0000000402400020024000BFFEE770470000E3
:100A100070B500240CE0002506E00020074901EB3A
:100A200085010855681CC5B2802DF6DB601CC4B278
:100A3000042CF0DB00F0F6F870BD0000801A0020F6
:100A400070B50B46CE1701EB5676C6F3C702CE172C
:100A500001EB5676F610A1EBC606F4B20123A340D3
:100A6000DDB20E4B03EB80039B5CDB430B4E06EBCE
:100A70008006B354094B03EB80039B5C2B43074E6A
:100A800006EB8006B354054B03EB80039B5CDB4312
:100A9000024E06EB8006B35470BD0000801A0020A1
:100AA00070B50A46CE1701EB5676C6F3C703CE17CC
:100AB00001EB5676F610A1EBC606F4B20122A24075
:100AC000D5B2054A02EB8002D25C2A43024E06EB05
:100AD0008006F25470BD0000801A002010B540F668
:100AE000014001F029FB4FF48073012211464C486C
:100AF00001F03AF84FF4807302220121484801F0D6
:100B000062F84FF48071464801F01FF84FF400730B
:100B100001221146424801F027F84FF400730222E7
:100B200001213F4801F04FF84FF400713C4801F0BB
:100B30000CF80120FFF77CFD0021AE2000F01CF92D
:100B40000021084600F018F90021102000F014F9E7
:100B50000021402000F010F90021812000F00CF964
:100B60000021CF2000F008F90021A12000F004F9B5
:100B70000021C82000F000F90021A62000F0FCF8B8
:100B80000021A82000F0F8F800211F2000F0F4F860
:100B90000021D32000F0F0F80021084600F0ECF826
:100BA0000021D52000F0E8F80021802000F0E4F8D2
:100BB0000021D92000F0E0F80021F12000F0DCF85D
:100BC0000021DA2000F0D8F80021084600F0D4F81F
:100BD0000021DB2000F0D0F80021402000F0CCF80C
:100BE0000021202000F0C8F80021022000F0C4F805
:100BF00000218D2000F0C0F80021142000F0BCF886
:100C00000021A42000F0B8F80021A62000F0B4F8DC
:100C10000021AF2000F0B0F8FFF7FAFE10BD000091
:100C20000004024070B500241CE004F1B001C8B219
:100C3000002100F0A1F80021084600F09DF80021F5
:100C4000102000F099F8002508E0084901EB850123
:100C5000085D012100F090F8681CC5B2802DF4DB1E
:100C6000601CC4B2042CE0DB70BD0000801A0020C0
:100C70002DE9FF4F0746884691461C464FF0000B72
:100C80000297CDF804802046E11704EB5171C1F3BF
:100C9000C701009160E009FB04F0C11700EB51713E
:100CA0000BEBE101CEB20BF1010000F0FF0B0025D0
:100CB00050E0102C05D12C4800EB0610405D03904D
:100CC0001BE0182C07D106EBC600284901EBC00039
:100CD000405D039011E0202C05D1254800EBC610A3
:100CE000405D039009E0402C05D1224800EB4620EE
:100CF000405D039001E0BDE8FF8F4FF0000A17E070
:100D0000039800F0010020B141463846FFF7C8FEC5
:100D100003E041463846FFF793FE039840100390E6
:100D200008F1010000F0FF080AF1010000F0FF0ADD
:100D3000BAF1080FE4DB781CC7B20298381AA04257
:100D400004D1029F01980830C0B20190DDF8048000
:100D5000681CC5B2A542ACDB0098411EC9B2009127
:100D6000002898D100BFC6E7950100207503002038
:100D70004D0400204D06002070B505460C46FFF7D7
:100D8000CFFC782000F0B0F9FFF71AFD1CB140202D
:100D900000F0AAF902E0002000F0A6F9FFF710FD2C
:100DA000284600F0A1F9FFF70BFDFFF7E5FC70BD49
:100DB000704710B5FFF7A6FC18B101F0B9FCFFF7BA
:100DC000A1FA10BD08B5FFF7A3FC002830D0FA2027
:100DD000FFF7ECFD17480078042812DB164A174984
:100DE000002000F025F9164A1649012000F020F9EC
:100DF000154A1649022000F01BF900200D49087021
:100E000004E00C480078401C0A49087008E09DF88E
:100E10000000401CC0B200900121684600F0BCFAFE
:100E20000121684600F0F4F80028F0D1FFF770FACD
:100E300008BD000000000020510E0008B10E00089F
:100E4000710E0008CD0E0008910E0008E90E000892
:100E500010B502A000F0B8FA10BD00004B455931A2
:100E6000205055534820444F574E0D0A00000000B3
:100E700010B502A000F0A8FA10BD00004B45593291
:100E8000205055534820444F574E0D0A0000000093
:100E900010B502A000F098FA10BD00004B45593380
:100EA000205055534820444F574E0D0A0000000073
:100EB00010B502A000F088FA10BD00004B45593172
:100EC0002052454C454153450D0A000010B502A083
:100ED00000F07AFA10BD00004B4559322052454CC3
:100EE000454153450D0A000010B502A000F06CFA10
:100EF00010BD00004B4559332052454C45415345E8
:100F00000D0A00000146C88808B90120704700207A
:100F1000FCE7000010B51B4800F056FA41F21C0037
:100F200001F00AF900F026FF01F072FA1648006895
:100F3000C0F30120154908601548006843F2F0210C
:100F4000884202D11148006810B901F0AFFA15E0EB
:100F500041F61B5001F01EF818B10EA000F034FA53
:100F600007E041F61A5001F015F810B111A000F099
:100F70002BFA18A000F028FA01F0DAFB00F010FFBD
:100F800010BD0000443000087038024058160020A0
:100F900050280040706F776572206F6E2072657305
:100FA0006574206F636375727265642E2E2E2E0A2F
:100FB0000D00000065787465726E616C2072657357
:100FC0006574206F636375727265642E2E2E2E0A0F
:100FD0000D0000006E6F206E65656420746F2063E5
:100FE0006F6E666967757265205254432E2E2E2EE1
:100FF0000A0D000070B50446002501222146034871
:10100000FFF7F2FAC5B2284670BD0000681600204E
:1010100070B504460D4600262AB221460248FFF765
:10102000E3FA0646304670BD741600207047000093
:1010300070B504460D4616462548005D4006000E74
:101040002349085524B1012C0CD0022C1ED113E0E9
:101050000121204800F080FD1D49095D08431C491D
:10106000085514E010211C4800F076FD1849095D70
:101070000843174908550AE00821184800F06CFD9C
:101080001349095D08431249085500E000BF00BF3D
:101090000F48005D1249095D884208D11148005D82
:1010A000012804D1B04700200E4908550EE0084839
:1010B000005D0B49095DC943C9B2884206D10948A0
:1010C000005D18B9A84701200649085570BD000009
:1010D0000700002000000240001C024000180240EF
:1010E000040000200A00002070B50446002524E01A
:1010F0004FF48071124800F026FD04F0800028B102
:101100004FF400710E4800F020FD04E04FF4007130
:101110000B4800F018FDFFF78FFB4FF48071084873
:1011200000F013FDFFF788FB4FF48071044800F0D6
:101130000AFD6006040E681CC5B2082DD8DB70BD20
:101140000004024010B500F0A7F810BD08B52D4806
:10115000006840F470002B4908602B48006840F09C
:1011600001002949086028480830006840F08000E4
:101170002549083108600020009002E00098401CDA
:1011800000904CF2503100988842F7D31E48083046
:10119000006840F090001C49083108600020009071
:1011A00002E00098401C00904CF2503100988842B8
:1011B000F7D315480830006820F0030012490831C1
:1011C000086011480068114908400F490860084646
:1011D000006820F48020086000200B490831086076
:1011E00000BF09480830006800200028F9D10848ED
:1011F0000549091D0860002003490C31086001F011
:101200000BFC08BD88ED00E000380240FFFFF6FE51
:101210001030002410B50121880701F01CFD0128C1
:1012200003D10121800701F013FD07480088401C0D
:101230000549088008460088022804DB0020088051
:1012400001200249087010BD100000200E0000208F
:1012500010B501210D4801F0FEFC012803D1012148
:101260000A4801F0F5FC0A480088401C00B2084911
:1012700008800846B0F90000B0F57A7F04DB002052
:10128000088001200349087010BD0000000C0040D8
:10129000120000200F0000200448006820B103481D
:1012A0000068401E01490860704700005C1600207D
:1012B00008B5002000902449244801F07EFE60B16A
:1012C0002149224801F06CFE204801F04FFDC0B2D8
:1012D00000909DF8000000F053F81D491B4801F0F4
:1012E0006CFE012806D11A49184801F059FE17482A
:1012F00001F03CFD1749154801F05FFE18B3154990
:10130000124801F04DFE2520002807DB00F01F02E7
:1013100001219140104A430942F8231000BF68465A
:10132000FFF768FE9DF80010084801F024FD0B4807
:10133000FFF7E8FD38B100200949087040F2073195
:10134000024801F013FE08BD05030500001001402E
:10135000000503000703070080E200E06816002094
:101360001400002000BFFEE731B5002401226946C9
:101370000248FFF793F9C4B2204638BDC01C0020D4
:1013800031B50024012269460248FFF763F9C4B26F
:10139000204638BD7416002070B504460D46002660
:1013A0002AB221460648FFF755F90646B6F5007FF2
:1013B00004D20448007808B9FFF796F9304670BDAA
:1013C00068160020140000200FB4054B10B503A9C7
:1013D000044A029800F018F810BC5DF814FB0000F5
:1013E000C51A00086416002002E008C8121F08C1D0
:1013F000002AFAD170477047002001E001C1121F96
:10140000002AFBD1704700002DE9FF4F8DB00F4639
:101410000546002606E025280BD0DDE90F1290478F
:101420006D1C761C28780028F5D111B03046BDE837
:10143000F08F0024A246A1460122EC4900E00443BB
:1014400015F8013F203B02FA03F00842F7D1287853
:101450002A2810D06FF02F022878A0F13001092936
:1014600014D80AEB8A0102EB410144F0020400EBBC
:10147000010A6D1CF0E701CF5FEA000A03D544F4CE
:101480000054CAF1000A44F002046D1C28782E288A
:1014900017D115F8010F44F004042A280ED06FF07C
:1014A0002F022878A0F1300109290AD809EB890117
:1014B00002EB410100EB01096D1CF2E757F8049BB8
:1014C0006D1C28786C280FD006DC4C2817D06828B3
:1014D0000DD06A2814D104E0742810D07A280FD1D6
:1014E0000DE044F400140AE044F4801401E044F4F4
:1014F00040146978814202D104F580146D1C6D1C82
:101500002A786E2A1FD00CDC632A31D004DC002A32
:101510008BD0582A11D1A3E0642A68D0692A0CD153
:1015200065E0732A2ED004DC6F2A73D0702A04D1B0
:101530009BE0752A6FD0782A6ED01046DDE90F1235
:101540009047761C50E1C4F30250022806D00328CD
:1015500009D0042801CF09D0066045E101CFF11779
:10156000C0E9006140E101CF06803DE106703BE14A
:1015700017F8040B8DF8000000208DF80100EB46F1
:10158000012003E057F804BB4FF0FF3061074FF034
:10159000000102D40DE008F10101884649450FDA47
:1015A0008045F8DB1BF808100029F4D108E008F1A9
:1015B000010188468142FADB1BF808100029F6D1A8
:1015C000DDE90F23AAEB08008146214600F036F939
:1015D000304400EB080604E0DDE90F121BF8010BB4
:1015E0009047B8F10108F7D221464846F7E00A21B2
:1015F000C4F302534FF0000B0891022B04D001CF2B
:10160000C117032B09D00AE0FF1D27F00707F7E8F1
:10161000020108E032E01FE020E000B2C117042B15
:1016200001D140B2C117031E71F1000307DA4FF078
:10163000000CD0EB0C006CEB01012D2302E0230524
:1016400004D52B238DF82430012303E0E30701D0D8
:101650002023F7E7984658E00A2110E010210EE019
:1016600010204FF0000B08900CE010214FF0000B01
:1016700044F004044FF00809089103E008214FF0FA
:10168000000B0891C4F30253022B04D001CF0021B8
:10169000032B06D006E0FF1D27F00707F7E802013D
:1016A00003E080B2042B00D1C0B24FF00008230742
:1016B0002BD5702A07D0DDF820C08CF0100C5CEA26
:1016C0000B0C05D00EE040238DF82430012308E0F8
:1016D00050EA010306D030238DF824308DF8252000
:1016E00002239846DDF820C08CF0080C5CEA0B0C55
:1016F0000BD150EA010301D1630706D530238DF8E1
:1017000024304FF00108A9F10109582A04D038A269
:101710000B9208AA0A920BE03AA2F9E75B46089AF4
:10172000FEF760FD0B9B9B5C0A9A521E0A92137097
:1017300050EA0102F2D10A98ADEB000000F1200B53
:10174000600702D524F4803401E04FF00109D94547
:1017500002DDA9EB0B0000E0002000EB0B0141448F
:101760000890AAEB010AE00306D4DDE90F23214625
:10177000504600F063F806444FF0000908E009A95C
:1017800011F80900DDE90F12904709F10109761CF3
:10179000C145F4DBE0030CD5DDE90F2321465046BB
:1017A00000F04CF8064404E0DDE90F1230209047C9
:1017B000761C0899481E08900029F5DC08E00A9874
:1017C0000A990078491C0A91DDE90F129047761CAE
:1017D000BBF10001ABF1010BF1DC21465046DDE924
:1017E0000F2300F019F806446D1C1BE609280100C0
:1017F0003031323334353637383961626364656687
:101800000000000030313233343536373839414248
:1018100043444546000000002DE9F0410446002500
:101820001E461746880404D405E039462020B047F8
:101830006D1C641EF9D52846BDE8F0812DE9F04104
:10184000044600251E469046C80301D5302700E017
:101850002027880404D505E041463846B0476D1C72
:10186000641EF9D52846BDE8F08110B504290CDACC
:1018700001EB41035C00C1F3400304EB830302FA74
:1018800003F38468234383600DE00B1FD9B201EB9F
:1018900041035C00C1F3400304EB830302FA03F34A
:1018A000C4682343C36010BDF0B50346002500267D
:1018B0000C46042979DA082A34D004DC012A07D03E
:1018C000042A70D119E0102A41D0202A6BD153E0AC
:1018D00001EB41004700C1F3400007EB800702FA2B
:1018E00007F01F6800EA070601EB4100C70003F19B
:1018F0002400C05900F0800556E001EB410047008C
:10190000C1F3400007EB800702FA07F01F6800EA06
:10191000070601EB4100C70003F11000C05900F0B9
:10192000020541E001EB41004700C1F3400007EB35
:10193000800702FA07F01F6800EA070601EB410082
:10194000C70003F11000C05900F004052CE001EBC2
:1019500041004700C1F3400007EB800702FA07F09F
:101960001F6800EA070601EB4100C70003F1100001
:10197000C05900F0080517E001EB41004700C1F332
:10198000400007EB800702FA07F01F6800EA07062D
:1019900001EB4100C70003F11000C05900F0100531
:1019A00002E002E0FFE700BF7AE0201FC4B2082A8D
:1019B00034D004DC012A07D0042A6FD119E0102AA0
:1019C00041D0202A6AD153E004EB44004700C4F31D
:1019D000400007EB800702FA07F05F6800EA07069D
:1019E00001EB4100C70003F12400C05900F080055D
:1019F00055E004EB44004700C4F3400007EB8007C8
:101A000002FA07F05F6800EA070601EB4100C70031
:101A100003F11000C05900F0020540E004EB44005F
:101A20004700C4F3400007EB800702FA07F05F6845
:101A300000EA070601EB4100C70003F11000C0599E
:101A400000F004052BE004EB44004700C4F3400021
:101A500007EB800702FA07F05F6800EA070601EB70
:101A60004100C70003F11000C05900F0080516E05E
:101A700004EB44004700C4F3400007EB800702FA80
:101A800007F05F6800EA070601EB4100C70003F1B9
:101A90001000C05900F0100501E0FFE700BF00BFD3
:101AA00016B10DB10120F0BD0020FCE7044A116819
:101AB00021F00F0141EA0002014B1A60704700005B
:101AC000003C024070B504460D4600BF07210548A2
:101AD00001F0C9F90028F9D0E1B2024801F04BF950
:101AE000204670BD00100140F0B503461C6A5D6AD7
:101AF00000200DE00126864016403EB187000F26EB
:101B0000BE40B443860001FA06F63443461CB0B228
:101B10000828EFD3082011E00126864016405EB168
:101B2000A0F10806B7000F26BE40B543A0F1080695
:101B3000B60001FA06F63543461CB0B21028EBD3C6
:101B40001C625D62F0BD81627047816170470AB1BD
:101B5000816100E08162704702461069084008B167
:101B6000012070470020FCE7F0B504460D461646FC
:101B70002168E268002019E0012787401F409FB1DB
:101B80004FEA400C032707FA0CF7B943470005FA60
:101B900007F739434FEA400C032707FA0CF7BA431B
:101BA000470006FA07F73A43471CB8B21028E3D3B8
:101BB0002160E260F0BD02465069084008B1012092
:101BC00070470020FCE7F0B50C461546012C03D108
:101BD00046681E43466002E046689E43466082684F
:101BE00000210DE001268E401E403EB14F0003262D
:101BF000BE40B2434E0005FA06F632434E1CB1B267
:101C00001029EFD38260F0BDFEF71EFEFEF763FEE3
:101C100014A0FFF7D9FB1023032200210846FFF789
:101C200027F81023042200211846FFF721F810237B
:101C3000052200212020FFF71BF810230622002197
:101C40003020FFF715F8FEF7EDFF00F0F9FD044630
:101C500021460DA0FFF7B8FB03E0FFF7B3F8FFF74D
:101C6000A8F8FAE7496E69742053797374656D209A
:101C7000686173206265656E2066696E6973686568
:101C8000642E0D0A00000000466C61736849443AF6
:101C9000203078253038780D0A0000002DE9F04119
:101CA00003460D46164600240027A0462A48006831
:101CB00000F4E060B0F5E06F03D100BF4FF004081E
:101CC00030E02548006800F4E060B0F5C06F03D153
:101CD00001274FF0030825E01F48006800F4E0608A
:101CE000B0F5A06F02D10227B8461BE01A48006881
:101CF00000F4E060B0F5806F03D103274FF00108D6
:101D000010E01548006800F4E060B0F5407F03D1B2
:101D100004274FF0000805E04FF4A06000F020F821
:101D20000227B846C7F1040005FA00F4C8F104011F
:101D30000F20C8403040044324010848C45403F035
:101D40001F01012088405911890001F1E021C1F8EB
:101D50000001BDE8F08100000CED00E000E400E0CF
:101D600002490143024A1160704700000000FA0571
:101D70000CED00E00348006840F480700149086001
:101D80007047000000700040044A116821F0F00123
:101D900041EA0002014B1A60704700000838024017
:101DA0000348006840F080700149086070470000F7
:101DB00074380240044A116821F4E05141EA0002FB
:101DC000014B1A607047000008380240044A11684D
:101DD00021F4604141EA0002014B1A6070470000A3
:101DE000083802402DE9F04F8CB0064600200A90DA
:101DF0003EA090E8004CC068CDE905BECDF810A02B
:101E000007900FF2EC0ADAE9000ACDE9020A0FF2B4
:101E1000E00ADAE9000ACDE9000A38480068C0F3B0
:101E200081000B900B9820B1012804D0022828D102
:101E300003E0334927E0334925E03048001F0068BC
:101E400000F03F072D48001F0068C0F3881C2B4896
:101E5000001F0068C0F30140401C4FEA40092748BA
:101E6000001F006800F48008B8F5800F01D1254BF1
:101E700000E0234BB3FBF7F000FB0CF0B0FBF9F1F3
:101E800001E01F4900BF00BF1C480068C0F30314F5
:101E900004A8055D21FA05F218480068C0F3822401
:101EA00002A8055D22FA05F0099014480068C0F305
:101EB00042341DF8045022FA05F0089036B1012E84
:101EC00006D0022E06D0032E0AD106E00A9108E0C1
:101ED0000A9206E009980A9003E008980A9000E048
:101EE00000BF00BF0A980CB0BDE8F08F00000000F2
:101EF0000000000001020304060708090838024038
:101F00000024F40040787D0100B51E48006840F0D0
:101F100001001C490860002000F060F819480830F2
:101F2000006820F003001749083108601548006870
:101F300015490840134908600846006820F48020CD
:101F4000086010480830006800F443700D490831FB
:101F500008600E48091F08600C4810380949843190
:101F600008600A48091D0860002006490C31086015
:101F700004488C3000680649084002498C310860EA
:101F800000BD000000380240FFFFF6EA10300024D8
:101F9000FFFFFCFE0146074A02EB9110D0F8000853
:101FA00001F01F0301229A40104008B10120704740
:101FB0000020FCE700300240074A02EB9011D1F804
:101FC000001800F01F0301229A401143024B03EB5B
:101FD0009012C2F80018704700300240F0B5064673
:101FE0000024002700251C2E7DD007DCB6B3102E60
:101FF00010D0182E67D01A2E76D176E0B6F5E05FB5
:1020000019D0B6F5E85F4CD0A6F54050103800283E
:10201000F2D134E004E01120FFF7BCFF0546641C58
:102020001DB94FF6FF708442F5D11120FFF7B2FFC2
:1020300000B101277AE005E041F60140FFF7AAFF71
:102040000546641C1DB96FF070408442F4D141F61E
:102050000140FFF79FFF00B1012767E0FFE704E0C1
:102060000120FFF797FF0546641C15B9B4F5A06F72
:10207000F6D10120FFF78EFF00B1012756E005E001
:1020800043F21100FFF786FF0546641C15B9294885
:102090008442F5D143F21100FFF77CFF00B1012724
:1020A00044E005E041F60150FFF774FF0546641C6B
:1020B00015B920488442F5D141F60150FFF76AFF77
:1020C00000B1012732E004E01920FFF763FF054665
:1020D000641C15B917488442F6D11920FFF75AFF3E
:1020E00000B1012722E010E01FE004E01B20FFF711
:1020F00051FF0546641C15B90E488442F6D11B20D9
:10210000FFF748FF00B1012710E004E01D20FFF7B2
:1021100041FF0546641C15B906488442F6D11D20CE
:10212000FFF738FF00B1012700E000BF00BF3846CD
:10213000F0BD0000FFFF0F00074A02EB9011D1F83D
:10214000001800F01F0301229A401143024B03EBD9
:102150009012C2F80018704700300240074A02EBA4
:102160009011D1F8001800F01F0301229A4091430A
:10217000024B03EB9012C2F8001870470030024087
:10218000074A02EB9011D1F8001800F01F0301225A
:102190009A401143024B03EB9012C2F800187047AB
:1021A00000300240F0B50646059C00251D48076832
:1021B00007F00040B0F1004F07D107F08040B0F1C8
:1021C000804F01D1ED1D00E06D1D022926D33F296E
:1021D00024D805F14000904220D8B2F5FA7F1DD8EE
:1021E000022B05D0042B03D0062B01D0082B15D1D0
:1021F000022C13D30F2C11D841EA82104FF0010C9E
:10220000CCEB530C40EA0C40304340EA0460DFF86A
:1022100014C0ACF17C0CCCF8000001E00020F0BD53
:102220000120FCE780380240044A116821F4407123
:1022300041EA0002014B1A6070470000703802400A
:10224000044A116821F0030141EA0002014B1A60BF
:1022500070470000083802400248006800F00C0097
:1022600070470000083802406FF08071884205D145
:10227000054909680140044A116004E002490968FF
:102280000143014A116070478C38024030B500228A
:10229000002100230024154D2A682D1D2968134DA7
:1022A00010352B68114D08352C680D0C0570C1F3E5
:1022B0000425457001F03F058570C1F34235C570B6
:1022C000C2F305450571C2F30625457102F07F058D
:1022D0008571C3F306450581C3F30E05458103F4FB
:1022E0008005C56004F04005056130BD0028004050
:1022F000F0B5044600250026002720784FF47F0122
:1023000001EA0040E1784FF4604202EA41310843BB
:1023100061784FF4F85202EA01210843A17801F0F4
:102320003F0140EA010721794FF47C1202EA0141A2
:10233000E068084361794FF4FE4202EA0121084354
:10234000A17901F07F0140EA0106CA20184908601E
:102350005320086000F02EF805461DB320894FF485
:10236000FE0101EA00406189C1F30E0108431049F2
:10237000143908600E4824380660001D0760001DEF
:10238000006820F040000A491C39086008460068CF
:102390002169084306491C39086000F02FF800F055
:1023A00055F80546FF20024908602846F0BD0000A8
:1023B0002428004008B54FF48042009200210020FC
:1023C0000D4A126802F040029AB90B4A126842F0B4
:1023D0008002094B1A6000BF074A126802F04001F0
:1023E000009A521E00920AB10029F5D011B10120C5
:1023F00000E0012008BD00000C28004003480068F0
:1024000020F0800001490860704700000C2800405F
:1024100010B54FF4E050FFF7CFFD4FF4E050FFF759
:10242000DDFD4FF48070FFF7FFFEFF2005490860D7
:102430007F200549086041F60F40FFF77DFE00F060
:1024400005F810BD541600205016002008B54FF4B2
:102450000042009200210020134A126802F020027C
:1024600002BBCA22104B1C331A6053221A600E4A58
:10247000121D126822F020020B4B1B1D1A6000BFB8
:10248000094A121D126802F02001009A521E0092A1
:102490000AB10029F4D001B10120FF22024B1C3304
:1024A0001A6000E0012008BD082800402DE9F0472F
:1024B0004FF0FF09FF24FF25FF26FF27A0464648CF
:1024C000006846490881464800684881162008701F
:1024D0000620C870042048703020887000200861F1
:1024E000C86040A0FEF770FF47A0FEF76DFF06E052
:1024F000632000F0C7FC8146384880F80090B9F1AD
:10250000FF0FF5D049464DA0FEF75EFF4EA0FEF747
:102510005BFF05E00C2000F0B5FC04462F4844703A
:10252000FF2CF7D021464EA0FEF74EFF4FA0FEF73E
:102530004BFF05E01F2000F0A5FC054627488570ED
:10254000FF2DF7D0294646A0FEF73EFF4DA0FEF72F
:102550003BFF05E0172000F095FC06461F4806717A
:10256000FF2EF7D031463EA0FEF72EFF4BA0FEF720
:102570002BFF05E03B2000F085FC0746174847711C
:10258000FF2FF7D0394636A0FEF71EFF4AA0FEF710
:102590001BFF06E03B2000F075FC80460F4880F8EA
:1025A0000680B8F1FF0FF5D041462DA0FEF70CFFD5
:1025B0000A48FFF79DFE18B946A0FEF705FF08E0A0
:1025C0004FA0FEF701FF00F0B3F843F2F0205749A7
:1025D0000860BDE8F087000050160020941D002020
:1025E000541600203D3D3D3D3D3D3D436F6E6669C7
:1025F00067757265205254432054696D653D3D3DB9
:102600003D3D3D3D3D0A0D002020706C65617365C8
:102610002073657420746865206C6173742074770E
:102620006F20646967697473206F662063757272C6
:10263000656E7420796561723A0A0D00202032308F
:1026400025302E32780A0D002020706C656173658C
:1026500020696E707574206D6F6E74683A0A0D0093
:10266000202025302E32780A0D0000002020706CCA
:102670006561736520696E707574206461793A0ACA
:102680000D0000002020706C6561736520696E701C
:10269000757420686F75723A0A0D00002020706C06
:1026A0006561736520696E707574206D696E7574EF
:1026B000653A0A0D000000002020706C65617365AA
:1026C00020696E707574207365636F6E643A0A0DCD
:1026D000000000000A0D2A2A205254432074696D1C
:1026E0006520636F6E66696775726174696F6E20CD
:1026F0006661696C656421202A2A0A0D00000000C9
:102700000A0D2A2A205254432074696D6520636F94
:102710006E66696775726174696F6E207375636345
:1027200065737321202A2A0A0D00000050280040FA
:1027300010B50948FFF7AAFD074883784278017869
:1027400006A0FEF741FE04488379427901790CA086
:10275000FEF73AFE10BD0000941D00200D0A4375DF
:102760007272656E742074696D653A20323025305E
:102770002E32782D25302E32782D25302E327800CD
:10278000203A2025302E32783A25302E32783A25DC
:10279000302E3278200D0A00016841F040010160BE
:1027A0007047000000B587B040F60140FFF7C4FC59
:1027B00041F20E00FFF7C0FC4FF4604205211E48B5
:1027C000FFF792F94FF46043002202211A48FFF705
:1027D000CBF94FF46043012200211748FFF7F3F9CA
:1027E0004FF48053002201211348FFF7BDF94FF445
:1027F0008053022200211048FFF7E5F94FF4805181
:102800000D48FFF7A2F9002001904FF4827000906C
:102810000020029005904FF4007003901020069065
:10282000002004906946054800F05EF80348FFF771
:10283000B3FF07B000BD00000004024000380040B4
:102840002DE9F04100240025002600274FF4805197
:102850000F48FFF778F99F2000F01CF8A52000F042
:1028600019F80546A52000F015F80646A52000F049
:1028700011F807464FF480510548FFF766F9280420
:1028800040EA062040EA07042046BDE8F081000047
:102890000004024010B5044600BF02210A4800F0BF
:1028A0001BF80028F9D02146074800F013F800BFB4
:1028B0000121054800F010F80028F9D0024800F086
:1028C00005F8C0B210BD0000003800400146C868DD
:1028D00080B27047C160704702469068084008B1F6
:1028E000012070470020FCE702460020106800F439
:1028F00041500B6818434B6818438B681843CB68EA
:1029000018430B6918434B6918438B6918431060CF
:10291000D36923F40063D3617047000000200021D5
:102920003A4A126842F48032384B1A6000BF401CA9
:10293000364A126802F4003119B94FF6FF7290421C
:10294000F5D1324A126802F400320AB900BFFEE73C
:102950002E4A4032126842F080522C4B40331A60AB
:102960002B4A126842F44042294B1A60274A083227
:102970001268264B08331A601A46126842F4004265
:102980001A601A46126842F4A0521A60214A1B1FAC
:102990001A601A1F126842F080721B1F1A6000BF73
:1029A0001A4A126802F00072002AF9D0184A126816
:1029B00042F48032164B1A6000BF154A526802F486
:1029C0008032002AF9D0124A126842F40032104BC9
:1029D0001A6000BF0E4A526802F40032002AF9D091
:1029E0000A4A0832126822F00302084B08331A60C0
:1029F0001A46126842F002021A6000BF034A083207
:102A0000126802F00802002AF8D07047003802402D
:102A1000007000401978400A10B5FFF77FFF10BD25
:102A200010B504465C49601A8C426FD019DC5B49D2
:102A3000A4EB01008C424ED009DCB4F1804F2ED0C3
:102A400057482044A0B3B0F5806F72D13AE0B0F59A
:102A5000806F49D0B0F5006F4FD0B0F5406FF4D122
:102A60007BE0B0F5923F5BD009DCB0F5806F73D0AE
:102A7000B0F5644F0AD0B0F5684F5AD147E0B0F5D1
:102A8000943F57D0B0F5963F53D15CE04FF41060BF
:102A9000FFF776FB4FF41060FFF760FB79E04FF42F
:102AA0000060FFF76DFB4FF40060FFF757FB70E02D
:102AB000FFE740F60100FFF763FB40F60100FFF778
:102AC0004DFB66E040F60200FFF75AFB40F60200BD
:102AD000FFF744FB5DE040F60300FFF751FB40F6D3
:102AE0000300FFF73BFB54E040F60400FFF748FB10
:102AF00040F60400FFF732FB4BE040F60500FFF71D
:102B00003FFB40F60500FFF729FB42E02EE040F6D0
:102B10000110FFF735FB40F60110FFF71FFB38E00F
:102B20004FF41160FFF72CFB4FF41160FFF716FB19
:102B30002FE02DE040F61110FFF722FB40F61110B8
:102B4000FFF70CFB25E040F61210FFF719FB40F6EB
:102B50001210FFF703FB1CE011E040F60600FFF740
:102B60000FFB40F60600FFF7F9FA12E040F6070007
:102B7000FFF706FB40F60700FFF7F0FA09E040F622
:102B80000800FFF7FDFA40F60800FFF7E7FA00E05B
:102B900000BF00BF10BD0000001C0040000C004042
:102BA00000FCFFBF016841F00101016070470000B7
:102BB0000A8882621D4A90420ED0B0F1804F0BD03D
:102BC0001B4A904208D01B4A904205D01A4A9042B4
:102BD00002D01A4A90420BD1026822F070020260C1
:102BE00002684B881A43026002688B881A430260AD
:102BF0008A68C262124A90420AD0124A904207D0B2
:102C0000026822F4407202600268CB881A430260B4
:102C1000064A904202D0094A904201D10A7B0263DF
:102C2000426942F001024261704700000000014029
:102C30000004004000080040000C00400004014077
:102C40000010004000140040C2680A43C260704790
:102C5000CA43026170470246D06800EA0103106966
:102C6000084010B10BB1012070470020FCE70021A3
:102C70000180418081804FF6FF7181600021C18019
:102C8000017370472DE9F04704460D460027B8460A
:102C9000B94600263349601A8C4235D00CDC3248E4
:102CA0002044E8B1B0F5806F1FD0B0F5006F21D09F
:102CB000B0F5406F32D122E0B0F5806F29D0B0F589
:102CC000184F03D0B0F51C4F28D104E00320FFF7C4
:102CD00089F8074623E00320FFF784F807461EE043
:102CE0000220FFF77FF8074619E00220FFF77AF885
:102CF000074614E00220FFF775F807460FE00220B0
:102D0000FFF770F807460AE00220FFF76BF8074666
:102D100005E00220FFF766F8074600E000BF00BFAD
:102D2000E06800F4004070B1780000EB5500B0FBA3
:102D3000F5F64FF6F07006EA0008C6F3420948EAD5
:102D40000900A0600CE007EB5500B0FBF5F64FF66C
:102D5000F07006EA000806F00F0948EA0900A060D2
:102D6000BDE8F0870078004000BCFFBF014648681E
:102D7000C0F308007047C1F30802426070470000CA
:102D800010B504463349601A8C424DD00CDC3248F1
:102D90002044E0B1B0F5806F22D0B0F5006F31D0A3
:102DA000B0F5406F52D136E0B0F5806F45D0B0F548
:102DB000184F03D0B0F51C4F48D11AE040F604106C
:102DC000FFF7DEF940F60410FFF7C8F93FE040F6E0
:102DD0001100FFF7D5F940F61100FFF7BFF936E013
:102DE00040F61200FFF7CCF940F61200FFF7B6F9F3
:102DF0002DE040F60510FFF7C3F940F60510FFF788
:102E0000ADF924E040F61300FFF7BAF940F61300DD
:102E1000FFF7A4F91BE040F61400FFF7B1F940F604
:102E20001400FFF79BF912E040F61E00FFF7A8F927
:102E300040F61E00FFF792F909E040F61F00FFF789
:102E40009FF940F61F00FFF789F900E000BF00BFBF
:102E500010BD00000078004000BCFFBFC16841F415
:102E60000051C160704710B5024602EB9110006836
:102E700001F01F040123A340184008B1012010BD38
:102E80000020FCE77CB5054600240020009001905E
:102E90001BE000BF05211A48FFF7E5FF0028F9D025
:102EA0001748FFF763FF2146641C4DF82100601EA0
:102EB0005DF82000302804D3601E5DF8200039281A
:102EC00003D910A0FEF780FA641E022CE1D301980A
:102ED00030380099303901EB810100EB4104AC42FC
:102EE00005D9294614A0FEF76FFAFF207CBD019892
:102EF00030380099303900EB0114E0B2F6E70000F9
:102F0000001001400A0D20706C6561736520696EC8
:102F100070757420612076616C6964206E756D62D5
:102F20006572206265747765656E203020616E641D
:102F30002039200A0D0000000A0D20706C656173B5
:102F40006520696E70757420612076616C696420FB
:102F50006E756D626572206265747765656E20308E
:102F600020616E64202564200A0D000010B500EB7E
:102F70009112126801F01F040123A3409A4300EB51
:102F800091131A6010BD10B500EB9112126801F098
:102F90001F040123A3401A4300EB91131A6010BDD4
:102FA00010B500EB91521268C1F304440123A34011
:102FB0009A4300EB91531A6010BD70B5024600238E
:102FC0000024C1F38910105801F01F060125B540F7
:102FD00000EA050302EB91500068C1F304460125A5
:102FE000B54000EA050414B10BB1012070BD00200A
:102FF000FCE7C26822F4C062C260C2680A43C260D1
:1030000070470A460021C16821F004011143C160E4
:103010007047026922F44052026102690A43026168
:1030200070470A460021C16821F008011143C160C0
:103030007047C26822F48052C260C2680A43C2600C
:10304000704700000A0D20202A2A2A2A2A2A2A2A22
:103050002A2A2A2A2A2A2A2A2A2A20525443206340
:10306000616C656E64617220616C61726D20646573
:103070006D6F202A2A2A2A2A2A2A2A2A2A2A2A2A32
:103080002A2A2A2A2A0A0D00A83000080000002057
:1030900068160000AA0200087433000868160020B1
:1030A000500B0000F813000801171B3C24012AFFF5
:1030B0000502143C2B1F09013AFF0602141F6BFC8A
:1030C00004010215FC6B7F200102137F1D08080814
:1030D000F8040008121010FF101010F0080F111063
:1030E00030101F088848300E014080403F401008D3
:1030F000CC4A49484ACC1807127F88888482E01E4F
:10310000FF121252927A0A147E2008101002FA82DC
:1031100082FE804020504C434C50204060080E10EE
:10312000184884443F404458414E60584720254049
:103130004042CC1B04C4FE1A04010114080C103FC9
:103140001048407F40407F41414140211AF0F93909
:10315000FE5310F02A0F482AFF053A0F601F405F08
:1031600055555575041A5F0C1911380B200F094974
:1031700089790909090FAF2FFE02424ACA4A032C76
:103180004202FEF01A40CB400940404F50505C4094
:10319000FF1BF888012AFF0552F81B1F08012A7F30
:1031A00010149F80F03B8082015809E2A2928A8627
:1031B000828080D583807F172424A4FEA3221A2234
:1031C000E5394E15080601FF2A019E1604FF02028A
:1031D0000239BC5B900863120810100444827F011E
:1031E000808040432C102846818019281E84E43CAE
:1031F0002724011AE40C11140402011AFFBD19C49A
:10320000496415FE225A862BFE920129BF111DFF2B
:10321000040807C51F20030C142241E11780402039
:103220001806802D071820409E1201100B207028D0
:10323000262120202438602301013B10123C3D92BE
:1032400012120240211A3F946B103FC51008A8AC1F
:10325000E878F8A8A81FF8F88888F8F8415C3E3E9E
:103260002A01333E3E1808A0B0B8A8B0B0A020167E
:10327000909098E86010083F3F0A2A2A3F1F1011DB
:103280003F3E2426223A1880989890FCFC9090901B
:1032900013F0F023FCFC180D1E1E023F3F02121E0D
:1032A0001E2727202715808898B02D909890904051
:1032B000139080280920303F1F30202E2E60442E8E
:1032C0002E204BC080014BFC84080336C0C03CFF5D
:1032D0007F40014AFF073B40FFE0013A034A7F700D
:1032E0000373FCF86CFFFE02018BFFFF0B02680307
:1032F0006C1F1F04017BFFFF0B02741F038C7F3FB9
:1033000007FFF8F8F0F0702001E60214801AFF01C0
:1033100009122C09132D01FF01C0EDFFFFFE06016C
:103320001AFF01F915391603FF070201D10C12FF2C
:10333000FFFF1409101509151601FF01C1EDFFFF6C
:10334000FF18011914091015391601FF01D20412D2
:103350000201011AFF01011209122A01FF01D71A05
:10336000FF0101FF01FD05FF1F1F0F0F01F4441CAA
:043370004E0E0000FD
:04000005080001AD41
:00000001FF
