:020000040800F2
:1000000030080020C1010008D90600083D0500089D
:10001000D506000809020008C50900080000000014
:10002000000000000000000000000000A107000820
:10003000BD04000800000000DB060008A30700085C
:10004000DB010008DB010008DB010008DB01000820
:10005000DB010008DB010008DB010008DB01000810
:10006000DB010008DB010008DB010008DB01000800
:10007000DB010008DB010008DB010008DB010008F0
:10008000DB010008DB010008DB010008DB010008E0
:10009000DB010008DB010008DB010008DB010008D0
:1000A000DB010008DB010008DB010008DB010008C0
:1000B00075080008DB010008DB010008DB0100080F
:1000C000DB010008DB010008DB010008DB010008A0
:1000D000DB01000811090008DB010008DB01000852
:1000E000DB010008DB010008DB010008DB01000880
:1000F000DB010008DB010008DB010008DB01000870
:10010000DB010008DB010008B1080008DB01000882
:10011000DB010008DB010008DB010008DB0100084F
:10012000DB010008DB010008DB010008DB0100083F
:10013000DB010008DB010008DB010008DB0100082F
:10014000DB010008DB010008DB010008DB0100081F
:10015000DB010008DB010008DB010008DB0100080F
:10016000DB010008DB010008DB010008DB010008FF
:10017000DB010008DB010008DB01000800000000D3
:10018000DB010008DB010008DB010008DB010008DF
:10019000DB010008DB010008DB01000800000000B3
:1001A000DB010008DB010008DB010008DFF80CD0F0
:1001B00000F018F800480047AD0B00083008002098
:1001C0000648804706480047FEE7FEE7FEE7FEE7F1
:1001D000FEE7FEE7FEE7FEE7FEE7FEE7AD07000805
:1001E000AD010008064C074D06E0E06840F0010351
:1001F00094E8070098471034AC42F6D3FFF7DAFFD3
:10020000DC170008FC17000800BFFEE700200149CA
:1002100008707047030000200020014908707047F3
:100220000200002010B540F6014000F019FF40F632
:10023000084000F015FF202301221146104800F06D
:1002400065FC2023022200210D4800F08EFC2021B5
:100250000B4800F054FC4FF480730122114609480A
:1002600000F054FC4FF4807302220021054800F096
:100270007CFC4FF48071034800F03FFC10BD00008F
:10028000000402400020024010B54FF4A06000F0CE
:100290000FFD10BD38B500F0CBFD102000F020FEA2
:1002A000102000F02FFE0446012C29D100F0D8FBCD
:1002B000002000F007FDE00300F01CFD4FF4A0500B
:1002C00000F00CFD092002234FF4F0721921009078
:1002D000580500F0FBFE182000F002FE00BF1920B8
:1002E00000F0ECFD0028FAD0022000F031FF00BF42
:1002F00000F03AFF0028FBD04FF0807000F03CFF88
:1003000038BD7FB504460D464FF4805000F0A8FE7E
:100310004FF0804000F0C4FF684601F0E8F8ADF807
:1003200000500020ADF804000294ADF806006946C4
:100330004FF0804001F07CF80121880701F0C4F8FB
:10034000002201211C2000F051FC4FF0804001F000
:1003500069F87FBD7FB504460D4641F2030000F009
:100360007FFE0F4800F09CFF684601F0C0F8ADF832
:1003700000500020ADF804000294ADF80600694674
:10038000074801F055F80121054801F09DF80022C9
:100390000121322000F02AFC014801F043F87FBD22
:1003A000000C004010B504464FF4406000F058FEC9
:1003B00041F2041000F054FE4FF4007207212B4864
:1003C00000F06CFB4FF4007301220221274800F07B
:1003D0009DFB4FF4007302220021244800F0C5FB6E
:1003E0004FF480620721214800F058FB4FF48063EE
:1003F000002202211D4800F089FB4FF48063022295
:1004000000211A4800F0B1FB194801F0F9F8214623
:10041000174801F077F80021154801F0C6F90021CE
:10042000134801F0D2F90021114801F0AEF904217E
:100430000F4801F0B2F908210D4801F0BEF940F271
:1004400005310B4801F06BF940F20531084801F025
:1004500066F9074801F042F900221146252000F014
:10046000C5FB00200349087010BD000000000240D9
:10047000001001400800002030B50346002016E0BF
:10048000B3F900509C68645D0C541C88641C24B251
:100490001C80B3F90040B3F90450AC4201DB0024E6
:1004A0001C80441C20B2DC88641E24B2DC80B3F9BA
:1004B0000640002C01DD9042E2DB30BD704770B594
:1004C0000346002016E00C5CB3F902609D68AC5551
:1004D0005C88641C24B25C80B3F90240B3F9045018
:1004E000AC4201DB00245C80441C20B2DC88641C2C
:1004F00024B2DC80B3F90640B3F90450AC4201DA0F
:100500009042E0DB70BD000010B501200349087087
:1005100040F20731024801F002F910BD0800002046
:1005200000100140014800787047000003000020DF
:1005300001480078704700000200002000BFFEE77D
:1005400010B500F033F900F027F800F00FF800F0D4
:100550005DF800F027F800F005F84FF4E13000F006
:1005600061F810BD10B5FFF75DFE10BD10B5FFF7C7
:100570008BFE10BD30B50B46002404804480828081
:10058000C4808360002104E0002485686C544C1C06
:1005900021B29142F8DB30BD10B5FFF77BFE10BDF4
:1005A0007047000030B5164800684FF47A72B0FB0F
:1005B000F2F1481EB0F1807F01D301201BE0481EFC
:1005C0004FF0E022506150170F22002804DB130780
:1005D0001C0E0C4B1C5406E013071D0E0A4B00F0BA
:1005E0000F04241F1D5500BF00204FF0E022906132
:1005F00007201061002008B100BFFEE730BD0000F9
:100600001000002000E400E018ED00E010B5EF213C
:1006100040F2E730FFF775FEEF2140F2E730FFF7D9
:1006200099FE10BD10B5044600F004F82046FFF70F
:10063000B9FE10BD10B5002406E000200A49085597
:100640000A490855601C04B2B4F5007FF5DB4FF48D
:10065000007205490648FFF78DFF4FF40072034909
:100660000448FFF787FF10BD300000203002002053
:10067000180000202400002070B5044612480088AD
:10068000401C1149088008460088A0421BDB00205E
:10069000088020210D4800F060FAC0F10100C5B2C9
:1006A0002A462021094800F02CFA4FF480710848AE
:1006B00000F053FAC0F10100C5B22A464FF4807130
:1006C000034800F01EFA70BD000000200004024044
:1006D0000020024000BFFEE77047704710B5FFF7EB
:1006E00021FF20B102A000F093F9FFF78FFD10BDAC
:1006F0005468697320697320746865206669727331
:10070000742047443332463437302050726F6A6564
:1007100063742C206279205A68616E6773616E0D74
:100720000A00000008B5FFF703FFA0B1FA20FFF7A9
:10073000A3FF08E09DF80000401CC0B2009001211A
:10074000684600F04DF90121684600F01BF80028CA
:10075000F0D1FFF761FD08BD0146C88808B9012046
:1007600070470020FCE7000070B504460025012218
:1007700021460348FFF780FEC5B2284670BD000041
:100780001800002070B504460D4600262AB2214606
:100790000248FFF771FE0646304670BD2400002077
:1007A000704710B500F0A8F810BD000008B52D483E
:1007B000006840F470002B4908602B48006840F046
:1007C00001002949086028480830006840F080008E
:1007D0002549083108600020009002E00098401C84
:1007E00000904CF2503100988842F7D31E480830F0
:1007F000006840F090001C4908310860002000901B
:1008000002E00098401C00904CF250310098884261
:10081000F7D315480830006820F00300124908316A
:10082000086011480068114908400F4908600846EF
:10083000006820F48020086000200B49083108601F
:1008400000BF09480830006800200028F9D1084896
:100850000549091D0860002003490C31086000F0BB
:100860001BFD08BD88ED00E000380240FFFFF6FEEA
:100870001030002410B50121880700F02CFE01285B
:1008800003D10121800700F023FE07480088401CA7
:100890000549088008460088022804DB00200880FB
:1008A00001200249087010BD040000200200002051
:1008B00010B501210D4800F00EFE012803D10121E1
:1008C0000A4800F005FE0A480088401C00B20849AA
:1008D00008800846B0F90000B0F57A7F04DB0020FC
:1008E000088001200349087010BD0000000C004082
:1008F00006000020030000200448006820B10348DF
:100900000068401E01490860704700000C0000208C
:1009100008B5002000902449244800F01AFF60B177
:100920002149224800F008FF204800F05FFEC0B2D5
:1009300000909DF8000000F047F81D491B4800F0AA
:1009400008FF012806D11A49184800F0F5FE17489B
:1009500000F04CFE1749154800F0FBFE18B315498E
:10096000124800F0E9FE2520002807DB00F01F02F6
:1009700001219140104A430942F8231000BF684604
:10098000FFF7F2FE9DF80010084800F034FE0B4817
:10099000FFF7E2FE38B100200949087040F2073144
:1009A000024800F0AFFE08BD05030500001001403D
:1009B000000503000703070080E200E018000020A4
:1009C0000800002000BFFEE731B50024012269467F
:1009D0000248FFF774FDC4B2204638BD2400002051
:1009E00070B504460D4600262AB221460648FFF798
:1009F00066FD0646B6F5007F04D20448007808B9C3
:100A0000FFF782FD304670BD18000020080000206E
:100A1000014A024900F013B8790A000814000020C6
:100A200002E008C8121F08C1002AFAD170477047B7
:100A3000002001E001C1121F002AFBD170472DE9FF
:100A4000F04116460F460446002503E03946B047FC
:100A5000641C6D1C20780028F8D12846BDE8F08180
:100A6000044A116821F00F0141EA0002014B1A60AB
:100A700070470000003C024070B504460D4600BFC0
:100A80000721054800F02FFE0028F9D0E1B2024806
:100A900000F0B1FD204670BD00100140F0B50346E6
:100AA0001C6A5D6A00200DE00126864016403EB1BA
:100AB00087000F26BE40B443860001FA06F6344391
:100AC000461CB0B20828EFD3082011E0012686406A
:100AD00016405EB1A0F10806B7000F26BE40B54330
:100AE000A0F10806B60001FA06F63543461CB0B27E
:100AF0001028EBD31C625D62F0BD8162704781619A
:100B000070470AB1816100E081627047F0B5044628
:100B10000D4616462168E268002019E0012787404B
:100B20001F409FB14FEA400C032707FA0CF7B94367
:100B3000470005FA07F739434FEA400C032707FA45
:100B40000CF7BA43470006FA07F73A43471CB8B216
:100B50001028E3D32160E260F0BD024650690840EE
:100B600008B1012070470020FCE7F0B50C4615469F
:100B7000012C03D146681E43466002E046689E434E
:100B80004660826800210DE001268E401E403EB185
:100B90004F000326BE40B2434E0005FA06F632432C
:100BA0004E1CB1B21029EFD38260F0BDFFF7C8FC34
:100BB000FFF7F6FC04A0FFF72BFF03E0FFF7B2FD01
:100BC000FFF78CFDFAE70000496E697420537973D2
:100BD00074656D20686173206265656E2066696E5C
:100BE00069736865642E0D0A000000002DE9F0416C
:100BF00003460D46164600240027A0462A480068F2
:100C000000F4E060B0F5E06F03D100BF4FF00408DE
:100C100030E02548006800F4E060B0F5C06F03D113
:100C200001274FF0030825E01F48006800F4E0604A
:100C3000B0F5A06F02D10227B8461BE01A48006841
:100C400000F4E060B0F5806F03D103274FF0010896
:100C500010E01548006800F4E060B0F5407F03D173
:100C600004274FF0000805E04FF4A06000F020F8E2
:100C70000227B846C7F1040005FA00F4C8F10401E0
:100C80000F20C8403040044324010848C45403F0F6
:100C90001F01012088405911890001F1E021C1F8AC
:100CA0000001BDE8F08100000CED00E000E400E090
:100CB00002490143024A1160704700000000FA0532
:100CC0000CED00E0044A116821F0F00141EA000255
:100CD000014B1A607047000008380240044A11684E
:100CE00021F4E05141EA0002014B1A607047000014
:100CF00008380240044A116821F4604141EA0002C8
:100D0000014B1A6070470000083802402DE9F04F8F
:100D10008CB0064600200A903EA090E8004CC068C7
:100D2000CDE905BECDF810A007900FF2EC0ADAE984
:100D3000000ACDE9020A0FF2E00ADAE9000ACDE979
:100D4000000A38480068C0F381000B900B9820B16E
:100D5000012804D0022828D103E0334927E0334991
:100D600025E03048001F006800F03F072D48001FB5
:100D70000068C0F3881C2B48001F0068C0F30140C6
:100D8000401C4FEA40092748001F006800F4800813
:100D9000B8F5800F01D1254B00E0234BB3FBF7F0F2
:100DA00000FB0CF0B0FBF9F101E01F4900BF00BFF0
:100DB0001C480068C0F3031404A8055D21FA05F27D
:100DC00018480068C0F3822402A8055D22FA05F0E5
:100DD000099014480068C0F342341DF8045022FA08
:100DE00005F0089036B1012E06D0022E06D0032E53
:100DF0000AD106E00A9108E00A9206E009980A90F2
:100E000003E008980A9000E000BF00BF0A980CB009
:100E1000BDE8F08F000000000000000001020304A4
:100E200006070809083802400024F40040787D01D4
:100E300000B51E48006840F001001C490860002011
:100E400000F060F819480830006820F003001749E6
:100E500008310860154800681549084013490860C2
:100E60000846006820F480200860104808300068B8
:100E700000F443700D49083108600E48091F0860EE
:100E80000C4810380949843108600A48091D086077
:100E9000002006490C31086004488C30006806497F
:100EA000084002498C31086000BD00000038024053
:100EB000FFFFF6EA10300024FFFFFCFE0146074A60
:100EC00002EB9110D0F8000801F01F0301229A40B4
:100ED000104008B1012070470020FCE700300240BC
:100EE000074A02EB9011D1F8001800F01F0301220D
:100EF0009A401143024B03EB9012C2F8001870475E
:100F000000300240F0B506460024002700251C2EC4
:100F10007DD007DCB6B3102E10D0182E67D01A2E55
:100F200076D176E0B6F5E05F19D0B6F5E85F4CD043
:100F3000A6F5405010380028F2D134E004E011202A
:100F4000FFF7BCFF0546641C1DB94FF6FF708442D5
:100F5000F5D11120FFF7B2FF00B101277AE005E0DB
:100F600041F60140FFF7AAFF0546641C1DB96FF06A
:100F700070408442F4D141F60140FFF79FFF00B179
:100F8000012767E0FFE704E00120FFF797FF054630
:100F9000641C15B9B4F5A06FF6D10120FFF78EFFE0
:100FA00000B1012756E005E043F21100FFF786FF8C
:100FB0000546641C15B929488442F5D143F2110055
:100FC000FFF77CFF00B1012744E005E041F6015046
:100FD000FFF774FF0546641C15B920488442F5D11B
:100FE00041F60150FFF76AFF00B1012732E004E04B
:100FF0001920FFF763FF0546641C15B917488442A2
:10100000F6D11920FFF75AFF00B1012722E010E0C6
:101010001FE004E01B20FFF751FF0546641C15B9D3
:101020000E488442F6D11B20FFF748FF00B101278C
:1010300010E004E01D20FFF741FF0546641C15B9D0
:1010400006488442F6D11D20FFF738FF00B1012782
:1010500000E000BF00BF3846F0BD0000FFFF0F00FA
:10106000074A02EB9011D1F8001800F01F0301228B
:101070009A401143024B03EB9012C2F800187047DC
:1010800000300240074A02EB9011D1F8001800F03E
:101090001F0301229A409143024B03EB9012C2F8C6
:1010A0000018704700300240074A02EB9011D1F857
:1010B000001800F01F0301229A401143024B03EB7A
:1010C0009012C2F80018704700300240F0B5064692
:1010D000059C00251D48076807F00040B0F1004F4F
:1010E00007D107F08040B0F1804F01D1ED1D00E045
:1010F0006D1D022926D33F2924D805F140009042D6
:1011000020D8B2F5FA7F1DD8022B05D0042B03D0CE
:10111000062B01D0082B15D1022C13D30F2C11D87C
:1011200041EA82104FF0010CCCEB530C40EA0C402A
:10113000304340EA0460DFF814C0ACF17C0CCCF81A
:10114000000001E00020F0BD0120FCE780380240F3
:10115000044A116821F0030141EA0002014B1A60C0
:1011600070470000083802400248006800F00C0098
:1011700070470000083802406FF08071884205D146
:10118000054909680140044A116004E00249096800
:101190000143014A116070478C3802400020002151
:1011A0003A4A126842F48032384B1A6000BF401C41
:1011B000364A126802F4003119B94FF6FF729042B4
:1011C000F5D1324A126802F400320AB900BFFEE7D4
:1011D0002E4A4032126842F080522C4B40331A6043
:1011E0002B4A126842F44042294B1A60274A0832BF
:1011F0001268264B08331A601A46126842F40042FD
:101200001A601A46126842F4A0521A60214A1B1F43
:101210001A601A1F126842F080721B1F1A6000BF0A
:101220001A4A126802F00072002AF9D0184A1268AD
:1012300042F48032164B1A6000BF154A526802F41D
:101240008032002AF9D0124A126842F40032104B60
:101250001A6000BF0E4A526802F40032002AF9D028
:101260000A4A0832126822F00302084B08331A6057
:101270001A46126842F002021A6000BF034A08329E
:10128000126802F00802002AF8D0704700380240C5
:10129000007000401978400A10B5FFF77FFF10BDBD
:1012A00010B504465C49601A8C426FD019DC5B496A
:1012B000A4EB01008C424ED009DCB4F1804F2ED05B
:1012C00057482044A0B3B0F5806F72D13AE0B0F532
:1012D000806F49D0B0F5006F4FD0B0F5406FF4D1BA
:1012E0007BE0B0F5923F5BD009DCB0F5806F73D046
:1012F000B0F5644F0AD0B0F5684F5AD147E0B0F569
:10130000943F57D0B0F5963F53D15CE04FF4106056
:10131000FFF7CAFE4FF41060FFF7B4FE79E04FF418
:101320000060FFF7C1FE4FF40060FFF7ABFE70E016
:10133000FFE740F60100FFF7B7FE40F60100FFF7B8
:10134000A1FE66E040F60200FFF7AEFE40F60200A6
:10135000FFF798FE5DE040F60300FFF7A5FE40F6BC
:101360000300FFF78FFE54E040F60400FFF79CFEF9
:1013700040F60400FFF786FE4BE040F60500FFF75D
:1013800093FE40F60500FFF77DFE42E02EE040F6BA
:101390000110FFF789FE40F60110FFF773FE38E0F9
:1013A0004FF41160FFF780FE4FF41160FFF76AFE03
:1013B0002FE02DE040F61110FFF776FE40F61110F9
:1013C000FFF760FE25E040F61210FFF76DFE40F6D5
:1013D0001210FFF757FE1CE011E040F60600FFF781
:1013E00063FE40F60600FFF74DFE12E040F60700F0
:1013F000FFF75AFE40F60700FFF744FE09E040F60B
:101400000800FFF751FE40F60800FFF73BFE00E042
:1014100000BF00BF10BD0000001C0040000C0040D9
:1014200000FCFFBF016841F001010160704700004E
:101430000A8882621D4A90420ED0B0F1804F0BD0D4
:101440001B4A904208D01B4A904205D01A4A90424B
:1014500002D01A4A90420BD1026822F07002026058
:1014600002684B881A43026002688B881A43026044
:101470008A68C262124A90420AD0124A904207D049
:10148000026822F4407202600268CB881A4302604C
:10149000064A904202D0094A904201D10A7B026377
:1014A000426942F0010242617047000000000140C1
:1014B0000004004000080040000C0040000401400F
:1014C0000010004000140040C2680A43C260704728
:1014D000CA43026170470246D06800EA01031069FE
:1014E000084010B10BB1012070470020FCE700213B
:1014F0000180418081804FF6FF7181600021C180B1
:10150000017370472DE9F04704460D460027B846A1
:10151000B94600263349601A8C4235D00CDC32487B
:101520002044E8B1B0F5806F1FD0B0F5006F21D036
:10153000B0F5406F32D122E0B0F5806F29D0B0F520
:10154000184F03D0B0F51C4F28D104E00320FFF75B
:10155000DDFB074623E00320FFF7D8FB07461EE02C
:101560000220FFF7D3FB074619E00220FFF7CEFB6E
:10157000074614E00220FFF7C9FB07460FE00220F0
:10158000FFF7C4FB07460AE00220FFF7BFFB074650
:1015900005E00220FFF7BAFB074600E000BF00BFEE
:1015A000E06800F4004070B1780000EB5500B0FB3B
:1015B000F5F64FF6F07006EA0008C6F3420948EA6D
:1015C0000900A0600CE007EB5500B0FBF5F64FF604
:1015D000F07006EA000806F00F0948EA0900A0606A
:1015E000BDE8F0870078004000BCFFBF01464868B6
:1015F000C0F308007047C1F3080242607047000062
:1016000010B504463349601A8C424DD00CDC324888
:101610002044E0B1B0F5806F22D0B0F5006F31D03A
:10162000B0F5406F52D136E0B0F5806F45D0B0F5DF
:10163000184F03D0B0F51C4F48D11AE040F6041003
:10164000FFF732FD40F60410FFF71CFD3FE040F6C7
:101650001100FFF729FD40F61100FFF713FD36E0FA
:1016600040F61200FFF720FD40F61200FFF70AFDDA
:101670002DE040F60510FFF717FD40F60510FFF7C7
:1016800001FD24E040F61300FFF70EFD40F61300C5
:10169000FFF7F8FC1BE040F61400FFF705FD40F6ED
:1016A0001400FFF7EFFC12E040F61E00FFF7FCFC11
:1016B00040F61E00FFF7E6FC09E040F61F00FFF7CA
:1016C000F3FC40F61F00FFF7DDFC00E000BF00BFA9
:1016D00010BD00000078004000BCFFBFC16841F4AD
:1016E0000051C160704710B5024602EB91100068CE
:1016F00001F01F040123A340184008B1012010BDD0
:101700000020FCE710B500EB9112126801F01F04F5
:101710000123A3409A4300EB91131A6010BD10B54A
:1017200000EB9112126801F01F040123A3401A4339
:1017300000EB91131A6010BD10B500EB91521268C6
:10174000C1F304440123A3409A4300EB91531A6070
:1017500010BD70B5024600230024C1F38910105853
:1017600001F01F060125B54000EA050302EB915088
:101770000068C1F304460125B54000EA050414B130
:101780000BB1012070BD0020FCE7C26822F4C062EA
:10179000C260C2680A43C26070470A460021C1683D
:1017A00021F004011143C1607047026922F44052E4
:1017B000026102690A43026170470A460021C1685A
:1017C00021F008011143C1607047C26822F48052C1
:1017D000C260C2680A43C26070470000FC1700087C
:1017E0000000002018000000200A0008141800085B
:1017F0001800002018080000300A0008000000004F
:10180000000000000000000000000000001C4E0E60
:0418100000000000D4
:04000005080001AD41
:00000001FF
