:020000040800F2
:1000000050080020C10100081D08000875060008FE
:10001000190800084B020008750B000800000000DA
:10002000000000000000000000000000510900086E
:10003000E5050008000000001F080008530900083B
:10004000DB010008DB010008DB010008DB01000820
:10005000DB010008DB010008DB010008DB01000810
:10006000DB010008DB010008DB010008DB01000800
:10007000DB010008DB010008DB010008DB010008F0
:10008000DB010008DB010008DB010008DB010008E0
:10009000DB010008DB010008DB010008DB010008D0
:1000A000DB010008DB010008DB010008DB010008C0
:1000B000250A0008DB010008DB010008DB0100085D
:1000C000DB010008DB010008DB010008DB010008A0
:1000D000DB010008C10A0008DB010008DB010008A1
:1000E000DB010008DB010008DB010008DB01000880
:1000F000DB010008DB010008DB010008DB01000870
:10010000DB010008DB010008610A0008DB010008D0
:10011000DB010008DB010008DB010008DB0100084F
:10012000DB010008DB010008DB010008DB0100083F
:10013000DB010008DB010008DB010008DB0100082F
:10014000DB010008DB010008DB010008DB0100081F
:10015000DB010008DB010008DB010008DB0100080F
:10016000DB010008DB010008DB010008DB010008FF
:10017000DB010008DB010008DB01000800000000D3
:10018000DB010008DB010008DB010008DB010008DF
:10019000DB010008DB010008DB01000800000000B3
:1001A000DB010008DB010008DB010008DFF80CD0F0
:1001B00000F02EF8004800476110000850080020A9
:1001C0000648804706480047FEE7FEE7FEE7FEE7F1
:1001D000FEE7FEE7FEE7FEE7FEE7FEE75D09000853
:1001E000AD01000830B50B46014600202022012455
:1001F00009E021FA02F59D4205D303FA02F5491BF5
:1002000004FA02F52844151EA2F10102F1DC30BD0A
:10021000064C074D06E0E06840F0010394E8070053
:1002200098471034AC42F6D3FFF7C4FFEC1E000829
:100230000C1F000810B50146C1F3031201F00F03B3
:1002400002EB820403EB440010BD00BFFEE7000098
:100250000020014908707047030000200020014978
:10026000087070470200002010B540F6014001F010
:1002700065F940F6084001F061F92023012211469A
:10028000104800F09DFE2023022200210D4800F0BE
:10029000C6FE20210B4800F08CFE4FF48073012233
:1002A0001146094800F08CFE4FF4807302220021B1
:1002B000054800F0B4FE4FF48071034800F077FE6B
:1002C00010BD0000000402400020024010B54FF4B1
:1002D000A06000F047FF10BD38B501F017F81020FE
:1002E00001F06CF8102001F07BF80446012C29D1B4
:1002F00000F010FE002000F053FFE00300F068FF64
:100300004FF4A05000F058FF092002234FF4F07280
:1003100019210090580501F047F9182001F04EF816
:1003200000BF192001F038F80028FAD0022001F0AF
:1003300089F900BF01F092F90028FBD04FF08070DE
:1003400001F094F938BD000000B585B041F21C0001
:1003500001F0F4F800F01AFF00F052F841F60F40F7
:1003600001F0ECF801F056FA684601F091F940F21C
:10037000E67000F038F9C0B28DF8000001208DF869
:10038000010000F030F9C0B28DF8020006208DF8AF
:100390000300122000F027F9C0B28DF804000020FD
:1003A00000F021F9C0B28DF80500002000F01BF923
:1003B000C0B28DF806007F20ADF80800FF20ADF830
:1003C0000A00002003900490684601F093F9012888
:1003D00004D005A000F0DCFB00BFFEE701F01AFA34
:1003E00000F0CAFE05B000BD5365745254433A2074
:1003F000C5E4D6C3525443CAA7B0DC0D0A000000BE
:1004000010B54FF4E05000F0D9FF4FF4E05000F089
:10041000E7FF012802D1000201F008F941F60F4080
:1004200001F08CF801F0F6F910BD7FB504460D46D9
:100430004FF4805001F082F84FF0804001F09CFAB8
:10044000684601F0C0FBADF800500020ADF8040094
:100450000294ADF8060069464FF0804001F054FB6D
:100460000121880701F09CFB002201211C2000F0E3
:1004700017FE4FF0804001F041FB7FBD7FB5044681
:100480000D4641F2030001F059F80F4801F074FAEB
:10049000684601F098FBADF800500020ADF804006C
:1004A0000294ADF806006946074801F02DFB0121D2
:1004B000054801F075FB00220121322000F0F0FD1B
:1004C000014801F01BFB7FBD000C004010B5044645
:1004D0004FF4406001F032F841F2041001F02EF8C0
:1004E0004FF4007207212B4800F032FD4FF40073E7
:1004F00001220221274800F063FD4FF4007302221D
:100500000021244800F08BFD4FF480620721214830
:1005100000F01EFD4FF48063002202211D4800F010
:100520004FFD4FF48063022200211A4800F077FD4E
:10053000194801F0D1FB2146174801F04FFB00217B
:10054000154801F09EFC0021134801F0AAFC00218F
:10055000114801F086FC04210F4801F08AFC0821B3
:100560000D4801F096FC40F205310B4801F043FCC8
:1005700040F20531084801F03EFC074801F01AFC42
:1005800000221146252000F08BFD00200349087051
:1005900010BD0000000002400010014008000020D3
:1005A00030B50346002016E0B3F900509C68645D46
:1005B0000C541C88641C24B21C80B3F90040B3F9AD
:1005C0000450AC4201DB00241C80441C20B2DC88B7
:1005D000641E24B2DC80B3F90640002C01DD904299
:1005E000E2DB30BD704730B501466424B1FBF4F561
:1005F00004FB15110A24B1FBF4F404F00F020A24E1
:10060000B1FBF4F504FB151404F00F0343EA0210E8
:1006100030BD70B50346002016E00C5CB3F90260F3
:100620009D68AC555C88641C24B25C80B3F90240C0
:10063000B3F90450AC4201DB00245C80441C20B2BE
:10064000DC88641C24B2DC80B3F90640B3F90450A2
:10065000AC4201DA9042E0DB70BD00000148007856
:100660007047000003000020014800787047000038
:100670000200002000BFFEE710B500F06FF900F0A7
:1006800029F800F011F84FF4E13000F06DF800F0B7
:100690005FF800F029F800F003F800F01FF810BD33
:1006A00010B5FFF7E1FD10BD10B5FFF70FFE10BD4F
:1006B00030B50B460024048044808280C48083606F
:1006C000002104E0002485686C544C1C21B2914246
:1006D000F8DB30BD10B5FFF7FFFD10BD10B5FFF71B
:1006E00033FE10BD7047000030B5164800684FF467
:1006F0007A72B0FBF2F1481EB0F1807F01D3012085
:100700001BE0481E4FF0E022506150170F220028D6
:1007100004DB13071C0E0C4B1C5406E013071D0EC4
:100720000A4B00F00F04241F1D5500BF00204FF09E
:10073000E022906107201061002008B100BFFEE7B1
:1007400030BD00002C00002000E400E018ED00E0C7
:1007500010B5EF2140F2E730FFF767FEEF2140F2DE
:10076000E730FFF78BFE10BD10B5044600F004F82B
:100770002046FFF7ABFE10BD10B5002406E00020B8
:100780000A4908550A490855601C04B2B4F5007FAF
:10079000F5DB4FF4007205490648FFF789FF4FF477
:1007A000007203490448FFF783FF10BD4C0000208E
:1007B0004C020020340000204000002070B50446A8
:1007C00012480088401C1149088008460088A04251
:1007D0001BDB0020088020210D4800F018FCC0F130
:1007E0000100C5B22A462021094800F0E4FB4FF47D
:1007F0008071084800F00BFCC0F10100C5B22A4628
:100800004FF48071034800F0D6FB70BD000000205B
:10081000000402400020024000BFFEE7704770471E
:1008200010B5FFF71BFF18B100F04AF8FFF710FDF5
:1008300010BD10B5FFF718FF20B1FA20FFF7BEFF7B
:10084000FFF70CFD10BD0146C88808B901207047AC
:100850000020FCE7F0B585B004460D4616461F465D
:10086000684600F015FF9DF80000FFF7E3FC00F577
:10087000FA6020609DF8010028609DF80200FFF7F3
:10088000D9FC30609DF80300386005B0F0BD70B54C
:1008900086B004460D46164601A800F0F9FE9DF804
:1008A0000800FFF7C7FC20609DF80900FFF7C2FCB5
:1008B00028609DF80A00FFF7BDFC306006B070BDEF
:1008C00010B58CB008AB09AA0AA90BA8FFF7C2FFA4
:1008D00005AA06A907A8FFF7DAFFDDE90730401EE1
:1008E000084C54F82000DDE90512CDE901320391EE
:1008F000009005A0DDE909320B9900F049F90CB030
:1009000010BD00000C000020B5B1C7B0CAB1BCE4F6
:10091000A3BA25642D253032642D2530326420257C
:100920007320253032643A253032643A25303264FF
:100930000D0A000070B50446002501222146034837
:10094000FFF72EFEC5B2284670BD0000340000201F
:10095000704710B500F0A8F810BD000008B52D488C
:10096000006840F470002B4908602B48006840F094
:1009700001002949086028480830006840F08000DC
:100980002549083108600020009002E00098401CD2
:1009900000904CF2503100988842F7D31E4808303E
:1009A000006840F090001C49083108600020009069
:1009B00002E00098401C00904CF2503100988842B0
:1009C000F7D315480830006820F0030012490831B9
:1009D000086011480068114908400F49086008463E
:1009E000006820F48020086000200B49083108606E
:1009F00000BF09480830006800200028F9D10848E5
:100A00000549091D0860002003490C31086000F009
:100A1000AFFF08BD88ED00E000380240FFFFF6FEA2
:100A20001030002410B50121880701F0C0F801281A
:100A300003D10121800701F0B7F807480088401C66
:100A40000549088008460088022804DB0020088049
:100A500001200249087010BD04000020020000209F
:100A600010B501210D4801F0A2F8012803D10121A0
:100A70000A4801F099F80A480088401C00B2084969
:100A800008800846B0F90000B0F57A7F04DB00204A
:100A9000088001200349087010BD0000000C0040D0
:100AA00006000020030000200448006820B103482D
:100AB0000068401E014908607047000028000020BF
:100AC00008B5002000902449244801F0AEF960B137
:100AD0002149224801F09CF9204801F0F3F8C0B206
:100AE00000909DF8000000F047F81D491B4801F0F8
:100AF0009CF9012806D11A49184801F089F91748CC
:100B000001F0E0F81749154801F08FF918B31549BD
:100B1000124801F07DF92520002807DB00F01F02B4
:100B200001219140104A430942F8231000BF684652
:100B3000FFF700FF9DF80010084801F0C8F80B48C7
:100B4000FFF781FE38B100200949087040F20731F3
:100B5000024801F043F908BD0503050000100140FB
:100B6000000503000703070080E200E034000020D6
:100B70000800002000BFFEE731B5002401226946CD
:100B80000248FFF746FDC4B2204638BD40000020B1
:100B90000FB4054B10B503A9044A029800F018F8E9
:100BA00010BC5DF814FB00002D0F00083000002081
:100BB00002E008C8121F08C1002AFAD17047704726
:100BC000002001E001C1121F002AFBD17047000084
:100BD0002DE9FF4F8BB088460546002606E0252804
:100BE0000BD0DDE90D1290476D1C761C287800288B
:100BF000F5D10FB03046BDE8F08F0024A146A246E3
:100C00000122AE4900E0044315F8013F203B02FAFF
:100C100003F00842F7D128782A2810D06FF02F026D
:100C20002878A0F13001092915D809EB890102EBD8
:100C3000410144F0020400EB01096D1CF0E758F893
:100C4000041B5FEA010903D544F40054C9F100090B
:100C500044F002046D1C28782E2817D115F8010FD6
:100C600044F004042A280ED06FF02F022878A0F157
:100C7000300109290AD80AEB8A0102EB410100EB95
:100C8000010A6D1CF2E758F804AB6D1C28786C283B
:100C90000FD006DC4C2817D068280DD06A2814D154
:100CA00004E0742810D07A280FD10DE044F4001429
:100CB0000AE044F4801401E044F44014697881426D
:100CC00002D104F580146D1C6D1C2878692865D04C
:100CD00006DC00288DD0632827D0642806D15DE08B
:100CE0006E2808D073282AD0752877D0DDE90D1238
:100CF0009047761CE0E0C4F30250022809D0032894
:100D00000DD0D8F8001004280DD00E6008F10408AA
:100D1000D2E0D8F80010F217C1E90062F6E7D8F87F
:100D200000100E80F2E70E70F0E718F8041B8DF843
:100D3000001000208DF80100EB46012003E058F878
:100D400004BB4FF0FF3061074FF0000701D40AE009
:100D50007F1C57450DDA8742FADB1BF80710002984
:100D6000F6D106E07F1C8742FCDB1BF80710002948
:100D7000F8D1DDE90D23A9EB07008146214600F0FB
:100D8000B1F83044C61904E0DDE90D121BF8010B7F
:100D900090477F1EF8D22146484688E058F8040B59
:100DA000C4F302514FF00A0B032900D100B2042909
:100DB00000D140B2002802DA40422D2102E0210594
:100DC00005D52B218DF82410012104E006E0E10770
:100DD00010D02021F6E708AF089113E058F8040B73
:100DE000C4F302514FF00A0B032900D180B2042949
:100DF00000D1C0B20021EEE75946FFF7F3F93031D8
:100E000007F8011D0028F7D1ADEB070000F1200B1A
:100E1000600702D524F4803401E04FF0010ADA457E
:100E200002DDAAEB0B0000E00020824600EB0B0184
:100E300008980144A9EB01000A90E00306D4DDE91B
:100E40000D2321460A9800F04DF806444FF00009A2
:100E500008E009A911F80900DDE90D12904709F130
:100E60000109761C08998945F3DBE0030CD5DDE91F
:100E70000D2321460A9800F035F8064404E0DDE928
:100E80000D1230209047761CBAF10001AAF1010A38
:100E9000F5DC05E0DDE90D1217F8010B9047761C33
:100EA000BBF10001ABF1010BF4DC0A982146DDE94E
:100EB0000D2300F005F806446D1C97E60928010093
:100EC0002DE9F041044600251E461746880404D447
:100ED00005E039462020B0476D1C641EF9D5284630
:100EE000BDE8F0812DE9F041044600251E469046FC
:100EF000C80301D5302700E02027880404D505E089
:100F000041463846B0476D1C641EF9D52846BDE8F9
:100F1000F0810000044A116821F00F0141EA00024B
:100F2000014B1A6070470000003C024070B5044657
:100F30000D4600BF0721054800F041FF0028F9D009
:100F4000E1B2024800F0C3FE204670BD001001402F
:100F5000F0B503461C6A5D6A00200DE0012686405C
:100F600016403EB187000F26BE40B443860001FA0A
:100F700006F63443461CB0B20828EFD3082011E02F
:100F80000126864016405EB1A0F10806B7000F2684
:100F9000BE40B543A0F10806B60001FA06F6354397
:100FA000461CB0B21028EBD31C625D62F0BD8162BA
:100FB0007047816170470AB1816100E081627047CA
:100FC000F0B504460D4616462168E268002019E097
:100FD000012787401F409FB14FEA400C032707FAC3
:100FE0000CF7B943470005FA07F739434FEA400CBD
:100FF000032707FA0CF7BA43470006FA07F73A4304
:10100000471CB8B21028E3D32160E260F0BD02466D
:101010005069084008B1012070470020FCE7F0B596
:101020000C461546012C03D146681E43466002E07B
:1010300046689E434660826800210DE001268E408E
:101040001E403EB14F000326BE40B2434E0005FA9B
:1010500006F632434E1CB1B21029EFD38260F0BDC8
:10106000FFF70AFBFFF73EFB04A0FFF791FD03E04B
:10107000FFF7DFFBFFF7D4FBFAE70000496E697466
:101080002053797374656D20686173206265656EA5
:101090002066696E69736865642E0D0A00000000A1
:1010A0002DE9F04103460D46164600240027A046D0
:1010B0002A48006800F4E060B0F5E06F03D100BF9B
:1010C0004FF0040830E02548006800F4E060B0F517
:1010D000C06F03D101274FF0030825E01F480068C7
:1010E00000F4E060B0F5A06F02D10227B8461BE023
:1010F0001A48006800F4E060B0F5806F03D1032760
:101100004FF0010810E01548006800F4E060B0F509
:10111000407F03D104274FF0000805E04FF4A060A2
:1011200000F020F80227B846C7F1040005FA00F4E1
:10113000C8F104010F20C84030400443240108488E
:10114000C45403F01F01012088405911890001F1A6
:10115000E021C1F80001BDE8F08100000CED00E0E5
:1011600000E400E002490143024A116070470000B8
:101170000000FA050CED00E00348006820F48070E0
:101180000149086070470000007000400348006893
:1011900040F4807001490860704700000070004012
:1011A000044A116821F0F00141EA0002014B1A6083
:1011B0007047000008380240044A116821F4E051E9
:1011C00041EA0002014B1A607047000008380240F3
:1011D000044A116821F4604141EA0002014B1A609F
:1011E00070470000083802402DE9F04F8CB00646E9
:1011F00000200A903EA090E8004CC068CDE905BEF2
:10120000CDF810A007900FF2EC0ADAE9000ACDE958
:10121000020A0FF2E00ADAE9000ACDE9000A3848CA
:101220000068C0F381000B900B9820B1012804D016
:10123000022828D103E0334927E0334925E030482C
:10124000001F006800F03F072D48001F0068C0F332
:10125000881C2B48001F0068C0F30140401C4FEA67
:1012600040092748001F006800F48008B8F5800F87
:1012700001D1254B00E0234BB3FBF7F000FB0CF052
:10128000B0FBF9F101E01F4900BF00BF1C48006836
:10129000C0F3031404A8055D21FA05F2184800689C
:1012A000C0F3822402A8055D22FA05F009901448D3
:1012B0000068C0F342341DF8045022FA05F008908B
:1012C00036B1012E06D0022E06D0032E0AD106E03A
:1012D0000A9108E00A9206E009980A9003E008984B
:1012E0000A9000E000BF00BF0A980CB0BDE8F08F84
:1012F00000000000000000000102030406070809C6
:10130000083802400024F40040787D0100B51E48F2
:10131000006840F001001C490860002000F060F8FF
:1013200019480830006820F00300174908310860A8
:1013300015480068154908401349086008460068C8
:1013400020F48020086010480830006800F44370E2
:101350000D49083108600E48091F08600C48103814
:101360000949843108600A48091D086000200649BF
:101370000C31086004488C30006806490840024976
:101380008C31086000BD000000380240FFFFF6EA23
:1013900010300024FFFFFCFE0146074A02EB9110CB
:1013A000D0F8000801F01F0301229A40104008B154
:1013B000012070470020FCE700300240074A02EBA2
:1013C0009011D1F8001800F01F0301229A40114338
:1013D000024B03EB9012C2F8001870470030024035
:1013E000F0B506460024002700251C2E7DD007DC22
:1013F000B6B3102E10D0182E67D01A2E76D176E004
:10140000B6F5E05F19D0B6F5E85F4CD0A6F54050D0
:1014100010380028F2D134E004E01120FFF7BCFFBF
:101420000546641C1DB94FF6FF708442F5D11120AA
:10143000FFF7B2FF00B101277AE005E041F6014075
:10144000FFF7AAFF0546641C1DB96FF07040844287
:10145000F4D141F60140FFF79FFF00B1012767E09B
:10146000FFE704E00120FFF797FF0546641C15B96C
:10147000B4F5A06FF6D10120FFF78EFF00B1012770
:1014800056E005E043F21100FFF786FF0546641CB5
:1014900015B929488442F5D143F21100FFF77CFFCA
:1014A00000B1012744E005E041F60150FFF774FF69
:1014B0000546641C15B920488442F5D141F6015017
:1014C000FFF76AFF00B1012732E004E01920FFF7BF
:1014D00063FF0546641C15B917488442F6D11920EC
:1014E000FFF75AFF00B1012722E010E01FE004E0FF
:1014F0001B20FFF751FF0546641C15B90E488442B6
:10150000F6D11B20FFF748FF00B1012710E004E0EF
:101510001D20FFF741FF0546641C15B906488442AB
:10152000F6D11D20FFF738FF00B1012700E000BF12
:1015300000BF3846F0BD0000FFFF0F00074A02EB76
:101540009011D1F8001800F01F0301229A401143B6
:10155000024B03EB9012C2F80018704700300240B3
:10156000074A02EB9011D1F8001800F01F03012286
:101570009A409143024B03EB9012C2F80018704757
:1015800000300240074A02EB9011D1F8001800F039
:101590001F0301229A401143024B03EB9012C2F841
:1015A0000018704700300240F0B50646059C002543
:1015B0001D48076807F00040B0F1004F07D107F061
:1015C0008040B0F1804F01D1ED1D00E06D1D02297A
:1015D00026D33F2924D805F14000904220D8B2F507
:1015E000FA7F1DD8022B05D0042B03D0062B01D087
:1015F000082B15D1022C13D30F2C11D841EA8210DD
:101600004FF0010CCCEB530C40EA0C40304340EA65
:101610000460DFF814C0ACF17C0CCCF8000001E0F1
:101620000020F0BD0120FCE780380240044A116828
:1016300021F4407141EA0002014B1A60704700003A
:1016400070380240044A116821F0030141EA0002A7
:10165000014B1A60704700000838024002480068D9
:1016600000F00C0070470000083802406FF08071F5
:10167000884205D1054909680140044A116004E027
:10168000024909680143014A116070478C380240E1
:1016900030B50022002100230024154D2A682D1D9D
:1016A0002968134D10352B68114D08352C680D0C29
:1016B0000570C1F30425457001F03F058570C1F345
:1016C0004235C570C2F305450571C2F30625457163
:1016D00002F07F058571C3F306450581C3F30E054E
:1016E000458103F48005C56004F04005056130BD07
:1016F00000280040F0B50446002500260027207889
:101700004FF47F0101EA0040E1784FF4604202EAC1
:101710004131084361784FF4F85202EA012108434D
:10172000A17801F03F0140EA010721794FF47C12D2
:1017300002EA0141E068084361794FF4FE4202EA9F
:1017400001210843A17901F07F0140EA0106CA2086
:10175000184908605320086000F02EF805461DB3B4
:1017600020894FF4FE0101EA00406189C1F30E01B6
:1017700008431049143908600E4824380660001DDB
:101780000760001D006820F040000A491C3908600D
:10179000084600682169084306491C39086000F0C2
:1017A0002FF800F037F80546FF2002490860284668
:1017B000F0BD00002428004008B54FF4804200929C
:1017C000002100200D4A126802F040029AB90B4A2B
:1017D000126842F08002094B1A6000BF074A126883
:1017E00002F04001009A521E00920AB10029F5D081
:1017F00011B1012000E0012008BD00000C280040CC
:101800000348006820F0800001490860704700002C
:101810000C28004008B54FF400420092002100203F
:10182000134A126802F0200202BBCA22104B1C337A
:101830001A6053221A600E4A121D126822F020020A
:101840000B4B1B1D1A6000BF094A121D126802F0E3
:101850002001009A521E00920AB10029F4D001B171
:101860000120FF22024B1C331A6000E0012008BD5A
:1018700008280040002000213A4A126842F48032D1
:10188000384B1A6000BF401C364A126802F400311F
:1018900019B94FF6FF729042F5D1324A126802F43C
:1018A00000320AB900BFFEE72E4A4032126842F009
:1018B00080522C4B40331A602B4A126842F440424B
:1018C000294B1A60274A08321268264B08331A60DF
:1018D0001A46126842F400421A601A46126842F42C
:1018E000A0521A60214A1B1F1A601A1F126842F088
:1018F00080721B1F1A6000BF1A4A126802F0007241
:10190000002AF9D0184A126842F48032164B1A6045
:1019100000BF154A526802F48032002AF9D0124AF8
:10192000126842F40032104B1A6000BF0E4A52682F
:1019300002F40032002AF9D00A4A0832126822F072
:101940000302084B08331A601A46126842F002027A
:101950001A6000BF034A0832126802F00802002A27
:10196000F8D0704700380240007000401978400AF3
:1019700010B5FFF77FFF10BD10B504465C49601A33
:101980008C426FD019DC5B49A4EB01008C424ED035
:1019900009DCB4F1804F2ED057482044A0B3B0F5F5
:1019A000806F72D13AE0B0F5806F49D0B0F5006F2A
:1019B0004FD0B0F5406FF4D17BE0B0F5923F5BD0F3
:1019C00009DCB0F5806F73D0B0F5644F0AD0B0F584
:1019D000684F5AD147E0B0F5943F57D0B0F5963FE5
:1019E00053D15CE04FF41060FFF7CCFD4FF4106072
:1019F000FFF7B6FD79E04FF40060FFF7C3FD4FF449
:101A00000060FFF7ADFD70E0FFE740F60100FFF773
:101A1000B9FD40F60100FFF7A3FD66E040F60200C5
:101A2000FFF7B0FD40F60200FFF79AFD5DE040F6DB
:101A30000300FFF7A7FD40F60300FFF791FD54E018
:101A400040F60400FFF79EFD40F60400FFF788FD16
:101A50004BE040F60500FFF795FD40F60500FFF767
:101A60007FFD42E02EE040F60110FFF78BFD40F6CF
:101A70000110FFF775FD38E04FF41160FFF782FDAC
:101A80004FF41160FFF76CFD2FE02DE040F61110D0
:101A9000FFF778FD40F61110FFF762FD25E040F6F4
:101AA0001210FFF76FFD40F61210FFF759FD1CE012
:101AB00011E040F60600FFF765FD40F60600FFF76F
:101AC0004FFD12E040F60700FFF75CFD40F607000F
:101AD000FFF746FD09E040F60800FFF753FD40F62A
:101AE0000800FFF73DFD00E000BF00BF10BD000093
:101AF000001C0040000C004000FCFFBF016841F0EA
:101B000001010160704700000A8882621D4A90420C
:101B10000ED0B0F1804F0BD01B4A904208D01B4A28
:101B2000904205D01A4A904202D01A4A90420BD1F4
:101B3000026822F07002026002684B881A43026059
:101B400002688B881A4302608A68C262124A904215
:101B50000AD0124A904207D0026822F44072026012
:101B60000268CB881A430260064A904202D0094AB2
:101B7000904201D10A7B0263426942F00102426154
:101B800070470000000001400004004000080040D1
:101B9000000C004000040140001000400014004010
:101BA000C2680A43C2607047CA4302617047024676
:101BB000D06800EA01031069084010B10BB10120A0
:101BC00070470020FCE700210180418081804FF6B2
:101BD000FF7181600021C180017370472DE9F047DA
:101BE00004460D460027B846B94600263349601A18
:101BF0008C4235D00CDC32482044E8B1B0F5806F1F
:101C00001FD0B0F5006F21D0B0F5406F32D122E087
:101C1000B0F5806F29D0B0F5184F03D0B0F51C4F48
:101C200028D104E00320FFF7DFFA074623E0032072
:101C3000FFF7DAFA07461EE00220FFF7D5FA07465B
:101C400019E00220FFF7D0FA074614E00220FFF760
:101C5000CBFA07460FE00220FFF7C6FA07460AE074
:101C60000220FFF7C1FA074605E00220FFF7BCFAA1
:101C7000074600E000BF00BFE06800F4004070B11C
:101C8000780000EB5500B0FBF5F64FF6F07006EA71
:101C90000008C6F3420948EA0900A0600CE007EB1F
:101CA0005500B0FBF5F64FF6F07006EA000806F0B6
:101CB0000F0948EA0900A060BDE8F08700780040FD
:101CC00000BCFFBF01464868C0F308007047C1F37D
:101CD000080242607047000010B504463349601A9C
:101CE0008C424DD00CDC32482044E0B1B0F5806F1E
:101CF00022D0B0F5006F31D0B0F5406F52D136E050
:101D0000B0F5806F45D0B0F5184F03D0B0F51C4F3B
:101D100048D11AE040F60410FFF734FC40F60410F6
:101D2000FFF71EFC3FE040F61100FFF72BFC40F6EA
:101D30001100FFF715FC36E040F61200FFF722FC19
:101D400040F61200FFF70CFC2DE040F60510FFF7FF
:101D500019FC40F60510FFF703FC24E040F61300E1
:101D6000FFF710FC40F61300FFF7FAFB1BE040F60C
:101D70001400FFF707FC40F61400FFF7F1FB12E038
:101D800040F61E00FFF7FEFB40F61E00FFF7E8FBE3
:101D900009E040F61F00FFF7F5FB40F61F00FFF7D4
:101DA000DFFB00E000BF00BF10BD00000078004076
:101DB00000BCFFBFC16841F40051C160704710B55D
:101DC000024602EB9110006801F01F040123A340BA
:101DD000184008B1012010BD0020FCE710B500EB51
:101DE0009112126801F01F040123A3409A4300EBF3
:101DF00091131A6010BD10B500EB9112126801F03A
:101E00001F040123A3401A4300EB91131A6010BD75
:101E100010B500EB91521268C1F304440123A340B2
:101E20009A4300EB91531A6010BD70B5024600232F
:101E30000024C1F38910105801F01F060125B54098
:101E400000EA050302EB91500068C1F30446012546
:101E5000B54000EA050414B10BB1012070BD0020AB
:101E6000FCE7C26822F4C062C260C2680A43C26072
:101E700070470A460021C16821F004011143C16086
:101E80007047026922F44052026102690A4302610A
:101E900070470A460021C16821F008011143C16062
:101EA0007047C26822F48052C260C2680A43C260AE
:101EB00070470000D0C7C6DAD2BB0000D0C7C6DA70
:101EC000CBC40000D0C7C6DACEE50000D0C7C6DA62
:101ED000CCEC0000D0C7C6DAC1F90000D0C7C6DA22
:101EE000C8FD0000D0C7C6DAB6FE00000C1F00080F
:101EF0000000002034000000B00B0008401F000864
:101F0000340000201C080000C00B00080000000086
:101F10000000000000000000B41E0008E41E0008DD
:101F2000DC1E0008BC1E0008C41E0008D41E0008E9
:101F3000CC1E000800000000001C4E0E0000000037
:04000005080001AD41
:00000001FF
