:020000040800F2
:1000000010050020C501000855040008270300085A
:10001000510400084D020008F90500080000000026
:100020000000000000000000000000008304000841
:100030005102000800000000810400088504000847
:10004000DF010008DF010008DF010008DF01000810
:10005000DF010008DF010008DF010008DF01000800
:10006000DF010008DF010008DF010008DF010008F0
:10007000DF010008DF010008DF010008DF010008E0
:10008000DF010008DF010008DF010008DF010008D0
:10009000DF010008DF010008DF010008DF010008C0
:1000A000DF010008DF010008DF010008DF010008B0
:1000B000DF010008DF010008DF010008DF010008A0
:1000C000DF010008DF010008DF010008DF01000890
:1000D000DF01000875050008DF010008DF010008E6
:1000E000DF010008DF010008DF010008DF01000870
:1000F000DF010008DF010008DF010008DF01000860
:10010000DF010008DF010008DF010008DF0100084F
:10011000DF010008DF010008DF010008DF0100083F
:10012000DF010008DF010008DF010008DF0100082F
:10013000DF010008DF010008DF010008DF0100081F
:10014000DF010008DF010008DF010008DF0100080F
:10015000DF010008DF010008DF010008DF010008FF
:10016000DF010008DF010008DF010008DF010008EF
:10017000DF010008DF010008DF01000800000000C7
:10018000DF010008DF010008DF010008DF010008CF
:10019000DF010008DF010008DF01000800000000A7
:1001A000DF010008DF010008DF010008DFF810D0E0
:1001B00000F03AF80048004747090008AFF3008014
:1001C000100500200648804706480047FEE7FEE786
:1001D000FEE7FEE7FEE7FEE7FEE7FEE7FEE7FEE7F7
:1001E0008D040008AD01000840EA01039B0703D01D
:1001F00009E008C9121F08C0042AFAD203E011F866
:10020000013B00F8013B521EF9D2704730B504465D
:100210000020034600E05B1C934203D2E05CCD5C0F
:10022000401BF8D030BD0000064C074D06E0E068EA
:1002300040F0010394E8070098471034AC42F6D32D
:10024000FFF7B8FFC8110008E811000800BFFEE77B
:1002500070472DE9F04107460E46154600F092F82A
:10026000A02000F0D9FB384600F0D6FB00F08AF859
:10027000A12000F0D1FB00240EE000F09FFB3055E0
:10028000681EA04203D1012000F050F802E00020D7
:1002900000F04CF8601C44B2AC42EEDB00F090F889
:1002A000BDE8F0812DE9F04107460D46164600F005
:1002B00069F8A02000F0B0FB384600F0ADFB002448
:1002C00004E0285D00F0A8FB601CC4B2B442F8DB77
:1002D00000F076F80A2000F08BFABDE8F0812DE9F5
:1002E000F04104460F4616462046E11704EB117113
:1002F0000911A4EB0111C1F11001CDB2B54204DB2B
:1003000032463946FFF7CEFF0BE02A4639462046F3
:10031000FFF7C8FF731B9AB279196319D8B2FFF7B8
:10032000DEFFBDE8F08100BFFEE7000010B5044627
:100330004FF40071124800F0B2FA4FF48071104887
:1003400000F0ADFA2CB14FF400710D4800F0A9FA9D
:1003500004E04FF400710A4800F0A1FA00F054F8EC
:100360004FF48071064800F09CFA00F04DF84FF40D
:100370008071034800F093FA00F046F810BD0000C9
:100380000004024010B54FF400710C4800F089FAE7
:100390004FF48071094800F084FA00F035F84FF40A
:1003A0000071064800F07BFA00F02EF84FF48071DF
:1003B000024800F074FA00F027F810BD0004024073
:1003C00010B54FF480710F4800F069FA4FF40071D6
:1003D0000C4800F064FA00F017F84FF480710948F7
:1003E00000F05FFA00F010F84FF40071054800F0DB
:1003F00058FA002203E000F007F8501CC2B2642A49
:10040000F9DB10BD0004024008B58220009000BF57
:10041000BDF80000411E89B200910028F8D108BD46
:1004200010B54FF4406000F0AFFCF323022201212D
:10043000064800F040FAF32302220021034800F0AE
:1004400061FAF321014800F02AFA10BD00000240D1
:1004500000BFFEE77047000010B5002807DA0A0762
:10046000140E054A00F00F031B1FD45403E00A07C3
:10047000130E024A135410BD18ED00E000E400E032
:100480007047704710B500F0BDF910BD08B5304891
:10049000006840F470002E4908602E48006840F063
:1004A00001002C49086000BF2A48006800F00200E3
:1004B0000028F9D000BF27480830006840F08000CD
:1004C0002449083108600020009002E00098401C98
:1004D000009000985028F9D31E480830006840F07A
:1004E00090001C49083108600020009002E000984C
:1004F000401C009000985028F9D300BF15480830E0
:10050000006820F0030013490831086011480068B2
:10051000114908400F4908600846006820F480200F
:10052000086000200B490831086000BF0948083006
:10053000006800200028F9D108480649091D086014
:10054000002004490C31086000F0D8FC08BD000010
:1005500088ED00E000380240FFFFF6FE1030002476
:1005600010B500F0CFFCFFF75BFF00F0B7FA00F02A
:10057000B1FA10BD10B51849184800F0F8FD78B16F
:100580001748007880280BD2144800F057FDC1B2FC
:10059000134802780078401C114B187011488154A0
:1005A00011490E4800F0E3FDA8B10D48007890B164
:1005B0000B4802780B490D48FFF716FE08480078F3
:1005C0000B4908700020064908700120094908708D
:1005D000024800F033FD10BD050305000010014086
:1005E00004000020100000200403040090000020FC
:1005F000050000200600002000BFFEE71FB51BA479
:10060000002000900190029003900C222146FFF7F9
:1006100066FE214619A000F061F80C226946002010
:10062000FFF717FE694619A000F058F80C22214682
:100630006846FFF7EBFD18B917A000F04FF802E08D
:100640001FA000F04BF80FE00221234800F029F929
:100650004FF4FA7000F0CCF802211F4800F01FF9A7
:100660004FF4FA7000F0C4F8EEE7000048656C6CD7
:100670006F20454550524F4D00000000577269747D
:10068000653A202573200D0A000000005265616460
:100690003A202573200D0A00454550524F4D2054F5
:1006A0006573742050617373656421202D2D2D2D89
:1006B000205465737420737563636573730D0A004A
:1006C000454550524F4D2054657374204661696C06
:1006D0006564210D0A000000000002400FB4054BC4
:1006E00010B503A9044A029800F017F810BC5DF891
:1006F00014FB00001D0800080C00002002E008C8E0
:10070000121F08C1002AFAD170477047002001E08B
:1007100001C1121F002AFBD170472DE9F84F9946FD
:10072000924688460546002706E025280AD051460D
:100730004A4690476D1C7F1C28780028F5D1384622
:10074000BDE8F88F002315F8011F18462E2915D192
:1007500015F8011F04232A290DD06FF02F022978E4
:10076000A1F13004092C09D800EB800002EB400015
:1007700008446D1CF3E758F8040B6D1C2A78002A16
:10078000DDD0632A07D0732A0FD0104651464A465F
:1007900090477F1C2AE018F8042B8DF800200021D8
:1007A0008DF801106E46012103E058F8046B4FF0FC
:1007B000FF315A074FF0000401D409E0641C844261
:1007C0000BDA8C42FADB325D002AF7D105E0641CBB
:1007D0008C42FCDB305D0028F9D1274404E016F898
:1007E000010B51464A469047641EF8D26D1CA3E7A0
:1007F0000349086000BF024909680029FBD170471E
:10080000000000200448006820B103480068401E32
:1008100001490860704700000000002070B50446E0
:100820000D46E1B2054800F00EFC00BF0721034869
:1008300000F081FC0028F9D0204670BD0010014076
:10084000F0B503461C6A5D6A00200DE00126864073
:1008500016403EB187000F26BE40B443860001FA21
:1008600006F63443461CB0B20828EFD3082011E046
:100870000126864016405EB1A0F10806B7000F269B
:10088000BE40B543A0F10806B60001FA06F63543AE
:10089000461CB0B21028EBD31C625D62F0BD8162D1
:1008A00070478161704702461069084008B1012015
:1008B00070470020FCE7F0B504460D461646216857
:1008C000E268002019E0012787401F409FB14FEAEE
:1008D000400C032707FA0CF7B943470005FA07F75E
:1008E00039434FEA400C032707FA0CF7BA43470095
:1008F00006FA07F73A43471CB8B21028E3D3216041
:10090000E260F0BDF0B50C461546012C03D14668F7
:100910001E43466002E046689E43466082680021AE
:100920000DE001268E401E403EB14F000326BE4022
:10093000B2434E0005FA06F632434E1CB1B21029FE
:10094000EFD38260F0BD10B5FFF70AFEFFF756FE49
:10095000002010BD10B540F6014000F015FA40F639
:10096000014000F011FA4FF4807301221146124841
:10097000FFF7A1FF4FF48073022200210E48FFF71A
:10098000C1FF4FF40073012211460B48FFF793FF9C
:100990004FF40073022201210748FFF7B3FF4FF421
:1009A00080710548FFF77DFF4FF400710248FFF7A3
:1009B00078FFFFF729FD10BD0004024070B5002448
:1009C0004FF400711348FFF76CFF4FF4807111482A
:1009D000FFF765FF002519E0FFF716FD4FF4807162
:1009E0000C48FFF75EFF4FF400710A48FFF75BFF0A
:1009F00040EA4400C4B2FFF707FD4FF48071054898
:100A0000FFF74DFFFFF700FD681CC5B2082DE3DBC3
:100A1000204670BD0004024070B50446002620E068
:100A20004FF480712A48FFF73AFFFFF7EDFCE00929
:100A300028B14FF400712648FFF733FF04E04FF46C
:100A400000712348FFF72BFFFFF7DEFC4FF48071A6
:100A50001F48FFF726FFFFF7D7FC6006040E701C47
:100A6000C6B2082EDCDB4FF480711948FFF717FF80
:100A7000FFF7CAFC4FF400711548FFF712FFFFF7AC
:100A8000C3FC4FF480711248FFF70BFFFFF7BCFC6B
:100A9000FA250EE04FF400710D48FFF704FF40B94E
:100AA0004FF480710A48FFF7FAFEFFF7ADFC002013
:100AB00070BD281EA5F10101CDB2EBD14FF48071BC
:100AC0000348FFF7ECFEFFF79FFC0120F0E7000072
:100AD0000004024010B5FFF73DFF10BD10B5032222
:100AE0001146252000F052F841F2041000F04CF9B4
:100AF0004FF4406000F048F94FF40072072121489C
:100B0000FFF79EFE4FF40073002202211D48FFF7FD
:100B1000D2FE4FF40073022200211A48FFF7F2FEC2
:100B20004FF4806207211748FFF78AFE4FF4806375
:100B3000002202211348FFF7BEFE4FF48063022219
:100B400000211048FFF7DEFE0F4800F081FA4FF455
:100B5000E1310D4800F0FEF908210B4800F02BFBB5
:100B60000421094800F01FFB40F20531064800F05F
:100B7000F1FA4FF44171044800F0ECFA024800F039
:100B8000D5FA10BD00000240001001402DE9F041EF
:100B900003460D46164600240027A0462A48006852
:100BA00000F4E060B0F5E06F03D100BF4FF004083F
:100BB00030E02548006800F4E060B0F5C06F03D174
:100BC00001274FF0030825E01F48006800F4E060AB
:100BD000B0F5A06F02D10227B8461BE01A480068A2
:100BE00000F4E060B0F5806F03D103274FF00108F7
:100BF00010E01548006800F4E060B0F5407F03D1D4
:100C000004274FF0000805E04FF4A06000F020F842
:100C10000227B846C7F1040005FA00F4C8F1040140
:100C20000F20C8403040044324010848C45403F056
:100C30001F01012088405911890001F1E021C1F80C
:100C40000001BDE8F08100000CED00E000E400E0F0
:100C500002490143024A1160704700000000FA0592
:100C60000CED00E02DE9F04F8CB0064600200A9014
:100C70003EA090E8004CC068CDE905BECDF810A0BC
:100C800007900FF2EC0ADAE9000ACDE9020A0FF246
:100C9000E00ADAE9000ACDE9000A38480068C0F342
:100CA00081000B900B9820B1012804D0022828D194
:100CB00003E0334927E0334925E03048001F00684E
:100CC00000F03F072D48001F0068C0F3881C2B4828
:100CD000001F0068C0F30140401C4FEA400927484C
:100CE000001F006800F48008B8F5800F01D1254B83
:100CF00000E0234BB3FBF7F000FB0CF0B0FBF9F185
:100D000001E01F4900BF00BF1C480068C0F3031486
:100D100004A8055D21FA05F218480068C0F3822492
:100D200002A8055D22FA05F0099014480068C0F396
:100D300042341DF8045022FA05F0089036B1012E15
:100D400006D0022E06D0032E0AD106E00A9108E052
:100D50000A9206E009980A9003E008980A9000E0D9
:100D600000BF00BF0A980CB0BDE8F08F0000000083
:100D700000000000010203040607080908380240C9
:100D80000024F40040787D01074A02EB9011D1F86D
:100D9000001800F01F0301229A401143024B03EB9D
:100DA0009012C2F80018704700300240074A02EB68
:100DB0009011D1F8001800F01F0301229A409143CE
:100DC000024B03EB9012C2F800187047003002404B
:100DD000074A02EB9011D1F8001800F01F0301221E
:100DE0009A401143024B03EB9012C2F8001870476F
:100DF00000300240002000213D4A126842F4803257
:100E00003B4B1A6000BF401C394A126802F40031A3
:100E100019B94FF6FF729042F5D1354A126802F4C3
:100E2000003232B900BF324A126802F40032002A9E
:100E3000F9D02F4A4032126842F080522C4B403396
:100E40001A602C4A126842F440422A4B1A60284A1F
:100E500008321268264B08331A601A46126842F4A8
:100E600000421A601A46126842F4A0521A60224ADE
:100E70001B1F1A601A1F126842F080721B1F1A6033
:100E800000BF1B4A126802F00072002AF9D0194A0A
:100E9000126842F48032174B1A6000BF154A52683C
:100EA00002F48032002AF9D0124A126842F4003269
:100EB000104B1A6000BF0F4A526802F40032002A39
:100EC000F9D00B4A0832126822F00302084B0833AB
:100ED0001A601A46126842F002021A6000BF044A01
:100EE0000832126802F00802002AF8D070470000A9
:100EF00000380240007000401978400A10B5FFF732
:100F000079FF10BD10B5124800684FF47A71B0FB3C
:100F1000F1F4601EB0F1807F01D301200FE0601E6C
:100F20004FF0E02148610F214FF0FF30FFF794FAB6
:100F300000204FF0E021886107200861002008B1FF
:100F400000BFFEE70021481EFFF786FA10BD000033
:100F5000080000202DE9F04704460D460027B8465A
:100F6000B94600263349601A8C4235D00CDC324831
:100F70002044E8B1B0F5806F1FD0B0F5006F21D0EC
:100F8000B0F5406F32D122E0B0F5806F29D0B0F5D6
:100F9000184F03D0B0F51C4F28D104E00320FFF711
:100FA00061FE074623E00320FFF75CFE07461EE0D4
:100FB0000220FFF757FE074619E00220FFF752FE16
:100FC000074614E00220FFF74DFE07460FE002201F
:100FD000FFF748FE07460AE00220FFF743FE0746F8
:100FE00005E00220FFF73EFE074600E000BF00BF1D
:100FF000E06800F4004070B1780000EB5500B0FBF1
:10100000F5F64FF6F07006EA0008C6F3420948EA22
:101010000900A0600CE007EB5500B0FBF5F64FF6B9
:10102000F07006EA000806F00F0948EA0900A0601F
:10103000BDE8F0870078004000BCFFBF014648686B
:10104000C0F308007047C1F3080242607047000017
:1010500010B504463349601A8C424DD00CDC32483E
:101060002044E0B1B0F5806F22D0B0F5006F31D0F0
:10107000B0F5406F52D136E0B0F5806F45D0B0F595
:10108000184F03D0B0F51C4F48D11AE040F60410B9
:10109000FFF79EFE40F60410FFF788FE3FE040F6A3
:1010A0001100FFF795FE40F61100FFF77FFE36E0D6
:1010B00040F61200FFF78CFE40F61200FFF776FEB6
:1010C0002DE040F60510FFF783FE40F60510FFF710
:1010D0006DFE24E040F61300FFF77AFE40F61300A1
:1010E000FFF764FE1BE040F61400FFF771FE40F6C8
:1010F0001400FFF75BFE12E040F61E00FFF768FEEB
:1011000040F61E00FFF752FE09E040F61F00FFF711
:101110005FFE40F61F00FFF749FE00E000BF00BF82
:1011200010BD00000078004000BCFFBFC16841F462
:101130000051C160704710B5024602EB9110006883
:1011400001F01F040123A340184008B1012010BD85
:101150000020FCE710B500EB9112126801F01F04AB
:101160000123A3401A4300EB91131A6010BD70B520
:10117000024600230024C1F38910105801F01F0615
:101180000125B54000EA050302EB91500068C1F368
:1011900004460125B54000EA050414B10BB1012055
:1011A00070BD0020FCE70A460021C16821F004015F
:1011B0001143C16070470A460021C16821F008014F
:1011C0001143C16070470000E811000800000020D2
:1011D00010000000FC060008F811000810000020B4
:1011E000000500000C0700080000000000000000DF
:0811F000001C4E0E000000007F
:04000005080001AD41
:00000001FF
