:020000040800F2
:10000000A0B70020C1010008093F0008D92000085E
:10001000D93E00084D050008B1520008000000005C
:10002000000000000000000000000000314A00084D
:10003000811300080000000081480008E54F000817
:10004000DB010008DB010008DB010008DB01000820
:10005000DB010008DB010008DB010008DB01000810
:10006000DB010008DB010008DB010008DB01000800
:10007000DB010008DB010008DB010008DB010008F0
:10008000DB010008DB010008DB010008DB010008E0
:10009000DB010008DB010008DB010008DB010008D0
:1000A000DB010008DB010008DB010008DB010008C0
:1000B000B5500008DB010008DB010008DB01000887
:1000C000DB010008DB010008DB010008DB010008A0
:1000D000DB01000871510008DB010008DB010008AA
:1000E000DB010008DB010008DB010008DB01000880
:1000F000DB010008DB010008DB010008DB01000870
:10010000DB010008DB01000811510008DB010008D9
:10011000DB010008DB010008DB010008DB0100084F
:10012000DB010008DB010008DB010008DB0100083F
:10013000DB010008DB010008DB010008DB0100082F
:10014000DB010008DB010008DB010008DB0100081F
:10015000DB010008DB010008DB010008DB0100080F
:10016000DB010008DB010008DB010008DB010008FF
:10017000DB010008DB010008DB01000800000000D3
:10018000DB010008DB010008DB010008DB010008DF
:10019000DB010008DB010008DB01000800000000B3
:1001A000DB010008DB010008DB010008DFF80CD0F0
:1001B00000F04AF800480047EB670008A0B70020AD
:1001C0000648804706480047FEE7FEE7FEE7FEE7F1
:1001D000FEE7FEE7FEE7FEE7FEE7FEE7ED4F00087D
:1001E000AD0100082DE9F05F0546002092469B46D0
:1001F00088460646814640241BE02846414647463D
:10020000224600F042F853465A46C01A914110D394
:1002100011461846224600F029F82D1A67EB01080E
:100220004F4622460120002100F020F817EB00097C
:100230004E41201EA4F10104DFDC484631462A4627
:100240004346BDE8F09F0000064C074D06E0E0681D
:1002500040F0010394E8070098471034AC42F6D30D
:10026000FFF7A8FF84960408A4960408202A04DB5C
:10027000203A00FA02F1002070479140C2F12003B9
:1002800020FA03F3194390407047202A04DB203AF8
:1002900021FA02F00021704721FA02F3D040C2F1A6
:1002A0002002914008431946704702468A4202DD07
:1002B000501A80B27047881A80B2FBE72DE9F041EE
:1002C0000746052400250AE0164800EB851090F843
:1002D0002400012801D12C4603E0681CC5B2042D7E
:1002E000F2DB00BF052C1BD00F48065D0F48005DF8
:1002F000B04211DD0E4800EB841087550A48005DBE
:10030000401C094908550A4A02EB8411054A02EBD0
:10031000841004F09FFD03E00448005D0249085585
:10032000BDE8F081241F002080000020FA95040819
:10033000242000202DE9F04F8BB006460F46904652
:10034000706801F0A5FD6B48008844F64251884270
:1003500005D069A005F010F80BB0BDE8F08F70482B
:10036000C08920280BD06E48C089182807D06C4857
:10037000C089102803D06BA004F0FEFFECE7BA465A
:10038000C34667484068574638440A9064488068C6
:10039000D84600EB08096C48017F0C3050F821105A
:1003A0000A98814205D86848017F0C3050F8210036
:1003B0000A906548017F143050F82100484504D860
:1003C0006148017F143050F82190A9F10100039099
:1003D00000200490D84687E07068049901F03AFE46
:1003E000054600240498401C0490574674E04C488D
:1003F000C089202841D1285DC0100790601C285C6E
:1004000080100890A01C285CC0100990E01C285C9B
:1004100006900998C102089841EA401007990843DC
:100420000590241D307890B93846039903F032FCCA
:100430000290059A91B2029A90B2069A00F0A0F842
:1004400001903846019A039903F022FA43E030788C
:10045000012809D17178069881423CDC3846059A1A
:10046000039903F015FA36E03078022833D1384684
:10047000059A039903F00CFA2DE02948C089182841
:1004800019D1285DC0100790601C285C801008906E
:10049000A01C285CC01009900998C102089841EA84
:1004A0004010079908430590E41C3846059A0399C3
:1004B00003F0EEF90FE01A48C08910280BD1295D2E
:1004C000601C285C41EA00200590A41C3846059A6F
:1004D000039903F0DDF97F1C0A98874287D30398BC
:1004E000401E039008F10108C845FFF475AF00BF36
:1004F00032E70000DC100020424D50446973706CFC
:1005000061793A2074686973206973206E6F742072
:100510006120424D502066696C650D0A00000000A4
:10052000EA100020424D50446973706C61793A20A2
:10053000756E737570706F7274656420666F726D1E
:1005400061742121210D0A00AC00002000BFFEE7EC
:10055000014600200BE000EBC002074B03EBC20298
:100560008A4202D1054A10707047421CD0B213284B
:10057000F1DB00BFF8E70000CC1900201C000020D0
:100580002DE9FC4F03460C46052A02DA1846BDE861
:10059000FC8FDD0AC3F3451603F01F074FEAD42C86
:1005A000C4F3451804F01F00019011460CFB01F044
:1005B000C1F1FF0E05FB0E004FF0FF0E90FBFEF0A9
:1005C0001FFA80F908FB01F0C1F1FF0E06FB0E00D7
:1005D0004FF0FF0E90FBFEF01FFA80FA019848439F
:1005E000C1F1FF0E07FB0E004FF0FF0E90FBFEF077
:1005F0001FFA80FB4FEAC92040EA4A1040EA0B008C
:1006000080B200900098C2E710B5044694F8240028
:10061000012805D1206C58B12046216C884707E09D
:1006200094F8240020B9606C10B12046616C8847B2
:1006300010BD10B50446E06B10B12046E16B884751
:1006400010BD0146422940D00EDCA1F13002122A31
:100650004FD2DFE802F0222426282A2C2E30323412
:100660004E4E4E4E4E4E4E36622930D00CDC452951
:1006700037D004DC43292CD044293AD12DE0462937
:1006800033D0612935D11EE0632924D0642926D0D6
:10069000652928D066292CD129E000202BE00120F3
:1006A00029E0022027E0032025E0042023E00520A4
:1006B00021E006201FE007201DE008201BE00920A4
:1006C00019E00A2017E00A2015E00B2013E00B20A8
:1006D00011E00C200FE00C200DE00D200BE00D20B0
:1006E00009E00E2007E00E2005E00F2003E00F20B8
:1006F00001E0102000BF00BF7047000070B500246B
:100700000EE0002508E0002004EB44010B4A02EB58
:1007100001114855681CC5B2302DF4DB601CC4B211
:10072000082CEEDB08200649087004F07BFD002051
:10073000044908700249087070BD0000E4210020DF
:10074000850000208400002010B5044694F82400A1
:10075000012808D1002084F82400204600F028FF5A
:10076000204600F07CFF10BD002001490870704752
:100770008A0000200020014908707047880000208E
:1007800000200149087070478900002010B54FF41F
:100790000071184805F075FC40F6044006F0BEFCF8
:1007A000082301221146144805F077FC0823032290
:1007B0000021114805F098FC08210F4805F061FC64
:1007C0000A2000F0E5FD08210B4805F05CFC012043
:1007D00000F0DEFD4FF40071064805F054FC0A20DD
:1007E00000F0D6FD082300221146034805F055FC11
:1007F00010BD0000001802400010024010B540F685
:10080000014006F08BFC402301221146184805F0F8
:1008100044FC402303220021154805F065FC4021DB
:10082000134805F030FC802301221146104805F0E2
:1008300034FC8023032200210D4805F055FC802163
:100840000B4805F020FC4FF40073012211460948C3
:1008500005F023FC4FF4007303220021054805F046
:1008600043FC4FF40071034805F00BFC10BD000081
:10087000000402400018024010B540F6014006F0A6
:100880004DFC40F6084006F049FC202301221146A9
:10089000104805F002FC2023022200210D4805F03B
:1008A00023FC20210B4805F0EEFB4FF4807301225E
:1008B0001146094805F0F1FB4FF480730222002134
:1008C000054805F011FC4FF48071034805F0D9FB91
:1008D00010BD0000000402400020024010B54FF49B
:1008E000A06006F0ADFA10BD10B54FF0807006F0B4
:1008F0006FFC10BD10B5044640F6014006F00EFC3A
:10090000012C0CD1802301221146094805F0C5FBBA
:10091000802303220021064805F0E6FB06E02CB9FF
:10092000802301220021024805F0B7FB10BD000022
:1009300000040240F0B597B0064600274FF6FF745A
:100940004FF4606006F0EAFB4FF4406006F0E6FB0F
:1009500040F6014006F0E2FB40F6024006F0DEFB06
:1009600040F6034006F0DAFB40F6044006F0D6FB02
:1009700040F6054006F0D2FB40F6064006F0CEFBFE
:1009800040F6074006F0CAFB40F6084006F0C6FBFA
:1009900001220C21FE4805F045FB01230022022123
:1009A000FB4805F07AFB012303220021F84805F0FB
:1009B0009BFB02220C21F64805F034FB02230022A7
:1009C0001946F34805F069FB022303220021F04891
:1009D00005F08AFB04220C21ED4805F023FB0423DB
:1009E00000220221EA4805F058FB042303220021DB
:1009F000E74805F079FB08220C21E54805F012FBD9
:100A0000082300220221E24805F047FB08230322C5
:100A10000021DF4805F068FB10220C21DC4805F0BE
:100A200001FB102300220221D94805F036FB1023D8
:100A300003220021D64805F057FB20220C21D44880
:100A400005F0F0FA202300220221D14805F025FB11
:100A5000202303220021CE4805F046FB4FF48052AC
:100A60000C21CB4805F0DEFA4FF48053002202211E
:100A7000C74805F012FB4FF4805303220021C448FD
:100A800005F032FB4FF400520C21C14805F0CAFAC0
:100A90004FF4005300220221BD4805F0FEFA4FF446
:100AA000005303220021BA4805F01EFB4FF4804298
:100AB0000C21B74805F0B6FA4FF48043002202211A
:100AC000B34805F0EAFA4FF4804303220021B0480E
:100AD00005F00AFB4FF400420C21AD4805F0A2FAE4
:100AE0004FF4004300220221A94805F0D6FA4FF442
:100AF000004303220021A64805F0F6FA01220C214A
:100B0000A44805F08FFA012300220221A14805F034
:100B1000C4FA0123032200219E4805F0E5FA0222CF
:100B20000C219C4805F07EFA0223002219469948C0
:100B300005F0B3FA022303220021964805F0D4FA07
:100B400004220C21934805F06DFA042300220221AF
:100B5000904805F0A2FA0423032200218D4805F0F5
:100B6000C3FA4FF480420C218B4805F05BFA4FF436
:100B7000804300220221884805F08FFA4FF4804319
:100B800003220021844805F0AFFA4FF400420C2103
:100B9000814805F047FA4FF40043002202217E48C5
:100BA00005F07BFA4FF40043032200217A4805F058
:100BB0009BFA01220C21784805F034FA0123002227
:100BC0000221754805F069FA0123032200217248C9
:100BD00005F08AFA02220C216F4805F023FA02235D
:100BE000002219466C4805F058FA0223032200211E
:100BF000694805F079FA80220C21684805F012FA5C
:100C0000802300220221654805F047FA8023032251
:100C10000021624805F068FA4FF480720C215F48A9
:100C200005F000FA4FF48073002202215B4805F0C2
:100C300034FA4FF4807303220021584805F054FA27
:100C40004FF400720C21554805F0ECF94FF4007395
:100C500000220221514805F020FA4FF400730322CC
:100C600000214E4805F040FA4FF480620C214B48B9
:100C700005F0D8F94FF4806300220221474805F0BF
:100C80000CFA4FF4806303220021444805F02CFA4B
:100C90004FF400620C21414805F0C4F94FF40063A1
:100CA000002202213D4805F0F8F94FF400630322C9
:100CB00000213A4805F018FA4FF480520C213748C9
:100CC00005F0B0F94FF4805300220221334805F0BB
:100CD000E4F94FF4805303220021304805F004FA70
:100CE0004FF400520C212D4805F09CF94FF40053AD
:100CF00000220221294805F0D0F94FF400530322C5
:100D00000021264805F0F0F94FF480420C212348D9
:100D100005F088F94FF48043002202211F4805F0B6
:100D2000BCF94FF48043032200211C4805F0DCF994
:100D30004FF400420C21194805F074F94FF40043B8
:100D400000220221154805F0A8F94FF400430322C0
:100D50000021124805F0C8F94FF480720C210E48AA
:100D600005F060F94FF48073002202210A4805F073
:100D700094F94FF4807303220021074805F0B4F979
:100D80004FF400720C21044805F04CF908E0000013
:100D90000014024000180240000C02400010024003
:100DA0004FF4007300220221B14805F076F94FF4A8
:100DB000007303220021AE4805F096F94FF48062DB
:100DC0000C21AB4805F02EF94FF48063002202217C
:100DD000A74805F062F94FF4806303220021A4487C
:100DE00005F082F910220C21A24805F01BF910230E
:100DF000002202219F4805F050F910230322002110
:100E00009C4805F071F920220C219A4805F00AF956
:100E1000202300220221974805F03FF920230322D6
:100E20000021944805F060F901220C21924805F058
:100E3000F9F80123002202218F4805F02EF9012341
:100E4000032200218C4805F04FF902220C218A4828
:100E500005F0E8F8022300221946874805F01DF93D
:100E6000022303220021844805F03EF920220C21B0
:100E7000824805F0D7F82023002202217F4805F0A0
:100E80000CF92023032200217C4805F02DF94FF4B2
:100E900000420C21774805F0C5F84FF400430022CA
:100EA0000221744805F0F9F84FF4004303220021B1
:100EB000704805F019F94FF400620C21704805F0F4
:100EC000B1F84FF40063002202216D4805F0E5F807
:100ED0004FF4006303220021694805F005F9402220
:100EE0000C21664805F09EF8402300220221634849
:100EF00005F0D3F8402303220021604805F0F4F800
:100F000080220C215D4805F08DF88023002202210B
:100F10005A4805F0C2F8802303220021574805F003
:100F2000E3F84FF480720C21524805F07BF84FF43F
:100F30008073002202214F4805F0AFF84FF4807310
:100F4000032200214B4805F0CFF8042E01D11025D3
:100F500000E008250A2000F01BFA02200B90062072
:100F60000A90032009900520089001200790069020
:100F700005900C9615900820149010201390402096
:100F8000129080001190002010904FF440600F905C
:100F900001200E9000200D9005A816900CA804F0DA
:100FA00091FF0120049003950020029001904FF6DC
:100FB000FF7400E0641E2021304604F0E1FE08B119
:100FC000002CF7D101A804F06FFF0A2000F0E0F92F
:100FD0000220049003950020029001904FF6FF74C8
:100FE00000E0641E2021304604F0CAFE08B1002C47
:100FF000F7D101A804F058FF032004900395E020E6
:101000000290002001904FF6FF7400E0641E202142
:10101000304604F0B5FE08B1002CF7D101A804F069
:1010200043FF40F221270420049003950020029002
:1010300001974FF6FF7400E0641E2021304604F053
:101040009FFE08B1002CF7D101A804F02DFF4FF44A
:10105000177004F0C3FF4FF6FF7400E0641E2021F8
:10106000304604F08DFE08B1002CF7D117B0F0BD6A
:10107000000C02400018024000100240001C024018
:10108000001402407FB504460D464FF4805006F030
:1010900045F84FF0804006F073F9684606F097FA7D
:1010A000ADF800500020ADF804000294ADF8060041
:1010B00069464FF0804006F02BFA0121880706F0C0
:1010C00073FA002201211C2005F058FE4FF08040E9
:1010D00006F018FA7FBD00007FB504460D4641F2C8
:1010E000030006F01BF80F4806F04AF9684606F0C0
:1010F0006EFAADF800500020ADF804000294ADF88F
:1011000006006946074806F003FA0121054806F083
:101110004BFA00220121322005F030FE014806F092
:10112000F1F97FBD000C004010B5044600221146C5
:10113000252005F023FE4FF4406005F0EFFF4FF44B
:1011400000720721264804F06DFF4FF480620721EA
:10115000234804F067FF4FF4007301220221204866
:1011600004F09BFF4FF40073022200211C4804F09E
:10117000BBFF4FF4806300220221194804F08DFF69
:1011800041F2041005F0CAFF164806F0D3FB2146D1
:10119000144806F051FB0021124806F0A0FC002183
:1011A000104806F0ACFC00210E4806F088FC042133
:1011B0000C4806F08CFC08210A4806F098FC094807
:1011C00006F026FC40F20531064806F042FC40F2EB
:1011D0000731044806F03DFC00200349087010BDAB
:1011E00000000240001001409C00002038B5044679
:1011F000A06A28B1A06A009094E80F0000F07EFD7C
:10120000002084F82400204600F06EF9204600F00B
:1012100009FA38BD3EB5002405E04FF0FF313848EB
:1012200040F82410641C364820384069A042F4D8A5
:101230000020334920398861C86100243BE0062042
:1012400001AB002211460090204603F0E5F99DF81D
:101250000400FF2807D1012001AB002201460090C5
:10126000204603F0D9F99DF80400FF281ED19DF80F
:10127000090000069DF8081040EA01409DF807109B
:1012800040EA01209DF8061040EA01051C4820387C
:101290004069A84202D91A4840F825401848203829
:1012A0008069401C16492039886103E0214615A059
:1012B00004F062F8641C124820384069A042BED88D
:1012C00000240FE00E4850F824000D4920394969E8
:1012D000884206D20A482038C069401C0849203993
:1012E000C861641C064820384069A042EAD8044816
:1012F0002038C069642801D201203EBD0020FCE7EF
:101300009C2700204372656174654C55543A2062F5
:10131000616420626C6F636B20696E6465783A2546
:10132000640D0A0010B50446002084F8240020460D
:1013300000F03EF9204600F092F910BD30B50346AA
:10134000002016E0B3F900509C68645D0C541C88C2
:10135000641C24B21C80B3F90040B3F90450AC42C1
:1013600001DB00241C80441C20B2DC88641E24B2F3
:10137000DC80B3F90640002C01DD9042E2DB30BD99
:10138000704710B5044604EB840000F013F810BD5C
:1013900001B50749009808604FF0E02040694FF020
:1013A000E021886100BF024800680028FBD108BD29
:1013B000A000002001B5009806E0002101E04A1CD1
:1013C00091B22629FBDB401E0028F6D108BD0000A3
:1013D00070B5052400250AE0134800EB851090F84D
:1013E0002400012801D12C4603E0681CC5B2042D5D
:1013F000F2DB00BF052C16D00C48065D002E12DD76
:1014000000210B4800EB8412701E11540748005D48
:10141000401E06490855064A02EB8411024A02EBB7
:10142000841003F017FD70BD241F002080000020F1
:101430002420002070B504460D461646A07820B939
:10144000324629462046FEF775FF70BD00B585B0CF
:101450000548009049F2C4500290002211466846A7
:1014600000F018F805B000BDCE92000800B585B0B8
:101470000648009044F2DD30029005484268016859
:10148000684600F007F805B000BD0000B9BE0208CC
:10149000C421002070B5A0B004460E461546206851
:1014A00008B1A06820B90C4803F066FF20B070BDF9
:1014B000E6602561002060604FF48053074A0849C8
:1014C00001A8009404F0C3FF20B90022054901A837
:1014D00004F06CFF00BFE9E700960408DC00002080
:1014E000AF360008FB3600082DE9F84304462568AE
:1014F0006668A16820684718E168606800EB010829
:10150000A06A28B1A06A009094E80F0000F032FBB6
:1015100094F8240018BB94F83500052808D1E06B36
:1015200043463A4631460090284600F0A3FB3DE092
:1015300094F83500042839D0206B40B9E06B43465D
:101540003A4631460090284600F094FB2EE094F88D
:10155000353031462846226B00F04AFB26E094F8ED
:101560002400012822D194F83400052808D1A06B6A
:1015700043463A4631460090284600F07BFB15E092
:1015800094F83400042811D0E06A40B9A06B4346B7
:101590003A4631460090284600F06CFB06E094F88D
:1015A000343031462846E26A00F022FBBDE8F88379
:1015B0002DE9F843044625686668A1682068471845
:1015C000E168606800EB010894F82400012812D15A
:1015D000A06A40B9606B43463A46314600902846BF
:1015E00000F048FB1CE094F8303031462846A26AEF
:1015F00000F0FEFA14E094F8240088B9E06A40B9DB
:10160000A06B43463A4631460090284600F032FB34
:1016100006E094F8313031462846E26A00F0E8FAF4
:10162000BDE8F8832DE9FF4104462169206845188B
:10163000616960684618207E00F0F4FBA168B1FB88
:10164000F0F701210022E06901AB83C30092237E01
:1016500031462846226A00F0E1FABDE8FF812DE913
:10166000FF41044621692068451861696068461891
:10167000207E00F0D7FBA168B1FBF0F7012100222A
:10168000E06901AB83C30092237E31462846226A7B
:1016900000F0C4FABDE8FF8170B50346002016E0F3
:1016A0000C5CB3F902609D68AC555C88641C24B284
:1016B0005C80B3F90240B3F90450AC4201DB002472
:1016C0005C80441C20B2DC88641C24B2DC80B3F94A
:1016D0000640B3F90450AC4201DA9042E0DB70BD41
:1016E0001CB504464FF0AA300190042001AB002243
:1016F00011460090204603F075F8042001AB00224B
:1017000001210090204603F06DF81CBD1CB5044675
:1017100000200190012001AB0022114600902046DC
:1017200002F07AFF9DF80400FF280FD1012001ABE1
:10173000002201460090204602F06EFF9DF8040052
:10174000FF2801D100201CBD0120FCE70220FAE7A0
:10175000FEB506460D46741C26E004F00100A842C2
:1017600021D1062001AB002211460090204602F054
:1017700053FF9DF80400FF2815D19DF80500FF28B0
:1017800011D19DF80600FF280DD19DF80700FF2814
:1017900009D19DF80800FF2805D19DF80900FF2810
:1017A00001D12046FEBD641C18484069A042D4D82F
:1017B000002426E004F00100A84221D1062001AB5C
:1017C000002211460090204602F026FF9DF80400FA
:1017D000FF2815D19DF80500FF2811D19DF80600BE
:1017E000FF280DD19DF80700FF2809D19DF80800BA
:1017F000FF2805D19DF80900FF2801D12046D1E737
:10180000641CB442D6D34FF0FF30CBE77C270020D6
:101810002DE9FC4100202F498861002416E0204674
:10182000FFF774FF88B9204602F0E8FD06463EB196
:10183000214629A003F0A0FD2046FFF751FF04E058
:1018400024488069401C23498861641C2148406900
:10185000A042E4D81F48816926A003F08DFD1D48F1
:101860008069642802D20120BDE8FC8119488069A2
:101870005A2148436421B0FBF1F7002500241CE005
:101880002046FFF743FFB8B9E8B28DF80400280AF4
:101890008DF80500280C8DF80600280E8DF807003D
:1018A000042001AB022200210090204602F09AFFA2
:1018B0006D1CBD4200D304E0641C06484069A04290
:1018C000DED800BFFFF7A6FC08B10220CCE700205D
:1018D000CAE700007C27002046544C466F726D61B9
:1018E000743A206261636B20626C6F636B3A2025EF
:1018F000640D0A0046544C466F726D61743A20675D
:101900006F6F6420626C6F636B206E756D3A20257B
:10191000640D0A00014606484069884202D24FF031
:10192000FF3070470248203050F82100F9E70000EE
:101930007C2700202DE9F05F05460C4616469846A8
:10194000B6F5006F02D00120BDE8F09F00272CE023
:101950001848006AB4FBF0F01749C968B0FBF1F908
:101960001448006AB4FBF0F01349C968B0FBF1F207
:1019700001FB120A4846FFF7CDFF8146B9F1FF3F50
:1019800001D10120E0E72A465146484602F084FD95
:101990008346BBF1000F05D02A465146484602F067
:1019A0007BFD8346641C35447F1C4745D0D3002013
:1019B000CAE700007C3700207C2700201CB50446C5
:1019C000CC200190012001AB02460021009020466E
:1019D00002F008FF1CBD00002DE9FF4F85B08046D6
:1019E0000D461446B4F5006F03D0012009B0BDE8E0
:1019F000F08F0027B4E000BF5C48006AB5FBF0F050
:101A00005B49C968B0FBF1F004905848006AB5FB27
:101A1000F0F05749C968B0FBF1F201FB120A5348D4
:101A2000006AB5FBF0F100FB11506043039004988D
:101A3000FFF770FF8146B9F1FF3F01D10120D5E7E3
:101A40000023FF225146484602F060FA8346BBF16C
:101A5000000F38D1BAF1000F02D14846FFF7AEFFB0
:101A600042465146484602F055FE8346BBF1000F00
:101A700025D009F001014846FFF76AFE0646B6F197
:101A8000FF3F17D03A4800223146C368484602F06B
:101A9000F0FA8346BBF1000F08D135482030049995
:101AA00040F821604846FFF71BFE02E03046FFF792
:101AB00017FEA1E74846FFF713FE012096E76D1CCD
:101AC000A0447F1C4CE000BF09F001014846FFF72D
:101AD0003FFE0646B6F1FF3F40D02548C068244986
:101AE000496848432249496801FB1A010398081ACA
:101AF00002900898C01B60430299884203D8089856
:101B0000C01B604302900298CDE9008052463146E6
:101B10004846039B02F036FA8346BBF1000F19D109
:101B200013482030049940F82160484602F066FCD2
:101B30008346BBF1000F02D04846FFF7D1FD029863
:101B4000B0FBF4F00544029880440298B0FBF4F036
:101B5000074405E03046FFF7C3FDB5E7012045E740
:101B600008988742FFF447AF00203FE77C3700200A
:101B70007C2700202DE9F84F04460D4616461F46E7
:101B8000DDF82880A019A0F10109E819A0F1010AE7
:101B900053464A4629462046CDF8008001F016FEFD
:101BA000BDE8F88F2DE9FF4F83B0804617461C46ED
:101BB000DDE911ABDDF840900CB9002506E0012C01
:101BC00001D1012502E0022C00D10225BBF1000F5A
:101BD00001D1002600E0012633462A46CDE900A9BE
:101BE00002974046049902F07DF807B0BDE8F08FF7
:101BF0002DE9F04105460E4617461C462CB93246E3
:101C000029463846FFF716FC06E0012C04D132467F
:101C100029463846FFF73EFCBDE8F0812DE9FF4F2D
:101C200085B0054616461F46DDE914ABDDE912898D
:101C3000384600F0F7F80490344612E020787E2809
:101C40000EDC207820280BDB8DE8000722783B464D
:101C500028460699FFF7A6FF641C0498054400E097
:101C600004E0BBF10000ABF1010BE7D100BF09B00C
:101C7000BDE8F08F2DE9F84304460D4616461F4691
:101C8000DDF820803B46324629462046CDF80080CC
:101C900001F024FEBDE8F8832DE9F04106460F4629
:101CA0001446052C06D34FF0FF303060386000201A
:101CB000BDE8F08100F00CFA0546681C005D0128C3
:101CC0000ED104EB4401A81D30F81100306004EB84
:101CD0004401A81D00EB4100408838600120E7E77F
:101CE0004FF0FF30306038600020E1E770B5044607
:101CF0000D462946204601F0CDFF70BD2DE9FF5F5E
:101D000005460E469146DDF838A0BAF1000F01D124
:101D1000BDE8FF9FD3464FF0000834460FE02F4642
:101D200008E021463846FFF7E1FF2BF8180008F1DC
:101D300001087F1C05EB0900B842F2D8641C039827
:101D40003044A042EBD800BFE2E7000010B588B0F5
:101D500026A30FCB04AC0FC402F028FF0446142CBA
:101D60003FD00F2C04DC04A9085DFEF7A7FA38E089
:101D7000122C02D1FFF72CFB33E0112C18D11F4895
:101D8000006870B31D480068806850B303A9002044
:101D900000F056F828BB02A9012000F051F800BB62
:101DA0000298C1B21548006882680398904718E00D
:101DB000102C16D11148006898B110480068C0680E
:101DC00078B101A9022000F03BF850B96946032020
:101DD00000F036F828B909480068C268DDE900104B
:101DE000904702F001FF08B010BD000030313233DF
:101DF0003435363738394142434445460C000020DB
:101E000001480078704700008A00002001480078EF
:101E100070470000880000200148007870470000EB
:101E200089000020014609B906207047012901D127
:101E30000820FAE7022901D10C20F6E70020F4E798
:101E40002DE9F041064688460027042E02DB0120DA
:101E5000BDE8F081002700240EE00C4901EB86115B
:101E6000C85DFEF7EEFB0546102D02D205EB04140B
:101E700000E002E0781CC7B2EFE700BF0FB9012015
:101E8000E6E7C8F800400020E2E700002420002038
:101E9000014600228B5C501C085C43EA00206B4B1F
:101EA000188002228B5C501C085C43EA0023901CC3
:101EB000085C43EA0043D01C085C43EA0060634BC3
:101EC000C3F8020006228B5C501C085C43EA002029
:101ED0005E4BD88008228B5C501C085C43EA0020D3
:101EE0005A4B18810A228B5C501C085C43EA002381
:101EF000901C085C43EA0043D01C085C43EA006085
:101F0000524BC3F80A000E228B5C501C085C43EA5B
:101F10000023901C085C43EA0043D01C085C43EAA1
:101F200000604B4B186012228B5C501C085C43EA2B
:101F30000023901C085C43EA0043D01C085C43EA81
:101F40000060434B586016228B5C501C085C43EACF
:101F50000023901C085C43EA0043D01C085C43EA61
:101F600000603B4B98601A228B5C501C085C43EA73
:101F70000020374B98811C228B5C501C085C43EA84
:101F80000020334BD8811E228B5C501C085C43EA36
:101F90000023901C085C43EA0043D01C085C43EA21
:101FA00000602B4B186122228B5C501C085C43EABA
:101FB0000023901C085C43EA0043D01C085C43EA01
:101FC0000060234B586126228B5C501C085C43EA5E
:101FD0000023901C085C43EA0043D01C085C43EAE1
:101FE00000601B4B98612A228B5C501C085C43EA02
:101FF0000023901C085C43EA0043D01C085C43EAC1
:102000000060134BD8612E228B5C501C085C43EAA5
:102010000023901C085C43EA0043D01C085C43EAA0
:1020200000600B4B186232228B5C501C085C43EA48
:102030000023901C085C43EA0043D01C085C43EA80
:102040000060034B5862002070470000DC10002045
:10205000EA10002030B502460B46154DED89202DC3
:1020600003D1134D6D68A9001BE0114DED89182DAA
:102070000AD10F4D6D6805EB450100E0491C01F0E8
:102080000305002DFAD10CE0094DED89102D08D182
:10209000074D6D68690000E0491C01F00305002D43
:1020A000FAD1044DD5F80A5001FB0354101930BD84
:1020B000EA100020DC10002010B58021034803F056
:1020C000E4FF08B9002010BD0120FCE70004024035
:1020D000004870472C11002000BFFEE710B50446F1
:1020E0000120216988470020A16888470120616993
:1020F000884701206168884701206169884701207D
:10210000A1688847012061698847002021698847C4
:1021100010BD70B5044601250020216988470120C3
:1021200061698847012061688847012061698847A3
:10213000E0688047054600206168884701206169A2
:102140008847284670BD2DE9F04106460F461446E3
:102150001D46DDF81880304600F0E0F8307820F0B9
:102160000101304600F0A9F8012805D13046FFF7FB
:10217000B5FF0120BDE8F0813912304600F09DF82E
:10218000012804D13046FFF7A9FF0120F2E7F9B298
:10219000304600F092F8012804D13046FFF79EFF48
:1021A0000120E7E73046FFF799FF304600F0B6F828
:1021B000307840F00101304600F07FF8012804D16A
:1021C0003046FFF78BFF0120D4E70EE0012D05D14B
:1021D0004146304600F010F8207004E000213046FF
:1021E00000F00AF82070641C6D1E002DEED1304600
:1021F000FFF774FF0020BDE72DE9F04104460D46CE
:102200000026002700202169884700BF12E0012036
:1022100061688847012061698847E068804740EA33
:102220004700C7B20020616888470120616988477C
:10223000701CC6B2082EEADB1DB9204600F007F874
:1022400002E0204600F01EF83846BDE8F08110B5E7
:1022500004460120216988470020A16888470120A1
:102260006169884701206168884701206169884762
:102270000020616888470120616988470020216942
:10228000884710BD10B50446012021698847012008
:10229000A1688847012061698847012061688847F3
:1022A00001206169884700206168884701206169D1
:1022B000884700202169884710BD2DE9F041044678
:1022C0000D460026012701202169884700BF1CE038
:1022D00005F0800018B10120A168884702E00020C5
:1022E000A16888476806050E0120616988470120BA
:1022F00061688847012061698847002061688847D4
:10230000012061698847701CC6B2082EE0DB2046B8
:10231000FFF7FFFE07463846BDE8F08110B50446DA
:102320000020616888470120616988470120216990
:1023300088470120A16888470120616988470120FA
:10234000616888470120616988470020A168884743
:102350000120616988470020616888470120616920
:10236000884700202169884710BD2DE9F0410646C5
:102370000C4615461F463046FFF7D0FF307820F058
:1023800001013046FFF799FF012805D13046FFF7DC
:10239000A5FE0120BDE8F08121123046FFF78DFF38
:1023A000012804D13046FFF799FE0120F2E7E1B29F
:1023B0003046FFF782FF012804D13046FFF78EFE3A
:1023C0000120E7E70BE015F8011B3046FFF775FF2A
:1023D000012804D13046FFF781FE0120DAE7381EDC
:1023E000A7F10107EFD13046FFF778FE0020D1E7D3
:1023F000704700000021016041608221816041211D
:10240000C1602321016114214161022101764FF64F
:10241000FF71C1610BA10162002180F8241080F8D6
:1024200025108162C162016380F8341080F8351094
:102430004FF4FC6181631F21C16300210164416489
:1024400070470000427574746F6E000010B54FF451
:102450000460224908604FF40060486040208860B2
:10246000C86000010861486108464068B0F5006F27
:1024700004D01BA002F080FF00BFFEE717484068B1
:10248000C10A1F48016200F08BFE08B1012010BD97
:10249000FEF7C0FE50B11BA002F06EFFFFF7B8F9C7
:1024A00020B120A002F068FF0220F0E724A002F093
:1024B00063FF0A48416923A002F05EFF0748816973
:1024C00028A002F059FF0548C1692EA002F054FF70
:1024D0001BA002F051FF0020D9E700007C2700205C
:1024E000496E697446544C3A206572726F7220735B
:1024F0006563746F722073697A650D0A00000000CD
:102500007C370020496E697446544C3A20666F72DD
:102510006D6174206E616E6420666C6173682E2E2E
:102520002E0D0A00496E697446544C3A20666F724B
:102530006D6174206661696C6564210D0A0000009C
:102540000D0A0000496E697446544C3A20746F7449
:10255000616C20626C6F636B206E756D3A25640D43
:102560000A000000496E697446544C3A20676F6F48
:102570006420626C6F636B206E756D3A25640D0A82
:1025800000000000496E697446544C3A2076616C34
:10259000696420626C6F636B206E756D3A25640D03
:1025A0000A0000000EB5FEF729F9FEF7EFF8282023
:1025B0001249087012484860124888601248C86082
:1025C00012480861124848616420FEF7E1FE0120CC
:1025D000042301AA48F2401100900848FFF7B3FD18
:1025E00018B10CA002F0C8FE0EBD00208DF8080046
:1025F00001A910A002F0C0FE00BFF5E714110020F1
:10260000754E0008954E0008B9200008F50800082E
:1026100083130008496E6974475431313531513A9A
:10262000204661696C20746F206765742069640DB1
:102630000A000000546F7563682049443A202573EE
:102640000D0A000010B50446002001F00DF947F610
:10265000FF7001F079F8FEF7F9FE00F013F800F0D2
:1026600031F900F041FAFEF749F8034820610348C8
:1026700060610348046010BDFD060008614F00085A
:102680000C00002010B50120794908704870002026
:1026900088707848486001207749087048700020A9
:1026A000887076484860012075490870487000209D
:1026B0008870744848600120734908704870002091
:1026C00088707248486014207149087000244FE0F7
:1026D00004EBC4016F4A02EBC100FFF78BFE6E48AA
:1026E00030F8140004EBC4016A4A42F831006B4828
:1026F00030F8140004EBC40102EBC1014860412032
:1027000004EBC40102EBC101886004EBC40102EBDD
:10271000C101C860192004EBC40102EBC1010861CA
:10272000142004EBC40102EBC10148615C4850F87D
:10273000240004EBC40102EBC10108624C4804EB25
:10274000C40102EBC101C8624B4804EBC40102EBB7
:10275000C1010863534804EBC40102EBC1010864E2
:1027600004EBC40102EBC100FEF740FD601CC4B2E3
:102770000F2CADDD4C48FFF73DFE4748008C454926
:10278000C1F880044548018C4248C0F88414822175
:10279000C0F888144121C0F88C142321C0F890148B
:1027A0001421C0F8941441A1C0F8A0143449C0F811
:1027B000AC143549C0F8B0143A49C0F8C0143A48CE
:1027C000FEF714FD38484830FFF714FE3248408CBD
:1027D0003049C1F8C8043148418C2E48C0F8CC14A7
:1027E0008221C0F8D0144121C0F8D4142321C0F8AC
:1027F000D8141421C0F8DC142EA1C0F8E814204924
:10280000C0F8F4142049C0F8F8142649C0F8081597
:1028100000F59960FEF7EAFC23489030FFF7EAFDE7
:102820001D48808C1B49C1F810051C48818C194833
:10283000C0F814158221C0F818154121C0F81C15E4
:102840002321C0F820151421C0F824151BA1C0F8BD
:1028500030150B49C0F83C150B49C0F8401511491B
:10286000C0F8501500F5A260FEF7C0FC10BD0000D6
:1028700060000020E44903086800002056070308B0
:10288000700000200411040878000020728C0308F6
:102890001C000020CC19002096950408BC95040863
:1028A00020000020510500084C1E002052454144E4
:1028B0000000000057524954450000004241434B7C
:1028C0000000000070B500240FE000206F4908559B
:1028D000002506E000206E4901EB84114855681C74
:1028E000C5B2402DF6DB601CC4B2042CEDDB694898
:1028F00000F030FC6848694908604FF44A5088602D
:1029000067486849086042F6E06088606648008869
:1029100060490860654800884860654800888860AC
:102920003220C8604B2008610A204861584808627C
:102930005A4888625B48C8625E48C8630846FEF72A
:10294000F1FC5448403000F005FC5B485B490860EE
:1029500043F2B73088605A485A49086042F66B60C3
:102960008860514840884B4908645048418849482C
:1029700041644F484188474881643221C1644B21FA
:1029800001650A21416542484030424908664B4989
:10299000404881664B49C1664649C1674030FEF7F1
:1029A000C1FC3C48803000F0D5FB474847490860EF
:1029B00043F22770886046484649086043F2842005
:1029C0008860394880883349C1F880003748818859
:1029D0003048C0F88410364881882E48C0F88810E6
:1029E0003221C0F88C105521C0F890100A21C0F88F
:1029F0009410274880302749C1F8A0003349254862
:102A0000C0F8A8103349C0F8AC102A49C0F8BC106F
:102A10008030FEF787FC1F48C03000F09BFB2E483B
:102A20002E49086043F2346088602D482D490860C3
:102A300043F2C62088601C48C0881649C1F8C0000F
:102A40001A48C1881348C0F8C4101948C1881148F1
:102A5000C0F8C8103221C0F8CC105521C0F8D010F1
:102A60000A21C0F8D4100A48C0300A49C1F8E00071
:102A70001A490848C0F8E8101A49C0F8EC100D4986
:102A8000C0F8FC10C030FEF74DFC70BD8000002087
:102A900024200020241F0020922801082421002047
:102AA000125B010838210020E2950408EA95040829
:102AB000F2950408AD3E0008F28901084C2100207F
:102AC000A9BD01086021002014EC01087421002038
:102AD0003B23020888210020BF5502089C210020CA
:102AE000F38B0208B021002070B51920134908604B
:102AF000372048604FF4D77088604FF48770C86003
:102B00004FF6FF7008610220087518208861FEF7F3
:102B1000ADFC0A4800880949896800EB510084B27D
:102B2000064880880549C96800EB510085B22946EE
:102B3000204601F0AFF80149C86170BDC4210020F2
:102B400010B502F053FA00F087FC00F024FB4FF4BC
:102B5000E13000F02BFD00F0F5FC00F0CBFC00F0C4
:102B6000B3FC10BD7047000010B58EB04FF4487034
:102B7000FE4908604FF4F070486000200872087742
:102B8000FB4808624FF050404862FA4888620220D1
:102B9000C86200240AE0F54801680C3040F82410AF
:102BA0000C384168143040F82410641C022CF2D315
:102BB00041F21A1004F0B2FA4FF4406004F0AEFA99
:102BC00040F6014004F0AAFA40F6024004F0A6FAEA
:102BD00040F6034004F0A2FA40F6044004F09EFAE6
:102BE00040F6054004F09AFA40F6064004F096FAE2
:102BF00040F6074004F092FA40F6084004F08EFADE
:102C000004220E21DC4803F00DFA042300220221E5
:102C1000D94803F042FA042303220021D64803F0E6
:102C200063FA08220E21D44803F0FCF9082300229D
:102C30000221D14803F031FA082303220021CE48B3
:102C400003F052FA4FF480720E21CB4803F0EAF9F8
:102C50004FF4807300220221C74803F01EFA4FF49C
:102C6000807303220021C44803F03EFA01220921A7
:102C7000C24803F0D7F9012300220221BF4803F024
:102C80000CFA012303220021BC4803F02DFA4FF473
:102C900080620E21B84803F0C5F94FF4806300222A
:102CA0000221B54803F0F9F94FF4806303220021B3
:102CB000B14803F019FA4FF400620E21AE4803F058
:102CC000B1F94FF4006300220221AB4803F0E5F9AB
:102CD0004FF4006303220021A74803F005FA022203
:102CE0000921A64803F09EF9022300221946A348B1
:102CF00003F0D3F9022303220021A04803F0F4F9E2
:102D000040220E219E4803F08DF94023002202212B
:102D10009B4803F0C2F9402303220021984803F0A6
:102D2000E3F920220E21974803F07CF920230022AA
:102D30000221944803F0B1F9202303220021914895
:102D400003F0D2F940220E218E4803F06BF94023A4
:102D5000002202218B4803F0A0F940230322002126
:102D6000884803F0C1F94FF400520E21824803F065
:102D700059F94FF40053002202217F4803F08DF9E6
:102D80004FF40053032200217B4803F0ADF94FF4C8
:102D9000806209217A4803F045F94FF480630022EC
:102DA0000221774803F079F94FF480630322002170
:102DB000734803F099F94FF400420E216E4803F076
:102DC00031F94FF40043002202216B4803F065F90A
:102DD0004FF4004303220021674803F085F90122E4
:102DE0000E21694803F01EF90123002202216648E2
:102DF00003F053F9012303220021634803F074F91F
:102E000002220E21604803F00DF902230022194628
:102E10005D4803F042F90223032200215A4803F0DF
:102E200063F904220E21584803F0FCF80423002221
:102E30000221554803F031F90423032200215248AE
:102E400003F052F910220E214E4803F0EBF8102344
:102E5000002202214B4803F020F910230322002115
:102E6000484803F041F94FF480520E21444803F0E2
:102E7000D9F84FF4805300220221414803F00DF9A4
:102E80004FF48053032200213D4803F02DF94022E6
:102E90000E213E4803F0C6F84023002202213B48A1
:102EA00003F0FBF8402303220021384803F01CF90B
:102EB0004FF400620E21324803F0B4F84FF400637F
:102EC000002202212E4803F0E8F84FF400630322A9
:102ED00000212B4803F008F910220E212A4803F0A4
:102EE000A1F8102300220221274803F0D6F810236E
:102EF00003220021244803F0F7F808220E21244879
:102F000003F090F8082300220221214803F0C5F8BD
:102F10000823032200211E4803F0E6F84FF48072D4
:102F20000E21164803F07EF84FF480730022022130
:102F3000124803F0B2F84FF48073032200210F48C7
:102F400003F0D2F84FF400720E210C4803F06AF837
:102F50004FF4007300220221084803F09EF84FF45A
:102F6000007303220021054814E00000AC0000209B
:102F7000000000D0C0BB0BD0001C02400004024087
:102F8000001802400010024000200240000C0240E5
:102F90000000024003F0A8F84FF480620E21674859
:102FA00003F040F84FF4806300220221634803F0ED
:102FB00074F84FF4806303220021604803F094F812
:102FC0004FF400720E215E4803F02CF84FF40073AA
:102FD000002202215A4803F060F84FF400730322E4
:102FE0000021574803F080F84FF480620E215448C6
:102FF00003F018F84FF4806300220221504803F0D8
:103000004CF84FF48063032200214D4803F06CF824
:1030100080220E214B4803F005F880230022022174
:10302000484803F03AF8802303220021454803F082
:103030005BF84FF4005301221146434803F02DF88A
:103040004FF40053022200213F4803F04DF84FF4A3
:1030500000513D4803F017F804F0CBFA01A804F042
:10306000D9FB04221146F02004F08EF808B900BF05
:10307000FEE7002004F0BEF81C2003F08FFF1C20A8
:1030800003F09EFF08B900BFFEE700200A900B90F6
:103090000C900D902F20ADF806000220ADF8040032
:1030A0008720ADF80A002220ADF8080040F2A730D2
:1030B000049040F20220039040F2CF30069040F29C
:1030C0000F200590002007900890099001A804F0B7
:1030D000B7FA4FF4F0704FF4487300221146009095
:1030E000104600F0EFFC4FF4F0704FF448730022EC
:1030F00011460090012000F0E5FC002000F0BAFC31
:10310000012000F0A3FCFF21002000F07FFEFF2142
:10311000012000F07BFE012004F076FA012004F08B
:1031200067FB04F083FA002000F0B8FC002000F0F8
:103130009BFB002000F008FB0EB010BD0014024005
:1031400000200240001802400008024010B5FDF7C0
:1031500093FB10BD00210160416064218160322138
:10316000C1604B2101610A214161022101764FF6C4
:10317000FF71C161002101628162C162012180F899
:10318000301080F831104FF4FC6141631F218163DE
:103190000021C163704710B5FDF7A0FB10BD000012
:1031A00010B58EB04FF4606003F0B8FF40F60340F6
:1031B00003F0B4FF40F6044003F0B0FF4FF4804248
:1031C0000C21904802F02EFF4FF480430022022190
:1031D0008C4802F062FF4FF48043032200218948AB
:1031E00002F082FF4FF400420C21864802F01AFFE1
:1031F0004FF4004300220221824802F04EFF4FF4B8
:103200000043032200217F4802F06EFF01220C21BF
:103210007C4802F007FF012300220221794802F0D6
:103220003CFF012303220021764802F05DFF0222C9
:103230000C21744802F0F6FE022300221946714860
:1032400002F02BFF0223032200216E4802F04CFF04
:1032500080220C216C4802F0E5FE8023002202212E
:10326000694802F01AFF802303220021664802F019
:103270003BFF4FF480720C21634802F0D3FE4FF401
:10328000807300220221604802F007FF4FF4807330
:10329000032200215C4802F027FF4FF400720C214A
:1032A000594802F0BFFE4FF4007300220221564835
:1032B00002F0F3FE4FF4007303220021524802F0A3
:1032C00013FF4FF480620C214F4802F0ABFE4FF425
:1032D0008063002202214C4802F0DFFE4FF480633D
:1032E00003220021484802F0FFFE4FF400620C2147
:1032F000444802F097FE4FF4006301220221414846
:1033000002F0CBFE4FF40063032200213D4802F09F
:10331000EBFE4FF480520C213A4802F083FE4FF44A
:10332000805301220221374802F0B7FE4FF4805348
:1033300003220021334802F0D7FE20220C2131481D
:1033400002F070FE2023012202212E4802F0A5FE89
:103350002023032200212B4802F0C6FE10220C215C
:10336000284802F05FFE102301220221254802F0C6
:1033700094FE102303220021224802F0B5FE802291
:103380000C21204802F04EFE8023012202211D481C
:1033900002F083FE8023032200211A4802F0A4FEDB
:1033A0004FF4005301220021164802F076FE062059
:1033B00004900390032002900190012005904FF4A7
:1033C000C02006900020079008900120099000205E
:1033D0000A900B9001A80C900D9005A802F00DFD2D
:1033E000012002F0FFFC01F073F96420FDF7D0FF2B
:1033F00001F03AF80446214604A001F0BDFF002088
:103400000EB010BD000C024000100240496E6974FD
:103410004E616E64466C6173683A204E616E642042
:10342000466C6173682049443A203078253038581A
:103430000D0A000030B50B460024048044808280D1
:10344000C4808360002104E0002485686C544C1C17
:1034500021B29142F8DB30BD10B5FDF745FA10BD41
:1034600010B500200D4908606FF0784048600C48A6
:1034700088600C48C8600846FFF7E4F807484368CE
:1034800009A102680E4801F087FF044841690C4811
:1034900088470B490BA001F06FFF10BD741100208D
:1034A000B55200081D490008416464723A20307822
:1034B00025303858202D203078253038580D0A0016
:1034C0008C1900202573000010B50520FDF732FA95
:1034D00010BD10B5FFF73AFEFFF746FBFFF742FBC2
:1034E000FEF786FF00F03AF8FEF7B0FFFFF7B8FFEF
:1034F00010BD000010B5124800684FF47A71B0FB9F
:10350000F1F4601EB0F1807F01D301200FE0601E56
:103510004FF0E02148610F214FF0FF3001F050FFE4
:1035200000204FF0E021886107200861002008B1E9
:1035300000BFFEE70021481E01F042FF10BD000061
:10354000A400002010B5EF2140F2E730FDF79AFD0E
:10355000EF2140F2E730FDF7BFFD10BD10B5FFF7DA
:1035600021F8002010490870002419E000210E48BD
:10357000401C01554FF6FF7104EB4402401D20F83A
:10358000121004EB440200EB42004180002104EBE6
:1035900044020548801D00EB42008180601CC4B2DB
:1035A000052CE3DB10BD00002C11002010B50446F3
:1035B00000F004F82046FDF7B7FD10BD10B500245B
:1035C00006E000200A4908550A490855601C04B263
:1035D000B4F5007FF5DB4FF4007205490648FFF7AC
:1035E00029FF4FF4007203490448FFF723FF10BD81
:1035F0007C2300207C2500206423002070230020F1
:103600002DE9FC47044626686768A168206800EB3E
:103610000108E168606800EB0109002518E02A460E
:10362000694601A8FEF738FB01280FD10198B04286
:103630000BD30198404508D80098B84205D30098AC
:10364000484502D80120BDE8FC8700E000BF6D1CA2
:10365000052DE4D30020F6E72DE9FC4704460022BF
:10366000694601A8FEF718FB054615B90020BDE81C
:10367000FC87012D19D1D4F800906668A1682068F4
:103680004718E168606800EB0108019848450AD3D3
:103690000198B84207D80098B04204D3009840453A
:1036A00001D80120E3E70020E1E70020DFE7F0B5E3
:1036B00005460C46A96FA4B1002000230EE0D1E915
:1036C0000167BE4208D2D1E90067F65DE6544E6854
:1036D000761C4E60401C00E002E05B1C9342EED37F
:1036E0000AE04E6816448F68BE4204D24E68164403
:1036F0004E60104600E00020F0BD2DE9FC5F07465B
:103700000E461446BD6F2088A98908441FFA80F927
:10371000A088298A08441FFA80FA6088A989084489
:103720001FFA80FBE088298A084480B20190B046E5
:10373000CDF800805A4651464846019B00F06AF891
:103740000020BDE8FC9F000010B58CB00446A0B27C
:103750006B4601AA02A901F0D4F840F6174003F025
:10376000DDFC02F042FD4FF4403002F007FE03A8FA
:1037700002F0E4FD022006901348006A0390002046
:103780000490FF2005909DF8080007909DF8040024
:1037900008909DF8000009904FF448700A904FF48B
:1037A000F0700B9003A802F02BFD02F0F5FD00BFB6
:1037B000022002F0D7FD0028FAD0022002F0CAFD54
:1037C00002F013FD0CB010BDAC0000202DE9F04F4D
:1037D00005460C4616461F46DDF824B0A846A1460D
:1037E0004FF0000A4C460FE0454608E03BF81A202F
:1037F0002146284600F04CF80AF1010A6D1C08EB3E
:103800000600A842F2D8641C09EB0700A042EBD8DE
:10381000BDE8F08F2DE9F04F04460D4616461F46D1
:10382000B44202D9A24634465646BD4202D9AA46FF
:103830003D4657464FF0000BA84610E0A1460AE06F
:10384000099830F81B204146484600F021F80BF15A
:10385000010B09F10109B145F2D908F10108B84598
:10386000ECD9BDE8F08F0000084A127A82420BD0F2
:10387000064A1072D1685269044BDA601A465161E7
:10388000116993691361916170470000AC000020D9
:10389000F0B5114D2E7F0C3555F826400C3D2E7F8E
:1038A000143555F82630A04201D2994200D3F0BD1C
:1038B000094D2D7A35B9084E366A04FB010726F802
:1038C000172007E05D1E6D1A03FB0055024F3F6A8B
:1038D00027F8152000BFEAE7AC0000202DE9FF4FD4
:1038E00095B0834614461E465748007A68B9564834
:1038F000017F0C3050F821800C38017F143050F8D3
:1039000021000A905D46169F1CE04F48007A01286E
:1039100018D14D48017F0C3050F821800C38017FC0
:10392000143050F821000A90CDF82080DDF828806E
:1039300008980A9008943446089E1698A8EB000050
:10394000051B5F462819B0F5487F01D9C5F54874B5
:10395000B819B0F5F07F01D9C7F5F0763A48007A8A
:1039600040B9A94609F10100049007EB060ACDF819
:103970000CA00EE03448007A01280AD10BEB0609AE
:10398000CDF8109016982044A0F1010AAAF1010088
:1039900003905146484600F07DF90290DDE903109E
:1039A00000F078F901902848006A2749C96A08FBA5
:1039B000075201FB02000B90A8EB0400099022992A
:1039C00088B205AB06AA07A900F09BFF40F6174096
:1039D00003F0A4FB02F009FC4FF4403002F0CEFCEF
:1039E0000CA802F0ABFC02200F900B980C900998E9
:1039F0000D90FF200E909DF81C0010909DF818006F
:103A000011909DF814001290139414960CA802F0D3
:103A1000F7FB02F0C1FC00BF022002F0A3FC00286B
:103A2000FAD0022002F096FC02F0DFFB5146484635
:103A3000029AFFF72DFF019ADDE90310FFF728FF37
:103A400019B0BDE8F08F0000AC00002010B50446AE
:103A50001CB9074803F052FE05E0012C03D10448CD
:103A6000803003F04BFE012003F0C2FE10BD0000C9
:103A70000068014010B504461CB9074803F045FE34
:103A800005E0012C03D10448803003F03EFE012004
:103A900003F0AEFE10BD00000068014028B90649E1
:103AA000064A11620021117704E00549034A1162B8
:103AB0000121117770470000000000D0AC00002009
:103AC000C0BB0BD02DE9F04F8BB080460E46174699
:103AD0001C46149D01A803F06BFE6A48007A012879
:103AE00016D1B2467819A0F1010B5646374640F27E
:103AF0001F30A0EB0B06B6F5487F02D30BB0BDE834
:103B0000F08FB7F5F07F00D3F8E7A1462C464D467D
:103B10003019B0F5487F01D9C6F548747819B0F569
:103B2000F07F01D9C7F5F075B8F1000F4FD106F15C
:103B3000880080B2ADF806003019873080B2ADF849
:103B4000040007F1230080B2ADF80A007819223092
:103B500080B2ADF8080002200390FF208DF810001D
:103B60008DF814008DF813008DF812008DF81100F7
:103B70004FF4C06006900720079043480890032048
:103B800000EB440080B2ADF826004FF6FF7000EA6B
:103B90004400ADF82400A8B2ADF8280001A93B48C4
:103BA00003F0BAFD394803F01DFD384803F018FE54
:103BB0003448007A18B93348C46045615DE0314843
:103BC000007A012859D12F48C560446155E0B8F109
:103BD000010F52D106F1880080B2ADF8060030190D
:103BE000873080B2ADF8040007F1230080B2ADF851
:103BF0000A007819223080B2ADF808000220039044
:103C0000FF208DF810008DF814008DF813008DF84A
:103C1000120000208DF811004FF4C06006900720BC
:103C200007901B480890032000EB440080B2ADF8D9
:103C300026004FF6FF7000EA4400ADF82400A8B259
:103C4000ADF8280001A91148803003F065FD0F4848
:103C5000803003F0C7FC0D48803003F0C1FD0948F7
:103C6000007A18B907480461856106E00548007AC2
:103C7000012802D1034805618461012003F0B8FDE9
:103C800000BF3BE7AC000020000000D0006801400E
:103C9000C0BB0BD030B502461148057F0C3050F840
:103CA00025400C38057F143050F82530A24201D24F
:103CB000994201D3002030BD0948007A30B9084844
:103CC000006A04FB012530F81500F4E7581E401A7D
:103CD00003FB0200024D2D6A35F81000EBE70000EF
:103CE000AC0000202DE9FF4F84B082460C461546FB
:103CF000DDF84CB025B1012D04D0022D06D103E032
:103D00000C2706E0102704E0182702E008B0BDE801
:103D1000F08F00BF25B1012D05D0022D09D105E09E
:103D20004FF00C0806E04FF0100803E04FF02408B5
:103D300000E0EBE700BF25B1012D0AD0022D16D11E
:103D40000DE0ABF1200000EB40002C4901EB8009B5
:103D50000EE0ABF120002A4901EB001908E0ABF1BD
:103D6000200000EBC000274901EB800900E0CDE70F
:103D700000BFCDF80090019400263BE00098805DE4
:103D800003900020029030E0039800F0800028B1FA
:103D900021465046119AFFF77BFD06E0079820B9AF
:103DA00021465046129AFFF773FD03984006000E15
:103DB0000390641C1448017F143050F82100A04285
:103DC00000D8A3E70198201AB8420BD3019C0AF14E
:103DD000010A0D48017F0C3050F82100504500D8F1
:103DE00094E705E00298401C029002980828CBD383
:103DF00000BF761C4645C1D300BF87E70E7B000895
:103E0000827F000872850008AC00002070B505466E
:103E10000C4645B90B48006820F0FF0009490860CE
:103E20000846046009E007488030006820F0FF0081
:103E300004498031086008460460012003F0D8FC82
:103E400070BD00009868014010B504461348006832
:103E5000401C1249086008460068A0421DD300209B
:103E600008600F48006860B901200D4908602021F2
:103E70000C4802F008F94FF480710B4802F001F988
:103E80000BE00020064908602021064802F0F9F8FE
:103E90004FF48071044802F0F6F810BD04000020D1
:103EA00008000020000402400020024070B50546D2
:103EB00000240BE0074800EB8410A84204D0054919
:103EC00001EB8410FCF740FC601CC4B2042CF1DB55
:103ED00070BD0000241F002000BFFEE770B504463F
:103EE000002509E06D1C4FF40051064802F0CDF8A2
:103EF000A04201D1002070BD6FF07E408542F1D319
:103F00000120F8E7000C0240704700002DE9F0475F
:103F100004468A4690461D460020184908701849F4
:103F200008700870504664F39F100870C4F387004F
:103F300008703020114908700120FFF7CFFF10B141
:103F40000120BDE8F087012000F0BEF915B94FF45B
:103F5000006703E0012D01D14FF40467002608E05B
:103F60004FF0E04090F80090C84501D00120E8E70C
:103F7000761CBE42F4D30020E3E70000000001708D
:103F8000000002702DE9FF4F85B08A4617461E4695
:103F9000139C0598C007B0EBCA7F03D0012009B07D
:103FA000BDE8F08FB6F5006F05D2C6F3080010B972
:103FB000C4F3080008B10120F1E7F802C0F50030B1
:103FC000801B04900498844201D90120E7E75FB187
:103FD0003B4600225146059800F04BF88046B8F168
:103FE000000F01D00120DAE7129803903D46B34656
:103FF000C6F50069A14500D9A14625E003982B46E6
:1040000052462946CDE901B90090059800F054F8D0
:104010008046B8F1000F01D00120C0E7A4EB0904ED
:1040200014B94FF000090FE0B4F5006F05D34FF459
:1040300000696D1C4FF0000B06E0B4F5006F03D271
:10404000A1466D1C4FF0000BB9F1000FD6D16D1CCD
:10405000402D0CD2C5F140032A465146059800F088
:1040600008F88046B8F1000F01D0012097E7002042
:1040700095E72DE9F04180460E4615461F464FEA6A
:10408000C870B0EBC67F02D00120BDE8F081E8190E
:10409000402801D90120F8E7002409E063196119DB
:1040A0003246404600F0BEF808B10120EDE7641C3E
:1040B000BC42F3D30020E8E72DE9F84F07468946D4
:1040C00090469A460B9CB4F5006F03D214B10120C0
:1040D000BDE8F88FB4F5006F05D20C98B0F5006F0D
:1040E00001D00120F4E7B4F5006F06D30C9820440A
:1040F000B0F5046F01D90120EAE7F807B0EBC87FFB
:1041000004D14FEAC970B0EBCA7F01D00120DFE7CC
:10411000002042490870424908700870484667F319
:104120009F100870C7F38700087035203B4908705E
:104130000120FFF7D3FE08B10120C9E785203749E8
:10414000087037490C70200A0870504668F39F10B9
:104150000870C8F387000870052000F0B5F8B4F5C2
:10416000006F0BD3002505E00A98405D4FF0E04159
:1041700008706D1C0C988542F6D333E000210120B5
:1041800001F018FE0121084601F014FE002505E0AB
:104190000A98405D4FF0E04108706D1CB5F5006F66
:1041A000F6D30A20FDF706F9012001F0E3FD0646EB
:1041B0004FF4016B052000F087F88520174908703F
:1041C000174981F800B04FEA1B200870052000F065
:1041D0007BF84FF0E0410E70300A0870300C087028
:1041E000300E087010200D490870052000F06CF8A2
:1041F0004FF42F70FDF7DEF800F078FA40280BD16D
:104200004FF0E04000780090009800F0010008B105
:1042100001205DE700205BE7012059E70000017005
:10422000000002702DE9F0410446884615461E46FE
:10423000E007B0EBC57F02D00120BDE8F08100208F
:104240001F4908701F4908700870404664F39F10AA
:104250000870C4F3870008703520194908700120E0
:10426000FFF73CFE08B10120E7E7852014490870FC
:104270000020144908700870304665F39F100870DC
:10428000C5F387000870052000F01EF810200C49C7
:104290000870052000F018F84FF42F70FDF78AF829
:1042A00000F024FA402809D14FF0E040077807F0E9
:1042B000010008B10120C0E70020BEE70120BCE7F3
:1042C000000001700000027000E0401E0028FCD1D8
:1042D000704700002DE9F74F82B0054616460020D2
:1042E0000190002481460120039900F06BF887B209
:1042F0000020039900F066F81FFA80FA3146012089
:1043000000F060F81FFA80F83146002000F05AF8FB
:104310001FFA80FB87EA0A0080EA080080EA0B00A7
:10432000019040F6FF710198884219D187EA08048C
:10433000214610A001F020F82046E11704EB51714E
:104340004FEAE109E11704EB5171C910A4EBC10276
:104350000121914015F80920514005F8091006E0A7
:104360000DA001F009F8012005B0BDE8F08F002094
:10437000FAE700004E616E64454343436F72726515
:104380006374696F6E3A206572726F72706F733A00
:1043900025640D0A000000004E616E6445434343EE
:1043A0006F7272656374696F6E3A2032626974204D
:1043B000656363206572726F72206F72206D6F7219
:1043C000650D0A0030B502460B460020002112E0C0
:1043D0000C4601EBD4756D10A1EB4505954208D153
:1043E00023FA01F404F001041CB14D100124AC4087
:1043F00020444C1CE1B22029EADB30BD7CB50446E8
:10440000012001AB002211460090204600F004F983
:1044100018BB9DF80400FF281DD1A401602010499D
:10442000087010490C70200A0870D0200C490870E0
:104430000520FFF749FF00F059F9402809D14FF056
:10444000E040057805F0010008B101207CBD0020A6
:10445000FCE70120FAE70120F8E70120F6E7000079
:10446000000001700000027010B50024902008497F
:1044700008700020074908700120FFF725FF012080
:10448000FFF722FF4FF0E0400468204610BD000017
:1044900000000170000002702DE9F84F04468846C4
:1044A000914600204549087045490870087040460B
:1044B00064F39F100870C4F38700087030203F49F0
:1044C00008700120FFF70AFD10B10120BDE8F88F48
:1044D0000120FFF7F9FE0021012001F06BFC012112
:1044E000084601F067FC0021012001F063FC012176
:1044F000084601F05FFC002505E04FF0E040007841
:1045000009F805006D1CB5F5006FF6D30A20FCF71D
:1045100051FF012001F02EFC07464FF4016A0320F1
:10452000FFF7D2FE052025490870254981F800A033
:104530004FEA1A200870E020204908700320FFF796
:10454000C3FE0120FFF7C0FE4FF0E04000788DF879
:1045500000004FF0E04000788DF801004FF0E0409F
:1045600000788DF802004FF0E04000788DF80300ED
:104570009DF8030000069DF8021040EA01409DF8F6
:10458000011040EA01209DF8001040EA0106B74200
:1045900011D0324639460BA000F0EEFE42462146CD
:1045A00014A000F0E9FE3A4631464846FFF792FE75
:1045B00008B101208AE7002088E7000000000170B0
:1045C000000002704E616E645265616450616765FF
:1045D0003A204563632065727220686172643A30E4
:1045E0007825782C20666C6173683A307825780DD0
:1045F0000A0000004E616E64526561645061676537
:104600003A20626C6F636B3A25642C207061676599
:104610003A2025640D0A00002DE9F04706460F46B2
:1046200014469846DDF82090B4F5006F05D3B9F133
:10463000400F02D90120BDE8F08704F50064002096
:104640001249087012490C70200A0870384666F347
:104650009F100870C6F38700087030200B4908705F
:104660000120FFF73BFC08B10120E4E70120FFF740
:104670002BFE002505E04FF0E040007808F805002B
:104680006D1C4D45F7D30020D5E7000000000170F8
:104690000000027070B5002570200C4908700320DE
:1046A000FFF712FE0120FFF70FFE4FF0E040047805
:1046B00004F0010008B1012506E004F040004028A4
:1046C00001D1402500E00025284670BD00000170A2
:1046D00010B5FF200449087000F008F8402801D107
:1046E000002010BD0120FCE70000017070B54FF400
:1046F00080344025FFF7CEFF054603E0FFF7CAFFF1
:104700000546641E402D01D0002CF7D104B9802548
:10471000284670BD2DE9F047054688469146802021
:104720002E49087000202E4908700870404665F335
:104730009F100870C5F3870008700520FFF7C4FDBF
:104740000021012001F036FB0121084601F032FB77
:10475000002605E019F806004FF0E0410870761CCD
:10476000B6F5006FF6D30A20FCF724FE012001F015
:1047700001FB04464FF401670520FFF7A5FD8520E6
:104780001649087016490F70380A08700520FFF79F
:104790009BFD4FF0E0410C70200A0870200C08705F
:1047A000200E087010200D4908700520FFF78CFDC1
:1047B0004FF42F70FCF7FEFDFFF798FF402802D062
:1047C0000120BDE8F0874FF0E04090F800A00AF02B
:1047D000010008B10120F4E70020F2E700000170B9
:1047E000000002702DE9F04706460F461446984631
:1047F000DDF82090B4F5006F05D3B9F1400F02D970
:104800000120BDE8F08704F5006480201A49087093
:104810001A490C70200A0870384666F39F10087019
:10482000C6F3870008700520FFF74EFD002505E060
:1048300018F805004FF0E04108706D1C4D45F7D3A6
:1048400010200D4908700520FFF73EFD4FF42F7032
:10485000FCF7B0FDFFF74AFF40280AD14FF0E040D7
:1048600090F800A00AF0010008B10120C9E700207B
:10487000C7E70120C5E700000000017000000270DA
:10488000704710B5FDF7BCFA08B1FBF76DFF10BD1E
:1048900010B5FDF7BBFA78B108480078401C07490D
:1048A000087008460078142804DB00F0C5F90020E1
:1048B00002490870FBF75EFF10BD000000000020F9
:1048C00010B5FDF7A9FA88B1FA20FFF7BDFA08483C
:1048D0000078401C0649087008460078142803DB5D
:1048E0000020087000F0A0F8FBF74AFF10BD0000A0
:1048F000010000200146C88808B901207047002047
:10490000FCE710B500F47844E40A0C7000F4FC6491
:104910006409147000F01F041C7010BD2DE9F041F3
:1049200004460E4623480068A0423AD8A019401E0B
:1049300020494968884234D8334622461EA125487A
:1049400000F02AFD1B48416922488847214922A0DE
:1049500000F012FDE10A0123DA022048FCF7EAFF29
:1049600000251BE0C4F30A002844B0F5006F01D90C
:10497000BDE8F081C4F30A00284418490F5C6219AD
:104980003B4617A1134800F007FD0A48416911484A
:104990008847104910A000F0EFFC6D1CB542E1D330
:1049A00006E00448416913A0884712A000F0E4FC27
:1049B00000BFDDE77411002052656164203A2030A9
:1049C0007825303858202D203078253032580D0A7F
:1049D000000000008C190020257300008C110020BD
:1049E0003078253038583A203078253032580D0A42
:1049F00000000000526561643A20496E76616C697E
:104A00006420616464726573730D0A0070B50446B6
:104A10000025012221460348FCF790FCC5B2284638
:104A200070BD00006423002010B5FDF78FF910BDA4
:104A3000704770B5044600252046FEF7E1FD0128C9
:104A400007D194F8240060B9012084F824000125DE
:104A500007E094F82400012803D1002084F8240002
:104A6000012594F8250028B9012D0AD12046FBF72D
:104A7000CBFD06E094F82500012802D12046FBF783
:104A8000C3FD012D05D12046FCF72EFD2046FCF785
:104A9000C9FD70BD2DE9FF4105460120034603AA6B
:104AA00048F24E1100903E48FDF74DFB9DF80C007A
:104AB00000F00F0003909DF80C0028700020039078
:104AC000012303AA48F24E113548FDF74EFC00249D
:104AD00061E02978601C81424CDB01200090314864
:104AE00030F81410062301AA2D48FDF72CFB9DF881
:104AF00004009DF8051040EA012104EB4402A81DC2
:104B000020F812109DF806009DF8071040EA0121D8
:104B100004EB4402A81D00EB420041809DF8080010
:104B20009DF8091040EA012104EB4402A81D00EBA6
:104B3000420081801C48007A012817D104EB44010F
:104B4000A81D30F8116004EB440100EB41004788D8
:104B500004EB4401A81D20F81170C6F5487081B21D
:104B600004EB4402A81D00EB420041800121681CB7
:104B700001550EE00021681C01554FF6FF7104EB52
:104B80004402A81D20F8121004EB440200EB42007E
:104B90004180601CC4B2052C9BDBBDE8FF81000096
:104BA0001411002010000020AC00002010B50024DB
:104BB00012E014200A49087004EBC401094A02EB10
:104BC000C100FFF736FF06480078142802D00448D9
:104BD000007810BD601CC4B2132CEADB1420F8E787
:104BE0001C000020CC19002010B5002406E0054967
:104BF00001EB841000F008F8601CC4B2042CF6DB52
:104C000010BD0000241F002010B504462046FEF70A
:104C100023FD01280ED194F8240058B92046FBF753
:104C200008FD012084F824002046FCF7C1FC204642
:104C3000FCF715FD10BD00002DE9FC47002404E041
:104C400000200DF80400601CC4B2052CF8DB7F487E
:104C5000FFF720FF7D4800787D490870002470E050
:104C60007B48401C005D012869D14FF0000A0025F7
:104C700058E07648401C405D012851D104EB4401C6
:104C80007348801D30F8116004EB440100EB4100D3
:104C9000478805EB45016D48801D30F8118005EB14
:104CA000450100EB4100B0F8029041463046FBF769
:104CB000FCFA4B2834DC49463846FBF7F6FA4B2819
:104CC0002EDC4FF0010A05EB45016048801D30F8ED
:104CD000111004EB44025E48801D20F8121005EB11
:104CE00045015A48801D00EB4100418804EB440215
:104CF0005748801D00EB4200418005EB45015348B9
:104D0000801D00EB4100818804EB44025048801D67
:104D100000EB4200818001214D48401C015503E019
:104D2000681CC5B2052DA4DB00BFBAF1000F06D187
:104D300000214748401C015501200DF80400601C6B
:104D4000C4B2052C8CDB00247AE04048401C005D96
:104D5000012873D14FF0000A00252CE03C48401C8C
:104D6000405D012825D104EB44013848801D30F80E
:104D7000116004EB440100EB4100478805EB45015D
:104D80003348801D30F8118005EB450100EB4100F0
:104D9000B0F8029041463046FBF787FA4B2808DC12
:104DA00049463846FBF781FA4B2802DC4FF0010AEE
:104DB00003E0681CC5B2052DD0DB00BFBAF1000FBF
:104DC0003CD1002537E02248401C405D78BB1DF8EF
:104DD000050060BB04EB44011C48801D30F8111035
:104DE00005EB45021A48801D20F8121004EB44011F
:104DF0001648801D00EB4100418805EB4502144830
:104E0000801D00EB4200418004EB44010F48801DEF
:104E100000EB4100818805EB45020D48801D00EB49
:104E20004200818001210A48401C415505E000E014
:104E300004E0681CC5B2052DC5DB00BF601CC4B210
:104E4000052C82DB02480078BDE8FC875011002069
:104E50002C11002070B504460D4694F8240001285A
:104E600006D125622046FCF7A3FB2046FCF7F7FBA2
:104E700070BD000010B50446012C04D14021044847
:104E800001F001F903E04021014801F0FAF810BDFA
:104E90000004024010B50446012C04D180210448CE
:104EA00001F0F1F803E08021014801F0EAF810BDBB
:104EB000000402402DE9FE4F04460F469046274865
:104EC0000088384486B22548808840441FFA80FA1A
:104ED00022480089C01E801B1FFA80F91F48008BE2
:104EE0001FFA80FB1D48C0695B464A465146009048
:104EF0003046FEF7F3FC0CB9BDE8FE8F002524E038
:104F0000605D0D2802D0605D0A2800D123E009EB26
:104F1000060012498969A0EB5100B04200D21AE0A4
:104F2000605D00220D490969CDE9001202900B482D
:104F3000027D012351463046FEF7D4FE07488069C2
:104F400006EB500086B2681C85B2605D7E2802DCEC
:104F5000605D2028D4DA00BF00BFCDE7C421002067
:104F600070B5054600240AE0285D1B49097801EB6D
:104F700041011A4A02EB01110855601CC4B2285DB8
:104F80007E2804DC285D202801DB2F2CECDB0020B0
:104F90001149097801EB4101104A02EB0111085552
:104FA0000D490978481CC11700EB5171C910A0EBDD
:104FB000C101094A11700A480078082805DA084832
:104FC0000078401C0649087002E008200449087077
:104FD00000F028F970BD000084000020E4210020CA
:104FE0008500002010B500F0B7F810BD08B52D48B9
:104FF000006840F470002B4908602B48006840F0BE
:1050000001002949086028480830006840F0800005
:105010002549083108600020009002E00098401CFB
:1050200000904CF2503100988842F7D31E48083067
:10503000006840F090001C49083108600020009092
:1050400002E00098401C00904CF2503100988842D9
:10505000F7D315480830006820F0030012490831E2
:10506000086011480068114908400F490860084667
:10507000006820F48020086000200B490831086097
:1050800000BF09480830006800200028F9D108480E
:105090000549091D0860002003490C31086002F031
:1050A0006BF908BD88ED00E000380240FFFFF6FE16
:1050B0001030002410B50121880702F07CFA012885
:1050C00003D10121800702F073FA01200C49087016
:1050D0000C480088401C0B490880084600880228BC
:1050E00004DB002008800120074908700748D0E948
:1050F00000305A1C40F100000449C1E9002010BDF5
:1051000088000020980000208900002090000020E6
:1051100010B501210D4802F04EFA012803D10121FA
:105120000A4802F045FA0A480088401C00B20849C3
:1051300008800846B0F90000B0F57A7F04DB002053
:10514000088001200349087010BD0000000C0040D9
:105150009A0000208A0000200448006820B103481B
:105160000068401E0149086070470000A000002050
:1051700008B5002000902449244802F084FC60B166
:105180002149224802F072FC204802F0C9FBC0B25B
:1051900000909DF8000000F0E3F81D491B4802F064
:1051A00072FC012806D11A49184802F05FFC174822
:1051B00002F0B6FB1749154802F065FC18B3154913
:1051C000124802F053FC2520002807DB00F01F02E4
:1051D00001219140104A430942F8231000BF68465C
:1051E000FFF714FC9DF80010084802F09EFB0B48E6
:1051F000FFF780FB38B100200949087040F2073101
:10520000024802F019FC08BD05030500001001402A
:10521000000503000703070080E200E0642300208C
:105220009C0000202DE9F0411D4806781D480578B6
:105230001D48008B87B20DB9BDE8F081082D12DA48
:1052400000240DE0611C7943C91C8AB204EB4401BF
:10525000164B03EB01100321FFF72CFE601CC4B2B8
:10526000AC42EFDD19E0002415E0611C7943C91C54
:105270008AB206EB46010D4B03EB01100321FFF749
:1052800019FE701CC11700EB5171C910A0EBC101D0
:10529000CEB2601CC4B2082CE7DB00BFCCE7000034
:1052A0008400002085000020C4210020E42100208B
:1052B00000BFFEE770B504460D4617480068A042DF
:1052C00022D815484068A0421ED32B46224613A17F
:1052D000194800F061F81048416917488847164995
:1052E00016A000F049F8E10A0123DA021448FCF79D
:1052F00021FBC4F30A0012490D54E10A0123DA022A
:105300000F48FCF769FB06E0034841690DA0884798
:105310000CA000F031F870BD741100205772697450
:10532000653A20307825303858202D2030782530C7
:1053300032580D0A000000008C190020257300006F
:105340008C11002057726974653A20496E76616C41
:10535000696420616464726573730D0A0000000063
:1053600031B50024012269460248FCF795F9C4B220
:10537000204638BD702300200FB4054B10B503A99B
:10538000044A029800F040F810BC5DF814FB0000DD
:1053900001600008A80000200FB4084B10B504A954
:1053A00002AA039800F030F8044602A9002000F099
:1053B0005CFA204610BC5DF814FB00006B58000836
:1053C00010B5002804DB0A07130E054A135406E043
:1053D0000A07140E034A00F00F031B1FD45410BD1C
:1053E00000E400E018ED00E002E008C8121F08C168
:1053F000002AFAD170477047002001E001C1121F56
:10540000002AFBD1704700002DE9FF4F8DB00F46F9
:105410000546002606E025280BD0DDE90F1290474F
:105420006D1C761C28780028F5D111B03046BDE8F7
:10543000F08F0024A246A1460122EC4900E004437B
:1054400015F8013F203B02FA03F00842F7D1287813
:105450002A2810D06FF02F022878A0F130010929F6
:1054600014D80AEB8A0102EB410144F0020400EB7C
:10547000010A6D1CF0E701CF5FEA000A03D544F48E
:105480000054CAF1000A44F002046D1C28782E284A
:1054900017D115F8010F44F004042A280ED06FF03C
:1054A0002F022878A0F1300109290AD809EB8901D7
:1054B00002EB410100EB01096D1CF2E757F8049B78
:1054C0006D1C28786C280FD006DC4C2817D0682873
:1054D0000DD06A2814D104E0742810D07A280FD196
:1054E0000DE044F400140AE044F4801401E044F4B4
:1054F00040146978814202D104F580146D1C6D1C42
:105500002A786E2A1FD00CDC632A31D004DC002AF2
:105510008BD0582A11D1A3E0642A68D0692A0CD113
:1055200065E0732A2ED004DC6F2A73D0702A04D170
:105530009BE0752A6FD0782A6ED01046DDE90F12F5
:105540009047761C50E1C4F30250022806D003288D
:1055500009D0042801CF09D0066045E101CFF11739
:10556000C0E9006140E101CF06803DE106703BE10A
:1055700017F8040B8DF8000000208DF80100EB46B1
:10558000012003E057F804BB4FF0FF3061074FF0F4
:10559000000102D40DE008F10101884649450FDA07
:1055A0008045F8DB1BF808100029F4D108E008F169
:1055B000010188468142FADB1BF808100029F6D168
:1055C000DDE90F23AAEB08008146214600F036F9F9
:1055D000304400EB080604E0DDE90F121BF8010B74
:1055E0009047B8F10108F7D221464846F7E00A2172
:1055F000C4F302534FF0000B0891022B04D001CFEB
:10560000C117032B09D00AE0FF1D27F00707F7E8B1
:10561000020108E032E01FE020E000B2C117042BD5
:1056200001D140B2C117031E71F1000307DA4FF038
:10563000000CD0EB0C006CEB01012D2302E02305E4
:1056400004D52B238DF82430012303E0E30701D098
:105650002023F7E7984658E00A2110E010210EE0D9
:1056600010204FF0000B08900CE010214FF0000BC1
:1056700044F004044FF00809089103E008214FF0BA
:10568000000B0891C4F30253022B04D001CF002178
:10569000032B06D006E0FF1D27F00707F7E80201FD
:1056A00003E080B2042B00D1C0B24FF00008230702
:1056B0002BD5702A07D0DDF820C08CF0100C5CEAE6
:1056C0000B0C05D00EE040238DF82430012308E0B8
:1056D00050EA010306D030238DF824308DF82520C0
:1056E00002239846DDF820C08CF0080C5CEA0B0C15
:1056F0000BD150EA010301D1630706D530238DF8A1
:1057000024304FF00108A9F10109582A04D038A229
:105710000B9208AA0A920BE03AA2F9E75B46089AB4
:10572000FAF760FD0B9B9B5C0A9A521E0A9213705B
:1057300050EA0102F2D10A98ADEB000000F1200B13
:10574000600702D524F4803401E04FF00109D94507
:1057500002DDA9EB0B0000E0002000EB0B0141444F
:105760000890AAEB010AE00306D4DDE90F232146E5
:10577000504600F063F806444FF0000908E009A91C
:1057800011F80900DDE90F12904709F10109761CB3
:10579000C145F4DBE0030CD5DDE90F23214650467B
:1057A00000F04CF8064404E0DDE90F123020904789
:1057B000761C0899481E08900029F5DC08E00A9834
:1057C0000A990078491C0A91DDE90F129047761C6E
:1057D000BBF10001ABF1010BF1DC21465046DDE9E4
:1057E0000F2300F019F806446D1C1BE60928010080
:1057F0003031323334353637383961626364656647
:105800000000000030313233343536373839414208
:1058100043444546000000002DE9F04104460025C0
:105820001E461746880404D405E039462020B047B8
:105830006D1C641EF9D52846BDE8F0812DE9F041C4
:10584000044600251E469046C80301D5302700E0D7
:105850002027880404D505E041463846B0476D1C32
:10586000641EF9D52846BDE8F0810A68531C0B6018
:105870001070704702460020CB1C23F00301136F09
:105880008B4205D3136F5B1A1367D06E4318D36630
:1058900070472DE9F05F04468846267B27686568D7
:1058A00095F800A000208346814600BF36BB67B94B
:1058B000A5684FF4806229462046636F98470746E3
:1058C00027B96FF00100BDE8F09F6D1C7F1EBBF192
:1058D000000F0AD04FF0000B287810B16FF00500D0
:1058E000F1E7FF208246287007E095F800A0BAF1A2
:1058F000FF0F02D14FF0010B0BE080264FEA490960
:105900000AEA060008B109F101097610A8F10108B8
:1059100000BFB8F1000FC9D1267327606560484603
:10592000D1E700002DE9F04F87B00C464FF4B55B8E
:10593000CDF818B041F2511BCDF814B042F6CF1B90
:10594000CDF810B041F6905BCDF80CB04FF0000BE5
:10595000CDF800B080E0D0F800C0D0F84080D0F89A
:105960008090D0F8C0100CEB090AACEB090BCDF815
:1059700008B0A8EB010B4FF4B55E0BFB0EFB4FEA32
:105980002B3741447F1A0AEB010CAAEB0101DDF829
:1059900008B007EB0B08DDF808B0ABEB0709D0F84F
:1059A000E050036AD0F8A060026EA3EB050A5F190D
:1059B000A6EB020BCDF808B03244A7EB020B0BFBB1
:1059C0000EFB4FEA2B333A44DDF808B0D34441F6DE
:1059D000905E0BFB0EFB4FEA2B3BCDF804B041F27F
:1059E000511B0AFB0BFEDDF804B0ABEB2E3542F683
:1059F000CF1EDDF808B00BFB0EFEDDF804B0ABEBFC
:105A00002E3BABEB02069B1BED1A0CEB020BC0F816
:105A100000B0ACEB020BC0F8E0B008EB060BC0F82E
:105A200020B0A8EB060BC0F8C0B009EB030BC0F820
:105A300040B0A9EB030BC0F8A0B001EB050BC0F818
:105A400060B0A1EB050BC0F880B0001DDDF800B020
:105A50000BF1010BCDF800B0DDF800B0BBF1080F81
:105A6000FFF479AF20384FF0000BCDF800B0A2E082
:105A7000D0F800B00BF5004CD0F80880D0F81090AA
:105A800081690CEB090AACEB090BCDF808B0A8EB67
:105A9000010B4FF4B55E0BFB0EFB4FEA2B37414475
:105AA0007F1A0AEB010CAAEB0101DDF808B007EB45
:105AB0000B08DDF808B0ABEB0709C5694368466918
:105AC000C268A3EB050A5F19A6EB020BCDF808B07C
:105AD0003244A7EB020B0BFB0EFB4FEA2B333A448D
