:020000040800F2
:1000000030400420C101000835430008E122000807
:10001000A5420008770500089D5200080000000076
:10002000000000000000000000000000F54600088D
:10003000091600080000000085430008714D000803
:10004000DB010008DB010008DB010008DB01000820
:10005000DB010008DB010008DB010008DB01000810
:10006000DB010008DB010008DB010008DB01000800
:10007000DB010008DB010008DB010008DB010008F0
:10008000DB010008DB010008DB010008DB010008E0
:10009000DB010008DB010008DB010008DB010008D0
:1000A000DB010008DB010008DB010008DB010008C0
:1000B000414E0008DB010008DB010008DB010008FD
:1000C000DB010008DB010008DB010008DB010008A0
:1000D000DB010008FD4E0008DB010008DB01000821
:1000E000DB010008DB010008DB010008DB01000880
:1000F000DB010008DB010008DB010008DB01000870
:10010000DB010008B54600089D4E0008DB01000831
:10011000DB010008DB010008DB010008DB0100084F
:10012000DB010008DB010008DB010008DB0100083F
:10013000DB010008DB010008DB010008DB0100082F
:10014000DB010008DB010008DB010008DB0100081F
:10015000DB010008DB010008DB010008DB0100080F
:10016000DB010008DB010008DB010008DB010008FF
:10017000DB010008DB010008DB01000800000000D3
:10018000DB010008DB010008DB010008DB010008DF
:10019000DB010008DB010008DB01000800000000B3
:1001A000DB010008DB010008DB010008DFF80CD0F0
:1001B00000F04AF800480047E18A00083040042077
:1001C0000648804706480047FEE7FEE7FEE7FEE7F1
:1001D000FEE7FEE7FEE7FEE7FEE7FEE7794D0008F3
:1001E000AD0100082DE9F05F0546002092469B46D0
:1001F00088460646814640241BE02846414647463D
:10020000224600F042F853465A46C01A914110D394
:1002100011461846224600F029F82D1A67EB01080E
:100220004F4622460120002100F020F817EB00097C
:100230004E41201EA4F10104DFDC484631462A4627
:100240004346BDE8F09F0000064C074D06E0E0681D
:1002500040F0010394E8070098471034AC42F6D30D
:10026000FFF7A8FF98870208B8870208202A04DB56
:10027000203A00FA02F1002070479140C2F12003B9
:1002800020FA03F3194390407047202A04DB203AF8
:1002900021FA02F00021704721FA02F3D040C2F1A6
:1002A0002002914008431946704770B58C1810F829
:1002B000015B15F0070301D110F8013B2A1106D1AB
:1002C00010F8012B03E010F8016B01F8016B5B1EC5
:1002D000F9D12B0705D40023521E0DD401F8013BA0
:1002E000FAE710F8013BCB1A921C03E013F8015B0C
:1002F00001F8015B521EF9D5A142D8D3002070BD90
:1003000002468A4202DD501A80B27047881A80B2D3
:10031000FBE7000010B501F025FE07480078022831
:1003200002D105F0ADF805E003480078012801D1BD
:1003300004F0C4F810BD00003A0000202DE9F04F91
:100340008BB006460F469046706801F051FE6B4830
:10035000008844F64251884205D069A005F0AAFB06
:100360000BB0BDE8F08F7048C08920280BD06E48D4
:10037000C089182807D06C48C089102803D06BA00A
:1003800005F098FBECE7BA46C34667484068574615
:1003900038440A9064488068D84600EB08096C48E5
:1003A000017F0C3050F821100A98814205D8684826
:1003B000017F0C3050F821000A906548017F14300D
:1003C00050F82100484504D86148017F143050F8A6
:1003D0002190A9F10100039000200490D84687E005
:1003E0007068049901F0E6FE054600240498401C5C
:1003F0000490574674E04C48C089202841D1285DBC
:10040000C0100790601C285C80100890A01C285C1D
:10041000C0100990E01C285C06900998C102089859
:1004200041EA4010079908430590241D307890B99F
:100430003846039903F0D6FD0290059A91B2029ACC
:1004400090B2069A00F0B2F801903846019A0399EA
:1004500003F0C6FB43E03078012809D17178069893
:1004600081423CDC3846059A039903F0B9FB36E03B
:100470003078022833D13846059A039903F0B0FB4F
:100480002DE02948C089182819D1285DC01007908F
:10049000601C285C80100890A01C285CC01009908B
:1004A0000998C102089841EA40100799084305904D
:1004B000E41C3846059A039903F092FB0FE01A48B2
:1004C000C08910280BD1295D601C285C41EA0020FE
:1004D0000590A41C3846059A039903F081FB7F1C04
:1004E0000A98874287D30398401E039008F10108B9
:1004F000C845FFF475AF00BF32E70000C41100200B
:10050000424D50446973706C61793A207468697324
:10051000206973206E6F74206120424D50206669FF
:100520006C650D0A00000000D2110020424D5044BD
:100530006973706C61793A20756E737570706F7243
:1005400074656420666F726D61742121210D0A004B
:10055000940100200EB501204FF6FF71062240F2F3
:100560008A23CDE9002102904FF4C8721946502029
:1005700001F02EFB0EBD00BFFEE70000014600208B
:100580000BE000EBC002074B03EBC2028A4202D130
:10059000054A10707047421CD0B20328F1DB00BF3F
:1005A000F8E700003C220020180100202DE9FC4F54
:1005B00003460C46052A02DA1846BDE8FC8FDD0A20
:1005C000C3F3451603F01F074FEAD42CC4F34518B4
:1005D00004F01F00019011460CFB01F0C1F1FF0E69
:1005E00005FB0E004FF0FF0E90FBFEF01FFA80F9A6
:1005F00008FB01F0C1F1FF0E06FB0E004FF0FF0EED
:1006000090FBFEF01FFA80FA01984843C1F1FF0EFB
:1006100007FB0E004FF0FF0E90FBFEF01FFA80FB71
:100620004FEAC92040EA4A1040EA0B0080B200902D
:100630000098C2E710B5044694F82400012805D1BB
:10064000206C58B12046216C884707E094F82400BC
:1006500020B9606C10B12046616C884710BD000065
:100660002DE9F8434FF48051012003F04FFE8046FE
:100670004FF48051012003F049FE0546B8F1000F08
:1006800000D06DB94146022003F02EFE294602201B
:1006900003F02AFE46A005F00DFA0020BDE8F8831D
:1006A00001224CA1504807F039F8044664B1414694
:1006B000022003F019FE2946022003F015FE4BA08C
:1006C00005F0F8F90020E9E751A005F0F3F94FF043
:1006D000000900275DE0444880686421484342499E
:1006E000C968B0FBF1F107F10F0081420BD33E481E
:1006F0008068642148433C49C968B0FBF1F739463A
:100700004BA005F0D7F96B464FF48052414636486E
:1007100007F002F904467CB1334806F049FE414631
:10072000022003F0E1FD2946022003F0DDFD48A090
:1007300005F0C0F90020B1E74A462846009901F0CB
:1007400031F9002612E0A85D18F8061088420CD096
:10075000254806F02DFE4146022003F0C5FD29463E
:10076000022003F0C1FD012098E7761C0098864224
:10077000E9D3009881441C4880681B49C9688842B5
:1007800003D20098B0F5805F03D039A005F092F94C
:1007900000E0A0E700BF144806F00AFE4146022030
:1007A00003F0A2FD2946022003F09EFD002075E71C
:1007B000436865636B466F6E744C6962A3BAC9EA9D
:1007C000C7EBB6AFCCACC4DAB4E6CAA7B0DC0D0A4E
:1007D00000000000303A2F666F6E742F47424B3294
:1007E000342E464F4E0000001423002043686563FA
:1007F0006B466F6E744C6962A3BAB4F2BFAAD7D6C7
:10080000BFE2CEC4BCFECAA7B0DC0D0A00000000E7
:10081000436865636B466F6E744C6962A3BABFAA86
:10082000CABCD0A3D1E9D7D6BFE20D0A00000000B0
:10083000436865636B466F6E744C6962A3BAD0A35C
:10084000D1E9BDF8B6C8A3BA252525640D0A000074
:10085000436865636B466F6E744C6962A3BAB6C138
:10086000C8A1CAFDBEDDCAA7B0DC0D0A00000000A9
:10087000436865636B466F6E744C6962A3BAD0A31C
:10088000D1E9BDF8B6C8A3BA25253130300D0A002C
:1008900010B588B007A1684606F0F8FF0446052C9D
:1008A00003D104A006F06AFE02E0684606F095FD5A
:1008B00008B010BD303A7265636F726465720000F3
:1008C00008B50748006850B1054800680090054821
:1008D000082340F287210269002001F02BF908BDAE
:1008E0001800002094010020002001490870704782
:1008F000720100200020014908707047700100203B
:1009000000200149087070477101002010B54FF4B4
:100910000071184807F066FC40F6044008F0E0FF5C
:10092000082301221146144807F0BCFC08230322C7
:100930000021114807F0DDFC08210F4807F052FCA8
:100940000A2000F06FFE08210B4807F04DFC012043
:1009500000F068FE4FF40071064807F045FC0A20DD
:1009600000F060FE082300221146034807F09AFCBD
:1009700010BD0000001802400010024010B540F603
:10098000014008F0ADFF402301221146184807F04E
:1009900089FC402303220021154807F0AAFC4021CE
:1009A000134807F021FC802301221146104807F06C
:1009B00079FC8023032200210D4807F09AFC802156
:1009C0000B4807F011FC4FF400730122114609484F
:1009D00007F068FC4FF4007303220021054807F07C
:1009E00088FC4FF40071034807F0FCFB10BD0000C9
:1009F000000402400018024070B50546284601F088
:100A000035FC044624B90EA005F054F8012070BD51
:100A10001A2008F093FED4E9010108F097FF08B905
:100A200000BFFEE71A2008F09BFE1A2008F0AAFE7D
:100A300008B900BFFEE7002008F074FE0020E6E7DA
:100A4000436F6E666967493253434C4B3A20666187
:100A5000696C20746F206765742070736320696E01
:100A6000666F2121210D0A0010B540F6014008F003
:100A700037FF40F6024008F033FF40F6084008F028
:100A80002FFF4FF4805205212D4807F07CFB4FF4D7
:100A90008053012202212A4807F004FC4FF48053BE
:100AA00003220021264807F024FC4FF400520521C0
:100AB000234807F068FB4FF400530122022120482D
:100AC00007F0F0FB4FF40053032200211C4807F00D
:100AD00010FC4FF480420621194807F054FB4FF4F4
:100AE000804301220221164807F0DCFB4FF48043CB
:100AF00003220021124807F0FCFB082205211148BF
:100B000007F041FB0823012202210E4807F0CAFB2F
:100B10000823032200210B4807F0EBFB40220521AC
:100B2000094807F030FB402301220221064807F064
:100B3000B9FB402303220021034807F0DAFB10BD74
:100B400000040240002002400008024010B540F6B8
:100B5000014008F0C5FE4023012211460E4807F06F
:100B6000A1FB4023032200210B4807F0C2FB4021D8
:100B7000094807F039FB802301221146064807F097
:100B800091FB802303220021034807F0B2FB802160
:100B9000014807F029FB10BD0004024010B54FF4D6
:100BA000406008F09DFE40F6074008F099FE40F6D0
:100BB000064008F095FE012302220021074807F0B5
:100BC00071FB102301220021054807F06BFB08236D
:100BD00001220021034807F065FB10BD0000024020
:100BE000001C02400018024010B540F6014008F019
:100BF00077FE40F6084008F073FE202301221146DC
:100C0000104807F04FFB2023022200210D4807F077
:100C100070FB20210B4807F0E7FA4FF480730122A4
:100C20001146094807F03EFB4FF480730222002171
:100C3000054807F05EFB4FF48071034807F0D2FAD5
:100C400010BD0000000402400020024010B54FF427
:100C5000A06008F0BFFA10BD10B54FF0807008F02A
:100C6000AFFE10BD10B5044640F6014008F038FE56
:100C7000012C0CD1802301221146094807F012FBF8
:100C8000802303220021064807F033FB06E02CB93D
:100C9000802301220021024807F004FB10BD000060
:100CA0000004024010B5044640F6014008F018FE6A
:100CB000012C0CD1802301221146094807F0F2FAD9
:100CC000802303220021064807F013FB06E02CB91D
:100CD000802301220021024807F0E4FA10BD000041
:100CE00000040240F0B597B0064600274FF6FF74A7
:100CF0004FF4606008F0F4FD4FF4406008F0F0FD40
:100D000040F6014008F0ECFD40F6024008F0E8FD36
:100D100040F6034008F0E4FD40F6044008F0E0FD32
:100D200040F6054008F0DCFD40F6064008F0D8FD2E
:100D300040F6074008F0D4FD40F6084008F0D0FD2A
:100D400001220C21FE4807F01EFA01230022022195
:100D5000FB4807F0A7FA012303220021F84807F017
:100D6000C8FA02220C21F64807F00DFA02230022ED
:100D70001946F34807F096FA022303220021F048AF
:100D800007F0B7FA04220C21ED4807F0FCF9042320
:100D900000220221EA4807F085FA042303220021F9
:100DA000E74807F0A6FA08220C21E54807F0EBF91E
:100DB000082300220221E24807F074FA08230322E4
:100DC0000021DF4807F095FA10220C21DC4807F0DB
:100DD000DAF9102300220221D94807F063FA102320
:100DE00003220021D64807F084FA20220C21D4489F
:100DF00007F0C9F9202300220221D14807F052FA56
:100E0000202303220021CE4807F073FA4FF48052CA
:100E10000C21CB4807F0B7F94FF480530022022190
:100E2000C74807F03FFA4FF4805303220021C4481B
:100E300007F05FFA4FF400520C21C14807F0A3F904
:100E40004FF4005300220221BD4807F02BFA4FF463
:100E5000005303220021BA4807F04BFA4FF48042B6
:100E60000C21B74807F08FF94FF48043002202218C
:100E7000B34807F017FA4FF4804303220021B0482B
:100E800007F037FA4FF400420C21AD4807F07BF928
:100E90004FF4004300220221A94807F003FA4FF45F
:100EA000004303220021A64807F023FA01220C2167
:100EB000A44807F068F9012300220221A14807F0A5
:100EC000F1F90123032200219E4807F012FA0222C1
:100ED0000C219C4807F057F9022300221946994833
:100EE00007F0E0F9022303220021964807F001FAF7
:100EF00004220C21934807F046F904230022022122
:100F0000904807F0CFF90423032200218D4807F011
:100F1000F0F94FF480420C218B4807F034F94FF47C
:100F2000804300220221884807F0BCF94FF4804337
:100F300003220021844807F0DCF94FF400420C2121
:100F4000814807F020F94FF40043002202217E4837
:100F500007F0A8F94FF40043032200217A4807F074
:100F6000C8F901220C21784807F00DF9012300226D
:100F70000221754807F096F90123032200217248E7
:100F800007F0B7F902220C216F4807F0FCF80223A2
:100F9000002219466C4807F085F90223032200213C
:100FA000694807F0A6F980220C21684807F0EBF8A1
:100FB000802300220221654807F074F98023032270
:100FC0000021624807F095F94FF480720C215F48C8
:100FD00007F0D9F84FF48073002202215B4807F034
:100FE00061F94FF4807303220021584807F081F91A
:100FF0004FF400720C21554807F0C5F84FF4007308
:1010000000220221514807F04DF94FF400730322EA
:1010100000214E4807F06DF94FF480620C214B48D7
:1010200007F0B1F84FF4806300220221474807F02F
:1010300039F94FF4806303220021444807F059F93D
:101040004FF400620C21414807F09DF84FF4006313
:10105000002202213D4807F025F94FF400630322E6
:1010600000213A4807F045F94FF480520C213748E7
:1010700007F089F84FF4805300220221334807F02B
:1010800011F94FF4805303220021304807F031F961
:101090004FF400520C212D4807F075F84FF400531F
:1010A00000220221294807F0FDF84FF400530322E3
:1010B0000021264807F01DF94FF480420C212348F7
:1010C00007F061F84FF48043002202211F4807F027
:1010D000E9F84FF48043032200211C4807F009F986
:1010E0004FF400420C21194807F04DF84FF400432B
:1010F00000220221154807F0D5F84FF400430322DF
:101100000021124807F0F5F84FF480720C210E48C8
:1011100007F039F84FF48073002202210A4807F0E3
:10112000C1F84FF4807303220021074807F0E1F86B
:101130004FF400720C21044807F025F808E0000085
:101140000014024000180240000C0240001002404F
:101150004FF4007300220221B14807F0A3F84FF4C6
:10116000007303220021AE4807F0C3F84FF48062F9
:101170000C21AB4807F007F84FF4806300220221EE
:10118000A74807F08FF84FF4806303220021A4489A
:1011900007F0AFF810220C21A24806F0F4FF10234C
:1011A000002202219F4807F07DF81023032200212E
:1011B0009C4807F09EF820220C219A4806F0E3FF95
:1011C000202300220221974807F06CF820230322F5
:1011D0000021944807F08DF801220C21924806F076
:1011E000D2FF0123002202218F4807F05BF8012380
:1011F000032200218C4807F07CF802220C218A4847
:1012000006F0C1FF022300221946874807F04AF87A
:10121000022303220021844807F06BF820220C21CE
:10122000824806F0B0FF2023002202217F4807F009
:1012300039F82023032200217C4807F05AF84FF4A4
:1012400000420C21774806F09EFF4FF40043002235
:101250000221744807F026F84FF4004303220021CE
:10126000704807F046F84FF400620C21704806F011
:101270008AFF4FF40063002202216D4807F012F844
:101280004FF4006303220021694807F032F840223E
:101290000C21664806F077FF4023002202216348B4
:1012A00007F000F8402303220021604807F021F8EE
:1012B00080220C215D4806F066FF80230022022177
:1012C0005A4806F0EFFF802303220021574807F019
:1012D00010F84FF480720C21524806F054FF4FF47E
:1012E0008073002202214F4806F0DCFF4FF4807328
:1012F000032200214B4806F0FCFF042E01D11025EB
:1013000000E008250A2000F08DF902200B9006204D
:101310000A9003200990052008900120079006906C
:1013200005900C96159008201490102013904020E2
:10133000129080001190002010904FF440600F90A8
:1013400001200E9000200D9005A816900CA805F025
:1013500091FF0120049003950020029001904FF628
:10136000FF7400E0641E2021304605F05BFF08B1E9
:10137000002CF7D101A805F06FFF0A2000F052F908
:101380000220049003950020029001904FF6FF7414
:1013900000E0641E2021304605F044FF08B1002C17
:1013A000F7D101A805F058FF032004900395E02031
:1013B0000290002001904FF6FF7400E0641E20218F
:1013C000304605F02FFF08B1002CF7D101A805F039
:1013D00043FF40F22127042004900395002002904F
:1013E00001974FF6FF7400E0641E2021304605F09F
:1013F00019FF08B1002CF7D101A805F02DFF4FF41B
:10140000177005F0C3FF4FF6FF7400E0641E202143
:10141000304605F007FF08B1002CF7D117B0F0BD3A
:10142000000C02400018024000100240001C024064
:10143000001402407FB504460D464FF4805008F07A
:101440004FFA4FF080400AF077F968460AF09BFAAD
:10145000ADF800500020ADF804000294ADF806008D
:1014600069464FF080400AF02FFA012188070AF000
:1014700077FA002201211C2007F04AFE4FF080403D
:101480000AF01CFA7FBD00007FB504460D4641F20C
:10149000030008F025FA0F480AF04EF968460AF0F2
:1014A00072FAADF800500020ADF804000294ADF8D7
:1014B0000600694607480AF007FA012105480AF0C4
:1014C0004FFA00220121322007F022FE01480AF0E3
:1014D000F5F97FBD000C004010B50446002211460E
:1014E000252007F015FE4FF4406008F0F9F94FF49D
:1014F00000720721264806F046FE4FF4806207215D
:10150000234806F040FE4FF40073012202212048D8
:1015100006F0C8FE4FF40073022200211C4806F0BA
:10152000E8FE4FF4806300220221194806F0BAFE5B
:1015300041F2041008F0D4F916480AF0D7FB21460E
:1015400014480AF055FB002112480AF0A4FC0021BF
:1015500010480AF0B0FC00210E480AF08CFC04216F
:101560000C480AF090FC08210A480AF09CFC094843
:101570000AF02AFC40F2053106480AF046FC40F227
:10158000073104480AF041FC00200349087010BDEF
:1015900000000240001001408401002038B50446DC
:1015A000A06A28B1A06A009094E80F0000F0B2FC95
:1015B000002084F82400204600F09CF8204600F02B
:1015C000FDF838BD30B50346002016E0B3F90050F1
:1015D0009C68645D0C541C88641C24B21C80B3F9A4
:1015E0000040B3F90450AC4201DB00241C80441CD1
:1015F00020B2DC88641E24B2DC80B3F90640002CE3
:1016000001DD9042E2DB30BD704710B5044604EBCB
:10161000840000F019F810BD10B50446A00000F0D9
:1016200013F810BD01B50749009808604FF0E0209D
:1016300040694FF0E021886100BF0248006800283F
:10164000FBD108BD8801002001B5009806E000210B
:1016500001E04A1C91B22629FBDB401E0028F6D18E
:1016600008BD70B504460D461646A07820B932462E
:1016700029462046FEF762FE70BD000000B585B029
:10168000054800900548029000221146684600F087
:1016900007F805B000BD0000BCD6000892AA010002
:1016A00070B5A0B004460E461546206808B1A06883
:1016B00020B90C4804F0FEF920B070BDE660256149
:1016C000002060604FF48053074A084901A8009445
:1016D00007F02FF820B90022054901A806F0D8FF2D
:1016E00000BFE9E710870208C40100201D39000887
:1016F000693900082DE9F843044625686668A16841
:1017000020684718E168606800EB0108A06A28B10A
:10171000A06A009094E80F0000F00CFA94F82400FE
:1017200018BB94F83500052808D1E06B43463A46CB
:1017300031460090284600F0A9FB3DE094F83500C2
:10174000042839D0206B40B9E06B43463A46314615
:101750000090284600F09AFB2EE094F83530314690
:101760002846226B00F01EFA26E094F82400012897
:1017700022D194F83400052808D1A06B43463A469C
:1017800031460090284600F081FB15E094F83400C3
:10179000042811D0E06A40B9A06B43463A4631466E
:1017A0000090284600F072FB06E094F83430314691
:1017B0002846E26A00F0F6F9BDE8F8832DE9FF411A
:1017C0000446216920684518616960684618207ED2
:1017D00000F000FCA168B1FBF0F701210022E069F4
:1017E00001AB83C30092237E31462846226A00F073
:1017F00021FBBDE8FF8170B50346002016E00C5CBC
:10180000B3F902609D68AC555C88641C24B25C80AE
:10181000B3F90240B3F90450AC4201DB00245C8010
:10182000441C20B2DC88641C24B2DC80B3F906407E
:10183000B3F90450AC4201DA9042E0DB70BD000025
:1018400010B50121002003F02BFD002211460120DC
:1018500003F06FFD0021084603F0C7FD1F2003F0D1
:10186000B6FD032003F098FD0021022003F053FD94
:10187000102211464FF4FA5000F034FD20B108A0B8
:1018800004F018F900BFFEE710220E490E4800F0E0
:10189000CBFE4FF400720D490D4800F079FE10BDEB
:1018A000456E7465725265636F72644D6F64652036
:1018B000A3BAB2BBD6A7B3D6B5C4B2C9D1F9C2CA0E
:1018C0000D0A00008812002068120020A8160020CF
:1018D000A812002010B500F043FF00F057FF10BD24
:1018E0002DE9F04104460E461548005D38B914480C
:1018F00020380168204688470120BDE8F081114862
:1019000050F82400B04219D90F4850F82400B6FB13
:10191000F0F70B480C3850F8240050F827800025C9
:1019200008E0002106480C3850F824007A1940F8E5
:1019300022106D1C4545F4DB0020DEE70220DCE7C9
:101940004401002004870208F886020870B50546A5
:101950000E46144600F0BEF80121114806F042FC84
:10196000022002F0ABFEC4F3074002F0A7FEC4F36E
:10197000072002F0A3FEE0B202F0A0FE03E0287808
:1019800002F09CFE6D1C301EA6F101018EB2F6D154
:101990000121034806F028FC00F02CF870BD00007F
:1019A000000802402DE9F04106460F461446012189
:1019B0000F4806F017FC032002F080FEC4F3074036
:1019C00002F07CFEC4F3072002F078FEE0B202F0E1
:1019D00075FE002504E0FF2002F070FE70556D1CBE
:1019E000BD42F8D30121024806F0FEFBBDE8F081BC
:1019F0000008024010B5002401210A4806F0F2FB5D
:101A0000052002F05BFE00BFFF2002F057FE0446F7
:101A100004F001000028F7D10121024806F0E4FBA0
:101A200010BD0000000802402DE9F74F81468A46AC
:101A3000029D5646CB4647E0C5F30B002F1AC5F36F
:101A40000B0030B13A464FF480512148FFF7AAFF0E
:101A50000BE0C5F30B0040B9B6F5805F05D23A46FE
:101A60004FF480511A48FFF79DFF384600F042F8C6
:101A7000C5F3032417E006B917E005F0FF080DE0F1
:101A800006B90EE09BF8000008EB0421104A505400
:101A90006D1C761E0BF1010B08F10108B8F1FF0F68
:101AA000EED900BF641C102CE5D300BF002409E070
:101AB00007EB0422064901EB04204FF48071FFF785
:101AC00045FF641C102CF3D3002EB5D1BDE8FE8F6A
:101AD0006427002010B50121054806F083FB06208D
:101AE00002F0ECFD0121024806F07EFB10BD000073
:101AF0000008024010B50446FFF7ECFF01210C4836
:101B000006F070FB202002F0D9FDC4F3074002F07C
:101B1000D5FDC4F3072002F0D1FDE0B202F0CEFD06
:101B20000121034806F060FBFFF764FF10BD0000D1
:101B3000000802402DE9F84304460D4616461F46AC
:101B4000DDF820803B46324629462046CDF800800D
:101B500001F072FFBDE8F8832DE9FF4F83B08046A6
:101B600017461C46DDE911ABDDF840900CB90025A5
:101B700006E0012C01D1012502E0022C00D1022552
:101B8000BBF1000F01D1002600E0012633462A46B2
:101B9000CDE900A902974046049902F04BFA07B03C
:101BA000BDE8F08F2DE9F04105460E4617461C466C
:101BB0002CB9324629463846FFF753FD06E0012C82
:101BC00004D1324629463846FFF76AFDBDE8F08168
:101BD0002DE9F04F8FB005460E4692469B46189C65
:101BE000002007900690012C0AD119985B465246B6
:101BF00031460090284601F081FF0FB0BDE8F08F1C
:101C00001A9800285FD1AA4503D9AAEB05000E90C7
:101C100002E0A5EB0A000E90B34503D9ABEB06003A
:101C20000D9002E0A6EB0B000D900C95CDF828A0CE
:101C30000B96CDF824B0DDE90D10884221D30D9824
:101C400060430E99B0FBF1F004EB50040B98A0EB4D
:101C500054000B900998A0EB540009900EE01998DD
:101C60000090DDE90932DDE90B1001F047FF0B9828
:101C7000401C0B900998401C0990641E002CEED16A
:101C80007BE00E9860430D99B0FBF1F004EB50043B
:101C90000C98A0EB54000C900A98A0EB54000A900A
:101CA0000EE019980090DDE90932DDE90B1001F032
:101CB00025FF0C98401C0C900A98401C0A90641E4A
:101CC000002CEED159E01A98012856D16408AAEBED
:101CD0000507ABEB060803950296002F01DD059082
:101CE00007E017B90020059003E04FF0FF300590A2
:101CF0007F42B8F1000F02DD012004900AE0B8F144
:101D0000000F02D10020049004E04FF0FF30049057
:101D1000C8F10008474501DDB94600E0C146002092
:101D2000089025E02246199BDDE9021000F027F813
:101D3000079838440790069840440690079848450D
:101D400007DD0798A0EB0900079005990398084460
:101D500003900698484507DD0698A0EB0900069019
:101D600004990298084402900898401C80B2089098
:101D700009F1010108988842D4DD00BF3DE72DE953
:101D8000FF5F05460E4692460024D0460320A0EB96
:101D90004A0B46E0A14647460FE0A6EB090105EBDA
:101DA0000800039A01F01CFF06EB0801A5EB0900EF
:101DB000039A01F015FFA9F10109B9F1000FECDC5C
:101DC0001EE0F11B281B039A01F00AFF311BE81BE0
:101DD000039A01F005FFF11B2819039A01F000FF97
:101DE0003119E81B039A01F0FBFEF1192819039A37
:101DF00001F0F6FE3119E819039A01F0F1FE7F1E99
:101E0000002FDEDC641CBBF1000F03DAA000801D94
:101E1000834406E0A4EB080080000A308344A8F164
:101E200001084445B6DD31462846039A01F0D8FE44
:101E3000BDE8FF9F2DE9FF4F85B0054616461F46BA
:101E4000DDE914ABDDE91289384600F0C3F80490EF
:101E5000344612E020787E280EDC207820280BDB28
:101E60008DE8000722783B4628460699FFF774FE66
:101E7000641C0498054400E004E0BBF10000ABF1F1
:101E8000010BE7D100BF09B0BDE8F08F2DE9F843A1
:101E900004460D4616461F46DDF820807B1B321B8C
:101EA00029462046CDF8008001F0C0FEBDE8F88349
:101EB0002DE9F04106460F461446052C06D34FF097
:101EC000FF30306038600020BDE8F08100F004FA97
:101ED0000546681C005D01280ED104EB4401A81DD5
:101EE00030F81100306004EB4401A81D00EB410004
:101EF000408838600120E7E74FF0FF3030603860FD
:101F00000020E1E770B504460D462946204602F060
:101F100069F870BD2DE9FF5F05460E469146DDF874
:101F200038A0BAF1000F01D1BDE8FF9FD3464FF0B2
:101F3000000834460FE02F4608E021463846FFF7F8
:101F4000E1FF2BF8180008F101087F1C05EB0900E0
:101F5000B842F2D8641C03983044A042EBD800BFCA
:101F6000E2E7000010B502F083FC0446042C1CD00C
:101F70003CB90E480068006818B10C490968086847
:101F80008047012C07D109480068406818B107490B
:101F9000096848688047022C07D1044800688068B7
:101FA00018B1024909688868804710BD10000020F8
:101FB0000148007870470000720100200148007855
:101FC0007047000070010020014800787047000051
:101FD00071010020014609B906207047012901D18D
:101FE0000820FAE7022901D10C20F6E70020F4E7E7
:101FF000014600228B5C501C085C43EA00206B4BBE
:10200000188002228B5C501C085C43EA0023901C61
:10201000085C43EA0043D01C085C43EA0060634B61
:10202000C3F8020006228B5C501C085C43EA0020C7
:102030005E4BD88008228B5C501C085C43EA002071
:102040005A4B18810A228B5C501C085C43EA00231F
:10205000901C085C43EA0043D01C085C43EA006023
:10206000524BC3F80A000E228B5C501C085C43EAFA
:102070000023901C085C43EA0043D01C085C43EA40
:1020800000604B4B186012228B5C501C085C43EACA
:102090000023901C085C43EA0043D01C085C43EA20
:1020A0000060434B586016228B5C501C085C43EA6E
:1020B0000023901C085C43EA0043D01C085C43EA00
:1020C00000603B4B98601A228B5C501C085C43EA12
:1020D0000020374B98811C228B5C501C085C43EA23
:1020E0000020334BD8811E228B5C501C085C43EAD5
:1020F0000023901C085C43EA0043D01C085C43EAC0
:1021000000602B4B186122228B5C501C085C43EA58
:102110000023901C085C43EA0043D01C085C43EA9F
:102120000060234B586126228B5C501C085C43EAFC
:102130000023901C085C43EA0043D01C085C43EA7F
:1021400000601B4B98612A228B5C501C085C43EAA0
:102150000023901C085C43EA0043D01C085C43EA5F
:102160000060134BD8612E228B5C501C085C43EA44
:102170000023901C085C43EA0043D01C085C43EA3F
:1021800000600B4B186232228B5C501C085C43EAE7
:102190000023901C085C43EA0043D01C085C43EA1F
:1021A0000060034B5862002070470000C4110020FB
:1021B000D211002030B502460B46154DED89202D79
:1021C00003D1134D6D68A9001BE0114DED89182D49
:1021D0000AD10F4D6D6805EB450100E0491C01F087
:1021E0000305002DFAD10CE0094DED89102D08D121
:1021F000074D6D68690000E0491C01F00305002DE2
:10220000FAD1044DD5F80A5001FB0354101930BD22
:10221000D2110020C411002070B50646002511E03F
:102220002A460BA1304603F055FC012231460E48E8
:1022300005F074FA0446042C00D106E00A4805F0C3
:10224000B7F86D1C681C0028EAD100BF70BD000003
:10225000303A7265636F726465722F52454325642C
:102260002E77617600000000A81B002010B5024602
:10227000002000210CE001EB8103074C54F82330CF
:10228000934204D101EB810304EB830002E0491C7B
:102290000B29F0D300BF10BD1086020810B58021B5
:1022A000034805F0F7FF08B9002010BD0120FCE746
:1022B0000004024010B58021034805F0EBFF08B987
:1022C000002010BD0120FCE700040240014903C9C1
:1022D0007047000078010020004870471412002069
:1022E00000BFFEE72DE9F04107460C46154638468B
:1022F000FFF7BCFF06462EB98FA003F0DBFB0120E1
:10230000BDE8F08141F20E0007F0EAFA944809F0C6
:10231000ABF8FEF7A9FB3846FEF76EFB20B191A0A3
:1023200003F0C8FB0120EBE78D481C30006840F447
:1023300000608B491C310860081D006840F4007083
:10234000091D08600846006820F48070086008468F
:102350000068317C01F0010140EA01208049203110
:1023600008600846006820F0FF0008600846006822
:10237000317B08437A4920310860081F006840F02B
:102380000800091F08600846006840F400700860F3
:102390000846006820F4807008600846006820F055
:1023A000200008600846006820F010000860102C2B
:1023B0000AD10846006820F004000860084600685A
:1023C00020F00200086021E0182C0DD164481C3078
:1023D000006820F0040062491C310860084600686B
:1023E00040F00200086011E0202C0DD15C481C3048
:1023F000006840F004005A491C3108600846006833
:1024000020F00200086001E0012079E7102D08D1DA
:1024100053481C30006820F0010051491C3108600D
:102420000CE0202D08D14E481C30006840F001001F
:102430004B491C31086001E0012061E74848001D5C
:10244000006840F002004649091D086044481C30FD
:10245000006840F4806042491C3108604B480068C5
:1024600040F40060494908600846006840F00800F0
:1024700008600846006820F400700860084600689C
:1024800040F4807008600846006820F02000086072
:102490000846006820F010000860102C0AD1084699
:1024A000006820F0040008600846006820F0020080
:1024B00008601DE0182C0BD13448006820F004009F
:1024C000324908600846006840F0020008600FE0EA
:1024D000202C0BD12D48006840F004002B490860E7
:1024E0000846006820F00200086001E0012007E7CC
:1024F000102D06D12548006820F00100234908600E
:102500000AE0202D06D12148006840F001001F4953
:10251000086001E00120F3E61C481838006840F02C
:1025200001001A49183908601848006840F48060B2
:10253000164908600020E3E6436F6E66696749321A
:1025400053434C4B3A206661696C20746F20676579
:10255000742070736320696E666F2121210D0A005B
:1025600000380040493253436F6E6669673A20462F
:1025700061696C20746F20636F6E666967204932F1
:102580005320636C6F636B0D0A0000001C34004025
:1025900070B58EB006460C46154640F6154007F05D
:1025A0009FF903211E4804F06FFB03211C4804F02F
:1025B0009EFB01A804F004FD1A480190C01402908B
:1025C0000120039004964003059000200690079098
:1025D00008900320099000200A900B900C950D9014
:1025E00001AA03210E4804F039FC032211460C48CD
:1025F00004F06AFB00220321094804F00FFC0023C9
:1026000022460321064804F049FD01220321044823
:1026100004F06AFD0321024804F046FB0EB070BDD1
:10262000006002400C34004070B58EB006460C4687
:10263000154640F6154007F053F904211F4804F0F1
:1026400023FB04211D4804F052FB01A804F0B8FC50
:102650001B480190C014029001200390049640038F
:102660000590002006900790089003200990002014
:102670000A9040200B900C9500200D9001AA042197
:102680000E4804F0EBFB002204210C4804F01CFB74
:1026900000220421094804F0C1FB00232246042142
:1026A000064804F0FBFC01220421044804F01CFD50
:1026B0000421024804F0F8FA0EB070BD0060024038
:1026C0000C38004070B58EB006460C46154640F6F4
:1026D000154007F005F904211F4804F0D5FA04213C
:1026E0001D4804F004FB01A804F06AFC1B4801909B
:1026F000C0140290012003900496800305900020EE
:102700000690079008900320099000200A9040202E
:102710000B900C9500200D9001AA04210E4804F0A6
:102720009DFB002204210C4804F0CEFA0022042173
:10273000094804F073FB002322460421064804F0F4
:10274000ADFC01220421044804F0CEFC042102481F
:1027500004F0AAFA0EB070BD006002400C380040D0
:1027600010B520220321084804F013FB00BF2022EB
:102770000321054804F02CFB0128F8D1032102486D
:1027800004F082FA10BD00000060024010B5202263
:102790000421084804F0FDFA00BF20220421054866
:1027A00004F016FB0128F8D10421024804F06CFA69
:1027B00010BD00000060024010B50321044804F081
:1027C0000FFD10B90248806E10BD0148406EFBE756
:1027D0000060024010B50421054804F001FD18B95D
:1027E00003488030006810BD0148C06FFBE700005F
:1027F0000060024010B5044601202169884700208E
:10280000A16888470120616988470120616888477D
:102810000120616988470120A1688847012061691A
:10282000884700202169884710BD70B504460125FE
:10283000002021698847012061698847012061687B
:102840008847012061698847E06880470546002085
:1028500061688847012061698847284670BD2DE975
:10286000F04106460F4614461D46DDF818803046F6
:1028700000F0E0F8307820F00101304600F0A9F8CF
:10288000012805D13046FFF7B5FF0120BDE8F081F2
:102890003912304600F09DF8012804D13046FFF788
:1028A000A9FF0120F2E7F9B2304600F092F80128C2
:1028B00004D13046FFF79EFF0120E7E73046FFF7DF
:1028C00099FF304600F0B6F8307840F0010130460C
:1028D00000F07FF8012804D13046FFF78BFF01207C
:1028E000D4E70EE0012D05D14146304600F010F846
:1028F000207004E00021304600F00AF82070641CCB
:102900006D1E002DEED13046FFF774FF0020BDE7AD
:102910002DE9F04104460D460026002700202169DC
:10292000884700BF12E00120616888470120616983
:102930008847E068804740EA4700C7B200206168E6
:102940008847012061698847701CC6B2082EEADBFF
:102950001DB9204600F007F802E0204600F01EF8FE
:102960003846BDE8F08110B504460120216988474A
:102970000020A168884701206169884701206168BB
:1029800088470120616988470020616888470120E5
:102990006169884700202169884710BD10B5044649
:1029A0000120216988470120A168884701206169C9
:1029B00088470120616888470120616988470020B5
:1029C000616888470120616988470020216988473C
:1029D00010BD2DE9F04104460D46002601270120D7
:1029E0002169884700BF1CE005F0800018B1012074
:1029F000A168884702E00020A16888476806050EA4
:102A00000120616988470120616888470120616968
:102A10008847002061688847012061698847701CE9
:102A2000C6B2082EE0DB2046FFF7FFFE0746384619
:102A3000BDE8F08110B50446002061688847012098
:102A4000616988470120216988470120A16888477A
:102A50000120616988470120616888470120616918
:102A600088470020A16888470120616988470020C5
:102A7000616888470120616988470020216988478B
:102A800010BD2DE9F04105460F4614461E46284666
:102A9000FFF7D0FF287820F001012846FFF799FFC3
:102AA000012805D12846FFF7A5FE0120BDE8F081E9
:102AB00039462846FFF78DFF012804D12846FFF745
:102AC00099FE0120F2E70BE014F8011B2846FFF7FE
:102AD00080FF012804D12846FFF78CFE0120E5E79E
:102AE000301EA6F10106EFD12846FFF783FE002035
:102AF000DCE72DE9F04106460C4615461F463046F8
:102B0000FFF798FF307820F001013046FFF761FFB2
:102B1000012805D13046FFF76DFE0120BDE8F081A8
:102B200021123046FFF755FF012804D13046FFF748
:102B300061FE0120F2E7E1B23046FFF74AFF0128CB
:102B400004D13046FFF756FE0120E7E70BE015F809
:102B5000011B3046FFF73DFF012804D13046FFF747
:102B600049FE0120DAE7381EA7F10107EFD1304610
:102B7000FFF740FE0020D1E710B500F0FFFD002078
:102B800002F050FC00F004FD00F062FE0648074928
:102B900008600748486007488860084600F004F964
:102BA00000200549087010BD894300085C12002010
:102BB00089440008394300083A00002070470000AB
:102BC000002101604160822181604121C160232197
:102BD000016114214161022101764FF6FF71C1614B
:102BE0000BA10162002180F8241080F82510816279
:102BF000C162016380F8341080F835104FF4FC6135
:102C000081631F21C163002101644164704700009A
:102C1000427574746F6E000010B5ADF58C6D0122B5
:102C200008A1684604F04AFD044624B1214606A0E6
:102C300002F040FF02E00AA002F03CFF0DF58C6DAF
:102C400010BD0000303A0000B9D2D4D8CEC4BCFECA
:102C5000CFB5CDB3CAA7B0DC20282564290D0A0062
:102C6000B9D2D4D8CEC4BCFECFB5CDB3B3C9B9A602
:102C70000D0A000010B500F02DF8FDF7F1FC28B1A9
:102C800004A002F017FF02F093F902E00BA002F09B
:102C900011FF10BD466F6E744C6962A3BAD7D6BFE0
:102CA000E2CBF0BBB5A3ACD0E8D2AAB8FCD0C2D777
:102CB000D6BFE22121210D0A00000000466F6E748C
:102CC0004C6962A3BAD7D6BFE2D0A3D1E9B3C9B9E0
:102CD000A60D0A0010B540F6024006F001FE0123E1
:102CE0001A461946074805F0DDFA012303220021A0
:102CF000044805F0FEFA0121024805F075FA00F0DB
:102D000053FC10BD000802400EB5FDF737FEFDF77D
:102D1000FDFD28201249087012484860124888605A
:102D20001248C86012480861124848616420FEF7E2
:102D300079FC0120042301AA48F2401100900848C0
:102D4000FFF78DFD18B10CA002F0B4FE0EBD0020FF
:102D50008DF8080001A910A002F0ACFE00BFF5E755
:102D6000FC110020994B0008D94B00089D22000857
:102D7000650C00080B160008496E69744754313120
:102D80003531513A204661696C20746F2067657453
:102D90002069640D0A000000546F7563682049447F
:102DA0003A2025730D0A000038B50446012000F0D2
:102DB00091FE47F6FF7000F0FDFDFEF75FFC00F0AE
:102DC00039F8184804601848006900EB4000010118
:102DD000022001F09BFA154908600846006850B1CE
:102DE0000846006800901048182340F25D210269EF
:102DF0000020FFF78FF80C4800690101022001F064
:102E000085FA0B4908600846006850B1084600681A
:102E100000900548082340F2872102690020FFF74F
:102E200079F838BD10000020940100201400002023
:102E30001800002010B504202B4908702B48FFF71C
:102E4000BFFE4A20294908604FF42F7048603220A5
:102E50008860C86026A00862042081F8340081F8E8
:102E60003500244808640846FEF798FB1F484830A0
:102E7000FFF7A6FEB4201D4988644FF425711B4856
:102E8000C16480210165416519A18166042180F832
:102E90007C1080F87D101749C0F888104830FEF784
:102EA0007DFB12489030FFF78BFE4FF4B1700F4955
:102EB000C1F890004FF42F710C48C0F894103221E3
:102EC000C0F89810C0F89C1009A1C0F8B0100421F7
:102ED00080F8C41080F8C5100649C0F8D0109030B2
:102EE000FEF75CFB10BD0000180100203C22002012
:102EF000000000007D05000810B501F03DFF00F066
:102F000042FB00F029FB4FF4E13000F00DFC00F033
:102F1000D7FB00F0ADFB00F041FB10BD7047000097
:102F200010B5FDF73BFEFF200249087000204870F5
:102F3000887010BD1901002010B58EB04FF4487094
:102F4000FE4908604FF4F07048600020087208776E
:102F5000FB4808624FF050404862FA4888620220FD
:102F6000C86200240AE0F54801680C3040F82410DB
:102F70000C384168143040F82410641C022CF2D341
:102F800041F21A1006F0ACFC4FF4406006F0A8FCC9
:102F900040F6014006F0A4FC40F6024006F0A0FC1A
:102FA00040F6034006F09CFC40F6044006F098FC16
:102FB00040F6054006F094FC40F6064006F090FC12
:102FC00040F6074006F08CFC40F6084006F088FC0E
:102FD00004220E21DC4805F0D6F804230022022149
:102FE000D94805F05FF9042303220021D64805F0F3
:102FF00080F908220E21D44805F0C5F808230022E4
:103000000221D14805F04EF9082303220021CE48C1
:1030100005F06FF94FF480720E21CB4805F0B3F83C
:103020004FF4807300220221C74805F03BF94FF4AA
:10303000807303220021C44805F05BF901220921B5
:10304000C24805F0A0F8012300220221BF4805F084
:1030500029F9012303220021BC4805F04AF94FF465
:1030600080620E21B84805F08EF84FF4806300228C
:103070000221B54805F016F94FF4806303220021C0
:10308000B14805F036F94FF400620E21AE4805F064
:103090007AF84FF4006300220221AB4805F002F9F0
:1030A0004FF4006303220021A74805F022F9022211
:1030B0000921A64805F067F8022300221946A34813
:1030C00005F0F0F8022303220021A04805F011F9D1
:1030D00040220E219E4805F056F84023002202218E
:1030E0009B4805F0DFF8402303220021984805F0B3
:1030F00000F920220E21974805F045F820230022F0
:103100000221944805F0CEF82023032200219148A3
:1031100005F0EFF840220E218E4805F034F84023E8
:10312000002202218B4805F0BDF840230322002134
:10313000884805F0DEF84FF400520E21824805F071
:1031400022F84FF40053002202217F4805F0AAF82C
:103150004FF40053032200217B4805F0CAF84FF4D6
:10316000806209217A4805F00EF84FF4806300224E
:103170000221774805F096F84FF48063032200217E
:10318000734805F0B6F84FF400420E216E4804F083
:10319000FAFF4FF40043002202216B4805F082F849
:1031A0004FF4004303220021674805F0A2F80122F2
:1031B0000E21694804F0E7FF01230022022166483E
:1031C00005F070F8012303220021634805F091F80F
:1031D00002220E21604804F0D6FF02230022194685
:1031E0005D4805F05FF80223032200215A4805F0EC
:1031F00080F804220E21584804F0C5FF0423002261
:103200000221554805F04EF80423032200215248BC
:1032100005F06FF810220E214E4804F0B4FF102381
:10322000002202214B4805F03DF810230322002123
:10323000484805F05EF84FF480520E21444804F0EF
:10324000A2FF4FF4805300220221414805F02AF8E2
:103250004FF48053032200213D4805F04AF84022F4
:103260000E213E4804F08FFF4023002202213B48FC
:1032700005F018F8402303220021384805F039F8FA
:103280004FF400620E21324804F07DFF4FF40063DA
:10329000002202212E4805F005F84FF400630322B6
:1032A00000212B4805F025F810220E212A4804F0B1
:1032B0006AFF102300220221274804F0F3FF1023A5
:1032C00003220021244805F014F808220E21244886
:1032D00004F059FF082300220221214804F0E2FFF4
:1032E0000823032200211E4805F003F84FF48072E2
:1032F0000E21164804F047FF4FF48073002202218C
:10330000124804F0CFFF4FF48073032200210F48CE
:1033100004F0EFFF4FF400720E210C4804F033FF6D
:103320004FF4007300220221084804F0BBFF4FF461
:10333000007303220021054814E0000094010020DE
:10334000000000D0C0BB0BD0001C024000040240B3
:10335000001802400010024000200240000C024011
:103360000000024004F0C5FF4FF480620E21674860
:1033700004F009FF4FF4806300220221634804F047
:1033800091FF4FF4806303220021604804F0B1FFF5
:103390004FF400720E215E4804F0F5FE4FF4007306
:1033A000002202215A4804F07DFF4FF400730322EB
:1033B0000021574804F09DFF4FF480620E215448CD
:1033C00004F0E1FE4FF4806300220221504804F033
:1033D00069FF4FF48063032200214D4804F089FF08
:1033E00080220E214B4804F0CEFE802300220221D1
:1033F000484804F057FF802303220021454804F089
:1034000078FF4FF4005301221146434804F04AFF6D
:103410004FF40053022200213F4804F06AFF4FF4AA
:1034200000513D4804F0E0FE08F0BFFA01A808F0A2
:10343000CDFB04221146F02006F09EFA08B900BF29
:10344000FEE7002006F0CEFA1C2006F089F91C20C9
:1034500006F098F908B900BFFEE700200A900B902B
:103460000C900D902F20ADF806000220ADF804005E
:103470008720ADF80A002220ADF8080040F2A730FE
:10348000049040F20220039040F2CF30069040F2C8
:103490000F200590002007900890099001A808F0DF
:1034A000ABFA4FF4F0704FF44873002211460090CD
:1034B000104600F0AFFC4FF4F0704FF44873002258
:1034C00011460090012000F0A5FC002000F07AFCDD
:1034D000012000F063FCFF21002000F03FFEFF21EF
:1034E000012000F03BFE012008F06AFA012008F0FC
:1034F0005BFB08F077FA002000F078FC002000F079
:10350000E9FA002000F056FA0EB010BD0014024097
:1035100000200240001802400008024010B5FDF7EC
:1035200063FB10BD10B504461CB940F6144006F00C
:10353000D7F9074951F824108A00064951F82400A8
:10354000002101F01FFB012102480C30015510BD84
:10355000EC8602083801002010B5FDF777FB10BD9E
:10356000704730B50B460024048044808280C480BC
:103570008360002104E0002485686C544C1C21B257
:103580009142F8DB30BD10B5FDF766FB10BD0000C1
:1035900000200149087070474000002010B5052048
:1035A000FDF7A0FB10BD000000B587B040F6054058
:1035B00006F096F941F2141006F092F91A4807F055
:1035C00043FF4FF460720521184804F0DCFD4FF40E
:1035D000607301220221154804F064FE4FF4607309
:1035E00003220021114804F084FE684607F0B3FF6F
:1035F0004FF4827000900020019002904FF4007010
:10360000039000200490032005900820069069464E
:10361000054807F087FF0721034807F013FF02481A
:1036200007F017FF07B000BD005001400014024032
:1036300010B50020FFF776FF0120FFF773FF02208F
:10364000FFF770FFFFF7E8FAFFF714FBFFF766FFDD
:10365000FFF772FCFFF762FCFFF7B0FA00F03CF8EE
:10366000FFF75EFCFFF77CFFFFF786FA10BD000056
:1036700010B5124800684FF47A71B0FBF1F4601E87
:10368000B0F1807F01D301200FE0601E4FF0E021F8
:1036900048610F214FF0FF3002F030FA00204FF068
:1036A000E021886107200861002008B100BFFEE723
:1036B0000021481E02F022FA10BD00008C010020FB
:1036C00010B5EF2140F2E730FDF7B4FEEF2140F2F4
:1036D000E730FDF7D9FE10BD10B5FFF715FB002050
:1036E00010490870002419E000210E48401C0155C3
:1036F0004FF6FF7104EB4402401D20F8121004EB5A
:10370000440200EB42004180002104EB44020548E2
:10371000801D00EB42008180601CC4B2052CE3DBFD
:1037200010BD00001412002010B5044600F004F88B
:103730002046FDF7D1FE10BD10B5002406E00020A4
:103740000A4908550A490855601C04B2B4F5007FBF
:10375000F5DB4FF4007205490648FFF702FF4FF40E
:10376000007203490448FFF7FCFE10BD00BC0320B3
:1037700000BE0320E8BB0320F4BB032010B5FDF717
:10378000E5F93420234908702348486023488860BD
:103790002348C8602348086123484861002108463F
:1037A00001F052FE044624B120A002F083F901206A
:1037B00010BD1B21012001F047FE4FF4D8710220FB
:1037C00001F042FE6C21032001F03EFE00210620A4
:1037D00001F03AFE10212B2001F036FE4FF48071EB
:1037E0002F2001F031FE4FF48071302001F02CFECB
:1037F0000221312001F028FE0421312001F024FEB5
:1038000008210A2001F020FE08210E2001F01CFEF4
:103810000020CDE724220020B94B0008F94B000816
:10382000B5220008A50C000819160008496E697435
:10383000574D383937383A204661696C20746F200B
:10384000726573657420574D38393738210D0A0079
:1038500000200149087070476C0000201049016089
:10386000002141600F4981600F49C160102202614F
:10387000012200F10C0182820222C2824FF4FA522C
:10388000826181694A00C261022200F10C01028456
:103890001022428405494162002282627047000082
:1038A0005249464657415645666D742064617461BD
:1038B0002DE9FC47044626686768A168206800EB8C
:1038C0000108E168606800EB0109002518E02A465C
:1038D000694601A8FEF7ECFA01280FD10198B04221
:1038E0000BD30198404508D80098B84205D30098FA
:1038F000484502D80120BDE8FC8700E000BF6D1CF0
:10390000052DE4D30020F6E70348007808B901202C
:1039100070470020FCE7000040000020F0B505469D
:103920000C46A96FA4B1002000230EE0D1E9016785
:10393000BE4208D2D1E90067F65DE6544E68761CB7
:103940004E60401C00E002E05B1C9342EED30AE0B4
:103950004E6816448F68BE4204D24E6816444E60CC
:10396000104600E00020F0BD2DE9FC5F07460E4642
:103970001446BD6F2088A98908441FFA80F9A088E1
:10398000298A08441FFA80FA6088A98908441FFA26
:1039900080FBE088298A084480B20190B046CDF8C7
:1039A00000805A4651464846019B00F069F80020C5
:1039B000BDE8FC9F10B58CB00446A0B26B4601AACE
:1039C00002A900F045FD40F6174005F089FF04F01C
:1039D0007FFD4FF4403004F043FE03A804F020FEC6
:1039E000022006901348006A039000200490FF20F4
:1039F00005909DF8080007909DF8040008909DF838
:103A0000000009904FF448700A904FF4F0700B904A
:103A100003A804F067FD04F031FE00BF022004F0AB
:103A200013FE0028FAD0022004F006FE04F050FD38
:103A30000CB010BD940100202DE9F04F05460C4656
:103A400016461F46DDF824B0A846A1464FF0000AEE
:103A50004C460FE0454608E03BF81A202146284630
:103A600000F0BEF80AF1010A6D1C08EB0600A8423E
:103A7000F2D8641C09EB0700A042EBD8BDE8F08F38
:103A80002DE9F04F04460D4616461F46B44202D9B2
:103A9000A24634465646BD4202D9AA463D4657463E
:103AA0004FF0000BA84610E0A1460AE0099830F854
:103AB0001B204146484600F093F80BF1010B09F139
:103AC0000109B145F2D908F10108B845ECD9BDE8C2
:103AD000F08F0000084A127A82420BD0064A107218
:103AE000D1685269044BDA601A46516111699369D1
:103AF0001361916170470000940100202DE9F04F9F
:103B000086B004460D4617469846A7EB040BA8EB73
:103B100005000590BBF1000F01DACBF1000B059811
:103B2000002802DA0598404205904FEA4B000490C5
:103B30000598400003900598834527DBBC4206D9D1
:103B400000943C46009F00954546DDF80080A8455E
:103B500002D90120019002E04FF0FF300190A14610
:103B6000AA46CBF100060EE0514648460F9A00F0F7
:103B700037F809F1010903980644002E03DB049885
:103B8000361A01988244B945EED926E0454506D952
:103B900000943C46009F00954546DDF80080A74212
:103BA00002D90120029002E04FF0FF300290A146BE
:103BB000AA46059846420EE0514648460F9A00F044
:103BC0000FF80AF1010A04980644002E03DB03985B
:103BD000361A02988144C245EED906B0BDE8F08F8E
:103BE000F0B5114D2E7F0C3555F826400C3D2E7F3B
:103BF000143555F82630A04201D2994200D3F0BDC9
:103C0000094D2D7A35B9084E366A04FB010726F8AE
:103C1000172007E05D1E6D1A03FB0055024F3F6A37
:103C200027F8152000BFEAE7940100202DE9FF4F97
:103C300095B0834614461E465748007A68B95648E0
:103C4000017F0C3050F821800C38017F143050F87F
:103C500021000A905D46169F1CE04F48007A01281B
:103C600018D14D48017F0C3050F821800C38017F6D
:103C7000143050F821000A90CDF82080DDF828801B
:103C800008980A9008943446089E1698A8EB0000FD
:103C9000051B5F462819B0F5487F01D9C5F5487462
:103CA000B819B0F5F07F01D9C7F5F0763A48007A37
:103CB00040B9A94609F10100049007EB060ACDF8C6
:103CC0000CA00EE03448007A01280AD10BEB06095B
:103CD000CDF8109016982044A0F1010AAAF1010035
:103CE00003905146484600F07DF90290DDE903104B
:103CF00000F078F901902848006A2749C96A08FB52
:103D0000075201FB02000B90A8EB040009902299D6
:103D100088B205AB06AA07A900F09AFB40F6174047
:103D200005F0DEFD04F0D4FB4FF4403004F098FCC5
:103D30000CA804F075FC02200F900B980C900998C9
:103D40000D90FF200E909DF81C0010909DF818001B
:103D500011909DF814001290139414960CA804F07E
:103D6000C1FB04F08BFC00BF022004F06DFC0028B6
:103D7000FAD0022004F060FC04F0AAFB5146484649
:103D8000029AFFF72DFF019ADDE90310FFF728FFE4
:103D900019B0BDE8F08F00009401002010B5044672
:103DA0001CB9074807F086FE05E0012C03D1044842
:103DB000803007F07FFE012007F0F6FE10BD000006
:103DC0000068014010B504461CB9074807F079FEA9
:103DD00005E0012C03D10448803007F072FE012079
:103DE00007F0E2FE10BD00000068014028B9064956
:103DF000064A11620021117704E00549034A116265
:103E00000121117770470000000000D094010020CC
:103E1000C0BB0BD02DE9F04F8BB080460E46174645
:103E20001C46149D01A807F09FFE6A48007A0128ED
:103E300016D1B2467819A0F1010B5646374640F22A
:103E40001F30A0EB0B06B6F5487F02D30BB0BDE8E0
:103E5000F08FB7F5F07F00D3F8E7A1462C464D462A
:103E60003019B0F5487F01D9C6F548747819B0F516
:103E7000F07F01D9C7F5F075B8F1000F4FD106F109
:103E8000880080B2ADF806003019873080B2ADF8F6
:103E9000040007F1230080B2ADF80A00781922303F
:103EA00080B2ADF8080002200390FF208DF81000CA
:103EB0008DF814008DF813008DF812008DF81100A4
:103EC0004FF4C060069007200790434808900320F5
:103ED00000EB440080B2ADF826004FF6FF7000EA18
:103EE0004400ADF82400A8B2ADF8280001A93B4871
:103EF00007F0EEFD394807F051FD384807F04CFE59
:103F00003448007A18B93348C46045615DE03148EF
:103F1000007A012859D12F48C560446155E0B8F1B5
:103F2000010F52D106F1880080B2ADF806003019B9
:103F3000873080B2ADF8040007F1230080B2ADF8FD
:103F40000A007819223080B2ADF8080002200390F0
:103F5000FF208DF810008DF814008DF813008DF8F7
:103F6000120000208DF811004FF4C0600690072069
:103F700007901B480890032000EB440080B2ADF886
:103F800026004FF6FF7000EA4400ADF82400A8B206
:103F9000ADF8280001A91148803007F099FD0F48BD
:103FA000803007F0FBFC0D48803007F0F5FD094834
:103FB000007A18B907480461856106E00548007A6F
:103FC000012802D1034805618461012007F0ECFD5E
:103FD00000BF3BE794010020000000D000680140D2
:103FE000C0BB0BD030B502461148057F0C3050F8ED
:103FF00025400C38057F143050F82530A24201D2FC
:10400000994201D3002030BD0948007A30B90848F0
:10401000006A04FB012530F81500F4E7581E401A29
:1040200003FB0200024D2D6A35F81000EBE700009B
:10403000940100202DE9FF4F84B082460C461546BE
:10404000DDF84CB025B1012D04D0022D06D103E0DE
:104050000C2706E0102704E0182702E008B0BDE8AE
:10406000F08F00BF25B1012D05D0022D09D105E04B
:104070004FF00C0806E04FF0100803E04FF0240862
:1040800000E0EBE700BF25B1012D0AD0022D16D1CB
:104090000DE0ABF1200000EB40002C4901EB800962
:1040A0000EE0ABF120002A4901EB001908E0ABF16A
:1040B000200000EBC000274901EB800900E0CDE7BC
:1040C00000BFCDF80090019400263BE00098805D91
:1040D00003900020029030E0039800F0800028B1A7
:1040E00021465046119AFFF77BFD06E0079820B95C
:1040F00021465046129AFFF773FD03984006000EC2
:104100000390641C1448017F143050F82100A04231
:1041100000D8A3E70198201AB8420BD3019C0AF1FA
:10412000010A0D48017F0C3050F82100504500D89D
:1041300094E705E00298401C029002980828CBD32F
:1041400000BF761C4645C1D300BF87E7FCBE000810
:1041500070C3000860C900089401002070B50546CE
:104160000C4645B90B48006820F0FF00094908607B
:104170000846046009E007488030006820F0FF002E
:1041800004498031086008460460012007F00CFDF6
:1041900070BD00009868014010B5044613480068DF
:1041A000401C1249086008460068A0421DD3002048
:1041B00008600F48006860B901200D49086020219F
:1041C0000C4804F011F84FF480710B4804F00AF821
:1041D0000BE00020064908602021064804F002F8A0
:1041E0004FF48071044803F0FFFF10BD040000206D
:1041F0000800002000040240002002402DE9F047A2
:1042000004460F460025A9462348005D20B92248F0
:1042100020380168204688471FB94FF0FF30BDE8BD
:10422000F0871E4850F82400B7FBF0F61B4850F802
:104230002400B7FBF0F100FB117000B1761C1848A8
:1042400050F82400451E22E013480C3850F8240092
:1042500050F8250010B909F1010901E04FF00009FB
:10426000B14513D14FF0000809E00B480C3850F865
:10427000240005EB080140F8216008F10108B04571
:10428000F3D3064850F824006843C8E76D1E002D9C
:10429000DADA4FF0FF30C2E744010020F886020866
:1042A000EC86020800BFFEE710B50146002300229D
:1042B00007E00B4850F8210050F8220000B15B1CC9
:1042C000521C084850F821009042F2D84FF47A70FE
:1042D0005843044C54F82140B0FBF4F080B210BDB8
:1042E00038010020EC86020870B505460C4604B97A
:1042F00070BD054850F82500261A31462846FDF7BE
:10430000EFFA00BFF4E700002C01002070B504466E
:104310000E4631462046FFF771FF0546681C08B976
:10432000002070BD024850F824002844F9E700003E
:104330002C0100207047000010B5074800780228C3
:1043400002D100F015F805E003480078012801D1FA
:1043500000F004F810BD00003A0000200348007887
:10436000022802D103200149087070474000002054
:1043700003480078032802D10420014908707047DF
:104380006C0000207047000010B50B48007818B191
:1043900009480078012808D1FFF7B6FA28B100F0E3
:1043A000D3FC02200449087005E003480078022885
:1043B00001D100F0C9FC10BD3A00002010B5FDF796
:1043C000F7FD08B1FCF790FA10BD000010B5FDF73D
:1043D000F5FD78B108480078401C07490870084688
:1043E0000078142804DB00F0BFFA002002490870AE
:1043F000FCF780FA10BD00000000002010B5FDF7AA
:10440000E3FD48B1FA20FFF7C7FE044A0449002043
:1044100000F04CFAFCF774FA10BD000025440008C7
:104420004144000810B505480078C0F13E0003493A
:1044300008700846007800F0F5FF10BD220100204A
:1044400070470146C88808B9012070470020FCE782
:1044500010B500F47844E40A0C7000F4FC646409BC
:10446000147000F01F041C7010BD000070B50446ED
:104470000025012221460348FDF7A4F8C5B22846CD
:1044800070BD0000E8BB032010B50B48007818B1E0
:1044900009480078022808D1FFF736FA28B100F061
:1044A00035FC01200449087005E003480078012824
:1044B00001D100F02BFC10BD3A00002038B54C486B
:1044C000007818B14A480078032800D138BD484820
:1044D0000078012828D147A001F0ECFAFCF7D8F9C0
:1044E0004B48FDF799FE4A4800F096FB0A224849DE
:1044F000484803F013F9464947A001F0DBFA0020D1
:104500004F490860FCF7DCF94E48FFF7A7F9FDF7C3
:1045100097F9FEF751F94C490860022034490870B8
:1045200000214A4A1160516031480078022824D1A4
:10453000FEF742F944490968884211D0FEF73CF978
:10454000414908606B464FF4806208460168314873
:1045500003F0F9FA3A48006800F5806038490860CD
:10456000374800684FF4FA41B0FBF1F00021374AB8
:1045700003C23648006800F061FB1D48007804283B
:1045800033D12F4800684FF4FA41B0FBF1F000211D
:104590002E4A03C22D48006800F050FB2CA001F009
:1045A00089FA274800682430264948602448016871
:1045B000244881620021174802F021FF6B462C221B
:1045C0002049144803F0BFFA044614B127A001F0B3
:1045D00071FA104802F0ECFEFDF77CF90020044966
:1045E00008700B4929A001F065FA00BF6EE70000D2
:1045F000400000205265636F72646572506F6C6C8E
:10460000A3BABFAACABCC2BCD2F40D0A0000000003
:10461000A81A0020FC1D00205265636F7264657249
:10462000506F6C6CA3BAB3C9B9A6B4B4BDA8C2BC70
:10463000D2F4CEC4BCFEA3BA25730D0A000000005C
:1046400068000020D01D00206400002048000020E9
:104650005265636F72646572506F6C6CA3BACDEA79
:10466000B3C9C2BCD2F40D0A000000005265636FEA
:1046700072646572506F6C6CA3BAD0B4C8EBCEC4D0
:10468000BCFECDB7CAA7B0DC0D0A00005265636F4F
:1046900072646572506F6C6CA3BAB3C9B9A6B1A34A
:1046A000B4E6C2BCD2F4CEC4BCFEA3BA25730D0AD4
:1046B0000000000010B506F06DF810BD10B50446FE
:1046C00000BF02210A4806F025FF0028F9D0214644
:1046D000074806F0C7FE00BF0121054806F01AFF93
:1046E0000028F9D0024806F0B9FEC0B210BD0000A3
:1046F00000500140704770B5044600252046FFF782
:10470000D7F8012807D194F8240060B9012084F873
:104710002400012507E094F82400012803D100209B
:1047200084F82400012594F8250028B9012D0AD128
:104730002046FBF77FFF06E094F82500012802D110
:104740002046FBF777FF012D05D12046FCF7D2FF6D
:104750002046FDF733F870BD2DE9FF4105460120E5
:10476000034603AA48F24E1100903E48FEF777F840
:104770009DF80C0000F00F0003909DF80C002870CD
:1047800000200390012303AA48F24E113548FEF79A
:10479000B0F9002461E02978601C81424CDB0120E3
:1047A0000090314830F81410062301AA2D48FEF776
:1047B00056F89DF804009DF8051040EA012104EB2D
:1047C0004402A81D20F812109DF806009DF807105D
:1047D00040EA012104EB4402A81D00EB42004180A5
:1047E0009DF808009DF8091040EA012104EB4402FD
:1047F000A81D00EB420081801C48007A012817D1D7
:1048000004EB4401A81D30F8116004EB440100EBF7
:104810004100478804EB4401A81D20F81170C6F53B
:10482000487081B204EB4402A81D00EB42004180B5
:104830000121681C01550EE00021681C01554FF64E
:10484000FF7104EB4402A81D20F8121004EB44028F
:1048500000EB42004180601CC4B2052C9BDBBDE82C
:10486000FF810000FC110020300000209401002096
:1048700010B5002412E004200A49087004EBC401BA
:10488000094A02EBC100FFF736FF0648007804280A
:1048900002D00448007810BD601CC4B2032CEADBCF
:1048A0000420F8E7180100203C22002070B50446DF
:1048B0000D4616462648005D4006000E2449085560
:1048C00024B1012C0CD0022C1ED113E0012121486F
:1048D00003F0E0FC1E49095D08431D49085514E03A
:1048E00010211D4803F0D6FC1949095D08431849F9
:1048F00008550AE00821194803F0CCFC1449095D69
:1049000008431349085500E000BF00BF1048005D90
:104910001349095D884209D11248005D012805D17B
:1049200006B1B04700200F4908550FE00848005D68
:104930000B49095DC943C9B2884207D10948005DE6
:1049400020B905B1A84701200649085570BD0000EF
:104950001C01002000000240001C02400018024020
:10496000190100201F0100202DE9FC47002404E06C
:1049700000200DF80400601CC4B2052CF8DB7F4851
:10498000FFF7EAFE7D4800787D490870002470E05A
:104990007B48401C005D012869D14FF0000A0025CA
:1049A00058E07648401C405D012851D104EB440199
:1049B0007348801D30F8116004EB440100EB4100A6
:1049C000478805EB45016D48801D30F8118005EBE7
:1049D000450100EB4100B0F8029041463046FBF73C
:1049E0008FFC4B2834DC49463846FBF789FC4B28C2
:1049F0002EDC4FF0010A05EB45016048801D30F8C0
:104A0000111004EB44025E48801D20F8121005EBE3
:104A100045015A48801D00EB4100418804EB4402E7
:104A20005748801D00EB4200418005EB450153488B
:104A3000801D00EB4100818804EB44025048801D3A
:104A400000EB4200818001214D48401C015503E0EC
:104A5000681CC5B2052DA4DB00BFBAF1000F06D15A
:104A600000214748401C015501200DF80400601C3E
:104A7000C4B2052C8CDB00247AE04048401C005D69
:104A8000012873D14FF0000A00252CE03C48401C5F
:104A9000405D012825D104EB44013848801D30F8E1
:104AA000116004EB440100EB4100478805EB450130
:104AB0003348801D30F8118005EB450100EB4100C3
:104AC000B0F8029041463046FBF71AFC4B2808DC50
:104AD00049463846FBF714FC4B2802DC4FF0010A2C
:104AE00003E0681CC5B2052DD0DB00BFBAF1000F92
:104AF0003CD1002537E02248401C405D78BB1DF8C2
:104B0000050060BB04EB44011C48801D30F8111007
:104B100005EB45021A48801D20F8121004EB4401F1
:104B20001648801D00EB4100418805EB4502144802
:104B3000801D00EB4200418004EB44010F48801DC2
:104B400000EB4100818805EB45020D48801D00EB1C
:104B50004200818001210A48401C415505E000E0E7
:104B600004E0681CC5B2052DC5DB00BF601CC4B2E3
:104B7000052C82DB02480078BDE8FC873812002053
:104B80001412002030B5034601E003F8011B141E87
:104B9000A2F10102F9D130BD10B50446012C04D1B7
:104BA0004021044803F020FB03E04021014803F0CA
:104BB00019FB10BD0004024010B50446012C04D1BD
:104BC0004021044803F010FB03E04021014803F0BA
:104BD00009FB10BD0004024010B50446012C04D1AD
:104BE0008021044803F000FB03E08021014803F02A
:104BF000F9FA10BD0004024010B50446012C04D19E
:104C00008021044803F0F0FA03E08021014803F01A
:104C1000E9FA10BD000402400146002003E00A5CEE
:104C2000054B1A54401C0A5C12B1B0F5FF7FF6D94F
:104C30000022014B1A54704724200020F8B5044686
:104C4000FDF744FB224A03C22148D0E90020214954
:104C5000D1E9003CD11A60EB0C004FF4FA73C91A89
:104C600070F1000032D34FF480710220FFF74EFB49
:104C7000194908600846006818B918A000F01AFF22
:104C8000F8BD3C20B4FBF0F100FB1146B4FBF0F49E
:104C9000B4FBF0F100FB1147B4FBF0F425463B46B2
:104CA0002A4616A10C480096006800F013FF0A4837
:104CB000006800F0B7FA084801680220FFF714FB0B
:104CC0000348D0E90010034AC2E9001000BFD7E74B
:104CD00058000020500000206000002053686F77CB
:104CE0005265636F726454696D65A3BAC9EAC7EB14
:104CF000C4DAB4E6CAA7B0DC0D0A0000253032647D
:104D00003A253032643A25303264000010B50D483F
:104D1000007828B901200B490870FFF7CFFB10E09D
:104D200008480078032803D102200649087008E0EB
:104D300004480078022804D1042002490870FFF7D3
:104D4000BDFB10BD4000002010B50848007820B918
:104D500002200649087000F093FB044800780428FC
:104D600002D103200149087010BD00006C00002032
:104D700010B500F0B7F810BD08B52D48006840F434
:104D800070002B4908602B48006840F00100294959
:104D9000086028480830006840F080002549083144
:104DA00008600020009002E00098401C00904CF247
:104DB000503100988842F7D31E480830006840F010
:104DC00090001C49083108600020009002E0009823
:104DD000401C00904CF2503100988842F7D315489F
:104DE0000830006820F003001249083108601148BB
:104DF0000068114908400F4908600846006820F41F
:104E00008020086000200B490831086000BF094875
:104E10000830006800200028F9D108480549091D1C
:104E20000860002003490C31086006F081FC08BDD1
:104E300088ED00E000380240FFFFF6FE103000244D
:104E400010B50121880706F092FD012803D1012148
:104E5000800706F089FD01200C4908700C48008885
:104E6000401C0B49088008460088022804DB00200B
:104E700008800120074908700748D0E900305A1C13
:104E800040F100000449C1E9002010BD700100207C
:104E900080010020710100207801002010B501215F
:104EA0000D4806F064FD012803D101210A4806F0EF
:104EB0005BFD0A480088401C00B20849088008468B
:104EC000B0F90000B0F57A7F04DB002008800120F3
:104ED0000349087010BD0000000C00408201002052
:104EE000720100200448006820B103480068401E99
:104EF00001490860704700008801002008B50020C3
:104F000000902449244806F09AFF60B121492248C4
:104F100006F088FF204806F0DFFEC0B200909DF842
:104F2000000000F0BBFD1D491B4806F088FF01286A
:104F300006D11A49184806F075FF174806F0CCFE4E
:104F40001749154806F07BFF18B31549124806F0BB
:104F500069FF2520002807DB00F01F020121914096
:104F6000104A430942F8231000BF6846FFF77EFA53
:104F70009DF80010084806F0B4FE0B48FFF761FAF0
:104F800038B100200949087040F20731024806F0A4
:104F90002FFF08BD050305000010014000050300B8
:104FA0000703070080E200E0E8BB03208401002043
:104FB000F8B54FF480510120FFF7A8F906461EB955
:104FC00035A000F077FDF8BD01223CA1404802F079
:104FD000A5FB04463CB131460220FFF785F93DA010
:104FE00000F068FDEFE744A000F064FD0027002515
:104FF00043E037488068642148433549C968B0FBBD
:10500000F1F105F10F0081420BD331488068642132
:1050100048432F49C968B0FBF1F529463EA000F08E
:1050200049FD6B464FF480523146294802F074FC2A
:10503000044654B1264802F0BBF931460220FFF77E
:1050400053F93DA000F036FDBDE73A4630460099E1
:10505000FCF7EAFC009807441D4880681C49C968B1
:10506000884203D20098B0F5805F06D03AA000F0E5
:1050700021FD42A000F01EFD00E0BAE700BF144889
:1050800002F096F931460220FFF72EF943A000F016
:1050900011FD00BF97E70000557064617461466FB1
:1050A0006E744C6962A3BAC9EAC7EBB6AFCCACC4A4
:1050B000DAB4E6CAA7B0DC0D0A000000303A2F6669
:1050C0006F6E742F47424B32342E464F4E00000015
:1050D0003C250020557064617461466F6E744C69A4
:1050E00062A3BAB4F2BFAAD7D6BFE2CEC4BCFECA8E
:1050F000A7B0DC0D0A000000557064617461466F52
:105100006E744C6962A3BABFAACABCB8FCD0C2D73D
:10511000D6BFE20D0A000000557064617461466FED
:105120006E744C6962A3BAB8FCD0C2BDF8B6C8A30D
:10513000BA252525640D0A00557064617461466FB7
:105140006E744C6962A3BAB6C1C8A1CAFDBEDDCAFD
:10515000A7B0DC0D0A000000557064617461466FF1
:105160006E744C6962A3BAB8FCD0C2BDF8B6C8A3CD
:10517000BA25253130300D0A0000000055706461F9
:105180007461466F6E744C6962A3BAB8FCD0C2D722
:10519000D6BFE2CDEAB1CF0D0A00000055706461C0
:1051A0007461466F6E744C6962A3BAB8FCD0C2D702
:1051B000D6BFE2B3C9B9A60D0A000000FEB5044689
:1051C0000D46FDF783F8154A03C21448D0E90010D4
:1051D000134B0CCB8A1A60EB0300642300219A1A4C
:1051E00081411AD20D48D0E900100D4AC2E90010E1
:1051F00004EB84008001B0FBF5F000F150060120C3
:105200004FF6CA51052240F28A23CDE900210290CF
:10521000324619465020FCF7DBFCFEBD280000207A
:10522000200000202DE9FF410446002500E06D1C10
:10523000605D28B1605D0D2802D0605D0A28F6D15E
:10524000144800690C21B0FBF1F605EB450087001E
:1052500010480069C01B4FEA50080F48006850B161
:105260000D48006800900B48182340F25D21026948
:105270000020FCF75FFC0120002100910223224660
:10528000CDE90206019140F25D214046FCF7D2FDD6
:10529000BDE8FF81940100201400002000BFFEE75C
:1052A00070B505460E46032000F0B4F8044615B16B
:1052B00044F0030401E024F003042146032000F03D
:1052C000C3F8022000F0A6F8044616B144F0030427
:1052D00001E024F003042146022000F0B5F870BD7F
:1052E00070B5044604F007042F2000F093F805463B
:1052F00025F0070545EA04012F2000F0A5F830202D
:1053000000F088F8054625F0070545EA040130203D
:1053100000F09AF870BD70B504460D4604F0030421
:1053200005F00305E00040EA4511042000F08CF888
:1053300070BD2DE9F04105460E461746022000F0EB
:1053400069F8044615B144F00C0401E024F00C04A3
:105350002146022000F078F82C2000F05BF804468B
:1053600015B144F0330401E024F0330421462C202D
:1053700000F06AF81EB1052000F00EF802E00020EF
:1053800000F00AF81FB10720FFF7AAFF02E0002093
:10539000FFF7A6FFBDE8F08170B5044604F00704EE
:1053A0002F2000F037F8054625F0700545EA041176
:1053B0002F2000F049F8302000F02CF8054625F0A9
:1053C000700545EA0411302000F03EF870BD10B5BC
:1053D000044604F03F0421462D2000F035F844F443
:1053E00080712E2000F030F810BD70B506460D46D5
:1053F00000240EB144F001041DB144F0020444F055
:1054000014042146322000F01FF82146332000F01A
:105410001BF870BD0146024830F8110070470000CB
:10542000A400002010B5044604F03F040CB944F079
:1054300040042146362000F007F844F480713720FC
:1054400000F002F810BD0000F8B505460C46C4F3A4
:10545000002040EA4500C6B2E0B2009001236A464F
:1054600031460548FDF70DFB08B10120F8BD0348A2
:1054700020F815400020F9E724220020A400002095
:105480002DE9F047F948007818B1F8480078042869
:1054900009D1F748006820B1FDF778F90020F449F8
:1054A0000860BDE8F087F1480078012815D1F1487F
:1054B000006801F07DFFEF4801680120FEF714FF4E
:1054C000ED4801680120FEF70FFFEC48016801205C
:1054D000FEF70AFF0220E5490870E4480078022838
:1054E0007ED1E7A000F0E6FAED48007818B9002078
:1054F000DE490870D5E74FF40A710120FEF706FF78
:10550000DC4908604FF420510120FEF7FFFEDA4924
:1055100008604FF420510120FEF7F8FED7490860DB
:10552000D448006828B1D448006810B10846006823
:10553000A8B9DCA000F0BEFACE4801680120FEF751
:10554000D3FECD4801680120FEF7CEFECB480168AE
:105550000120FEF7C9FE0020C4490870A1E701221E
:10556000CF49C448006802F0D9F88046B8F1000F6E
:1055700015D0D4A000F09EFABE4801680120FEF7C5
:10558000B3FEBD4801680120FEF7AEFEBB480168CE
:105590000120FEF7A9FE0020B449087081E7C04948
:1055A000D1A000F087FAD94B4FF42052B2480168DD
:1055B000B048006802F0B0F9AF48006800F10C0490
:1055C0002069D34908606089D2490860E068D249FF
:1055D0000860E08AD1490860CE480068022800E0EF
:1055E0009FE006D0CEA000F065FA05209F49087024
:1055F00057E7A0480068C0682169B0FBF1F0D549C1
:1056000008600020D4490860A548FFF70BFEFAF7B0
:10561000A1FFBF4800684FF47A71B0FBF1F9CD48A3
:1056200049460268CDA000F045FABB4800684FF437
:105630007A71B0FBF1F9B9480368B6484946026887
:10564000D34800F037FA00210120FFF729FE00229D
:1056500011461046FFF76DFE00210120FFF7C5FE41
:10566000AE480068102804D018280DD020281DD17D
:1056700011E000210220FFF74EFE10221146A6483D
:105680000068FCF72FFE18E0C2A000F013FA052016
:105690007649087005E703210220FFF73CFE20222F
:1056A00011469D480068FCF71DFE06E0C5A000F00D
:1056B00001FA05206D490870F3E600BFCCA000F0A8
:1056C000F9F9002600E0361D6B4800688059D24980
:1056D0008842F8D106F10800D049086007E0CF48B9
:1056E00000688E490968A0EBD100CC490860CB481E
:1056F000007800F003000028F1D1C8480168C8A074
:1057000000F0D8F9002081490860C4480168594870
:10571000006801F074FE00205549086003205349D9
:10572000087052480078032879D15148006828B998
:1057300051480068C849086001270CE0FDF74AF8A5
:10574000C5490968884205D0FDF744F8C249086098
:10575000012700E00027012F2DD16C4B4FF4205280
:10576000BD4801684348006802F0D6F8AB480068BD
:10577000664909680844A949086008460068644900
:105780000968B0FBF1F0744908607248016872481A
:105790000068FFF713FD5D480068B0F5205F0AD090
:1057A0005A48056804E00020AB49096848556D1C5B
:1057B000B5F5205FF7D32E480068E8B901202C49E1
:1057C000086056480068102809D15048006842080F
:1057D0002A48016828480068FCF726FF0CE04F487B
:1057E0000068202808D149480068820823480168D9
:1057F00021480068FCF766FF1E48006880681D4964
:105800000968C96888420AD3FCF7C0FF002018491C
:10581000086005201549087090A000F04BF9134866
:105820000078052820D11248006820B1FCF7AEFFAF
:1058300000200F49086091A000F03CF90D48006875
:1058400001F0B6FD0B4801680120FEF74DFD0A4846
:1058500001680120FEF748FD084801680120FEF7B5
:1058600043FD00200149087000BF1AE66C000020CB
:105870009C000020780000207C0000208000002098
:10588000576176506C61796572506F6C6CA3BABFCA
:10589000AACABCB2A5B7C5C2BCD2F40D0A000000AA
:1058A00024200020576176506C61796572506F6CCE
:1058B0006CA3BAC9EAC7EBC4DAB4E6CAA7B0DC0D78
:1058C0000A000000576176506C61796572506F6C08
:1058D0006CA3BAB4F2BFAA576176CEC4BCFECAA705
:1058E000B0DC0D0A00000000576176506C617965EC
:1058F00072506F6C6CA3BAB2A5B7C5576176CEC4AF
:10590000BCFEA3BA25730D0A00000000840000202D
:10591000880000208C0000209000002094000020CF
:10592000576176506C61796572506F6C6CA3BACD1B
:10593000A8B5C0CAFDC1BFB4EDCEF3A3ACD6BBD6EB
:10594000A7B3D6CBABCDA8B5C0576176CEC4BCFE4D
:105950000D0A00007000002074000020576176508E
:105960006C61796572506F6C6CA3BA626974207255
:105970006174653A2025646B422F732C20736F6E1F
:10598000672074696D653A202564730D0A00000074
:1059900054870208576176506C61796572506F6C5C
:1059A0006CA3BAB8F1CABDB4EDCEF3A3ACB2BBD60A
:1059B000A7B3D63234CEBBB5C4CDA8B5C0B3A4B658
:1059C000C80D0A00576176506C61796572506F6C32
:1059D0006CA3BAB8F1CABDB4EDCEF3A3ACCEB4D6C5
:1059E000AAB5C4CDA8B5C0B3A4B6C80D0A000000BE
:1059F000576176506C61796572506F6C6CA3BAC553
:105A0000E4D6C3574D38393738BACD493253B3C9C4
:105A1000B9A60D0A000000006461746198000020BE
:105A2000576176506C61796572506F6C6CA3BAB235
:105A3000E9D5D244617461204368756E6BB3C9B90E
:105A4000A6A3ACCAFDBEDDC6F0CABCCEBBD6C3A3FE
:105A5000BA25640D0A000000A000002057617650AE
:105A60006C61796572506F6C6CA3BACEC4BCFEB722
:105A7000A2CBCDCDEAB1CF0D0A0000005761765020
:105A80006C61796572506F6C6CA3BAB2A5B7C557DB
:105A90006176BDE1CAF80D0A0000000031B50024AE
:105AA000012269460248FBF7A6FEC4B2204638BD73
:105AB000F4BB03200FB4054B10B503A9044A0298A8
:105AC00000F040F810BC5DF814FB00003D800008B9
:105AD000900100200FB4084B10B504A902AA039846
