:020000040800F2
:1000000038080020C101000871070008B505000884
:100010006D07000835020008E50A0008000000002E
:10002000000000000000000000000000910800082F
:10003000E90400080000000081070008C508000866
:10004000DB010008DB010008DB010008DB01000820
:10005000DB010008DB010008DB010008DB01000810
:10006000DB010008DB010008DB010008DB01000800
:10007000DB010008DB010008DB010008DB010008F0
:10008000DB010008DB010008DB010008DB010008E0
:10009000DB010008DB010008DB010008DB010008D0
:1000A000DB010008DB010008DB010008DB010008C0
:1000B00095090008DB010008DB010008DB010008EE
:1000C000DB010008DB010008DB010008DB010008A0
:1000D000DB010008310A0008DB010008DB01000831
:1000E000DB010008DB010008DB010008DB01000880
:1000F000DB010008DB010008DB010008DB01000870
:10010000DB010008DB010008D1090008DB01000861
:10011000DB010008DB010008DB010008DB0100084F
:10012000DB010008DB010008DB010008DB0100083F
:10013000DB010008DB010008DB010008DB0100082F
:10014000DB010008DB010008DB010008DB0100081F
:10015000DB010008DB010008DB010008DB0100080F
:10016000DB010008DB010008DB010008DB010008FF
:10017000DB010008DB010008DB01000800000000D3
:10018000DB010008DB010008DB010008DB010008DF
:10019000DB010008DB010008DB01000800000000B3
:1001A000DB010008DB010008DB010008DFF80CD0F0
:1001B00000F02EF800480047D10F00083808002052
:1001C0000648804706480047FEE7FEE7FEE7FEE7F1
:1001D000FEE7FEE7FEE7FEE7FEE7FEE7CD080008E4
:1001E000AD01000830B50B46014600202022012455
:1001F00009E021FA02F59D4205D303FA02F5491BF5
:1002000004FA02F52844151EA2F10102F1DC30BD0A
:10021000064C074D06E0E06840F0010394E8070053
:1002200098471034AC42F6D3FFF7C4FF1C1C0008FB
:100230003C1C000800BFFEE7002001490870704721
:100240000D00002000200149087070470C000020BC
:1002500010B540F6014001F023F940F6084001F0E6
:100260001FF9202301221146104800F061FE2023CF
:10027000022200210D4800F08AFE20210B4800F0E8
:1002800050FE4FF4807301221146094800F050FEE1
:100290004FF4807302220021054800F078FE4FF4ED
:1002A0008071034800F03BFE10BD000000040240D6
:1002B0000020024010B54FF4A06000F019FF10BDFF
:1002C00038B500F0D5FF102001F02AF8102001F019
:1002D00039F80446012C29D100F0D4FD002000F0AB
:1002E00011FFE00300F026FF4FF4A05000F016FFCE
:1002F000092002234FF4F07219210090580501F0F3
:1003000005F9182001F00CF800BF192000F0F6FFE5
:100310000028FAD0022001F03BF900BF01F044F9B7
:100320000028FBD04FF0807001F046F938BD7FB552
:1003300004460D464FF4805001F0B2F84FF0804073
:1003400001F0CEF9684601F0F2FAADF80050002055
:10035000ADF804000294ADF8060069464FF0804005
:1003600001F086FA0121880701F0CEFA002201216E
:100370001C2000F05BFE4FF0804001F073FA7FBD5F
:100380007FB504460D4641F2030001F089F80F489D
:1003900001F0A6F9684601F0CAFAADF80050002055
:1003A000ADF804000294ADF806006946074801F074
:1003B0005FFA0121054801F0A7FA0022012132204D
:1003C00000F034FE014801F04DFA7FBD000C004002
:1003D00010B504464FF4406001F062F841F2041099
:1003E00001F05EF84FF4007207212B4800F068FD21
:1003F0004FF4007301220221274800F099FD4FF4C9
:10040000007302220021244800F0C1FD4FF48062F5
:100410000721214800F054FD4FF48063002202219F
:100420001D4800F085FD4FF48063022200211A4828
:1004300000F0ADFD194801F003FB2146174801F01B
:1004400081FA0021154801F0D0FB0021134801F08A
:10045000DCFB0021114801F0B8FB04210F4801F03A
:10046000BCFB08210D4801F0C8FB40F205310B48E8
:1004700001F075FB40F20531084801F070FB0748B8
:1004800001F04CFB00221146252000F0CFFD00209A
:100490000349087010BD0000000002400010014038
:1004A0001200002030B50346002016E0B3F90050DA
:1004B0009C68645D0C541C88641C24B21C80B3F9D5
:1004C0000040B3F90450AC4201DB00241C80441C02
:1004D00020B2DC88641E24B2DC80B3F90640002C14
:1004E00001DD9042E2DB30BD7047000070B504468C
:1004F0000D46164633462A46214602A000F000FB70
:1005000070BD00004E6F7720697320253032643A49
:10051000253032643A253032640A000070B5034653
:10052000002016E00C5CB3F902609D68AC555C8855
:10053000641C24B25C80B3F90240B3F90450AC42AD
:1005400001DB00245C80441C20B2DC88641C24B2E3
:10055000DC80B3F90640B3F90450AC4201DA9042B2
:10056000E0DB70BD01480078704700000D000020FE
:1005700001480078704700000C000020014621B1BE
:10058000012906D002290CD107E0074AB2F9000080
:1005900008E0064AB2F9000004E0054AB2F900009A
:1005A00000E000BF00BF70470200002004000020F0
:1005B0000600002000BFFEE710B500F087F900F04C
:1005C00027F800F00FF84FF4E13000F077F800F072
:1005D00069F800F033F800F001F810BD10B5FFF72E
:1005E00037FE10BD10B5FFF765FE10BD30B50B46E8
:1005F0000024048044808280C4808360002104E061
:10060000002485686C544C1C21B29142F8DB30BD4B
:1006100010B5FFF755FE10BD0020034908800349BF
:100620000880034908807047020000200400002071
:100630000600002010B5FFF7EFFF10BD30B51648DB
:1006400000684FF47A72B0FBF2F1481EB0F1807F7F
:1006500001D301201BE0481E4FF0E02250615017EB
:100660000F22002804DB13071C0E0C4B1C5406E061
:1006700013071D0E0A4B00F00F04241F1D5500BF69
:1006800000204FF0E022906107201061002008B1A7
:1006900000BFFEE730BD00001800002000E400E0CD
:1006A00018ED00E010B5EF2140F2E730FFF73FFE14
:1006B000EF2140F2E730FFF763FE10BD10B50446AE
:1006C00000F004F82046FFF783FE10BD10B50024AB
:1006D00006E000200A4908550A490855601C04B282
:1006E000B4F5007FF5DB4FF4007205490648FFF7CB
:1006F0007DFF4FF4007203490448FFF777FF10BDF8
:100700003800002038020020200000202C000020AB
:1007100070B5044612480088401C114908800846FC
:100720000088A0421BDB0020088020210D4800F03B
:1007300026FCC0F10100C5B22A462021094800F07C
:10074000F2FB4FF48071084800F019FCC0F1010081
:10075000C5B22A464FF48071034800F0E4FB70BD37
:1007600000000020000402400020024000BFFEE71D
:100770007047000001490870704700000800002021
:10078000704770B5FFF7EEFE90B10020FFF7F6FE60
:1007900006460120FFF7F2FE04460220FFF7EEFEB8
:1007A00005462A4621463046FFF7A0FEFFF744FDE6
:1007B00070BD10B5FFF7DCFE30B100F01BF8FA2079
:1007C000FFF7A6FFFFF73EFD10BD0146C88808B938
:1007D000012070470020FCE770B504460025012287
:1007E00021460348FFF75EFEC5B2284670BD0000F3
:1007F000200000202148B0F9000040F2F3118842A7
:1008000034DB1F48007880BB1E48B0F900003B284D
:1008100021DB1D48B0F900003B2812DB1B48B0F972
:100820000000172803DB00201849088005E017485E
:100830000088401C00B21549088000201249088039
:1008400005E011480088401C00B20F4908800020D4
:100850000C49088005E00B480088401C00B209499B
:10086000088000200549088006E0FFE7034800886B
:10087000401C00B201490880704700000A000020B7
:1008800008000020060000200400002002000020D4
:100890007047000020B1012805D0022809D105E0E9
:1008A000054A118006E0054A118003E0044A1180E0
:1008B00000E000BF00BF70470200002004000020DD
:1008C0000600002010B500F0A7F810BD08B52D48AF
:1008D000006840F470002B4908602B48006840F025
:1008E00001002949086028480830006840F080006D
:1008F0002549083108600020009002E00098401C63
:1009000000904CF2503100988842F7D31E480830CE
:10091000006840F090001C490831086000200090F9
:1009200002E00098401C00904CF250310098884240
:10093000F7D315480830006820F003001249083149
:10094000086011480068114908400F4908600846CE
:10095000006820F48020086000200B4908310860FE
:1009600000BF09480830006800200028F9D1084875
:100970000549091D0860002003490C31086000F09A
:10098000ABFE08BD88ED00E000380240FFFFF6FE38
:100990001030002410B50121880700F0BCFF0128A9
:1009A00003D10121800700F0B3FF07480088401CF5
:1009B0000549088008460088022804DB00200880DA
:1009C00001200249087010BD0E0000200C0000201C
:1009D00010B501210D4800F09EFF012803D101212F
:1009E0000A4800F095FF0A480088401C00B20849F8
:1009F00008800846B0F90000B0F57A7F04DB0020DB
:100A0000088001200349087010BD0000000C004060
:100A1000100000200D0000200448006820B10348A9
:100A20000068401E01490860704700001400002063
:100A300008B5002000902449244801F0AAF860B1CC
:100A40002149224801F098F8204800F0EFFFC0B299
:100A500000909DF8000000F047F81D491B4801F088
:100A600098F8012806D11A49184801F085F8174866
:100A700000F0DCFF1749154801F08BF818B3154951
:100A8000124801F079F82520002807DB00F01F024A
:100A900001219140104A430942F8231000BF6846E3
:100AA000FFF79AFE9DF80010084800F0C4FF0B48BD
:100AB000FFF78BFE38B100200949087040F207317A
:100AC000024801F03FF808BD050305000010014091
:100AD000000503000703070080E200E0200000207B
:100AE0001200002000BFFEE731B500240122694654
:100AF0000248FFF713FDC4B2204638BD2C00002089
:100B00000FB4054B10B503A9044A029800F018F879
:100B100010BC5DF814FB00009D0E00081C000020B6
:100B200002E008C8121F08C1002AFAD170477047B6
:100B3000002001E001C1121F002AFBD17047000014
:100B40002DE9FF4F8BB088460546002606E0252894
:100B50000BD0DDE90D1290476D1C761C287800281B
:100B6000F5D10FB03046BDE8F08F0024A146A24673
:100B70000122AE4900E0044315F8013F203B02FA90
:100B800003F00842F7D128782A2810D06FF02F02FE
:100B90002878A0F13001092915D809EB890102EB69
:100BA000410144F0020400EB01096D1CF0E758F824
:100BB000041B5FEA010903D544F40054C9F100099C
:100BC00044F002046D1C28782E2817D115F8010F67
:100BD00044F004042A280ED06FF02F022878A0F1E8
:100BE000300109290AD80AEB8A0102EB410100EB26
:100BF000010A6D1CF2E758F804AB6D1C28786C28CC
:100C00000FD006DC4C2817D068280DD06A2814D1E4
:100C100004E0742810D07A280FD10DE044F40014B9
:100C20000AE044F4801401E044F4401469788142FD
:100C300002D104F580146D1C6D1C2878692865D0DC
:100C400006DC00288DD0632827D0642806D15DE01B
:100C50006E2808D073282AD0752877D0DDE90D12C8
:100C60009047761CE0E0C4F30250022809D0032824
:100C70000DD0D8F8001004280DD00E6008F104083B
:100C8000D2E0D8F80010F217C1E90062F6E7D8F810
:100C900000100E80F2E70E70F0E718F8041B8DF8D4
:100CA000001000208DF80100EB46012003E058F809
:100CB00004BB4FF0FF3061074FF0000701D40AE09A
:100CC0007F1C57450DDA8742FADB1BF80710002915
:100CD000F6D106E07F1C8742FCDB1BF807100029D9
:100CE000F8D1DDE90D23A9EB07008146214600F08C
:100CF000B1F83044C61904E0DDE90D121BF8010B10
:100D000090477F1EF8D22146484688E058F8040BE9
:100D1000C4F302514FF00A0B032900D100B2042999
:100D200000D140B2002802DA40422D2102E0210524
:100D300005D52B218DF82410012104E006E0E10700
:100D400010D02021F6E708AF089113E058F8040B03
:100D5000C4F302514FF00A0B032900D180B20429D9
:100D600000D1C0B20021EEE75946FFF73BFA30311F
:100D700007F8011D0028F7D1ADEB070000F1200BAB
:100D8000600702D524F4803401E04FF0010ADA450F
:100D900002DDAAEB0B0000E00020824600EB0B0115
:100DA00008980144A9EB01000A90E00306D4DDE9AC
:100DB0000D2321460A9800F04DF806444FF0000933
:100DC00008E009A911F80900DDE90D12904709F1C1
:100DD0000109761C08998945F3DBE0030CD5DDE9B0
:100DE0000D2321460A9800F035F8064404E0DDE9B9
:100DF0000D1230209047761CBAF10001AAF1010AC9
:100E0000F5DC05E0DDE90D1217F8010B9047761CC3
:100E1000BBF10001ABF1010BF4DC0A982146DDE9DE
:100E20000D2300F005F806446D1C97E60928010023
:100E30002DE9F041044600251E461746880404D4D7
:100E400005E039462020B0476D1C641EF9D52846C0
:100E5000BDE8F0812DE9F041044600251E4690468C
:100E6000C80301D5302700E02027880404D505E019
:100E700041463846B0476D1C641EF9D52846BDE88A
:100E8000F0810000044A116821F00F0141EA0002DC
:100E9000014B1A6070470000003C024070B50446E8
:100EA0000D4600BF0721054800F03DFE0028F9D09F
:100EB000E1B2024800F0BFFD204670BD00100140C5
:100EC000F0B503461C6A5D6A00200DE001268640ED
:100ED00016403EB187000F26BE40B443860001FA9B
:100EE00006F63443461CB0B20828EFD3082011E0C0
:100EF0000126864016405EB1A0F10806B7000F2615
:100F0000BE40B543A0F10806B60001FA06F6354327
:100F1000461CB0B21028EBD31C625D62F0BD81624A
:100F20007047816170470AB1816100E0816270475A
:100F3000F0B504460D4616462168E268002019E027
:100F4000012787401F409FB14FEA400C032707FA53
:100F50000CF7B943470005FA07F739434FEA400C4D
:100F6000032707FA0CF7BA43470006FA07F73A4394
:100F7000471CB8B21028E3D32160E260F0BD0246FE
:100F80005069084008B1012070470020FCE7F0B527
:100F90000C461546012C03D146681E43466002E00C
:100FA00046689E434660826800210DE001268E401F
:100FB0001E403EB14F000326BE40B2434E0005FA2C
:100FC00006F632434E1CB1B21029EFD38260F0BD59
:100FD000FFF7F2FAFFF72EFB0BA0FFF791FD0020C1
:100FE000FFF7C8FB17210020FFF754FC3B2101202D
:100FF000FFF750FC32210220FFF74CFC03E0FFF723
:10100000D8FBFFF7BEFBFAE7496E6974205379738A
:1010100074656D20686173206265656E2066696E17
:1010200069736865642E0D0A000000002DE9F04127
:1010300003460D46164600240027A0462A480068AD
:1010400000F4E060B0F5E06F03D100BF4FF004089A
:1010500030E02548006800F4E060B0F5C06F03D1CF
:1010600001274FF0030825E01F48006800F4E06006
:10107000B0F5A06F02D10227B8461BE01A480068FD
:1010800000F4E060B0F5806F03D103274FF0010852
:1010900010E01548006800F4E060B0F5407F03D12F
:1010A00004274FF0000805E04FF4A06000F020F89E
:1010B0000227B846C7F1040005FA00F4C8F104019C
:1010C0000F20C8403040044324010848C45403F0B2
:1010D0001F01012088405911890001F1E021C1F868
:1010E0000001BDE8F08100000CED00E000E400E04C
:1010F00002490143024A1160704700000000FA05EE
:101100000CED00E0044A116821F0F00141EA000210
:10111000014B1A607047000008380240044A116809
:1011200021F4E05141EA0002014B1A6070470000CF
:1011300008380240044A116821F4604141EA000283
:10114000014B1A6070470000083802402DE9F04F4B
:101150008CB0064600200A903EA090E8004CC06883
:10116000CDE905BECDF810A007900FF2EC0ADAE940
:10117000000ACDE9020A0FF2E00ADAE9000ACDE935
:10118000000A38480068C0F381000B900B9820B12A
:10119000012804D0022828D103E0334927E033494D
:1011A00025E03048001F006800F03F072D48001F71
:1011B0000068C0F3881C2B48001F0068C0F3014082
:1011C000401C4FEA40092748001F006800F48008CF
:1011D000B8F5800F01D1254B00E0234BB3FBF7F0AE
:1011E00000FB0CF0B0FBF9F101E01F4900BF00BFAC
:1011F0001C480068C0F3031404A8055D21FA05F239
:1012000018480068C0F3822402A8055D22FA05F0A0
:10121000099014480068C0F342341DF8045022FAC3
:1012200005F0089036B1012E06D0022E06D0032E0E
:101230000AD106E00A9108E00A9206E009980A90AD
:1012400003E008980A9000E000BF00BF0A980CB0C5
:10125000BDE8F08F00000000000000000102030460
:1012600006070809083802400024F40040787D0190
:1012700000B51E48006840F001001C4908600020CD
:1012800000F060F819480830006820F003001749A2
:10129000083108601548006815490840134908607E
:1012A0000846006820F48020086010480830006874
:1012B00000F443700D49083108600E48091F0860AA
:1012C0000C4810380949843108600A48091D086033
:1012D000002006490C31086004488C30006806493B
:1012E000084002498C31086000BD0000003802400F
:1012F000FFFFF6EA10300024FFFFFCFE0146074A1C
:1013000002EB9110D0F8000801F01F0301229A406F
:10131000104008B1012070470020FCE70030024077
:10132000074A02EB9011D1F8001800F01F030122C8
:101330009A401143024B03EB9012C2F80018704719
:1013400000300240F0B506460024002700251C2E80
:101350007DD007DCB6B3102E10D0182E67D01A2E11
:1013600076D176E0B6F5E05F19D0B6F5E85F4CD0FF
:10137000A6F5405010380028F2D134E004E01120E6
:10138000FFF7BCFF0546641C1DB94FF6FF70844291
:10139000F5D11120FFF7B2FF00B101277AE005E097
:1013A00041F60140FFF7AAFF0546641C1DB96FF026
:1013B00070408442F4D141F60140FFF79FFF00B135
:1013C000012767E0FFE704E00120FFF797FF0546EC
:1013D000641C15B9B4F5A06FF6D10120FFF78EFF9C
:1013E00000B1012756E005E043F21100FFF786FF48
:1013F0000546641C15B929488442F5D143F2110011
:10140000FFF77CFF00B1012744E005E041F6015001
:10141000FFF774FF0546641C15B920488442F5D1D6
:1014200041F60150FFF76AFF00B1012732E004E006
:101430001920FFF763FF0546641C15B9174884425D
:10144000F6D11920FFF75AFF00B1012722E010E082
:101450001FE004E01B20FFF751FF0546641C15B98F
:101460000E488442F6D11B20FFF748FF00B1012748
:1014700010E004E01D20FFF741FF0546641C15B98C
:1014800006488442F6D11D20FFF738FF00B101273E
:1014900000E000BF00BF3846F0BD0000FFFF0F00B6
:1014A000074A02EB9011D1F8001800F01F03012247
:1014B0009A401143024B03EB9012C2F80018704798
:1014C00000300240074A02EB9011D1F8001800F0FA
:1014D0001F0301229A409143024B03EB9012C2F882
:1014E0000018704700300240074A02EB9011D1F813
:1014F000001800F01F0301229A401143024B03EB36
:101500009012C2F80018704700300240F0B506464D
:10151000059C00251D48076807F00040B0F1004F0A
:1015200007D107F08040B0F1804F01D1ED1D00E000
:101530006D1D022926D33F2924D805F14000904291
:1015400020D8B2F5FA7F1DD8022B05D0042B03D08A
:10155000062B01D0082B15D1022C13D30F2C11D838
:1015600041EA82104FF0010CCCEB530C40EA0C40E6
:10157000304340EA0460DFF814C0ACF17C0CCCF8D6
:10158000000001E00020F0BD0120FCE780380240AF
:10159000044A116821F0030141EA0002014B1A607C
:1015A00070470000083802400248006800F00C0054
:1015B00070470000083802406FF08071884205D102
:1015C000054909680140044A116004E002490968BC
:1015D0000143014A116070478C380240002000210D
:1015E0003A4A126842F48032384B1A6000BF401CFD
:1015F000364A126802F4003119B94FF6FF72904270
:10160000F5D1324A126802F400320AB900BFFEE78F
:101610002E4A4032126842F080522C4B40331A60FE
:101620002B4A126842F44042294B1A60274A08327A
:101630001268264B08331A601A46126842F40042B8
:101640001A601A46126842F4A0521A60214A1B1FFF
:101650001A601A1F126842F080721B1F1A6000BFC6
:101660001A4A126802F00072002AF9D0184A126869
:1016700042F48032164B1A6000BF154A526802F4D9
:101680008032002AF9D0124A126842F40032104B1C
:101690001A6000BF0E4A526802F40032002AF9D0E4
:1016A0000A4A0832126822F00302084B08331A6013
:1016B0001A46126842F002021A6000BF034A08325A
:1016C000126802F00802002AF8D070470038024081
:1016D000007000401978400A10B5FFF77FFF10BD79
:1016E00010B504465C49601A8C426FD019DC5B4926
:1016F000A4EB01008C424ED009DCB4F1804F2ED017
:1017000057482044A0B3B0F5806F72D13AE0B0F5ED
:10171000806F49D0B0F5006F4FD0B0F5406FF4D175
:101720007BE0B0F5923F5BD009DCB0F5806F73D001
:10173000B0F5644F0AD0B0F5684F5AD147E0B0F524
:10174000943F57D0B0F5963F53D15CE04FF4106012
:10175000FFF7CAFE4FF41060FFF7B4FE79E04FF4D4
:101760000060FFF7C1FE4FF40060FFF7ABFE70E0D2
:10177000FFE740F60100FFF7B7FE40F60100FFF774
:10178000A1FE66E040F60200FFF7AEFE40F6020062
:10179000FFF798FE5DE040F60300FFF7A5FE40F678
:1017A0000300FFF78FFE54E040F60400FFF79CFEB5
:1017B00040F60400FFF786FE4BE040F60500FFF719
:1017C00093FE40F60500FFF77DFE42E02EE040F676
:1017D0000110FFF789FE40F60110FFF773FE38E0B5
:1017E0004FF41160FFF780FE4FF41160FFF76AFEBF
:1017F0002FE02DE040F61110FFF776FE40F61110B5
:10180000FFF760FE25E040F61210FFF76DFE40F690
:101810001210FFF757FE1CE011E040F60600FFF73C
:1018200063FE40F60600FFF74DFE12E040F60700AB
:10183000FFF75AFE40F60700FFF744FE09E040F6C6
:101840000800FFF751FE40F60800FFF73BFE00E0FE
:1018500000BF00BF10BD0000001C0040000C004095
:1018600000FCFFBF016841F001010160704700000A
:101870000A8882621D4A90420ED0B0F1804F0BD090
:101880001B4A904208D01B4A904205D01A4A904207
:1018900002D01A4A90420BD1026822F07002026014
:1018A00002684B881A43026002688B881A43026000
:1018B0008A68C262124A90420AD0124A904207D005
:1018C000026822F4407202600268CB881A43026008
:1018D000064A904202D0094A904201D10A7B026333
:1018E000426942F00102426170470000000001407D
:1018F0000004004000080040000C004000040140CB
:101900000010004000140040C2680A43C2607047E3
:10191000CA43026170470246D06800EA01031069B9
:10192000084010B10BB1012070470020FCE70021F6
:101930000180418081804FF6FF7181600021C1806C
:10194000017370472DE9F04704460D460027B8465D
:10195000B94600263349601A8C4235D00CDC324837
:101960002044E8B1B0F5806F1FD0B0F5006F21D0F2
:10197000B0F5406F32D122E0B0F5806F29D0B0F5DC
:10198000184F03D0B0F51C4F28D104E00320FFF717
:10199000DDFB074623E00320FFF7D8FB07461EE0E8
:1019A0000220FFF7D3FB074619E00220FFF7CEFB2A
:1019B000074614E00220FFF7C9FB07460FE00220AC
:1019C000FFF7C4FB07460AE00220FFF7BFFB07460C
:1019D00005E00220FFF7BAFB074600E000BF00BFAA
:1019E000E06800F4004070B1780000EB5500B0FBF7
:1019F000F5F64FF6F07006EA0008C6F3420948EA29
:101A00000900A0600CE007EB5500B0FBF5F64FF6BF
:101A1000F07006EA000806F00F0948EA0900A06025
:101A2000BDE8F0870078004000BCFFBF0146486871
:101A3000C0F308007047C1F308024260704700001D
:101A400010B504463349601A8C424DD00CDC324844
:101A50002044E0B1B0F5806F22D0B0F5006F31D0F6
:101A6000B0F5406F52D136E0B0F5806F45D0B0F59B
:101A7000184F03D0B0F51C4F48D11AE040F60410BF
:101A8000FFF732FD40F60410FFF71CFD3FE040F683
:101A90001100FFF729FD40F61100FFF713FD36E0B6
:101AA00040F61200FFF720FD40F61200FFF70AFD96
:101AB0002DE040F60510FFF717FD40F60510FFF783
:101AC00001FD24E040F61300FFF70EFD40F6130081
:101AD000FFF7F8FC1BE040F61400FFF705FD40F6A9
:101AE0001400FFF7EFFC12E040F61E00FFF7FCFCCD
:101AF00040F61E00FFF7E6FC09E040F61F00FFF786
:101B0000F3FC40F61F00FFF7DDFC00E000BF00BF64
:101B100010BD00000078004000BCFFBFC16841F468
:101B20000051C160704710B5024602EB9110006889
:101B300001F01F040123A340184008B1012010BD8B
:101B40000020FCE710B500EB9112126801F01F04B1
:101B50000123A3409A4300EB91131A6010BD10B506
:101B600000EB9112126801F01F040123A3401A43F5
:101B700000EB91131A6010BD10B500EB9152126882
:101B8000C1F304440123A3409A4300EB91531A602C
:101B900010BD70B5024600230024C1F3891010580F
:101BA00001F01F060125B54000EA050302EB915044
:101BB0000068C1F304460125B54000EA050414B1EC
:101BC0000BB1012070BD0020FCE7C26822F4C062A6
:101BD000C260C2680A43C26070470A460021C168F9
:101BE00021F004011143C1607047026922F44052A0
:101BF000026102690A43026170470A460021C16816
:101C000021F008011143C1607047C26822F480527C
:101C1000C260C2680A43C260704700003C1C0008F2
:101C20000000002020000000200B00085C1C0008C1
:101C30002000002018080000300B00080000000001
:101C40000000000000000000000000000000000094
:0C1C500000000000001C4E0E0000000010
:04000005080001AD41
:00000001FF
