:020000040800F2
:1000000040680420C1010008D157000801340008ED
:1000100015570008610B00089974000800000000E3
:10002000000000000000000000000000AD6A0008B1
:10003000D11F000800000000BB650008C96F000860
:10004000DB010008DB010008DB010008DB01000820
:10005000DB010008DB010008DB010008DB01000810
:10006000DB010008DB010008DB010008DB01000800
:10007000DB010008DB010008DB010008DB010008F0
:10008000DB010008DB010008DB010008DB010008E0
:10009000DB010008DB010008DB010008DB010008D0
:1000A000DB010008DB010008DB010008DB010008C0
:1000B00099700008DB010008DB010008DB01000883
:1000C000DB010008DB010008DB010008DB010008A0
:1000D000DB0100086D710008DB010008DB0100088E
:1000E000DB01000865680008DB010008DB0100088F
:1000F000DB010008DB010008DB010008DB01000870
:10010000DB0100086D6A0008FD700008DB010008D3
:10011000DB010008DB010008DB010008DB0100084F
:10012000DB010008DB010008DB010008DB0100083F
:10013000DB010008DB010008DB010008DB0100082F
:10014000DB010008DB010008DB010008DB0100081F
:10015000DB010008DB010008DB010008DB0100080F
:10016000DB010008DB010008DB010008DB010008FF
:10017000DB010008DB0100085D1F00080000000033
:10018000DB010008DB010008DB010008DB010008DF
:10019000DB010008DB010008DB01000800000000B3
:1001A000DB010008DB010008DB010008DFF80CD0F0
:1001B00000F04AF80048004735AE000840680420C7
:1001C0000648804706480047FEE7FEE7FEE7FEE7F1
:1001D000FEE7FEE7FEE7FEE7FEE7FEE7D16F000879
:1001E000AD0100082DE9F05F0546002092469B46D0
:1001F00088460646814640241BE02846414647463D
:10020000224600F042F853465A46C01A914110D394
:1002100011461846224600F029F82D1A67EB01080E
:100220004F4622460120002100F020F817EB00097C
:100230004E41201EA4F10104DFDC484631462A4627
:100240004346BDE8F09F0000064C074D06E0E0681D
:1002500040F0010394E8070098471034AC42F6D30D
:10026000FFF7A8FF006B0408206B0408202A04DBBA
:10027000203A00FA02F1002070479140C2F12003B9
:1002800020FA03F3194390407047202A04DB203AF8
:1002900021FA02F00021704721FA02F3D040C2F1A6
:1002A0002002914008431946704702468A4202DD07
:1002B000501A80B27047881A80B2FBE72DE9F04FE0
:1002C0008DB006460F469046002001909B4908607D
:1002D00000BF9A48006820B198480168022005F0E4
:1002E0003BFA019890B100200190706800783028A6
:1002F00002D102F007FB09E070680078312802D1D2
:1003000002F0A0FA02E00DB0BDE8F08F01228C48A7
:10031000716809F01BFA0C900C9830B189A07168D3
:1003200007F0C8F801200190D3E78548C168022092
:1003300005F024FA814908600846006818B98DA0C4
:1003400007F0B8F8F0E07E486B46C2687B48016869
:100350007B4809F001FB0C900C9820B97848C068E4
:10036000009988420CD08FA0716807F0A3F89BA079
:1003700007F0A0F8724809F01FF801200190A8E7E3
:1003800002F03AFF9E48008844F64251884203D06A
:100390009CA007F08FF8C7E0A448C08920280BD0A4
:1003A000A248C089182807D0A048C089102803D0C7
:1003B0009FA007F07FF8B7E0BA46C3469B48406865
:1003C000574638440B9099488068D84600EB080996
:1003D000A048017F0C3050F821100B98814205D8BD
:1003E0009C48017F0C3050F821000B909948017F08
:1003F000143050F82100484504D89648017F143045
:1004000050F82190A9F10100049000200590D846F1
:1004100086E0059802F02AFF054600240598401C56
:100420000590574674E08148C089202841D1285D55
:10043000C0100890601C285C80100990A01C285CEB
:10044000C0100A90E01C285C07900A98C102099825
:1004500041EA4010089908430690241D307890B96D
:100460003846049904F06CFF0390069A91B2039AFF
:1004700090B2079A00F08EFB02903846029A0499D7
:1004800004F03AFD43E03078012809D171780798EB
:1004900081423CDC3846069A049904F02DFD36E092
:1004A0003078022833D13846069A049904F024FDA6
:1004B0002DE05E48C089182819D1285DC010089029
:1004C000601C285C80100990A01C285CC0100A9059
:1004D0000A98C102099841EA401008990843069019
:1004E000E41C3846069A049904F006FD0FE04F48D4
:1004F000C08910280BD1295D601C285C41EA0020CE
:100500000690A41C3846069A049904F0F5FC7F1C5A
:100510000B98874287D30498401E049008F1010885
:10052000C845FFF476AF00BF054808F045FF034813
:100530000168022005F010F900BFE4E60C0000207D
:1005400084110020424D50446973706C6179496E8A
:100550004661744673A3BA4661696C3A2046616984
:100560006C20746F206F70656E2066696C65202545
:10057000730D0A00424D50446973706C6179496E85
:100580004661744673A3BA4661696C20746F206D2E
:10059000616C6C6F6320666F7220696D6167650DB9
:1005A0000A000000424D50446973706C6179496ED5
:1005B0004661744673A3BA4661696C3A2066616904
:1005C0006C20746F207265616420646174612066C0
:1005D000726F6D2025730D0A00000000424D5044DB
:1005E0006973706C6179496E4661744673A3BA464B
:1005F00061696C3A2072657472792E2E2E0D0A0094
:10060000AC190020424D50446973706C61793A20F6
:1006100074686973206973206E6F74206120424D85
:10062000502066696C650D0A00000000BA190020B0
:10063000424D50446973706C61793A20756E7375E0
:1006400070706F7274656420666F726D61742121C1
:10065000210D0A000C0100202DE9F04F8BB0064659
:100660000F469046706802F0E5FD6B48008844F63E
:100670004251884205D069A006F01CFF0BB0BDE8CE
:10068000F08F7048C08920280BD06E48C089182888
:1006900007D06C48C089102803D06BA006F00AFF71
:1006A000ECE7BA46C34667484068574638440A9064
:1006B00064488068D84600EB08096C48017F0C301C
:1006C00050F821100A98814205D86848017F0C3003
:1006D00050F821000A906548017F143050F821003D
:1006E000484504D86148017F143050F82190A9F1A1
:1006F0000100039000200490D84687E070680499B8
:1007000002F0EAFD054600240498401C0490574678
:1007100074E04C48C089202841D1285DC010079062
:10072000601C285C80100890A01C285CC0100990F8
:10073000E01C285C06900998C102089841EA401024
:10074000079908430590241D307890B938460399DD
:1007500004F0F6FD0290059A91B2029A90B2069AC0
:1007600000F018FA01903846019A039904F0C4FB8E
:1007700043E03078012809D17178069881423CDC49
:100780003846059A039904F0B7FB36E03078022822
:1007900033D13846059A039904F0AEFB2DE0294881
:1007A000C089182819D1285DC0100790601C285CEA
:1007B00080100890A01C285CC01009900998C10204
:1007C000089841EA4010079908430590E41C384610
:1007D000059A039904F090FB0FE01A48C08910288D
:1007E0000BD1295D601C285C41EA00200590A41C07
:1007F0003846059A039904F07FFB7F1C0A988742CC
:1008000087D30398401E039008F10108C845FFF400
:1008100075AF00BF32E70000AC190020424D5044D4
:100820006973706C61793A20746869732069732008
:100830006E6F74206120424D502066696C650D0A10
:1008400000000000BA190020424D50446973706CDA
:1008500061793A20756E737570706F72746564207B
:10086000666F726D61742121210D0A000C01002058
:100870002DE9FF4F87B0174698460020019040F6BB
:100880002801012004F07AFF06904FF40061012056
:1008900004F074FF81468021012004F06FFF059071
:1008A0004421012004F06AFF0446069820B1B9F102
:1008B000000F01D0059828B96BA006F0FBFD0020C1
:1008C0000190BCE0149800F0CCF9059ADDE9140120
:1008D00002F034FD0A22DDE9051008F037FF064674
:1008E0002EB169A006F0E6FD02200190A7E0BA460D
:1008F00001E00AF1010A0AF001000028F9D10AFB1F
:1009000008F04000039044F64250208003984430A1
:10091000C4F802000020E08020814420C4F80A00CE
:100920002820C4F80E00C4F81270C4F81680012103
:1009300004F10E0061831021A1830321C4F81E106D
:100940000398C4F8220042F29811C4F82610C4F8A3
:100950002A100021C4F82E10C4F832104FF4784049
:10096000C4F836004FF4FC61C4F83A101F21C4F8F3
:100970003E10002084F8420084F8430000210698CD
:1009800008F041FD04AB44222146069809F013F912
:10099000064616B90498442808D042A006F08AFDFD
:1009A000069808F009FD0320019048E008984044AB
:1009B000A0F1010B39E00025079802900BE05946A1
:1009C000029804F0BDFC82B228466D1C29F8102064
:1009D0000298401C02900798C11902988142EED8F3
:1009E00004E0002228466D1C29F8102005F00100C3
:1009F0000028F6D16A0004AB4946069809F0DBF8F6
:100A0000064666B10498B0EB450F08D02DA006F05D
:100A100051FD069808F0D0FC042001900FE00898E2
:100A2000584500D102E0ABF1010BC4E700BF0698C6
:100A300008F0C2FC2BA0059906F03CFD00BF012088
:100A4000069904F089FE4946012004F085FE012044
:100A5000059904F081FE2146012004F07DFE0198F5
:100A60000BB0BDE8F08F0000424D50456E636F64DF
:100A700065A3BAC9EAC7EBB6AFCCACC4DAB4E6CA70
:100A8000A7B0DC0D0A000000424D50456E636F6454
:100A900065A3BAB4B4BDA8CEC4BCFECAA7B0DC0D71
:100AA0000A000000424D50456E636F6465A3BAD0E2
:100AB000B4C8EBCDB7CEC4BCFED0C5CFA2CAA7B0D8
:100AC000DC0D0A00424D50456E636F6465A3BAD0D9
:100AD000B4C8EBCFF1CBD8CAFDBEDDCAA7B0DC0DE0
:100AE0000A000000424D50456E636F6465A3BAB3BF
:100AF000C9B9A6B1A3B4E6CDBCCFF1A3BA25730D95
:100B00000A00000010B50146C1F3031201F00F0303
:100B100002EB820403EB440010BD000010B5044654
:100B20000A48006800280ADD4FF40061084809F00F
:100B300000FD06480068001B0449086004E04FF40B
:100B40000061034809F0F3FC10BD0000E000002044
:100B5000002002400149086070470000E0000020CA
:100B600000BFFEE7014600200BE000EBC002074B90
:100B700003EBC2028A4202D1054A10707047421C40
:100B8000D0B20328F1DB00BFF8E70000E4D0032077
:100B9000DC0000202DE9FC4F03460C46052A02DA52
:100BA0001846BDE8FC8FDD0AC3F3451603F01F07A6
:100BB0004FEAD42CC4F3451804F01F0001901146ED
:100BC0000CFB01F0C1F1FF0E05FB0E004FF0FF0E14
:100BD00090FBFEF01FFA80F908FB01F0C1F1FF0E57
:100BE00006FB0E004FF0FF0E90FBFEF01FFA80FA9E
:100BF00001984843C1F1FF0E07FB0E004FF0FF0EB6
:100C000090FBFEF01FFA80FB4FEAC92040EA4A1031
:100C100040EA0B0080B200900098C2E710B504468D
:100C2000606B10B12046616B884710BD10B504465B
:100C300094F82400012805D1206C58B12046216C7D
:100C4000884707E094F8240020B9606C10B1204672
:100C5000616C884710BD10B502F014FA01F03AF942
:100C600010BD30B58BB00446214601A808F02AFE1D
:100C70000546052D03D1204608F092FC02E001A8AC
:100C800008F0AFFB0BB030BD2DE9F8434FF48051B5
:100C9000012004F073FD80464FF48051012004F0E0
:100CA0006DFD0546B8F1000F00D06DB94146022038
:100CB00004F052FD2946022004F04EFD46A006F045
:100CC000F9FB0020BDE8F88301224CA1504808F050
:100CD0003DFD044664B14146022004F03DFD294635
:100CE000022004F039FD4BA006F0E4FB0020E9E708
:100CF00051A006F0DFFB4FF0000900275DE04448FB
:100D00008068642148434249C968B0FBF1F107F1AA
:100D10000F0081420BD33E488068642148433C4920
:100D2000C968B0FBF1F739464BA006F0C3FB6B4630
:100D30004FF480524146364808F00EFE04467CB11E
:100D4000334808F039FB4146022004F005FD2946EE
:100D5000022004F001FD48A006F0ACFB0020B1E742
:100D60004A462846009901F08BFE002612E0A85D55
:100D700018F8061088420CD0254808F01DFB4146A3
:100D8000022004F0E9FC2946022004F0E5FC0120E1
:100D900098E7761C00988642E9D3009881441C4865
:100DA00080681B49C968884203D20098B0F5805F0B
:100DB00003D039A006F07EFB00E0A0E700BF144896
:100DC00008F0FAFA4146022004F0C6FC2946022047
:100DD00004F0C2FC002075E7436865636B466F6EE4
:100DE000744C6962A3BAC9EAC7EBB6AFCCACC4DA3B
:100DF000B4E6CAA7B0DC0D0A00000000303A2F6646
:100E00006F6E742F47424B32342E464F4E00000017
:100E100028C00320436865636B466F6E744C69623B
:100E2000A3BAB4F2BFAAD7D6BFE2CEC4BCFECAA74B
:100E3000B0DC0D0A00000000436865636B466F6E0E
:100E4000744C6962A3BABFAACABCD0A3D1E9D7D6F1
:100E5000BFE20D0A00000000436865636B466F6ED9
:100E6000744C6962A3BAD0A3D1E9BDF8B6C8A3BADD
:100E7000252525640D0A0000436865636B466F6E87
:100E8000744C6962A3BAB6C1C8A1CAFDBEDDCAA7C7
:100E9000B0DC0D0A00000000436865636B466F6EAE
:100EA000744C6962A3BAD0A3D1E9BDF8B6C8A3BA9D
:100EB00025253130300D0A0010B50446207C01286C
:100EC00004D100202074204601F000F910BD00007C
:100ED0000020014908707047EA0000200020014905
:100EE00008707047E8000020002001490870704732
:100EF000E900002010B540F608400AF0ADFE4FF4BE
:100F0000006300220121084809F076FB4FF40063DA
:100F100002220021044809F096FB4FF400610248C8
:100F200009F005FB10BD00000020024010B54FF491
:100F300040600AF091FE4FF4807200210B4809F0E6
:100F4000C7FA4FF4807301220221084809F054FBCC
:100F50004FF4807303220021044809F074FB4FF022
:100F6000A0614FF480000AF0EBFC10BD00000240CD
:100F700000B58FB04FF450600AF06EFE40F6164098
:100F80000AF06AFE07F03CFA2F48006810B900200A
:100F9000099001E00220099020200A9000200B9087
:100FA0000C900D900E9009A807F03EFA0022022145
:100FB0004E200AF055FA022007F050FA022007F0FE
:100FC00055FA2148006828B1012007F047FA0120AE
:100FD00007F04CFA07211D4807F0C5FD1C4800909A
:100FE0001C4800680290002006901B48006880089A
:100FF000079001200190002003904FF4805004904E
:101000004FF4403008901048006810B90020059057
:1010100001E0012005906A4607210C4807F066FFB1
:1010200001220721094807F08BFD0022072107480C
:1010300007F030FE0721054807F072FD07F0EAF9D6
:1010400007F0D4F90FB000BD880000200064024012
:1010500028000550700000207400002010B54FF4E7
:1010600050600AF0F9FD4FF440600AF0F5FD40F6DB
:1010700001400AF0F1FD40F602400AF0EDFD40F6B5
:1010800003400AF0E9FD40F607400AF0E5FD40F6AE
:1010900008400AF0E1FD4FF400720D21624809F0AA
:1010A00017FA4FF40073002202215F4809F0A4FAF6
:1010B0004FF40073032200215B4809F0C4FA802238
:1010C0000D215A4809F004FA8023002202215748D2
:1010D00009F092FA802303220021544809F0B3FA60
:1010E0004FF480720D21514809F0F2F94FF48073EA
:1010F000002202214D4809F07FFA4FF48073032249
:1011000000214A4809F09FFA4FF480520D214648C9
:1011100009F0DEF94FF4805300220221424809F021
:101120006BFA4FF48053032200213F4809F08BFAF9
:101130004FF480420D213C4809F0CAF94FF4804336
:1011400000220221384809F057FA4FF48043032265
:101150000021354809F077FA08220D21344809F0BA
:10116000B7F9082300220221314809F045FA082383
:10117000032200212E4809F066FA40220D212D4855
:1011800009F0A6F94023002202212A4809F034FA86
:10119000402303220021274809F055FA80220D211F
:1011A000244809F095F9802300220221214809F002
:1011B00023FA8023032200211E4809F044FA20224A
:1011C0000D211C4809F084F920230022022119482E
:1011D00009F012FA202303220021164809F033FAFD
:1011E00010220D21144809F073F910230022022166
:1011F000114809F001FA1023032200210E4809F0DA
:1012000022FA40220D210C4809F062F94023002205
:101210000221094809F0F0F9402303220021064881
:1012200009F011FA10BD0000001C02400008024045
:10123000000C0240002002400000024010B54FF4B4
:1012400040600AF009FD40F601400AF005FD4FF448
:101250000043012211460B4809F0CEF94FF4004338
:1012600002220021074809F0EEF908230122114665
:10127000054809F0C1F9082302220021024809F0BB
:10128000E2F910BD000002400004024010B54FF426
:101290000071184809F04BF940F604400AF0DCFCF4
:1012A000082301221146144809F0A6F90823032255
:1012B0000021114809F0C7F908210F4809F037F952
:1012C0000A2000F095FE08210B4809F032F90120B0
:1012D00000F08EFE4FF40071064809F02AF90A204A
:1012E00000F086FE082300221146034809F084F925
:1012F00010BD0000001802400010024010B540F67A
:1013000001400AF0A9FC402301221146184809F0C7
:1013100073F9402303220021154809F094F9402174
:10132000134809F006F9802301221146104809F0FC
:1013300063F98023032200210D4809F084F98021FC
:101340000B4809F0F6F84FF40073012211460948E2
:1013500009F052F94FF4007303220021054809F007
:1013600072F94FF40071034809F0E1F810BD000074
:10137000000402400018024010B540F601400AF097
:101380006BFC4023012211460E4809F035F9402339
:10139000032200210B4809F056F94021094809F0C1
:1013A000C8F8802301221146064809F025F9802358
:1013B00003220021034809F046F98021014809F081
:1013C000B8F810BD0004024010B540F601400AF024
:1013D00043FC40F608400AF03FFC2023012211465E
:1013E000104809F009F92023022200210D4809F0D4
:1013F0002AF920210B4809F09CF84FF48073012250
:101400001146094809F0F8F84FF4807302220021D0
:10141000054809F018F94FF48071034809F087F87E
:1014200010BD0000000402400020024010B54FF43F
:10143000A0600AF077F810BD10B54FF080700AF088
:1014400065FC10BD10B5044640F601400AF004FCEE
:10145000012C0CD1802301221146094809F0CCF857
:10146000802303220021064809F0EDF806E02CB99C
:10147000802301220021024809F0BEF810BD0000BF
:101480000004024010B5044640F601400AF0E4FBB7
:10149000012C0CD1802301221146094809F0ACF837
:1014A000802303220021064809F0CDF806E02CB97C
:1014B000802301220021024809F09EF810BD00009F
:1014C00000040240F0B597B0064600274FF6FF74BF
:1014D0004FF460600AF0C0FB4FF440600AF0BCFBC0
:1014E00040F601400AF0B8FB40F602400AF0B4FBB7
:1014F00040F603400AF0B0FB40F604400AF0ACFBB3
:1015000040F605400AF0A8FB40F606400AF0A4FBAE
:1015100040F607400AF0A0FB40F608400AF09CFBAA
:1015200001220C21FE4808F0D3FF012300220221F2
:10153000FB4809F061F8012303220021F84809F073
:1015400082F802220C21F64808F0C2FF0223002292
:101550001946F34809F050F8022303220021F0480D
:1015600009F071F804220C21ED4808F0B1FF0423C2
:1015700000220221EA4809F03FF804230322002157
:10158000E74809F060F808220C21E54808F0A0FFC0
:10159000082300220221E24809F02EF80823032242
:1015A0000021DF4809F04FF810220C21DC4808F038
:1015B0008FFF102300220221D94809F01DF81023C3
:1015C00003220021D64809F03EF820220C21D448FD
:1015D00008F07EFF202300220221D14809F00CF8F8
:1015E000202303220021CE4809F02DF84FF4805229
:1015F0000C21CB4808F06CFF4FF4805300220221ED
:10160000C74808F0F9FF4FF4805303220021C44873
:1016100009F019F84FF400520C21C14808F058FFA6
:101620004FF4005300220221BD4808F0E5FF4FF4BB
:10163000005303220021BA4809F005F84FF4804214
:101640000C21B74808F044FF4FF4804300220221E8
:10165000B34808F0D1FF4FF4804303220021B04883
:1016600008F0F1FF4FF400420C21AD4808F030FFC4
:101670004FF4004300220221A94808F0BDFF4FF4B7
:10168000004303220021A64808F0DDFF01220C21BF
:10169000A44808F01DFF012300220221A14808F000
:1016A000ABFF0123032200219E4808F0CCFF022259
:1016B0000C219C4808F00CFF02230022194699488F
:1016C00008F09AFF022303220021964808F0BBFF8E
:1016D00004220C21934808F0FBFE0423002202217F
:1016E000904808F089FF0423032200218D4808F068
:1016F000AAFF4FF480420C218B4808F0E9FE4FF41A
:10170000804300220221884808F076FF4FF480438E
:1017100003220021844808F096FF4FF400420C2178
:10172000814808F0D5FE4FF40043002202217E4894
:1017300008F062FF4FF40043032200217A4808F0CA
:1017400082FF01220C21784808F0C2FE012300220A
:101750000221754808F050FF01230322002172483E
:1017600008F071FF02220C216F4808F0B1FE02233D
:10177000002219466C4808F03FFF02230322002193
:10178000694808F060FF80220C21684808F0A0FE3C
:10179000802300220221654808F02EFF80230322C7
:1017A0000021624808F04FFF4FF480720C215F481F
:1017B00008F08EFE4FF48073002202215B4808F08F
:1017C0001BFF4FF4807303220021584808F03BFFB1
:1017D0004FF400720C21554808F07AFE4FF4007364
:1017E00000220221514808F007FF4FF40073032242
:1017F00000214E4808F027FF4FF480620C214B482F
:1018000008F066FE4FF4806300220221474808F08A
:10181000F3FE4FF4806303220021444808F013FFD5
:101820004FF400620C21414808F052FE4FF400636F
:10183000002202213D4808F0DFFE4FF4006303223E
:1018400000213A4808F0FFFE4FF480520C2137483F
:1018500008F03EFE4FF4805300220221334808F086
:10186000CBFE4FF4805303220021304808F0EBFEFA
:101870004FF400520C212D4808F02AFE4FF400537B
:1018800000220221294808F0B7FE4FF4005303223A
:101890000021264808F0D7FE4FF480420C2123484F
:1018A00008F016FE4FF48043002202211F4808F082
:1018B000A3FE4FF48043032200211C4808F0C3FE1E
:1018C0004FF400420C21194808F002FE4FF4004387
:1018D00000220221154808F08FFE4FF40043032236
:1018E0000021124808F0AFFE4FF480720C210E4820
:1018F00008F0EEFD4FF48073002202210A4808F040
:101900007BFE4FF4807303220021074808F09BFE02
:101910004FF400720C21044808F0DAFD08E00000E2
:101920000014024000180240000C02400010024067
:101930004FF4007300220221B14808F05DFE4FF41D
:10194000007303220021AE4808F07DFE4FF4806250
:101950000C21AB4808F0BCFD4FF48063002202214B
:10196000A74808F049FE4FF4806303220021A448F1
:1019700008F069FE10220C21A24808F0A9FD1023EE
:10198000002202219F4808F037FE10230322002185
:101990009C4808F058FE20220C219A4808F098FD37
:1019A000202300220221974808F026FE202303224C
:1019B0000021944808F047FE01220C21924808F0CB
:1019C00087FD0123002202218F4808F015FE012324
:1019D000032200218C4808F036FE02220C218A489E
:1019E00008F076FD022300221946874808F004FE1D
:1019F000022303220021844808F025FE20220C2126
:101A0000824808F065FD2023002202217F4808F06B
:101A1000F3FD2023032200217C4808F014FE4FF43C
:101A200000420C21774808F053FD4FF40043002298
:101A30000221744808F0E0FD4FF400430322002126
:101A4000704808F000FE4FF400620C21704808F066
:101A50003FFD4FF40063002202216D4808F0CCFDE9
:101A60004FF4006303220021694808F0ECFD402296
:101A70000C21664808F02CFD402300220221634817
:101A800008F0BAFD402303220021604808F0DBFD86
:101A900080220C215D4808F01BFD802300220221DA
:101AA0005A4808F0A9FD802303220021574808F076
:101AB000CAFD4FF480720C21524808F009FD4FF422
:101AC0008073002202214F4808F096FD4FF4807386
:101AD000032200214B4808F0B6FD042E01D1102549
:101AE00000E008250A2000F083FA02200B9006206F
:101AF0000A90032009900520089001200790069085
:101B000005900C96159008201490102013904020FA
:101B1000129080001190002010904FF440600F90C0
:101B200001200E9000200D9005A816900CA807F03B
:101B30009FFB0120049003950020029001904FF636
:101B4000FF7400E0641E2021304607F0EFFA08B170
:101B5000002CF7D101A807F07DFB0A2000F048FA1D
:101B60000220049003950020029001904FF6FF742C
:101B700000E0641E2021304607F0D8FA08B1002C9E
:101B8000F7D101A807F066FB032004900395E0203D
:101B90000290002001904FF6FF7400E0641E2021A7
:101BA000304607F0C3FA08B1002CF7D101A807F0BE
:101BB00051FB40F22127042004900395002002905D
:101BC00001974FF6FF7400E0641E2021304607F0B5
:101BD000ADFA08B1002CF7D101A807F03BFB4FF498
:101BE000177007F0D1FB4FF6FF7400E0641E202150
:101BF000304607F09BFA08B1002CF7D117B0F0BDC2
:101C0000000C02400018024000100240001C02407C
:101C1000001402407FB504460D464FF480500AF090
:101C20001BF84FF080400BF02BFF68460CF04FF88C
:101C3000ADF800500020ADF804000294ADF80600A5
:101C400069464FF080400BF0E3FF012188070CF05C
:101C50002BF8002201211C2009F002FC4FF08040EB
:101C60000BF0D0FF7FBD00007FB504460D4641F26A
:101C7000030009F0F1FF0F480BF002FF68460CF07B
:101C800026F8ADF800500020ADF804000294ADF83D
:101C90000600694607480BF0BBFF012105480CF020
:101CA00003F800220121322009F0DAFB01480BF091
:101CB000A9FF7FBD000C004010B50446002211466C
:101CC000252009F0CDFB4FF4406009F0C5FF4FF42B
:101CD00000720721264808F0FBFB4FF480620721C1
:101CE000234808F0F5FB4FF400730122022120483D
:101CF00008F082FC4FF40073022200211C4808F017
:101D0000A2FC4FF4806300220221194808F074FC01
:101D100041F2041009F0A0FF16480CF08BF921469F
:101D200014480CF009F9002112480CF058FA00216F
:101D300010480CF064FA00210E480CF040FA04211F
:101D40000C480CF044FA08210A480CF050FA0948F3
:101D50000CF0DEF940F2053106480CF0FAF940F2D9
:101D6000073104480CF0F5F900200349087010BD54
:101D70000000024000100140FC00002038B504467D
:101D8000A06A28B1A06A009094E80F0001F053F90E
:101D9000002084F82400204600F0FFF9204600F0DF
:101DA000C2FA38BD3EB5002405E04FF0FF31384897
:101DB00040F82410641C364820384069A042F4D80A
:101DC0000020334920398861C86100243BE00620A7
:101DD00001AB002211460090204604F081F89DF8E6
:101DE0000400FF2807D1012001AB0022014600902A
:101DF000204604F075F89DF80400FF281ED19DF8D8
:101E0000090000069DF8081040EA01409DF80710FF
:101E100040EA01209DF8061040EA01051C482038E0
:101E20004069A84202D91A4840F82540184820388D
:101E30008069401C16492039886103E0214615A0BD
:101E400005F038FB641C124820384069A042BED817
:101E500000240FE00E4850F824000D49203949694C
:101E6000884206D20A482038C069401C08492039F7
:101E7000C861641C064820384069A042EAD804487A
:101E80002038C069642801D201203EBD0020FCE753
:101E9000F4D503204372656174654C55543A206251
:101EA000616420626C6F636B20696E6465783A25AB
:101EB000640D0A0038B5044600202074E06928B19A
:101EC000E069009094E80F0001F0B5F8204600F0BA
:101ED000FDF838BD2DE9F05F1948006870B3194866
:101EE000006801282AD1184805681848066818486B
:101EF00000682844A0F10108164800683044A0F1A9
:101F000001094FF0000A1448D0F800B034460EE042
:101F10002F4609E050460AF1010A3BF810202146FD
:101F2000384602F0E9FF7F1C4745F3D9641C4C4555
:101F3000EED9002003490860FFF71AF8BDE8F09FCA
:101F4000880000208C000020780000207C00002009
:101F500080000020840000207000002010B50120C7
:101F600006F08CFA012803D10749086006F07EFAD2
:101F7000022006F083FA012804D1022006F076FA46
:101F8000FEF7F6FF10BD00008C00002030B50346C0
:101F9000002016E0B3F900509C68645D0C541C8866
:101FA000641C24B21C80B3F90040B3F90450AC4265
:101FB00001DB00241C80441C20B2DC88641E24B297
:101FC000DC80B3F90640002C01DD9042E2DB30BD3D
:101FD000704710B5044604EB840000F01BF810BDF8
:101FE00010B50446322104FB01F000F013F810BDD7
:101FF00001B50749009808604FF0E02040694FF0B4
:10200000E021886100BF024800680028FBD108BDBC
:102010000001002001B5009806E0002101E04A1C03
:1020200091B22629FBDB401E0028F6D108BD70B511
:1020300004460D461646A07828B932462946204661
:10204000FEF70AFB07E0A078012804D132462946B2
:102050002046FEF733F970BD00B585B00548009005
:102060004BF63430029000221146684600F004F826
:1020700005B000BDC4FE000870B5A0B004460E4611
:102080001546206808B1A06820B90C4805F012FA7E
:1020900020B070BDE6602561002060604FF4805381
:1020A000074A084901A8009408F0EDFC20B9002275
:1020B000054901A808F096FC00BFE9E75C6A04083E
:1020C00084010020334C00087F4C00082DE9F843C0
:1020D000044625686668A16820684718E16860685A
:1020E00000EB0108E06938B1E0690090314628460C
:1020F000D4E9022300F08CFD607C00284BD1207CC9
:10210000012823D194F82800052808D1E06A434625
:102110003A4631460090284600F049FF3BE094F8EB
:102120002800042837D0206A40B9E06A43463A467E
:1021300031460090284600F03AFF2CE094F8283011
:1021400031462846226A00F09BFD24E0207C10BB2B
:1021500094F82900052808D1206B43463A463146B9
:102160000090284600F023FF15E094F82900042889
:1021700011D0606A40B9206B43463A463146009020
:10218000284600F014FF06E094F82930314628462E
:10219000626A00F075FDBDE8F8832DE9F843044656
:1021A00025686668A16820684718E168606800EBE8
:1021B0000108A06A28B1A06A009094E80F0000F01E
:1021C00027FD94F8240018BB94F83500052808D1A1
:1021D000E06B43463A4631460090284600F0E7FE61
:1021E0003DE094F83500042839D0206B40B9E06B0D
:1021F00043463A4631460090284600F0D8FE2EE08D
:1022000094F8353031462846226B00F039FD26E03F
:1022100094F82400012822D194F83400052808D12C
:10222000A06B43463A4631460090284600F0BFFE78
:1022300015E094F83400042811D0E06A40B9A06B8E
:1022400043463A4631460090284600F0B0FE06E08C
:1022500094F8343031462846E26A00F011FDBDE8BA
:10226000F8832DE9FE430446607C10B1207C0128F0
:1022700001D0BDE8FE83A069450805B9F9E7A16969
:1022800020684618A16960684718A168206808445A
:10229000A169401AA0F10108E16860680844A169D9
:1022A000401AA0F10109607C01282CD1012160694C
:1022B0003B464246CDE9005002913946304600F097
:1022C000F5FC012160694B463246CDE90050029190
:1022D0003946304600F0EAFC012160694B4642462F
:1022E000CDE9005002913946404600F0DFFC012163
:1022F00060694B464246CDE900500291494630465E
:1023000000F0D4FC0DE0607C02280AD10121606954
:102310004B464246CDE9005002914946304600F016
:10232000C5FC00BFA5E72DE9FF41044621692068EF
:102330004518616960684618207E00F04FFFA1686B
:10234000B1FBF0F701210022E06901AB83C30092E9
:10235000237E31462846226A00F0E3FDBDE8FF8176
:1023600070B50346002016E00C5CB3F902609D686E
:10237000AC555C88641C24B25C80B3F90240B3F9AC
:102380000450AC4201DB00245C80441C20B2DC8899
:10239000641C24B2DC80B3F90640B3F90450AC42AB
:1023A00001DA9042E0DB70BD1CB504464FF0AA3064
:1023B0000190042001AB002211460090204603F05A
:1023C00075FE042001AB002201210090204603F09D
:1023D0006DFE1CBD1CB5044600200190012001AB20
:1023E000002211460090204603F07AFD9DF804007B
:1023F000FF280FD1012001AB0022014600902046AA
:1024000003F06EFD9DF80400FF2801D100201CBDE3
:102410000120FCE70220FAE7FEB506460D46741CD3
:1024200026E004F00100A84221D1062001AB0022E1
:1024300011460090204603F053FD9DF80400FF284C
:1024400015D19DF80500FF2811D19DF80600FF2841
:102450000DD19DF80700FF2809D19DF80800FF283D
:1024600005D19DF80900FF2801D12046FEBD641C5E
:1024700018484069A042D4D8002426E004F00100A6
:10248000A84221D1062001AB00221146009020462F
:1024900003F026FD9DF80400FF2815D19DF80500E6
:1024A000FF2811D19DF80600FF280DD19DF80700E7
:1024B000FF2809D19DF80800FF2805D19DF80900E3
:1024C000FF2801D12046D1E7641CB442D6D34FF097
:1024D000FF30CBE7D4D503202DE9FC4100202F4964
:1024E0008861002416E02046FFF774FF88B9204673
:1024F00003F0E8FB06463EB1214629A004F0DAFFCE
:102500002046FFF751FF04E024488069401C23491E
:102510008861641C21484069A042E4D81F48816951
:1025200026A004F0C7FF1D488069642802D201205C
:10253000BDE8FC81194880695A2148436421B0FBF9
:10254000F1F7002500241CE02046FFF743FFB8B94F
:10255000E8B28DF80400280A8DF80500280C8DF8E3
:102560000600280E8DF80700042001AB022200218E
:102570000090204603F09AFD6D1CBD4200D304E09C
:10258000641C06484069A042DED800BFFFF70AFC81
:1025900008B10220CCE70020CAE70000D4D5032010
:1025A00046544C466F726D61743A206261636B20D1
:1025B000626C6F636B3A2025640D0A0046544C46EA
:1025C0006F726D61743A20676F6F6420626C6F6325
:1025D0006B206E756D3A2025640D0A000146064891
:1025E0004069884202D24FF0FF30704702482030E5
:1025F00050F82100F9E70000D4D503202DE9F05F61
:1026000005460C4616469846B6F5006F02D00120E6
:10261000BDE8F09F002731E01A48006AB4FBF0F0F3
:102620001949C968B0FBF1F91648006AB4FBF0F02B
:102630001549C968B0FBF1F201FB120A4846FFF7E1
:10264000CDFF8146B9F1FF3F01D10120E0E72A46E5
:102650005146484603F084FB8346BBF1000F0AD085
:102660002A465146484603F07BFB8346BBF1000FE8
:1026700001D00120CCE7641C35447F1C4745CBD3F7
:102680000020C5E7D4E50320D4D503201CB50446BB
:10269000CC200190012001AB024600210090204691
:1026A00003F004FD1CBD00002DE9FF4F85B08046FE
:1026B0000D461446B4F5006F03D0012009B0BDE803
:1026C000F08F0027B4E000BF5C48006AB5FBF0F073
:1026D0005B49C968B0FBF1F004905848006AB5FB4B
:1026E000F0F05749C968B0FBF1F201FB120A5348F8
:1026F000006AB5FBF0F100FB1150604303900498B1
:10270000FFF76CFF8146B9F1FF3F01D10120D5E70A
:102710000023FF225146484603F05CF88346BBF194
:10272000000F38D1BAF1000F02D14846FFF7AEFFD3
:1027300042465146484603F051FC8346BBF1000F28
:1027400025D009F001014846FFF766FE0646B6F1BE
:10275000FF3F17D03A4800223146C368484603F08D
:10276000ECF88346BBF1000F08D1354820300499BE
:1027700040F821604846FFF717FE02E03046FFF7B9
:1027800013FEA1E74846FFF70FFE012096E76D1CF8
:10279000A0447F1C4CE000BF09F001014846FFF750
:1027A0003BFE0646B6F1FF3F40D02548C0682449AD
:1027B000496848432249496801FB1A010398081AED
:1027C00002900898C01B60430299884203D8089879
:1027D000C01B604302900298CDE90080524631460A
:1027E0004846039B03F032F88346BBF1000F19D132
:1027F00013482030049940F82160484603F062FAFB
:102800008346BBF1000F02D04846FFF7CDFD02988A
:10281000B0FBF4F00544029880440298B0FBF4F059
:10282000074405E03046FFF7BFFDB5E7012045E767
:1028300008988742FFF447AF00203FE7D4E5032024
:10284000D4D5032010B512E001220CA10C4806F0EB
:102850004DFF044654B10BA004F02CFE15A004F06B
:1028600029FE4FF4FA70FFF7C3FB00E000E0EBE74E
:1028700000BF18A004F01EFE10BD0000313A000099
:10288000E4190020466F7263654D6F756E744E617A
:102890006E64466C6173683A204D6F756E74204E9D
:1028A000616E6420466C617368206661696C2121E9
:1028B000210D0A00466F7263654D6F756E744E612F
:1028C0006E64466C6173683A2072657472792E2E5C
:1028D0002E0D0A00466F7263654D6F756E744E6102
:1028E0006E64466C6173683A204D6F756E74204E4D
:1028F000616E6420466C61736820737563636573F1
:10290000730D0A0010B512E001220CA10C4806F06C
:10291000EDFE044654B10BA004F0CCFD14A004F06D
:10292000C9FD4FF4FA70FFF763FB00E000E0EBE74E
:1029300000BF17A004F0BEFD10BD0000303A00003B
:1029400014220020466F7263654D6F756E74534498
:10295000436172643A204D6F756E74205344206356
:10296000617264206661696C2121210D0A000000FA
:10297000466F7263654D6F756E7453444361726444
:102980003A2072657472792E2E2E0D0A0000000016
:10299000466F7263654D6F756E7453444361726424
:1029A0003A204D6F756E7420534420636172642029
:1029B000737563636573730D0A0000002DE9F041C0
:1029C00004460E461548005D38B9144820380168A1
:1029D000204688470120BDE8F081114850F82400C6
:1029E000B04219D90F4850F82400B6FBF0F70B4855
:1029F0000C3850F8240050F82780002508E000210A
:102A000006480C3850F824007A1940F822106D1C42
:102A10004545F4DB0020DEE70220DCE7480000202B
:102A200024BA010818BA010870B505460E461446C6
:102A300000F0BEF80121114807F079FD022004F0F2
:102A400019F8C4F3074004F015F8C4F3072004F0A4
:102A500011F8E0B204F00EF803E0287804F00AF868
:102A60006D1C301EA6F101018EB2F6D10121034882
:102A700007F05FFD00F02CF870BD00000008024078
:102A80002DE9F04106460F46144601210F4807F094
:102A90004EFD032003F0EEFFC4F3074003F0EAFF0E
:102AA000C4F3072003F0E6FFE0B203F0E3FF0025E4
:102AB00004E0FF2003F0DEFF70556D1CBD42F8D32B
:102AC0000121024807F035FDBDE8F0810008024011
:102AD00010B5002401210A4807F029FD052003F064
:102AE000C9FF00BFFF2003F0C5FF044604F001004A
:102AF0000028F7D10121024807F01BFD10BD00009E
:102B0000000802402DE9F74F81468A46029D56464D
:102B1000CB4647E0C5F30B002F1AC5F30B0030B1CD
:102B20003A464FF480512148FFF7AAFF0BE0C5F366
:102B30000B0040B9B6F5805F05D23A464FF480519C
:102B40001A48FFF79DFF384600F042F8C5F303240A
:102B500017E006B917E005F0FF080DE006B90EE032
:102B60009BF8000008EB0421104A50546D1C761E9F
:102B70000BF1010B08F10108B8F1FF0FEED900BF0E
:102B8000641C102CE5D300BF002409E007EB0422ED
:102B9000064901EB04204FF48071FFF745FF641CE8
:102BA000102CF3D3002EB5D1BDE8FE8F28B0032042
:102BB00010B50121054807F0BAFC062003F05AFFC2
:102BC0000121024807F0B5FC10BD000000080240DA
:102BD00010B50446FFF7ECFF01210C4807F0A7FCF5
:102BE000202003F047FFC4F3074003F043FFC4F382
:102BF000072003F03FFFE0B203F03CFF0121034850
:102C000007F097FCFFF764FF10BD000000080240CA
:102C10002DE9F84304460D4616461F46DDF8208090
:102C20003B46324629462046CDF8008002F090F817
:102C3000BDE8F8832DE9FF4F83B0804617461C4658
:102C4000DDE911ABDDF840900CB9002506E0012C60
:102C500001D1012502E0022C00D10225BBF1000FB9
:102C600001D1002600E0012633462A46CDE900A91D
:102C700002974046049902F08BFB07B0BDE8F08F45
:102C80002DE9F04105460E4617461C462CB9324642
:102C900029463846FFF7CBF906E0012C04D132462D
:102CA00029463846FFF7E8F9BDE8F0812DE9F04FF5
:102CB0008FB005460E4692469B46189C0020079012
:102CC0000690012C0AD119985B4652463146009075
:102CD000284602F09FF80FB0BDE8F08F1A98002840
:102CE0005FD1AA4503D9AAEB05000E9002E0A5EB3F
:102CF0000A000E90B34503D9ABEB06000D9002E03D
:102D0000A6EB0B000D900C95CDF828A00B96CDF8F6
:102D100024B0DDE90D10884221D30D9860430E994F
:102D2000B0FBF1F004EB50040B98A0EB54000B90B7
:102D30000998A0EB540009900EE019980090DDE985
:102D40000932DDE90B1002F065F80B98401C0B907E
:102D50000998401C0990641E002CEED17BE00E986F
:102D600060430D99B0FBF1F004EB50040C98A0EB1C
:102D700054000C900A98A0EB54000A900EE01998A9
:102D80000090DDE90932DDE90B1002F043F80C9800
:102D9000401C0C900A98401C0A90641E002CEED136
:102DA00059E01A98012856D16408AAEB0507ABEB45
:102DB000060803950296002F01DD059007E017B97C
:102DC0000020059003E04FF0FF3005907F42B8F1FE
:102DD000000F02DD012004900AE0B8F1000F02D1DB
:102DE0000020049004E04FF0FF300490C8F1000888
:102DF000474501DDB94600E0C1460020089025E0C6
:102E00002246199BDDE9021000F027F807983844A4
:102E100007900698404406900798484507DD0798B4
:102E2000A0EB0900079005990398084403900698C1
:102E3000484507DD0698A0EB090006900499029822
:102E4000084402900898401C80B2089009F10101E2
:102E500008988842D4DD00BF3DE72DE9FF5F0546B5
:102E60000E469146B9F1000F01D1BDE8FF9F002445
:102E70004F460320A0EB470A4AE0A346B8460DE0C0
:102E8000A6EB0B01E819039A02F036F8F119A5EB4D
:102E90000B00039A02F030F8ABF1010BBBF1000F0D
:102EA000EEDC25E0A6EB0801281B039A02F024F8CB
:102EB000311BA5EB0800039A02F01EF8A6EB0801EF
:102EC0002819039A02F018F83119A5EB0800039AA3
:102ED00002F012F806EB08012819039A02F00CF828
:102EE000311905EB0800039A02F006F8A8F1010871
:102EF000B8F1000FD6DC641CBAF1000F03DAA000B1
:102F0000801D824404E0E01B80000A3082447F1E62
:102F1000BC42B2DD31462846039A01F0EDFF00BF06
:102F2000A3E72DE9FF4F83B0064690469946DDF8AA
:102F300040A0139D484600F051F90746444630E052
:102F400020787E2811DC207820280EDBDDE91110A6
:102F5000CDE900A1029022784B4630460499FFF754
:102F600069FE641C3E446D1E1BE02078812817DB3F
:102F70006078217840EA012BDDE911104B465A4672
:102F8000CDE900A1029030460499FFF753FEA41C3E
:102F900006EB4706022D01D3AD1E02E0002500E03E
:102FA00001E0002DCCD100BF07B0BDE8F08F2DE9C6
:102FB000F84304460D4616461F46DDF820803B4682
:102FC000324629462046CDF8008002F073F8BDE86D
:102FD000F8832DE9F04106460F461446052C06D32A
:102FE0004FF0FF30306038600020BDE8F08100F025
:102FF00003FA0546681C005D01280ED104EB44016C
:10300000A81D30F81100306004EB4401A81D00EB4E
:103010004100408838600120E7E74FF0FF30306022
:1030200038600020E1E770B504460D462946204689
:1030300002F086F970BD2DE9FF5F05460E46914608
:10304000DDF838A0BAF1000F01D1BDE8FF9FD346EB
:103050004FF0000834460FE02F4608E0214638467E
:10306000FFF7E1FF2BF8180008F101087F1C05EBC2
:103070000900B842F2D8641C03983044A042EBD84F
:1030800000BFE2E770B503F0EDFD0546214800788A
:10309000A8420CD01F4805701F480068806828B1FE
:1030A0001D48006881681B480078884770BD03F0A0
:1030B000BBFD0446042C2AD074B917480068006888
:1030C00028B314480078062821D013480068016806
:1030D0001048007888471AE0012C0ED10D4800787E
:1030E00006280AD00C480068406880B10A48006889
:1030F000416808480078884709E0022C07D1064853
:103100000068C06818B104490968C868804700BFF2
:10311000CCE70000240000201C00002001480078BB
:1031200070470000EA000020014800787047000066
:10313000E80000200148007870470000E900002006
:103140002DE9F04780460E46C8F3072708F0FF0533
:10315000812F01DBFE2F08DD002402E00020305526
:10316000641C482CFAD3BDE8F087402D15DB7E2D7A
:1031700013DCA5F14000A7F18101C1EB411202EB84
:10318000811100EB410000EBC0004FEAC0094A4644
:1031900048213046FFF774FC1EE0802D15DBFE2D24
:1031A00013DCA5F14100A7F18101C1EB411202EB53
:1031B000811100EB410000EBC0004FEAC0094A4614
:1031C00048213046FFF75CFC06E0002402E00020C6
:1031D0003055641C482CFAD300BFC4E7014609B936
:1031E00006207047012901D10820FAE7022901D100
:1031F0000C20F6E70020F4E70B480268002103E00A
:10320000505C0A4B5854491C0E29F9D306480068F3
:1032100000F10E02002103E0505C054B5854491C9C
:103220002829F9D3002070470C000020AC19002099
:10323000BA19002010B502461346002103E0585C7D
:10324000084C6054491C0E29F9D302F10E030021E9
:1032500003E0585C044C6054491C2829F9D3002031
:1032600010BD0000AC190020BA19002010B50246AC
:10327000164CE489202C03D1144C6468A1001BE097
:10328000124CE489182C0AD1104C646804EB4401F8
:1032900000E0491C01F00304002CFAD10CE00B4CB7
:1032A000E489102C08D1094C6468610000E0491CD5
:1032B00001F00304002CFAD1054CD4F80A4001FBBC
:1032C0000243044C2468E01810BD0000BA19002025
:1032D000AC1900200C00002030B502460B46154DFD
:1032E000ED89202D03D1134D6D68A9001BE0114D10
:1032F000ED89182D0AD10F4D6D6805EB450100E0F1
:10330000491C01F00305002DFAD10CE0094DED89AF
:10331000102D08D1074D6D68690000E0491C01F0CF
:103320000305002DFAD1044DD5F80A5001FB0354D2
:10333000101930BDBA190020AC1900202DE9F8434E
:1033400080468946154640F62801012002F016FA0B
:10335000064616B911A004F0ADF8002413E04B4660
:10336000424616A12846009404F0B4F801222946EA
:10337000304606F0EBF90746042F00D106E0304650
:1033800006F01AF8641C601C0028E8D100BF314622
:10339000012002F0E1F9BDE8F88300004765744EB2
:1033A00065775265634E616D65A3BAC9EAC7EBC420
:1033B000DAB4E6CAA7B0DC0D0A00000025732F2599
:1033C0007325642E626D700010B58021034807F0EC
:1033D0000BF908B9002010BD0120FCE700040240F1
:1033E00010B58021034807F0FFF808B9002010BD90
:1033F0000120FCE700040240004870475C2A0020DE
:1034000000BFFEE710B5044601202169884700206F
:10341000A168884701206169884701206168884761
:103420000120616988470120A168884701206169FE
:10343000884700202169884710BD70B504460125E2
:10344000002021698847012061698847012061685F
:103450008847012061698847E06880470546002069
:1034600061688847012061698847284670BD2DE959
:10347000F04106460F4614461D46DDF818803046DA
:1034800000F02EF9307820F00101304600F0F7F816
:10349000012805D13046FFF7B5FF0120BDE8F081D6
:1034A0003946304600F0EBF8012804D13046FFF7EA
:1034B000A9FF0120F2E73046FFF7A4FF304600F0F5
:1034C0000FF9307840F00101304600F0D8F80128BB
:1034D00004D13046FFF796FF0120DFE70EE0012D13
:1034E00005D14146304600F069F8207004E0002123
:1034F000304600F063F82070641C6D1E002DEED184
:103500003046FFF77FFF0020C8E72DE9F04106466F
:103510000F4614461D46DDF81880304600F0E0F8EE
:10352000307820F00101304600F0A9F8012805D1DB
:103530003046FFF767FF0120BDE8F08139123046C1
:1035400000F09DF8012804D13046FFF75BFF012011
:10355000F2E7F9B2304600F092F8012804D1304683
:10356000FFF750FF0120E7E73046FFF74BFF3046FB
:1035700000F0B6F8307840F00101304600F07FF8F6
:10358000012804D13046FFF73DFF0120D4E70EE0CB
:10359000012D05D14146304600F010F8207004E0BE
:1035A0000021304600F00AF82070641C6D1E002DCA
:1035B000EED13046FFF726FF0020BDE72DE9F041B0
:1035C00004460D460026002700202169884700BFD9
:1035D00012E0012061688847012061698847E0683E
:1035E000804740EA4700C7B2002061688847012051
:1035F00061698847701CC6B2082EEADB1DB92046F7
:1036000000F007F802E0204600F01EF83846BDE85A
:10361000F08110B504460120216988470020A16887
:103620008847012061698847012061688847012037
:10363000616988470020616888470120616988477F
:1036400000202169884710BD10B50446012021697A
:1036500088470120A16888470120616988470120C7
:103660006168884701206169884700206168884750
:1036700001206169884700202169884710BD2DE934
:10368000F04104460D4600260127012021698847A4
:1036900000BF1CE005F0800018B10120A168884738
:1036A00002E00020A16888476806050E01206169D4
:1036B00088470120616888470120616988470020A8
:1036C00061688847012061698847701CC6B2082E6E
:1036D000E0DB2046FFF7B1FE07463846BDE8F08143
:1036E00010B5044600206168884701206169884759
:1036F0000120216988470120A1688847012061696C
:103700008847012061688847012061698847002057
:10371000A16888470120616988470020616888475F
:1037200001206169884700202169884710BD2DE983
:10373000F04105460F4614461E462846FFF7D0FFC7
:10374000287820F001012846FFF799FF012805D1CC
:103750002846FFF757FE0120BDE8F081394628468C
:10376000FFF78DFF012804D12846FFF74BFE01200B
:10377000F2E70BE014F8011B2846FFF780FF012851
:1037800004D12846FFF73EFE0120E5E7301EA6F1F2
:103790000106EFD12846FFF735FE0020DCE72DE9D2
:1037A000F04106460C4615461F463046FFF798FF87
:1037B000307820F001013046FFF761FF012805D184
:1037C0003046FFF71FFE0120BDE8F0812112304690
:1037D000FFF755FF012804D13046FFF713FE012003
:1037E000F2E7E1B23046FFF74AFF012804D1304644
:1037F000FFF708FE0120E7E70BE015F8011B304654
:10380000FFF73DFF012804D13046FFF7FBFD012003
:10381000DAE7381EA7F10107EFD13046FFF7F2FDD6
:103820000020D1E77047000010B5FDF763FB0020D2
:103830000149086010BD0000E00000200021016087
:103840004160822181604121C160232101611421F5
:103850004161022101764FF6FF71C1610BA1016246
:10386000002180F8241080F825108162C162016374
:1038700080F8341080F835104FF4FC6181631F210B
:10388000C163002101644164704700004275747493
:103890006F6E000000B585B00020374908603749D9
:1038A000086037490860374908603749086000F008
:1038B000ADFF002834D13220FEF79AFB02F02CFE37
:1038C0004FF4A071F02002F0D6FD002002F00CFDB4
:1038D0002949087802F094FD2849087802F036FD5D
:1038E0002749087802F016FD2649087802F04EFDB7
:1038F0002549087802F024FE2448806A244908609B
:1039000001204FF4A071F022C323CDE900210290E1
:1039100074224FF416311E48006800F04FF810E092
:103920001CA000211F22CDE90112CDE903100120C6
:103930001023C822D22100901E2001F0DFFD00BF1D
:10394000FEE74FF44951022001F018FF15490860C5
:103950000846006808B900BFFEE71348134908602D
:1039600013484860134888601348C860084600F050
:10397000CFF905B000BD0000C8000020CC00002039
:10398000D0000020D4000020D80000200C0100202E
:10399000900000204F5632363430204572726F72DC
:1039A0002121000094000020BD65000890D0032074
:1039B00049610008E9680008457100082DE9F047F1
:1039C00004460D4616461F46DDE9099ADDF82080BB
:1039D0000D4804600D4805600D4806600D480760FD
:1039E0000D48C0F800800D48C0F800900C48C0F8A1
:1039F00000A0FDF733FBFDF799FA002009490860A4
:103A0000FDF7B6FABDE8F0877000002074000020D2
:103A1000780000207C00002080000020840000202E
:103A2000880000208C00002010B54FF4046022496B
:103A300008604FF40060486040208860C860000162
:103A40000861486108464068B0F5006F04D01BA0CB
:103A500003F030FD00BFFEE717484068C10A1F4869
:103A6000016200F089FD08B1012010BDFEF79AF94E
:103A700050B11BA003F01EFDFEF72EFD20B120A0CB
:103A800003F018FD0220F0E724A003F013FD0A481C
:103A9000416923A003F00EFD0748816928A003F0C7
:103AA00009FD0548C1692EA003F004FD1BA003F029
:103AB00001FD0020D9E70000D4D50320496E6974C8
:103AC00046544C3A206572726F7220736563746F4E
:103AD000722073697A650D0A00000000D4E50320A6
:103AE000496E697446544C3A20666F726D61742059
:103AF0006E616E6420666C6173682E2E2E0D0A0056
:103B0000496E697446544C3A20666F726D61742038
:103B10006661696C6564210D0A0000000D0A0000F1
:103B2000496E697446544C3A20746F74616C20621B
:103B30006C6F636B206E756D3A25640D0A00000092
:103B4000496E697446544C3A20676F6F6420626C0A
:103B50006F636B206E756D3A25640D0A00000000DE
:103B6000496E697446544C3A2076616C69642062EF
:103B70006C6F636B206E756D3A25640D0A00000052
:103B800010B5ADF5845D012208A108A805F0AEFDD1
:103B9000044624B1214606A003F08CFC02E00AA0F2
:103BA00003F088FC0DF5845D10BD0000303A000084
:103BB000B9D2D4D8CEC4BCFECFB5CDB3CAA7B0DC81
:103BC00020282564290D0A00B9D2D4D8CEC4BCFE61
:103BD000CFB5CDB3B3C9B9A60D0A000010B500F03A
:103BE0002DF8FDF751F828B104A003F063FC03F0B1
:103BF00017FB02E00BA003F05DFC10BD466F6E7476
:103C00004C6962A3BAD7D6BFE2CBF0BBB5A3ACD0A8
:103C1000E8D2AAB8FCD0C2D7D6BFE22121210D0A32
:103C200000000000466F6E744C6962A3BAD7D6BF1D
:103C3000E2D0A3D1E9B3C9B9A60D0A0010B540F688
:103C4000024008F009F801231A461946074806F011
:103C5000D3FC012303220021044806F0F4FC0121D7
:103C6000024806F066FC00F0A9FE10BD0008024004
:103C70000EB5FDF743FBFDF709FB2820124908703C
:103C800012484860124888601248C86012480861AB
:103C9000124848616420FEF7ABF90120042301AA11
:103CA00048F2401100900848FFF72FFC18B10CA013
:103CB00003F000FC0EBD00208DF8080001A910A043
:103CC00003F0F8FB00BFF5E7442A0020496F000825
:103CD000896F0008C933000845140008D31F000885
:103CE000496E6974475431313531513A2046616922
:103CF0006C20746F206765742069640D0A000000F1
:103D0000546F7563682049443A2025730D0A0000FA
:103D100038B50446012001F069F8FEF79DF900F07E
:103D20009DF800F039F8174804600620164908701D
:103D3000002040F2022340F26312C321009074205D
:103D4000FFF735F94FF44951022001F017FD0F49F3
:103D500008600846006808B900BFFEE70B48006825
:103D600018234FF4867240F2EB2100906920FFF790
:103D700062F9074803490968086106A003F056FB89
:103D800038BD00001C00002024000020200000207E
:103D90002D7400080000000010B504202B490870A5
:103DA0002B48FFF74BFD34202949086040F2DD2005
:103DB000486035208860C86026A00862042081F829
:103DC000340081F83500244808640846FDF7D6FF22
:103DD0001F484830FFF732FD40F275101C498864D7
:103DE00040F2DD211A48C16435210165416519A100
:103DF0008166042180F87C1080F87D101649C0F897
:103E000088104830FDF7BAFF11489030FFF716FDD3
:103E1000B7200F49C1F8900040F26E210C48C0F85D
:103E200094107321C0F89810C0F89C1009A1C0F834
:103E3000B010042180F8C41080F8C5100649C0F8FD
:103E4000D0109030FDF79AFF10BD0000DC0000207C
:103E5000E4D0032000000000650B000810B500242A
:103E600057E0C4EBC4012C4A02EBC10000F062FD34
:103E70002A4830F81400C4EBC401274A42F8310044
:103E8000274830F81400C4EBC40102EBC1014860BC
:103E90004B20C4EBC40102EBC1018860C4EBC40138
:103EA00002EBC101C8600220C4EBC40102EBC101F6
:103EB00048744FF6FF70C4EBC40102EBC1014861C6
:103EC0000420C4EBC40102EBC1018861C4EBC4004F
:103ED00002EBC0008068C4EBC4020F4B03EBC202CC
:103EE000D26850434100022001F048FCC4EBC401F9
:103EF000094A02EBC101C8610A48C4EBC40102EBE4
:103F0000C1014863C4EBC40102EBC100FDF7D2FF5D
:103F1000641C052CA5D310BDA42A0020F8B9010803
:103F200002BA0108E569000810B503F051F800F085
:103F3000FDFC00F01DFB4FF4E13000F0F9FD00F056
:103F4000C3FD00F099FD00F033FD10BD7047000087
:103F500010B58EB04FF44870FE4908604FF4F07011
:103F60004860002008720877FB4808624FF0504014
:103F70004862FA4888620220C86200240AE0F548D4
:103F800001680C3040F824100C384168143040F8B7
:103F90002410641C022CF2D341F21A1007F05CFECC
:103FA0004FF4406007F058FE40F6014007F054FE21
:103FB00040F6024007F050FE40F6034007F04CFE8A
:103FC00040F6044007F048FE40F6054007F044FE86
:103FD00040F6064007F040FE40F6074007F03CFE82
:103FE00040F6084007F038FE04220E21DC4806F0B7
:103FF0006FFA042300220221D94806F0FDFA0423B7
:1040000003220021D64806F01EFB08220E21D448C8
:1040100006F05EFA082300220221D14806F0ECFAED
:10402000082303220021CE4806F00DFB4FF48072D6
:104030000E21CB4806F04CFA4FF480730022022187
:10404000C74806F0D9FA4FF4807303220021C44810
:1040500006F0F9FA01220921C24806F039FA0123D3
:1040600000220221BF4806F0C7FA012303220021E3
:10407000BC4806F0E8FA4FF480620E21B84806F01A
:1040800027FA4FF4806300220221B54806F0B4FA03
:104090004FF4806303220021B14806F0D4FA4FF4B4
:1040A00000620E21AE4806F013FA4FF400630022BE
:1040B0000221AB4806F0A0FA4FF40063032200216E
:1040C000A74806F0C0FA02220921A64806F000FA25
:1040D000022300221946A34806F08EFA0223032287
:1040E0000021A04806F0AFFA40220E219E4806F0BB
:1040F000EFF94023002202219B4806F07DFA40237D
:1041000003220021984806F09EFA20220E219748AB
:1041100006F0DEF9202300220221944806F06CFA12
:10412000202303220021914806F08DFA40220E211F
:104130008E4806F0CDF94023002202218B4806F07C
:104140005BFA402303220021884806F07CFA4FF4F2
:1041500000520E21824806F0BBF94FF400530022B2
:1041600002217F4806F048FA4FF400530322002151
:104170007B4806F068FA4FF4806209217A4806F01D
:10418000A7F94FF4806300220221774806F034FA41
:104190004FF4806303220021734806F054FA4FF471
:1041A00000420E216E4806F093F94FF400430022BE
:1041B00002216B4806F020FA4FF40043032200214D
:1041C000674806F040FA01220E21694806F080F99E
:1041D000012300220221664806F00EFA0123032281
:1041E0000021634806F02FFA02220E21604806F0F3
:1041F0006FF90223002219465D4806F0FDF90223FB
:10420000032200215A4806F01EFA04220E215848C3
:1042100006F05EF9042300220221554806F0ECF96D
:10422000042303220021524806F00DFA10220E2129
:104230004E4806F04DF91023002202214B4806F0AB
:10424000DBF9102303220021484806F0FCF94FF463
:1042500080520E21444806F03BF94FF4805300226F
:104260000221414806F0C8F94FF48053032200218F
:104270003D4806F0E8F940220E213E4806F028F9B4
:104280004023002202213B4806F0B6F940230322D6
:104290000021384806F0D7F94FF400620E21324869
:1042A00006F016F94FF40063002202212E4806F0B2
:1042B000A3F94FF40063032200212B4806F0C3F951
:1042C00010220E212A4806F003F9102300220221B1
:1042D000274806F091F9102303220021244806F014
:1042E000B2F908220E21244806F0F2F80823002231
:1042F0000221214806F080F90823032200211E48EC
:1043000006F0A1F94FF480720E21164806F0E0F88D
:104310004FF4807300220221124806F06DF94FF429
:104320008073032200210F4806F08DF94FF40072CC
:104330000E210C4806F0CCF84FF400730022022145
:10434000084806F059F94FF400730322002105488C
:1043500014E000000C010020000000D0C0BB0BD016
:10436000001C0240000402400018024000100240FD
:1043700000200240000C02400000024006F063F9F9
:104380004FF480620E21674806F0A2F84FF4806374
:1043900000220221634806F02FF94FF480630322C4
:1043A0000021604806F04FF94FF400720E215E487C
:1043B00006F08EF84FF40073002202215A4806F0EE
:1043C0001BF94FF4007303220021574806F03BF914
:1043D0004FF480620E21544806F07AF84FF480635F
:1043E00000220221504806F007F94FF480630322AF
:1043F00000214D4806F027F980220E214B4806F097
:1044000067F8802300220221484806F0F5F880234F
:1044100003220021454806F016F94FF4005301220B
:104420001146434806F0E8F84FF4005302220021F9
:104430003F4806F008F94FF400513D4806F079F87E
:1044400009F057FC01A809F065FD04221146F0208F
:1044500007F038FC08B900BFFEE7002007F068FC51
:104460001C2007F039FB1C2007F048FB08B900BFEF
:10447000FEE700200A900B900C900D902F20ADF8D5
:1044800006000220ADF804008720ADF80A002220C3
:10449000ADF8080040F2A730049040F202200390EB
:1044A00040F2CF30069040F20F2005900020079098
:1044B0000890099001A809F043FC4FF4F0704FF404
:1044C0004873002211460090104600F051FE4FF450
:1044D000F0704FF44873002211460090012000F064
:1044E00047FE002000F01CFE012000F005FEFF2129
:1044F000002001F06BF8FF21012001F067F8012096
:1045000009F002FC012009F0F3FC09F00FFC002087
:1045100000F01AFE002000F069FC002000F0D6FB3D
:104520000EB010BD001402400020024000180240EE
:104530000008024010B5FCF747FF10BD10B5044657
:104540001CB940F6144007F087FB074951F82410C6
:104550008A00064951F82400002102F0EBFC0121F9
:1045600002480C30015510BD0CBA01083C00002077
:1045700010B5FCF75BFF10BD10B58EB04FF4606056
:1045800007F06AFB40F6034007F066FB40F6044084
:1045900007F062FB4FF480420C21904805F098FF31
:1045A0004FF48043002202218C4806F025F84FF496
:1045B000804303220021894806F045F84FF4004269
:1045C0000C21864805F084FF4FF4004300220221AD
:1045D000824806F011F84FF40043032200217F487F
:1045E00006F031F801220C217C4805F071FF01230F
:1045F00000220221794805F0FFFF01230322002158
:10460000764806F020F802220C21744805F060FF7D
:10461000022300221946714805F0EEFF022303220F
:1046200000216E4806F00FF880220C216C4805F03E
:104630004FFF802300220221694805F0DDFF80231F
:1046400003220021664805F0FEFF4FF480720C2122
:10465000634805F03DFF4FF480730022022160485B
:1046600005F0CAFF4FF48073032200215C4805F077
:10467000EAFF4FF400720C21594805F029FF4FF46E
:10468000007300220221564805F0B6FF4FF4007374
:1046900003220021524805F0D6FF4FF480620C211E
:1046A0004F4805F015FF4FF48063002202214C486B
:1046B00005F0A2FF4FF4806303220021484805F073
:1046C000C2FF4FF400620C21444805F001FF4FF493
:1046D000006301220221414805F08EFF4FF4006380
:1046E000032200213D4805F0AEFF4FF480520C211B
:1046F0003A4805F0EDFE4FF480530122022137487D
:1047000005F07AFF4FF4805303220021334805F06F
:104710009AFF20220C21314805F0DAFE20230122E5
:1047200002212E4805F068FF2023032200212B4898
:1047300005F089FF10220C21284805F0C9FE10233E
:1047400001220221254805F057FF102303220021F2
:10475000224805F078FF80220C21204805F0B8FEA1
:104760008023012202211D4805F046FF80230322F9
:1047700000211A4805F067FF4FF400530122002181
:10478000164805F039FF062004900390032002909C
:104790000190012005904FF4C02006900020079062
:1047A00008900120099000200A900B9001A80C901D
:1047B0000D9005A804F0F7FC012004F0E9FC01F0DD
:1047C000EBFB6420FDF714FC01F0B2FA044621462D
:1047D00004A002F06FFE00200EB010BD000C0240DD
:1047E00000100240496E69744E616E64466C6173DC
:1047F000683A204E616E6420466C617368204944BB
:104800003A203078253038580D0A000070B5FCF792
:1048100015FD002001F074FE0A20FDF7E9FB0821D8
:104820002B4805F084FE0A20FDF7E2FB082128480A
:1048300005F07FFE3220FDF7DBFB00F09BF8012145
:10484000FF2002F007F98021122002F003F9322044
:10485000FDF7CEFB1C2002F0EDF804464FF6FF708A
:1048600000EA04241D2002F0E5F8044347F6A27094
:10487000844205D0214617A002F01CFE012070BD25
:104880000A2002F0D7F804464FF6FF7000EA04242D
:104890000B2002F0CFF8044342F24260844205D07C
:1048A000214612A002F006FE0220E8E700250AE0F9
:1048B000144A02EB45025178124A12F8150002F030
:1048C000C9F8681C85B2B12DF2D30020D7E70000EB
:1048D00000040240496E69744F56323634303A2033
:1048E0004D49443A25640D0A00000000496E697480
:1048F0004F56323634303A204849443A25640D0A3E
:104900000000000094BB010830B50B460024048071
:1049100044808280C4808360002104E00024856894
:104920006C544C1C21B29142F8DB30BD10B5FCF741
:1049300083FD10BD00210160416032218160C160B2
:1049400000210174012141744FF6FF714161022180
:1049500081610021C16101624162012180F828105A
:1049600080F829104FF4FC61C1621F21016300210E
:104970004163704710B5FCF7FFFC602006490870E2
:1049800006484860064888600648C86006480861CE
:104990000648486110BD000078D00320696F000808
:1049A000A96F0008E133000885140008E11F000822
:1049B00010B50520FCF786FD10BD000000B587B0DE
:1049C00040F6054007F048F941F2141007F044F9A9
:1049D0001A4808F023FF4FF460720521184805F0CB
:1049E00077FD4FF4607301220221154805F004FEA3
:1049F0004FF4607303220021114805F024FE68463D
:104A000008F03DFF4FF4827000900020019002906A
:104A10004FF40070039000200490032005900820BC
:104A200006906946054808F011FF0721034808F081
:104A3000F3FE024808F0F7FE07B000BD0050014049
:104A40000014024010B5FFF775FDFFF781FA012051
:104A5000FFF774FD0220FFF771FDFFF791F8FFF7F4
:104A6000BDF8FFF773FAFEF7DDFE00F039F8FEF748
:104A700011FFFEF7D9FE10BD10B5124800684FF4C3
:104A80007A71B0FBF1F4601EB0F1807F01D3012098
:104A90000FE0601E4FF0E02148610F214FF0FF3022
:104AA00002F02CFD00204FF0E02188610720086112
:104AB000002008B100BFFEE70021481E02F01EFDE5
:104AC00010BD00000401002010B5EF2140F2E730D6
:104AD000FDF7A0F8EF2140F2E730FDF7C5F810BD73
:104AE00010B5FFF7C5F8002010490870002419E040
:104AF00000210E48401C01554FF6FF7104EB4402A3
:104B0000401D20F8121004EB440200EB42004180EB
:104B1000002104EB44020548801D00EB4200818027
:104B2000601CC4B2052CE3DB10BD00005C2A002031
:104B300010B5044600F004F82046FDF7BDF810BD9E
:104B400010B5002406E000200A4908550A49085516
:104B5000601C04B2B4F5007FF5DB4FF40072054928
:104B60000648FFF7D1FE4FF4007203490448FFF7EF
:104B7000CBFE10BDD4D10320D4D30320BCD103205D
:104B8000C8D103202DE9FC47044626686768A16860
:104B9000206800EB0108E168606800EB010900256E
:104BA00018E02A46694601A8FEF713FA01280FD13A
:104BB0000198B0420BD30198404508D80098B842FC
:104BC00005D30098484502D80120BDE8FC8700E0E5
:104BD00000BF6D1C052DE4D30020F6E72DE9FC474E
:104BE00004460022694601A8FEF7F3F9054615B907
:104BF0000020BDE8FC87012D19D1D4F8009066682B
:104C0000A16820684718E168606800EB0108019816
:104C100048450AD30198B84207D80098B04204D357
:104C20000098404501D80120E3E70020E1E700209B
:104C3000DFE7F0B505460C46A96FA4B100200023BC
:104C40000EE0D1E90167BE4208D2D1E90067F65D06
:104C5000E6544E68761C4E60401C00E002E05B1C8F
:104C60009342EED30AE04E6816448F68BE4204D2E7
:104C70004E6816444E60104600E00020F0BD2DE95D
:104C8000FC5F07460E461446BD6F2088A98908447C
:104C90001FFA80F9A088298A08441FFA80FA6088E0
:104CA000A98908441FFA80FBE088298A084480B259
:104CB0000190B046CDF800805A4651464846019BC7
:104CC00000F06AF80020BDE8FC9F000010B58CB031
:104CD0000446A0B26B4601AA02A901F080FD40F68D
:104CE000174006F0B9FF05F09DFD4FF4403005F088
:104CF00061FE03A805F03EFE022006901348006AFC
:104D0000039000200490FF2005909DF80800079074
:104D10009DF8040008909DF8000009904FF4487039
:104D20000A904FF4F0700B9003A805F085FD05F094
:104D30004FFE00BF022005F031FE0028FAD002200D
:104D400005F024FE05F06EFD0CB010BD0C01002036
:104D50002DE9F04F05460C4616461F46DDF824B0F7
:104D6000A846A1464FF0000A4C460FE0454608E031
:104D70003BF81A202146284600F0BEF80AF1010A45
:104D80006D1C08EB0600A842F2D8641C09EB070072
:104D9000A042EBD8BDE8F08F2DE9F04F04460D4658
:104DA00016461F46B44202D9A24634465646BD4274
:104DB00002D9AA463D4657464FF0000BA84610E0E0
:104DC000A1460AE0099830F81B204146484600F009
:104DD00093F80BF1010B09F10109B145F2D908F182
:104DE0000108B845ECD9BDE8F08F0000084A127AF6
:104DF00082420BD0064A1072D1685269044BDA60C5
:104E00001A465161116993691361916170470000FD
:104E10000C0100202DE9F04F86B004460D461746E0
:104E20009846A7EB040BA8EB05000590BBF1000F1B
:104E300001DACBF1000B0598002802DA0598404210
:104E400005904FEA4B0004900598400003900598A8
:104E5000834527DBBC4206D900943C46009F009561
:104E60004546DDF80080A84502D90120019002E006
:104E70004FF0FF300190A146AA46CBF100060EE0AC
:104E8000514648460F9A00F037F809F10109039896
:104E90000644002E03DB0498361A01988244B94573
:104EA000EED926E0454506D900943C46009F009582
:104EB0004546DDF80080A74202D90120029002E0B9
:104EC0004FF0FF300290A146AA46059846420EE0F8
:104ED000514648460F9A00F00FF80AF1010A04986B
:104EE0000644002E03DB0398361A02988144C2451B
:104EF000EED906B0BDE8F08FF0B5114D2E7F0C3520
:104F000055F826400C3D2E7F143555F82630A0422A
:104F100001D2994200D3F0BD094D2D7A35B9084E22
:104F2000366A04FB010726F8172007E05D1E6D1A9C
:104F300003FB0055024F3F6A27F8152000BFEAE740
:104F40000C0100202DE9FF4F95B0834614461E4604
:104F50005748007A68B95648017F0C3050F82180D4
:104F60000C38017F143050F821000A905D46169FDE
:104F70001CE04F48007A012818D14D48017F0C30C1
:104F800050F821800C38017F143050F821000A902D
:104F9000CDF82080DDF8288008980A9008943446DF
:104FA000089E1698A8EB0000051B5F462819B0F56F
:104FB000487F01D9C5F54874B819B0F5F07F01D91B
:104FC000C7F5F0763A48007A40B9A94609F10100E0
:104FD000049007EB060ACDF80CA00EE03448007AE6
:104FE00001280AD10BEB0609CDF810901698204441
:104FF000A0F1010AAAF1010003905146484600F0D1
:105000009FF90290DDE9031000F09AF90190284819
:10501000006A2749C96A08FB075201FB02000B908E
:10502000A8EB04000990229988B205AB06AA07A94B
:1050300001F0D5FB40F6174006F00EFE05F0F2FB3E
:105040004FF4403005F0B6FC0CA805F093FC0220AC
:105050000F900B980C9009980D90FF200E909DF8E2
:105060001C0010909DF8180011909DF814001290EB
:10507000139414960CA805F0DFFB05F0A9FC00BF03
:10508000022005F08BFC0028FAD0022005F07EFCFF
:1050900005F0C8FB51464846029AFFF72DFF019ADA
:1050A000DDE90310FFF728FF19B0BDE8F08F00001D
:1050B0000C0100202DE9F84F04460D4616461F4608
:1050C000DDF828B0B44202D9A04634464646BD4277
:1050D00002D9A8463D464746301B00F10109781B1E
:1050E00000F1010A53464A4629462046CDF800B051
:1050F000FFF728FFBDE8F88F10B504461CB9074834
:1051000008F07CFE05E0012C03D10448803008F053
:1051100075FE012008F0ECFE10BD000000680140A3
:1051200010B504461CB9074808F06FFE05E0012CD5
:1051300003D10448803008F068FE012008F0D8FE52
:1051400010BD00000068014028B90649064A1162F6
:105150000021117704E00549034A1162012111770A
:1051600070470000000000D00C010020C0BB0BD035
:105170002DE9F04F8BB080460E4617461C46149D15
:1051800001A808F095FE6A48007A012816D1B246B7
:105190007819A0F1010B5646374640F21F30A0EBBC
:1051A0000B06B6F5487F02D30BB0BDE8F08FB7F51C
:1051B000F07F00D3F8E7A1462C464D463019B0F5F4
:1051C000487F01D9C6F548747819B0F5F07F01D948
:1051D000C7F5F075B8F1000F4FD106F1880080B225
:1051E000ADF806003019873080B2ADF8040007F141
:1051F000230080B2ADF80A007819223080B2ADF8F1
:10520000080002200390FF208DF810008DF8140094
:105210008DF813008DF812008DF811004FF4C06066
:1052200006900720079043480890032000EB4400B5
:1052300080B2ADF826004FF6FF7000EA4400ADF8EA
:105240002400A8B2ADF8280001A93B4808F0E4FD0D
:10525000394808F047FD384808F042FE3448007AE3
:1052600018B93348C46045615DE03148007A0128CF
:1052700059D12F48C560446155E0B8F1010F52D1B2
:1052800006F1880080B2ADF806003019873080B290
:10529000ADF8040007F1230080B2ADF80A007819D8
:1052A000223080B2ADF8080002200390FF208DF874
:1052B00010008DF814008DF813008DF812000020F6
:1052C0008DF811004FF4C0600690072007901B482E
:1052D0000890032000EB440080B2ADF826004FF6A2
:1052E000FF7000EA4400ADF82400A8B2ADF8280031
:1052F00001A91148803008F08FFD0F48803008F078
:10530000F1FC0D48803008F0EBFD0948007A18B92F
:1053100007480461856106E00548007A012802D14A
:10532000034805618461012008F0E2FD00BF3BE70E
:105330000C010020000000D000680140C0BB0BD071
:1053400030B502461148057F0C3050F825400C3826
:10535000057F143050F82530A24201D2994201D382
:10536000002030BD0948007A30B90848006A04FBC3
:10537000012530F81500F4E7581E401A03FB02001F
:10538000024D2D6A35F81000EBE700000C010020FB
:105390002DE9FF4F85B0834688461546149E25B1FA
:1053A000012D05D0022D09D105E04FF00C0908E0D0
:1053B0004FF0100905E04FF0180902E009B0BDE810
:1053C000F08F00BF802E0DD225B1012D04D0022D0B
:1053D00006D103E00C2704E0102702E0242700E0B8
:1053E000ECE705E0022D01D1482700E0E6E700BF29
:1053F000802E20D225B1012D0AD0022D16D10DE02C
:10540000A6F1200000EB4000374901EB800A0EE0D6
:10541000A6F12000354901EB001A08E0A6F12000B2
:1054200000EBC000324901EB800A00E0C6E700BF94
:10543000CDF804A010E0022D04D12E493046FDF72E
:105440007FFE07E0002403E0FF202A490855641C82
:10545000BC42F9D327480190CDF8088000243EE0F3
:105460000198005D04900020039033E0049800F060
:10547000800028B141465846129AFFF73DFD06E0EC
:10548000089820B941465846139AFFF735FD04980D
:105490004006000E049008F101081748017F1430FF
:1054A00050F82100404500D888E70298A8EB00009A
:1054B00048450CD3DDF808800BF1010B0E48017F45
:1054C0000C3050F82100584500D877E705E00398E4
:1054D000401C039003980828C8D300BF641CBC423A
:1054E000BED300BF6AE7000044E20008B8E6000847
:1054F000A8EC00083C0100200C0100202DE9FF4F22
:1055000085B006460F469946DDF85880B2460798A2
:105510005044A0F1010B0BEB0900401E04901298BF
:1055200020B1012804D0022806D103E0062406E0B9
:10553000082404E00C2402E009B0BDE8F08F00BFAD
:1055400000253DE018F80500802818DA18F8050055
:10555000DDE91412CDE90012029039463046DDE94A
:105560001223FFF715FF3019584505D956464F4409
:105570000498874201D9DFE726446D1C20E0681CAF
:1055800018F8000018F8051040EA01200390DDE942
:1055900014120398CDE90012029039463046DDE935
:1055A0001223FFF7F5FE06EB4400584505D9564691
:1055B0004F440498874202D9BEE706EB4406AD1C6F
:1055C00018F805000028BDD100BFB5E770B5054645
:1055D0000C4645B90B48006820F0FF0009490860F7
:1055E0000846046009E007488030006820F0FF00AA
:1055F00004498031086008460460012008F078FC06
:1056000070BD00009868014010B50446134800685A
:10561000401C1249086008460068A0421DD30020C3
:1056200008600F48006860B901200D49086020211A
:105630000C4804F07EFF4FF480710B4804F077FFB4
:105640000BE00020064908602021064804F06FFFA7
:105650004FF48071044804F06CFF10BD040000207A
:105660000800002000040240002002402DE9F0471D
:1056700004460F460025A9462348005D20B922486C
:1056800020380168204688471FB94FF0FF30BDE839
:10569000F0871E4850F82400B7FBF0F61B4850F87E
:1056A0002400B7FBF0F100FB117000B1761C184824
:1056B00050F82400451E22E013480C3850F824000E
:1056C00050F8250010B909F1010901E04FF0000977
:1056D000B14513D14FF0000809E00B480C3850F8E1
:1056E000240005EB080140F8216008F10108B045ED
:1056F000F3D3064850F824006843C8E76D1E002D18
:10570000DADA4FF0FF30C2E74800002018BA01088B
:105710000CBA010800BFFEE710B5014600230022C5
:1057200007E00B4850F8210050F8220000B15B1C44
:10573000521C084850F821009042F2D84FF47A7079
:105740005843044C54F82140B0FBF4F080B210BD33
:105750003C0000200CBA010870B505460C4604B99F
:1057600070BD054850F82500261A31462846FDF739
:1057700025F900BFF4E700003000002070B50446B2
:105780000E4631462046FFF771FF0546681C08B9F2
:10579000002070BD024850F824002844F9E70000BA
:1057A0003000002070B50446002509E06D1C4FF460
:1057B0000051064804F018FFA04201D1002070BD3E
:1057C0006FF07E408542F1D30120F8E7000C0240E3
:1057D000704700002DE9F04704468A4690461D4672
:1057E000002018490870184908700870504664F382
:1057F0009F100870C4F387000870302011490870AA
:105800000120FFF7CFFF10B10120BDE8F087012094
:1058100000F0BEF915B94FF4006703E0012D01D186
:105820004FF40467002608E04FF0E04090F8009045
:10583000C84501D00120E8E7761CBE42F4D3002021
:10584000E3E7000000000170000002702DE9FF4F47
:1058500085B08A4617461E46139C0598C007B0EBD4
:10586000CA7F03D0012009B0BDE8F08FB6F5006F04
:1058700005D2C6F3080010B9C4F3080008B101202E
:10588000F1E7F802C0F50030801B049004988442D0
:1058900001D90120E7E75FB13B4600225146059858
:1058A00000F04BF88046B8F1000F01D00120DAE794
:1058B000129803903D46B346C6F50069A14500D94C
:1058C000A14625E003982B4652462946CDE901B969
:1058D0000090059800F054F88046B8F1000F01D010
:1058E0000120C0E7A4EB090414B94FF000090FE050
:1058F000B4F5006F05D34FF400696D1C4FF0000B39
:1059000006E0B4F5006F03D2A1466D1C4FF0000B0A
:10591000B9F1000FD6D16D1C402D0CD2C5F140035A
:105920002A465146059800F008F88046B8F1000F65
:1059300001D0012097E7002095E72DE9F04180464E
:105940000E4615461F464FEAC870B0EBC67F02D020
:105950000120BDE8F081E819402801D90120F8E7CD
:10596000002409E0631961193246404600F0BEF890
:1059700008B10120EDE7641CBC42F3D30020E8E746
:105980002DE9F84F0746894690469A460B9CB4F598
:10599000006F03D214B10120BDE8F88FB4F5006F99
:1059A00005D20C98B0F5006F01D00120F4E7B4F5F2
:1059B000006F06D30C982044B0F5046F01D9012084
:1059C000EAE7F807B0EBC87F04D14FEAC970B0EB43
:1059D000CA7F01D00120DFE7002042490870424918
:1059E00008700870484667F39F100870C7F3870077
:1059F000087035203B4908700120FFF7D3FE08B13D
:105A00000120C9E785203749087037490C70200A02
:105A10000870504668F39F100870C8F3870008703C
:105A2000052000F0B5F8B4F5006F0BD3002505E0B4
:105A30000A98405D4FF0E04108706D1C0C9885425B
:105A4000F6D333E00021012003F08AFB0121084650
:105A500003F086FB002505E00A98405D4FF0E04129
:105A600008706D1CB5F5006FF6D30A20FCF7D2FA6A
:105A7000012003F055FB06464FF4016B052000F0B2
:105A800087F8852017490870174981F800B04FEA58
:105A90001B200870052000F07BF84FF0E0410E70ED
:105AA000300A0870300C0870300E087010200D4954
:105AB0000870052000F06CF84FF42F70FCF7AAFA7C
:105AC00000F078FA40280BD14FF0E04000780090C9
:105AD000009800F0010008B101205DE700205BE7BD
