:020000040800F2
:1000000030080020C1010008E50700089506000837
:10001000E1070008090200088D0A0008000000003E
:100020000000000000000000000000006908000857
:100030007D05000800000000E70700086B080008C5
:10004000DB010008DB010008DB010008DB01000820
:10005000DB010008DB01000881050008DB01000866
:10006000DB010008B105000801060008DB010008FB
:10007000DB010008DB010008DB010008DB010008F0
:10008000DB010008DB010008DB010008DB010008E0
:10009000DB010008DB010008DB010008DB010008D0
:1000A000DB010008DB010008DB010008DB010008C0
:1000B0003D090008DB010008DB010008DB01000846
:1000C000DB010008DB010008DB010008DB010008A0
:1000D000DB010008D9090008DB010008DB0100088A
:1000E000DB010008DB010008DB010008DB01000880
:1000F000DB010008DB010008DB010008DB01000870
:10010000DB010008DB01000879090008DB010008B9
:10011000DB010008DB010008DB010008DB0100084F
:10012000DB010008DB010008DB010008DB0100083F
:10013000DB010008DB010008DB010008DB0100082F
:10014000DB010008DB010008DB010008DB0100081F
:10015000DB010008DB010008DB010008DB0100080F
:10016000DB010008DB010008DB010008DB010008FF
:10017000DB010008DB010008DB01000800000000D3
:10018000DB010008DB010008DB010008DB010008DF
:10019000DB010008DB010008DB01000800000000B3
:1001A000DB010008DB010008DB010008DFF80CD0F0
:1001B00000F018F800480047310D00083008002012
:1001C0000648804706480047FEE7FEE7FEE7FEE7F1
:1001D000FEE7FEE7FEE7FEE7FEE7FEE7750800083C
:1001E000AD010008064C074D06E0E06840F0010351
:1001F00094E8070098471034AC42F6D3FFF7DAFFD3
:100200000C1A00082C1A000800BFFEE70020014964
:1002100008707047010000200020014908707047F5
:100220000000002010B541F20E1000F0DBFF0021AD
:10023000084601F075F80421072001F071F8032148
:10024000062001F06DF800221146012000F054FC58
:1002500001220021102000F04FFC01220021082083
:1002600000F04AFC02221146062000F081FD022225
:1002700011460A2000F07CFD02221146092000F000
:1002800077FD012000F096FC102000F093FC082080
:1002900000F090FC10BD000010B54FF4406000F07D
:1002A000A1FF40F6074000F09DFF40F6064000F039
:1002B00099FF012302220021074800F0E9FC1023E6
:1002C00001220021054800F0E3FC0823012200215F
:1002D000034800F0DDFC10BD00000240001C02409D
:1002E0000018024010B540F6014000F07BFF40F6D8
:1002F000084000F077FF202301221146104800F04B
:10030000C7FC2023022200210D4800F0F0FC202130
:100310000B4800F0B6FC4FF48073012211460948E7
:1003200000F0B6FC4FF4807302220021054800F073
:10033000DEFC4FF48071034800F0A1FC10BD00000A
:10034000000402400020024010B54FF4A06000F00D
:1003500071FD10BD38B500F02DFE102000F082FEBA
:10036000102000F091FE0446012C29D100F03AFC47
:10037000002000F069FDE00300F07EFD4FF4A05086
:1003800000F06EFD092002234FF4F0721921009055
:10039000580500F05DFF182000F064FE00BF192032
:1003A00000F04EFE0028FAD0022000F093FF00BFBC
:1003B00000F09CFF0028FBD04FF0807000F09EFF03
:1003C00038BD7FB504460D464FF4805000F00AFF5B
:1003D0004FF0804001F07CF8684601F0A0F9ADF8DC
:1003E00000500020ADF804000294ADF80600694604
:1003F0004FF0804001F034F90121880701F07CF9C9
:10040000002201211C2000F0B3FC4FF0804001F0DD
:1004100021F97FBD7FB504460D4641F2030000F08F
:10042000E1FE0F4801F054F8684601F078F9ADF8A4
:1004300000500020ADF804000294ADF806006946B3
:10044000074801F00DF90121054801F055F9002296
:100450000121322000F08CFC014801F0FBF87FBD47
:10046000000C004010B504464FF4406000F0BAFEA6
:1004700041F2041000F0B6FE4FF4007207212B4841
:1004800000F0CEFB4FF4007301220221274800F058
:10049000FFFB4FF4007302220021244800F027FCE8
:1004A0004FF480620721214800F0BAFB4FF48063CB
:1004B000002202211D4800F0EBFB4FF48063022272
:1004C00000211A4800F013FC194801F0B1F9214647
:1004D000174801F02FF90021154801F07EFA00219C
:1004E000134801F08AFA0021114801F066FA04214C
:1004F0000F4801F06AFA08210D4801F076FA40F23F
:1005000005310B4801F023FA40F20531084801F0AB
:100510001EFA074801F0FAF900221146252000F0E2
:1005200027FC00200349087010BD000000000240B5
:10053000001001400600002030B50346002016E000
:10054000B3F900509C68645D0C541C88641C24B290
:100550001C80B3F90040B3F90450AC4201DB002425
:100560001C80441C20B2DC88641E24B2DC80B3F9F9
:100570000640002C01DD9042E2DB30BD70470000F8
:1005800010B5012000F01CFB70B12021074800F0DD
:10059000A6FBC0F10100C4B222462021034800F0AE
:1005A00072FB012000F006FB10BD000000040240B9
:1005B00010B5082000F004FBE0B120210E4800F047
:1005C0008EFBC0F10100C4B2224620210A4800F08F
:1005D0005AFB4FF48071094800F081FBC0F1010023
:1005E000C4B222464FF48071044800F04CFB08204E
:1005F00000F0E0FA10BD00000004024000200240BC
:1006000010B5102000F0DCFA80B14FF4807108487A
:1006100000F065FBC0F10100C4B222464FF48071C6
:10062000034800F030FB102000F0C4FA10BD0000B9
:100630000020024070B50346002016E00C5CB3F9C0
:1006400002609D68AC555C88641C24B25C80B3F980
:100650000240B3F90450AC4201DB00245C80441C2E
:1006600020B2DC88641C24B2DC80B3F90640B3F904
:100670000450AC4201DA9042E0DB70BD01480078E2
:10068000704700000100002001480078704700001A
:100690000000002000BFFEE710B5FFF7FDFDFFF7EB
:1006A000C1FD10BD10B500F0E5F800F029F800F02C
:1006B00011F84FF4E13000F069F800F05BF800F059
:1006C00025F800F003F8FFF7E7FF10BD10B5FFF7BE
:1006D00009FE10BD10B5FFF737FE10BD30B50B4653
:1006E0000024048044808280C4808360002104E070
:1006F000002485686C544C1C21B29142F8DB30BD5B
:1007000010B5FFF727FE10BD7047000030B5164842
:1007100000684FF47A72B0FBF2F1481EB0F1807FAE
:1007200001D301201BE0481E4FF0E022506150171A
:100730000F22002804DB13071C0E0C4B1C5406E090
:1007400013071D0E0A4B00F00F04241F1D5500BF98
:1007500000204FF0E022906107201061002008B1D6
:1007600000BFFEE730BD00000C00002000E400E008
:1007700018ED00E010B5EF2140F2E730FFF721FE61
:10078000EF2140F2E730FFF745FE10BD10B50446FB
:1007900000F004F82046FFF765FE10BD10B50024F8
:1007A00006E000200A4908550A490855601C04B2B1
:1007B000B4F5007FF5DB4FF4007205490648FFF7FA
:1007C0008DFF4FF4007203490448FFF787FF10BD07
:1007D0002C0000202C02002014000020200000200B
:1007E00000BFFEE77047704710B5FFF747FF20B125
:1007F00002A000F059F9FFF709FD10BD54686973B4
:100800002069732074686520666972737420474498
:100810003332463437302050726F6A6563742C204F
:100820006279205A68616E6773616E0D0A0000007C
:1008300010B5FFF729FF08B1FFF7EEFC10BD014628
:10084000C88808B9012070470020FCE770B504464D
:100850000025012221460348FFF76EFEC5B2284657
:1008600070BD000014000020704710B500F0A8F81B
:1008700010BD000008B52D48006840F470002B49F9
:1008800008602B48006840F00100294908602848AA
:100890000830006840F080002549083108600020D9
:1008A000009002E00098401C00904CF250310098FB
:1008B0008842F7D31E480830006840F090001C4979
:1008C000083108600020009002E00098401C009071
:1008D0004CF2503100988842F7D315480830006830
:1008E00020F00300124908310860114800681149DE
:1008F00008400F4908600846006820F4802008601E
:1009000000200B490831086000BF09480830006822
:1009100000200028F9D108480549091D0860002079
:1009200003490C31086000F0CFFD08BD88ED00E000
:1009300000380240FFFFF6FE1030002410B5012100
:10094000880700F0E0FE012803D10121800700F0B4
:10095000D7FE07480088401C0549088008460088E3
:10096000022804DB0020088001200249087010BD25
:10097000020000200000002010B501210D4800F009
:10098000C2FE012803D101210A4800F0B9FE0A483D
:100990000088401C00B2084908800846B0F90000F1
:1009A000B0F57A7F04DB002008800120034908703D
:1009B00010BD0000000C00400400002001000020D9
:1009C0000448006820B103480068401E01490860DF
:1009D000704700000800002008B50020009024495E
:1009E000244800F0CEFF60B12149224800F0BCFF4E
:1009F000204800F013FFC0B200909DF8000000F006
:100A000047F81D491B4800F0BCFF012806D11A49D0
:100A1000184800F0A9FF174800F000FF17491548D3
:100A200000F0AFFF18B31549124800F09DFF2520D4
:100A3000002807DB00F01F0201219140104A430902
:100A400042F8231000BF6846FFF700FF9DF8001032
:100A5000084800F0E8FE0B48FFF7F1FE38B100202F
:100A60000949087040F20731024800F063FF08BDF1
:100A700005030500001001400005030007030700FF
:100A800080E200E0140000200600002000BFFEE726
:100A900031B50024012269460248FFF7CBFDC4B2FC
:100AA000204638BD20000020014A024900F013B85A
:100AB000FD0B00081000002002E008C8121F08C14A
:100AC000002AFAD170477047002001E001C1121FCF
:100AD000002AFBD170472DE9F04116460F46044627
:100AE000002503E03946B047641C6D1C20780028BF
:100AF000F8D12846BDE8F08110B52D4B1B68834323
:100B00002B4C2360231D1B688343241D2360231D5E
:100B10001B688343241D2360231D1B688343241DFE
:100B2000236011B101290ED105E0214B1B6803435D
:100B30001F4C236008E01E4B1B1D1B6803431C4C0D
:100B4000241D236000E000BF00BF32B1012A11D094
:100B5000022A1CD0032A27D127E0154B08331B6833
:100B60000343134C08342360231D1B688343241D57
:100B700023601BE00E4B08331B6883430C4C083486
:100B80002360231D1B680343241D23600EE0084BD4
:100B900008331B680343064C08342360231D1B687D
:100BA0000343241D236001E000BF00BF00BF10BD50
:100BB000003C01400149086070470000143C0140BE
:100BC00001460748006800EA010205481438006839
:100BD00000EA010312B10BB1012070470020FCE7CD
:100BE000143C0140044A116821F00F0141EA00025F
:100BF000014B1A6070470000003C024070B504468B
:100C00000D4600BF0721054800F085FE0028F9D0F9
:100C1000E1B2024800F007FE204670BD001001401E
:100C2000F0B503461C6A5D6A00200DE0012686408F
:100C300016403EB187000F26BE40B443860001FA3D
:100C400006F63443461CB0B20828EFD3082011E062
:100C50000126864016405EB1A0F10806B7000F26B7
:100C6000BE40B543A0F10806B60001FA06F63543CA
:100C7000461CB0B21028EBD31C625D62F0BD8162ED
:100C80007047816170470AB1816100E081627047FD
:100C9000F0B504460D4616462168E268002019E0CA
:100CA000012787401F409FB14FEA400C032707FAF6
:100CB0000CF7B943470005FA07F739434FEA400CF0
:100CC000032707FA0CF7BA43470006FA07F73A4337
:100CD000471CB8B21028E3D32160E260F0BD0246A1
:100CE0005069084008B1012070470020FCE7F0B5CA
:100CF0000C461546012C03D146681E43466002E0AF
:100D000046689E434660826800210DE001268E40C1
:100D10001E403EB14F000326BE40B2434E0005FACE
:100D200006F632434E1CB1B21029EFD38260F0BDFB
:100D3000FFF7B8FCFFF7E8FC04A0FFF7B5FE03E0FF
:100D4000FFF776FDFFF750FDFAE70000496E697482
:100D50002053797374656D20686173206265656ED8
:100D60002066696E69736865642E0D0A00000000D4
:100D70002DE9F04103460D46164600240027A04603
:100D80002A48006800F4E060B0F5E06F03D100BFCE
:100D90004FF0040830E02548006800F4E060B0F54A
:100DA000C06F03D101274FF0030825E01F480068FA
:100DB00000F4E060B0F5A06F02D10227B8461BE056
:100DC0001A48006800F4E060B0F5806F03D1032793
:100DD0004FF0010810E01548006800F4E060B0F53D
:100DE000407F03D104274FF0000805E04FF4A060D6
:100DF00000F020F80227B846C7F1040005FA00F415
:100E0000C8F104010F20C8403040044324010848C1
:100E1000C45403F01F01012088405911890001F1D9
:100E2000E021C1F80001BDE8F08100000CED00E018
:100E300000E400E002490143024A116070470000EB
:100E40000000FA050CED00E0044A116821F0F00101
:100E500041EA0002014B1A60704700000838024066
:100E6000044A116821F4E05141EA0002014B1A6082
:100E70007047000008380240044A116821F46041BC
:100E800041EA0002014B1A60704700000838024036
:100E90002DE9F04F8CB0064600200A903EA090E865
:100EA000004CC068CDE905BECDF810A007900FF248
:100EB000EC0ADAE9000ACDE9020A0FF2E00ADAE9FF
:100EC000000ACDE9000A38480068C0F381000B90A1
:100ED0000B9820B1012804D0022828D103E033491F
:100EE00027E0334925E03048001F006800F03F0745
:100EF0002D48001F0068C0F3881C2B48001F0068A5
:100F0000C0F30140401C4FEA40092748001F006819
:100F100000F48008B8F5800F01D1254B00E0234B89
:100F2000B3FBF7F000FB0CF0B0FBF9F101E01F4957
:100F300000BF00BF1C480068C0F3031404A8055D8F
:100F400021FA05F218480068C0F3822402A8055D62
:100F500022FA05F0099014480068C0F342341DF8E5
:100F6000045022FA05F0089036B1012E06D0022E68
:100F700006D0032E0AD106E00A9108E00A9206E0A4
:100F800009980A9003E008980A9000E000BF00BFAB
:100F90000A980CB0BDE8F08F0000000000000000CF
:100FA0000102030406070809083802400024F4007F
:100FB00040787D0100B51E48006840F001001C49E2
:100FC0000860002000F060F819480830006820F040
:100FD00003001749083108601548006815490840A2
:100FE000134908600846006820F480200860104813
:100FF0000830006800F443700D49083108600E485D
:10100000091F08600C4810380949843108600A48F3
:10101000091D0860002006490C31086004488C3026
:1010200000680649084002498C31086000BD000094
:1010300000380240FFFFF6EA10300024FFFFFCFEFC
:101040000146074A02EB9110D0F8000801F01F0397
:1010500001229A40104008B1012070470020FCE7AF
:1010600000300240074A02EB9011D1F8001800F05E
:101070001F0301229A401143024B03EB9012C2F866
:101080000018704700300240F0B5064600240027E3
:1010900000251C2E7DD007DCB6B3102E10D0182EE4
:1010A00067D01A2E76D176E0B6F5E05F19D0B6F5A6
:1010B000E85F4CD0A6F5405010380028F2D134E05B
:1010C00004E01120FFF7BCFF0546641C1DB94FF674
:1010D000FF708442F5D11120FFF7B2FF00B1012764
:1010E0007AE005E041F60140FFF7AAFF0546641CDF
:1010F0001DB96FF070408442F4D141F60140FFF712
:101100009FFF00B1012767E0FFE704E00120FFF740
:1011100097FF0546641C15B9B4F5A06FF6D1012000
:10112000FFF78EFF00B1012756E005E043F2110002
:10113000FFF786FF0546641C15B929488442F5D19E
:1011400043F21100FFF77CFF00B1012744E005E006
:1011500041F60150FFF774FF0546641C15B920489D
:101160008442F5D141F60150FFF76AFF00B1012733
:1011700032E004E01920FFF763FF0546641C15B94F
:1011800017488442F6D11920FFF75AFF00B1012712
:1011900022E010E01FE004E01B20FFF751FF0546AE
:1011A000641C15B90E488442F6D11B20FFF748FF96
:1011B00000B1012710E004E01D20FFF741FF0546C4
:1011C000641C15B906488442F6D11D20FFF738FF8C
:1011D00000B1012700E000BF00BF3846F0BD0000AD
:1011E000FFFF0F00074A02EB9011D1F8001800F042
:1011F0001F0301229A401143024B03EB9012C2F8E5
:101200000018704700300240074A02EB9011D1F8F5
:10121000001800F01F0301229A409143024B03EB98
:101220009012C2F80018704700300240074A02EBE3
:101230009011D1F8001800F01F0301229A401143C9
:10124000024B03EB9012C2F80018704700300240C6
:10125000F0B50646059C00251D48076807F00040CC
:10126000B0F1004F07D107F08040B0F1804F01D1BD
:10127000ED1D00E06D1D022926D33F2924D805F17C
:101280004000904220D8B2F5FA7F1DD8022B05D03D
:10129000042B03D0062B01D0082B15D1022C13D31D
:1012A0000F2C11D841EA82104FF0010CCCEB530CFB
:1012B00040EA0C40304340EA0460DFF814C0ACF16F
:1012C0007C0CCCF8000001E00020F0BD0120FCE720
:1012D00080380240044A116821F0030141EA00020B
:1012E000014B1A607047000008380240024800684D
:1012F00000F00C0070470000083802406FF0807169
:10130000884205D1054909680140044A116004E09A
:10131000024909680143014A116070478C38024054
:1013200070B504460B46CD1701EB9575AD10A1EBDA
:101330008505AE000F25B540E843CD1701EB957547
:10134000AD10A1EB8505AD0004FA05F2CD1701EB58
:101350009575AD1035B1012D0ED0022D18D0032D8D
:101360002ED121E0184B1B680340174D2B602B46F4
:101370001B6813432B6024E0134B1B1D1B680340A9
:10138000114D2D1D2B602B461B6813432B6018E05D
:101390000D4B08331B6803400B4D08352B602B4663
:1013A0001B6813432B600CE0074B0C331B68034096
:1013B000054D0C352B602B461B6813432B6000E05A
:1013C00000BF00BF70BD00000838014000200021B0
:1013D0003A4A126842F48032384B1A6000BF401C0F
:1013E000364A126802F4003119B94FF6FF72904282
:1013F000F5D1324A126802F400320AB900BFFEE7A2
:101400002E4A4032126842F080522C4B40331A6010
:101410002B4A126842F44042294B1A60274A08328C
:101420001268264B08331A601A46126842F40042CA
:101430001A601A46126842F4A0521A60214A1B1F11
:101440001A601A1F126842F080721B1F1A6000BFD8
:101450001A4A126802F00072002AF9D0184A12687B
:1014600042F48032164B1A6000BF154A526802F4EB
:101470008032002AF9D0124A126842F40032104B2E
:101480001A6000BF0E4A526802F40032002AF9D0F6
:101490000A4A0832126822F00302084B08331A6025
:1014A0001A46126842F002021A6000BF034A08326C
:1014B000126802F00802002AF8D070470038024093
:1014C000007000401978400A10B5FFF77FFF10BD8B
:1014D00010B504465C49601A8C426FD019DC5B4938
:1014E000A4EB01008C424ED009DCB4F1804F2ED029
:1014F00057482044A0B3B0F5806F72D13AE0B0F500
:10150000806F49D0B0F5006F4FD0B0F5406FF4D187
:101510007BE0B0F5923F5BD009DCB0F5806F73D013
:10152000B0F5644F0AD0B0F5684F5AD147E0B0F536
:10153000943F57D0B0F5963F53D15CE04FF4106024
:10154000FFF774FE4FF41060FFF75EFE79E04FF492
:101550000060FFF76BFE4FF40060FFF755FE70E090
:10156000FFE740F60100FFF761FE40F60100FFF7DC
:101570004BFE66E040F60200FFF758FE40F6020020
:10158000FFF742FE5DE040F60300FFF74FFE40F636
:101590000300FFF739FE54E040F60400FFF746FE73
:1015A00040F60400FFF730FE4BE040F60500FFF781
:1015B0003DFE40F60500FFF727FE42E02EE040F634
:1015C0000110FFF733FE40F60110FFF71DFE38E073
:1015D0004FF41160FFF72AFE4FF41160FFF714FE7D
:1015E0002FE02DE040F61110FFF720FE40F611101D
:1015F000FFF70AFE25E040F61210FFF717FE40F64F
:101600001210FFF701FE1CE011E040F60600FFF7A4
:101610000DFE40F60600FFF7F7FD12E040F607006A
:10162000FFF704FE40F60700FFF7EEFD09E040F685
:101630000800FFF7FBFD40F60800FFF7E5FD00E0BE
:1016400000BF00BF10BD0000001C0040000C0040A7
:1016500000FCFFBF016841F001010160704700001C
:101660000A8882621D4A90420ED0B0F1804F0BD0A2
:101670001B4A904208D01B4A904205D01A4A904219
:1016800002D01A4A90420BD1026822F07002026026
:1016900002684B881A43026002688B881A43026012
:1016A0008A68C262124A90420AD0124A904207D017
:1016B000026822F4407202600268CB881A4302601A
:1016C000064A904202D0094A904201D10A7B026345
:1016D000426942F00102426170470000000001408F
:1016E0000004004000080040000C004000040140DD
:1016F0000010004000140040C2680A43C2607047F6
:10170000CA43026170470246D06800EA01031069CB
:10171000084010B10BB1012070470020FCE7002108
:101720000180418081804FF6FF7181600021C1807E
:10173000017370472DE9F04704460D460027B8466F
:10174000B94600263349601A8C4235D00CDC324849
:101750002044E8B1B0F5806F1FD0B0F5006F21D004
:10176000B0F5406F32D122E0B0F5806F29D0B0F5EE
:10177000184F03D0B0F51C4F28D104E00320FFF729
:1017800087FB074623E00320FFF782FB07461EE0A6
:101790000220FFF77DFB074619E00220FFF778FBE8
:1017A000074614E00220FFF773FB07460FE0022014
:1017B000FFF76EFB07460AE00220FFF769FB0746CA
:1017C00005E00220FFF764FB074600E000BF00BF12
:1017D000E06800F4004070B1780000EB5500B0FB09
:1017E000F5F64FF6F07006EA0008C6F3420948EA3B
:1017F0000900A0600CE007EB5500B0FBF5F64FF6D2
:10180000F07006EA000806F00F0948EA0900A06037
:10181000BDE8F0870078004000BCFFBF0146486883
:10182000C0F308007047C1F308024260704700002F
:1018300010B504463349601A8C424DD00CDC324856
:101840002044E0B1B0F5806F22D0B0F5006F31D008
:10185000B0F5406F52D136E0B0F5806F45D0B0F5AD
:10186000184F03D0B0F51C4F48D11AE040F60410D1
:10187000FFF7DCFC40F60410FFF7C6FC3FE040F643
:101880001100FFF7D3FC40F61100FFF7BDFC36E076
:1018900040F61200FFF7CAFC40F61200FFF7B4FC56
:1018A0002DE040F60510FFF7C1FC40F60510FFF7EC
:1018B000ABFC24E040F61300FFF7B8FC40F6130041
:1018C000FFF7A2FC1BE040F61400FFF7AFFC40F668
:1018D0001400FFF799FC12E040F61E00FFF7A6FC8B
:1018E00040F61E00FFF790FC09E040F61F00FFF7EE
:1018F0009DFC40F61F00FFF787FC00E000BF00BF23
:1019000010BD00000078004000BCFFBFC16841F47A
:101910000051C160704710B5024602EB911000689B
:1019200001F01F040123A340184008B1012010BD9D
:101930000020FCE710B500EB9112126801F01F04C3
:101940000123A3409A4300EB91131A6010BD10B518
:1019500000EB9112126801F01F040123A3401A4307
:1019600000EB91131A6010BD10B500EB9152126894
:10197000C1F304440123A3409A4300EB91531A603E
:1019800010BD70B5024600230024C1F38910105821
:1019900001F01F060125B54000EA050302EB915056
:1019A0000068C1F304460125B54000EA050414B1FE
:1019B0000BB1012070BD0020FCE7C26822F4C062B8
:1019C000C260C2680A43C26070470A460021C1680B
:1019D00021F004011143C1607047026922F44052B2
:1019E000026102690A43026170470A460021C16828
:1019F00021F008011143C1607047C26822F480528F
:101A0000C260C2680A43C260704700002C1A000816
:101A10000000002014000000B80A0008401A000866
:101A2000140000201C080000C80A00080000000084
:101A30000000000000000000001C4E0E000000002E
:04000005080001AD41
:00000001FF
