:020000040800F2
:10000000400B0020C1010008D10A0008D9080008EF
:10001000CD0A0008AB020008C50F00080000000070
:10002000000000000000000000000000E90C0008D3
:100030004106000800000000D30A0008A50D0008D2
:10004000DB010008DB010008DB010008DB01000820
:10005000DB010008DB010008DB010008DB01000810
:10006000DB010008DB010008DB010008DB01000800
:10007000DB010008DB010008DB010008DB010008F0
:10008000DB010008DB010008DB010008DB010008E0
:10009000DB010008DB010008DB010008DB010008D0
:1000A000DB010008DB010008DB010008DB010008C0
:1000B000750E0008DB010008DB010008DB01000809
:1000C000DB010008DB010008DB010008DB010008A0
:1000D000DB010008110F0008DB010008DB0100084C
:1000E000DB010008DB010008DB010008DB01000880
:1000F000DB010008DB010008DB010008DB01000870
:10010000DB010008DB010008B10E0008DB0100087C
:10011000DB010008DB010008DB010008DB0100084F
:10012000DB010008DB010008DB010008DB0100083F
:10013000DB010008DB010008DB010008DB0100082F
:10014000DB010008DB010008DB010008DB0100081F
:10015000DB010008DB010008DB010008DB0100080F
:10016000DB010008DB010008DB010008DB010008FF
:10017000DB010008DB010008DB01000800000000D3
:10018000DB010008DB010008DB010008DB010008DF
:10019000DB010008DB010008DB01000800000000B3
:1001A000DB010008DB010008DB010008DFF80CD0F0
:1001B00000F04AF8004800473D140008400B0020BA
:1001C0000648804706480047FEE7FEE7FEE7FEE7F1
:1001D000FEE7FEE7FEE7FEE7FEE7FEE7AD0D0008FF
:1001E000AD0100082DE9F05F0546002092469B46D0
:1001F00088460646814640241BE02846414647463D
:10020000224600F042F853465A46C01A914110D394
:1002100011461846224600F029F82D1A67EB01080E
:100220004F4622460120002100F020F817EB00097C
:100230004E41201EA4F10104DFDC484631462A4627
:100240004346BDE8F09F0000064C074D06E0E0681D
:1002500040F0010394E8070098471034AC42F6D30D
:10026000FFF7A8FF94200008B4200008202A04DB30
:10027000203A00FA02F1002070479140C2F12003B9
:1002800020FA03F3194390407047202A04DB203AF8
:1002900021FA02F00021704721FA02F3D040C2F1A6
:1002A0002002914008431946704700BFFEE7000056
:1002B00000200149087070470F000020002001490C
:1002C000087070470E00002010B54FF4406001F038
:1002D00023FB40F6074001F01FFB40F6064001F00B
:1002E0001BFB012302220021074801F057F81023CD
:1002F00001220021054801F051F8082301220021C4
:10030000034801F04BF810BD00000240001C024001
:100310000018024010B540F6014001F0FDFA40F629
:10032000084001F0F9FA202301221146104801F09B
:1003300035F82023022200210D4801F05EF820212B
:100340000B4801F01CF84FF4807301221146094854
:1003500001F024F84FF4807302220021054801F0D7
:100360004CF84FF48071034801F007F810BD00000D
:10037000000402400020024010B54FF4A06001F0DC
:10038000F3F810BD38B501F0AFF9102001F004FA10
:10039000102001F013FA0446012C29D100F0A0FF2F
:1003A000002001F0EBF8E00301F000F94FF4A05059
:1003B00001F0F0F8092002234FF4F07219210090A7
:1003C000580501F0DFFA182001F0E6F900BF192006
:1003D00001F0D0F90028FAD0022001F015FB00BF8F
:1003E00001F01EFB0028FBD04FF0807001F020FBD5
:1003F00038BD000010B540F6024001F08DFA40F61D
:10040000054001F089FA01231A4619461B4800F0FD
:10041000C5FF012303220021184800F0EEFF01214F
:10042000164800F0ACFF802301221146144800F06A
:10043000B5FF802303220021114800F0DEFF802158
:100440000F4800F09CFF4FF48073002211460C48C7
:1004500000F0A4FF4FF4007301221146084800F099
:100460009DFF4FF4007303220021054800F0C5FFF3
:100470004FF40071024800F082FF10BD00080240F6
:10048000001402407FB504460D464FF4805001F041
:1004900043FA4FF0804001F05FFB684601F083FCB7
:1004A000ADF800500020ADF804000294ADF806004D
:1004B00069464FF0804001F017FC0121880701F0E8
:1004C0005FFC002201211C2000F0ECFF4FF0804077
:1004D00001F004FC7FBD00007FB504460D4641F2EB
:1004E000030001F019FA0F4801F036FB684601F0ED
:1004F0005AFCADF800500020ADF804000294ADF8AD
:1005000006006946074801F0EFFB0121054801F0AC
:1005100037FC00220121322000F0C4FF014801F025
:10052000DDFB7FBD000C004010B504464FF4406079
:1005300001F0F2F941F2041001F0EEF94FF400720B
:1005400007212B4800F0EAFE4FF40073012202213C
:10055000274800F023FF4FF40073022200212448B3
:1005600000F04BFF4FF480620721214800F0D6FED7
:100570004FF48063002202211D4800F00FFF4FF46A
:100580008063022200211A4800F037FF194801F069
:1005900093FC2146174801F011FC0021154801F099
:1005A00060FD0021134801F06CFD0021114801F0AD
:1005B00048FD04210F4801F04CFD08210D4801F0D1
:1005C00058FD40F205310B4801F005FD40F20531C0
:1005D000084801F000FD074801F0DCFC002211464C
:1005E000252000F05FFF00200349087010BD0000C7
:1005F00000000240001001401400002030B5034606
:10060000002016E0B3F900509C68645D0C541C880F
:10061000641C24B21C80B3F90040B3F90450AC420E
:1006200001DB00241C80441C20B2DC88641E24B240
:10063000DC80B3F90640002C01DD9042E2DB30BDE6
:100640007047000001B50749009808604FF0E020AE
:1006500040694FF0E021886100BF0248006800282F
:10066000FBD108BD18000020800000E0401E0028DB
:10067000FCD1704770B50346002016E00C5CB3F95E
:1006800002609D68AC555C88641C24B25C80B3F940
:100690000240B3F90450AC4201DB00245C80441CEE
:1006A00020B2DC88641C24B2DC80B3F90640B3F9C4
:1006B0000450AC4201DA9042E0DB70BD70B50546F3
:1006C0000E46144600F0CCF80121114800F055FE0A
:1006D000022000F063F8C4F3074000F05FF8C4F3B1
:1006E000072000F05BF8E0B200F058F803E028784B
:1006F00000F054F86D1C301EA6F101018EB2F6D147
:100700000121034800F03BFE00F04EF870BD0000F0
:10071000000802402DE9F04106460F46144601212B
:100720000F4800F02AFE032000F038F8C4F3074019
:1007300000F034F8C4F3072000F030F8E0B200F025
:100740002DF8002504E0FF2000F028F870556D1CFE
:10075000BD42F8D30121024800F011FEBDE8F0814E
:100760000008024010B5002401210B4800F005FEEE
:100770009F2000F013F8FF2000F010F8FF2000F099
:100780000DF80402FF2000F009F80443012102489B
:1007900000F0F5FD204610BD0008024010B50446EB
:1007A000204600F065FA10BD10B5002401210A486A
:1007B00000F0E3FD0520FFF7F1FF00BFFF20FFF78A
:1007C000EDFF044604F001000028F7D101210248A2
:1007D00000F0D5FD10BD0000000802402DE9F041F9
:1007E00007460C461646F5B2C5F58070A04230DAD1
:1007F000C5F5807132463846FFF760FFC5F5807059
:100800000644C5F580700744C5F58070201A84B28F
:100810002046E11704EB1161C1F307280CE03246D2
:100820004FF480713846FFF749FF06F5807607F5EB
:100830008077A4F5807084B2B8F10000A8F10101BE
:1008400001F0FF08EBD1324621463846FFF736FF6C
:1008500004E0324621463846FFF730FFBDE8F0811C
:1008600010B50121054800F088FD0620FFF796FF2E
:100870000121024800F083FD10BD00000008024085
:1008800010B50446FFF7ECFF01210C4800F075FDA0
:100890002020FFF783FFC4F30740FFF77FFFC4F377
:1008A0000720FFF77BFFE0B2FFF778FF0121034845
:1008B00000F065FDFFF778FF10BD00000008024062
:1008C00001480078704700000F00002001480078C0
:1008D000704700000E00002000BFFEE710B500F0DA
:1008E00043F810BD10B500F061FA00F038F800F0E0
:1008F0001FF84FF4E13000F091F800F083F800F0B9
:100900004DF800F011F800F003F800F015F810BDF4
:1009100010B5FFF7D9FCFF2002490870002048708D
:10092000887010BD0400002010B5FFF7F3FC10BD67
:1009300010B5FFF721FD10BD704730B50B46002400
:10094000048044808280C4808360002104E000240D
:1009500085686C544C1C21B29142F8DB30BD10B557
:10096000FFF710FD10BD000010B5FFF743FD01219A
:10097000064800F004FD8021054800F0FEFC4FF41D
:100980000071034800F0FBFC10BD000000080240AD
:100990000014024010B5FFF7A1FF10BD30B5164896
:1009A00000684FF47A72B0FBF2F1481EB0F1807F1C
:1009B00001D301201BE0481E4FF0E0225061501788
:1009C0000F22002804DB13071C0E0C4B1C5406E0FE
:1009D00013071D0E0A4B00F00F04241F1D5500BF06
:1009E00000204FF0E022906107201061002008B144
:1009F00000BFFEE730BD00001C00002000E400E066
:100A000018ED00E010B5EF2140F2E730FFF73AFDB6
:100A1000EF2140F2E730FFF75FFD10BD10B504464F
:100A200000F004F82046FFF77FFD10BD10B500244C
:100A300006E000200A4908550A490855601C04B21E
:100A4000B4F5007FF5DB4FF4007205490648FFF767
:100A500074FF4FF4007203490448FFF76EFF10BDA6
:100A60003C0300203C05002024030020300300202C
:100A700070B5044612480088401C11490880084699
:100A80000088A0421BDB0020088020210D4800F0D8
:100A9000ACFCC0F10100C5B22A462021094800F093
:100AA00070FC4FF48071084800F09FFCC0F1010019
:100AB000C5B22A464FF48071034800F062FC70BD55
:100AC00002000020000402400020024000BFFEE7B8
:100AD0007047704710B5FFF7F3FE08B1FFF7E8FB6A
:100AE00010BD000010B5FFF7F1FE10B3FA20FFF7BC
:100AF000BFFF1048B0F90000042812DB0E4A0F496E
:100B0000002000F0F3F80E4A0E49012000F0EEF844
:100B10000D4A0E49022000F0E9F80020054908803E
:100B200005E004480088401C00B202490880FFF735
:100B3000C5FB10BD00000020510B0008410C00084F
:100B4000950B0008430C0008E50B0008450C000855
:100B500010B50BA000F044FA002002E00C4A10543B
:100B6000401CFF28FADD0020FFF78AFE0220FFF775
:100B700069FD00224FF480710548FFF72FFE10BD7C
:100B800077726974652062756631200D0A00000075
:100B90002400002010B50EA000F022FA002008E08A
:100BA000802802DA0E4A105402E0FF210C4A115448
:100BB000401CFF28F4DD0020FFF762FE0220FFF753
:100BC00041FD00224FF480710548FFF707FE10BD7C
:100BD00077726974652062756632200D0A00000024
:100BE0002401002010B511A000F0FAF900224FF402
:100BF00080711148FFF78EFD002410E00E48015D62
:100C00000EA000F0EDF94CB1E11704EB11710911E0
:100C1000A4EB011111B907A000F0E2F9641CFF2C4C
:100C2000ECDD04A000F0DCF910BD00007265616429
:100C3000696E67200D0A000024020020257820003C
:100C40007047704770470146C88808B9012070474F
:100C50000020FCE770B50446002501222146034828
:100C6000FFF7CCFCC5B2284670BD0000240300206D
:100C700070B50446002500261DE08021104800F0D4
:100C80007CFB04F0800000F01DF80120FFF7ECFC75
:100C90006006040E80210A4800F071FB6806050E0C
:100CA0004FF48071064800F071FB05430120FFF707
:100CB000DBFC701CC6B2082EDFDB284670BD0000CE
:100CC0000014024010B504462CB14FF400710548E1
:100CD00000F055FB04E04FF40071024800F04DFBBA
:100CE00010BD0000001402407047000070B50446BB
:100CF0000D4616462548005D4006000E234908555E
:100D000024B1012C0CD0022C1ED113E0012120486B
:100D100000F03CFB1D49095D08431C49085514E0DF
:100D200010211C4800F032FB1849095D084317499F
:100D300008550AE00821184800F028FB1349095D0E
:100D400008431249085500E000BF00BF0F48005D8E
:100D50001249095D884208D11148005D012804D17B
:100D6000B04700200E4908550EE00848005D0B49C9
:100D7000095DC943C9B2884206D10948005D18B966
:100D8000A84701200649085570BD00000700002053
:100D900000000240001C0240001802400400002035
:100DA0000A00002010B500F0A7F810BD08B52D48C6
:100DB000006840F470002B4908602B48006840F040
:100DC00001002949086028480830006840F0800088
:100DD0002549083108600020009002E00098401C7E
:100DE00000904CF2503100988842F7D31E480830EA
:100DF000006840F090001C49083108600020009015
:100E000002E00098401C00904CF25031009888425B
:100E1000F7D315480830006820F003001249083164
:100E2000086011480068114908400F4908600846E9
:100E3000006820F48020086000200B490831086019
:100E400000BF09480830006800200028F9D1084890
:100E50000549091D0860002003490C31086000F0B5
:100E600077FE08BD88ED00E000380240FFFFF6FE87
:100E70001030002410B50121880700F088FF0128F8
:100E800003D10121800700F07FFF07480088401C44
:100E90000549088008460088022804DB00200880F5
:100EA00001200249087010BD100000200E00002033
:100EB00010B501210D4800F06AFF012803D101217E
:100EC0000A4800F061FF0A480088401C00B2084947
:100ED00008800846B0F90000B0F57A7F04DB0020F6
:100EE000088001200349087010BD0000000C00407C
:100EF000120000200F0000200448006820B10348C1
:100F00000068401E0149086070470000180000207A
:100F100008B5002000902449244801F076F860B11B
:100F20002149224801F064F8204800F0BBFFC0B21C
:100F300000909DF8000000F047F81D491B4801F0A3
:100F400064F8012806D11A49184801F051F81748E9
:100F500000F0A8FF1749154801F057F818B31549D4
:100F6000124801F045F82520002807DB00F01F0299
:100F700001219140104A430942F8231000BF6846FE
:100F8000FFF768FE9DF80010084800F090FF0B483E
:100F9000FFF759FE38B100200949087040F20731C7
:100FA000024801F00BF808BD0503050000100140E0
:100FB000000503000703070080E200E0240300208F
:100FC0001400002000BFFEE731B50024012269466D
:100FD0000248FFF74FFBC4B2204638BD3003002063
:100FE0000FB4054B10B503A9044A029800F018F895
:100FF00010BC5DF814FB0000F9120008200000206E
:1010000002E008C8121F08C1002AFAD170477047D1
:10101000002001E001C1121F002AFBD1704700002F
:101020002DE9FF4F8DB09B460F460446002606E093
:1010300025280BD05A460F999047641C761C2078BF
:101040000028F5D111B03046BDE8F08F0025A84644
:101050000122984900E0054314F8013F203B02FAC1
:1010600003F00842F7D120782E2817D114F8010F89
:1010700045F004052A280ED06FF02F022078A0F149
:10108000300109290AD808EB880102EB410100EB85
:101090000108641CF2E757F8048B641C20786C2864
:1010A0000DD004DC4C2812D06A2811D104E0742839
:1010B0000DD07A280CD10AE045F4001507E06178DC
:1010C00045F48015814202D1641C05F58015641C2D
:1010D0002278692A45D008DC002AB3D0582A69D082
:1010E000632A10D0642A08D13BE0702A67D0732AA3
:1010F00013D0752A5CD0782A5CD010465A460F99D6
:101100009047761CD3E017F8040B8DF80000002000
:101110008DF80100E946012003E057F8049B4FF0E9
:10112000FF3069074FF0000501D40AE06D1C45450A
:101130000DDA8542FADB19F805100029F6D106E030
:101140006D1C8542FCDB19F805100029F8D12E44EE
:1011500004E019F8010B5A460F9990476D1EF8D21A
:10116000A5E00A200021CDE90801C5F302500228BC
:101170000DD001CFC117031E71F100030DDA4FF03E
:10118000000CD0EB0C006CEB01012D2308E0FF1DDF
:1011900027F00707F7E80201EDE72B0504D52B231D
:1011A0008DF8283001233BE0EB0739D02023F7E707
:1011B0000A2000E010200021CDE9080107E01020FE
:1011C000002145F00405CDE908014FF00808C5F3FA
:1011D000025002280FD001CF00214FF0000A2B0748
:1011E0001FD5702A0DD0DDE908C38CF0100C5CEA25
:1011F000030C0CD015E0FF1D27F00707F7E80201EC
:10120000EBE740228DF828204FF0010A0BE050EA6E
:10121000010306D030238DF828308DF829200223D1
:101220009A46582A04D024A20DF120090B9209E015
:1012300026A2F9E7DDE90823FEF7D4FF0B9B9B5CB0
:1012400009F8013D50EA0102F4D1ADEB090020306C
:101250000890680701D44FF001080899884502DD1D
:10126000A8EB010000E000208046002506E00AA867
:101270005A46405D0F9990476D1C761C5545F6DB2C
:1012800004E030205A460F999047761CB8F10001CF
:10129000A8F10108F5DC05E019F8010B5A460F9991
:1012A0009047761C0899481E08900029F4DC641CBD
:1012B000C5E60000092801003031323334353637B5
:1012C0003839616263646566000000003031323392
:1012D0003435363738394142434445460000000032
:1012E000044A116821F00F0141EA0002014B1A6023
:1012F00070470000003C024070B504460D4600BF38
:101300000721054800F04BFE0028F9D0E1B2024861
:1013100000F0CDFD204670BD00100140F0B5034641
:101320001C6A5D6A00200DE00126864016403EB131
:1013300087000F26BE40B443860001FA06F6344308
:10134000461CB0B20828EFD3082011E001268640E1
:1013500016405EB1A0F10806B7000F26BE40B543A7
:10136000A0F10806B60001FA06F63543461CB0B2F5
:101370001028EBD31C625D62F0BD81627047816111
:1013800070470AB1816100E08162704702461069CE
:10139000084008B1012070470020FCE7F0B5044682
:1013A0000D4616462168E268002019E001278740B3
:1013B0001F409FB14FEA400C032707FA0CF7B943CF
:1013C000470005FA07F739434FEA400C032707FAAD
:1013D0000CF7BA43470006FA07F73A43471CB8B27E
:1013E0001028E3D32160E260F0BD02465069084056
:1013F00008B1012070470020FCE7F0B50C46154607
:10140000012C03D146681E43466002E046689E43B5
:101410004660826800210DE001268E401E403EB1EC
:101420004F000326BE40B2434E0005FA06F6324393
:101430004E1CB1B21029EFD38260F0BDFFF752FA13
:10144000FFF7A8FA09A0FFF7CBFDFFF78BF90446D9
:1014500021460FA0FFF7C4FD0020FFF711FA03E0BB
:10146000FFF740FBFFF736FBFAE70000496E6974AF
:101470002053797374656D20686173206265656EB1
:101480002066696E69736865642E0D0A00000000AD
:10149000626974302D62697431362069643A257846
:1014A0000D0A00002DE9F04103460D4616460024C2
:1014B0000027A0462A48006800F4E060B0F5E06F1D
:1014C00003D100BF4FF0040830E02548006800F465
:1014D000E060B0F5C06F03D101274FF0030825E0AD
:1014E0001F48006800F4E060B0F5A06F02D1022749
:1014F000B8461BE01A48006800F4E060B0F5806F61
:1015000003D103274FF0010810E01548006800F4EC
:10151000E060B0F5407F03D104274FF0000805E0FC
:101520004FF4A06000F020F80227B846C7F104008D
:1015300005FA00F4C8F104010F20C840304004430C
:1015400024010848C45403F01F01012088405911A8
:10155000890001F1E021C1F80001BDE8F08100003F
:101560000CED00E000E400E002490143024A116092
:10157000704700000000FA050CED00E0044A116815
:1015800021F0F00141EA0002014B1A6070470000AF
:1015900008380240044A116821F4E05141EA00028F
:1015A000014B1A607047000008380240044A116875
:1015B00021F4604141EA0002014B1A6070470000CB
:1015C000083802402DE9F04F8CB0064600200A9002
:1015D0003EA090E8004CC068CDE905BECDF810A053
:1015E00007900FF2EC0ADAE9000ACDE9020A0FF2DD
:1015F000E00ADAE9000ACDE9000A38480068C0F3D9
:1016000081000B900B9820B1012804D0022828D12A
:1016100003E0334927E0334925E03048001F0068E4
:1016200000F03F072D48001F0068C0F3881C2B48BE
:10163000001F0068C0F30140401C4FEA40092748E2
:10164000001F006800F48008B8F5800F01D1254B19
:1016500000E0234BB3FBF7F000FB0CF0B0FBF9F11B
:1016600001E01F4900BF00BF1C480068C0F303141D
:1016700004A8055D21FA05F218480068C0F3822429
:1016800002A8055D22FA05F0099014480068C0F32D
:1016900042341DF8045022FA05F0089036B1012EAC
:1016A00006D0022E06D0032E0AD106E00A9108E0E9
:1016B0000A9206E009980A9003E008980A9000E070
:1016C00000BF00BF0A980CB0BDE8F08F000000001A
:1016D0000000000001020304060708090838024060
:1016E0000024F40040787D0100B51E48006840F0F9
:1016F00001001C490860002000F060F8194808301B
:10170000006820F003001749083108601548006898
:1017100015490840134908600846006820F48020F5
:10172000086010480830006800F443700D49083123
:1017300008600E48091F08600C48103809498431B8
:1017400008600A48091D0860002006490C3108603D
:1017500004488C3000680649084002498C31086012
:1017600000BD000000380240FFFFF6EA1030002400
:10177000FFFFFCFE0146074A02EB9110D0F800087B
:1017800001F01F0301229A40104008B10120704768
:101790000020FCE700300240074A02EB9011D1F82C
:1017A000001800F01F0301229A401143024B03EB83
:1017B0009012C2F80018704700300240F0B506469B
:1017C0000024002700251C2E7DD007DCB6B3102E88
:1017D00010D0182E67D01A2E76D176E0B6F5E05FDD
:1017E00019D0B6F5E85F4CD0A6F540501038002867
:1017F000F2D134E004E01120FFF7BCFF0546641C81
:101800001DB94FF6FF708442F5D11120FFF7B2FFEA
:1018100000B101277AE005E041F60140FFF7AAFF99
:101820000546641C1DB96FF070408442F4D141F646
:101830000140FFF79FFF00B1012767E0FFE704E0E9
:101840000120FFF797FF0546641C15B9B4F5A06F9A
:10185000F6D10120FFF78EFF00B1012756E005E029
:1018600043F21100FFF786FF0546641C15B92948AD
:101870008442F5D143F21100FFF77CFF00B101274C
:1018800044E005E041F60150FFF774FF0546641C93
:1018900015B920488442F5D141F60150FFF76AFF9F
:1018A00000B1012732E004E01920FFF763FF05468D
:1018B000641C15B917488442F6D11920FFF75AFF66
:1018C00000B1012722E010E01FE004E01B20FFF739
:1018D00051FF0546641C15B90E488442F6D11B2001
:1018E000FFF748FF00B1012710E004E01D20FFF7DB
:1018F00041FF0546641C15B906488442F6D11D20F7
:10190000FFF738FF00B1012700E000BF00BF3846F5
:10191000F0BD0000FFFF0F00074A02EB9011D1F865
:10192000001800F01F0301229A401143024B03EB01
:101930009012C2F80018704700300240074A02EBCC
:101940009011D1F8001800F01F0301229A40914332
:10195000024B03EB9012C2F80018704700300240AF
:10196000074A02EB9011D1F8001800F01F03012282
:101970009A401143024B03EB9012C2F800187047D3
:1019800000300240F0B50646059C00251D4807685A
:1019900007F00040B0F1004F07D107F08040B0F1F0
:1019A000804F01D1ED1D00E06D1D022926D33F2996
:1019B00024D805F14000904220D8B2F5FA7F1DD816
:1019C000022B05D0042B03D0062B01D0082B15D1F8
:1019D000022C13D30F2C11D841EA82104FF0010CC6
:1019E000CCEB530C40EA0C40304340EA0460DFF893
:1019F00014C0ACF17C0CCCF8000001E00020F0BD7C
:101A00000120FCE780380240044A116821F00301FC
:101A100041EA0002014B1A6070470000083802409A
:101A20000248006800F00C007047000008380240CF
:101A30006FF08071884205D1054909680140044A68
:101A4000116004E0024909680143014A11607047CE
:101A50008C380240002000213A4A126842F4803259
:101A6000384B1A6000BF401C364A126802F400313D
:101A700019B94FF6FF729042F5D1324A126802F45A
:101A800000320AB900BFFEE72E4A4032126842F027
:101A900080522C4B40331A602B4A126842F4404269
:101AA000294B1A60274A08321268264B08331A60FD
:101AB0001A46126842F400421A601A46126842F44A
:101AC000A0521A60214A1B1F1A601A1F126842F0A6
:101AD00080721B1F1A6000BF1A4A126802F000725F
:101AE000002AF9D0184A126842F48032164B1A6064
:101AF00000BF154A526802F48032002AF9D0124A17
:101B0000126842F40032104B1A6000BF0E4A52684D
:101B100002F40032002AF9D00A4A0832126822F090
:101B20000302084B08331A601A46126842F0020298
:101B30001A6000BF034A0832126802F00802002A45
:101B4000F8D0704700380240007000401978400A11
:101B500010B5FFF77FFF10BD10B504465C49601A51
:101B60008C426FD019DC5B49A4EB01008C424ED053
:101B700009DCB4F1804F2ED057482044A0B3B0F513
:101B8000806F72D13AE0B0F5806F49D0B0F5006F48
:101B90004FD0B0F5406FF4D17BE0B0F5923F5BD011
:101BA00009DCB0F5806F73D0B0F5644F0AD0B0F5A2
:101BB000684F5AD147E0B0F5943F57D0B0F5963F03
:101BC00053D15CE04FF41060FFF7CAFE4FF4106091
:101BD000FFF7B4FE79E04FF40060FFF7C1FE4FF469
:101BE0000060FFF7ABFE70E0FFE740F60100FFF793
:101BF000B7FE40F60100FFF7A1FE66E040F60200E6
:101C0000FFF7AEFE40F60200FFF798FE5DE040F6FB
:101C10000300FFF7A5FE40F60300FFF78FFE54E038
:101C200040F60400FFF79CFE40F60400FFF786FE36
:101C30004BE040F60500FFF793FE40F60500FFF786
:101C40007DFE42E02EE040F60110FFF789FE40F6EF
:101C50000110FFF773FE38E04FF41160FFF780FECC
:101C60004FF41160FFF76AFE2FE02DE040F61110EF
:101C7000FFF776FE40F61110FFF760FE25E040F614
:101C80001210FFF76DFE40F61210FFF757FE1CE032
:101C900011E040F60600FFF763FE40F60600FFF78E
:101CA0004DFE12E040F60700FFF75AFE40F607002F
:101CB000FFF744FE09E040F60800FFF751FE40F64A
:101CC0000800FFF73BFE00E000BF00BF10BD0000B2
:101CD000001C0040000C004000FCFFBF016841F008
:101CE00001010160704700000A8882621D4A90422B
:101CF0000ED0B0F1804F0BD01B4A904208D01B4A47
:101D0000904205D01A4A904202D01A4A90420BD112
:101D1000026822F07002026002684B881A43026077
:101D200002688B881A4302608A68C262124A904233
:101D30000AD0124A904207D0026822F44072026030
:101D40000268CB881A430260064A904202D0094AD0
:101D5000904201D10A7B0263426942F00102426172
:101D600070470000000001400004004000080040EF
:101D7000000C00400004014000100040001400402E
:101D8000C2680A43C2607047CA4302617047024694
:101D9000D06800EA01031069084010B10BB10120BE
:101DA00070470020FCE700210180418081804FF6D0
:101DB000FF7181600021C180017370472DE9F047F8
:101DC00004460D460027B846B94600263349601A36
:101DD0008C4235D00CDC32482044E8B1B0F5806F3D
:101DE0001FD0B0F5006F21D0B0F5406F32D122E0A6
:101DF000B0F5806F29D0B0F5184F03D0B0F51C4F67
:101E000028D104E00320FFF7DDFB074623E0032091
:101E1000FFF7D8FB07461EE00220FFF7D3FB07467B
:101E200019E00220FFF7CEFB074614E00220FFF77F
:101E3000C9FB07460FE00220FFF7C4FB07460AE094
:101E40000220FFF7BFFB074605E00220FFF7BAFBC1
:101E5000074600E000BF00BFE06800F4004070B13A
:101E6000780000EB5500B0FBF5F64FF6F07006EA8F
:101E70000008C6F3420948EA0900A0600CE007EB3D
:101E80005500B0FBF5F64FF6F07006EA000806F0D4
:101E90000F0948EA0900A060BDE8F087007800401B
:101EA00000BCFFBF01464868C0F308007047C1F39B
:101EB000080242607047000010B504463349601ABA
:101EC0008C424DD00CDC32482044E0B1B0F5806F3C
:101ED00022D0B0F5006F31D0B0F5406F52D136E06E
:101EE000B0F5806F45D0B0F5184F03D0B0F51C4F5A
:101EF00048D11AE040F60410FFF732FD40F6041016
:101F0000FFF71CFD3FE040F61100FFF729FD40F60A
:101F10001100FFF713FD36E040F61200FFF720FD39
:101F200040F61200FFF70AFD2DE040F60510FFF71E
:101F300017FD40F60510FFF701FD24E040F6130001
:101F4000FFF70EFD40F61300FFF7F8FC1BE040F62C
:101F50001400FFF705FD40F61400FFF7EFFC12E058
:101F600040F61E00FFF7FCFC40F61E00FFF7E6FC03
:101F700009E040F61F00FFF7F3FC40F61F00FFF7F3
:101F8000DDFC00E000BF00BF10BD00000078004095
:101F900000BCFFBFC16841F40051C160704710B57B
:101FA000024602EB9110006801F01F040123A340D8
:101FB000184008B1012010BD0020FCE710B500EB6F
:101FC0009112126801F01F040123A3409A4300EB11
:101FD00091131A6010BD10B500EB9112126801F058
:101FE0001F040123A3401A4300EB91131A6010BD94
:101FF00010B500EB91521268C1F304440123A340D1
:102000009A4300EB91531A6010BD70B5024600234D
:102010000024C1F38910105801F01F060125B540B6
:1020200000EA050302EB91500068C1F30446012564
:10203000B54000EA050414B10BB1012070BD0020C9
:10204000FCE7C26822F4C062C260C2680A43C26090
:1020500070470A460021C16821F004011143C160A4
:102060007047026922F44052026102690A43026128
:1020700070470A460021C16821F008011143C16080
:102080007047C26822F48052C260C2680A43C260CC
:1020900070470000B4200008000000202400000069
:1020A00000100008D8200008240000201C0B0000AD
:1020B00010100008000000000000000000000000F8
:1020C0000000000000000000000000000000000010
:0820D000001C4E0E0000000090
:04000005080001AD41
:00000001FF
