:020000040800F2
:1000000078570420C1010008D1350008F91A00080A
:1000100041350008D5040008B13D0008000000008B
:100020000000000000000000000000008936000809
:100030002511000800000000D3350008F73A000839
:10004000DB010008DB010008DB010008DB01000820
:10005000DB010008DB010008DB010008DB01000810
:10006000DB010008DB010008DB010008DB01000800
:10007000DB010008DB010008DB010008DB010008F0
:10008000DB010008DB010008DB010008DB010008E0
:10009000DB010008DB010008DB010008DB010008D0
:1000A000DB010008DB010008DB010008DB010008C0
:1000B000C93B0008DB010008DB010008DB01000888
:1000C000DB010008DB010008DB010008DB010008A0
:1000D000DB010008853C0008DB010008DB010008AB
:1000E000DB010008DB010008DB010008DB01000880
:1000F000DB010008DB010008DB010008DB01000870
:10010000DB010008DB010008253C0008DB010008DA
:10011000DB010008DB010008DB010008DB0100084F
:10012000DB010008DB010008DB010008DB0100083F
:10013000DB010008DB010008DB010008DB0100082F
:10014000DB010008DB010008DB010008DB0100081F
:10015000DB010008DB010008DB010008DB0100080F
:10016000DB010008DB010008DB010008DB010008FF
:10017000DB010008DB010008DB01000800000000D3
:10018000DB010008DB010008DB010008DB010008DF
:10019000DB010008DB010008DB01000800000000B3
:1001A000DB010008DB010008DB010008DFF80CD0F0
:1001B00000F068F8004800473F51000878570420D5
:1001C0000648804706480047FEE7FEE7FEE7FEE7F1
:1001D000FEE7FEE7FEE7FEE7FEE7FEE7013B00087D
:1001E000AD0100082DE9F05F0546002092469B46D0
:1001F00088460646814640241BE02846414647463D
:10020000224600F02FF853465A46C01A914110D3A7
:1002100011461846224600F016F82D1A67EB010821
:100220004F4622460120002100F00DF817EB00098F
:100230004E41201EA4F10104DFDC484631462A4627
:100240004346BDE8F09F202A04DB203A00FA02F181
:10025000002070479140C2F1200320FA03F31943B4
:1002600090407047202A04DB203A21FA02F0002156
:10027000704721FA02F3D040C2F1200291400843B6
:1002800019467047064C074D06E0E06840F0010350
:1002900094E8070098471034AC42F6D3FFF78AFF82
:1002A000444A0308644A030802468A4202DD501A9F
:1002B00080B27047881A80B2FBE700002DE9F04F4A
:1002C0008BB006460F469046706801F0EBFA6B481B
:1002D000008844F64251884205D069A003F076FDBB
:1002E0000BB0BDE8F08F7048C08920280BD06E4855
:1002F000C089182807D06C48C089102803D06BA08B
:1003000003F064FDECE7BA46C346674840685746C9
:1003100038440A9064488068D84600EB08096C4865
:10032000017F0C3050F821100A98814205D86848A6
:10033000017F0C3050F821000A906548017F14308D
:1003400050F82100484504D86148017F143050F826
:100350002190A9F10100039000200490D84687E085
:100360007068049901F080FB054600240498401C45
:100370000490574674E04C48C089202841D1285D3C
:10038000C0100790601C285C80100890A01C285C9E
:10039000C0100990E01C285C06900998C1020898DA
:1003A00041EA4010079908430590241D307890B920
:1003B0003846039902F034FF0290059A91B2029AEE
:1003C00090B2069A00F0A0F801903846019A03997D
:1003D00002F002FD43E03078012809D171780698D7
:1003E00081423CDC3846059A039902F0F5FC36E080
:1003F0003078022833D13846059A039902F0ECFC94
:100400002DE02948C089182819D1285DC01007900F
:10041000601C285C80100890A01C285CC01009900B
:100420000998C102089841EA4010079908430590CD
:10043000E41C3846059A039902F0CEFC0FE01A48F6
:10044000C08910280BD1295D601C285C41EA00207E
:100450000590A41C3846059A039902F0BDFC7F1C48
:100460000A98874287D30398401E039008F1010839
:10047000C845FFF475AF00BF32E70000D41000207C
:10048000424D50446973706C61793A2074686973A5
:10049000206973206E6F74206120424D5020666980
:1004A0006C650D0A00000000E2100020424D50442F
:1004B0006973706C61793A20756E737570706F72C4
:1004C00074656420666F726D61742121210D0A00CC
:1004D000A400002000BFFEE7014600200BE000EB77
:1004E000C002074B03EBC2028A4202D1054A1070D8
:1004F0007047421CD0B20328F1DB00BFF8E70000D0
:100500006C1100201C0000202DE9FC4F03460C4616
:10051000052A02DA1846BDE8FC8FDD0AC3F345164A
:1005200003F01F074FEAD42CC4F3451804F01F0052
:10053000019011460CFB01F0C1F1FF0E05FB0E000E
:100540004FF0FF0E90FBFEF01FFA80F908FB01F060
:10055000C1F1FF0E06FB0E004FF0FF0E90FBFEF008
:100560001FFA80FA01984843C1F1FF0E07FB0E0005
:100570004FF0FF0E90FBFEF01FFA80FB4FEAC92000
:1005800040EA4A1040EA0B0080B200900098C2E7AF
:1005900010B5044694F82400012805D1206C58B108
:1005A0002046216C884707E094F8240020B9606C4D
:1005B00010B12046616C884710BD00000020014941
:1005C00008707047820000200020014908707047C1
:1005D0008000002000200149087070478100002041
:1005E00010B54FF40071184804F0F5F940F60440D6
:1005F00005F03EFA082301221146144804F0F7F9E9
:10060000082303220021114804F018FA08210F489A
:1006100004F0E1F90A2000F08DFD08210B4804F0F8
:10062000DCF9012000F086FD4FF40071064804F06B
:10063000D4F90A2000F07EFD082300221146034869
:1006400004F0D5F910BD000000180240001002406F
:1006500010B540F6014005F00BFA40230122114687
:10066000184804F0C4F9402303220021154804F07F
:10067000E5F94021134804F0B0F980230122114626
:10068000104804F0B4F98023032200210D4804F03F
:10069000D5F980210B4804F0A0F94FF40073012232
:1006A0001146094804F0A3F94FF400730322002116
:1006B000054804F0C3F94FF40071034804F08BF9C6
:1006C00010BD0000000402400018024010B540F6C2
:1006D000014005F0CDF940F6084005F0C9F92023A6
:1006E00001221146104804F082F920230222002141
:1006F0000D4804F0A3F920210B4804F06EF94FF4E3
:10070000807301221146094804F071F94FF4807397
:1007100002220021054804F091F94FF4807103484A
:1007200004F059F910BD000000040240002002400E
:1007300010B54FF4A06005F02DF810BD10B54FF0C6
:10074000807005F0EFF910BD10B5044640F6014089
:1007500005F08EF9012C0CD18023012211460948A5
:1007600004F045F9802303220021064804F066F9CD
:1007700006E02CB9802301220021024804F037F959
:1007800010BD000000040240F0B597B006460027F7
:100790004FF6FF744FF4606005F06AF94FF4406063
:1007A00005F066F940F6014005F062F940F60240B6
:1007B00005F05EF940F6034005F05AF940F60440B2
:1007C00005F056F940F6054005F052F940F60640AE
:1007D00005F04EF940F6074005F04AF940F60840AA
:1007E00005F046F901220C21FE4804F0C5F801236A
:1007F00000220221FB4804F0FAF801230322002121
:10080000F84804F01BF902220C21F64804F0B4F871
:10081000022300221946F34804F0E9F802230322D8
:100820000021F04804F00AF904220C21ED4804F0FC
:10083000A3F8042300220221EA4804F0D8F8042394
:1008400003220021E74804F0F9F808220C21E548CA
:1008500004F092F8082300220221E24804F0C7F8CD
:10086000082303220021DF4804F0E8F810220C21BD
:10087000DC4804F081F8102300220221D94804F05A
:10088000B6F8102303220021D64804F0D7F820221E
:100890000C21D44804F070F8202300220221D14812
:1008A00004F0A5F8202303220021CE4804F0C6F866
:1008B0004FF480520C21CB4804F05EF84FF4805383
:1008C00000220221C74804F092F84FF4805303221B
:1008D0000021C44804F0B2F84FF400520C21C14882
:1008E00004F04AF84FF4005300220221BD4804F0FE
:1008F0007EF84FF4005303220021BA4804F09EF81A
:100900004FF480420C21B74804F036F84FF480438E
:1009100000220221B34804F06AF84FF48043032216
:100920000021B04804F08AF84FF400420C21AD4891
:1009300004F022F84FF4004300220221A94804F0F9
:1009400056F84FF4004303220021A64804F076F83D
:1009500001220C21A44804F00FF8012300220221F7
:10096000A14804F044F80123032200219E4804F02A
:1009700065F802220C219C4803F0FEFF02230022AE
:100980001946994804F033F80223032200219648BF
:1009900004F054F804220C21934803F0EDFF0423E3
:1009A00000220221904804F022F8042303220021AF
:1009B0008D4804F043F84FF480420C218B4803F03B
:1009C000DBFF4FF4804300220221884804F00FF837
:1009D0004FF4804303220021844804F02FF84FF4A1
:1009E00000420C21814803F0C7FF4FF4004300226E
:1009F00002217E4803F0FBFF4FF400430322002155
:100A00007A4804F01BF801220C21784803F0B4FF67
:100A1000012300220221754803F0E9FF012303228C
:100A20000021724804F00AF802220C216F4803F0FA
:100A3000A3FF0223002219466C4803F0D8FF0223CB
:100A400003220021694803F0F9FF80220C21684845
:100A500003F092FF802300220221654803F0C7FFC4
:100A6000802303220021624803F0E8FF4FF48072E4
:100A70000C215F4803F080FF4FF4807300220221B5
:100A80005B4803F0B4FF4FF4807303220021584801
:100A900003F0D4FF4FF400720C21554803F06CFFB3
:100AA0004FF4007300220221514803F0A0FF4FF4DD
:100AB0000073032200214E4803F0C0FF4FF4806210
:100AC0000C214B4803F058FF4FF4806300220221B1
:100AD000474803F08CFF4FF4806303220021444811
:100AE00003F0ACFF4FF400620C21414803F044FFD7
:100AF0004FF40063002202213D4803F078FF4FF4D9
:100B00000063032200213A4803F098FF4FF480521B
:100B10000C21374803F030FF4FF4805300220221AC
:100B2000334803F064FF4FF4805303220021304820
:100B300003F084FF4FF400520C212D4803F01CFFFA
:100B40004FF4005300220221294803F050FF4FF4D4
:100B5000005303220021264803F070FF4FF4804227
:100B60000C21234803F008FF4FF4804300220221A8
:100B70001F4803F03CFF4FF48043032200211C4830
:100B800003F05CFF4FF400420C21194803F0F4FE1F
:100B90004FF4004300220221154803F028FF4FF4D0
:100BA000004303220021124803F048FF4FF48072F3
:100BB0000C210E4803F0E0FE4FF480730022022166
:100BC0000A4803F014FF4FF4807303220021074802
:100BD00003F034FF4FF400720C21044803F0CCFE04
:100BE00008E000000014024000180240000C02401F
:100BF000001002404FF4007300220221B14803F0BC
:100C0000F6FE4FF4007303220021AE4803F016FFF6
:100C10004FF480620C21AB4803F0AEFE4FF48063CA
:100C200000220221A74803F0E2FE4FF48063032272
:100C30000021A44803F002FF10220C21A24803F077
:100C40009BFE1023002202219F4803F0D0FE1023B8
:100C5000032200219C4803F0F1FE20220C219A4837
:100C600003F08AFE202300220221974803F0BFFEF2
:100C7000202303220021944803F0E0FE01220C21EE
:100C8000924803F079FE0123002202218F4803F0ED
:100C9000AEFE0123032200218C4803F0CFFE022286
:100CA0000C218A4803F068FE022300221946874877
:100CB00003F09DFE022303220021844803F0BEFEC0
:100CC00020220C21824803F057FE2023002202211B
:100CD0007F4803F08CFE2023032200217C4803F090
:100CE000ADFE4FF400420C21774803F045FE4FF46F
:100CF000004300220221744803F079FE4FF40043C0
:100D000003220021704803F099FE4FF400620C2189
:100D1000704803F031FE4FF40063002202216D4859
:100D200003F065FE4FF4006303220021694803F0DD
:100D300085FE40220C21664803F01EFE402300225F
:100D40000221634803F053FE402303220021604840
:100D500003F074FE80220C215D4803F00DFE802319
:100D6000002202215A4803F042FE80230322002180
:100D7000574803F063FE4FF480720C21524803F091
:100D8000FBFD4FF48073002202214F4803F02FFE39
:100D90004FF48073032200214B4803F04FFE042ED2
:100DA00001D1102500E008250A2000F0C3F9022037
:100DB0000B9006200A90032009900520089001203E
:100DC0000790069005900C9615900820149010201E
:100DD00013904020129080001190002010904FF44A
:100DE00040600F9001200E9000200D9005A81690F5
:100DF0000CA803F011FD012004900395002002903F
:100E000001904FF6FF7400E0641E2021304603F08D
:100E1000DBFC08B1002CF7D101A803F0EFFC0A209D
:100E200000F088F9022004900395002002900190C0
:100E30004FF6FF7400E0641E2021304603F0C4FC2E
:100E400008B1002CF7D101A803F0D8FC03200490CE
:100E50000395E0200290002001904FF6FF7400E01F
:100E6000641E2021304603F0AFFC08B1002CF7D1FE
:100E700001A803F0C3FC40F221270420049003954D
:100E80000020029001974FF6FF7400E0641E2021BD
:100E9000304603F099FC08B1002CF7D101A803F00B
:100EA000ADFC4FF4177003F043FD4FF6FF7400E004
:100EB000641E2021304603F087FC08B1002CF7D1D6
:100EC00017B0F0BD000C02400018024000100240B4
:100ED000001C0240001402407FB504460D464FF44A
:100EE000805004F0C5FD4FF0804004F0F3FE6846EA
:100EF00005F017F8ADF800500020ADF8040002949A
:100F0000ADF8060069464FF0804004F0ABFF0121C8
:100F1000880704F0F3FF002201211C2004F0D8FB15
:100F20004FF0804004F098FF7FBD00007FB504467D
:100F30000D4641F2030004F09BFD0F4804F0CAFE89
:100F4000684604F0EEFFADF800500020ADF8040054
:100F50000294ADF806006946074804F083FF0121BA
:100F6000054804F0CBFF00220121322004F0B0FB41
:100F7000014804F071FF7FBD000C004010B504462D
:100F800000221146252004F0A3FB4FF4406004F03A
:100F90006FFD4FF400720721264803F0EDFC4FF47B
:100FA00080620721234803F0E7FC4FF4007301221D
:100FB0000221204803F01BFD4FF4007302220021A0
:100FC0001C4803F03BFD4FF48063002202211948C6
:100FD00003F00DFD41F2041004F04AFD164805F03F
:100FE000C1F92146144805F03FF90021124805F0E7
:100FF0008EFA0021104805F09AFA00210E4805F0FB
:1010000076FA04210C4805F07AFA08210A4805F01E
:1010100086FA094805F014FA40F20531064805F051
:1010200030FA40F20731044805F02BFA002003495A
:10103000087010BD00000240001001409400002024
:1010400038B50446A06A28B1A06A009094E80F0061
:1010500000F09CFB002084F82400204600F0D0F82B
:10106000204600F047F938BD10B519200F49086037
:101070008C20486040F2EE208860E620C8600A209C
:1010800008614861002088614FF4FC60C8614FF638
:10109000CA500862002048620A2088620448C86278
:1010A00004480863084600F00FF910BD4412002000
:1010B000781200209815002038B50446A06808B1C1
:1010C000E06808B9012038BDA069009094E80F00DD
:1010D00000F05CFB0148E0610020F4E7B13A000851
:1010E00030B50346002016E0B3F900509C68645DFB
:1010F0000C541C88641C24B21C80B3F90040B3F962
:101100000450AC4201DB00241C80441C20B2DC886B
:10111000641E24B2DC80B3F90640002C01DD90424D
:10112000E2DB30BD704710B5044604EB840000F0EC
:1011300013F810BD01B50749009808604FF0E02092
:1011400040694FF0E021886100BF02480068002834
:10115000FBD108BD9800002001B5009806E00021F1
:1011600001E04A1C91B22629FBDB401E0028F6D183
:1011700008BD70B504460D461646A07820B9324623
:1011800029462046FFF79AF870BD000000B585B0EB
:101190000548009049F2D520029000221146684689
:1011A00000F004F805B000BDBE81000870B5A0B025
:1011B00004460E461546206808B1A06820B90C48C0
:1011C00002F004FE20B070BDE66025610020606082
:1011D0004FF48053074A084901A8009403F0E1FD49
:1011E00020B90022054901A803F08AFD00BFE9E704
:1011F000004A0308D40000205D2B0008A92B00083A
:101200002DE9F843044625686668A16820684718F8
:10121000E168606800EB0108A06A28B1A06A00904C
:1012200094E80F0000F01EF994F8240018BB94F81D
:101230003500052808D1E06B43463A463146009018
:10124000284600F08FF93DE094F83500042839D0A5
:10125000206B40B9E06B43463A4631460090284641
:1012600000F080F92EE094F8353031462846226BA4
:1012700000F036F926E094F82400012822D194F8F1
:101280003400052808D1A06B43463A463146009009
:10129000284600F067F915E094F83400042811D0CE
:1012A000E06A40B9A06B43463A4631460090284672
:1012B00000F058F906E094F8343031462846E26AE6
:1012C00000F00EF9BDE8F8832DE9F84304462568DF
:1012D0006668A16820684718E168606800EB01084B
:1012E000A06943463A4631460090284600F03AF954
:1012F000BDE8F8832DE9FF410446216920684518BF
:10130000616960684618207E00F0BEFAA168B1FBF2
:10131000F0F701210022E06901AB83C30092237E34
:1013200031462846226A00F0F1F8BDE8FF8170B529
:101330000346002016E00C5CB3F902609D68AC55D2
:101340005C88641C24B25C80B3F90240B3F9045099
:10135000AC4201DB00245C80441C20B2DC88641CAD
:1013600024B2DC80B3F90640B3F90450AC4201DA90
:101370009042E0DB70BD000010B54FF480110220F8
:1013800002F012F906490860012006490870044875
:10139000016805A002F01AFD022004F0F7FE10BD5E
:1013A0007000002074000020D6B8D5EBCAFDD6B579
:1013B000A3BA3078253038580D0A000010B50C4813
:1013C000007840B90B480168012002F0DBF80120E9
:1013D00004F0DCFE0BE006480078012807D1054840
:1013E0000168022002F0CEF8022004F0CFFE10BD0A
:1013F00074000020700000202DE9F04104460E46E4
:101400001548005D38B914482038016820468847DF
:101410000120BDE8F081114850F82400B04219D9EC
:101420000F4850F82400B6FBF0F70B480C3850F882
:10143000240050F82780002508E0002106480C38D9
:1014400050F824007A1940F822106D1C4545F4DB51
:101450000020DEE70220DCE768000020F4490308F2
:10146000E84903082DE9F84F04460D4616461F4685
:10147000DDF82880A019A0F10109E819A0F1010AFE
:1014800053464A4629462046CDF8008001F0F4FB39
:10149000BDE8F88F2DE9FF4F83B0804617461C4604
:1014A000DDE911ABDDF840900CB9002506E0012C18
:1014B00001D1012502E0022C00D10225BBF1000F71
:1014C00001D1002600E0012633462A46CDE900A9D5
:1014D00002974046049901F0CBFE07B0BDE8F08FBB
:1014E0002DE9F04105460E4617461C462CB93246FA
:1014F00029463846FFF73DFE06E0012C04D132466E
:1015000029463846FFF752FEBDE8F0812DE9FF4F2E
:1015100085B0054616461F46DDE914ABDDE91289A4
:10152000384600F0B1F90490344612E020787E2865
:101530000EDC207820280BDB8DE8000722783B4664
:1015400028460699FFF7A6FF641C0498054400E0AE
:1015500004E0BBF10000ABF1010BE7D100BF09B023
:10156000BDE8F08F2DE9F84304460D4616461F46A8
:10157000DDF820803B46324629462046CDF80080E3
:1015800001F008FDBDE8F88310B500F0ABFA10BD1E
:101590002DE9F04106460F461446052C06D34FF0C0
:1015A000FF30306038600020BDE8F08100F0A0FA24
:1015B0000546681C005D01280ED104EB4401A81DFE
:1015C00030F81100306004EB4401A81D00EB41002D
:1015D000408838600120E7E74FF0FF303060386026
:1015E0000020E1E7F0B502460B46642A01DC642BDB
:1015F00000DDF0BD224E3668214F3F69F419204EC0
:1016000036681F4FBF683E441D4F3F69F51B2E1BB8
:10161000711C1B4EB66AB1FBF6F1194E766A8E420A
:101620000FD2174EF66A164F7F6AF255144E366B7C
:10163000134F7F6AF355124E766A761C104F7E6206
:101640001BE000200EE00E4EF76A461CBE5D0C4FFC
:10165000FF6A3E540A4E376B461CBE5D084F3F6B17
:101660003E54401C4E1E8642EDD8054EF76A4E1E73
:10167000BA55034E376B4E1EBB5500BFB9E700008D
:10168000441200202DE9FE4F3B4800683A490969A1
:101690000844029038484068374949694718364835
:1016A00040683549C968084433494969A0EB010AD3
:1016B0003148406A0190AAEB070000F101080024BC
:1016C00053E02D48816A029804FB01092A48806A88
:1016D00000EB090B284880690AF101035A46394694
:1016E00000904846FFF73EFF2348C06A055DC5F1FC
:1016F000640508FB05F06421B0FBF1F53D441E488C
:10170000C16A601C0E5CC6F1640608FB06F0642129
:10171000B0FBF1F63E441848C06933465A462946A4
:101720000090484601F0E6FA1348006B055DC5F1EC
:10173000640508FB05F06421B0FBF1F53D440E485B
:10174000016B601C0E5CC6F1640608FB06F06421A8
:10175000B0FBF1F63E440848006A33465A46294633
:101760000090484601F0C6FA641C0198401EA04251
:10177000A7D8BDE8FE8F00004412002070B50446D3
:101780000D462946204601F04BFD70BD2DE9FF5F57
:1017900005460E469146DDF838A0BAF1000F01D19A
:1017A000BDE8FF9FD3464FF0000834460FE02F46B8
:1017B00008E021463846FFF7E1FF2BF8180008F152
:1017C00001087F1C05EB0900B842F2D8641C03989D
:1017D0003044A042EBD800BFE2E7000010B502F0B1
:1017E00011F80446042C1ED044B91B4800688068D8
:1017F000C8B1194909688868804714E0012C08D1EC
:1018000015480068C06870B113490968C868804706
:1018100009E0022C07D110480068006918B10E4990
:10182000096808698047FFF7AFFE0C4A03C20B48FE
:10183000D0E900100A4B0CCB8A1A60EB03004FF47E
:101840007A7300219A1A814105D2044903C9044AD6
:1018500003C2FFF717FF10BD30000020400000203A
:101860003800002001480078704700008200002006
:10187000014800787047000080000020014800788F
:101880007047000081000020014609B9062070471A
:10189000012901D10820FAE7022901D10C20F6E73D
:1018A0000020F4E7014600228B5C501C085C43EAF0
:1018B00000206B4B188002228B5C501C085C43EAB2
:1018C0000023901C085C43EA0043D01C085C43EAF8
:1018D0000060634BC3F8020006228B5C501C085C5E
:1018E00043EA00205E4BD88008228B5C501C085CC9
:1018F00043EA00205A4B18810A228B5C501C085C7A
:1019000043EA0023901C085C43EA0043D01C085CB7
:1019100043EA0060524BC3F80A000E228B5C501C55
:10192000085C43EA0023901C085C43EA0043D01C97
:10193000085C43EA00604B4B186012228B5C501C21
:10194000085C43EA0023901C085C43EA0043D01C77
:10195000085C43EA0060434B586016228B5C501CC5
:10196000085C43EA0023901C085C43EA0043D01C57
:10197000085C43EA00603B4B98601A228B5C501C69
:10198000085C43EA0020374B98811C228B5C501C7A
:10199000085C43EA0020334BD8811E228B5C501C2C
:1019A000085C43EA0023901C085C43EA0043D01C17
:1019B000085C43EA00602B4B186122228B5C501CB0
:1019C000085C43EA0023901C085C43EA0043D01CF7
:1019D000085C43EA0060234B586126228B5C501C54
:1019E000085C43EA0023901C085C43EA0043D01CD7
:1019F000085C43EA00601B4B98612A228B5C501CF8
:101A0000085C43EA0023901C085C43EA0043D01CB6
:101A1000085C43EA0060134BD8612E228B5C501C9B
:101A2000085C43EA0023901C085C43EA0043D01C96
:101A3000085C43EA00600B4B186232228B5C501C3E
:101A4000085C43EA0023901C085C43EA0043D01C76
:101A5000085C43EA0060034B5862002070470000B6
:101A6000D4100020E210002030B502460B46154D80
:101A7000ED89202D03D1134D6D68A9001BE0114D98
:101A8000ED89182D0AD10F4D6D6805EB450100E079
:101A9000491C01F00305002DFAD10CE0094DED8938
:101AA000102D08D1074D6D68690000E0491C01F058
:101AB0000305002DFAD1044DD5F80A5001FB03545B
:101AC000101930BDE2100020D410002010B5802184
:101AD000034802F084FF08B9002010BD0120FCE794
:101AE00000040240014903C970470000880000203B
:101AF000004870472411002000BFFEE710B50446DF
:101B00000120216988470020A16888470120616978
:101B10008847012061688847012061698847012062
:101B2000A1688847012061698847002021698847AA
:101B300010BD70B5044601250020216988470120A9
:101B40006169884701206168884701206169884789
:101B5000E068804705460020616888470120616988
:101B60008847284670BD2DE9F04106460F461446C9
:101B70001D46DDF81880304600F0E0F8307820F09F
:101B80000101304600F0A9F8012805D13046FFF7E1
:101B9000B5FF0120BDE8F0813912304600F09DF814
:101BA000012804D13046FFF7A9FF0120F2E7F9B27E
:101BB000304600F092F8012804D13046FFF79EFF2E
:101BC0000120E7E73046FFF799FF304600F0B6F80E
:101BD000307840F00101304600F07FF8012804D150
:101BE0003046FFF78BFF0120D4E70EE0012D05D131
:101BF0004146304600F010F8207004E000213046E5
:101C000000F00AF82070641C6D1E002DEED13046E5
:101C1000FFF774FF0020BDE72DE9F04104460D46B3
:101C20000026002700202169884700BF12E001201C
:101C300061688847012061698847E068804740EA19
:101C40004700C7B200206168884701206169884762
:101C5000701CC6B2082EEADB1DB9204600F007F85A
:101C600002E0204600F01EF83846BDE8F08110B5CD
:101C700004460120216988470020A1688847012087
:101C80006169884701206168884701206169884748
:101C90000020616888470120616988470020216928
:101CA000884710BD10B504460120216988470120EE
:101CB000A1688847012061698847012061688847D9
:101CC00001206169884700206168884701206169B7
:101CD000884700202169884710BD2DE9F04104465E
:101CE0000D460026012701202169884700BF1CE01E
:101CF00005F0800018B10120A168884702E00020AB
:101D0000A16888476806050E01206169884701209F
:101D100061688847012061698847002061688847B9
:101D2000012061698847701CC6B2082EE0DB20469E
:101D3000FFF7FFFE07463846BDE8F08110B50446C0
:101D40000020616888470120616988470120216976
:101D500088470120A16888470120616988470120E0
:101D6000616888470120616988470020A168884729
:101D70000120616988470020616888470120616906
:101D8000884700202169884710BD2DE9F0410646AB
:101D90000C4615461F463046FFF7D0FF307820F03E
:101DA00001013046FFF799FF012805D13046FFF7C2
:101DB000A5FE0120BDE8F08121123046FFF78DFF1E
:101DC000012804D13046FFF799FE0120F2E7E1B285
:101DD0003046FFF782FF012804D13046FFF78EFE20
:101DE0000120E7E70BE015F8011B3046FFF775FF10
:101DF000012804D13046FFF781FE0120DAE7381EC2
:101E0000A7F10107EFD13046FFF778FE0020D1E7B8
:101E100010B54FF42051012001F0C6FB06490860BF
:101E20000020064908700448016805A001F0CEFFB3
:101E3000012004F0ABF910BD7000002074000020F8
:101E4000D6B8D5EBCAFDD6B5A3BA30782530385808
:101E50000D0A0000704700000021016041608221EE
:101E600081604121C160232101611421416102216E
:101E700001764FF6FF71C1610BA10162002180F86C
:101E8000241080F825108162C162016380F834104B
:101E900080F835104FF4FC6181631F21C16300217C
:101EA0000164416470470000427574746F6E0000F5
:101EB0000EB5FEF7CDFBFEF793FB28201249087004
:101EC00012484860124888601248C8601248086189
:101ED000124848616420FFF72DF90120042301AA6C
:101EE00048F2401100900848FFF73DFE18B10CA0E1
:101EF00001F06CFF0EBD00208DF8080001A910A0B4
:101F000001F064FF00BFF5E70C110020713A0008F2
:101F1000913A0008CD1A0008490700082711000867
:101F2000496E6974475431313531513A20466169FF
:101F30006C20746F206765742069640D0A000000CE
:101F4000546F7563682049443A2025730D0A0000D8
:101F500010B588B00446002000F0B8FE4FF6FF70C0
:101F600000F048FEFFF712F900F030F9FFF77CF8B7
:101F7000764860617648A0617648E0610F200121D3
:101F80004FF6FF720023CDE90032CDE902100223A3
:101F900071A228213220FFF7B9FA0F2001214FF654
:101FA000FF720023CDE90032CDE9021002236CA2BA
:101FB00040213220FFF7AAFA6B4800F035FD862059
:101FC0006949086040204860482088606748886107
:101FD0000846FFF771F8644865A1C26990470F2071
:101FE00001214FF6FF720023CDE90032CDE9021046
:101FF000022360A258213220FFF788FA5F4800F0E0
:1020000013FD594800685D490860582048605648EB
:10201000806888605A4888610846FFF74DF8206854
:10202000820A58A104A801F0E1FE544804A9C2693B
:1020300090472068820A55A104A801F0D7FE0F201E
:1020400001214FF6FF720023CDE90032CDE90210E5
:10205000022304AA70213220FFF758FA0F20012131
:102060004FF6FF720023CDE90032CDE902100223C2
:1020700049A2282140F2A910FFF748FA0F200121B8
:102080004FF6FF720023CDE90032CDE902100223A2
:1020900033A2402140F2A910FFF738FA404800F07F
:1020A000C3FC40F2FD103E490860402048605420C7
:1020B00088603C4888610846FEF7FEFF38483AA130
:1020C000C26990470F2001214FF6FF720023CDE92E
:1020D0000032CDE90210022326A2582140F2A910B5
:1020E000FFF714FA314800F09FFC2D4800682F4993
:1020F000086058204860542088602D488861084650
:10210000FEF7DAFF6068020D2AA104A801F06EFE56
:10211000264804A9C26990476068020D27A104A857
:1021200001F064FE0F2001214FF6FF720023CDE97C
:102130000032CDE90210022304AA702140F2A91056
:10214000FFF7E4F92048046008B010BDE515000869
:10215000753D0008393D0008496E5352414D00005D
:1021600055736167653A2000B818002038190020BF
:10217000304B420046726565203A2000D818002096
:10218000B826002025644B4200000000546F7461A3
:102190006C3A2025644B42004578534452414D002F
:1021A000F818002038340020304D42001819002063
:1021B000B841002025644D4200000000546F746156
:1021C0006C3A2025644D42003000002010B50120FB
:1021D0003B490870C8204870002088703948486022
:1021E000012039490870C82048700020887037489D
:1021F00048600420364908703648FFF72DFE6420F9
:102200003449086080004860822088603220C860BD
:102210001D2008610D2048612FA008622848C8626F
:10222000294808632E4808640846FEF709FF294834
:102230004830FFF711FE40F24F10264988640846E7
:102240004168C1648221016532214165192181659E
:102250000D21C16523A18166194941671A4981672A
:102260001F49C0F888104830FEF7EAFE1948903040
:10227000FFF7F2FD40F23A201649C1F890000846F7
:102280004168C0F894108221C0F898103221C0F83B
:102290009C102921C0F8A0100D21C0F8A41013A192
:1022A000C0F8B0100649C0F8BC100749C0F8C0100B
:1022B0000B49C0F8D0109030FEF7C2FE10BD0000F0
:1022C00020000020A77D020828000020C1E30208AA
:1022D0001C0000206C110020496E5352414D00003B
:1022E000D90400084578534452414D004672656553
:1022F0000000000010B501F003FC00F04FFB00F0FF
:1023000037FB4FF4E13000F0D3FB00F09CFB00F012
:1023100063FB00F047FB10BD7047000010B58EB0A6
:102320004FF44870FE4908604FF4F0704860002098
:1023300008720877FB4808624FF050404862FA483C
:1023400088620220C86200240AE0F54801680C3067
:1023500040F824100C384168143040F82410641CF4
:10236000022CF2D341F21A1003F082FB4FF44060CA
:1023700003F07EFB40F6014003F07AFB40F602409A
:1023800003F076FB40F6034003F072FB40F6044096
:1023900003F06EFB40F6054003F06AFB40F6064092
:1023A00003F066FB40F6074003F062FB40F608408E
:1023B00003F05EFB04220E21DC4802F0DDFA042368
:1023C00000220221D94802F012FB0423022200213C
:1023D000D64802F033FB08220E21D44802F0CCFA92
:1023E000082300220221D14802F001FB0823022227
:1023F0000021CE4802F022FB4FF480720E21CB4820
:1024000002F0BAFA4FF4807300220221C74802F0AA
:10241000EEFA4FF4807302220021C44802F00EFB52
:1024200001220921C24802F0A7FA01230022022159
:10243000BF4802F0DCFA012302220021BC4802F06E
:10244000FDFA4FF480620E21B84802F095FA4FF47D
:10245000806300220221B54802F0C9FA4FF480637C
:1024600002220021B14802F0E9FA4FF400620E2185
:10247000AE4802F081FA4FF4006300220221AB481B
:1024800002F0B5FA4FF4006302220021A74802F0DF
:10249000D5FA02220921A64802F06EFA0223002290
:1024A0001946A34802F0A3FA02231A460021A048C5
:1024B00002F0C4FA40220E219E4802F05DFA402349
:1024C000002202219B4802F092FA402302220021BE
:1024D000984802F0B3FA20220E21974802F04CFAF5
:1024E000202300220221944802F081FA20230222B4
:1024F0000021914802F0A2FA40220E218E4802F0FB
:102500003BFA4023002202218B4802F070FA40235C
:1025100002220021884802F091FA4FF400520E2165
:10252000824802F029FA4FF40053002202217F482A
:1025300002F05DFA4FF40053022200217B4802F0C2
:102540007DFA4FF4806209217A4802F015FA4FF4BF
:10255000806300220221774802F049FA4FF4806339
:1025600002220021734802F069FA4FF400420E2162
:102570006E4802F001FA4FF40043002202216B483A
:1025800002F035FA4FF4004302220021674802F0BE
:1025900055FA01220E21694802F0EEF901230022CA
:1025A0000221664802F023FA012302220021634837
:1025B00002F044FA02220E21604802F0DDF9022303
:1025C000002219465D4802F012FA02231A46002141
:1025D0005A4802F033FA04220E21584802F0CCF98E
:1025E000042300220221554802F001FA04230222AA
:1025F0000021524802F022FA10220E214E4802F029
:10260000BBF91023002202214B4802F0F0F91023FD
:1026100002220021484802F011FA4FF480520E21A4
:10262000444802F0A9F94FF48053002202214148A6
:1026300002F0DDF94FF48053022200213D4802F000
:10264000FDF940220E213E4802F096F94023002277
:1026500002213B4802F0CBF94023022200213848F6
:1026600002F0ECF94FF400620E21324802F084F9D6
:102670004FF40063002202212E4802F0B8F94FF413
:102680000063022200212B4802F0D8F910220E210B
:102690002A4802F071F9102300220221274802F093
:1026A000A6F9102302220021244802F0C7F90822CB
:1026B0000E21244802F060F908230022022121485B
:1026C00002F095F90823022200211E4802F0B6F913
:1026D0004FF480720E21164802F04EF94FF48073C9
:1026E00000220221124802F082F94FF48073022284
:1026F00000210F4802F0A2F94FF400720E210C489D
:1027000002F03AF94FF4007300220221084802F067
:102710006EF94FF4007302220021054814E0000016
:10272000A4000020000000D0C0BB0BD0001C024061
:102730000004024000180240001002400020024045
:10274000000C02400000024002F078F94FF4806271
:102750000E21674802F010F94FF480630022022135
:10276000634802F044F94FF480630222002160487C
:1027700002F064F94FF400720E215E4802F0FCF89A
:102780004FF40073002202215A4802F030F94FF44E
:10279000007302220021574802F050F94FF4806282
:1027A0000E21544802F0E8F84FF480630022022121
:1027B000504802F01CF94FF48063022200214D487A
:1027C00002F03CF980220E214B4802F0D5F880231C
:1027D00000220221484802F00AF980230222002147
:1027E000454802F02BF94FF40053012211464348AB
:1027F00002F0FDF84FF40053022200213F4802F09E
:102800001DF94FF400513D4802F0E7F803F09BFB3F
:1028100001A803F0A9FC04221146F02003F05EF9A0
:1028200008B900BFFEE7002003F08EF91C2003F07A
:102830005FF81C2003F06EF808B900BFFEE7002027
:102840000A900B900C900D902F20ADF806000220FE
:10285000ADF804008720ADF80A002220ADF808008A
:1028600040F2A730049040F20220039040F2CF30B3
:10287000069040F20F2005900020079008900990E4
:1028800001A803F087FB4FF4F0704FF44873002267
:1028900011460090104600F0DBFB4FF4F0704FF44F
:1028A0004873002211460090012000F0D1FB002067
:1028B00000F0A6FB012000F08FFBFF21002000F0BC
:1028C0006BFDFF21012000F067FD012003F046FBB6
:1028D000012003F037FC03F053FB002000F0A4FBC1
:1028E000002000F0F3F9002000F084F90EB010BDD4
:1028F000001402400020024000180240000802407C
:1029000010B5FDF7E3FE10BD10B54FF44830074990
:1029100008604FF0C0704860054888600548C8608E
:10292000054808610846FFF713FB10BD40D303209C
:10293000111E000879130008BD13000810B50446E5
:102940001CB940F6144003F093F8074951F82410DD
:102950008A00064951F82400002101F07FF8012186
:1029600002480C30015510BDDC4903085C00002012
:1029700010B5FDF7DDFE10BD30B50B460024048018
:1029800044808280C4808360002104E00024856844
:102990006C544C1C21B29142F8DB30BD10B5FDF7F0
:1029A000CDFE10BD10B50520FDF7EEFE10BD10B533
:1029B0000120FFF7C3FF0220FFF7C0FFFFF7A0FFD2
:1029C000FFF7ACFCFFF7A8FCFFF744FA00F048F86B
:1029D000FFF79AFF10BD000010B5124800684FF4D1
:1029E0007A71B0FBF1F4601EB0F1807F01D3012059
:1029F0000FE0601E4FF0E02148610F214FF0FF30E3
:102A000001F008FA00204FF0E021886107200861FA
:102A1000002008B100BFFEE70021481E01F0FAF9CE
:102A200010BD00009C000020002101604160642175
:102A300081601821C160022101744FF6FF7141616C
:102A400000218161704710B5EF2140F2E730FEF7B9
:102A500043FAEF2140F2E730FEF768FA10BD0000BC
:102A600010B5FFF725FA002010490870002419E07E
:102A700000210E48401C01554FF6FF7104EB440243
:102A8000401D20F8121004EB440200EB420041808C
:102A9000002104EB44020548801D00EB42008180C8
:102AA000601CC4B2052CE3DB10BD00002411002023
:102AB00010B5044600F004F82046FEF75FFA10BD9A
:102AC00010B5002406E000200A4908550A490855B7
:102AD000601C04B2B4F5007FF5DB4FF400720549C9
:102AE0000648FFF749FF4FF4007203490448FFF717
:102AF00043FF10BD78D3032078D5032060D3032093
:102B00006CD303202DE9FC47044626686768A1685A
:102B1000206800EB0108E168606800EB010900250E
:102B200018E02A46694601A8FEF732FD01280FD1B8
:102B30000198B0420BD30198404508D80098B8429C
:102B400005D30098484502D80120BDE8FC8700E085
:102B500000BF6D1C052DE4D30020F6E7F0B5054657
:102B60000C46A96FA4B1002000230EE0D1E9016753
:102B7000BE4208D2D1E90067F65DE6544E68761C85
:102B80004E60401C00E002E05B1C9342EED30AE082
:102B90004E6816448F68BE4204D24E6816444E609A
:102BA000104600E00020F0BD2DE9FC5F07460E4610
:102BB0001446BD6F2088A98908441FFA80F9A088AF
:102BC000298A08441FFA80FA6088A98908441FFAF4
:102BD00080FBE088298A084480B20190B046CDF895
:102BE00000805A4651464846019B00F045F80020B7
:102BF000BDE8FC9F10B58CB00446A0B26B4601AA9C
:102C000002A900F026FD40F6174002F031FF01F066
:102C100096FF4FF4403002F05BF803A802F038F85A
:102C2000022006901348006A039000200490FF20C1
:102C300005909DF8080007909DF8040008909DF805
:102C4000000009904FF448700A904FF4F0700B9018
:102C500003A801F07FFF02F049F800BF022002F054
:102C60002BF80028FAD0022002F01EF801F067FFCE
:102C70000CB010BDA40000202DE9F04F04460D4615
:102C800016461F46B44202D9A24634465646BD42B5
:102C900002D9AA463D4657464FF0000BA84610E021
:102CA000A1460AE0099830F81B204146484600F04A
:102CB00093F80BF1010B09F10109B145F2D908F1C3
:102CC0000108B845ECD9BDE8F08F0000084A127A37
:102CD00082420BD0064A1072D1685269044BDA6006
:102CE0001A4651611169936913619161704700003F
:102CF000A40000202DE9F04F86B004460D4617468B
:102D00009846A7EB040BA8EB05000590BBF1000F5C
:102D100001DACBF1000B0598002802DA0598404251
:102D200005904FEA4B0004900598400003900598E9
:102D3000834527DBBC4206D900943C46009F0095A2
:102D40004546DDF80080A84502D90120019002E047
:102D50004FF0FF300190A146AA46CBF100060EE0ED
:102D6000514648460F9A00F037F809F101090398D7
:102D70000644002E03DB0498361A01988244B945B4
:102D8000EED926E0454506D900943C46009F0095C3
:102D90004546DDF80080A74202D90120029002E0FA
:102DA0004FF0FF300290A146AA46059846420EE039
:102DB000514648460F9A00F00FF80AF1010A0498AC
:102DC0000644002E03DB0398361A02988144C2455C
:102DD000EED906B0BDE8F08FF0B5114D2E7F0C3561
:102DE00055F826400C3D2E7F143555F82630A0426C
:102DF00001D2994200D3F0BD094D2D7A35B9084E64
:102E0000366A04FB010726F8172007E05D1E6D1ADD
:102E100003FB0055024F3F6A27F8152000BFEAE781
:102E2000A40000202DE9FF4F95B0834614461E46AE
:102E30005748007A68B95648017F0C3050F8218015
:102E40000C38017F143050F821000A905D46169F1F
:102E50001CE04F48007A012818D14D48017F0C3002
:102E600050F821800C38017F143050F821000A906E
:102E7000CDF82080DDF8288008980A900894344620
:102E8000089E1698A8EB0000051B5F462819B0F5B0
:102E9000487F01D9C5F54874B819B0F5F07F01D95C
:102EA000C7F5F0763A48007A40B9A94609F1010021
:102EB000049007EB060ACDF80CA00EE03448007A27
:102EC00001280AD10BEB0609CDF810901698204482
:102ED000A0F1010AAAF1010003905146484600F012
:102EE0009FF90290DDE9031000F09AF9019028485B
:102EF000006A2749C96A08FB075201FB02000B90D0
:102F0000A8EB04000990229988B205AB06AA07A98C
:102F100000F09FFB40F6174002F0AAFD01F00FFE03
:102F20004FF4403001F0D4FE0CA801F0B1FE0220B5
:102F30000F900B980C9009980D90FF200E909DF823
:102F40001C0010909DF8180011909DF8140012902C
:102F5000139414960CA801F0FDFD01F0C7FE00BF0C
:102F6000022001F0A9FE0028FAD0022001F09CFE08
:102F700001F0E5FD51464846029AFFF72DFF019A00
:102F8000DDE90310FFF728FF19B0BDE8F08F00005E
:102F9000A40000202DE9F84F04460D4616461F46B2
:102FA000DDF828B0B44202D9A04634464646BD42B8
:102FB00002D9A8463D464746301B00F10109781B5F
:102FC00000F1010A53464A4629462046CDF800B092
:102FD000FFF728FFBDE8F88F10B504461CB9074875
:102FE00003F036F805E0012C03D10448803003F0EB
:102FF0002FF8012003F0A6F810BD00000068014082
:1030000010B504461CB9074803F029F805E0012C67
:1030100003D10448803003F022F8012003F092F835
:1030200010BD00000068014028B90649064A116237
:103030000021117704E00549034A1162012111774B
:1030400070470000000000D0A4000020C0BB0BD0DF
:103050002DE9F04F8BB080460E4617461C46149D56
:1030600001A803F04FF86A48007A012816D1B24649
:103070007819A0F1010B5646374640F21F30A0EBFD
:103080000B06B6F5487F02D30BB0BDE8F08FB7F55D
:10309000F07F00D3F8E7A1462C464D463019B0F535
:1030A000487F01D9C6F548747819B0F5F07F01D989
:1030B000C7F5F075B8F1000F4FD106F1880080B266
:1030C000ADF806003019873080B2ADF8040007F182
:1030D000230080B2ADF80A007819223080B2ADF832
:1030E000080002200390FF208DF810008DF81400D6
:1030F0008DF813008DF812008DF811004FF4C060A8
:1031000006900720079043480890032000EB4400F6
:1031100080B2ADF826004FF6FF7000EA4400ADF82B
:103120002400A8B2ADF8280001A93B4802F09EFF98
:10313000394802F001FF384802F0FCFF3448007AB9
:1031400018B93348C46045615DE03148007A012810
:1031500059D12F48C560446155E0B8F1010F52D1F3
:1031600006F1880080B2ADF806003019873080B2D1
:10317000ADF8040007F1230080B2ADF80A00781919
:10318000223080B2ADF8080002200390FF208DF8B5
:1031900010008DF814008DF813008DF81200002037
:1031A0008DF811004FF4C0600690072007901B486F
:1031B0000890032000EB440080B2ADF826004FF6E3
:1031C000FF7000EA4400ADF82400A8B2ADF8280072
:1031D00001A91148803002F049FF0F48803002F009
:1031E000ABFE0D48803002F0A5FF0948007A18B9FF
:1031F00007480461856106E00548007A012802D18C
:10320000034805618461012002F09CFF00BF3BE799
:10321000A4000020000000D000680140C0BB0BD01B
:1032200030B502461148057F0C3050F825400C3867
:10323000057F143050F82530A24201D2994201D3C3
:10324000002030BD0948007A30B90848006A04FB04
:10325000012530F81500F4E7581E401A03FB020060
:10326000024D2D6A35F81000EBE70000A4000020A5
:103270002DE9FF4F84B082460C461546DDF84CB070
:1032800025B1012D04D0022D06D103E00C2706E064
:10329000102704E0182702E008B0BDE8F08F00BF57
:1032A00025B1012D05D0022D09D105E04FF00C0804
:1032B00006E04FF0100803E04FF0240800E0EBE7D1
:1032C00000BF25B1012D0AD0022D16D10DE0ABF1C2
:1032D000200000EB40002C4901EB80090EE0ABF12F
:1032E00020002A4901EB001908E0ABF1200000EBB7
:1032F000C000274901EB800900E0CDE700BFCDF811
:103300000090019400263BE00098805D039000202F
:10331000029030E0039800F0800028B1214650462A
:10332000119AFFF759FD06E0079820B9214650464B
:10333000129AFFF751FD03984006000E0390641C9B
:103340001448017F143050F82100A04200D8A3E7B0
:103350000198201AB8420BD3019C0AF1010A0D48CA
:10336000017F0C3050F82100504500D894E705E06B
:103370000298401C029002980828CBD300BF761C0C
:103380004645C1D300BF87E73E650008B269000823
:10339000A26F0008A400002070B505460C4645B990
:1033A0000B48006820F0FF000949086008460460E7
:1033B00009E007488030006820F0FF0004498031B0
:1033C000086008460460012002F0BCFE70BD0000E9
:1033D0009868014010B5044613480068401C124923
:1033E000086008460068A0421DD3002008600F480E
:1033F000006860B901200D49086020210C4801F0E7
:10340000ECFA4FF480710B4801F0E5FA0BE0002074
:10341000064908602021064801F0DDFA4FF480716A
:10342000044801F0DAFA10BD080000200C0000206A
:1034300000040240002002402DE9F04704460F46F8
:103440000025A9462348005D20B92248203801689C
:10345000204688471FB94FF0FF30BDE8F0871E486F
:1034600050F82400B7FBF0F61B4850F82400B7FBD7
:10347000F0F100FB117000B1761C184850F82400E0
:10348000451E22E013480C3850F8240050F825005F
:1034900010B909F1010901E04FF00009B14513D15C
:1034A0004FF0000809E00B480C3850F8240005EBF9
:1034B000080140F8216008F10108B045F3D306483F
:1034C00050F824006843C8E76D1E002DDADA4FF08B
:1034D000FF30C2E768000020E8490308DC49030820
:1034E0002DE9F041FEF7FEFA134A48CA0246D21A05
:1034F00061EB0600FA3A70F1000018D3FEF7F2FA19
:103500000D4A03C2012000F01DF80446022000F01D
:1035100019F805460A2095FBF0F0C6B20A2094FB84
:10352000F0F0C7B205483146426938469047FEF789
:1035300055F9BDE8F08100007800002040D3032059
:1035400000BFFEE710B501460023002207E00B484C
:1035500050F8210050F8220000B15B1C521C0848B2
:1035600050F821009042F2D84FF47A705843044C3E
:1035700054F82140B0FBF4F080B210BD5C00002094
:10358000DC49030870B505460C4604B970BD054812
:1035900050F82500261A31462846FDF72DFF00BFBA
:1035A000F4E700005000002070B504460E46314696
:1035B0002046FFF741FF0546681C08B9002070BD92
:1035C000024850F824002844F9E700005000002089
:1035D0007047704710B5FEF745F920B10120FFF79D
:1035E000F9FEFCF7EBFF10BD10B5FEF741F978B11D
:1035F00008480078401C07490870084600781428DD
:1036000004DB00F01DF9002002490870FCF7DCFF24
:1036100010BD00000000002010B5FEF72FF970B1BA
:1036200007480068401C06490860084600680A28E8
:1036300003D900200860FFF753FFFCF7CBFF10BD54
:10364000040000200146C88808B901207047002006
:10365000FCE710B500F47844E40A0C7000F4FC6454
:103660006409147000F01F041C7010BD70B504468E
:103670000025012221460348FDF732FDC5B2284648
:1036800070BD000060D30320704770B5044600256C
:103690002046FFF737FA012807D194F8240060B9D3
:1036A000012084F82400012507E094F82400012873
:1036B00003D1002084F82400012594F8250028B9BE
:1036C000012D0AD12046FCF763FF06E094F825009F
:1036D000012802D12046FCF75BFF012D05D12046D1
:1036E000FDF78EFD2046FDF705FE70BD2DE9FF417B
:1036F00005460120034603AA48F24E1100903E48B9
:10370000FEF731FA9DF80C0000F00F0003909DF8D1
:103710000C00287000200390012303AA48F24E11E8
:103720003548FEF732FB002461E02978601C8142B5
:103730004CDB01200090314830F81410062301AA18
:103740002D48FEF710FA9DF804009DF8051040EA98
:10375000012104EB4402A81D20F812109DF8060078
:103760009DF8071040EA012104EB4402A81D00EB7C
:10377000420041809DF808009DF8091040EA0121AF
:1037800004EB4402A81D00EB420081801C48007A33
:10379000012817D104EB4401A81D30F8116004EB97
:1037A000440100EB4100478804EB4401A81D20F8C8
:1037B0001170C6F5487081B204EB4402A81D00EBFD
:1037C000420041800121681C01550EE00021681C67
:1037D00001554FF6FF7104EB4402A81D20F81210AA
:1037E00004EB440200EB42004180601CC4B2052C93
:1037F0009BDBBDE8FF8100000C11002010000020C1
:10380000A400002010B5002412E004200A4908702A
:1038100004EBC401094A02EBC100FFF736FF06487A
:103820000078042802D00448007810BD601CC4B29F
:10383000032CEADB0420F8E71C0000206C110020B8
:103840002DE9FC47002404E000200DF80400601C72
:10385000C4B2052CF8DB7F48FFF748FF7D480078AD
:103860007D490870002470E07B48401C005D012801
:1038700069D14FF0000A002558E07648401C405DB1
:10388000012851D104EB44017348801D30F81160C8
:1038900004EB440100EB4100478805EB45016D480E
:1038A000801D30F8118005EB450100EB4100B0F8B8
:1038B000029041463046FCF7F7FC4B2834DC494681
:1038C0003846FCF7F1FC4B282EDC4FF0010A05EBE3
:1038D00045016048801D30F8111004EB44025E4839
:1038E000801D20F8121005EB45015A48801D00EBA1
:1038F0004100418804EB44025748801D00EB420020
:10390000418005EB45015348801D00EB4100818853
:1039100004EB44025048801D00EB420081800121ED
:103920004D48401C015503E0681CC5B2052DA4DBC1
:1039300000BFBAF1000F06D100214748401C0155D5
:1039400001200DF80400601CC4B2052C8CDB00249F
:103950007AE04048401C005D012873D14FF0000A16
:1039600000252CE03C48401C405D012825D104EB9B
:1039700044013848801D30F8116004EB440100EB2D
:103980004100478805EB45013348801D30F8118020
:1039900005EB450100EB4100B0F80290414630468E
:1039A000FCF782FC4B2808DC49463846FCF77CFCD7
:1039B0004B2802DC4FF0010A03E0681CC5B2052D5C
:1039C000D0DB00BFBAF1000F3CD1002537E0224820
:1039D000401C405D78BB1DF8050060BB04EB440152
:1039E0001C48801D30F8111005EB45021A48801D57
:1039F00020F8121004EB44011648801D00EB410032
:103A0000418805EB45021448801D00EB42004180CF
:103A100004EB44010F48801D00EB4100818805EB59
:103A200045020D48801D00EB4200818001210A48BB
:103A3000401C415505E000E004E0681CC5B2052DBE
:103A4000C5DB00BF601CC4B2052C82DB02480078D5
:103A5000BDE8FC87481100202411002030B5034642
:103A600001E003F8011B141EA2F10102F9D130BDDF
:103A700010B50446012C04D14021044800F0ADFFEC
:103A800003E04021014800F0A6FF10BD0004024001
:103A900010B50446012C04D18021044800F09DFF9C
:103AA00003E08021014800F096FF10BD00040240B1
:103AB0002DE9FF4704460E4625462F68D5F80480B9
:103AC000287CFDF7E1FEA968B1FBF0F9A869009038
:103AD00095E80F00FDF7C6FC012100226869CDE9D9
:103AE0000219CDE900202B7C324641463846FDF7CD
:103AF0000DFDBDE8FF8710B500F0B8F810BD00005F
:103B000008B52D48006840F470002B4908602B4828
:103B1000006840F001002949086028480830006822
:103B200040F080002549083108600020009002E044
:103B30000098401C00904CF2503100988842F7D316
:103B40001E480830006840F090001C4908310860A9
:103B50000020009002E00098401C00904CF2503190
:103B600000988842F7D315480830006820F0030019
:103B700012490831086011480068114908400F498E
:103B800008600846006820F48020086000200B4987
:103B90000831086000BF094808300068002000288C
:103BA000F9D108480549091D0860002003490C3176
:103BB000086002F08BF808BD88ED00E00038024094
:103BC000FFFFF6FE1030002410B50121880702F037
:103BD0009CF9012803D10121800702F093F901200B
:103BE0000C4908700C480088401C0B4908800846A6
:103BF0000088022804DB00200880012007490870A3
:103C00000748D0E900305A1C40F100000449C1E9DE
:103C1000002010BD800000209000002081000020C6
:103C20008800002010B501210D4802F06EF901282E
:103C300003D101210A4802F065F90A480088401CB6
:103C400000B2084908800846B0F90000B0F57A7F54
:103C500004DB0020088001200349087010BD00002B
:103C6000000C004092000020820000200448006800
:103C700020B103480068401E0149086070470000F9
:103C80009800002008B5002000902449244802F044
:103C900012FC60B12149224802F000FC204802F0E9
:103CA00057FBC0B200909DF8000000F083F81D495A
:103CB0001B4802F000FC012806D11A49184802F0FE
:103CC000EDFB174802F044FB1749154802F0F3FBDF
:103CD00018B31549124802F0E1FB2520002807DB44
:103CE00000F01F0201219140104A430942F82310BD
:103CF00000BF6846FFF7BAFC9DF80010084802F0C4
:103D00002CFB0B48FFF79EFC38B1002009490870D6
:103D100040F20731024802F0A7FB08BD0503050089
:103D200000100140000503000703070080E200E0E7
:103D300060D30320940000207FB504460D46220D79
:103D400008A1684600F052F808486946C2699047E1
:103D50002A0D04A1684600F049F805486946C26981
:103D600090477FBD25644D4200000000F8180020F8
:103D7000181900207FB504460D46A20A08A168461E
:103D800000F034F808486946C2699047AA0A04A1BD
:103D9000684600F02BF805486946C26990477FBD28
:103DA00025644B4200000000B8180020D8180020FD
:103DB00000BFFEE731B50024012269460248FDF745
:103DC000B6FAC4B2204638BD6CD303200FB4054BFD
:103DD00010B503A9044A029800F040F810BC5DF841
:103DE00014FB000055490008A00000200FB4084B48
:103DF00010B504A902AA039800F030F8044602A9FD
:103E0000002000F05CFA204610BC5DF814FB0000B6
:103E1000BF42000810B5002804DB0A07130E054A4C
:103E2000135406E00A07140E034A00F00F031B1F89
:103E3000D45410BD00E400E018ED00E002E008C832
:103E4000121F08C1002AFAD170477047002001E014
:103E500001C1121F002AFBD1704700002DE9FF4F5E
:103E60008DB00F460546002606E025280BD0DDE97B
:103E70000F1290476D1C761C28780028F5D111B0E0
:103E80003046BDE8F08F0024A246A1460122EC494D
:103E900000E0044315F8013F203B02FA03F008421A
:103EA000F7D128782A2810D06FF02F022878A0F1B7
:103EB0003001092914D80AEB8A0102EB410144F0D0
:103EC000020400EB010A6D1CF0E701CF5FEA000A73
:103ED00003D544F40054CAF1000A44F002046D1CF6
:103EE00028782E2817D115F8010F44F004042A2849
:103EF0000ED06FF02F022878A0F1300109290AD8DE
:103F000009EB890102EB410100EB01096D1CF2E7AD
:103F100057F8049B6D1C28786C280FD006DC4C28C1
:103F200017D068280DD06A2814D104E0742810D066
:103F30007A280FD10DE044F400140AE044F4801410
:103F400001E044F440146978814202D104F5801400
:103F50006D1C6D1C2A786E2A1FD00CDC632A31D0B0
:103F600004DC002A8BD0582A11D1A3E0642A68D03F
:103F7000692A0CD165E0732A2ED004DC6F2A73D035
:103F8000702A04D19BE0752A6FD0782A6ED0104633
:103F9000DDE90F129047761C50E1C4F3025002286D
:103FA00006D0032809D0042801CF09D0066045E1D6
:103FB00001CFF117C0E9006140E101CF06803DE18A
:103FC00006703BE117F8040B8DF8000000208DF817
:103FD0000100EB46012003E057F804BB4FF0FF302F
:103FE00061074FF0000102D40DE008F1010188469D
:103FF00049450FDA8045F8DB1BF808100029F4D199
:1040000008E008F1010188468142FADB1BF808103C
:104010000029F6D1DDE90F23AAEB080081462146ED
:1040200000F036F9304400EB080604E0DDE90F1239
:104030001BF8010B9047B8F10108F7D2214648461A
:10404000F7E00A21C4F302534FF0000B0891022B52
:1040500004D001CFC117032B09D00AE0FF1D27F0C0
:104060000707F7E8020108E032E01FE020E000B2B5
:10407000C117042B01D140B2C117031E71F1000317
:1040800007DA4FF0000CD0EB0C006CEB01012D2394
:1040900002E0230504D52B238DF82430012303E00F
:1040A000E30701D02023F7E7984658E00A2110E003
:1040B00010210EE010204FF0000B08900CE01021B2
:1040C0004FF0000B44F004044FF00809089103E09E
:1040D00008214FF0000B0891C4F30253022B04D0C7
:1040E00001CF0021032B06D006E0FF1D27F00707B4
:1040F000F7E8020103E080B2042B00D1C0B24FF018
:10410000000823072BD5702A07D0DDF820C08CF0DB
:10411000100C5CEA0B0C05D00EE040238DF8243027
:10412000012308E050EA010306D030238DF8243043
:104130008DF8252002239846DDF820C08CF0080C6D
:104140005CEA0B0C0BD150EA010301D1630706D5E1
:1041500030238DF824304FF00108A9F10109582AC5
:1041600004D038A20B9208AA0A920BE03AA2F9E70F
:104170005B46089AFCF736F80B9B9B5C0A9A521E2A
:104180000A92137050EA0102F2D10A98ADEB0000D6
:1041900000F1200B600702D524F4803401E04FF0D9
:1041A0000109D94502DDA9EB0B0000E0002000EB7E
:1041B0000B0141440890AAEB010AE00306D4DDE9B3
:1041C0000F232146504600F063F806444FF00009E3
:1041D00008E009A911F80900DDE90F12904709F17B
:1041E0000109761CC145F4DBE0030CD5DDE90F23A2
:1041F0002146504600F04CF8064404E0DDE90F1279
:1042000030209047761C0899481E08900029F5DC5C
:1042100008E00A980A990078491C0A91DDE90F1212
:104220009047761CBBF10001ABF1010BF1DC21469C
:104230005046DDE90F2300F019F806446D1C1BE61B
:10424000092801003031323334353637383961626C
:104250006364656600000000303132333435363730
:104260003839414243444546000000002DE9F04101
:10427000044600251E461746880404D405E0394646
:104280002020B0476D1C641EF9D52846BDE8F0819A
:104290002DE9F041044600251E469046C80301D58D
:1042A000302700E02027880404D505E04146384641
:1042B000B0476D1C641EF9D52846BDE8F0810A6838
:1042C000531C0B601070704702460020CB1C23F07B
:1042D0000301136F8B4205D3136F5B1A1367D06E04
:1042E0004318D36670472DE9F05F04468846267B65
:1042F0002768656895F800A000208346814600BFC6
:1043000036BB67B9A5684FF4806229462046636FC3
:104310009847074627B96FF00100BDE8F09F6D1C74
:104320007F1EBBF1000F0AD04FF0000B287810B1B0
:104330006FF00500F1E7FF208246287007E095F84E
:1043400000A0BAF1FF0F02D14FF0010B0BE0802665
:104350004FEA49090AEA060008B109F10109761095
:10436000A8F1010800BFB8F1000FC9D1267327607A
:1043700065604846D1E700002DE9F04F87B00C4654
:104380004FF4B55BCDF818B041F2511BCDF814B025
:1043900042F6CF1BCDF810B041F6905BCDF80CB0D3
:1043A0004FF0000BCDF800B080E0D0F800C0D0F89E
:1043B0004080D0F88090D0F8C0100CEB090AACEB2C
:1043C000090BCDF808B0A8EB010B4FF4B55E0BFB61
:1043D0000EFB4FEA2B3741447F1A0AEB010CAAEB84
:1043E0000101DDF808B007EB0B08DDF808B0ABEB16
:1043F0000709D0F8E050036AD0F8A060026EA3EB82
:10440000050A5F19A6EB020BCDF808B03244A7EB02
:10441000020B0BFB0EFB4FEA2B333A44DDF808B0DE
:10442000D34441F6905E0BFB0EFB4FEA2B3BCDF8DD
:1044300004B041F2511B0AFB0BFEDDF804B0ABEBFC
:104440002E3542F6CF1EDDF808B00BFB0EFEDDF870
:1044500004B0ABEB2E3BABEB02069B1BED1A0CEB57
:10446000020BC0F800B0ACEB020BC0F8E0B008EBF8
:10447000060BC0F820B0A8EB060BC0F8C0B009EBE3
:10448000030BC0F840B0A9EB030BC0F8A0B001EBE0
:10449000050BC0F860B0A1EB050BC0F880B0001DA3
:1044A000DDF800B00BF1010BCDF800B0DDF800B085
:1044B000BBF1080FFFF479AF20384FF0000BCDF8B7
:1044C00000B0A2E0D0F800B00BF5004CD0F80880A6
:1044D000D0F8109081690CEB090AACEB090BCDF810
:1044E00008B0A8EB010B4FF4B55E0BFB0EFB4FEAD7
:1044F0002B3741447F1A0AEB010CAAEB0101DDF8CE
:1045000008B007EB0B08DDF808B0ABEB0709C5698D
:1045100043684669C268A3EB050A5F19A6EB020B64
:10452000CDF808B03244A7EB020B0BFB0EFB4FEAB1
:104530002B333A44DDF808B0D34441F6905E0BFBD0
:104540000EFB4FEA2B3BCDF804B041F2511B0AFBA6
:104550000BFEDDF804B0ABEB2E3542F6CF1EDDF8D6
:1045600008B00BFB0EFEDDF804B0ABEB2E3BABEB63
:1045700002069B1BED1A0CEB020BCBF3092BDFF8A9
:104580009CE01EF80BB084F800B0ACEB020BCBF350
:10459000092B1EF80BB084F807B008EB060BCBF321
:1045A000092B1EF80BB084F801B0A8EB060BCBF377
:1045B000092B1EF80BB084F806B009EB030BCBF304
:1045C000092B1EF80BB084F802B0A9EB030BCBF358
:1045D000092B1EF80BB084F805B001EB050BCBF3EB
:1045E000092B1EF80BB084F803B0A1EB050BCBF33D
:1045F000092B1EF80BB084F804B008342030DDF825
:1046000000B00BF1010BCDF800B0DDF800B0BBF14C
:10461000080FFFF457AF07B0BDE8F08FBE7D00086C
:104620002DE9F74F86B00D4616468EE0112E03D2C7
:10463000062009B0BDE8F08F113E15F801AB4FEA36
:104640002A190AF00F0003900AF0EE0008B10620C4
:10465000EFE710210698FFF737FE8046B8F1000F0C
:1046600001D10320E5E706982430039900EBC1004F
:1046700040F8298000200446074607E015F8010BA2
:10468000049008F8040004980744641C102CF5D327
:1046900079000698FFF718FE8346BBF1000F01D1A1
:1046A0000320C6E706983430039900EBC10040F8B8
:1046B00029B0002001900446059019E018F8040084
:1046C000049009E00598421C019905922BF81010FE
:1046D0000198401C80B201900498411E049100286A
:1046E000F0D14FF6FF71019801EA40000190641C7F
:1046F000102CE3D3BE4201D206209AE7F61B3946BE
:104700000698FFF7E1FD0290029808B9032090E7B0
:1047100006984430DDE9021200EBC20040F829108F
:10472000002410E015F801ABB9F1000F04D1BAF183
:104730000B0F01DD06207CE7029880F800A00298AC
:10474000401C0290641CBC42ECD3002E7FF46EAF80
:1047500000206EE72DE9F04782460C4616462BE016
:10476000412E02D20620BDE8F087413E14F8018BAD
:1047700008F0F00008B10620F5E708F003074FF451
:1047800080715046FFF7A0FD05460DB90320EAE70A
:104790000AF1540040F8275000270BE0084810F8B1
:1047A000079014F8010B074931F81910484345F8F0
:1047B00029007F1C402FF1D3002ED1D10020D2E759
:1047C000FE7C00083E7D000802460023012A03D03B
:1047D000022A01D0032A04D15001A0F1C040436C49
:1047E00001E00548036803EA0100884201D0002087
:1047F00070470120FCE70000580100A0D0E9022129
:10480000114342681143026841EA4221014A1160A2
:1048100070470000500100A070B50568042D3AD122
:10482000D0E908653543C66935438669354346692D
:104830003543066945EA4625C6683543866845EA34
:10484000063546683543384E3560856AAD696D1E5C
:10485000866A7669761E45EA0616856A2D696D1E9A
:1048600046EA0526856AED686D1E46EA0536856AC4
:104870002D896D1E46EA0546856AAD886D1E46EA9D
:104880000556856A2D786D1E46EA05654FF020466F
:10489000C6F8485147E0244D2D6825F4F841D0E989
:1048A00002653543466835432943D0E908653543F9
:1048B000C66935438669354346693543066945EA25
:1048C00006044FF02045C5F84011C5F84441D5F81D
:1048D0004851164E05EA0602856AED686D1E2E03E4
:1048E000856AAD886D1E46EA0556856A2D896D1E5E
:1048F00046EA05452A43856AAD696D1E866A766972
:10490000761E45EA0616856A2D696D1E46EA05265D
:10491000856A2D786D1E46EA05634FF02045C5F87F
:104920004821C5F84C3170BD400100A0FF0F00FFC9
:10493000074A126843F6FE7322EA03011A4602EAA6
:1049400040020A434FF02043C3F85421704700004F
:10495000540100A070B504460D4600BF072105486C
:1049600001F073FD0028F9D0E1B2024801F0F5FC36
:10497000204670BD00100140F0B503461C6A5D6A18
:1049800000200DE00126864016403EB187000F262C
:10499000BE40B443860001FA06F63443461CB0B26A
:1049A0000828EFD3082011E00126864016405EB1AA
:1049B000A0F10806B7000F26BE40B543A0F10806D7
:1049C000B60001FA06F63543461CB0B21028EBD308
:1049D0001C625D62F0BD8162704781617047024672
:1049E0001069084008B1012070470020FCE7F0B5CD
:1049F00004460D4616462168E268002019E00127AA
:104A000087401F409FB14FEA400C032707FA0CF77D
:104A1000B943470005FA07F739434FEA400C03272B
:104A200007FA0CF7BA43470006FA07F73A43471C60
:104A3000B8B21028E3D32160E260F0BDF0B50C46B7
:104A40001546012C03D146681E43466002E04668C5
:104A50009E434660826800210DE001268E401E4084
:104A60003EB14F000326BE40B2434E0005FA06F6A3
:104A700032434E1CB1B21029EFD38260F0BD2DE954
:104A8000FF5F0446884691469A46267B27686568FC
:104A9000287803900020834602901020019000BFE8
:104AA00036BB6FB9A5684FF4806229462046636F14
:104AB000984707462FB96FF0010004B0BDE8F09F9A
:104AC0006D1C7F1E029850B100200290287810B112
:104AD0006FF00500F1E7FF200390287007E02878C9
:104AE00003900398FF2802D10120029022E0802643
:104AF0004FEA4B0B0398304008B10BF1010B7610D5
:104B000018F8010B00900EE039F8021B594505D149
:104B10002673276065609AF80000CEE70AF1010A63
:104B20000098401E009000980028EDD10198401E8A
:104B3000019000BF01980028B2D1801FBDE710B5D9
:104B400040F2174000F0B8FF40F2174000F0A2FF1B
:104B500010BD000010B500224C4B1B6803F0010390
:104B600033B10122494B1B6823F00103474C2360FA
:104B7000464B5B6B23F00703444C6363C36863637A
:104B8000C16805295CD2DFE801F00315253548002E
:104B90003E4B9B6B00233D4CA363D0E9054343EAA6
:104BA0000423048A43EA0443047A43EA0463374C47
:104BB000A36346E0354B9B6B03F07F43334CA36309
:104BC000D0E9054343EA0423048A43EA04432F4C13
:104BD000A36336E02D4B9B6B6FF30F032B4CA3634A
:104BE000D0E9054343EA4413046943EAC423274C4C
:104BF000A36326E0254B9B6B6FF30F03234CA3634A
:104C0000D0E9054343EA4413046943EA84238468F2
:104C100043EAC4331D4CA36313E01C4B9B6B6FF33F
:104C20000F031A4CA363D0E9054343EA0413046954
:104C300043EA0423846843EA0433144CA36300E08A
:104C400000BF00BF114BDB6B0023104CE363036814
:104C5000E36323461B6C6FF30D03236443682364F3
:104C600023465B6C03F040436364848B036A43EA2E
:104C70000443064C646C2343044C6364012A04D14E
:104C800023461B6843F00103236010BD00B00240BF
:104C90000021C16041608160016141618161016009
:104CA000C161016270470000024989680143014AFD
:104CB0009160704700B002400146044840680840D7
:104CC00008B1012070470020FCE7000000B002405E
:104CD0000549096821F44031034A11601146096809
:104CE000014311607047000000B0024003480068B3
:104CF00040F00100014908607047000000B0024028
:104D00002DE9F74F82B004461746032F03DD052037
:104D100005B0BDE8F08F6773A07B4FEAC009E07B68
:104D20004FEAC00A0021A182E18221838B46CDF89F
:104D300004B0002500262FE04FF0000828E0608B2B
:104D4000A0B15846411C1FFA81FB618B88420DD1EE
:104D50000198421C92B201462046019200F000FFE9
:104D600005460DB12846D3E74FF0010B204600F071
:104D7000F3F905460DB12846CAE7334642462046B8
:104D8000039900F0DBFA05460DB12846C0E7C84498
:104D9000E0694045D3D85644206AB042CCD8284672
:104DA000B6E72DE9FF4F83B00446059818B90520F2
:104DB00007B0BDE8F08F0598E06606982067049874
:104DC00060671098A0670020608300261BE04FF00A
:104DD000000A14E0002104F1240000EBC60040F8B2
:104DE0002A1004F1340000EBC60040F82A1004F148
:104DF000440000EBC60040F82A100AF1010ABAF19B
:104E0000020FE7D3761C022EE1D3002605E0002135
:104E100004F1540040F82610761C042EF7D34FF40A
:104E200080612046FFF750FA0546A0600DB90320C7
:104E3000BEE7022229462046636F9847022801D028
:104E40000220B5E76878297840EA01204FF6D8714A
:104E5000884201D00620ABE74FF0020900BF0422D0
:104E600029462046636F9847042801D002209FE717
:104E70006878297840EA01200290E878A97840EA29
:104E80000127022F04D9FF210298B1EB202F01D076
:104E900006208DE7BF1E381D81440298C0B2C0387D
:104EA0001E2872D2DFE800F00FF4F3F272F1F0EF97
:104EB00071EEEDEC71EBEAE9717171717171717103
:104EC00071E8A68C715DB7F5806F01D904206FE79A
:104ED0003A4629462046636F9847B84201D00220DF
:104EE00066E72879E97840EA0120E061A8786978E6
:104EF00040EA012020626879032801D0082057E7A2
:104F000000262BE006EB4600C01D15F800808EB988
:104F1000B8F1110F07D0B8F1220F04D0B8F1210F6A
:104F200001D0082044E74FEA2810A07308F00F00D2
:104F3000E07304E0B8F1110F01D0082038E706EB68
:104F40004600083015F80080B8F1030F01DD082095
:104F50002EE704F1100000F80680761C032ED1D352
:104F6000ECE0B7F5806F01D9042021E73A462946E5
:104F70002046636F9847B84201D0022018E768784E
:104F8000297840EA01206083D8E0CDE0B7F5806F52
:104F900001D904200CE73A4629462046636F98471A
:104FA000B84201D0022003E73A4629462046FFF7DF
:104FB00037FBC0B20190019808B10198F8E6BDE056
:104FC000B7F5806F01D90420F2E63A46294620461B
:104FD000636F9847B84201D00220E9E63A46294675
:104FE0002046FFF7B7FBC0B20190019808B10198C5
:104FF000DEE6A3E0B7F5806F01D90420D8E63A4693
:1050000029462046636F9847B84201D00220CFE678
:10501000E06908B1206A08B90620C9E628780328A3
:1050200001D00820C4E6002634E07000801C15F88A
:105030000080B8F1000F04D0B8F1110F01D00820A2
:10504000B6E60EB1012000E00020804604F1240005
:1050500050F8380028B104F1240000EBC800406883
:1050600008B90620A4E604F11000815D443050F830
:10507000210070B906209BE654E052E050E04EE07B
:105080004CE04AE048E046E044E042E040E03EE0F8
:105090003CE0761C032EC8D3E07BA17B10FB01FB18
:1050A000BBF1000F01D1062082E6402101EBCB17B6
:1050B000FF2F00D88F0039462046FFF705F96066BC
:1050C000606E08B9032073E60BF1020081012046EF
:1050D000FFF7FAF8A066A06E08B9032068E66560DD
:1050E000002020602073C9F30900B0F100090BD043
:1050F000C9F5806205EB09012046636F984720607F
:1051000005EB0900401E6060002051E600BF00BFB3
:1051100000BF00BF00BF00BF00BF00BF00BF00BF97
:1051200000BF00BF082043E63A4600212046636FD7
:105130009847B84201D002203AE600BF8FE6FDF75B
:10514000D9F8FDF734FC05E0FEF74EFAFEF764FAF5
:10515000FEF740FAF8E700002DE9F04F89B0044669
:10516000D4F86490A07BE17B10FB01F00890022052
:105170000790A06E04904FF0000BD4E00898834590
:1051800001D2002003E00898ABEB0000401C059022
:10519000059808B1012000E00020804604F12400B9
:1051A00050F83800039004F1340050F838000190B2
:1051B00004F1440050F8380002902046DDE9012354
:1051C0000399FFF75CFC0546002D04DA6842C0B283
:1051D00009B0BDE8F08F04F11400059930F91160B1
:1051E000F5B129462046FFF77EF88246BAF1000F56
:1051F00003DACAF10000C0B2EAE7681E012101FA31
:1052000000F50AEA050020B90120C0EB4500AAEB31
:10521000000A564432B204F11400059920F8112016
:1052200004F110000599415C443050F821000090D1
:105230000098006870430012C9F80000012703E0DD
:10524000002049F827007F1C402FF9D304F12400E7
:1052500000EBC8004068039004F1340000EBC80084
:105260004068019004F1440000EBC80040680290DF
:10527000012700BF2046DDE901230399FFF7FFFB6B
:10528000054605B937E0002D02DA6842C0B29FE753
:1052900028090690069828B106980744402F01D3A4
:1052A000062095E705F00F00051E20D02946204670
:1052B000FFF719F80646002E02DA7042C0B287E7FF
:1052C000681E012101FA00F506EA050018B901205F
:1052D000C0EB4500361A1848C05D06900699009844
:1052E00050F8210070430112069849F82010781CEC
:1052F00007464028BED300BF607B03280AD1D9F8F7
:105300000000C11700EB116109128031CAB2049983
:105310000A7003E048460499FFF72EF804984030DD
:1053200004900BF1010BDDE90710084458453FF6E6
:1053300025AF00204CE70000FE7C00082DE9FF4F60
:105340008DB004464FF480600C90A07BC700E07BDA
:10535000C0000B900F983844E169884201D8384664
:1053600002E0E1690F98081A83460B9910980844E7
:10537000216A884201D80B9802E0216A1098081A25
:105380000A90607B2BFA00FB617B0A98C8400A9068
:10539000BBF1000F01D00A9818B9002011B0BDE888
:1053A000F08F617B0F98C8400F90617B1098C840C8
:1053B00010900F9880B2ADF814000F985844401E1A
:1053C00080B2ADF81600109880B2ADF818000A99B6
:1053D00010980844401E80B2ADF81A00607B032884
:1053E0007DD0656E00266EE0D4F8688008EBC600BC
:1053F00007900B9810280BD170084FF4807101EBC7
:10540000C0008044082E07D307984030079003E07F
:10541000F80000EBC60080444FF0000950E098F817
:1054200000008038099098F8400080380890102FCC
:1054300009D1B9F1080F02D107983830079009F067
:105440000100804401E008F10108079810F801AB61
:10545000079040F29B52089901FB02F0C11700EB44
:1054600091510AEBA121C1F30901984A515C05F859
:10547000011B4FF4B0720999514340F2DB23089AA3
:1054800003FB0210C11700EB9151AAEBA121C1F35C
:1054900009018E4A515C05F8011B40F21672099908
:1054A00001FB02F0C11700EB91510AEBA121C1F3FE
:1054B0000901864A515C2970691C0D4609F10109F0
:1054C000B945ACD3761C0B9886428DD3607B0028FF
:1054D00053D0637B5A0094F80DE0012300E04DE0C7
:1054E00003FA0EF17B1A03EB43030093606E002670
:1054F00040E04FF000093AE006FB079E0EEB4E0E2F
:10550000636E03EB0E050023019302930393049350
:105510001DE04FF0000C13E015F8013BDDF80CE046
:105520007344039315F8013BDDF808E073440293DC
:1055300015F8013BDDF804E0734401930CF1010C14
:105540008C45E9D3009B1D44049B5B1C0493049B86
:105550008B42DED3039BD34000F8013B029BD34038
:1055600000F8013B019BD34000F8013B8944B94559
:10557000C2D30E440B9B9E42BBD35BE0656EA16E13
:105580000B9807FB001898F800008038099098F8ED
:10559000400080380890002649E0A06E0790082E51
:1055A00002D10798803007904FF000093CE007983F
:1055B00090F800A007984030079040F29B5208995D
:1055C00001FB02F0C11700EB91510AEBA121C1F3DD
:1055D00009013E4A515C05F8011B4FF4B07209996C
:1055E000514340F2DB23089A03FB0210C11700EB82
:1055F0009151AAEBA121C1F30901344A515C05F88C
:10560000011B40F21672099901FB02F0C11700EB71
:1056100091510AEBA121C1F309012C4A515C297077
:10562000691C0D4609F10809B945C0D308360B9825
:105630008642B2D3607BC740BB4521D2D4F864C058
:1056400061466046002316E000220CE010F801CB12
:1056500001F801CB10F801CB01F801CB10F801CB18
:1056600001F801CB521C5A45F0D3A7EB0B0C0CEB05
:105670004C0C60445B1CDDF828C06345E4D300BFDC
:10568000606E0246DDF828C00BFB0CF300BF10F87B
:1056900001CB0CF0F80C4FEA0C2110F801CB0CF008
:1056A000FC0C41EACC0110F801CB41EAEC0122F8F4
:1056B000021BA3F1010CBCF10003E8D105AA2046AE
:1056C000616E0E9B9847C0B268E60000BE7D000880
:1056D0002DE9F04103460D46164600240027A0465A
:1056E0002A48006800F4E060B0F5E06F03D100BF25
:1056F0004FF0040830E02548006800F4E060B0F5A1
:10570000C06F03D101274FF0030825E01F48006850
:1057100000F4E060B0F5A06F02D10227B8461BE0AC
:105720001A48006800F4E060B0F5806F03D10327E9
:105730004FF0010810E01548006800F4E060B0F593
:10574000407F03D104274FF0000805E04FF4A0602C
:1057500000F020F80227B846C7F1040005FA00F46B
:10576000C8F104010F20C840304004432401084818
:10577000C45403F01F01012088405911890001F130
:10578000E021C1F80001BDE8F08100000CED00E06F
:1057900000E400E002490143024A11607047000042
:1057A0000000FA050CED00E02DE9F04F8CB0064644
:1057B00000200A903EA090E8004CC068CDE905BEEC
:1057C000CDF810A007900FF2EC0ADAE9000ACDE953
:1057D000020A0FF2E00ADAE9000ACDE9000A3848C5
:1057E0000068C0F381000B900B9820B1012804D011
:1057F000022828D103E0334927E0334925E0304827
:10580000001F006800F03F072D48001F0068C0F32C
:10581000881C2B48001F0068C0F30140401C4FEA61
:1058200040092748001F006800F48008B8F5800F81
:1058300001D1254B00E0234BB3FBF7F000FB0CF04C
:10584000B0FBF9F101E01F4900BF00BF1C48006830
:10585000C0F3031404A8055D21FA05F21848006896
:10586000C0F3822402A8055D22FA05F009901448CD
:105870000068C0F342341DF8045022FA05F0089085
:1058800036B1012E06D0022E06D0032E0AD106E034
:105890000A9108E00A9206E009980A9003E0089845
:1058A0000A9000E000BF00BF0A980CB0BDE8F08F7E
:1058B00000000000000000000102030406070809C0
:1058C000083802400024F40040787D010146074A70
:1058D00002EB9110D0F8000801F01F0301229A405A
:1058E000104008B1012070470020FCE70030024062
:1058F000074A02EB9011D1F8001800F01F030122B3
:105900009A401143024B03EB9012C2F80018704703
:1059100000300240F0B506460024002700251C2E6A
:105920007DD007DCB6B3102E10D0182E67D01A2EFB
:1059300076D176E0B6F5E05F19D0B6F5E85F4CD0E9
:10594000A6F5405010380028F2D134E004E01120D0
:10595000FFF7BCFF0546641C1DB94FF6FF7084427B
:10596000F5D11120FFF7B2FF00B101277AE005E081
:1059700041F60140FFF7AAFF0546641C1DB96FF010
:1059800070408442F4D141F60140FFF79FFF00B11F
:10599000012767E0FFE704E00120FFF797FF0546D6
:1059A000641C15B9B4F5A06FF6D10120FFF78EFF86
:1059B00000B1012756E005E043F21100FFF786FF32
:1059C0000546641C15B929488442F5D143F21100FB
:1059D000FFF77CFF00B1012744E005E041F60150EC
:1059E000FFF774FF0546641C15B920488442F5D1C1
:1059F00041F60150FFF76AFF00B1012732E004E0F1
:105A00001920FFF763FF0546641C15B91748844247
:105A1000F6D11920FFF75AFF00B1012722E010E06C
:105A20001FE004E01B20FFF751FF0546641C15B979
:105A30000E488442F6D11B20FFF748FF00B1012732
:105A400010E004E01D20FFF741FF0546641C15B976
:105A500006488442F6D11D20FFF738FF00B1012728
:105A600000E000BF00BF3846F0BD0000FFFF0F00A0
:105A7000074A02EB9011D1F8001800F01F03012231
:105A80009A401143024B03EB9012C2F80018704782
:105A900000300240074A02EB9011D1F8001800F0E4
:105AA0001F0301229A409143024B03EB9012C2F86C
:105AB0000018704700300240074A02EB9011D1F8FD
:105AC000001800F01F0301229A401143024B03EB20
:105AD0009012C2F8001870470030024010B503461B
