:020000040800F2
:1000000058A80020C101000855380008351B000819
:10001000513800084D050008BD45000800000000EB
:100020000000000000000000000000003D3D00084E
:10003000711200080000000057380008F142000863
:10004000DB010008DB010008DB010008DB01000820
:10005000DB010008DB010008DB010008DB01000810
:10006000DB010008DB010008DB010008DB01000800
:10007000DB010008DB010008DB010008DB010008F0
:10008000DB010008DB010008DB010008DB010008E0
:10009000DB010008DB010008DB010008DB010008D0
:1000A000DB010008DB010008DB010008DB010008C0
:1000B000C1430008DB010008DB010008DB01000888
:1000C000DB010008DB010008DB010008DB010008A0
:1000D000DB0100087D440008DB010008DB010008AB
:1000E000DB010008DB010008DB010008DB01000880
:1000F000DB010008DB010008DB010008DB01000870
:10010000DB010008353D00081D440008DB01000844
:10011000DB010008DB010008DB010008DB0100084F
:10012000DB010008DB010008DB010008DB0100083F
:10013000DB010008DB010008DB010008DB0100082F
:10014000DB010008DB010008DB010008DB0100081F
:10015000DB010008DB010008DB010008DB0100080F
:10016000DB010008DB010008DB010008DB010008FF
:10017000DB010008DB010008DB01000800000000D3
:10018000DB010008DB010008DB010008DB010008DF
:10019000DB010008DB010008DB01000800000000B3
:1001A000DB010008DB010008DB010008DFF80CD0F0
:1001B00000F04AF800480047DB5F000858A800201C
:1001C0000648804706480047FEE7FEE7FEE7FEE7F1
:1001D000FEE7FEE7FEE7FEE7FEE7FEE7F94200087E
:1001E000AD0100082DE9F05F0546002092469B46D0
:1001F00088460646814640241BE02846414647463D
:10020000224600F042F853465A46C01A914110D394
:1002100011461846224600F029F82D1A67EB01080E
:100220004F4622460120002100F020F817EB00097C
:100230004E41201EA4F10104DFDC484631462A4627
:100240004346BDE8F09F0000064C074D06E0E0681D
:1002500040F0010394E8070098471034AC42F6D30D
:10026000FFF7A8FF8CA10408ACA10408202A04DB36
:10027000203A00FA02F1002070479140C2F12003B9
:1002800020FA03F3194390407047202A04DB203AF8
:1002900021FA02F00021704721FA02F3D040C2F1A6
:1002A0002002914008431946704702468A4202DD07
:1002B000501A80B27047881A80B2FBE72DE9F041EE
:1002C0000746052400250AE0164800EB851090F843
:1002D0002400012801D12C4603E0681CC5B2042D7E
:1002E000F2DB00BF052C1BD00F48065D0F48005DF8
:1002F000B04211DD0E4800EB841087550A48005DBE
:10030000401C094908550A4A02EB8411054A02EBD0
:10031000841003F025FF03E00448005D02490855FE
:10032000BDE8F081F41600208000002004A104083C
:10033000F41700202DE9F04F8BB006460F4690468B
:10034000706801F0D3FA6B48008844F64251884245
:1003500005D069A004F0CCF90BB0BDE8F08F70486F
:10036000C08920280BD06E48C089182807D06C4857
:10037000C089102803D06BA004F0BAF9ECE7BA46A4
:10038000C34667484068574638440A9064488068C6
:10039000D84600EB08096C48017F0C3050F821105A
:1003A0000A98814205D86848017F0C3050F8210036
:1003B0000A906548017F143050F82100484504D860
:1003C0006148017F143050F82190A9F10100039099
:1003D00000200490D84687E07068049901F068FB1B
:1003E000054600240498401C0490574674E04C488D
:1003F000C089202841D1285DC0100790601C285C6E
:1004000080100890A01C285CC0100990E01C285C9B
:1004100006900998C102089841EA401007990843DC
:100420000590241D307890B93846039903F068F898
:100430000290059A91B2029A90B2069A00F0A0F842
:1004400001903846019A039902F058FE43E0307853
:10045000012809D17178069881423CDC3846059A1A
:10046000039902F04BFE36E03078022833D138464B
:10047000059A039902F042FE2DE02948C089182808
:1004800019D1285DC0100790601C285C801008906E
:10049000A01C285CC01009900998C102089841EA84
:1004A0004010079908430590E41C3846059A0399C3
:1004B00002F024FE0FE01A48C08910280BD1295DF4
:1004C000601C285C41EA00200590A41C3846059A6F
:1004D000039902F013FE7F1C0A98874287D3039882
:1004E000401E039008F10108C845FFF475AF00BF36
:1004F00032E7000004110020424D50446973706CD3
:1005000061793A2074686973206973206E6F742072
:100510006120424D502066696C650D0A00000000A4
:1005200012110020424D50446973706C61793A2079
:10053000756E737570706F7274656420666F726D1E
:1005400061742121210D0A00D400002000BFFEE7C4
:10055000014600200BE000EBC002074B03EBC20298
:100560008A4202D1054A10707047421CD0B213284B
:10057000F1DB00BFF8E700009C1100201C00002008
:100580002DE9FC4F03460C46052A02DA1846BDE861
:10059000FC8FDD0AC3F3451603F01F074FEAD42C86
:1005A000C4F3451804F01F00019011460CFB01F044
:1005B000C1F1FF0E05FB0E004FF0FF0E90FBFEF0A9
:1005C0001FFA80F908FB01F0C1F1FF0E06FB0E00D7
:1005D0004FF0FF0E90FBFEF01FFA80FA019848439F
:1005E000C1F1FF0E07FB0E004FF0FF0E90FBFEF077
:1005F0001FFA80FB4FEAC92040EA4A1040EA0B008C
:1006000080B200900098C2E710B5044694F8240028
:10061000012805D1206C58B12046216C884707E09D
:1006200094F8240020B9606C10B12046616C8847B2
:1006300010BD10B50446E06B10B12046E16B884751
:1006400010BD0146422940D00EDCA1F13002122A31
:100650004FD2DFE802F0222426282A2C2E30323412
:100660004E4E4E4E4E4E4E36622930D00CDC452951
:1006700037D004DC43292CD044293AD12DE0462937
:1006800033D0612935D11EE0632924D0642926D0D6
:10069000652928D066292CD129E000202BE00120F3
:1006A00029E0022027E0032025E0042023E00520A4
:1006B00021E006201FE007201DE008201BE00920A4
:1006C00019E00A2017E00A2015E00B2013E00B20A8
:1006D00011E00C200FE00C200DE00D200BE00D20B0
:1006E00009E00E2007E00E2005E00F2003E00F20B8
:1006F00001E0102000BF00BF7047000070B500246B
:100700000EE0002508E0002004EB44010B4A02EB58
:1007100001114855681CC5B2302DF4DB601CC4B211
:10072000082CEEDB08200649087003F001FF0020CA
:10073000044908700249087070BD0000B419002017
:10074000850000208400002010B5044694F82400A1
:10075000012808D1002084F82400204600F0A0FEE3
:10076000204600F0F4FE10BD0020014908707047DB
:10077000B20000200020014908707047B00000203E
:100780000020014908707047B100002010B54FF4F7
:100790000071184805F019F840F6044006F02CFAEC
:1007A000082301221146144805F070F8082303229B
:1007B0000021114805F091F808210F4805F005F8CF
:1007C0000A2000F05DFD08210B4805F000F801202B
:1007D00000F056FD4FF40071064804F0F8FF0A20BF
:1007E00000F04EFD082300221146034805F04EF8A4
:1007F00010BD0000001802400010024010B540F685
:10080000014006F0F9F9402301221146184805F08D
:100810003DF8402303220021154805F05EF84021F1
:10082000134804F0D4FF802301221146104805F03C
:100830002DF88023032200210D4805F04EF8802179
:100840000B4804F0C4FF4FF400730122114609481D
:1008500005F01CF84FF4007303220021054805F051
:100860003CF84FF40071034804F0AFFF10BD0000E6
:10087000000402400018024010B540F6014006F0A6
:10088000BBF940F6084006F0B7F9202301221146D3
:10089000104804F0FBFF2023022200210D4805F040
:1008A0001CF820210B4804F092FF4FF480730122C2
:1008B0001146094804F0EAFF4FF480730222002138
:1008C000054805F00AF84FF48071034804F07DFFF5
:1008D00010BD0000000402400020024010B54FF49B
:1008E000A06005F0A5FE10BD10B54FF0807006F0B9
:1008F000DDF910BD10B5044640F6014006F07CF964
:10090000012C0CD1802301221146094804F0BEFFBE
:10091000802303220021064804F0DFFF06E02CB903
:10092000802301220021024804F0B0FF10BD000026
:1009300000040240F0B597B0064600274FF6FF745A
:100940004FF4606006F058F94FF4406006F054F937
:1009500040F6014006F050F940F6024006F04CF92E
:1009600040F6034006F048F940F6044006F044F92A
:1009700040F6054006F040F940F6064006F03CF926
:1009800040F6074006F038F940F6084006F034F922
:1009900001220C21FE4804F0E9FE0123002202217D
:1009A000FB4804F073FF012303220021F84804F000
:1009B00094FF02220C21F64804F0D8FE0223002204
:1009C0001946F34804F062FF022303220021F04895
:1009D00004F083FF04220C21ED4804F0C7FE042339
:1009E00000220221EA4804F051FF042303220021DF
:1009F000E74804F072FF08220C21E54804F0B6FE37
:100A0000082300220221E24804F040FF08230322C9
:100A10000021DF4804F061FF10220C21DC4804F0C3
:100A2000A5FE102300220221D94804F02FFF102335
:100A300003220021D64804F050FF20220C21D44884
:100A400004F094FE202300220221D14804F01EFF6E
:100A5000202303220021CE4804F03FFF4FF48052B0
:100A60000C21CB4804F082FE4FF480530022022177
:100A7000C74804F00BFF4FF4805303220021C44801
:100A800004F02BFF4FF400520C21C14804F06EFE1D
:100A90004FF4005300220221BD4804F0F7FE4FF44A
:100AA000005303220021BA4804F017FF4FF480429C
:100AB0000C21B74804F05AFE4FF480430022022173
:100AC000B34804F0E3FE4FF4804303220021B04812
:100AD00004F003FF4FF400420C21AD4804F046FE41
:100AE0004FF4004300220221A94804F0CFFE4FF446
:100AF000004303220021A64804F0EFFE01220C214E
:100B0000A44804F033FE012300220221A14804F08E
:100B1000BDFE0123032200219E4804F0DEFE0222D6
:100B20000C219C4804F022FE022300221946994819
:100B300004F0ACFE022303220021964804F0CDFE0F
:100B400004220C21934804F011FE04230022022108
:100B5000904804F09BFE0423032200218D4804F0FA
:100B6000BCFE4FF480420C218B4804F0FFFD4FF493
:100B7000804300220221884804F088FE4FF480431D
:100B800003220021844804F0A8FE4FF400420C2107
:100B9000814804F0EBFD4FF40043002202217E481F
:100BA00004F074FE4FF40043032200217A4804F05D
:100BB00094FE01220C21784804F0D8FD0123002284
:100BC0000221754804F062FE0123032200217248CD
:100BD00004F083FE02220C216F4804F0C7FD0223BB
:100BE000002219466C4804F051FE02230322002122
:100BF000694804F072FE80220C21684804F0B6FDBA
:100C0000802300220221654804F040FE8023032255
:100C10000021624804F061FE4FF480720C215F48AD
:100C200004F0A4FD4FF48073002202215B4804F01D
:100C30002DFE4FF4807303220021584804F04DFE2E
:100C40004FF400720C21554804F090FD4FF40073EE
:100C500000220221514804F019FE4FF400730322D0
:100C600000214E4804F039FE4FF480620C214B48BD
:100C700004F07CFD4FF4806300220221474804F019
:100C800005FE4FF4806303220021444804F025FE52
:100C90004FF400620C21414804F068FD4FF40063FA
:100CA000002202213D4804F0F1FD4FF400630322CD
:100CB00000213A4804F011FE4FF480520C213748CD
:100CC00004F054FD4FF4805300220221334804F015
:100CD000DDFD4FF4805303220021304804F0FDFD78
:100CE0004FF400520C212D4804F040FD4FF4005306
:100CF00000220221294804F0C9FD4FF400530322C9
:100D00000021264804F0E9FD4FF480420C212348DD
:100D100004F02CFD4FF48043002202211F4804F010
:100D2000B5FD4FF48043032200211C4804F0D5FD9B
:100D30004FF400420C21194804F018FD4FF4004311
:100D400000220221154804F0A1FD4FF400430322C4
:100D50000021124804F0C1FD4FF480720C210E48AE
:100D600004F004FD4FF48073002202210A4804F0CD
:100D70008DFD4FF4807303220021074804F0ADFD80
:100D80004FF400720C21044804F0F0FC08E000006D
:100D90000014024000180240000C02400010024003
:100DA0004FF4007300220221B14804F06FFD4FF4AC
:100DB000007303220021AE4804F08FFD4FF48062DF
:100DC0000C21AB4804F0D2FC4FF4806300220221D6
:100DD000A74804F05BFD4FF4806303220021A44880
:100DE00004F07BFD10220C21A24804F0BFFC10236C
:100DF000002202219F4804F049FD10230322002114
:100E00009C4804F06AFD20220C219A4804F0AEFCB4
:100E1000202300220221974804F038FD20230322DA
:100E20000021944804F059FD01220C21924804F05D
:100E30009DFC0123002202218F4804F027FD01239D
:100E4000032200218C4804F048FD02220C218A482C
:100E500004F08CFC022300221946874804F016FD9A
:100E6000022303220021844804F037FD20220C21B4
:100E7000824804F07BFC2023002202217F4804F0FA
:100E800005FD2023032200217C4804F026FD4FF4B9
:100E900000420C21774804F069FC4FF40043002223
:100EA0000221744804F0F2FC4FF4004303220021B5
:100EB000704804F012FD4FF400620C21704804F0F9
:100EC00055FC4FF40063002202216D4804F0DEFC63
:100ED0004FF4006303220021694804F0FEFC402225
:100EE0000C21664804F042FC4023002202216348A2
:100EF00004F0CCFC402303220021604804F0EDFC08
:100F000080220C215D4804F031FC80230022022164
:100F10005A4804F0BBFC802303220021574804F008
:100F2000DCFC4FF480720C21524804F01FFC4FF49B
:100F30008073002202214F4804F0A8FC4FF4807314
:100F4000032200214B4804F0C8FC042E01D11025D7
:100F500000E008250A2000F093F902200B900620FB
:100F60000A90032009900520089001200790069020
:100F700005900C9615900820149010201390402096
:100F8000129080001190002010904FF440600F905C
:100F900001200E9000200D9005A816900CA804F0DA
:100FA00035FB0120049003950020029001904FF63C
:100FB000FF7400E0641E2021304604F0FFFA08B1FF
:100FC000002CF7D101A804F013FB0A2000F058F917
:100FD0000220049003950020029001904FF6FF74C8
:100FE00000E0641E2021304604F0E8FA08B1002C2D
:100FF000F7D101A804F0FCFA032004900395E02047
:101000000290002001904FF6FF7400E0641E202142
:10101000304604F0D3FA08B1002CF7D101A804F04F
:10102000E7FA40F221270420049003950020029063
:1010300001974FF6FF7400E0641E2021304604F053
:10104000BDFA08B1002CF7D101A804F0D1FA4FF491
:10105000177004F067FB4FF6FF7400E0641E202158
:10106000304604F0ABFA08B1002CF7D117B0F0BD50
:10107000000C02400018024000100240001C024018
:10108000001402407FB504460D464FF4805005F031
:10109000B3FD4FF0804007F037F8684607F05BF982
:1010A000ADF800500020ADF804000294ADF8060041
:1010B00069464FF0804007F0EFF80121880707F0FC
:1010C00037F9002201211C2005F050FA4FF0804032
:1010D00007F0DCF87FBD00007FB504460D4641F205
:1010E000030005F089FD0F4807F00EF8684607F089
:1010F00032F9ADF800500020ADF804000294ADF8CC
:1011000006006946074807F0C7F80121054807F0BF
:101110000FF900220121322005F028FA014807F0DA
:10112000B5F87FBD000C004010B504460022114602
:10113000252005F01BFA4FF4406005F05DFD4FF4EB
:1011400000720721264804F011FB4FF4806207214A
:10115000234804F00BFB4FF40073012202212048C6
:1011600004F094FB4FF40073022200211C4804F0A9
:10117000B4FB4FF4806300220221194804F086FB7F
:1011800041F2041005F038FD164807F097FA2146A1
:10119000144807F015FA0021124807F064FB0021FB
:1011A000104807F070FB00210E4807F04CFB0421AB
:1011B0000C4807F050FB08210A4807F05CFB09487F
:1011C00007F0EAFA40F20531064807F006FB40F264
:1011D0000731044807F001FB00200349087010BDE7
:1011E0000000024000100140C400002038B5044651
:1011F000A06A28B1A06A009094E80F0000F0ACFA51
:10120000002084F82400204600F0E6F8204600F094
:1012100081F938BD10B50446002084F8240020462A
:1012200000F03EF9204600F092F910BD30B50346BB
:10123000002016E0B3F900509C68645D0C541C88D3
:10124000641C24B21C80B3F90040B3F90450AC42D2
:1012500001DB00241C80441C20B2DC88641E24B204
:10126000DC80B3F90640002C01DD9042E2DB30BDAA
:10127000704710B5044604EB840000F013F810BD6D
:1012800001B50749009808604FF0E02040694FF031
:10129000E021886100BF024800680028FBD108BD3A
:1012A000C800002001B5009806E0002101E04A1CBA
:1012B00091B22629FBDB401E0028F6D108BD0000B4
:1012C00070B5052400250AE0134800EB851090F85E
:1012D0002400012801D12C4603E0681CC5B2042D6E
:1012E000F2DB00BF052C16D00C48065D002E12DD87
:1012F00000210B4800EB8412701E11540748005D5A
:10130000401E06490855064A02EB8411024A02EBC8
:10131000841002F025FF70BDF4160020800000202C
:10132000F417002070B504460D461646A07820B983
:10133000324629462046FEF7FDFF70BD00B585B058
:101340000548009049F24530029000221146684657
:1013500000F018F805B000BD56A0000800B585B033
:101360000648009044F2DD3002900548426801686A
:10137000684600F007F805B000BD0000C2C90208C9
:101380009419002070B5A0B004460E46154620689A
:1013900008B1A06820B90C4803F0AAF920B070BDCC
:1013A000E6602561002060604FF48053074A0849D9
:1013B00001A8009404F043FC20B90022054901A8CB
:1013C00004F0ECFB00BFE9E708A1040804010020D9
:1013D0001B2F0008672F00082DE9F84304462568F5
:1013E0006668A16820684718E168606800EB01083A
:1013F000A06A28B1A06A009094E80F0000F0E8F815
:1014000094F8240018BB94F83500052808D1E06B47
:1014100043463A4631460090284600F059F93DE0EF
:1014200094F83500042839D0206B40B9E06B43466E
:101430003A4631460090284600F04AF92EE094F8EA
:10144000353031462846226B00F000F926E094F84A
:101450002400012822D194F83400052808D1A06B7B
:1014600043463A4631460090284600F031F915E0EF
:1014700094F83400042811D0E06A40B9A06B4346C8
:101480003A4631460090284600F022F906E094F8EA
:10149000343031462846E26A00F0D8F8BDE8F883D7
:1014A0002DE9F843044625686668A1682068471856
:1014B000E168606800EB010894F82400012812D16B
:1014C000A06A40B9606B43463A46314600902846D0
:1014D00000F0FEF81CE094F8303031462846A26A4D
:1014E00000F0B4F814E094F8240088B9E06A40B938
:1014F000A06B43463A4631460090284600F0E8F893
:1015000006E094F8313031462846E26A00F09EF851
:10151000BDE8F8832DE9FF4104462169206845189C
:10152000616960684618207E00F0AAF9A168B1FBE5
:10153000F0F701210022E06901AB83C30092237E12
:1015400031462846226A00F097F8BDE8FF812DE970
:10155000FF410446216920684518616960684618A2
:10156000207E00F08DF9A168B1FBF0F70121002287
:10157000E06901AB83C30092237E31462846226A8C
:1015800000F07AF8BDE8FF8170B50346002016E050
:101590000C5CB3F902609D68AC555C88641C24B295
:1015A0005C80B3F90240B3F90450AC4201DB002483
:1015B0005C80441C20B2DC88641C24B2DC80B3F95B
:1015C0000640B3F90450AC4201DA9042E0DB70BD52
:1015D0002DE9F84F04460D4616461F46DDF82880D3
:1015E000A019A0F10109E819A0F1010A53464A46E1
:1015F00029462046CDF8008001F01EFDBDE8F88F99
:101600002DE9FF4F83B0804617461C46DDE911AB3C
:10161000DDF840900CB9002506E0012C01D1012530
:1016200002E0022C00D10225BBF1000F01D10026FF
:1016300000E0012633462A46CDE900A9029740463C
:10164000049901F085FF07B0BDE8F08F2DE9F04166
:1016500005460E4617461C462CB9324629463846E2
:10166000FFF760FE06E0012C04D1324629463846D9
:10167000FFF788FEBDE8F0812DE9FF4F85B00546F4
:1016800016461F46DDE914ABDDE91289384600F045
:10169000F7F80490344612E020787E280EDC20789B
:1016A00020280BDB8DE8000722783B462846069968
:1016B000FFF7A6FF641C0498054400E004E0BBF1BA
:1016C0000000ABF1010BE7D100BF09B0BDE8F08F1E
:1016D0002DE9F84304460D4616461F46DDF82080E6
:1016E0003B46324629462046CDF8008001F02CFDCD
:1016F000BDE8F8832DE9F04106460F461446052C57
:1017000006D34FF0FF30306038600020BDE8F08134
:1017100000F00CFA0546681C005D01280ED104EBB0
:101720004401A81D30F81100306004EB4401A81DED
:1017300000EB4100408838600120E7E74FF0FF30C0
:10174000306038600020E1E770B504460D46294658
:10175000204601F0D5FE70BD2DE9FF5F05460E461F
:101760009146DDF838A0BAF1000F01D1BDE8FF9F26
:10177000D3464FF0000834460FE02F4608E02146DC
:101780003846FFF7E1FF2BF8180008F101087F1C2D
:1017900005EB0900B842F2D8641C03983044A0421B
:1017A000EBD800BFE2E7000010B588B026A30FCB4E
:1017B00004AC0FC402F080FB0446142C3FD00F2C65
:1017C00004DC04A9085DFEF779FD38E0122C02D193
:1017D000FFF776FD33E0112C18D11F48006870B375
:1017E0001D480068806850B303A9002000F056F837
:1017F00028BB02A9012000F051F800BB0298C1B239
:101800001548006882680398904718E0102C16D19C
:101810001148006898B110480068C06878B101A903
:10182000022000F03BF850B96946032000F036F87A
:1018300028B909480068C268DDE90010904702F045
:1018400059FB08B010BD0000303132333435363723
:1018500038394142434445460C0000200148007895
:1018600070470000B2000020014800787047000077
:10187000B00000200148007870470000B10000204F
:10188000014609B906207047012901D10820FAE76D
:10189000022901D10C20F6E70020F4E72DE9F04100
:1018A000064688460027042E02DB0120BDE8F081B1
:1018B000002700240EE00C4901EB8611C85DFEF7FD
:1018C000C0FE0546102D02D205EB041400E002E034
:1018D000781CC7B2EFE700BF0FB90120E6E7C8F8F0
:1018E00000400020E2E70000F4170020014600223B
:1018F0008B5C501C085C43EA00206B4B1880022272
:101900008B5C501C085C43EA0023901C085C43EA93
:101910000043D01C085C43EA0060634BC3F802003C
:1019200006228B5C501C085C43EA00205E4BD8808A
:1019300008228B5C501C085C43EA00205A4B18813B
:101940000A228B5C501C085C43EA0023901C085C54
:1019500043EA0043D01C085C43EA0060524BC3F8E2
:101960000A000E228B5C501C085C43EA0023901C8A
:10197000085C43EA0043D01C085C43EA00604B4B20
:10198000186012228B5C501C085C43EA0023901CF8
:10199000085C43EA0043D01C085C43EA0060434B08
:1019A000586016228B5C501C085C43EA0023901C94
:1019B000085C43EA0043D01C085C43EA00603B4BF0
:1019C00098601A228B5C501C085C43EA0020374B5D
:1019D00098811C228B5C501C085C43EA0020334B2E
:1019E000D8811E228B5C501C085C43EA0023901CAB
:1019F000085C43EA0043D01C085C43EA00602B4BC0
:101A0000186122228B5C501C085C43EA0023901C66
:101A1000085C43EA0043D01C085C43EA0060234BA7
:101A2000586126228B5C501C085C43EA0023901C02
:101A3000085C43EA0043D01C085C43EA00601B4B8F
:101A400098612A228B5C501C085C43EA0023901C9E
:101A5000085C43EA0043D01C085C43EA0060134B77
:101A6000D8612E228B5C501C085C43EA0023901C3A
:101A7000085C43EA0043D01C085C43EA00600B4B5F
:101A8000186232228B5C501C085C43EA0023901CD5
:101A9000085C43EA0043D01C085C43EA0060034B47
:101AA000586200207047000004110020121100202D
:101AB00030B502460B46154DED89202D03D1134D4F
:101AC0006D68A9001BE0114DED89182D0AD10F4D4D
:101AD0006D6805EB450100E0491C01F00305002D90
:101AE000FAD10CE0094DED89102D08D1074D6D6834
:101AF000690000E0491C01F00305002DFAD1044DF6
:101B0000D5F80A5001FB0354101930BD1211002002
:101B10000411002010B58021034803F0AFFE08B97E
:101B2000002010BD0120FCE700040240004870477F
:101B30005411002000BFFEE710B5044601202169C2
:101B400088470020A16888470120616988470120F3
:101B5000616888470120616988470120A16888473A
:101B600001206169884700202169884710BD70B550
:101B700004460125002021698847012061698847C2
:101B8000012061688847012061698847E0688047D3
:101B9000054600206168884701206169884728461A
:101BA00070BD2DE9F04106460F4614461D46DDF88E
:101BB0001880304600F0E0F8307820F0010130461F
:101BC00000F0A9F8012805D13046FFF7B5FF012044
:101BD000BDE8F0813912304600F09DF8012804D1AB
:101BE0003046FFF7A9FF0120F2E7F9B2304600F0D6
:101BF00092F8012804D13046FFF79EFF0120E7E765
:101C00003046FFF799FF304600F0B6F8307840F0E4
:101C10000101304600F07FF8012804D13046FFF77B
:101C20008BFF0120D4E70EE0012D05D1414630465F
:101C300000F010F8207004E00021304600F00AF8AF
:101C40002070641C6D1E002DEED13046FFF774FF2E
:101C50000020BDE72DE9F04104460D46002600278F
:101C600000202169884700BF12E001206168884791
:101C7000012061698847E068804740EA4700C7B2B1
:101C8000002061688847012061698847701CC6B2DE
:101C9000082EEADB1DB9204600F007F802E02046D6
:101CA00000F01EF83846BDE8F08110B5044601206A
:101CB000216988470020A168884701206169884719
:101CC00001206168884701206169884700206168B8
:101CD000884701206169884700202169884710BD35
:101CE00010B504460120216988470120A168884772
:101CF0000120616988470120616888470120616986
:101D00008847002061688847012061698847002072
:101D10002169884710BD2DE9F04104460D46002693
:101D2000012701202169884700BF1CE005F08000E1
:101D300018B10120A168884702E00020A168884707
:101D40006806050E0120616988470120616888479F
:101D50000120616988470020616888470120616926
:101D60008847701CC6B2082EE0DB2046FFF7FFFE56
:101D700007463846BDE8F08110B50446002061688A
:101D8000884701206169884701202169884701202F
:101D9000A1688847012061698847012061688847F8
:101DA0000120616988470020A16888470120616996
:101DB00088470020616888470120616988470020C2
:101DC0002169884710BD2DE9F04106460C461546AD
:101DD0001F463046FFF7D0FF307820F00101304633
:101DE000FFF799FF012805D13046FFF7A5FE012036
:101DF000BDE8F08121123046FFF78DFF012804D1A4
:101E00003046FFF799FE0120F2E7E1B23046FFF7D6
:101E100082FF012804D13046FFF78EFE0120E7E75C
:101E20000BE015F8011B3046FFF775FF012804D1C0
:101E30003046FFF781FE0120DAE7381EA7F10107DF
:101E4000EFD13046FFF778FE0020D1E77047000061
:101E5000002101604160822181604121C160232114
:101E6000016114214161022101764FF6FF71C161C8
:101E70000BA10162002180F8241080F825108162F6
:101E8000C162016380F8341080F835104FF4FC61B2
:101E900081631F21C1630021016441647047000018
:101EA000427574746F6E00000EB5FEF7A7FCFEF766
:101EB0006DFC28201249087012484860124888605A
:101EC0001248C86012480861124848616420FFF750
:101ED000D7F90120042301AA48F2401100900848D4
:101EE000FFF75FFE18B10CA002F002FC0EBD00204F
:101EF0008DF8080001A910A002F0FAFB00BFF5E779
:101F00003C11002081410008A1410008151B000878
:101F1000F508000873120008496E6974475431319E
:101F20003531513A204661696C20746F20676574C1
:101F30002069640D0A000000546F756368204944ED
:101F40003A2025730D0A000010B50446002001F068
:101F5000C1F847F6FF7001F02DF8FFF7EFF900F038
:101F600013F800F031F900F041FAFEF7C7FB03481F
:101F70002061034860610348046010BDFD0600084D
:101F80006D4200080C00002010B50120794908704E
:101F900048700020887078484860012077490870B0
:101FA00048700020887076484860012075490870A4
:101FB0004870002088707448486001207349087098
:101FC0004870002088707248486014207149087079
:101FD00000244FE004EBC4016F4A02EBC100FFF79D
:101FE00037FF6E4830F8140004EBC4016A4A42F827
:101FF00031006B4830F8140004EBC40102EBC1015E
:102000004860412004EBC40102EBC101886004EB8D
:10201000C40102EBC101C860192004EBC40102EB4A
:10202000C1010861142004EBC40102EBC101486145
:102030005C4850F8240004EBC40102EBC1010862C3
:102040004C4804EBC40102EBC101C8624B4804EBED
:10205000C40102EBC1010863534804EBC40102EB65
:10206000C101086404EBC40102EBC100FFF7BEF834
:10207000601CC4B20F2CADDD4C48FFF7E9FE4748A9
:10208000008C4549C1F880044548018C4248C0F89D
:1020900084148221C0F888144121C0F88C142321B3
:1020A000C0F890141421C0F8941441A1C0F8A014F1
:1020B0003449C0F8AC143549C0F8B0143A49C0F8F6
:1020C000C0143A48FFF792F838484830FFF7C0FE8E
:1020D0003248408C3049C1F8C8043148418C2E4800
:1020E000C0F8CC148221C0F8D0144121C0F8D41417
:1020F0002321C0F8D8141421C0F8DC142EA1C0F894
:10210000E8142049C0F8F4142049C0F8F81426490E
:10211000C0F8081500F59960FFF768F8234890307B
:10212000FFF796FE1D48808C1B49C1F810051C481E
:10213000818C1948C0F814158221C0F81815412166
:10214000C0F81C152321C0F820151421C0F824154F
:102150001BA1C0F830150B49C0F83C150B49C0F85D
:1021600040151149C0F8501500F5A260FFF73EF880
:1021700010BD000060000020EE540308680000203D
:1021800060120308700000200E1C04087800002074
:102190007C9703081C0000209C110020A0A00408CC
:1021A000C6A0040820000020510500081C160020CD
:1021B0005245414400000000575249544500000078
:1021C0004241434B0000000070B500240FE00020A6
:1021D0006F490855002506E000206E4901EB841187
:1021E0004855681CC5B2402DF6DB601CC4B2042CF7
:1021F000EDDB694800F030FC6848694908604FF43D
:102200004A50886067486849086042F6E060886024
:1022100066480088604908606548008848606548ED
:10222000008888603220C8604B2008610A2048611D
:10223000584808625A4888625B48C8625E48C8636A
:102240000846FEF7E7FF5448403000F005FC5B48C5
:102250005B49086043F2B73088605A485A490860C1
:1022600042F66B608860514840884B49086450488A
:102270004188494841644F48418847488164322138
:10228000C1644B2101650A21416542484030424901
:1022900008664B49404881664B49C1664649C1675B
:1022A0004030FEF7B7FF3C48803000F0D5FB474890
:1022B0004749086043F227708860464846490860ED
:1022C00043F284208860394880883349C1F880000F
:1022D000374881883048C0F88410364881882E48B5
:1022E000C0F888103221C0F88C105521C0F8901029
:1022F0000A21C0F89410274880302749C1F8A0006F
:1023000033492548C0F8A8103349C0F8AC102A4911
:10231000C0F8BC108030FEF77DFF1F48C03000F0D1
:102320009BFB2E482E49086043F2346088602D489C
:102330002D49086043F2C62088601C48C0881649B1
:10234000C1F8C0001A48C1881348C0F8C410194821
:10235000C1881148C0F8C8103221C0F8CC105521EE
:10236000C0F8D0100A21C0F8D4100A48C0300A4979
:10237000C1F8E0001A490848C0F8E8101A49C0F846
:10238000EC100D49C0F8FC10C030FEF743FF70BDE3
:1023900080000020F4170020F41600209B33010871
:1023A000F41800201B66010808190020ECA004089E
:1023B000F4A00408FCA0040825380008FB940108D8
:1023C0001C190020B2C80108301900201DF70108AF
:1023D00044190020442E020858190020C860020841
:1023E0006C190020FC9602088019002070B5192095
:1023F00013490860372048604FF4D77088604FF465
:102400008770C8604FF6FF700861022008751820B9
:102410008861FEF7A3FF0A4800880949896800EB34
:10242000510084B2064880880549C96800EB510014
:1024300085B22946204601F063F80149C86170BDA4
:102440009419002010B501F057FF00F03CFB00F09C
:1024500024FB4FF4E13000F0DFFC00F0A9FC00F0B9
:102460007FFC00F069FC10BD7047000010B58EB015
:102470004FF44870FE4908604FF4F0704860002047
:1024800008720877FB4808624FF050404862FA48EB
:1024900088620220C86200240AE0F54801680C3016
:1024A00040F824100C384168143040F82410641CA3
:1024B000022CF2D341F21A1004F09EFB4FF440605C
:1024C00004F09AFB40F6014004F096FB40F602400F
:1024D00004F092FB40F6034004F08EFB40F604400B
:1024E00004F08AFB40F6054004F086FB40F6064007
:1024F00004F082FB40F6074004F07EFB40F6084003
:1025000004F07AFB04220E21DC4803F02FF90423A7
:1025100000220221D94803F0B9F904230322002143
:10252000D64803F0DAF908220E21D44803F01EF948
:10253000082300220221D14803F0A8F9082303222E
:102540000021CE4803F0C9F94FF480720E21CB4828
:1025500003F00CF94FF4807300220221C74803F006
:1025600095F94FF4807303220021C44803F0B5F9B4
:1025700001220921C24803F0F9F8012300220221B7
:10258000BF4803F083F9012303220021BC4803F074
:10259000A4F94FF480620E21B84803F0E7F84FF435
:1025A000806300220221B54803F070F94FF4806384
:1025B00003220021B14803F090F94FF400620E218C
:1025C000AE4803F0D3F84FF4006300220221AB4879
:1025D00003F05CF94FF4006303220021A74803F0E5
:1025E0007CF902220921A64803F0C0F80223002248
:1025F0001946A34803F04AF9022303220021A04808
:1026000003F06BF940220E219E4803F0AFF84023FF
:10261000002202219B4803F039F9402303220021C4
:10262000984803F05AF920220E21974803F09EF8AB
:10263000202300220221944803F028F920230322BA
:102640000021914803F049F940220E218E4803F001
:102650008DF84023002202218B4803F017F9402314
:1026600003220021884803F038F94FF400520E216C
:10267000824803F07BF84FF40053002202217F4888
:1026800003F004F94FF40053032200217B4803F0C8
:1026900024F94FF4806209217A4803F067F84FF477
:1026A000806300220221774803F0F0F84FF4806342
:1026B00003220021734803F010F94FF400420E2169
:1026C0006E4803F053F84FF40043002202216B4898
:1026D00003F0DCF84FF4004303220021674803F0C5
:1026E000FCF801220E21694803F040F80123002282
:1026F0000221664803F0CAF801230322002163483F
:1027000003F0EBF802220E21604803F02FF80223B9
:10271000002219465D4803F0B9F802230322002184
:102720005A4803F0DAF804220E21584803F01EF844
:10273000042300220221554803F0A8F804230322B1
:102740000021524803F0C9F810220E214E4803F030
:102750000DF81023002202214B4803F097F81023B4
:1027600003220021484803F0B8F84FF480520E21AC
:10277000444802F0FBFF4FF48053002202214148FD
:1027800003F084F84FF48053032200213D4803F006
:10279000A4F840220E213E4802F0E8FF4023002228
:1027A00002213B4803F072F84023032200213848FD
:1027B00003F093F84FF400620E21324802F0D6FF86
:1027C0004FF40063002202212E4803F05FF84FF41B
:1027D0000063032200212B4803F07FF810220E2112
:1027E0002A4802F0C3FF102300220221274803F0E9
:1027F0004DF8102303220021244803F06EF808222C
:102800000E21244802F0B2FF0823002202212148B1
:1028100003F03CF80823032200211E4803F05DF872
:102820004FF480720E21164802F0A0FF4FF480731F
:1028300000220221124803F029F84FF4807303228A
:1028400000210F4803F049F84FF400720E210C48A4
:1028500002F08CFF4FF4007300220221084803F0BD
:1028600015F84FF4007303220021054814E000001E
:10287000D4000020000000D0C0BB0BD0001C0240E0
:1028800000040240001802400010024000200240F4
:10289000000C02400000024003F01FF84FF4806279
:1028A0000E21674802F062FF4FF48063002202218C
:1028B000634802F0EBFF4FF480630322002160487D
:1028C00003F00BF84FF400720E215E4802F04EFF49
:1028D0004FF40073002202215A4802F0D7FF4FF450
:1028E000007303220021574802F0F7FF4FF4806283
:1028F0000E21544802F03AFF4FF480630022022177
:10290000504802F0C3FF4FF48063032200214D487A
:1029100002F0E3FF80220E214B4802F027FF8023C4
:1029200000220221484802F0B1FF80230322002147
:10293000454802F0D2FF4FF40053012211464348AC
:1029400002F0A4FF4FF40053022200213F4802F09E
:10295000C4FF4FF400513D4802F039FF05F00DFD72
:1029600001A805F01BFE04221146F02004F07AF9BC
:1029700008B900BFFEE7002004F0AAF91C2004F00B
:102980007BF81C2004F08AF808B900BFFEE700209D
:102990000A900B900C900D902F20ADF806000220AD
:1029A000ADF804008720ADF80A002220ADF8080039
:1029B00040F2A730049040F20220039040F2CF3062
:1029C000069040F20F200590002007900890099093
:1029D00001A805F0F9FC4FF4F0704FF448730022A1
:1029E00011460090104600F0A3FC4FF4F0704FF435
:1029F0004873002211460090012000F099FC00204D
:102A000000F06EFC012000F057FCFF21002000F0D8
:102A10009BFEFF21012000F097FE012005F0B8FC8D
:102A2000012005F0A9FD05F0C5FC002000F06CFCBC
:102A3000002000F04FFB002000F0BCFA0EB010BDEB
:102A4000001402400020024000180240000802402A
:102A500010B5FDF711FF10BD002101604160642138
:102A600081603221C1604B2101610A214161022153
:102A700001764FF6FF71C161002101628162C1627E
:102A8000012180F8301080F831104FF4FC6141636F
:102A90001F2181630021C163704710B5FDF71EFF40
:102AA00010BD30B50B460024048044808280C48071
:102AB0008360002104E0002485686C544C1C21B222
:102AC0009142F8DB30BD10B5FDF70EFF10BD0000E0
:102AD00010B500F03BF80020104908600846006877
:102AE0000F49C96B0844401E0C4948600D48886076
:102AF0000D48C8600846FFF727FA084843680BA14D
:102B00000268104801F004FE044841690D488847F6
:102B10000C490DA001F0ECFD10BD00009C1B002035
:102B2000F423002025460008913B000841646472AC
:102B30003A20307825303858202D2030782530380C
:102B4000580D0A00B42300202573000010B586B08C
:102B5000012443E0012C1AD10024002000F0BAFA2D
:102B60004FF6FF7000F026FA50A04FF6FF714FF6B7
:102B70001F020023CDE90132CDE9031002201E23FC
:102B80004FF49672C8210090FA2000F075FD4DA018
:102B900001F0AEFD0021084600F0F4FD6420FEF7D0
:102BA0006FFB0121002000F0EDFD6420FEF768FBC3
:102BB0000021084600F0E6FD6420FEF761FB0121DC
:102BC000002000F0DFFD6420FEF75AFB00210846DC
:102BD00000F0D8FD4FF47A70FEF752FB04F0BAFE15
:102BE0001D28B7D13FA001F083FD474804F018FC31
:102BF000454800F031FE4449B1F8440004F0FEFDC0
:102C000005A804F06BFE059800F0007000283FD086
:102C10004FF6FF7000F0CEF93CA04FF6FF714FF673
:102C20001F020023CDE90132CDE9031002201E234B
:102C30004FF49672C8210090FA2000F01DFD38A0D4
:102C400001F056FD23E00021084600F09BFD6420C2
:102C5000FEF716FB0121002000F094FD6420FEF732
:102C60000FFB0021084600F08DFD6420FEF708FBF5
:102C70000121002000F086FD6420FEF701FB002109
:102C8000084600F07FFD4FF47A70FEF7F9FADAE7B4
:102C90004FF4006004F0FCFA002005F05BF800221D
:102CA0001146312003F062FC06B010BD506C656126
:102CB000736520696E73657274205344206361727A
:102CC000640000004661696C656420746F20696E61
:102CD000697469616C697A65205344206361726428
:102CE0000D0A0000496E697469616C697A65205348
:102CF00044206361726420737563636573736675E2
:102D00006C6C790D0A000000F4230020534420630A
:102D1000617264206973206C6F636B6564210000CD
:102D200053442063617264206973206C6F636B6528
:102D300064210D0A0000000010B50520FDF7FAFD22
:102D400010BD10B5FFF784FEFFF790FBFFF78CFB7B
:102D5000FFF77CF800F038F8FFF7BAFE10BD00006E
:102D600010B5124800684FF47A71B0FBF1F4601EA0
:102D7000B0F1807F01D301200FE0601E4FF0E02111
:102D800048610F214FF0FF3001F0D6FC00204FF0DA
:102D9000E021886107200861002008B100BFFEE73C
:102DA0000021481E01F0C8FC10BD0000CC0000202E
:102DB00010B5EF2140F2E730FEF764F9EF2140F261
:102DC000E730FEF789F910BD10B5FFF76DF8002068
:102DD00010490870002419E000210E48401C0155DC
:102DE0004FF6FF7104EB4402401D20F8121004EB73
:102DF000440200EB42004180002104EB44020548FC
:102E0000801D00EB42008180601CC4B2052CE3DB16
:102E100010BD00005411002010B5044600F004F865
:102E20002046FEF781F910BD10B5002406E0002011
:102E30000A4908550A490855601C04B2B4F5007FD8
:102E4000F5DB4FF4007205490648FFF72AFE4FF400
:102E5000007203490448FFF724FE10BD54240020EB
:102E6000542600203C240020482400202DE9FC4763
:102E7000044626686768A168206800EB0108E168DD
:102E8000606800EB0109002518E02A46694601A8A0
:102E9000FEF730FC01280FD10198B0420BD3019806
:102EA000404508D80098B84205D30098484502D854
:102EB0000120BDE8FC8700E000BF6D1C052DE4D3B8
:102EC0000020F6E72DE9FC4704460022694601A8E8
:102ED000FEF710FC054615B90020BDE8FC87012D62
:102EE00019D1D4F800906668A16820684718E16895
:102EF000606800EB0108019848450AD30198B84280
:102F000007D80098B04204D30098404501D801206A
:102F1000E3E70020E1E70020DFE7F0B505460C46D7
:102F2000A96FA4B1002000230EE0D1E90167BE42E1
:102F300008D2D1E90067F65DE6544E68761C4E6013
:102F4000401C00E002E05B1C9342EED30AE04E68B6
:102F500016448F68BE4204D24E6816444E60104636
:102F600000E00020F0BD2DE9FC5F07460E46144648
:102F7000BD6F2088A98908441FFA80F9A088298A92
:102F800008441FFA80FA6088A98908441FFA80FB68
:102F9000E088298A084480B20190B046CDF80080CC
:102FA0005A4651464846019B00F06AF80020BDE8A9
:102FB000FC9F000010B58CB00446A0B26B4601AA7D
:102FC00002A900F0A2FD40F6174003F015FE02F042
:102FD00005FD4FF4403002F0C9FD03A802F0A6FD44
:102FE000022006901348006A039000200490FF20FE
:102FF00005909DF8080007909DF8040008909DF842
:10300000000009904FF448700A904FF4F0700B9054
:1030100003A802F0EDFC02F0B7FD00BF022002F0B1
:1030200099FD0028FAD0022002F08CFD02F0D6FCB7
:103030000CB010BDD40000202DE9F04F05460C4621
:1030400016461F46DDF824B0A846A1464FF0000AF8
:103050004C460FE0454608E03BF81A20214628463A
:1030600000F04CF80AF1010A6D1C08EB0600A842BA
:10307000F2D8641C09EB0700A042EBD8BDE8F08F42
:103080002DE9F04F04460D4616461F46B44202D9BC
:10309000A24634465646BD4202D9AA463D46574648
:1030A0004FF0000BA84610E0A1460AE0099830F85E
:1030B0001B204146484600F021F80BF1010B09F1B5
:1030C0000109B145F2D908F10108B845ECD9BDE8CC
:1030D000F08F0000084A127A82420BD0064A107222
:1030E000D1685269044BDA601A46516111699369DB
:1030F0001361916170470000D4000020F0B5114DBC
:103100002E7F0C3555F826400C3D2E7F143555F892
:103110002630A04201D2994200D3F0BD094D2D7A4C
:1031200035B9084E366A04FB010726F8172007E078
:103130005D1E6D1A03FB0055024F3F6A27F81520EC
:1031400000BFEAE7D40000202DE9FF4F95B0834689
:1031500014461E465748007A68B95648017F0C301D
:1031600050F821800C38017F143050F821000A906B
:103170005D46169F1CE04F48007A012818D14D4843
:10318000017F0C3050F821800C38017F143050F84A
:1031900021000A90CDF82080DDF8288008980A9058
:1031A00008943446089E1698A8EB0000051B5F465D
:1031B0002819B0F5487F01D9C5F54874B819B0F59C
:1031C000F07F01D9C7F5F0763A48007A40B9A946B0
:1031D00009F10100049007EB060ACDF80CA00EE0FF
:1031E0003448007A01280AD10BEB0609CDF810907B
:1031F00016982044A0F1010AAAF10100039051465B
:10320000484600F07DF90290DDE9031000F078F9FE
:1032100001902848006A2749C96A08FB075201FB48
:1032200002000B90A8EB04000990229988B205AB2C
:1032300006AA07A900F069FC40F6174003F0DCFC81
:1032400002F0CCFB4FF4403002F090FC0CA802F0EE
:103250006DFC02200F900B980C9009980D90FF20A8
:103260000E909DF81C0010909DF8180011909DF88C
:1032700014001290139414960CA802F0B9FB02F0FB
:1032800083FC00BF022002F065FC0028FAD0022077
:1032900002F058FC02F0A2FB51464846029AFFF7A2
:1032A0002DFF019ADDE90310FFF728FF19B0BDE8F3
:1032B000F08F0000D400002010B504461CB9074868
:1032C00005F0E0F805E0012C03D10448803005F05A
:1032D000D9F8012005F050F910BD00000068014048
:1032E00010B504461CB9074805F0D3F805E0012CD9
:1032F00003D10448803005F0CCF8012005F03CF9FA
:1033000010BD00000068014028B90649064A116254
:103310000021117704E00549034A11620121117768
:1033200070470000000000D0D4000020C0BB0BD0CC
:103330002DE9F04F8BB080460E4617461C46149D73
:1033400001A805F0F9F86A48007A012816D1B246BA
:103350007819A0F1010B5646374640F21F30A0EB1A
:103360000B06B6F5487F02D30BB0BDE8F08FB7F57A
:10337000F07F00D3F8E7A1462C464D463019B0F552
:10338000487F01D9C6F548747819B0F5F07F01D9A6
:10339000C7F5F075B8F1000F4FD106F1880080B283
:1033A000ADF806003019873080B2ADF8040007F19F
:1033B000230080B2ADF80A007819223080B2ADF84F
:1033C000080002200390FF208DF810008DF81400F3
:1033D0008DF813008DF812008DF811004FF4C060C5
:1033E00006900720079043480890032000EB440014
:1033F00080B2ADF826004FF6FF7000EA4400ADF849
:103400002400A8B2ADF8280001A93B4805F048F80F
:10341000394804F0ABFF384805F0A6F83448007A84
:1034200018B93348C46045615DE03148007A01282D
:1034300059D12F48C560446155E0B8F1010F52D110
:1034400006F1880080B2ADF806003019873080B2EE
:10345000ADF8040007F1230080B2ADF80A00781936
:10346000223080B2ADF8080002200390FF208DF8D2
:1034700010008DF814008DF813008DF81200002054
:103480008DF811004FF4C0600690072007901B488C
:103490000890032000EB440080B2ADF826004FF600
:1034A000FF7000EA4400ADF82400A8B2ADF828008F
:1034B00001A91148803004F0F3FF0F48803004F078
:1034C00055FF0D48803005F04FF80948007A18B9CB
:1034D00007480461856106E00548007A012802D1A9
:1034E000034805618461012005F046F800BF3BE711
:1034F000D4000020000000D000680140C0BB0BD009
:1035000030B502461148057F0C3050F825400C3884
:10351000057F143050F82530A24201D2994201D3E0
:10352000002030BD0948007A30B90848006A04FB21
:10353000012530F81500F4E7581E401A03FB02007D
:10354000024D2D6A35F81000EBE70000D400002092
:103550002DE9FF4F84B082460C461546DDF84CB08D
:1035600025B1012D04D0022D06D103E00C2706E081
:10357000102704E0182702E008B0BDE8F08F00BF74
:1035800025B1012D05D0022D09D105E04FF00C0821
:1035900006E04FF0100803E04FF0240800E0EBE7EE
:1035A00000BF25B1012D0AD0022D16D10DE0ABF1DF
:1035B000200000EB40002C4901EB80090EE0ABF14C
:1035C00020002A4901EB001908E0ABF1200000EBD4
:1035D000C000274901EB800900E0CDE700BFCDF82E
:1035E0000090019400263BE00098805D039000204D
:1035F000029030E0039800F0800028B12146504648
:10360000119AFFF77BFD06E0079820B92146504646
:10361000129AFFF773FD03984006000E0390641C96
:103620001448017F143050F82100A04200D8A3E7CD
:103630000198201AB8420BD3019C0AF1010A0D48E7
:10364000017F0C3050F82100504500D894E705E088
:103650000298401C029002980828CBD300BF761C29
:103660004645C1D300BF87E7968800080A8D000849
:10367000FA920008D40000202DE9FF4F85B00646DD
:103680000F469946DDF85880B24607985044A0F19D
:10369000010B0BEB0900401E0490129820B1012889
:1036A00004D0022806D103E0062406E0082404E042
:1036B0000C2402E009B0BDE8F08F00BF00253DE01A
:1036C00018F80500802818DA18F80500DDE914124A
:1036D000CDE90012029039463046DDE91223FFF7AA
:1036E00037FF3019584505D956464F44049887424C
:1036F00001D9DFE726446D1C20E0681C18F80000A3
:1037000018F8051040EA01200390DDE9141203982F
:10371000CDE90012029039463046DDE91223FFF769
:1037200017FF06EB4400584505D956464F44049808
:10373000874202D9BEE706EB4406AD1C18F8050027
:103740000028BDD100BFB5E770B505460C4645B9A8
:103750000B48006820F0FF00094908600846046033
:1037600009E007488030006820F0FF0004498031FC
:10377000086008460460012004F0FEFE70BD0000F1
:103780009868014070B505460C4625B920210A48C5
:1037900002F01BF803E02021074802F018F82CB9CA
:1037A0004FF48071054802F010F804E04FF4807186
:1037B000024802F00CF870BD0004024000200240F4
:1037C00010B5044613480068401C124908600846BA
:1037D0000068A0421DD3002008600F48006860B94F
:1037E00001200D49086020210C4801F0F0FF4FF442
:1037F00080710B4801F0E9FF0BE0002006490860EA
:103800002021064801F0E1FF4FF48071044801F0E7
:10381000DEFF10BD0400002008000020000402406C
:103820000020024070B5054600240BE0074800EB7D
:103830008410A84204D0054901EB8410FCF784FFF2
:10384000601CC4B2042CF1DB70BD0000F416002033
:1038500000BFFEE77047704710B5044694F8380083
:10386000082825D2DFE800F004080C1014181C20EA
:1038700018A000F03DFF1CE024A000F039FF18E084
:1038800030A000F035FF14E038A000F031FF10E068
:1038900040A000F02DFF0CE04AA000F029FF08E056
:1038A00050A000F025FF04E05AA000F021FF00E046
:1038B00000BF00BFB4F8441061A000F019FFE06B36
:1038C000010D64A000F014FF69A0216C00F010FF4E
:1038D00010BD000053442043617264205479706528
:1038E0003A207374616E6461726420636170616315
:1038F0006974792053442063617264207665727321
:10390000696F6E20312E310D0A00000053442043B0
:1039100061726420547970653A207374616E6461D9
:103920007264206361706163697479205344206319
:103930006172642076657273696F6E20322E300D6D
:103940000A0000005344204361726420547970657A
:103950003A206869676820636170616369747920DF
:10396000534420636172640D0A00000053442043F5
:1039700061726420547970653A207365637572656D
:10398000206469676974616C20494F2063617264C7
:103990000D0A00005344204361726420547970651D
:1039A0003A20736563757265206469676974616C38
:1039B00020494F20636F6D626F20636172640D0A4E
:1039C0000000000053442043617264205479706504
:1039D0003A206D756C74696D65646961206361720C
:1039E000640D0A0053442043617264205479706569
:1039F0003A2068696768206361706163697479203F
:103A00006D756C74696D6564696120636172640DC4
:103A10000A000000534420436172642054797065A9
:103A20003A2068696768207370656564206D756CFD
:103A300074696D6564696120636172640D0A0000D8
:103A400053442043617264205243413A2025640D5F
:103A50000A00000053442043617264204361706196
:103A6000636974793A202564204D420D0A000000F4
:103A70005344204361726420426C6F636B53697AD4
:103A8000653A2025640D0A0010B5FDF7E7FE08B180
:103A9000FCF76AFE10BD000010B5FDF7E5FE78B139
:103AA00008480078401C0749087008460078142828
:103AB00004DB00F047FA002002490870FCF75AFEC8
:103AC00010BD00000000002010B5FDF7D3FE88B146
:103AD000FA20FFF775FE08480078401C0649087078
:103AE00008460078142803DB0020087000F0E6F890
:103AF000FCF746FE10BD0000010000200146C8880A
:103B000008B9012070470020FCE710B500F47844A4
:103B1000E40A0C7000F4FC646409147000F01F04E3
:103B20001C7010BD2DE9F04104460D46002601E051
:103B3000641E761C1448006CB4FBF0F100FB1140CD
:103B40000028F5D1114F354416E00F48006CA8420B
:103B500003D80D48006C2D1A00E000250A48B0F883
:103B6000400082B22146384603F0F6F80648006C61
:103B700004440548006C0744002DE6D1034800EBDF
:103B800006084046BDE8F081F4230020B41B002065
:103B90002DE9F04104460E46234800781D283AD10D
:103BA00022480068A0422ED8A019401E1F4949682B
:103BB000884228D8334622461DA1244800F0A8FD9B
:103BC0001A48416921488847204921A000F090FD0A
:103BD00031462046FFF7A6FF0746002510E017F8FC
:103BE0000580621943461BA1184800F091FD0F485B
:103BF000416916488847154915A000F079FD6D1CEC
:103C0000B542ECD30EE00948416917A0884716A0D9
:103C100000F06EFD06E00548416919A0884718A02C
:103C200000F066FDBDE8F081AC0000209C1B002088
:103C300052656164203A20307825303858202D2094
:103C40003078253032580D0A00000000B4230020DF
:103C5000257300003078253038583A2030782530E8
:103C600032580D0A00000000526561643A20496E26
:103C700076616C696420616464726573730D0A0017
:103C8000526561643A2053442063617264206E6F10
:103C90007420696E7365727465640D0A000000001B
:103CA00070B504460025012221460348FDF7BEFAFF
:103CB000C5B2284670BD00003C24002010B5134852
:103CC0000078401C1149087008460078192819DB53
:103CD0000020087003F032FE04460D4800781C28CE
:103CE0000ED11D2C0CD14FF47A70FDF7C9FA09A042
:103CF00000F0FEFC0E48416906A08847FEF726FF4B
:103D000003480470FDF750FD10BD0000AD00002019
:103D1000AC0000205265696E697469616C697A65EE
:103D20002074686520534420636172640D0A0000AA
:103D30009C1B002010B503F031FE10BD704770B51C
:103D4000044600252046FFF791F8012807D194F892
:103D5000240060B9012084F82400012507E094F8CC
:103D60002400012803D1002084F82400012594F8C0
:103D7000250028B9012D0AD12046FCF745FC06E0B4
:103D800094F82500012802D12046FCF73DFC012DC6
:103D900005D12046FDF720FB2046FDF7BBFB70BD9B
:103DA0002DE9FF4105460120034603AA48F24E11C2
:103DB00000903E48FDF7F5FE9DF80C0000F00F0066
:103DC00003909DF80C00287000200390012303AAA3
:103DD00048F24E113548FDF7F6FF002461E02978DE
:103DE000601C81424CDB01200090314830F81410F7
:103DF000062301AA2D48FDF7D4FE9DF804009DF886
:103E0000051040EA012104EB4402A81D20F812101D
:103E10009DF806009DF8071040EA012104EB4402DA
:103E2000A81D00EB420041809DF808009DF8091094
:103E300040EA012104EB4402A81D00EB420081800E
:103E40001C48007A012817D104EB4401A81D30F862
:103E5000116004EB440100EB4100478804EB44018E
:103E6000A81D20F81170C6F5487081B204EB440219
:103E7000A81D00EB420041800121681C01550EE0A5
:103E80000021681C01554FF6FF7104EB4402A81D88
:103E900020F8121004EB440200EB42004180601C49
:103EA000C4B2052C9BDBBDE8FF8100003C11002063
:103EB00010000020D400002010B5002412E01420CF
:103EC0000A49087004EBC401094A02EBC100FFF77C
:103ED00036FF06480078142802D00448007810BD48
:103EE000601CC4B2132CEADB1420F8E71C0000208D
:103EF0009C11002010B5002406E0054901EB841058
:103F000000F008F8601CC4B2042CF6DB10BD000001
:103F1000F416002010B504462046FEF7D3FF012812
:103F20000ED194F8240058B92046FCF782FB0120FA
:103F300084F824002046FDF7B3FA2046FDF707FB7E
:103F400010BD00002DE9FC47002404E000200DF81E
:103F50000400601CC4B2052CF8DB7F48FFF720FF8B
:103F60007D4800787D490870002470E07B48401C43
:103F7000005D012869D14FF0000A002558E076481D
:103F8000401C405D012851D104EB44017348801D61
:103F900030F8116004EB440100EB4100478805EB69
:103FA00045016D48801D30F8118005EB450100EB9F
:103FB0004100B0F8029041463046FCF776F94B28B4
:103FC00034DC49463846FCF770F94B282EDC4FF0BC
:103FD000010A05EB45016048801D30F8111004EB23
:103FE00044025E48801D20F8121005EB45015A4836
:103FF000801D00EB4100418804EB44025748801DBE
:1040000000EB4200418005EB45015348801D00EB69
:104010004100818804EB44025048801D00EB4200BF
:10402000818001214D48401C015503E0681CC5B248
:10403000052DA4DB00BFBAF1000F06D100214748CF
:10404000401C015501200DF80400601CC4B2052C71
:104050008CDB00247AE04048401C005D012873D1CD
:104060004FF0000A00252CE03C48401C405D012830
:1040700025D104EB44013848801D30F8116004EB71
:10408000440100EB4100478805EB45013348801DA2
:1040900030F8118005EB450100EB4100B0F80290CB
:1040A00041463046FCF701F94B2808DC49463846C2
:1040B000FCF7FBF84B2802DC4FF0010A03E0681C18
:1040C000C5B2052DD0DB00BFBAF1000F3CD10025F1
:1040D00037E02248401C405D78BB1DF8050060BBFE
:1040E00004EB44011C48801D30F8111005EB45021B
:1040F0001A48801D20F8121004EB44011648801D58
:1041000000EB4100418805EB45021448801D00EB9F
:104110004200418004EB44010F48801D00EB410048
:10412000818805EB45020D48801D00EB420081802F
:1041300001210A48401C415505E000E004E0681CEC
:10414000C5B2052DC5DB00BF601CC4B2052C82DBE7
:1041500002480078BDE8FC87781100205411002047
:1041600070B504460D4694F82400012806D1256256
:104170002046FDF795F92046FDF7E9F970BD0000EE
:1041800010B50446012C04D14021044801F01FFB66
:1041900003E04021014801F018FB10BD000402407B
:1041A00010B50446012C04D18021044801F00FFB16
:1041B00003E08021014801F008FB10BD000402402B
:1041C0002DE9FE4F04460F469046274800883844A4
:1041D00086B22548808840441FFA80FA2248008928
:1041E000C01E801B1FFA80F91F48008B1FFA80FB3E
:1041F0001D48C0695B464A46514600903046FEF76E
:10420000A3FF0CB9BDE8FE8F002524E0605D0D28FA
:1042100002D0605D0A2800D123E009EB06001249B4
:104220008969A0EB5100B04200D21AE0605D002223
:104230000D490969CDE9001202900B48027D012366
:1042400051463046FFF784F90748806906EB500075
:1042500086B2681C85B2605D7E2802DC605D202825
:10426000D4DA00BF00BFCDE79419002070B5054631
:1042700000240AE0285D1B49097801EB41011A4A34
:1042800002EB01110855601CC4B2285D7E2804DCD5
:10429000285D202801DB2F2CECDB00201149097858
:1042A00001EB4101104A02EB011108550D49097853
:1042B000481CC11700EB5171C910A0EBC101094A9C
:1042C00011700A480078082805DA08480078401C70
:1042D0000649087002E008200449087000F028F937
:1042E00070BD000084000020B4190020850000206B
:1042F00010B500F0B7F810BD08B52D48006840F4BF
:1043000070002B4908602B48006840F001002949E3
:10431000086028480830006840F0800025490831CE
:1043200008600020009002E00098401C00904CF2D1
:10433000503100988842F7D31E480830006840F09A
:1043400090001C49083108600020009002E00098AD
:10435000401C00904CF2503100988842F7D3154829
:104360000830006820F00300124908310860114845
:104370000068114908400F4908600846006820F4A9
:104380008020086000200B490831086000BF094800
:104390000830006800200028F9D108480549091DA7
:1043A0000860002003490C31086003F0A9FE08BD35
:1043B00088ED00E000380240FFFFF6FE10300024D8
:1043C00010B50121880703F0BAFF012803D10121AC
:1043D000800703F0B1FF01200C4908700C480088E9
:1043E000401C0B49088008460088022804DB002096
:1043F00008800120074908700748D0E900305A1C9E
:1044000040F100000449C1E9002010BDB0000020C7
:10441000C0000020B1000020B800002010B501212C
:104420000D4803F08CFF012803D101210A4803F055
:1044300083FF0A480088401C00B2084908800846EB
:10444000B0F90000B0F57A7F04DB0020088001207D
:104450000349087010BD0000000C0040C20000209D
:10446000B20000200448006820B103480068401EE4
:104470000149086070470000C800002008B500200E
:1044800000902449244804F0C2F960B1214922482F
:1044900004F0B0F9204804F007F9C0B200909DF88C
:1044A000000000F0B3F81D491B4804F0B0F90128E2
:1044B00006D11A49184804F09DF9174804F0F4F899
:1044C0001749154804F0A3F918B31549124804F028
:1044D00091F92520002807DB00F01F0201219140FF
:1044E000104A430942F8231000BF6846FFF7D8FB83
:1044F0009DF80010084804F0DCF80B48FFF7FEFABE
:1045000038B100200949087040F20731024804F030
:1045100057F908BD05030500001001400005030020
:104520000703070080E200E03C240020C4000020D4
:104530002DE9F0411D4806781D4805781D48008B7F
:1045400087B20DB9BDE8F081082D12DA00240DE024
:10455000611C7943C91C8AB204EB4401164B03EB7E
:1045600001100321FFF72CFE601CC4B2AC42EFDD4A
:1045700019E0002415E0611C7943C91C8AB206EBDE
:1045800046010D4B03EB01100321FFF719FE701CD0
:10459000C11700EB5171C910A0EBC101CEB2601C74
:1045A000C4B2082CE7DB00BFCCE700008400002089
:1045B0008500002094190020B419002000BFFEE7F8
:1045C00070B504460D46002601E0641E761C0D48B9
:1045D000006CB4FBF0F100FB11400028F5D1094854
:1045E000B0F8400082B22146074802F0B5FB064809
:1045F00085550448B0F8400082B22146024802F0D6
:10460000B7FC70BDF4230020B41B002031B500249A
:10461000012269460248FCF7B7FFC4B2204638BD04
:104620004824002070B504460D46174800781D2820
:1046300022D116480068A04216D814484068A0420B
:1046400012D32B46224612A1184800F061F80F48F9
:10465000416916488847154915A000F049F82946D0
:104660002046FFF7ADFF0EE00848416911A08847DA
:1046700010A000F03DF806E00448416914A0884706
:1046800013A000F035F870BDAC0000209C1B00208A
:1046900057726974653A20307825303858202D20BB
:1046A0003078253032580D0A00000000B423002075
:1046B0002573000057726974653A20496E76616C03
:1046C000696420616464726573730D0A0000000000
:1046D00057726974653A2053442063617264206E96
:1046E0006F7420696E7365727465640D0A00000052
:1046F0000FB4054B10B503A9044A029800F040F826
:1047000010BC5DF814FB000049570008D0000020E1
:104710000FB4084B10B504A902AA039800F030F8B2
:10472000044602A9002000F05CFA204610BC5DF8A7
:1047300014FB0000E34B000810B5002804DB0A0757
:10474000130E054A135406E00A07140E034A00F03C
:104750000F031B1FD45410BD00E400E018ED00E06F
:1047600002E008C8121F08C1002AFAD1704770473A
:10477000002001E001C1121F002AFBD17047000098
:104780002DE9FF4F8DB00F460546002606E025288F
:104790000BD0DDE90F1290476D1C761C287800289D
:1047A000F5D111B03046BDE8F08F0024A246A146F5
:1047B0000122EC4900E0044315F8013F203B02FAD6
:1047C00003F00842F7D128782A2810D06FF02F0282
:1047D0002878A0F13001092914D80AEB8A0102EBEC
:1047E000410144F0020400EB010A6D1CF0E701CF27
:1047F0005FEA000A03D544F40054CAF1000A44F009
:1048000002046D1C28782E2817D115F8010F44F0EA
:1048100004042A280ED06FF02F022878A0F130016E
:1048200009290AD809EB890102EB410100EB0109D2
:104830006D1CF2E757F8049B6D1C28786C280FD08C
:1048400006DC4C2817D068280DD06A2814D104E063
:10485000742810D07A280FD10DE044F400140AE037
:1048600044F4801401E044F440146978814202D198
:1048700004F580146D1C6D1C2A786E2A1FD00CDC88
:10488000632A31D004DC002A8BD0582A11D1A3E04E
:10489000642A68D0692A0CD165E0732A2ED004DC22
:1048A0006F2A73D0702A04D19BE0752A6FD0782AC2
:1048B0006ED01046DDE90F129047761C50E1C4F32C
:1048C0000250022806D0032809D0042801CF09D0BD
:1048D000066045E101CFF117C0E9006140E101CF79
:1048E00006803DE106703BE117F8040B8DF80000EF
:1048F00000208DF80100EB46012003E057F804BBCF
:104900004FF0FF3061074FF0000102D40DE008F1D5
:104910000101884649450FDA8045F8DB1BF808108D
:104920000029F4D108E008F1010188468142FADB50
:104930001BF808100029F6D1DDE90F23AAEB0800C7
:104940008146214600F036F9304400EB080604E0C9
:10495000DDE90F121BF8010B9047B8F10108F7D2FF
:1049600021464846F7E00A21C4F302534FF0000BFA
:104970000891022B04D001CFC117032B09D00AE004
:10498000FF1D27F00707F7E8020108E032E01FE00B
:1049900020E000B2C117042B01D140B2C117031EA1
:1049A00071F1000307DA4FF0000CD0EB0C006CEB58
:1049B00001012D2302E0230504D52B238DF824309B
:1049C000012303E0E30701D02023F7E7984658E0EE
:1049D0000A2110E010210EE010204FF0000B08908B
:1049E0000CE010214FF0000B44F004044FF00809D4
:1049F000089103E008214FF0000B0891C4F3025323
:104A0000022B04D001CF0021032B06D006E0FF1DAE
:104A100027F00707F7E8020103E080B2042B00D17A
:104A2000C0B24FF0000823072BD5702A07D0DDF85D
:104A300020C08CF0100C5CEA0B0C05D00EE040237B
:104A40008DF82430012308E050EA010306D030231A
:104A50008DF824308DF8252002239846DDF820C0FB
:104A60008CF0080C5CEA0B0C0BD150EA010301D16D
:104A7000630706D530238DF824304FF00108A9F1E3
:104A80000109582A04D038A20B9208AA0A920BE016
:104A90003AA2F9E75B46089AFBF7A4FB0B9B9B5CE9
:104AA0000A9A521E0A92137050EA0102F2D10A9831
:104AB000ADEB000000F1200B600702D524F4803438
:104AC00001E04FF00109D94502DDA9EB0B0000E040
:104AD000002000EB0B0141440890AAEB010AE0031F
:104AE00006D4DDE90F232146504600F063F8064462
:104AF0004FF0000908E009A911F80900DDE90F12DB
:104B0000904709F10109761CC145F4DBE0030CD59F
:104B1000DDE90F232146504600F04CF8064404E03E
:104B2000DDE90F1230209047761C0899481E089046
:104B30000029F5DC08E00A980A990078491C0A91D6
:104B4000DDE90F129047761CBBF10001ABF1010BC0
:104B5000F1DC21465046DDE90F2300F019F8064448
:104B60006D1C1BE6092801003031323334353637ED
:104B700038396162636465660000000030313233A9
:104B80003435363738394142434445460000000049
:104B90002DE9F041044600251E461746880404D43A
:104BA00005E039462020B0476D1C641EF9D5284623
:104BB000BDE8F0812DE9F041044600251E469046EF
:104BC000C80301D5302700E02027880404D505E07C
:104BD00041463846B0476D1C641EF9D52846BDE8ED
:104BE000F0810A68531C0B60107070470246002069
:104BF000CB1C23F00301136F8B4205D3136F5B1A99
:104C00001367D06E4318D36670472DE9F05F0446F2
:104C10008846267B2768656895F800A000208346B3
:104C2000814600BF36BB67B9A5684FF4806229464C
:104C30002046636F9847074627B96FF00100BDE82B
:104C4000F09F6D1C7F1EBBF1000F0AD04FF0000BD0
:104C5000287810B16FF00500F1E7FF208246287038
:104C600007E095F800A0BAF1FF0F02D14FF0010B59
:104C70000BE080264FEA49090AEA060008B109F16B
:104C800001097610A8F1010800BFB8F1000FC9D1E1
:104C90002673276065604846D1E700002DE9F04F94
:104CA00087B00C464FF4B55BCDF818B041F2511BFC
:104CB000CDF814B042F6CF1BCDF810B041F6905BA2
:104CC000CDF80CB04FF0000BCDF800B080E0D0F87C
:104CD00000C0D0F84080D0F88090D0F8C0100CEB25
:104CE000090AACEB090BCDF808B0A8EB010B4FF4A7
:104CF000B55E0BFB0EFB4FEA2B3741447F1A0AEBE4
:104D0000010CAAEB0101DDF808B007EB0B08DDF898
:104D100008B0ABEB0709D0F8E050036AD0F8A06008
:104D2000026EA3EB050A5F19A6EB020BCDF808B0E3
:104D30003244A7EB020B0BFB0EFB4FEA2B333A443A
:104D4000DDF808B0D34441F6905E0BFB0EFB4FEA52
:104D50002B3BCDF804B041F2511B0AFB0BFEDDF8F2
:104D600004B0ABEB2E3542F6CF1EDDF808B00BFBDE
:104D70000EFEDDF804B0ABEB2E3BABEB02069B1B4B
:104D8000ED1A0CEB020BC0F800B0ACEB020BC0F854
:104D9000E0B008EB060BC0F820B0A8EB060BC0F89B
:104DA000C0B009EB030BC0F840B0A9EB030BC0F88F
:104DB000A0B001EB050BC0F860B0A1EB050BC0F88B
:104DC00080B0001DDDF800B00BF1010BCDF800B094
:104DD000DDF800B0BBF1080FFFF479AF20384FF0D9
:104DE000000BCDF800B0A2E0D0F800B00BF5004CFD
:104DF000D0F80880D0F8109081690CEB090AACEB70
:104E0000090BCDF808B0A8EB010B4FF4B55E0BFB16
:104E10000EFB4FEA2B3741447F1A0AEB010CAAEB39
:104E20000101DDF808B007EB0B08DDF808B0ABEBCB
:104E30000709C56943684669C268A3EB050A5F199B
:104E4000A6EB020BCDF808B03244A7EB020B0BFB2C
:104E50000EFB4FEA2B333A44DDF808B0D34441F659
:104E6000905E0BFB0EFB4FEA2B3BCDF804B041F2FA
:104E7000511B0AFB0BFEDDF804B0ABEB2E3542F6FE
:104E8000CF1EDDF808B00BFB0EFEDDF804B0ABEB77
:104E90002E3BABEB02069B1BED1A0CEB020BCBF38C
:104EA000092BDFF89CE01EF80BB084F800B0ACEBE7
:104EB000020BCBF3092B1EF80BB084F807B008EBFC
:104EC000060BCBF3092B1EF80BB084F801B0A8EB4E
:104ED000060BCBF3092B1EF80BB084F806B009EBD8
:104EE000030BCBF3092B1EF80BB084F802B0A9EB2F
:104EF000030BCBF3092B1EF80BB084F805B001EBC4
:104F0000050BCBF3092B1EF80BB084F803B0A1EB13
:104F1000050BCBF3092B1EF80BB084F804B0083452
:104F20002030DDF800B00BF1010BCDF800B0DDF85A
:104F300000B0BBF1080FFFF457AF07B0BDE8F08F2A
:104F4000600E030870B51D25084C00E0641E80202B
:104F500002F0ECFF08B9002CF8D114B9132528464B
:104F600070BD034802F0DCFF2846F9E7A086010087
:104F7000FF07C0002DE9F74F86B00D4616468EE0BC
:104F8000112E03D2062009B0BDE8F08F113E15F8AE
:104F900001AB4FEA2A190AF00F0003900AF0EE0065
:104FA00008B10620EFE710210698FFF71FFE8046A4
:104FB000B8F1000F01D10320E5E7069824300399EA
:104FC00000EBC10040F8298000200446074607E0B6
:104FD00015F8010B049008F8040004980744641CB9
:104FE000102CF5D379000698FFF700FE8346BBF13D
:104FF000000F01D10320C6E706983430039900EB77
:10500000C10040F829B0002001900446059019E045
:1050100018F80400049009E00598421C01990592D3
:105020002BF810100198401C80B201900498411E8A
:1050300004910028F0D14FF6FF71019801EA400079
:105040000190641C102CE3D3BE4201D206209AE7E3
:10505000F61B39460698FFF7C9FD0290029808B979
:10506000032090E706984430DDE9021200EBC2000D
:1050700040F82910002410E015F801ABB9F1000F39
:1050800004D1BAF10B0F01DD06207CE7029880F80D
:1050900000A00298401C0290641CBC42ECD3002E7D
:1050A0007FF46EAF00206EE72DE9F04782460C4694
:1050B00016462BE0412E02D20620BDE8F087413E85
:1050C00014F8018B08F0F00008B10620F5E708F0AD
:1050D00003074FF480715046FFF788FD05460DB970
:1050E0000320EAE70AF1540040F8275000270BE0BC
:1050F000084810F8079014F8010B074931F8191007
:10510000484345F829007F1C402FF1D3002ED1D110
:105110000020D2E7A00D0308E00D030810B501EB55
:105120004102D30000F11002D25822F0010301EB3A
:105130004102D40000F11002135110BD10B501EB73
:105140004102D30000F11002D25842F0010301EBFA
:105150004102D40000F11002135110BD30B51346C6
:1051600001EB4104E50000F11004625922F0606295
:1051700042EA436201EB4104E50000F11004625190
:1051800030BD10B501EB4102D30000F11002D2583E
:1051900022F0010301EB4102D40000F1100213518F
:1051A000002301EB4102D40000F11002135101EB86
:1051B0004102D40000F11402135101EB4102D4006A
:1051C00000F11802135101EB4102D40000F11C025E
:1051D000135101EB4102D40000F12002135101EB05
:1051E0004102D40000F12402135104290CDA01EB2E
:1051F00041025300C1F3400203EB82033D229A4077
:1052000083681A4382600DE00A1FD1B201EB4102AC
:105210005300C1F3400203EB82033D229A40C3686E
:105220001A43C26010BD10B504290CDA01EB41032A
:105230005C00C1F3400304EB830302FA03F38468C8
:10524000234383600DE00B1FD9B201EB41035C00E7
:10525000C1F3400304EB830302FA03F3C46823435E
:10526000C36010BD10B5034604290FDA01EB4100FD
:105270004400C1F3400004EB800402FA04F01C680F
:10528000204008B1012010BD0020FCE7081FC1B27A
:1052900001EB41004400C1F3400004EB800402FA3A
:1052A00004F05C68204008B10120ECE70020EAE748
:1052B00030B572B901EB4103DC0000F110031B595A
:1052C00023F0200401EB4103DD0000F110035C51E9
:1052D0000DE001EB4103DC0000F110031B5943F02A
:1052E000200401EB4103DD0000F110035C5130BDEF
:1052F00070B501EB4104E50000F124046459156A1E
:1053000045F004052C4301EB4105EE0000F12405B6
:10531000AC5101EB4104E60000F118041568A551F9
:1053200001EB4104E60000F11C04D568A55101EB36
:105330004104E60000F11404D56AA55101EB4104D3
:10534000E50000F110046359414C2340156954688D
:105350002C43156B2C43956A2C4395692C43D569D6
:105360002C43234301EB4104E50000F11004635199
:10537000946874B901EB4104E50000F1100464592C
:1053800044F4007501EB4104E60000F11004A5515E
:105390001FE09468012C0ED101EB4104E50000F1FF
:1053A0001004645924F4007501EB4104E60000F197
:1053B0001004A5510DE001EB4104E50000F11004DB
:1053C000645944F4004501EB4104E60000F1100487
:1053D000A551546974B901EB4104E50000F11004D2
:1053E000645944F4806501EB4104E60000F11004C7
:1053F000A5510DE001EB4104E50000F110046459F2
:1054000024F4806501EB4104E60000F11004A5518D
:10541000546A74B901EB4104E50000F110046459C9
:1054200044F4807501EB4104E60000F11004A5513D
:105430000DE001EB4104E50000F11004645924F48F
:10544000807501EB4104E60000F11004A55170BD28
:105450003F871CFE30B58DB004460D460122032166
:105460002748FFF7E0FE042203212548FFF7DBFE73
:10547000082203212248FFF7D6FE102203212048EC
:10548000FFF7D1FE202203211D48FFF7CCFE0321A8
:105490001B48FFF743FE03211948FFF772FE194826
:1054A0000090039400200A900B90012002900020AD
:1054B00005904FF480500190800004904FF44030EC
:1054C0000C904FF400100790800006900320089085
:1054D000012009906A4603210948FFF709FF0122CC
:1054E00003210748FFF7E4FE042203210448FFF7E5
:1054F00035FE03210248FFF721FE0DB030BD00004C
:1055000000640240802C014030B58DB004460D4649
:10551000012203212748FFF786FE042203212548A4
:10552000FFF781FE082203212248FFF77CFE1022AC
:1055300003212048FFF777FE202203211D48FFF7B3
:1055400072FE03211B48FFF7E9FD03211948FFF70D
:1055500018FE19480090039440200A9000200B90F8
:1055600001200290002005904FF4805001908000AF
:1055700004904FF440300C904FF4001007908000DE
:10558000069001200990032008906A4603210948EB
:10559000FFF7AEFE012203210648FFF789FE042231
:1055A00003210448FFF7DAFD03210248FFF7C6FD97
:1055B0000DB030BD00640240802C01400246002343
:1055C000012A03D0022A01D0032A04D15001A0F1FC
:1055D000C040436C01E00548036803EA01008842CB
:1055E00001D0002070470120FCE70000580100A016
:1055F000D0E90221114342681143026841EA422185
:10560000014A116070470000500100A070B50568A4
:10561000042D3AD1D0E908653543C669354386691A
:10562000354346693543066945EA4625C66835432C
:10563000866845EA063546683543384E3560856AE2
:10564000AD696D1E866A7669761E45EA0616856A1C
:105650002D696D1E46EA0526856AED686D1E46EACF
:105660000536856A2D896D1E46EA0546856AAD8830
:105670006D1E46EA0556856A2D786D1E46EA05655B
:105680004FF02046C6F8485147E0244D2D6825F4D8
:10569000F841D0E902653543466835432943D0E9EE
:1056A00008653543C66935438669354346693543E0
:1056B000066945EA06044FF02045C5F84011C5F8D3
:1056C0004441D5F84851164E05EA0602856AED6850
:1056D0006D1E2E03856AAD886D1E46EA0556856AE5
:1056E0002D896D1E46EA05452A43856AAD696D1E02
:1056F000866A7669761E45EA0616856A2D696D1EEC
:1057000046EA0526856A2D786D1E46EA05634FF048
:105710002045C5F84821C5F84C3170BD400100A0B6
:10572000FF0F00FF074A126843F6FE7322EA0301E7
:105730001A4602EA40020A434FF02043C3F85421BC
:1057400070470000540100A070B504460D4600BF2C
:105750000721054803F025F80028F9D0E1B20248F6
:1057600002F0A7FF204670BD00100140F0B50346CF
:105770001C6A5D6A00200DE00126864016403EB19D
:1057800087000F26BE40B443860001FA06F6344374
:10579000461CB0B20828EFD3082011E0012686404D
:1057A00016405EB1A0F10806B7000F26BE40B54313
:1057B000A0F10806B60001FA06F63543461CB0B261
:1057C0001028EBD31C625D62F0BD8162704781617D
:1057D0007047000010B510220C212448FFF7C6FFC7
:1057E0004FF4F0520C212248FFF7C0FF04220C2195
:1057F0002048FFF7BBFF1023012202211B4800F0C5
:1058000045F8102303220021184800F066F84FF4F1
:10581000606301220221164800F038F84FF46063FB
:1058200003220021124800F058F84FF48053002260
:1058300002210F4800F02AF84FF480530322002180
:105840000B4800F04AF8042301220221094800F025
:105850001DF8042303220021064800F03EF804232B
:1058600001220021044800F011F810BD000402409C
:1058700000080240000C024000100240024610697D
:10588000084008B1012070470020FCE7F0B504464D
:105890000D4616462168E268002019E0012787407E
:1058A0001F409FB14FEA400C032707FA0CF7B9439A
:1058B000470005FA07F739434FEA400C032707FA78
:1058C0000CF7BA43470006FA07F73A43471CB8B249
:1058D0001028E3D32160E260F0BDF0B50C46154618
:1058E000012C03D146681E43466002E046689E4391
:1058F0004660826800210DE001268E401E403EB1C8
:105900004F000326BE40B2434E0005FA06F632436E
:105910004E1CB1B21029EFD38260F0BD2DE9FF5FBC
:105920000446884691469A46267B2768656828780B
:1059300003900020834602901020019000BF36BBE8
:105940006FB9A5684FF4806229462046636F984777
:1059500007462FB96FF0010004B0BDE8F09F6D1C41
:105960007F1E029850B100200290287810B16FF08D
:105970000500F1E7FF200390287007E028780390E6
:105980000398FF2802D10120029022E080264FEAEE
:105990004B0B0398304008B10BF1010B761018F84F
:1059A000010B00900EE039F8021B594505D1267312
:1059B000276065609AF80000CEE70AF1010A0098B6
:1059C000401E009000980028EDD10198401E0190E3
:1059D00000BF01980028B2D1801FBDE710B540F28A
:1059E000174001F02DF940F2174001F017F910BDF2
:1059F00010B500224C4B1B6803F0010333B10122A8
:105A0000494B1B6823F00103474C2360464B5B6BFB
:105A100023F00703444C6363C3686363C1680529CB
:105A20005CD2DFE801F00315253548003E4B9B6B47
:105A300000233D4CA363D0E9054343EA0423048AD1
:105A400043EA0443047A43EA0463374CA36346E021
:105A5000354B9B6B03F07F43334CA363D0E9054385
:105A600043EA0423048A43EA04432F4CA36336E049
:105A70002D4B9B6B6FF30F032B4CA363D0E90543B6
:105A800043EA4413046943EAC423274CA36326E092
:105A9000254B9B6B6FF30F03234CA363D0E90543A6
:105AA00043EA4413046943EA8423846843EAC43321
:105AB0001D4CA36313E01C4B9B6B6FF30F031A4C3D
:105AC000A363D0E9054343EA0413046943EA0423CA
:105AD000846843EA0433144CA36300E000BF00BFB2
