:020000040800F2
:1000000080170020C1010008E1110008B1100008AC
:10001000DD1100089D100008D9170008000000003D
:100020000000000000000000000000005116000861
:10003000A110000800000000E3150008B116000838
:10004000DB010008DB010008DB010008DB01000820
:10005000DB010008DB010008DB010008DB01000810
:10006000DB010008DB010008DB010008DB01000800
:10007000DB010008DB010008DB010008DB010008F0
:10008000DB010008DB010008DB010008DB010008E0
:10009000DB010008DB010008DB010008DB010008D0
:1000A000DB010008DB010008DB010008DB010008C0
:1000B000DB010008DB010008DB010008DB010008B0
:1000C000DB010008DB010008DB010008DB010008A0
:1000D000DB010008A5170008DB010008DB010008B0
:1000E000DB010008DB010008DB010008DB01000880
:1000F000DB010008DB010008DB010008DB01000870
:10010000DB01000849160008DB010008DB010008DC
:10011000DB010008DB010008DB010008DB0100084F
:10012000DB010008DB010008DB010008DB0100083F
:10013000DB010008DB010008DB010008DB0100082F
:10014000DB010008DB010008DB010008DB0100081F
:10015000DB010008DB010008DB010008DB0100080F
:10016000DB010008DB010008DB010008DB010008FF
:10017000DB010008DB010008DB01000800000000D3
:10018000DB010008DB010008DB010008DB010008DF
:10019000DB010008DB010008DB01000800000000B3
:1001A000DB010008DB010008DB010008DFF80CD0F0
:1001B00000F0A0FC004800477D4C0008801700209C
:1001C0000648804706480047FEE7FEE7FEE7FEE7F1
:1001D000FEE7FEE7FEE7FEE7FEE7FEE7D1160008D2
:1001E000AD0100080048704770B6000810B504461D
:1001F000FFF7F8FF0068005D00F0010010BDA0F1FE
:100200006101192900D820387047000038B5D0E9BD
:100210000221491E01EB410102EBC1014268C1EB21
:10022000011102EB81010268C1EB011102EB8102B5
:10023000D0E9043101EB410103EB81013023A1F549
:10024000527191FBF3F4174D6C4302EBC41291FB16
:10025000F3F403FB141100921A2902DB124B1A4427
:1002600000920C2291FBF2F3104C6343009C04EBD0
:10027000C313009391FBF2F302FB13110C4A08E045
:10028000491E40F2A324535C6343009C04EBC31358
:1002900000930029F4DC0146684600F0EBF9009871
:1002A00038BD00003F0C0F008051010067C2030001
:1002B00074B6000830B505462A460B4612F8010B05
:1002C00013F8014B08B1A042F8D01CB1002802D0AD
:1002D0006D1CF1E7284630BDCAB2401E10F8011F60
:1002E0008A4202D00029F9D100207047421C10F840
:1002F000011B0029FBD1801A704710B5002200E0D5
:10030000521C835C8C5CA34201D1002BF8D1D8B283
:10031000E1B2401A10BD034611F8012B00F8012B81
:10032000002AF9D11846704770B5064601F07AFAEE
:10033000046805460A220021304600F04FFA2C607E
:1003400070BD2DE9FE4F81EA030404F0004421F062
:10035000004100944FF0000B23F0004350EA0104E9
:100360005ED052EA03045BD0C3F30A54C1F30A55CA
:100370002C44A4F2F3340194A0FB0254C1F3130102
:1003800041F48011C3F3130343F4801301FB0244CF
:1003900000FB034E840A970A44EA815447EA8357D4
:1003A000A4FB076802958D0A05FB07854FEA932C8D
:1003B00004FB0C542705029D4FEA065847EA1637FE
:1003C000B5EB08056EEB070C870E920E47EA811716
:1003D00042EA8312A7FB0201B6EB0B0164EB0004B7
:1003E0002B0D43EA0C335E1844EB1C50DA465146A1
:1003F000E7FB0201C5F313044FEA0B3343EA14533E
:100400004FEA0432019C43EA0603A4F10C0402946F
:10041000009CCDE900B400F05FFA03B0BDE8F08FB6
:1004200000200146F9E72DE9F04D81EA030404F0CC
:10043000004B21F0004514464FF0000A23F0004124
:1004400050EA050220D054EA01021DD0C5F30A5734
:100450000246C5F31303C1F31300C1F30A5640F477
:10046000801543F48013A7EB0608101BD64608F24C
:10047000FD3873EB050002D308F1010801E0921882
:100480005B41B8F1000F03DA00200146BDE8F08DB2
:1004900000204FF48011064684460EE0171B73EBD4
:1004A000050705D3121B63EB050306434CEA010C59
:1004B00049084FEA300092185B4150EA0107EDD13C
:1004C00052EA030012D082EA040083EA05010843DD
:1004D00005D0101BAB4106D20122002306E000220A
:1004E0004FF0004302E06FF0010253101AEB0600D8
:1004F0004CEB085110EB0A0041EB0B01BDE8F04D4D
:1005000000F0DBB90EB5C10F80EAE0700844CA07FD
:10051000002140F233438DE80E000A460B4600F0FE
:10052000DBF903B000BD00F0004230F000400AD01B
:10053000C10D01F56071C0F3160042EA0151C20815
:1005400040071143704700200146704730B5041E34
:1005500071F1000404DB4FF00044404264EB010100
:10056000141E73F1000405DB1C464FF00043524299
:1005700063EB04038B4208BF824230BD30B5041EDA
:1005800071F1000404DB4FF00044404264EB0101D0
:10059000141E73F1000405DB1C464FF00043524269
:1005A00063EB0403994208BF904230BD01F0004361
:1005B00030B421F0004150EA010206D00A0DA2F544
:1005C0006072C1F31301002A02DC30BC00207047C6
:1005D000440F44EAC104C100E01830BC00EBC25033
:1005E00000F034B930B50B4601460020202201242A
:1005F00009E021FA02F59D4205D303FA02F5491BF1
:1006000004FA02F52844151EA2F10102F1DC30BD06
:100610002DE9F05F0546002092469B468846064637
:10062000814640241BE0284641464746224600F0CA
:1006300082FA53465A46C01A914110D311461846C1
:10064000224600F069FA2D1A67EB01084F46224650
:100650000120002100F060FA17EB00094E41201E36
:10066000A4F10104DFDC484631462A464346BDE892
:10067000F09F000010B500683C22B0FBF2F302FBD3
:100680001303B0FBF2F00B60B0FBF2F302FB1303B9
:10069000B0FBF2F018224B60B0FBF2F302FB130345
:1006A000B0FBF2F0021D8B600723B2FBF3F403FBF7
:1006B0001422800040F2B55300F66C308A61B0FB22
:1006C000F3F2B0FBF3F403FB1400443280084A61F8
:1006D000C8613B2802D3920700D0401C0022074C7F
:1006E00013460A61E25C824203D8801A5B1C0B61EC
:1006F000F8E7401CC860084610BD000080B600083E
:10070000426842B1016811F8013B23B1521EC0E9B1
:100710000012184670470121C160881E7047426868
:100720005AB1C368016843B983688B4205D0491E3A
:10073000521CC0E90012002070474FF0FF30704794
:100740000FB4002300B589B00CA900910B996FF08C
:100750000042CB601E4B06931E4B07930423CDE94A
:1007600001321D4A089202466B46002000F09AFAB8
:1007700009B05DF814FB70B586B006464FF0FF3047
:100780000091CDE90101002015460C460490324647
:10079000694604A8FFF7D4FF02460498211825B142
:1007A00008B1084600E020462860049800280DD0D3
:1007B000002A02DD0098884208D0081B0094CDE989
:1007C00001043246694604A8FFF7BAFF06B070BDBF
:1007D000010700081F070008ED0100082DE9F04798
:1007E00091460F4680460446002614F8015B2DB161
:1007F000FFF7F8FC0068405DC007F6D12B2D02D052
:100800002D2D18D0641E4A463946204600F066FB5E
:1008100027B13968A14201D1C7F8008071054FF0B6
:1008200002040BD54042002803DD00F0FBFF04600A
:10083000A007BDE8F08746F48066E4E70028F8DA10
:1008400000F0F0FF04606FF00040F2E70029A8BF5D
:100850007047401C490008BF20F00100704710B4E9
:10086000B0FA80FC00FA0CF050EA010404BF10BC9E
:10087000704749B1CCF1200421FA04F411FA0CF1CB
:1008800018BF012121430843A3EB0C01CB1D4FEA04
:1008900000614FEA102042BF002010BC704700EBFF
:1008A000C35010440029A4BF10BC7047401C49002D
:1008B00008BF20F0010010BC704710B5141E73F182
:1008C000000408DA401C41F1000192185B411A4310
:1008D00001D120F0010010BD2DE9F04D92469B465C
:1008E00011B1B1FA81F202E0B0FA80F22032904602
:1008F00000F012F904460F4640EA0A0041EA0B01F3
:1009000053465A46084313D0114653EA010019D002
:10091000C8F14002504600F00EF905460E4650461A
:100920005946424600F0F8F8084305D0012004E09B
:1009300020463946BDE8F08D0020054346EAE076C2
:100940002C4337430A986305E40AA0EB0800002211
:10095000FD0A44EA47540A3002D500200146E9E77F
:10096000010510196941DDE9084500196941BDE833
:10097000F04DA2E72DE9FE4F804681EA0300C00F4B
:100980000C46009021F0004123F00045B8EB020036
:10099000A94105D24046214690461C460B460246D8
:1009A00023F00040104347D0270DC7F30A00C3F3DC
:1009B0000A510290401A019040286BDAC3F31300E9
:1009C00040F4801B0098924620B10023D2EB030A2A
:1009D00063EB0B0B01985946C0F14002504600F002
:1009E0009BF806460D4650465946019A00F0B3F86A
:1009F00010EB08006141002487EA115284EAE77392
:100A00001A4340D0009A62B3019A012A4FEA075272
:100A100015DC001B61EB02014FF0004202EA0752B5
:100A2000CDE90042001C41F5801132462B46FFF70C
:100A300053FF03B0BDE8F08F40462146F9E7001BA5
:100A400061EB0201001C41F5801300185B41201886
:100A5000A2F5001747EB030140EAD570B6196D41C6
:100A600011E06D084FEA360645EAC0754FEA0752B5
:100A7000001B61EB0201001C41F5801149084FEA9F
:100A800030000019514132462B4603B0BDE8F04F0B
:100A9000FFF713BF0098012240000023D0EB0202B1
:100AA00063EBE073009821464FEAE074B8EB000076
:100AB00061EB0401E9E783F000435BE781F000416B
:100AC00058E7C1F30A52C1F3130140F2FF3341F476
:100AD00080119A4202DA00200146704740F2334307
:100AE0009A42A2F2334202DC524200F024B800F0F3
:100AF00013B80000064C074D06E0E06840F0010323
:100B000094E8070098471034AC42F6D3FFF752FB45
:100B1000D4B60008F4B60008202A04DB203A00FA14
:100B200002F1002070479140C2F1200320FA03F344
:100B3000194390407047202A04DB203A21FA02F042
:100B40000021704721FA02F3D040C2F12002914007
:100B5000084319467047202A06DBCB17203A41FA92
:100B600002F043EAE07306E041FA02F3D040C2F13A
:100B70002002914008431946704700002DE9FF4FBD
:100B8000087883B09946FF2805D0491C2D2804D049
:100B90000024002008E000200BE00124F9E700EB2E
:100BA000800003EB4000491C0B78FF2BF7D104B108
:100BB000404200230293147819461D462D2C01D083
:100BC0002B2C04D1521C2D2C13D000240294AA46A5
:100BD0001478FF2C0FD00A25A3FB057801FB0581B3
:100BE0004FF0000C03FB0C11521CE3194AEB0101FE
:100BF000EEE70124EAE7814453EA010002D019F547
:100C0000C87F06DA03980021C0E9001107B0BDE8EB
:100C1000F08F0025AE4E2F46DFF8B882184600F060
:100C2000BAF9CDE90001B9F1000002DAC9F1000416
:100C300000E004460023A74A1AEB030B42EB045AD8
:100C400012E0E00707D02A46334638464146FFF710
:100C500078FB074688462A46334610461946FFF772
:100C600070FB05460E466410002CEAD1DDE9000158
:100C7000B9F1000F5A46534606DAFFF7D4FB3A465D
:100C80004346FFF7D0FB05E0FFF75BFB3A464346E0
:100C9000FFF757FB029A0AB181F00041039AC2E9BB
:100CA0000001B3E72DE9FF4F1F468DB0D7E901469C
:100CB0004FF0FF382E2045464FF000090B90B969E0
:100CC0006D1C0E988847396A824688470028F6D1FD
:100CD000BAF1FF3F0AD024F4D064002E11DDBAF13E
:100CE0002B0F08D0BAF12D0F0BD102E0404611B006
:100CF0008DE744F48064B9696D1C0E98884782467C
:100D0000761E6946600501D52D2000E02B208DF868
:100D1000000001F1010B0DF1200809E0B9696D1C1B
:100D20000E98884782460F9844F40074761E05603A
:100D3000002E02DDBAF1300FF0D00B998A453ED17A
:100D400044F0800406E00F99681CA9F1010944F4FD
:100D500000740860B9696D1C761E0E98884782463B
:100D60003028F0D02BE00B998A4505D1200603D41A
:100D700044F08004761E18E0504600F053FE08B39D
:100D80000DF11301761E44F400748B4508D2AAF1CC
:100D900030000BF8010B200607D5A9F1010003E094
:100DA000200602D409F101008146A00502D50F9961
:100DB000681C0860B9696D1C0E9888478246002E31
:100DC000D1DC53E0002E51DDBAF1650F02D0BAF14B
:100DD000450F4BD1A00549D5B9696D1C24F4407469
:100DE000761E0E9888478246002E0CDD2B2804D0F4
:100DF000BAF12D0F07D144F48074B9696D1C0E98B7
:100E000088478246761EE00501D52D2100E02B2182
:100E100008F8011BCDF82C8021E00DF12901761E88
:100E200044F4007488450CD2AAF1300010F0FF00A1
:100E300088F8000002D10B99884509D908F101080A
:100E400006E0E00501D5244801E042F20F7081463A
:100E5000B9696D1C0E98884782460F980560002E70
:100E600004DD504600F0DEFD0028D6D1F9690E9869
:100E70008847FF208BF8000088F8000000200690CB
:100E800007904B466A4608A906A8FFF777FEA0051B
:100E900002D46FF001002AE714F0240F0AD0E00713
:100EA00014D1DDE906123868031D3B600068C0E913
:100EB00000120BE0DDE90601FFF778FB0146E007D1
:100EC00004D13868021D3A600068016028460EE7C8
:100ED000000014400000F03FF1D8FFFF2DE9F05F63
:100EE00082460078002715468B460AF10104B94670
:100EF000302801D09DB113E014F8010B01277828A8
:100F000003D0582801D045B10AE00DB1102D07D10A
:100F10000027102514F8010B02E0082500E00A253F
:100F20000026B0460EE005FB080005FB06F1012790
:100F300001EB10461FFA80F8B6F5803F00D3B946A2
:100F400014F8010B294600F018F80028EBDABBF181
:100F5000000F05D00FB1641E00E05446CBF80040EE
:100F6000B9F1000F06D000F05DFC02210160C81E3F
:100F7000BDE8F09F48EA0640FAE73A2800D2303848
:100F800020F02002412A01D3A2F13700884201D388
:100F90004FF0FF3070470EB540F23342029200220C
:100FA000CDE900221346FFF797FC03B000BD70B5F2
:100FB0008C1810F8015B15F0070301D110F8013B04
:100FC0002A1106D110F8012B03E010F8016B01F88B
:100FD000016B5B1EF9D12B0705D40023521E0DD4E3
:100FE00001F8013BFAE710F8013BCB1A921C03E031
:100FF00013F8015B01F8015B521EF9D5A142D8D369
:10100000002070BD10B501F00CF901220221134837
:1010100001F0FEF90021114801F0F8F80122114613
:101020000E4801F0B8F803230A2200210B4801F012
:1010300087F900220121094801F020F90122114617
:10104000064801F001F9054801F0F5F8012001F02A
:101050003DFF024801F08AF810BD00000020014069
:1010600010B540F6024004F063FF41F2081004F0AE
:101070005FFF012300220321064803F065FA4FF4C5
:10108000403001F0B1F8FFF7BDFF0121024801F047
:10109000ADF910BD000802400020014000BFFEE78E
:1010A00000BFFEE701490868496870473009002021
:1010B00000BFFEE710B54FF400730122114612483D
:1010C00003F042FA4FF40073022201210E4803F0AC
:1010D00062FA4FF400710C4803F0F2F94FF480719A
:1010E000094803F0EDF900F071F84FF4007106487B
:1010F00003F0E4F900F06AF84FF48071024803F05D
:10110000DDF900F063F810BD0004024010B54FF4A3
:101110000073012211460E4803F016FA4FF40073D3
:10112000022201210A4803F036FA4FF40071084800
:1011300003F0C4F94FF48071054803F0C1F900F0E1
:1011400045F84FF40071024803F0BAF910BD0000F1
:101150000004024010B54FF400711B4803F0B0F9D1
:1011600000F034F84FF48071174803F0A9F900F04B
:101170002DF84FF4007301220021134803F0E4F925
:1011800005E0601CC4B2FE2C01DDFFF7BFFF4FF489
:1011900000710D4803F0D0F90028F2D14FF48071AE
:1011A000094803F08BF900F011F84FF400730122A5
:1011B0001146054803F0C8F94FF4007302220121DB
:1011C000014803F0E8F910BD00040240782000BF98
:1011D000011EA0F1010290B2FAD1704700BFFEE7F4
:1011E00000BFFEE710B5002807DA0A07140E054A0B
:1011F00000F00F031B1FD45403E00A07130E024A2A
:10120000135410BD18ED00E000E400E070B50024B8
:101210000CE0002506E00020074901EB8501085598
:10122000681CC5B2802DF6DB601CC4B2042CF0DB58
:1012300000F0F6F870BD00002011002070B50B46DC
:10124000CE1701EB5676C6F3C702CE1701EB5676E2
:10125000F610A1EBC606F4B20123A340DDB20E4B9B
:1012600003EB80039B5CDB430B4E06EB8006B35421
:10127000094B03EB80039B5C2B43074E06EB800678
:10128000B354054B03EB80039B5CDB43024E06EB40
:101290008006B35470BD00002011002070B50A46CE
:1012A000CE1701EB5676C6F3C703CE1701EB567681
:1012B000F610A1EBC606F4B20122A240D5B2054A4F
:1012C00002EB8002D25C2A43024E06EB8006F25407
:1012D00070BD00002011002010B540F6014004F060
:1012E00027FE4FF48073012211464C4803F02CF97D
:1012F0004FF4807302220121484803F04CF94FF467
:101300008071464803F0DCF84FF400730122114667
:10131000424803F019F94FF40073022201213F48BB
:1013200003F039F94FF400713C4803F0C9F84FF469
:10133000FA7001F0CBFD0021AE2000F036F900215B
:10134000084600F032F90021102000F02EF90021AB
:10135000402000F02AF90021812000F026F9002128
:10136000CF2000F022F90021A12000F01EF9002179
:10137000C82000F01AF90021A62000F016F900217B
:10138000A82000F012F900211F2000F00EF9002122
:10139000D32000F00AF90021084600F006F90021E8
:1013A000D52000F002F90021802000F0FEF8002195
:1013B000D92000F0FAF80021F12000F0F6F8002121
:1013C000DA2000F0F2F80021084600F0EEF80021E3
:1013D000DB2000F0EAF80021402000F0E6F80021D0
:1013E000202000F0E2F80021022000F0DEF80021C9
:1013F0008D2000F0DAF80021142000F0D6F800214A
:10140000A42000F0D2F80021A62000F0CEF80021A0
:10141000AF2000F0CAF8FFF7F9FE10BD000402404B
:1014200070B500241CE004F1B001C8B2002100F046
:10143000BCF80021084600F0B8F80021102000F0A8
:10144000B4F8002508E0084901EB8501085D012199
:1014500000F0ABF8681CC5B2802DF4DB601CC4B290
:10146000042CE0DB70BD0000201100202DE9FF4FAF
:1014700081B080460E461C4600962046E31704EBDA
:101480005373DB1021464FEAE47C04EB5C7C4FEAAB
:10149000EC0CA4EBCC0CBCF1000F02D04FF0010C13
:1014A00001E04FF0000C6344224604EBD27C4FEA8B
:1014B0006C0C03FB0CF303F0FF0B03982038C7B24E
:1014C000002547E00C2C07D107EB4700234901EB2F
:1014D000800010F805A014E0102C05D1204800EB86
:1014E000071010F805A00CE0182C07D107EBC70077
:1014F0001C4901EB800010F805A002E005B0BDE832
:10150000F08F4FF000091FE00AF0800020B1314653
:101510004046FFF7C3FE03E031464046FFF78EFE2C
:101520004FEA4A604FEA106A701CC6B20098301A3F
:10153000A04205D1009E08F1010000F0FF0806E07E
:1015400009F1010000F0FF09B9F1080FDCDB00BF71
:10155000681CC5B25D45B5DB00BFCFE7A89C00089D
:101560001CA100080CA70008F0B506460F4614465B
:101570001D4613E022782B4639463046FFF776FFAA
:10158000284605EBD07106EB6101CEB2C5F18000B3
:10159000B04202DA0026B81CC7B2641C20782028AA
:1015A00002DB20787E28E5DDF0BD70B505460C46EF
:1015B000FFF780FD782000F04DF8FFF7CBFD1CB160
:1015C000402000F047F802E0002000F043F8FFF769
:1015D000C1FD284600F03EF8FFF7BCFDFFF796FD81
:1015E00070BD00BFFEE7000010B541F21C0004F022
:1015F0009FFC03F061FD04F039FE10480068C0F361
:1016000001200F4908600F48006843F2F02188422A
:1016100002D10B48006810B904F0DCFE0AE041F684
:101620001B5004F0B3FB18B941F61A5004F0AEFB9E
:1016300004F09EFF04F0FCFA10BD00007038024078
:10164000D80900205028004010B505F0D3FE10BD89
:1016500000BFFEE770B50446002524E04FF480711A
:10166000124802F02BFF04F0800028B14FF4007103
:101670000E4802F025FF04E04FF400710B4802F021
:101680001DFFFFF7A3FD4FF48071084802F018FF1B
:10169000FFF79CFD4FF48071044802F00FFF6006D5
:1016A000040E681CC5B2082DD8DB70BD00040240D2
:1016B00000B501F015FC0548036840685A1C40F16C
:1016C000000002490A60486000BD000030090020A7
:1016D00008B53048006840F470002E4908602E4874
:1016E000006840F001002C49086000BF2A480068EB
:1016F00000F002000028F9D000BF27480830006839
:1017000040F080002449083108600020009002E089
:101710000098401C009000985028F9D31E480830CB
:10172000006840F090001C490831086000200090DB
:1017300002E00098401C009000985028F9D300BFA8
:1017400015480830006820F003001349083108608C
:1017500011480068114908400F49086008460068B0
:1017600020F48020086000200B490831086000BF89
:1017700009480830006800200028F9D108480649C7
:10178000091D0860002004490C31086007F0A4F925
:1017900008BD000088ED00E000380240FFFFF6FEC3
:1017A0001030002410B50949094807F007FE60B160
:1017B000074807F049FD074908700449044807F045
:1017C000F0FD0448007804F029F810BD0503050079
:1017D00000100140B409002000BFFEE70FB4054B24
:1017E00010B503A9044A029800F024F910BC5DF872
:1017F00014FB0000894200080C0A00200FB4084BBB
:1018000010B504A902AA039800F014F9044602A92D
:10181000002000F0A6FC204610BC5DF814FB000080
:101820006321000800487047100A002000000000F3
:1018300030B583B0044600F017F89FED090B05465C
:101840008DED000B002221466846FEF794FF2846E6
:1018500000F020F89DED000B03B030BD000000004B
:101860000000000000000000014800687047000010
:10187000100A002002E008C8121F08C1002AFAD18D
:1018800070477047002001E001C1121F002AFBD100
:10189000704700000149086070470000100A0020EE
:1018A0002DE9FF5F82B00021DDE90430020DDDF893
:1018B00040B0034318D044F61050A2F2FF32424326
:1018C0001514119801281FD0A5EB0B00401C5FEAEE
:1018D000000A4FF000064E4FDFF83891B0465046F0
:1018E00015D5CAF1000413E0119801244AA3012878
:1018F00001D16FEA0B010298119AC0E90031C0E9E9
:10190000024206B0BDE8F09FCBF10000DFE70446DD
:101910000021404A491842EB0450CDE9001012E082
:10192000E00707D032463B4640464946FEF709FDF0
:101930008046894632463B4610461946FEF701FD71
:1019400006460F466410002CEAD1DDE90401DDE90A
:101950000023BAF1000F06DAFEF7F3FC42464B46CD
:10196000FEF7EFFC05E0FEF75EFD42464B46FEF754
:101970005AFD04460E460022284BFEF7FFFD03D811
:101980004FF0FF30014607E00022254B204631464C
:10199000FEF7F0FFFFF795F8102409E0002C0ADBB2
:1019A0000A220023FEF734FE039B30321A55641ED0
:1019B00050EA0102F2D1641C039AC4F111031444E9
:1019C000119A012A03D0012208430DD10AE00843ED
:1019D00004D000204FF0110B119072E7A3EB0B0520
:1019E0006D1E0DE05B4504DD4FF0000205F10105C1
:1019F00004E003DA4FF00002A5F10105002AECD063
:101A000002981199C0E90231C0E9004579E7000068
:101A1000000014400000F03F300000000000F043E0
:101A20000000E03F30380A2801D201207047002032
:101A3000704700002DE9FF4F95B09B46894606464A
:101A400000250FE2252877D100242746F84A0121F6
:101A5000059400E0044316F8013F203B01FA03F02F
:101A60001042F7D130782A2811D06FF02F03307848
:101A7000A0F13002092A16D8059A44F0020402EBBC
:101A8000820203EB42021044761C0590EFE759F8FE
:101A9000042B0592002A03DA504244F400540590C6
:101AA00044F00204761C30782E2816D116F8010F67
:101AB00044F004042A280DD06FF02F023078A0F1F2
:101AC0003003092B09D807EB870302EB4303C71840
:101AD000761CF3E759F8047B761C30786C280FD01D
:101AE00006DC4C2817D068280DD06A2814D104E0F1
:101AF000742810D07A280FD10DE044F400140AE0C5
:101B000044F4801401E044F440147278824202D11B
:101B100004F58014761C761C307866280BD013DC14
:101B2000582877D009DC002875D04528F6D04628FB
:101B3000F4D047281AD19DE118E0632835D06428F5
:101B400079D0652812D195E1702873D008DC672818
:101B5000F1D069286FD06E280DD06F2806D1B5E07E
:101B600073282CD0752875D0782874D05A461799C8
:101B700090476D1C75E1C4F30250022809D0032878
:101B80000DD0D9F8001004280DD00D6009F104091A
:101B900067E1D9F80010EA17C1E90052F6E7D9F871
:101BA00000100D80F2E70D70F0E719F8041B8DF8B6
:101BB000001000208DF80100EA46012003E059F8EA
:101BC00004AB4FF0FF3061074FF0000102D40DE08D
:101BD00008F101018846B9420FDA8045F8DB1AF8AE
:101BE00008100029F4D108E008F10101884681427B
:101BF000FADB1AF808100029F6D105985B46A0EB2D
:101C0000080721463846179A00F094FA284400EB5A
:101C1000080507E04DE029E10DE01AF8010B5A46EE
:101C200017999047B8F10108F7D25B46214638462C
:101C3000179A13E142E00A220092C4F302524FF0D5
:101C4000000A022A08D059F804CB032A4FEAEC71A3
:101C50000AD00DE029E02AE009F1070121F007028E
:101C6000F2E802C1914609E00FFA8CFC4FEAEC71F0
:101C7000042A03D14FFA8CFC4FEAEC71002907DAF1
:101C80000A460021DCF1000C61EB02012D2202E08A
:101C9000220504D52B228DF80420012203E0E2075F
:101CA00001D02022F7E7904659E00A2102E01022F5
:101CB0000DE010214FF0000A00910BE010224FF0D0
:101CC000000A44F004040827009203E008224FF0C1
:101CD000000A0092C4F30252022A05D059F804CB3C
:101CE0000021032A08D009E009F1070121F00702C9
:101CF000F2E802C1914605E01FFA8CFC042A01D1EA
:101D00000CF0FF0C4FF00008220728D5702806D0F1
:101D1000009B83F0100353EA0A0305D00EE0402233
:101D20008DF80420012208E05CEA010206D030228E
:101D30008DF804208DF8050002229046009B83F068
:101D4000080353EA0A030AD15CEA010201D16207DF
:101D500005D530228DF804204FF001087F1E582849
:101D600004D034A003900EA802900DE036A0F9E74D
:101D700053466046009AFEF74BFC84460398825C0B
:101D80000298401E029002705CEA0100F0D10298B5
:101D900006A9081A00F1200A600702D524F480344D
:101DA00000E00127574502DDA7EB0A0000E0002014
:101DB00000EB0A01009005984144401A0590E003A9
:101DC00006D45B462146179A059800F0B3F90544FE
:101DD000002706E001A85A46C05D179990476D1C80
:101DE0007F1C4745F6DBE0030CD55B462146179A7E
:101DF000059800F09FF9054404E030205A461799F1
:101E000090476D1C0099481E00900029F5DC08E001
:101E1000029802995A460078491C029117999047F6
:101E20006D1CBAF10001AAF1010AF1DC65E10000C4
:101E300009280100303132333435363738396162A0
:101E40006364656600000000303132333435363764
:101E500038394142434445460000000000F058F93B
:101E60000544761C307800287FF4ECAD19B0284684
:101E7000BDE8F08F620700D4062709F1070222F0BF
:101E8000070CFCE80223E14603F000485FEA080C77
:101E900002D00FF2702C0DE05FEA045C02D50FF265
:101EA000682C07E05FEAC47C02D00FF2602C01E0EE
:101EB000AFF2700C4FF0FF3823F00043CDF850C064
:101EC00065280CD006DC452809D046281DD04728B7
:101ED0003DD13DE0662818D067287ED138E000214A
:101EE000112F01DB112000E0781CCDE9000106A9CB
:101EF0000EA8FFF7D5FCDDE90F010E9A0391002132
:101F0000009207F1010A04914DE04FF00040009764
:101F1000CDE9011006A90EA8FFF7C2FCDDE90F020A
:101F200003920E9B11990022DDF80CA000930492FD
:101F300011B9791C00EB010AB7EB0A0004D4C0F117
:101F4000FF3007F1010A0490AAEB0700019044E07A
:101F5000012F00DA01270021112F01DD112000E0FF
:101F60003846CDE9000106A90EA8FFF799FCDDE986
:101F70000F010E9A0391002104910092BA462107A5
:101F80000CD40399514500DA8A46BAF1010F05DDF8
:101F9000009AAAF10101515C302908D0B84202DA56
:101FA00010F1040F06DA0121CDE9011015E0AAF1C4
:101FB0000101E9E7002805DC049901440491AAEB3A
:101FC000000102E0411C514500DD8A460499401A97
:101FD000401C01904FF000400290200704D401986B
:101FE000504501DBCDF8048000208DF84F000298A9
:101FF0000DF14F07B0F1004F25D02B200E90029825
:102000004FF0020800280CDA404202902D200E907A
:1020100007E00A210298FEF7E5FA3031029007F84E
:10202000011DB8F10001A8F10108F2DC02980028B6
:10203000EFD1791E0E980870307800F0200040F043
:10204000450007F8020D12A8C01B00F107081498FC
:10205000007800B1012000EB0A01019801EBE0716A
:1020600005984144401A401E0590E00306D45B46A3
:102070002146179A059800F05DF8054414980078F9
:1020800018B15A46179990476D1CE00324D55B465A
:102090002146179A059800F04DF805441CE0049875
:1020A000002807DBDDE90301884203DD0098405C7E
:1020B000179901E0179930205A469047049805F186
:1020C0000105401C04900198401E019004D12E206F
:1020D0005A46179990476D1CBAF10001AAF1010AFE
:1020E000DDDC05E017F8010B5A46179990476D1C87
:1020F000B8F10001A8F10108F4DC5B462146179A0B
:102100000598ABE62D0000002B0000002000000029
:102110002DE9F041044600251E461746880404D4E4
:1021200005E039462020B0476D1C641EF9D52846CD
:10213000BDE8F0812DE9F041044600251E46904699
:10214000C80301D5302700E02027880404D505E026
:1021500041463846B0476D1C641EF9D52846BDE897
:10216000F0810A68531C0B6010707047816841F061
:102170000801816000BF816801F008010029FAD1DF
:10218000816841F00401816000BF816801F00401B1
:102190000029FAD1704730B5012902D0022920D197
:1021A0000FE06AB1102A0BD8C36A23F47003C3622C
:1021B000C36A541E4FF4700505EA04542343C362F6
:1021C00010E06AB1042A0BD8836B23F440138363B5
:1021D000836B541E4FF4401505EA04542343836374
:1021E00000E000BF00BF30BD0649096821F4E021CE
:1021F000054AC2F804131146D1F804130143C2F88A
:1022000004137047042301400020014021B182687B
:1022100042F40062826003E0826822F4006282601D
:10222000704710B540F6081003F0A6FE40F60810FF
:1022300003F090FE10BD816801F0010119B98168B9
:1022400041F0010181607047012902D0022912D1B9
:1022500008E0836823F040538360836843EA027395
:10226000836009E0836823F440138360836843EA52
:102270000253836000E000BF00BF7047012902D015
:10228000022910D107E0836823F0706383608368BC
:102290001343836008E0836823F4702383608368BA
:1022A0001343836000E000BF00BF704702688A43A9
:1022B000026070470246002013680B4003B1012002
:1022C0007047000010B52DED068B02211748FFF76F
:1022D000EDFF00BF02211548FFF7ECFF0128F9D1FF
:1022E0001248C46C2046FEF70DF941EC1A0B104859
:1022F00090ED461BB0EE410AF0EE610A53EC102B54
:1023000051EC1A0BFEF71DF841EC190B9FED090B70
:1023100053EC102BFEF787F841EC180BFEF746F94B
:102320000649C1F81409BDEC068B10BD0020014020
:10233000000800200000000000FEAF400000002068
:10234000F0B51D4606290CDA436B01EB81071F2609
:10235000BE40B34301EB810602FA06F63343436302
:1023600022E00C290EDA036B8E1F06EB86071F2670
:10237000BE40B3438E1F06EB860602FA06F63343D1
:10238000036311E010290FDAC36AA1F10C0606EB12
:1023900086071F26BE40B343A1F10C0606EB860656
:1023A00002FA06F63343C3620A2A0CDA046902EB26
:1023B00042070726BE40B44302EB420605FA06F682
:1023C0003443046111E0122A0FDCC468A2F10A064A
:1023D00006EB46070726BE40B443A2F10A0606EB09
:1023E000460605FA06F63443C460F0BD012902D062
:1023F00002290AD104E0826842F08042826005E04E
:10240000826842F48002826000E000BF00BF704733
:10241000AAB101F480731BB1436843F48073436035
:1024200001F480631BB1436843F48063436001F0AF
:102430000203CBB1836843F00203836014E001F42C
:1024400080731BB1436823F48073436001F480639D
:102450001BB1436823F48063436001F002031BB1A6
:10246000836823F0020383607047000070B5044660
:102470000D46607801232A4604F1300100F091FFF7
:1024800008B1032070BD94F82E1294F82F0241EA8F
:1024900000204AF65521884201D00220F2E794F844
:1024A0006900010694F8680041EA004194F8670069
:1024B00041EA002094F86610084320F07F400E495E
:1024C000884201D10020DDE794F88500010694F8E8
:1024D000840041EA004194F8830041EA002094F826
:1024E0008210084320F07F400349884201D1002038
:1024F000C8E70120C6E7000046415400024600E05C
:10250000521C107810B110788842F9D110787047B9
:102510002DE9F74F88B0089800680190019800787D
:1025200030380790079809280AD8019840783A2847
:1025300006D10198801C019008990198086001E07B
:1025400000200790079818B10B200BB0BDE8F08F62
:10255000D049079851F82040099804600CB90C2024
:10256000F3E7207878B1607800F043FF804608F008
:10257000010040B90A9820B108F0040008B10A200F
:10258000E3E70020E1E700202070079860706078A2
:1025900000F0C1FE804608F0010008B10320D4E736
:1025A0000A9820B108F0040008B10A20CDE74FF0E6
:1025B000000B59462046FFF759FF054600BF012D85
:1025C00021D14FF0000ABAF1000F03D0AAF10100A7
:1025D00000F0FF0A4FF4DF7000EB0A1104F1300045
:1025E0000F18387978B1F87A0106B87A41EA0041D3
:1025F000787A41EA0020397A40EA010B59462046B0
:10260000FFF734FF0546032D01D101209DE70DB1F1
:102610000D209AE73B20015D94F83C0041EA002040
:10262000B0F5007F01D00D208FE74620015D94F8C2
:10263000470041EA0029B9F1000F0ED194F8570084
:10264000010694F8560041EA004194F8550041EA29
:10265000002094F8541040EA0109C4F81C9040206E
:10266000065DE670012E03D0022E01D00D206CE72E
:1026700009FB06F93D20005D0646A07016B1701EEC
:10268000304008B10D2060E74120015D94F8420020
:1026900041EA00202081207A00F00F0008B10D20CF
:1026A00053E74320015D94F8440041EA002006907E
:1026B000069870B994F85300010694F8520041EA64
:1026C000004194F8510041EA002094F8501008436A
:1026D00006903E20015D94F83F0041EA0020029000
:1026E000029808B90D2030E702984844218900EB90
:1026F00011100590DDE90501814201D20D2024E78A
:10270000DDE90510401AA178B0FBF1F004900498BF
:1027100008B90D2019E7012540F6F67104988842A2
:1027200000D302254FF6F6710498884200D30325A2
:102730000498801CA06105985844A06202985844EF
:102740002062032D16D1208908B10D20FDE694F8F2
:102750005F00010694F85E0041EA004194F85D00D4
:1027600041EA002094F85C1008436062A069800090
:10277000039014E0208908B90D20E6E6206A484459
:102780006062022D02D1A069400007E0207E00F0C7
:102790000100A16901EB410100EB51000390E169E7
:1027A000039800F2FF10B1EB502F01D20D20CCE6C0
:1027B0004FF0FF3020610020E060032D5CD160719C
:1027C00094F8601094F8610041EA00205844606178
:1027D0006078012304F13001626900F0E2FDE8BB9A
:1027E00094F82E1294F82F0241EA00204AF655215F
:1027F000884241D13320005D01063220005D41EA6C
:1028000000413120005D41EA002094F83010084377
:102810002149884230D194F81702010694F8160233
:1028200041EA004194F8150241EA002094F814129C
:1028300008431A4988421FD194F81F02010694F8F0
:102840001E0241EA004194F81D0241EA002094F87A
:102850001C120843E06094F81B0200E00CE0010643
:1028600094F81A0241EA004194F8190241EA002062
:1028700094F8181208432061257009480088401C0C
:1028800080B207490880E0800020E062207100BF2C
:102890005BE60000DC090020525261417272416126
:1028A000E00900200246891E9069801E884201D8F6
:1028B000002070479378906A01FB0300F9E700005D
:1028C00070B51D25084C00E0641E802005F00EFC4C
:1028D00008B9002CF8D114B91325284670BD034857
:1028E00005F0FEFB2846F9E7A0860100FF07C000BF
:1028F0002DE9F04705460C46207820F04000401EA8
:1029000000EB800101EBC00600274FF0010800BF7B
:102910001A48C05D205C1949C95D2144497840EAE4
:102920000129B8F1000F10D0484601F0FBFB8046AA
:10293000FF2E07D23146761C35F8110001F0F2FB6C
:10294000404508D00020BDE8F0874FF6FF70814574
:1029500001D00020F7E7781C07460D28D8D320784F
:1029600000F0400038B1B8F1000F04D035F816007F
:1029700008B10020E7E70120E5E7000068B400089F
:102980001CB51FA0FEF72AFF04221E2101A805F096
:10299000E3FD04222221684605F0DEFD9DED010ADB
:1029A00010EE101A0846FDF7BEFD0A4601461C4807
:1029B00000F6181006C09DED000A10EE101A084629
:1029C000FDF7B1FD164A02F5126203C2154890EDFB
:1029D000461BB0EE410AF0EE610A53EC102B12A038
:1029E000FEF7FCFE0F4890ED481BB0EE410AF0EEFA
:1029F000610A53EC102B10A0FEF7F0FE1CBD000086
:102A00007361766520706172616D657465727320A3
:102A100066726F6D20666C6173680D0A00000000BD
:102A20000000002000080020726174696F203D20C2
:102A300025302E32660D0A006C696D6974203D20C8
:102A400025302E32660D0A001CB5264890ED461B37
:102A5000B0EE410AF0EE610A53EC102B22A0FEF713
:102A6000BDFE204890ED481BB0EE410AF0EE610A31
:102A700053EC102B20A0FEF7B1FE1A4890ED461B38
:102A8000B0EE410AF0EE610A51EC100BFDF78EFD3D
:102A90000190144890ED481BB0EE410AF0EE610A37
:102AA00051EC100BFDF782FD009017A0FEF796FE8B
:102AB000002005F085FE1E2200211AA005F076FDFB
:102AC00005F0BCFE04221E2101A805F06FFD05F0F3
:102AD000B5FE04222221684605F068FD05F0AEFE31
:102AE0001CBD000000080020726174696F203D2049
:102AF000252E32660D0A00006C696D6974203D2038
:102B0000252E32660D0A00007361766520706172B1
:102B1000616D657465727320746F20666C61736893
:102B20000D0A00004465766963655F49443A3230B6
:102B300032352D43494D432D323032353234343520
:102B40003739000070B5044600250CE0FDF74AFB5C
:102B50000068615D405C00F0080018B1605DFDF741
:102B60004EFB60556D1C605D0028EFD170BD2DE9F6
:102B7000F04704468946B9F1000F06D1E76817B15E
:102B8000A069B84211D801270FE04946204601F05C
:102B9000F2FB0646022E02D20120BDE8F087A069B2
:102BA000B04201D93046F8E74F463D4600BF6D1CA4
:102BB000A069A84204D80225BD4201D90020ECE753
:102BC0002946204601F0D7FB064606B909E0701CED
:102BD00008B1012E01D13046DFE7BD42E7D1002028
:102BE000DBE700BF6FF070422946204602F028FE66
:102BF0008046B8F1000F08D1B9F1000F05D02A4680
:102C00004946204602F01CFE8046B8F1000F09D16B
:102C1000E5602069401C68B12069401E20610120E8
:102C2000607107E0B8F1010F02D14FF0FF3000E012
:102C3000012005462846B0E72DE9F34F83B08146D1
:102C400004980068019002E00198401C01900198EE
:102C500000782F28F8D0019800785C28F4D0D9F8B3
:102C60001CA000252F4600BF38467F1C01990C5C34
:102C7000202C03DB2F2C01D05C2C00D138E0FF2D61
:102C800003D3062005B0BDE8F08FE4B2812C02DB4F
:102C9000E0B29F2805DDE0B2E02813DBE0B2FC28BB
:102CA00010DC38467F1C01990E5C402E01DB7E2E25
:102CB00005DD802E01DBFC2E01DD0620E2E706EBC0
:102CC000042084B20121204601F022FA04460CB906
:102CD0000620D7E7802C06DA214671A0FFF70EFC0C
:102CE00008B10620CEE728466D1C2AF81040BBE745
:102CF00000BF0198C11904980160202C01DA04205A
:102D000000E00020804608E0681E3AF81040202CC1
:102D100002D02E2C00D002E06D1E002DF4D100BF99
:102D20000DB90620AEE700202AF815000B2220215D
:102D3000D9F8180001F0CAFF002700E07F1C3AF81C
:102D400017002028FAD03AF817002E28F6D00FB135
:102D500048F0030800E06D1E25B1681E3AF8100027
:102D60002E28F8D10020064602904FF0080B00BF35
:102D700038467F1C3AF8104004B963E0202C03D099
:102D80002E2C04D1AF4202D048F00308F0E702989D
:102D9000584501D2AF4214D1BBF10B0F02D148F01C
:102DA00003084FE0AF4201D048F00308AF4200D91A
:102DB00048E02F46082002904FF00B0BB006060E9D
:102DC000D6E7802C09DB204601F0ACF90021009009
:102DD00001F09EF9044648F00208FF2C11DDABF12A
:102DE00001000299884204D848F00308CDF808B0E1
:102DF000BEE72212D9F818300298411C02911A54E9
:102E000019E024B1214629A0FFF778FB18B15F240F
:102E100048F003080FE0412C04DB5A2C02DC46F09A
:102E2000020608E0612C06DB7A2C04DC46F0010681
:102E3000A4F1200084B2D9F818300298411C029104
:102E40001C5495E700BFD9F818000078E52803D195
:102E50000520D9F818100870BBF1080F01D1B00691
:102E6000060E06F00C000C2803D006F00300032821
:102E700001D148F0020808F0020058B906F003003A
:102E8000012801D148F0100806F00C00042801D1F7
:102E900048F00808D9F8180080F80B800020F1E607
:102EA000222A3A3C3E3F7C7F000000002B2C3B3D19
:102EB0005B5D000010B501460A2091FBF0F291FB2A
:102EC000F0F400FB141343EA021010BD034908603C
:102ED00000BF024909680029FBD17047280900207A
:102EE0000448006820B103480068401E014908609A
:102EF00070470000280900202DE9F0470446002112
:102F0000204600F0BAF9074617B13846BDE8F08709
:102F10004FF0FF09CA4600BF2169206801F0E0FEBA
:102F2000074607B154E065692E780EB904274FE0D3
:102F3000E87A00F03F08E52E05D008F0080028B137
:102F4000B8F10F0F02D04FF0FF093AE0B8F10F0FC0
:102F50001CD1E069A0B306F0400030B195F80DA097
:102F600026F04006B146E08820844E450AD1687BB1
:102F7000504507D12946E069FFF7BAFC10B1A9F125
:102F8000010000E0FF2000F0FF091AE0B9F1000F96
:102F900005D1284605F0A7FC504500D118E04FF0B8
:102FA000FF094FF6FF702084A069C07A00F001008D
:102FB00030B90B222846A16901F068FE00B907E08C
:102FC000FFE70021204600F006F80746002FA3D0B7
:102FD00000BF38469AE72DE9F0410446884600BF15
:102FE000E088401C86B20EB1206910B90420BDE80B
:102FF000F08106F00F0000286FD12069401C20618D
:10300000E06828B920680089B04266DC0420EEE759
:1030100020688078401E00EA161000285DD1E16823
:10302000206801F0A8F90546012D01D80220DEE74D
:10303000681C08B90120DAE720688069A84246D8F0
:10304000B8F1000F01D10420D1E7E1682068FFF753
:103050008EFD05460DB90720C9E7012D01D10220DB
:10306000C5E7681C08B90120C1E70021206801F00C
:1030700037FE08B10120BAE7216801F130004FF4B2
:103080000072002101F022FE29462068FFF70AFCA9
:103090002168C862002710E0012021680871002122
:1030A000206801F01DFE08B10120A0E72068C06A79
:1030B000401C2168C862781CC7B220688078B8427A
:1030C000EADC2068C06AC01B2168C86200BFE560F6
:1030D00029462068FFF7E6FB2061E6802068303053
:1030E00006F00F0100EB4110606100207FE72DE941
:1030F000F04F85B00446D4F81880D4F81CB00C22E8
:10310000414601A801F0D5FD00BF9DF80F0000F079
:10311000010030B3002088F80B00E06101270DE0CA
:103120003B465A4601A9404601F0C0F82046FFF749
:10313000E3FE054605B103E0781C87B2642FEFDBA0
:1031400000BF642F03D1072005B0BDE8F08F042D28
:1031500001D02846F8E79DF80F0088F80B00C4F866
:103160001CB09DF80F0000F0020070B1002601E0D5
:10317000701C86B23BF816000028F9D106F1190040
:103180000D2190FBF1F086B200E0012600212046DF
:1031900000F073F805460DB12846D5E70020074634
:1031A000049000BF2169206801F09AFD054605B131
:1031B00019E0606990F80090B9F1E50F02D0B9F11B
:1031C000000F08D10FB9E0880490781C80B2074640
:1031D000B04201D107E0002701212046FFF7FBFEA6
:1031E0000546002DDED000BF4DBB012E27DD204659
:1031F000049900F042F805460DBBA06905F073FB89
:103200000090701E86B200BF2169206801F068FD41
:10321000054605B112E0F2B26169E069009B00F079
:10322000A3FF01202168087100212046FFF7D3FE8B
:1032300005461DB9701E80B2061EE5D100BFD5B986
:103240002169206801F04CFD0546A5B9D4F814A009
:1032500020220021504601F039FD0B225046A16981
:1032600001F027FDA069C07A00F018008AF80C0070
:10327000012021680871284666E72DE9F0410446DF
:103280000E46E680A568012D03D020688069A8421B
:1032900002D80220BDE8F0812DB92068007803280B
:1032A00001D12068456A65B9E56020680089B042AF
:1032B00001DC0220EEE72068406A00EB1610206176
:1032C00020E020688078070112E02946206801F09C
:1032D00052F80546681C08B90120DBE7022D03D32C
:1032E00020688069A84201D80220D3E7F01B86B28B
:1032F000BE42EADAE56029462068FFF7D3FA00EB20
:10330000161020612068303006F00F0100EB4110EC
:1033100060610020BEE730B593B005460020009004
:10332000002D39D104F043F804461D2C04D101A826
:1033300003F0A8FD044602E0012013B030BD1D2CAF
:1033400005D1BDF8480003F08BFF044601E00120E1
:10335000F3E7684603F0F4FF0446009800F00070BD
:1033600008B100BFFEE71D2C05D14FF4006003F04B
:103370006DFC044601E00120DFE71D2C04D1002094
:1033800004F02EFD044601E00120D6E71D2C01D1FA
:103390000020D2E70120D0E70120CEE7034600203D
:1033A00070472DE9F04107460C4615461E464FF082
:1033B0001C0814B90420BDE8F0810EB90420FAE716
:1033C00087B9012E06D169027202204603F0A2F9E4
:1033D000804607E0690233464FF40072204604F04D
:1033E000A1F88046B8F11D0F01D10020E3E70120CC
:1033F000E1E7014609B9002070470120FCE72DE90B
:10340000F04107460C4615461E464FF01C0814B9FD
:103410000420BDE8F0810EB90420FAE787B9012E37
:1034200006D169027202204603F080FA804607E066
:10343000690233464FF40072204604F0C1F9804619
:10344000B8F11D0F01D10020E3E70120E1E710B53D
:1034500001EB4102D30000F11002D25822F0010327
:1034600001EB4102D40000F11002135110BD10B560
:1034700001EB4102D30000F11002D25842F00103E7
:1034800001EB4102D40000F11002135110BD30B520
:10349000134601EB4104E50000F11004625922F0EB
:1034A000606242EA436201EB4104E50000F110046E
:1034B000625130BD10B501EB4102D30000F11002A2
:1034C000D25822F0010301EB4102D40000F11002B6
:1034D0001351002301EB4102D40000F110021351FB
:1034E00001EB4102D40000F11402135101EB41023F
:1034F000D40000F11802135101EB4102D40000F195
:103500001C02135101EB4102D40000F120021351BF
:10351000212301EB4102D40000F1240213510429BC
:103520000CDA01EB41025300C1F3400203EB8203CA
:103530003D229A4083681A4382600DE00A1FD1B28F
:1035400001EB41025300C1F3400203EB82033D2231
:103550009A40C3681A43C26010BD10B504290CDA42
:1035600001EB41035C00C1F3400304EB830302FA67
:1035700003F38468234383600DE00B1FD9B201EB92
:1035800041035C00C1F3400304EB830302FA03F33D
:10359000C4682343C36010BD10B5034604290FDA85
:1035A00001EB41004400C1F3400004EB800402FA47
:1035B00004F01C68204008B1012010BD0020FCE789
:1035C000081FC1B201EB41004400C1F3400004EB0D
:1035D000800402FA04F05C68204008B10120ECE7A6
:1035E0000020EAE730B572B901EB4103DC0000F1DD
:1035F00010031B5923F0200401EB4103DD0000F10F
:1036000010035C510DE001EB4103DC0000F11003FD
:103610001B5943F0200401EB4103DD0000F11003CE
:103620005C5130BD70B501EB4104E50000F12404AC
:103630006459156A45F004052C4301EB4105EE0081
:1036400000F12405AC5101EB4104E60000F118043F
:103650001568A55101EB4104E60000F11C04D56892
:10366000A55101EB4104E60000F11404D56AA5510F
:1036700001EB4104E50000F110046359414C234083
:10368000156954682C43156B2C43956A2C43956936
:103690002C43D5692C43234301EB4104E50000F1A1
:1036A00010046351946874B901EB4104E50000F122
:1036B0001004645944F4007501EB4104E60000F184
:1036C0001004A5511FE09468012C0ED101EB4104B8
:1036D000E50000F11004645924F4007501EB410485
:1036E000E60000F11004A5510DE001EB4104E500F6
:1036F00000F11004645944F4004501EB4104E60074
:1037000000F11004A551546974B901EB4104E500BE
:1037100000F11004645944F4806501EB4104E600B3
:1037200000F11004A5510DE001EB4104E50000F1AA
:103730001004645924F4806501EB4104E60000F1B3
:103740001004A551546A74B901EB4104E50000F17D
:103750001004645944F4807501EB4104E60000F163
:103760001004A5510DE001EB4104E50000F1100447
:10377000645924F4807501EB4104E60000F1100463
:10378000A55170BD3F871CFE30B58DB004460D4677
:10379000012203212748FFF7E0FE042203212548E8
:1037A000FFF7DBFE082203212248FFF7D6FE102296
:1037B00003212048FFF7D1FE202203211D48FFF7F7
:1037C000CCFE03211B48FFF742FE03211948FFF7F7
:1037D00071FE19480090039400200A900B9001207C
:1037E0000290002005904FF48050019080000490DA
:1037F0004FF440300C904FF400100790800006907A
:1038000003200890012009906A4603210948FFF728
:1038100009FF012203210748FFF7E4FE04220321E8
:103820000448FFF734FE03210248FFF720FE0DB0E5
:1038300030BD000000640240802C014030B58DB0E6
:1038400004460D46012203212748FFF786FE042285
:1038500003212548FFF781FE082203212248FFF7B4
:103860007CFE102203212048FFF777FE202203214F
:103870001D48FFF772FE03211B48FFF7E8FD0321F7
:103880001948FFF717FE19480090039440200A904A
:1038900000200B9001200290002005904FF48050F2
:1038A0000190800004904FF440300C904FF40010D1
:1038B00007908000069001200990032008906A4636
:1038C00003210948FFF7AEFE012203210648FFF756
:1038D00089FE042203210448FFF7D9FD0321024891
:1038E000FFF7C5FD0DB030BD00640240802C0140E3
:1038F00070B50446204600F0A8FA05460DB9002030
:103900002060284670BD2DE9FC4707468846914651
:1039100000243E4611E06B46012201A9484600F012
:10392000ADF90098012800D00BE09DF8045006F88E
:10393000015B641C0A2D00D103E0A8F10100A04244
:10394000E9DC00BF0020307014B13846BDE8FC87C8
:103950000020FBE72DE9F147ADF50D7D00F07DFD81
:103960000746012284A98DA8FEF7D2FD0646002E47
:103970007DD181A88A9001A88B9084A88D9900F0B0
:1039800033FC064606B9082600BF042EF0D10021FC
:103990008498FFF7ECF80546002605B90726012DA7
:1039A00000D10226681C00B9012626B9002184989E
:1039B00001F096F90646002E68D129468498FEF754
:1039C00071FF8246849800F130044FF400720021A8
:1039D000204601F07BF90B222021204601F076F9E8
:1039E0002E2020701020E072A775390AE175390C7D
:1039F0002176390E6176A576290AE176280C2075A4
:103A0000290E61752022214604F1200001F051F9B0
:103A10002E2084F82100DDF818828498007803288D
:103A200004D18498406A404500D1B04684F83A8079
:103A30004FEA182184F83B10C8F3074134200155A0
:103A40004FEA186184F83510849890F8029019E0D4
:103A50008498C0F82CA00AF1010A01208499087109
:103A60000021849801F03CF906460EB10DE030E0EB
:103A70004FF400720021204601F028F9A9F101005D
:103A800000F0FF09B9F1000FE2D100BF1EB984A810
:103A9000FFF72DFB064626B12946849802F0E4FA8A
:103AA00017E0899C1020E072A775390AE175390C7E
:103AB0002176390E6176A576290AE176280C2075E3
:103AC000290E6175012084990871849804F01BFF08
:103AD000064630460DF50E7DBDE8F0870246012A08
:103AE00001DB0B207047074850F822300BB1002053
:103AF000187009B100200870024840F82210002018
:103B0000F0E70000DC0900202DE9F743ADF50C7D5E
:103B1000054616460020286006F01F0626F0010222
:103B200083A98DA8FEF7F4FC074680A88990CDF8FC
:103B300028D227B983A88D9900F056FB0746889CA8
:103B40000FB904B9062706F01C00002858D04FB161
:103B5000042F03D183A8FFF7CAFA074646F00806E8
:103B6000889C09E0E07A00F0110008B1072703E023
:103B700006F0040000B10827002F40D106F008002D
:103B800000283CD000F069FC804684F80E804FEAA3
:103B90001821E1734FEA184121744FEA18616174EA
:103BA0000020E072207700216177A177E177A17E84
:103BB000E07E41EA0021227D607D42EA002041EA68
:103BC00000490020A0760021E17620756175012072
:103BD00083990871B9F1000F11D08398D0F82C8027
:103BE0004946839802F040FA074647B9A9F1010017
:103BF0008399C8604146839801F072F807460EE049
:103C00006FB9E07A00F0100008B1042707E006F071
:103C1000020020B1E07A00F0010000B1072747B9A7
:103C200006F0080008B146F020068398C06AE861F3
:103C30002C62F7B9AE71A17EE07E41EA0021227DBF
:103C4000607D42EA002041EA00402861E07F0106F1
:103C5000A07F41EA0041607F41EA0020217F0843C4
:103C6000E8600020A860A861839828608398C088D5
:103C7000A88038460DF50F7DBDE8F0832DE9FF4F94
:103C800083B0044615469A46DDF810B00020CAF805
:103C90000000A188206805F0D5FB0290029818B1B9
:103CA000029807B0BDE8F08FA07900F0800008B15D
:103CB0000220F6E7A07900F0010008B90720F0E73C
:103CC000D4E90210401A00900098854200D9009D66
:103CD000B6E02089C0F3080000287DD120688078F4
:103CE000401EA16800EA512000F0FF09B9F1000F61
:103CF0001DD1A06810B92069019004E061692068B5
:103D000000F039FB01900198022805D2A07940F01B
:103D10008000A0710220C4E70198401C28B9A07956
:103D200040F08000A0710120BBE7019860616169EB
:103D30002068FEF7B7FD06462EB9A07940F0800056
:103D4000A0710220ADE74E444FEA5528B8F1000FAC
:103D50002DD009EB080021688978884203D92068B2
:103D60008078A0EB090808F0FF0321684878324604
:103D70005946FFF716FB28B1A07940F08000A071EA
:103D800001208EE7A07900F0400068B1A069801B97
:103D9000404509D2A169891B0BEB41204FF4007209
:103DA00004F1240100F085FF4FEA48273EE0A069B6
:103DB000B04227D0A07900F04000A0B12168487837
:103DC000012304F12401A269FFF719FB38B1A0799E
:103DD00040F08000A07100E015E0012061E7A079CB
:103DE00020F04000A071216848780123324604F198
:103DF0002401FFF7D6FA28B1A07940F08000A07125
:103E000001204EE7A6612089C0F30800C0F50077C5
:103E1000AF4200D92F462089C0F3080204F12400E4
:103E200011183A46584600F044FF00BFBB44A06852
:103E30003844A060DAF800003844CAF80000ED1BEE
:103E4000002D7FF446AF00202BE72DE9F04104461A
:103E5000A188206805F0F6FA0746002F4FD1A07917
:103E600000F0200000284AD0A07900F0400078B18E
:103E700021684878012304F12401A269FFF7BFFA01
:103E800010B10120BDE8F081A07920F04000A071C0
:103E9000E169206800F024FF0746002F2FD1256A32
:103EA000E87A40F02000E872207B2877A089010A98
:103EB0006977E068010CA977E068010EE977207C5A
:103EC000A876208A010AE9762069000C2875206905
:103ED000010E697500F0C1FA0646AE75310AE97542
:103EE000310C2976310E6976A07920F02000A0717E
:103EF000012021680871206804F005FD0746384656
:103F0000C0E72DE9FF4F83B0044615469B46049851
:103F100001900020CBF80000A188206805F092FAFB
:103F20000290029818B1029807B0BDE8F08FA0790E
:103F300000F0800008B10220F6E7A07900F002004E
:103F400008B90720F0E7E0682844E168884200D219
:103F50000025CDE02089C0F30800002877D1206833
:103F60008078401EA16800EA512000F0FF0ABAF1F3
:103F7000000F2AD1A06858B9D4F81080B8F1000F0A
:103F80000BD100212068FEF7F2FD8046206104E09D
:103F900061692068FEF7EBFD8046B8F1000F00D1A3
:103FA000A9E0B8F1010F05D1A07940F08000A0711F
:103FB0000220B9E708F1010028B9A07940F080009B
:103FC000A0710120B0E7C4F81480A07900F040008F
:103FD00090B121684878012304F12401A269FFF718
:103FE0000EFA28B1A07940F08000A07101209BE773
:103FF000A07920F04000A07161692068FEF752FCB2
:1040000006462EB9A07940F08000A07102208BE70F
:1040100056444FEA5529B9F1000F2FD00AEB090099
:1040200021688978884203D920688078A0EB0A0942
:1040300009F0FF032168487832460199FFF7DFF95C
:1040400030B1A07940F08000A07101206CE72CE035
:10405000A069801B48450ED2A069801B019A02EB23
:1040600040214FF4007204F1240000F022FEA079F8
:1040700020F04000A0714FEA49272DE0A069B0422E
:1040800012D0D4E9020188420ED221684878012377
:10409000324604F12401FFF784F928B1A07940F0F9
:1040A0008000A07101203FE7A6612089C0F30800CD
:1040B000C0F50077AF4200D92F462189C1F308022D
:1040C00004F1240150183A46019900F0F2FDA0795C
:1040D00040F04000A07100BF019838440190A068F2
:1040E0003844A060DBF800003844CBF80000ED1B3A
:1040F000002D7FF42FAF00BFD4E90201884201D91F
:10410000A068E060A07940F02000A07100200BE7DB
:104110000246802A01DA104603E009B1002000E0DF
:1041200000207047802807DA612818DB7A2816DC1F
:10413000A0F1200290B212E0002100E0491C084AE0
:1041400032F8112022B1064A32F811208242F5D10C
:10415000034A32F8112012B1024A32F811007047B6
:1041600076B4000832B50008F0B504461D464D731C
:104170000F27CF7200270F738F76BC4681F81BC0C4
:10418000571E07EB870C0CEBC706002738463B464B
:1041900000BF4FF6FF77B84203D03746761C34F89D
:1041A0001700DFF840C01CF803C001F80C0007122C
:1041B000DFF830C01CF803C08C448CF8017008B9DB
:1041C0004FF6FF705F1C3B460D2FE2D34FF6FF7793
:1041D000B84202D034F816700FB942F040020A70AB
:1041E000F0BD000068B400082DE9F34104460198D1
:1041F00000782F2803D0019800785C2802D101981C
:10420000401C01900020A06001980078202807D26F
:1042100000212046FFF731F80646002060612FE0BC
:1042200000BF01A92046FEF707FD064606B126E0BD
:104230002046FEF761FE0646A069C77A46B1042E05
:1042400000D01CE000BF07F0040000B9052616E00E
:1042500007F0040000B112E06569E87A00F0100090
:1042600008B905260BE0A97EE87E41EA00212A7DF7
:10427000687D42EA002041EA0040A060D1E700BF2B
:104280003046BDE8FC81000070B504460D46E1B241
:10429000054804F0DEFF00BF0721034805F051F890
:1042A0000028F9D0204670BD001001402DE9FC47E0
:1042B00006468A4690461C460B225146304600F080
:1042C000F8FC052C0BDD00BF601000EBC43138F8A2
:1042D000022B881884B2B8F800000028F4D1072710
:1042E00000BF2046E11704EB11710911A4EB011185
:1042F000303101F0FF09B9F1390F03DD09F1070091
:1043000000F0FF0938467F1E0DF800902046E117A7
:1043100004EB1171C1F30F14002CE2D17E200DF8D3
:104320000700002511E0705D812802DB705D9F2889
:1043300005DD705DE02807DB705DFC2804DC781E7D
:10434000A84200D106E06D1C6D1CBD4202D2705D1A
:104350002028E8D100BF00BF082F04D238467F1CB8
:104360001DF8000000E0202029466D1C7054082D27
:10437000F2D3BDE8FC872DE9F04105460C46022C3E
:1043800002D3A869A04202D80120BDE8F0812878B4
:10439000012804D002282CD003285AD13DE027461A
:1043A00007EB5707286A00EB5721284600F098FCD6
:1043B00000B14EE0C7F3080105F1300010F80180AC
:1043C0007F1C286A00EB5721284600F089FC00B1C9
:1043D0003FE0C7F3080105F13000405C48EA0028DF
:1043E00004F0010010B14FEA1810CEE7C8F30B003B
:1043F000CBE7286A00EB1421284600F071FC00B1DD
:1044000027E040F2FF1000EA440105F130000E18E9
:104410003078717840EA0120B7E7286A00EBD411C0
:10442000284600F05DFC00B113E040F2FF1000EA06
:10443000840105F130000E18F0780006B17840EAEA
:104440000140717840EA01203178084320F0704043
:104450009BE700BF4FF0FF3097E700207047F0B5B3
:1044600003461C6A5D6A00200DE001268640164066
:104470003EB187000F26BE40B443860001FA06F61F
:104480003443461CB0B20828EFD3082011E00126BF
:10449000864016405EB1A0F10806B7000F26BE4068
:1044A000B543A0F10806B60001FA06F63543461CEE
:1044B000B0B21028EBD31C625D62F0BD8162704720
:1044C0008161704710B54FF4F8520C211848FFF77E
:1044D000C6FF04220C211748FFF7C1FF4FF4706399
:1044E00001220221124800F02FF84FF470630122DC
:1044F00000210F4800F04FF84FF4805300220221B2
:104500000B4800F021F84FF48053012200210848A5
:1045100000F041F8042301220221064800F014F8BB
:10452000042301220021034800F035F810BD0000EB
:1045300000080240000C024002461069084008B121
:10454000012070470020FCE7F0B504460D461646F2
:104550002168E268002019E0012787401F409FB1D1
:104560004FEA400C032707FA0CF7B943470005FA56
:1045700007F739434FEA400C032707FA0CF7BA4311
:10458000470006FA07F73A43471CB8B21028E3D3AE
:104590002160E260F0BDF0B50C461546012C03D158
:1045A00046681E43466002E046689E434660826855
:1045B00000210DE001268E401E403EB14F00032633
:1045C000BE40B2434E0005FA06F632434E1CB1B26D
:1045D0001029EFD38260F0BD70B52DED048BFEB0D5
:1045E000704890ED450AF2EE040A20EE200ABDEE76
:1045F000C00A10EE104A0A2094FBF0F100FB1140B3
:10460000201A0A2190FBF1F52A4667A134A8FDF78C
:10461000F5F834A800F044FD0A2094FBF0F100FB0B
:10462000114000EE100AB8EEC00AF2EE040A80EE65
:10463000201AB0EE418A9FED5D0A28EE000ABDEE19
:10464000C00A10EE102A58A127A8FDF7D7F827A80E
:1046500000F026FD5648B0F85C2056A126A8FDF7CC
:10466000CDF85348B0F85E2052A125A8FDF7C6F852
:104670004F48B0F860204FA124A8FDF7BFF84C4880
:10468000B0F862204BA123A8FDF7B8F84848B0F86D
:10469000642048A122A8FDF7B1F84548B0F866208B
:1046A00044A121A8FDF7AAF826A8FBF73DFE643037
:1046B000789025A8FBF738FE401E779024A8FBF7DA
:1046C00033FE769023A8FBF72FFE0838759022A8BA
:1046D000FBF72AFE749021A8FBF726FE739073A8BF
:1046E000FBF794FD064632462FA141A8FDF786F858
:1046F00027A834AB41AA30A100905AA8FDF77EF854
:104700005AA8FEF71FFA274890ED450A10EE101A36
:104710000846FBF708FF41EC190B5AA806908DEDEF
:10472000049B2348B0F866002149B1F86410204A80
:10473000B2F862201E4BB3F86030CDE90032CDE90B
:1047400002101B48B0F85E30B0F85C201CA108A82D
:10475000FDF754F808A800F055F8124890ED450A06
:1047600010EE101A0846FBF7DEFE41EC190B0D485F
:1047700090ED481BB0EE410AF0EE610A53EC102BAD
:1047800051EC190BFBF7FAFE04D25AAA1AA15AA847
:10479000FDF734F85AA919A0FDF720F87EB0BDEC5A
:1047A000048B70BD0008002025347800000080478D
:1047B0000000002025780000257325732573000074
:1047C000323025302E32782D25302E32782D25307E
:1047D0002E32782025302E32782D25302E32782D2D
:1047E00025302E32782025302E3166560D0A686924
:1047F00064653A25730D0A0025732A0025730D0A96
:104800000000000070B586B004462C48B0F8740073
:10481000002826D12948B0F86610B0F86420B0F816
:104820006200264BB3F86030CDE90030CDE90221BB
:104830002248B0F85E30B0F85C2021A12E48FCF789
:10484000DDFF0A222C492D48FFF75EF905462B486B
:10485000FFF74EF80A2228492848FFF755F9054680
:104860000DE01648B0F874000A2808D12348FFF775
:104870003FF800201149A1F8740006B070BD0F4840
:10488000B0F87400401C0D49A1F874002046FBF7F5
:104890002DFD064605AB324621461848FFF731FB91
:1048A000054645B92046FBF721FD0599884202D10E
:1048B0001248FFF7CAFA00BFDFE70000000000203F
:1048C00068696465446174612F68696465446174F2
:1048D00061323025302E327825302E327825302E38
:1048E000327825302E327825302E327825302E320F
:1048F000782E747874000000E0100020EC06002090
:1049000010B540F6044001F013FB4FF4F0630122B0
:1049100000210248FFF718FE10BD00000010024001
:1049200010B500F08FF831490870314800780978E7
:1049300048402E49097808402E4908702C480078D4
:104940002A49097848402949097888432A49087042
:10495000264800782649087026480078012806D0A5
:10496000022820D0032829D004283DD131E0234853
:10497000B0F86A0008B9012000E000201F49A1F842
:104980006A000846B0F86A0018B91DA0FCF726FFB7
:1049900008E022A0FCF722FF1848B0F86C1024A011
:1049A000FCF71CFF20E005201449A1F86C00084624
:1049B000B0F86C101EA0FCF711FF15E00A200F499B
:1049C000A1F86C000846B0F86C1019A0FCF706FFBF
:1049D0000AE00F200949A1F86C000846B0F86C10F5
:1049E00013A0FCF7FBFE00BF00BF10BDC4090020F0
:1049F000C5090020C6090020C709002000000020CA
:104A0000506572696F6469632053616D706C696E83
:104A1000672053544F500D0A000000005065726922
:104A20006F6469632053616D706C696E670D0A0075
:104A300073616D706C65206379636C653A202564E1
:104A4000730D0A0010B5002480210E48FFF774FD95
:104A500000B901244FF480710A48FFF76DFD00B9D9
:104A600002244FF400710748FFF766FD00B90324E4
:104A70004FF480610348FFF75FFD00B9042420462E
:104A800010BD00000010024070B504460025002053
:104A900004E0215C81402943CDB2401C0428F8DBAE
:104AA0001848007885422BD0207820B11021164874
:104AB000FFF706FD03E010211348FFF7FFFC6078C5
:104AC00020B120211048FFF7FBFC03E020210E4815
:104AD000FFF7F4FCA07820B140210B48FFF7F0FC71
:104AE00003E040210848FFF7E9FCE07820B180218D
:104AF0000548FFF7E5FC03E080210348FFF7DEFCF3
:104B000070BD0000CC0900200000024010B508482C
:104B1000FFF7BAFF0748B0F86A00012807D1044838
:104B2000007808B9012000E000200149087010BD9C
:104B3000C80900200000002010B54FF4406001F0CB
:104B4000F7F9F023002201210648FFF7FDFCF023CE
:104B5000022200210348FFF71EFDF0210148FFF764
:104B6000ADFC10BD0000024010B52DED028B1648C3
:104B7000FFF78AFF1548B0F86A0010B90020124903
:104B80000870134890ED450A10EE101A0846FBF71E
:104B9000CAFC41EC180B0E4890ED481BB0EE410AE0
:104BA000F0EE610A53EC102B51EC180BFBF7E6FC0E
:104BB00003D201200449487002E0002002494870F5
:104BC000BDEC028B10BD0000C809002000000020D1
:104BD0000008002070B5C6B005461C4890F81009C2
:104BE00008B946B070BD1948B0F866001749B1F869
:104BF0006410164AB2F86220CDE90305CDE901211F
:104C00001248B0F8600000901048B0F85E30B0F87C
:104C10005C200FA106A8FCF7F1FD06A8FBF766FBD8
:104C2000064605AB324606A908488030FFF769F909
:104C300004464CB906A8FBF759FB0599884203D1F5
:104C400002488030FFF701F900BFCAE700000020EA
:104C5000323025302E32782D25302E32782D2530E9
:104C60002E32782025302E32782D25302E32782D98
:104C700025302E32782025730D0A000003F030FF16
:104C800001F016FD01E001F019FDFCE7F0B5034667
:104C90001C460D46002000BF161EA2F1010207D0DF
:104CA00014F8017B15F801CBA7EB0C06301EF3D0EE
:104CB000F0BD70B503460C4603E014F8015B03F841
:104CC000015B151EA2F10102F7D170BD30B503469C
:104CD00001E003F8011B141EA2F10102F9D130BD5D
:104CE0002DE9F04104460D46E66AAE422FD0207908
:104CF00008B360780123324604F13001FEF77FFBF0
:104D000010B10120BDE8F08100202071D4E9071026
:104D10000844B0420FD9E7780AE0E06906446078B9
:104D20000123324604F13001FEF769FB781EC7B259
:104D3000012FF2DC00BF55B1607801232A4604F14F
:104D40003001FEF72EFB08B10120DBE7E562002011
:104D5000D8E700002DE9F04103460D461646002431
:104D60000027A0462A48006800F4E060B0F5E06F34
:104D700003D100BF4FF0040830E02548006800F47C
:104D8000E060B0F5C06F03D101274FF0030825E0C4
:104D90001F48006800F4E060B0F5A06F02D1022760
:104DA000B8461BE01A48006800F4E060B0F5806F78
:104DB00003D103274FF0010810E01548006800F404
:104DC000E060B0F5407F03D104274FF0000805E014
:104DD0004FF4A06000F020F80227B846C7F10400A5
:104DE00005FA00F4C8F104010F20C8403040044324
:104DF00024010848C45403F01F01012088405911C0
:104E0000890001F1E021C1F80001BDE8F081000056
:104E10000CED00E000E400E002490143024A1160A9
:104E2000704700000000FA050CED00E000B52DED24
:104E3000028B81B03D48B0F86A00012803D13B499C
:104E4000A1F85A0003E000203849A1F85A00374879
:104E5000B0F85A0030B1012811D0022839D0032807
:104E60005CD148E0102332A200210846FCF77CFB0D
:104E7000102333A219460020FCF776FB4EE02B48A6
:104E8000B0F8660000902948B0F86430B0F86220AD
:104E90002FA13548FCF7B2FC1023334A0021084605
:104EA000FCF762FB314890ED450A10EE101A0846F7
:104EB000FBF739FB41EC180B53EC182B2CA12A48BB
:104EC000FCF79CFC1023284A19460020FCF74CFBF9
:104ED00024E0102329A200210846FCF745FB134AD1
:104EE0002AA12148FCF78AFC10231F4A19460020FA
:104EF000FCF73AFB12E0102326A200210846FCF73B
:104F000033FB0A4A463221A11748FCF777FC1023ED
:104F1000154A19460020FCF727FB00BF00BFFCF72D
:104F20007FFA01B0BDEC028B00BD00000000002044
:104F300073797374656D2069646C6520202020008E
:104F400020202020202020202020202020200000A1
:104F500025302E32783A25302E32783A25302E32CE
:104F60007820202000000000CD090020000800204B
:104F7000252E3266562020202020000055736172B5
:104F8000745F646174613A20202000002573202042
:104F900000000000466C617368446174613A20202F
:104FA0000000000070B586B004462C48B0F87200CE
:104FB000002826D12948B0F86610B0F86420B0F86F
:104FC0006200264BB3F86030CDE90030CDE9022114
:104FD0002248B0F85E30B0F85C2021A12E48FCF7E2
:104FE0000DFC0A222C492D48FEF78EFD05462B4864
:104FF000FEF77EFC0A2228492848FEF785FD054673
:105000000DE01648B0F872000A2808D12348FEF7D0
:105010006FFC00201149A1F8720006B070BD0F4866
:10502000B0F87200401C0D49A1F872002046FBF751
:105030005DF9064605AB324621461848FEF761FF8A
:10504000054645B92046FBF751F90599884202D13A
:105050001248FEF7FAFE00BFDFE700000000002064
:105060006F7665724C696D69742F6F7665724C69E5
:105070006D6974323025302E327825302E32782505
:10508000302E327825302E327825302E3278253069
:105090002E32782E74787400A0100020C8040020EE
:1050A000002105E0425C202A01D130224254491CF3
:1050B000425C002AF6D170470348006840F48070D3
:1050C00001490860704700000070004000B52DEDF8
:1050D000028B89B06C48B0F86A0000287CD06A481E
:1050E000B0F86C000A2877D16748B0F86E00002845
:1050F00073D1664890ED450A10EE101A0846FBF78A
:1051000012FA41EC180B614890ED481BB0EE410AD1
:10511000F0EE610A53EC102B51EC180BFBF72EFA52
:105120005CD25A4890ED450A10EE101A0846FBF77B
:10513000FAF941EC180B554890ED480B8DED060B34
:105140008DED048B5048B0F866004F49B1F86410FB
:105150004D4AB2F862204C4BB3F86030CDE90032D2
:10516000CDE902104848B0F85E30B0F85C2048A1A4
:105170005648FCF743FB5548FFF714FF434890EDB2
:10518000450A10EE101A0846FBF7CDF941EC180B52
:105190003E4890ED480B8DED060B8DED048B3A48A3
:1051A000B0F866003849B1F86410374AB2F86220A6
:1051B000354BB3F86030CDE90032CDE9021032480A
:1051C000B0F85E30B0F85C2041494048FCF716FB6F
:1051D0003E4940A0FCF702FB52E04FE02B4890ED27
:1051E000450A10EE101A0846FBF79DF941EC180B22
:1051F0008DED048B2448B0F866002349B1F8642093
:10520000B1F86210204BB3F86030CDE90031CDE940
:1052100002201D48B0F85E30B0F85C202EA12B486B
:10522000FCF7ECFA294801F0C5F9184890ED450A59
:1052300010EE101A0846FBF776F941EC180B8DEDCD
:10524000048B1148B0F866000F49B1F86420B1F83A
:1052500062100D4BB3F86030CDE90031CDE902208A
:105260000948B0F85E30B0F85C2027A11748FCF779
:10527000C5FA164917A0FCF7B1FA01E0FFF7ACF93F
:1052800009B0BDEC028B00BD00000020000800202A
:10529000323025302E32782D25302E32782D2530A3
:1052A0002E32782025302E32782D25302E32782D52
:1052B00025302E32782025302E306656206C696DD0
:1052C00069742025302E3066560D0A006E0A0020C3
:1052D0008CB6000825730000323025302E32782D30
:1052E00025302E32782D25302E32782025302E3262
:1052F000782D25302E32782D25302E32782025300D
:105300002E3166560D0A0000323025302E32782DAF
:1053100025302E32782D25302E32782025302E3231
:10532000782D25302E32782D25302E327820636866
:10533000303D25302E3166560D0A000000B52DEDAA
:10534000028B89B06C48B0F86A0000287CD06A48AB
:10535000B0F86C000F2877D16748B0F86E000028CD
:1053600073D1664890ED450A10EE101A0846FBF717
:10537000DAF841EC180B614890ED481BB0EE410A99
:10538000F0EE610A53EC102B51EC180BFBF7F6F81A
:105390005CD25A4890ED450A10EE101A0846FBF709
:1053A000C2F841EC180B554890ED480B8DED060BFB
:1053B0008DED048B5048B0F866004F49B1F8641089
:1053C0004D4AB2F862204C4BB3F86030CDE9003260
:1053D000CDE902104848B0F85E30B0F85C2048A132
:1053E0005648FCF70BFA5548FFF7DCFD434890EDB3
:1053F000450A10EE101A0846FBF795F841EC180B19
:105400003E4890ED480B8DED060B8DED048B3A4830
:10541000B0F866003849B1F86410374AB2F8622033
:10542000354BB3F86030CDE90032CDE90210324897
:10543000B0F85E30B0F85C2041494048FCF7DEF936
:105440003E4940A0FCF7CAF952E04FE02B4890EDEE
:10545000450A10EE101A0846FBF765F841EC180BE8
:105460008DED048B2448B0F866002349B1F8642020
:10547000B1F86210204BB3F86030CDE90031CDE9CE
:1054800002201D48B0F85E30B0F85C202EA12B48F9
:10549000FCF7B4F9294801F08DF8184890ED450A59
:1054A00010EE101A0846FBF73EF841EC180B8DED94
:1054B000048B1148B0F866000F49B1F86420B1F8C8
:1054C00062100D4BB3F86030CDE90031CDE9022018
:1054D0000948B0F85E30B0F85C2027A11748FCF707
:1054E0008DF9164917A0FCF779F901E0FFF774F878
:1054F00009B0BDEC028B00BD0000002000080020B8
:10550000323025302E32782D25302E32782D253030
:105510002E32782025302E32782D25302E32782DDF
:1055200025302E32782025302E306656206C696D5D
:1055300069742025302E3066560D0A006E0A002050
:105540008CB6000825730000323025302E32782DBD
:1055500025302E32782D25302E32782025302E32EF
:10556000782D25302E32782D25302E32782025309A
:105570002E3166560D0A0000323025302E32782D3D
:1055800025302E32782D25302E32782025302E32BF
:10559000782D25302E32782D25302E3278206368F4
:1055A000303D25302E3166560D0A000000B52DED38
:1055B000028B89B06C48B0F86A0000287CD06A4839
:1055C000B0F86C00052877D16748B0F86E00002865
:1055D00073D1664890ED450A10EE101A0846FAF7A6
:1055E000A2FF41EC180B614890ED481BB0EE410A58
:1055F000F0EE610A53EC102B51EC180BFAF7BEFFDA
:105600005CD25A4890ED450A10EE101A0846FAF797
:105610008AFF41EC180B554890ED480B8DED060BB9
:105620008DED048B5048B0F866004F49B1F8641016
:105630004D4AB2F862204C4BB3F86030CDE90032ED
:10564000CDE902104848B0F85E30B0F85C2048A1BF
:105650005648FCF7D3F85548FFF7A4FC434890EDB3
:10566000450A10EE101A0846FAF75DFF41EC180BD8
:105670003E4890ED480B8DED060B8DED048B3A48BE
:10568000B0F866003849B1F86410374AB2F86220C1
:10569000354BB3F86030CDE90032CDE90210324825
:1056A000B0F85E30B0F85C2041494048FCF7A6F8FD
:1056B0003E4940A0FCF792F852E04FE02B4890EDB5
:1056C000450A10EE101A0846FAF72DFF41EC180BA8
:1056D0008DED048B2448B0F866002349B1F86420AE
:1056E000B1F86210204BB3F86030CDE90031CDE95C
:1056F00002201D48B0F85E30B0F85C202EA12B4887
:10570000FCF77CF8294800F055FF184890ED450A51
:1057100010EE101A0846FAF706FF41EC180B8DED53
:10572000048B1148B0F866000F49B1F86420B1F855
:1057300062100D4BB3F86030CDE90031CDE90220A5
:105740000948B0F85E30B0F85C2027A11748FCF794
:1057500055F8164917A0FCF741F801E0FEF73CFFA9
:1057600009B0BDEC028B00BD000000200008002045
:10577000323025302E32782D25302E32782D2530BE
:105780002E32782025302E32782D25302E32782D6D
:1057900025302E32782025302E306656206C696DEB
:1057A00069742025302E3066560D0A006E0A0020DE
:1057B0008CB6000825730000323025302E32782D4B
:1057C00025302E32782D25302E32782025302E327D
:1057D000782D25302E32782D25302E327820253028
:1057E0002E3166560D0A0000323025302E32782DCB
:1057F00025302E32782D25302E32782025302E324D
:10580000782D25302E32782D25302E327820636881
:10581000303D25302E3166560D0A00000649B1F89C
:105820006810064A50540449B1F86810491C024AED
:10583000A2F8681070470000000000203C0A002019
:105840002DE9F04705460E461746022E02D3A869F9
:10585000B04202D84FF002088AE02878012804D02C
:10586000022841D003287DD154E0B14609EB590903
:10587000286A00EB59212846FFF732FA8046B8F132
:10588000000F00D071E0C9F3080105F130000C18D9
:1058900006F0010020B1F9B2207861F31F1000E09A
:1058A0003846207009F1010901202871286A00EBAF
:1058B00059212846FFF714FA8046B8F1000F00D0AE
:1058C00053E0C9F3080105F130000C1806F001009F
:1058D00010B1C7F3071005E0207800F0F000C7F31F
:1058E00003210843207040E0286A00EB1621284677
:1058F000FFF7F6F98046B8F1000F00D035E040F22E
:10590000FF1000EA460105F130000C182770380A34
:1059100060702AE0286A00EBD6112846FFF7E0F90C
:105920008046B8F1000F00D01FE040F2FF1000EAFF
:10593000860105F130000C18E0780006A17840EAF5
:105940000140617840EA01202178084300F070406E
:1059500007432770380A6070380CA070380EE0706A
:1059600003E0FFE74FF0020800BF00BF01202871ED
:105970004046BDE8F08700002DE9F04105461D27AF
:10598000002400261A48046801E01948046804F05D
:1059900045000028F9D004F0010030B111270120A2
:1059A00002F09EFB3846BDE8F08104F0040028B107
:1059B0001327042002F094FB3846F4E702F0FAFAC9
:1059C000A84202D008273846EDE70A4802F088FBD3
:1059D000002002F0CBFB06460748304010B91D27D7
:1059E0003846E0E7304600F009F807463846DAE77F
:1059F000342C0140FF07C00008E0F9FD01461C20DF
:105A000001F000420AB100204EE001F080420AB1EC
:105A1000012049E001F000520AB1022044E001F007
:105A200080520AB103203FE001F000620AB1042075
:105A30003AE001F080620AB1052035E001F08072A1
:105A40000AB1062030E001F400020AB107202BE081
:105A500001F480020AB1082026E001F400120AB124
:105A6000092021E001F480120AB10A201CE001F4AF
:105A700000220AB10B2017E001F480320AB10C2099
:105A800012E001F400420AB10D200DE001F4804261
:105A90000AB10E2008E001F400520AB10F2003E021
:105AA00001F0080202B110207047000070B51D25FA
:105AB00000241048046801E00E48046804F0450022
:105AC0000028F9D004F0010028B11125012002F0CE
:105AD00007FB284670BD04F0040028B113250420FC
