:020000040800F2
:10000000809F0020C101000865350008351B0008ED
:10001000613500084D050008453F0008000000005C
:10002000000000000000000000000000C5360008CD
:10003000711200080000000067350008793C0008D4
:10004000DB010008DB010008DB010008DB01000820
:10005000DB010008DB010008DB010008DB01000810
:10006000DB010008DB010008DB010008DB01000800
:10007000DB010008DB010008DB010008DB010008F0
:10008000DB010008DB010008DB010008DB010008E0
:10009000DB010008DB010008DB010008DB010008D0
:1000A000DB010008DB010008DB010008DB010008C0
:1000B000493D0008DB010008DB010008DB01000806
:1000C000DB010008DB010008DB010008DB010008A0
:1000D000DB010008053E0008DB010008DB01000829
:1000E000DB010008DB010008DB010008DB01000880
:1000F000DB010008DB010008DB010008DB01000870
:10010000DB010008DB010008A53D0008DB01000859
:10011000DB010008DB010008DB010008DB0100084F
:10012000DB010008DB010008DB010008DB0100083F
:10013000DB010008DB010008DB010008DB0100082F
:10014000DB010008DB010008DB010008DB0100081F
:10015000DB010008DB010008DB010008DB0100080F
:10016000DB010008DB010008DB010008DB010008FF
:10017000DB010008DB010008DB01000800000000D3
:10018000DB010008DB010008DB010008DB010008DF
:10019000DB010008DB010008DB01000800000000B3
:1001A000DB010008DB010008DB010008DFF80CD0F0
:1001B00000F04AF80048004767530008809F00207D
:1001C0000648804706480047FEE7FEE7FEE7FEE7F1
:1001D000FEE7FEE7FEE7FEE7FEE7FEE7813C0008FC
:1001E000AD0100082DE9F05F0546002092469B46D0
:1001F00088460646814640241BE02846414647463D
:10020000224600F042F853465A46C01A914110D394
:1002100011461846224600F029F82D1A67EB01080E
:100220004F4622460120002100F020F817EB00097C
:100230004E41201EA4F10104DFDC484631462A4627
:100240004346BDE8F09F0000064C074D06E0E0681D
:1002500040F0010394E8070098471034AC42F6D30D
:10026000FFF7A8FF3880040858800408202A04DB20
:10027000203A00FA02F1002070479140C2F12003B9
:1002800020FA03F3194390407047202A04DB203AF8
:1002900021FA02F00021704721FA02F3D040C2F1A6
:1002A0002002914008431946704702468A4202DD07
:1002B000501A80B27047881A80B2FBE72DE9F041EE
:1002C0000746052400250AE0164800EB851090F843
:1002D0002400012801D12C4603E0681CC5B2042D7E
:1002E000F2DB00BF052C1BD00F48065D0F48005DF8
:1002F000B04211DD0E4800EB841087550A48005DBE
:10030000401C094908550A4A02EB8411054A02EBD0
:10031000841003F0E9FB03E00448005D024908553E
:10032000BDE8F0812417002080000020B07F040881
:10033000241800202DE9F04F8BB006460F4690465A
:10034000706801F0D3FA6B48008844F64251884245
:1003500005D069A003F04EFE0BB0BDE8F08F7048E9
:10036000C08920280BD06E48C089182807D06C4857
:10037000C089102803D06BA003F03CFEECE7BA461E
:10038000C34667484068574638440A9064488068C6
:10039000D84600EB08096C48017F0C3050F821105A
:1003A0000A98814205D86848017F0C3050F8210036
:1003B0000A906548017F143050F82100484504D860
:1003C0006148017F143050F82190A9F10100039099
:1003D00000200490D84687E07068049901F068FB1B
:1003E000054600240498401C0490574674E04C488D
:1003F000C089202841D1285DC0100790601C285C6E
:1004000080100890A01C285CC0100990E01C285C9B
:1004100006900998C102089841EA401007990843DC
:100420000590241D307890B93846039902F076FF84
:100430000290059A91B2029A90B2069A00F0A0F842
:1004400001903846019A039902F066FD43E0307846
:10045000012809D17178069881423CDC3846059A1A
:10046000039902F059FD36E03078022833D138463E
:10047000059A039902F050FD2DE02948C0891828FB
:1004800019D1285DC0100790601C285C801008906E
:10049000A01C285CC01009900998C102089841EA84
:1004A0004010079908430590E41C3846059A0399C3
:1004B00002F032FD0FE01A48C08910280BD1295DE7
:1004C000601C285C41EA00200590A41C3846059A6F
:1004D000039902F021FD7F1C0A98874287D3039875
:1004E000401E039008F10108C845FFF475AF00BF36
:1004F00032E70000DC100020424D50446973706CFC
:1005000061793A2074686973206973206E6F742072
:100510006120424D502066696C650D0A00000000A4
:10052000EA100020424D50446973706C61793A20A2
:10053000756E737570706F7274656420666F726D1E
:1005400061742121210D0A00AC00002000BFFEE7EC
:10055000014600200BE000EBC002074B03EBC20298
:100560008A4202D1054A10707047421CD0B213284B
:10057000F1DB00BFF8E70000CC1100201C000020D8
:100580002DE9FC4F03460C46052A02DA1846BDE861
:10059000FC8FDD0AC3F3451603F01F074FEAD42C86
:1005A000C4F3451804F01F00019011460CFB01F044
:1005B000C1F1FF0E05FB0E004FF0FF0E90FBFEF0A9
:1005C0001FFA80F908FB01F0C1F1FF0E06FB0E00D7
:1005D0004FF0FF0E90FBFEF01FFA80FA019848439F
:1005E000C1F1FF0E07FB0E004FF0FF0E90FBFEF077
:1005F0001FFA80FB4FEAC92040EA4A1040EA0B008C
:1006000080B200900098C2E710B5044694F8240028
:10061000012805D1206C58B12046216C884707E09D
:1006200094F8240020B9606C10B12046616C8847B2
:1006300010BD10B50446E06B10B12046E16B884751
:1006400010BD0146422940D00EDCA1F13002122A31
:100650004FD2DFE802F0222426282A2C2E30323412
:100660004E4E4E4E4E4E4E36622930D00CDC452951
:1006700037D004DC43292CD044293AD12DE0462937
:1006800033D0612935D11EE0632924D0642926D0D6
:10069000652928D066292CD129E000202BE00120F3
:1006A00029E0022027E0032025E0042023E00520A4
:1006B00021E006201FE007201DE008201BE00920A4
:1006C00019E00A2017E00A2015E00B2013E00B20A8
:1006D00011E00C200FE00C200DE00D200BE00D20B0
:1006E00009E00E2007E00E2005E00F2003E00F20B8
:1006F00001E0102000BF00BF7047000070B500246B
:100700000EE0002508E0002004EB44010B4A02EB58
:1007100001114855681CC5B2302DF4DB601CC4B211
:10072000082CEEDB08200649087003F0C5FB00200A
:10073000044908700249087070BD0000E4190020E7
:10074000850000208400002010B5044694F82400A1
:10075000012808D1002084F82400204600F0A0FEE3
:10076000204600F0F4FE10BD0020014908707047DB
:100770008A0000200020014908707047880000208E
:1007800000200149087070478900002010B54FF41F
:100790000071184804F033FA40F6044005F07CFA82
:1007A000082301221146144804F035FA08230322D5
:1007B0000021114804F056FA08210F4804F01FFAEE
:1007C0000A2000F05DFD08210B4804F01AFA012010
:1007D00000F056FD4FF40071064804F012FA0A20AA
:1007E00000F04EFD082300221146034804F013FADE
:1007F00010BD0000001802400010024010B540F685
:10080000014005F049FA402301221146184804F03E
:1008100002FA402303220021154804F023FA402164
:10082000134804F0EEF9802301221146104804F029
:10083000F2F98023032200210D4804F013FA8021ED
:100840000B4804F0DEF94FF4007301221146094809
:1008500004F0E1F94FF4007303220021054804F08D
:1008600001FA4FF40071034804F0C9F910BD00000B
:10087000000402400018024010B540F6014005F0A7
:100880000BFA40F6084005F007FA20230122114632
:10089000104804F0C0F92023022200210D4804F082
:1008A000E1F920210B4804F0ACF94FF480730122E8
:1008B0001146094804F0AFF94FF480730222002179
:1008C000054804F0CFF94FF48071034804F097F91C
:1008D00010BD0000000402400020024010B54FF49B
:1008E000A06005F06BF810BD10B54FF0807005F0FA
:1008F0002DFA10BD10B5044640F6014005F0CCF9C4
:10090000012C0CD1802301221146094804F083F9FF
:10091000802303220021064804F0A4F906E02CB944
:10092000802301220021024804F075F910BD000067
:1009300000040240F0B597B0064600274FF6FF745A
:100940004FF4606005F0A8F94FF4406005F0A4F999
:1009500040F6014005F0A0F940F6024005F09CF990
:1009600040F6034005F098F940F6044005F094F98C
:1009700040F6054005F090F940F6064005F08CF988
:1009800040F6074005F088F940F6084005F084F984
:1009900001220C21FE4804F003F901230022022168
:1009A000FB4804F038F9012303220021F84804F041
:1009B00059F902220C21F64804F0F2F80223002231
:1009C0001946F34804F027F9022303220021F048D6
:1009D00004F048F904220C21ED4804F0E1F8042366
:1009E00000220221EA4804F016F904230322002120
:1009F000E74804F037F908220C21E54804F0D0F864
:100A0000082300220221E24804F005F9082303220A
:100A10000021DF4804F026F910220C21DC4804F004
:100A2000BFF8102300220221D94804F0F4F8102363
:100A300003220021D64804F015F920220C21D448C5
:100A400004F0AEF8202300220221D14804F0E3F89C
:100A5000202303220021CE4804F004F94FF48052F1
:100A60000C21CB4804F09CF84FF480530022022163
:100A7000C74804F0D0F84FF4805303220021C44843
:100A800004F0F0F84FF400520C21C14804F088F84B
:100A90004FF4005300220221BD4804F0BCF84FF48B
:100AA000005303220021BA4804F0DCF84FF48042DE
:100AB0000C21B74804F074F84FF48043002202215F
:100AC000B34804F0A8F84FF4804303220021B04853
:100AD00004F0C8F84FF400420C21AD4804F060F86F
:100AE0004FF4004300220221A94804F094F84FF487
:100AF000004303220021A64804F0B4F801220C218F
:100B0000A44804F04DF8012300220221A14804F07A
:100B100082F80123032200219E4804F0A3F8022258
:100B20000C219C4804F03CF8022300221946994805
:100B300004F071F8022303220021964804F092F891
:100B400004220C21934804F02BF8042300220221F4
:100B5000904804F060F80423032200218D4804F03B
:100B600081F84FF480420C218B4804F019F84FF4BF
:100B7000804300220221884804F04DF84FF480435E
:100B800003220021844804F06DF84FF400420C2148
:100B9000814804F005F84FF40043002202217E480A
:100BA00004F039F84FF40043032200217A4804F09E
:100BB00059F801220C21784803F0F2FF01230022AA
:100BC0000221754804F027F801230322002172480E
:100BD00004F048F802220C216F4803F0E1FF0223E1
:100BE000002219466C4804F016F802230322002163
:100BF000694804F037F880220C21684803F0D0FFE0
:100C0000802300220221654804F005F88023032296
:100C10000021624804F026F84FF480720C215F48EE
:100C200003F0BEFF4FF48073002202215B4803F003
:100C3000F2FF4FF4807303220021584804F012F8A9
:100C40004FF400720C21554803F0AAFF4FF40073D3
:100C500000220221514803F0DEFF4FF4007303220B
:100C600000214E4803F0FEFF4FF480620C214B48F8
:100C700003F096FF4FF4806300220221474803F0FF
:100C8000CAFF4FF4806303220021444803F0EAFFC7
:100C90004FF400620C21414803F082FF4FF40063DF
:100CA000002202213D4803F0B6FF4FF40063032207
:100CB00000213A4803F0D6FF4FF480520C21374808
:100CC00003F06EFF4FF4805300220221334803F0FB
:100CD000A2FF4FF4805303220021304803F0C2FFEB
:100CE0004FF400520C212D4803F05AFF4FF40053EB
:100CF00000220221294803F08EFF4FF40053032203
:100D00000021264803F0AEFF4FF480420C21234817
:100D100003F046FF4FF48043002202211F4803F0F6
:100D20007AFF4FF48043032200211C4803F09AFF0E
:100D30004FF400420C21194803F032FF4FF40043F6
:100D400000220221154803F066FF4FF400430322FE
:100D50000021124803F086FF4FF480720C210E48E8
:100D600003F01EFF4FF48073002202210A4803F0B3
:100D700052FF4FF4807303220021074803F072FFF3
:100D80004FF400720C21044803F00AFF08E0000051
:100D90000014024000180240000C02400010024003
:100DA0004FF4007300220221B14803F034FF4FF4E6
:100DB000007303220021AE4803F054FF4FF4806219
:100DC0000C21AB4803F0ECFE4FF4806300220221BB
:100DD000A74803F020FF4FF4806303220021A448BA
:100DE00003F040FF10220C21A24803F0D9FE10238B
:100DF000002202219F4803F00EFF1023032200214E
:100E00009C4803F02FFF20220C219A4803F0C8FED3
:100E1000202300220221974803F0FDFE2023032215
:100E20000021944803F01EFF01220C21924803F098
:100E3000B7FE0123002202218F4803F0ECFE0123BC
:100E4000032200218C4803F00DFF02220C218A4866
:100E500003F0A6FE022300221946874803F0DBFEBA
:100E6000022303220021844803F0FCFE20220C21EF
:100E7000824803F095FE2023002202217F4803F0E0
:100E8000CAFE2023032200217C4803F0EBFE4FF42E
:100E900000420C21774803F083FE4FF40043002208
:100EA0000221744803F0B7FE4FF4004303220021EF
:100EB000704803F0D7FE4FF400620C21704803F035
:100EC0006FFE4FF40063002202216D4803F0A3FE81
:100ED0004FF4006303220021694803F0C3FE40225F
:100EE0000C21664803F05CFE402300220221634887
:100EF00003F091FE402303220021604803F0B2FE7C
:100F000080220C215D4803F04BFE80230022022149
:100F10005A4803F080FE802303220021574803F043
:100F2000A1FE4FF480720C21524803F039FE4FF4B9
:100F30008073002202214F4803F06DFE4FF480734E
:100F4000032200214B4803F08DFE042E01D1102511
:100F500000E008250A2000F093F902200B900620FB
:100F60000A90032009900520089001200790069020
:100F700005900C9615900820149010201390402096
:100F8000129080001190002010904FF440600F905C
:100F900001200E9000200D9005A816900CA803F0DB
:100FA0004FFD0120049003950020029001904FF620
:100FB000FF7400E0641E2021304603F019FD08B1E3
:100FC000002CF7D101A803F02DFD0A2000F058F9FC
:100FD0000220049003950020029001904FF6FF74C8
:100FE00000E0641E2021304603F002FD08B1002C11
:100FF000F7D101A803F016FD032004900395E0202B
:101000000290002001904FF6FF7400E0641E202142
:10101000304603F0EDFC08B1002CF7D101A803F035
:1010200001FD40F221270420049003950020029046
:1010300001974FF6FF7400E0641E2021304603F054
:10104000D7FC08B1002CF7D101A803F0EBFC4FF45A
:10105000177003F081FD4FF6FF7400E0641E20213D
:10106000304603F0C5FC08B1002CF7D117B0F0BD35
:10107000000C02400018024000100240001C024018
:10108000001402407FB504460D464FF4805004F032
:1010900003FE4FF0804004F031FF684605F055F83C
:1010A000ADF800500020ADF804000294ADF8060041
:1010B00069464FF0804004F0E9FF0121880705F000
:1010C00031F8002201211C2004F016FC4FF0804072
:1010D00004F0D6FF7FBD00007FB504460D4641F207
:1010E000030004F0D9FD0F4804F008FF684605F03E
:1010F0002CF8ADF800500020ADF804000294ADF8D3
:1011000006006946074804F0C1FF0121054805F0C3
:1011100009F800220121322004F0EEFB014804F01E
:10112000AFFF7FBD000C004010B504460022114601
:10113000252004F0E1FB4FF4406004F0ADFD4FF4D6
:1011400000720721264803F02BFD4FF4806207212F
:10115000234803F025FD4FF40073012202212048AB
:1011600003F059FD4FF40073022200211C4803F0E4
:1011700079FD4FF4806300220221194803F04BFDF2
:1011800041F2041004F088FD164805F091F921465B
:10119000144805F00FF90021124805F05EFA00210D
:1011A000104805F06AFA00210E4805F046FA0421BD
:1011B0000C4805F04AFA08210A4805F056FA094891
:1011C00005F0E4F940F20531064805F000FA40F276
:1011D0000731044805F0FBF900200349087010BDF1
:1011E00000000240001001409C00002038B5044679
:1011F000A06A28B1A06A009094E80F0000F0ACFA51
:10120000002084F82400204600F0E6F8204600F094
:1012100081F938BD10B50446002084F8240020462A
:1012200000F03EF9204600F092F910BD30B50346BB
:10123000002016E0B3F900509C68645D0C541C88D3
:10124000641C24B21C80B3F90040B3F90450AC42D2
:1012500001DB00241C80441C20B2DC88641E24B204
:10126000DC80B3F90640002C01DD9042E2DB30BDAA
:10127000704710B5044604EB840000F013F810BD6D
:1012800001B50749009808604FF0E02040694FF031
:10129000E021886100BF024800680028FBD108BD3A
:1012A000A000002001B5009806E0002101E04A1CE2
:1012B00091B22629FBDB401E0028F6D108BD0000B4
:1012C00070B5052400250AE0134800EB851090F85E
:1012D0002400012801D12C4603E0681CC5B2042D6E
:1012E000F2DB00BF052C16D00C48065D002E12DD87
:1012F00000210B4800EB8412701E11540748005D5A
:10130000401E06490855064A02EB8411024A02EBC8
:10131000841002F0E9FB70BD24170020800000203B
:101320002418002070B504460D461646A07820B952
:10133000324629462046FEF7FDFF70BD00B585B058
:101340000548009049F2FE3002900022114668469E
:1013500000F018F805B000BD4A7E000800B585B061
:101360000648009044F2DD3002900548426801686A
:10137000684600F007F805B000BD00006FA802083D
:10138000C419002070B5A0B004460E46154620686A
:1013900008B1A06820B90C4802F02CFE20B070BD46
:1013A000E6602561002060604FF48053074A0849D9
:1013B00001A8009403F009FE20B90022054901A804
:1013C00003F0B2FD00BFE9E7B47F0408DC000020B1
:1013D000372D0008832D00082DE9F84304462568C1
:1013E0006668A16820684718E168606800EB01083A
:1013F000A06A28B1A06A009094E80F0000F0E8F815
:1014000094F8240018BB94F83500052808D1E06B47
:1014100043463A4631460090284600F059F93DE0EF
:1014200094F83500042839D0206B40B9E06B43466E
:101430003A4631460090284600F04AF92EE094F8EA
:10144000353031462846226B00F000F926E094F84A
:101450002400012822D194F83400052808D1A06B7B
:1014600043463A4631460090284600F031F915E0EF
:1014700094F83400042811D0E06A40B9A06B4346C8
:101480003A4631460090284600F022F906E094F8EA
:10149000343031462846E26A00F0D8F8BDE8F883D7
:1014A0002DE9F843044625686668A1682068471856
:1014B000E168606800EB010894F82400012812D16B
:1014C000A06A40B9606B43463A46314600902846D0
:1014D00000F0FEF81CE094F8303031462846A26A4D
:1014E00000F0B4F814E094F8240088B9E06A40B938
:1014F000A06B43463A4631460090284600F0E8F893
:1015000006E094F8313031462846E26A00F09EF851
:10151000BDE8F8832DE9FF4104462169206845189C
:10152000616960684618207E00F0AAF9A168B1FBE5
:10153000F0F701210022E06901AB83C30092237E12
:1015400031462846226A00F097F8BDE8FF812DE970
:10155000FF410446216920684518616960684618A2
:10156000207E00F08DF9A168B1FBF0F70121002287
:10157000E06901AB83C30092237E31462846226A8C
:1015800000F07AF8BDE8FF8170B50346002016E050
:101590000C5CB3F902609D68AC555C88641C24B295
:1015A0005C80B3F90240B3F90450AC4201DB002483
:1015B0005C80441C20B2DC88641C24B2DC80B3F95B
:1015C0000640B3F90450AC4201DA9042E0DB70BD52
:1015D0002DE9F84F04460D4616461F46DDF82880D3
:1015E000A019A0F10109E819A0F1010A53464A46E1
:1015F00029462046CDF8008001F02CFCBDE8F88F8C
:101600002DE9FF4F83B0804617461C46DDE911AB3C
:10161000DDF840900CB9002506E0012C01D1012530
:1016200002E0022C00D10225BBF1000F01D10026FF
:1016300000E0012633462A46CDE900A9029740463C
:10164000049901F093FE07B0BDE8F08F2DE9F04159
:1016500005460E4617461C462CB9324629463846E2
:10166000FFF760FE06E0012C04D1324629463846D9
:10167000FFF788FEBDE8F0812DE9FF4F85B00546F4
:1016800016461F46DDE914ABDDE91289384600F045
:10169000F7F80490344612E020787E280EDC20789B
:1016A00020280BDB8DE8000722783B462846069968
:1016B000FFF7A6FF641C0498054400E004E0BBF1BA
:1016C0000000ABF1010BE7D100BF09B0BDE8F08F1E
:1016D0002DE9F84304460D4616461F46DDF82080E6
:1016E0007B1B321B29462046CDF8008001F03AFCD6
:1016F000BDE8F8832DE9F04106460F461446052C57
:1017000006D34FF0FF30306038600020BDE8F08134
:1017100000F00CFA0546681C005D01280ED104EBB0
:101720004401A81D30F81100306004EB4401A81DED
:1017300000EB4100408838600120E7E74FF0FF30C0
:10174000306038600020E1E770B504460D46294658
:10175000204601F0E3FD70BD2DE9FF5F05460E4612
:101760009146DDF838A0BAF1000F01D1BDE8FF9F26
:10177000D3464FF0000834460FE02F4608E02146DC
:101780003846FFF7E1FF2BF8180008F101087F1C2D
:1017900005EB0900B842F2D8641C03983044A0421B
:1017A000EBD800BFE2E7000010B588B026A30FCB4E
:1017B00004AC0FC402F044F80446142C3FD00F2CA4
:1017C00004DC04A9085DFEF779FD38E0122C02D193
:1017D000FFF776FD33E0112C18D11F48006870B375
:1017E0001D480068806850B303A9002000F056F837
:1017F00028BB02A9012000F051F800BB0298C1B239
:101800001548006882680398904718E0102C16D19C
:101810001148006898B110480068C06878B101A903
:10182000022000F03BF850B96946032000F036F87A
:1018300028B909480068C268DDE90010904702F045
:101840001DF808B010BD0000303132333435363762
:1018500038394142434445460C0000200148007895
:10186000704700008A00002001480078704700009F
:10187000880000200148007870470000890000209F
:10188000014609B906207047012901D10820FAE76D
:10189000022901D10C20F6E70020F4E72DE9F04100
:1018A000064688460027042E02DB0120BDE8F081B1
:1018B000002700240EE00C4901EB8611C85DFEF7FD
:1018C000C0FE0546102D02D205EB041400E002E034
:1018D000781CC7B2EFE700BF0FB90120E6E7C8F8F0
:1018E00000400020E2E7000024180020014600220A
:1018F0008B5C501C085C43EA00206B4B1880022272
:101900008B5C501C085C43EA0023901C085C43EA93
:101910000043D01C085C43EA0060634BC3F802003C
:1019200006228B5C501C085C43EA00205E4BD8808A
:1019300008228B5C501C085C43EA00205A4B18813B
:101940000A228B5C501C085C43EA0023901C085C54
:1019500043EA0043D01C085C43EA0060524BC3F8E2
:101960000A000E228B5C501C085C43EA0023901C8A
:10197000085C43EA0043D01C085C43EA00604B4B20
:10198000186012228B5C501C085C43EA0023901CF8
:10199000085C43EA0043D01C085C43EA0060434B08
:1019A000586016228B5C501C085C43EA0023901C94
:1019B000085C43EA0043D01C085C43EA00603B4BF0
:1019C00098601A228B5C501C085C43EA0020374B5D
:1019D00098811C228B5C501C085C43EA0020334B2E
:1019E000D8811E228B5C501C085C43EA0023901CAB
:1019F000085C43EA0043D01C085C43EA00602B4BC0
:101A0000186122228B5C501C085C43EA0023901C66
:101A1000085C43EA0043D01C085C43EA0060234BA7
:101A2000586126228B5C501C085C43EA0023901C02
:101A3000085C43EA0043D01C085C43EA00601B4B8F
:101A400098612A228B5C501C085C43EA0023901C9E
:101A5000085C43EA0043D01C085C43EA0060134B77
:101A6000D8612E228B5C501C085C43EA0023901C3A
:101A7000085C43EA0043D01C085C43EA00600B4B5F
:101A8000186232228B5C501C085C43EA0023901CD5
:101A9000085C43EA0043D01C085C43EA0060034B47
:101AA0005862002070470000DC100020EA1000207F
:101AB00030B502460B46154DED89202D03D1134D4F
:101AC0006D68A9001BE0114DED89182D0AD10F4D4D
:101AD0006D6805EB450100E0491C01F00305002D90
:101AE000FAD10CE0094DED89102D08D1074D6D6834
:101AF000690000E0491C01F00305002DFAD1044DF6
:101B0000D5F80A5001FB0354101930BDEA1000202B
:101B1000DC10002010B58021034803F074F808B9E8
:101B2000002010BD0120FCE700040240004870477F
:101B30002C11002000BFFEE710B5044601202169EA
:101B400088470020A16888470120616988470120F3
:101B5000616888470120616988470120A16888473A
:101B600001206169884700202169884710BD70B550
:101B700004460125002021698847012061698847C2
:101B8000012061688847012061698847E0688047D3
:101B9000054600206168884701206169884728461A
:101BA00070BD2DE9F04106460F4614461D46DDF88E
:101BB0001880304600F0E0F8307820F0010130461F
:101BC00000F0A9F8012805D13046FFF7B5FF012044
:101BD000BDE8F0813912304600F09DF8012804D1AB
:101BE0003046FFF7A9FF0120F2E7F9B2304600F0D6
:101BF00092F8012804D13046FFF79EFF0120E7E765
:101C00003046FFF799FF304600F0B6F8307840F0E4
:101C10000101304600F07FF8012804D13046FFF77B
:101C20008BFF0120D4E70EE0012D05D1414630465F
:101C300000F010F8207004E00021304600F00AF8AF
:101C40002070641C6D1E002DEED13046FFF774FF2E
:101C50000020BDE72DE9F04104460D46002600278F
:101C600000202169884700BF12E001206168884791
:101C7000012061698847E068804740EA4700C7B2B1
:101C8000002061688847012061698847701CC6B2DE
:101C9000082EEADB1DB9204600F007F802E02046D6
:101CA00000F01EF83846BDE8F08110B5044601206A
:101CB000216988470020A168884701206169884719
:101CC00001206168884701206169884700206168B8
:101CD000884701206169884700202169884710BD35
:101CE00010B504460120216988470120A168884772
:101CF0000120616988470120616888470120616986
:101D00008847002061688847012061698847002072
:101D10002169884710BD2DE9F04104460D46002693
:101D2000012701202169884700BF1CE005F08000E1
:101D300018B10120A168884702E00020A168884707
:101D40006806050E0120616988470120616888479F
:101D50000120616988470020616888470120616926
:101D60008847701CC6B2082EE0DB2046FFF7FFFE56
:101D700007463846BDE8F08110B50446002061688A
:101D8000884701206169884701202169884701202F
:101D9000A1688847012061698847012061688847F8
:101DA0000120616988470020A16888470120616996
:101DB00088470020616888470120616988470020C2
:101DC0002169884710BD2DE9F04106460C461546AD
:101DD0001F463046FFF7D0FF307820F00101304633
:101DE000FFF799FF012805D13046FFF7A5FE012036
:101DF000BDE8F08121123046FFF78DFF012804D1A4
:101E00003046FFF799FE0120F2E7E1B23046FFF7D6
:101E100082FF012804D13046FFF78EFE0120E7E75C
:101E20000BE015F8011B3046FFF775FF012804D1C0
:101E30003046FFF781FE0120DAE7381EA7F10107DF
:101E4000EFD13046FFF778FE0020D1E77047000061
:101E5000002101604160822181604121C160232114
:101E6000016114214161022101764FF6FF71C161C8
:101E70000BA10162002180F8241080F825108162F6
:101E8000C162016380F8341080F835104FF4FC61B2
:101E900081631F21C1630021016441647047000018
:101EA000427574746F6E00000EB5FEF7A7FCFEF766
:101EB0006DFC28201249087012484860124888605A
:101EC0001248C86012480861124848616420FFF750
:101ED000D7F90120042301AA48F2401100900848D4
:101EE000FFF75FFE18B10CA002F084F80EBD0020D1
:101EF0008DF8080001A910A002F07CF800BFF5E7FA
:101F000014110020093B0008293B0008151B00089C
:101F1000F508000873120008496E6974475431319E
:101F20003531513A204661696C20746F20676574C1
:101F30002069640D0A000000546F756368204944ED
:101F40003A2025730D0A000010B50446002000F069
:101F5000CFFF47F6FF7000F03BFFFFF7EFF900F00F
:101F600013F800F031F900F041FAFEF7C7FB03481F
:101F70002061034860610348046010BDFD0600084D
:101F8000F53B00080C00002010B5012079490870CD
:101F900048700020887078484860012077490870B0
:101FA00048700020887076484860012075490870A4
:101FB0004870002088707448486001207349087098
:101FC0004870002088707248486014207149087079
:101FD00000244FE004EBC4016F4A02EBC100FFF79D
:101FE00037FF6E4830F8140004EBC4016A4A42F827
:101FF00031006B4830F8140004EBC40102EBC1015E
:102000004860412004EBC40102EBC101886004EB8D
:10201000C40102EBC101C860192004EBC40102EB4A
:10202000C1010861142004EBC40102EBC101486145
:102030005C4850F8240004EBC40102EBC1010862C3
:102040004C4804EBC40102EBC101C8624B4804EBED
:10205000C40102EBC1010863534804EBC40102EB65
:10206000C101086404EBC40102EBC100FFF7BEF834
:10207000601CC4B20F2CADDD4C48FFF7E9FE4748A9
:10208000008C4549C1F880044548018C4248C0F89D
:1020900084148221C0F888144121C0F88C142321B3
:1020A000C0F890141421C0F8941441A1C0F8A014F1
:1020B0003449C0F8AC143549C0F8B0143A49C0F8F6
:1020C000C0143A48FFF792F838484830FFF7C0FE8E
:1020D0003248408C3049C1F8C8043148418C2E4800
:1020E000C0F8CC148221C0F8D0144121C0F8D41417
:1020F0002321C0F8D8141421C0F8DC142EA1C0F894
:10210000E8142049C0F8F4142049C0F8F81426490E
:10211000C0F8081500F59960FFF768F8234890307B
:10212000FFF796FE1D48808C1B49C1F810051C481E
:10213000818C1948C0F814158221C0F81815412166
:10214000C0F81C152321C0F820151421C0F824154F
:102150001BA1C0F830150B49C0F83C150B49C0F85D
:1021600040151149C0F8501500F5A260FFF73EF880
:1021700010BD0000600000209A33030868000020B2
:102180000CF1020870000020BAFA03087800002061
:10219000287603081C000020CC1100204C7F040886
:1021A000727F040820000020510500084C16002012
:1021B0005245414400000000575249544500000078
:1021C0004241434B0000000070B500240FE00020A6
:1021D0006F490855002506E000206E4901EB841187
:1021E0004855681CC5B2402DF6DB601CC4B2042CF7
:1021F000EDDB694800F030FC6848694908604FF43D
:102200004A50886067486849086042F6E060886024
:1022100066480088604908606548008848606548ED
:10222000008888603220C8604B2008610A2048611D
:10223000584808625A4888625B48C8625E48C8636A
:102240000846FEF7E7FF5448403000F005FC5B48C5
:102250005B49086043F2B73088605A485A490860C1
:1022600042F66B608860514840884B49086450488A
:102270004188494841644F48418847488164322138
:10228000C1644B2101650A21416542484030424901
:1022900008664B49404881664B49C1664649C1675B
:1022A0004030FEF7B7FF3C48803000F0D5FB474890
:1022B0004749086043F227708860464846490860ED
:1022C00043F284208860394880883349C1F880000F
:1022D000374881883048C0F88410364881882E48B5
:1022E000C0F888103221C0F88C105521C0F8901029
:1022F0000A21C0F89410274880302749C1F8A0006F
:1023000033492548C0F8A8103349C0F8AC102A4911
:10231000C0F8BC108030FEF77DFF1F48C03000F0D1
:102320009BFB2E482E49086043F2346088602D489C
:102330002D49086043F2C62088601C48C0881649B1
:10234000C1F8C0001A48C1881348C0F8C410194821
:10235000C1881148C0F8C8103221C0F8CC105521EE
:10236000C0F8D0100A21C0F8D4100A48C0300A4979
:10237000C1F8E0001A490848C0F8E8101A49C0F846
:10238000EC100D49C0F8FC10C030FEF743FF70BDE3
:102390008000002024180020241700204812010883
:1023A00024190020C844010838190020987F040827
:1023B000A07F0408A87F040835350008A873010829
:1023C0004C1900205FA7010860190020CAD5010838
:1023D00074190020F10C020888190020753F0208CA
:1023E0009C190020A9750208B019002070B51920A9
:1023F00013490860372048604FF4D77088604FF465
:102400008770C8604FF6FF700861022008751820B9
:102410008861FEF7A3FF0A4800880949896800EB34
:10242000510084B2064880880549C96800EB510014
:1024300085B22946204600F071FF0149C86170BD90
:10244000C419002010B501F01BFC00F03CFB00F0AB
:1024500024FB4FF4E13000F0EDFB00F0B7FB00F09F
:102460008DFB00F077FB10BD7047000010B58EB0FB
:102470004FF44870FE4908604FF4F0704860002047
:1024800008720877FB4808624FF050404862FA48EB
:1024900088620220C86200240AE0F54801680C3016
:1024A00040F824100C384168143040F82410641CA3
:1024B000022CF2D341F21A1003F0EEFB4FF440600D
:1024C00003F0EAFB40F6014003F0E6FB40F6024071
:1024D00003F0E2FB40F6034003F0DEFB40F604406D
:1024E00003F0DAFB40F6054003F0D6FB40F6064069
:1024F00003F0D2FB40F6074003F0CEFB40F6084065
:1025000003F0CAFB04220E21DC4802F049FB04233D
:1025100000220221D94802F07EFB0423032200217D
:10252000D64802F09FFB08220E21D44802F038FB67
:10253000082300220221D14802F06DFB0823032268
:102540000021CE4802F08EFB4FF480720E21CB4862
:1025500002F026FB4FF4807300220221C74802F0EC
:102560005AFB4FF4807303220021C44802F07AFB27
:1025700001220921C24802F013FB0123002202219B
:10258000BF4802F048FB012303220021BC4802F0AF
:1025900069FB4FF480620E21B84802F001FB4FF452
:1025A000806300220221B54802F035FB4FF48063BE
:1025B00003220021B14802F055FB4FF400620E21C6
:1025C000AE4802F0EDFA4FF4006300220221AB485E
:1025D00002F021FB4FF4006303220021A74802F020
:1025E00041FB02220921A64802F0DAFA0223002266
:1025F0001946A34802F00FFB022303220021A04842
:1026000002F030FB40220E219E4802F0C9FA40231E
:10261000002202219B4802F0FEFA402303220021FF
:10262000984802F01FFB20220E21974802F0B8FACA
:10263000202300220221944802F0EDFA20230322F5
:102640000021914802F00EFB40220E218E4802F03C
:10265000A7FA4023002202218B4802F0DCFA402333
:1026600003220021884802F0FDFA4FF400520E21A7
:10267000824802F095FA4FF40053002202217F486D
:1026800002F0C9FA4FF40053032200217B4802F004
:10269000E9FA4FF4806209217A4802F081FA4FF496
:1026A000806300220221774802F0B5FA4FF480637C
:1026B00003220021734802F0D5FA4FF400420E21A4
:1026C0006E4802F06DFA4FF40043002202216B487D
:1026D00002F0A1FA4FF4004303220021674802F000
:1026E000C1FA01220E21694802F05AFA01230022A0
:1026F0000221664802F08FFA012303220021634879
:1027000002F0B0FA02220E21604802F049FA0223D8
:10271000002219465D4802F07EFA022303220021BE
:102720005A4802F09FFA04220E21584802F038FA63
:10273000042300220221554802F06DFA04230322EB
:102740000021524802F08EFA10220E214E4802F06B
:1027500027FA1023002202214B4802F05CFA1023D2
:1027600003220021484802F07DFA4FF480520E21E6
:10277000444802F015FA4FF48053002202214148E8
:1027800002F049FA4FF48053032200213D4802F041
:1027900069FA40220E213E4802F002FA402300224C
:1027A00002213B4802F037FA402303220021384837
:1027B00002F058FA4FF400620E21324802F0F0F9AC
:1027C0004FF40063002202212E4802F024FA4FF455
:1027D0000063032200212B4802F044FA10220E214C
:1027E0002A4802F0DDF9102300220221274802F0D6
:1027F00012FA102303220021244802F033FA08229F
:102800000E21244802F0CCF908230022022121489D
:1028100002F001FA0823032200211E4802F022FAE6
:102820004FF480720E21164802F0BAF94FF480730B
:1028300000220221124802F0EEF94FF480730322C5
:1028400000210F4802F00EFA4FF400720E210C48DE
:1028500002F0A6F94FF4007300220221084802F0AA
:10286000DAF94FF4007303220021054814E0000058
:10287000AC000020000000D0C0BB0BD0001C024008
:1028800000040240001802400010024000200240F4
:10289000000C02400000024002F0E4F94FF48062B4
:1028A0000E21674802F07CF94FF480630022022178
:1028B000634802F0B0F94FF48063032200216048BE
:1028C00002F0D0F94FF400720E215E4802F068F970
:1028D0004FF40073002202215A4802F09CF94FF491
:1028E000007303220021574802F0BCF94FF48062C4
:1028F0000E21544802F054F94FF480630022022163
:10290000504802F088F94FF48063032200214D48BB
:1029100002F0A8F980220E214B4802F041F98023F1
:1029200000220221484802F076F980230322002188
:10293000454802F097F94FF40053012211464348ED
:1029400002F069F94FF40053022200213F4802F0DF
:1029500089F94FF400513D4802F053F903F007FCA8
:1029600001A803F015FD04221146F02003F0CAF976
:1029700008B900BFFEE7002003F0FAF91C2003F0BD
:10298000CBF81C2003F0DAF808B900BFFEE70020FE
:102990000A900B900C900D902F20ADF806000220AD
:1029A000ADF804008720ADF80A002220ADF8080039
:1029B00040F2A730049040F20220039040F2CF3062
:1029C000069040F20F200590002007900890099093
:1029D00001A803F0F3FB4FF4F0704FF448730022AA
:1029E00011460090104600F0B1FB4FF4F0704FF428
:1029F0004873002211460090012000F0A7FB002040
:102A000000F07CFB012000F065FBFF21002000F0BE
:102A100041FDFF21012000F03DFD012003F0B2FB4C
:102A2000012003F0A3FC03F0BFFB002000F07AFBC1
:102A3000002000F05DFA002000F0CAF90EB010BDD1
:102A4000001402400020024000180240000802402A
:102A500010B5FDF711FF10BD002101604160642138
:102A600081603221C1604B2101610A214161022153
:102A700001764FF6FF71C161002101628162C1627E
:102A8000012180F8301080F831104FF4FC6141636F
:102A90001F2181630021C163704710B5FDF71EFF40
:102AA00010BD30B50B460024048044808280C48071
:102AB0008360002104E0002485686C544C1C21B222
:102AC0009142F8DB30BD10B5FDF70EFF10BD0000E0
:102AD00010B51448144908600846006800F2FF70F9
:102AE0004860124888601248C8600846FFF72CFA10
:102AF000002403E000200B490855641CB4F5006F66
:102B0000F8D3094843680BA10268104801F082FA23
:102B1000054841690D4888470C490DA001F06AFA43
:102B200010BD0000000000D174110020653F0008B6
:102B30000D360008416464723A20307825303858E8
:102B4000202D203078253038580D0A008C110020B7
:102B50002573000010B50520FDF7ECFE10BD10B583
:102B6000FFF776FFFFF782FCFFF77EFCFFF76EF9B9
:102B700000F038F8FFF7ACFF10BD000010B51248A8
:102B800000684FF47A71B0FBF1F4601EB0F1807F01
:102B900001D301200FE0601E4FF0E02148610F21BA
:102BA0004FF0FF3001F04AFA00204FF0E021886139
:102BB00007200861002008B100BFFEE70021481E81
:102BC00001F03CFA10BD0000A400002010B5EF2178
:102BD00040F2E730FEF756FAEF2140F2E730FEF719
:102BE0007BFA10BD10B5FFF75FF90020104908709F
:102BF000002419E000210E48401C01554FF6FF71DA
:102C000004EB4402401D20F8121004EB440200EBD8
:102C100042004180002104EB44020548801D00EB86
:102C200042008180601CC4B2052CE3DB10BD0000B3
:102C30002C11002010B5044600F004F82046FEF7E1
:102C400073FA10BD10B5002406E000200A490855AB
:102C50000A490855601C04B2B4F5007FF5DB4FF457
:102C6000007205490648FFF71CFF4FF40072034944
:102C70000448FFF716FF10BD7C1B00207C1D0020C0
:102C8000641B0020701B00202DE9FC4704462668C9
:102C90006768A168206800EB0108E168606800EBE4
:102CA0000109002518E02A46694601A8FEF722FD21
:102CB00001280FD10198B0420BD30198404508D8A4
:102CC0000098B84205D30098484502D80120BDE8D5
:102CD000FC8700E000BF6D1C052DE4D30020F6E763
:102CE0002DE9FC4704460022694601A8FEF702FDD3
:102CF000054615B90020BDE8FC87012D19D1D4F88F
:102D000000906668A16820684718E168606800EB79
:102D10000108019848450AD30198B84207D800989D
:102D2000B04204D30098404501D80120E3E70020D9
:102D3000E1E70020DFE7F0B505460C46A96FA4B136
:102D4000002000230EE0D1E90167BE4208D2D1E99C
:102D50000067F65DE6544E68761C4E60401C00E04D
:102D600002E05B1C9342EED30AE04E6816448F6883
:102D7000BE4204D24E6816444E60104600E0002069
:102D8000F0BD2DE9FC5F07460E461446BD6F208856
:102D9000A98908441FFA80F9A088298A08441FFAE3
:102DA00080FA6088A98908441FFA80FBE088298A94
:102DB000084480B20190B046CDF800805A46514692
:102DC0004846019B00F06AF80020BDE8FC9F000027
:102DD00010B58CB00446A0B26B4601AA02A900F05F
:102DE00004FC40F6174002F057FF01F0BCFF4FF41F
:102DF000403002F081F803A802F05EF8022006904D
:102E00001348006A039000200490FF2005909DF86D
:102E1000080007909DF8040008909DF800000990B4
:102E20004FF448700A904FF4F0700B9003A801F033
:102E3000A5FF02F06FF800BF022002F051F8002851
:102E4000FAD0022002F044F801F08DFF0CB010BD62
:102E5000AC0000202DE9F04F05460C4616461F46F3
:102E6000DDF824B0A846A1464FF0000A4C460FE01A
:102E7000454608E03BF81A202146284600F04CF869
:102E80000AF1010A6D1C08EB0600A842F2D8641C86
:102E900009EB0700A042EBD8BDE8F08F2DE9F04F19
:102EA00004460D4616461F46B44202D9A246344691
:102EB0005646BD4202D9AA463D4657464FF0000B42
:102EC000A84610E0A1460AE0099830F81B204146C8
:102ED000484600F021F80BF1010B09F10109B14559
:102EE000F2D908F10108B845ECD9BDE8F08F00002F
:102EF000084A127A82420BD0064A1072D16852698F
:102F0000044BDA601A46516111699369136191614A
:102F100070470000AC000020F0B5114D2E7F0C353D
:102F200055F826400C3D2E7F143555F82630A0422A
:102F300001D2994200D3F0BD094D2D7A35B9084E22
:102F4000366A04FB010726F8172007E05D1E6D1A9C
:102F500003FB0055024F3F6A27F8152000BFEAE740
:102F6000AC0000202DE9FF4F95B0834614461E4665
:102F70005748007A68B95648017F0C3050F82180D4
:102F80000C38017F143050F821000A905D46169FDE
:102F90001CE04F48007A012818D14D48017F0C30C1
:102FA00050F821800C38017F143050F821000A902D
:102FB000CDF82080DDF8288008980A9008943446DF
:102FC000089E1698A8EB0000051B5F462819B0F56F
:102FD000487F01D9C5F54874B819B0F5F07F01D91B
:102FE000C7F5F0763A48007A40B9A94609F10100E0
:102FF000049007EB060ACDF80CA00EE03448007AE6
:1030000001280AD10BEB0609CDF810901698204440
:10301000A0F1010AAAF1010003905146484600F0D0
:103020007DF90290DDE9031000F078F9019028485D
:10303000006A2749C96A08FB075201FB02000B908E
:10304000A8EB04000990229988B205AB06AA07A94B
:1030500000F0CBFA40F6174002F01EFE01F083FEAE
:103060004FF4403001F048FF0CA801F025FF02208A
:103070000F900B980C9009980D90FF200E909DF8E2
:103080001C0010909DF8180011909DF814001290EB
:10309000139414960CA801F071FE01F03BFF00BFE1
:1030A000022001F01DFF0028FAD0022001F010FFDD
:1030B00001F059FE51464846029AFFF72DFF019A4A
:1030C000DDE90310FFF728FF19B0BDE8F08F00001D
:1030D000AC00002010B504461CB9074803F0CCF83A
:1030E00005E0012C03D10448803003F0C5F801202D
:1030F00003F03CF910BD00000068014010B5044623
:103100001CB9074803F0BFF805E0012C03D10448BF
:10311000803003F0B8F8012003F028F910BD00005A
:103120000068014028B90649064A1162002111775A
:1031300004E00549034A116201211177704700003C
:10314000000000D0AC000020C0BB0BD02DE9F04F38
:103150008BB080460E4617461C46149D01A803F00E
:10316000E5F86A48007A012816D1B2467819A0F12C
:10317000010B5646374640F21F30A0EB0B06B6F562
:10318000487F02D30BB0BDE8F08FB7F5F07F00D3D6
:10319000F8E7A1462C464D463019B0F5487F01D9D5
:1031A000C6F548747819B0F5F07F01D9C7F5F07508
:1031B000B8F1000F4FD106F1880080B2ADF80600DB
:1031C0003019873080B2ADF8040007F1230080B2D7
:1031D000ADF80A007819223080B2ADF8080002205C
:1031E0000390FF208DF810008DF814008DF8130067
:1031F0008DF812008DF811004FF4C0600690072082
:10320000079043480890032000EB440080B2ADF8DB
:1032100026004FF6FF7000EA4400ADF82400A8B283
:10322000ADF8280001A93B4803F034F8394802F012
:1032300097FF384803F092F83448007A18B93348B9
:10324000C46045615DE03148007A012859D12F48BA
:10325000C560446155E0B8F1010F52D106F1880014
:1032600080B2ADF806003019873080B2ADF80400A6
:1032700007F1230080B2ADF80A007819223080B23D
:10328000ADF8080002200390FF208DF810008DF8A3
:1032900014008DF813008DF8120000208DF8110035
:1032A0004FF4C0600690072007901B480890032049
:1032B00000EB440080B2ADF826004FF6FF7000EA44
:1032C0004400ADF82400A8B2ADF8280001A91148C7
:1032D000803002F0DFFF0F48803002F041FF0D48E0
:1032E000803003F03BF80948007A18B907480461B8
:1032F000856106E00548007A012802D1034805618E
:103300008461012003F032F800BF3BE7AC000020ED
:10331000000000D000680140C0BB0BD030B50246B1
:103320001148057F0C3050F825400C38057F1430CB
:1033300050F82530A24201D2994201D3002030BD7D
:103340000948007A30B90848006A04FB012530F8C2
:103350001500F4E7581E401A03FB0200024D2D6AC7
:1033600035F81000EBE70000AC0000202DE9FF4F1E
:1033700084B082460C461546DDF84CB025B1012DCF
:1033800004D0022D06D103E00C2706E0102704E04C
:10339000182702E008B0BDE8F08F00BF25B1012D6D
:1033A00005D0022D09D105E04FF00C0806E04FF0E2
:1033B000100803E04FF0240800E0EBE700BF25B160
:1033C000012D0AD0022D16D10DE0ABF1200000EB4B
:1033D00040002C4901EB80090EE0ABF120002A49A6
:1033E00001EB001908E0ABF1200000EBC000274919
:1033F00001EB800900E0CDE700BFCDF8009001941B
:1034000000263BE00098805D03900020029030E0B1
:10341000039800F0800028B121465046119AFFF72A
:103420007BFD06E0079820B921465046129AFFF727
:1034300073FD03984006000E0390641C1448017F3E
:10344000143050F82100A04200D8A3E70198201AB8
:10345000B8420BD3019C0AF1010A0D48017F0C30E0
:1034600050F82100504500D894E705E00298401C30
:10347000029002980828CBD300BF761C4645C1D3E2
:1034800000BF87E78A660008FE6A0008EE70000841
:10349000AC00002070B505460C4645B90B480068E5
:1034A00020F0FF00094908600846046009E0074869
:1034B0008030006820F0FF00044980310860084631
:1034C0000460012002F052FF70BD000098680140C6
:1034D00010B5044613480068401C124908600846AD
:1034E0000068A0421DD3002008600F48006860B942
:1034F00001200D49086020210C4801F082FB4FF4A7
:1035000080710B4801F07BFB0BE00020064908604E
:103510002021064801F073FB4FF48071044801F04C
:1035200070FB10BD040000200800002000040240D1
:103530000020024070B5054600240BE0074800EB70
:103540008410A84204D0054901EB8410FDF7FCF873
:10355000601CC4B2042CF1DB70BD000024170020F5
:1035600000BFFEE77047704710B5FEF777F908B166
:10357000FDF7FAF810BD000010B5FEF775F978B147
:1035800008480078401C074908700846007814284D
:1035900004DB00F09BF9002002490870FDF7EAF80F
:1035A00010BD00000000002010B5FEF763F988B1DF
:1035B000FA20FFF78DFF08480078401C0649087084
:1035C00008460078142803DB0020087000F076F825
:1035D000FDF7D6F810BD0000010000200146C888A4
:1035E00008B9012070470020FCE710B500F47844CA
:1035F000E40A0C7000F4FC646409147000F01F0409
:103600001C7010BD01460878704700002DE9F0419C
:1036100004460E463346224612A1194800F0FAFC31
:103620001848416916488847154917A000F0E2FC80
:10363000002512E06019FFF7E5FF074662193B46D7
:1036400012A10F4800F0E6FC0E4841690C4888477B
:103650000B490DA000F0CEFC6D1CB542EAD3BDE8CD
:10366000F081000052656164203A203078253038BE
:1036700058202D203078253032580D0A00000000E7
:103680008C11002074110020257300003078253043
:1036900038583A203078253032580D0A00000000A2
:1036A00070B504460025012221460348FDF7BEFD02
:1036B000C5B2284670BD0000641B002010B5FEF79F
:1036C00073F810BD704770B5044600252046FFF71B
:1036D000DBFA012807D194F8240060B9012084F8AE
:1036E0002400012507E094F82400012803D10020DC
:1036F00084F82400012594F8250028B9012D0AD169
:103700002046FCF781FF06E094F82500012802D14D
:103710002046FCF779FF012D05D12046FDF75CFE20
:103720002046FDF7F7FE70BD2DE9FF41054601205B
:10373000034603AA48F24E1100903E48FEF731FAC4
:103740009DF80C0000F00F0003909DF80C0028700D
:1037500000200390012303AA48F24E113548FEF7DA
:1037600032FB002461E02978601C81424CDB01209F
:103770000090314830F81410062301AA2D48FEF7B6
:1037800010FA9DF804009DF8051040EA012104EBB1
:103790004402A81D20F812109DF806009DF807109D
:1037A00040EA012104EB4402A81D00EB42004180E5
:1037B0009DF808009DF8091040EA012104EB44023D
:1037C000A81D00EB420081801C48007A012817D117
:1037D00004EB4401A81D30F8116004EB440100EB38
:1037E0004100478804EB4401A81D20F81170C6F57C
:1037F000487081B204EB4402A81D00EB42004180F6
:103800000121681C01550EE00021681C01554FF68E
:10381000FF7104EB4402A81D20F8121004EB4402CF
:1038200000EB42004180601CC4B2052C9BDBBDE86C
:10383000FF8100001411002010000020AC000020C7
:1038400010B5002412E014200A49087004EBC401EA
:10385000094A02EBC100FFF736FF0648007814283A
:1038600002D00448007810BD601CC4B2132CEADBFF
:103870001420F8E71C000020CC11002010B5002413
:1038800006E0054901EB841000F008F8601CC4B2A2
:10389000042CF6DB10BD00002417002010B50446F0
:1038A0002046FFF71DFA01280ED194F8240058B9DC
:1038B0002046FCF7BEFE012084F824002046FDF7D8
:1038C000EFFD2046FDF743FE10BD00002DE9FC474B
:1038D000002404E000200DF80400601CC4B2052C94
:1038E000F8DB7F48FFF720FF7D4800787D490870AE
:1038F000002470E07B48401C005D012869D14FF036
:10390000000A002558E07648401C405D012851D14E
:1039100004EB44017348801D30F8116004EB44014E
:1039200000EB4100478805EB45016D48801D30F8EC
:10393000118005EB450100EB4100B0F802904146D3
:103940003046FCF7B2FC4B2834DC49463846FCF7DD
:10395000ACFC4B282EDC4FF0010A05EB450160481A
:10396000801D30F8111004EB44025E48801D20F8E1
:10397000121005EB45015A48801D00EB41004188BB
:1039800004EB44025748801D00EB4200418005EBE8
:1039900045015348801D00EB4100818804EB44023F
:1039A0005048801D00EB4200818001214D48401CA1
:1039B000015503E0681CC5B2052DA4DB00BFBAF1B8
:1039C000000F06D100214748401C015501200DF889
:1039D0000400601CC4B2052C8CDB00247AE0404853
:1039E000401C005D012873D14FF0000A00252CE037
:1039F0003C48401C405D012825D104EB4401384877
:103A0000801D30F8116004EB440100EB4100478851
:103A100005EB45013348801D30F8118005EB450169
:103A200000EB4100B0F8029041463046FCF73DFC07
:103A30004B2808DC49463846FCF737FC4B2802DCAB
:103A40004FF0010A03E0681CC5B2052DD0DB00BFB2
:103A5000BAF1000F3CD1002537E02248401C405D00
:103A600078BB1DF8050060BB04EB44011C48801DB9
:103A700030F8111005EB45021A48801D20F812108D
:103A800004EB44011648801D00EB4100418805EB22
:103A900045021448801D00EB4200418004EB4401C4
:103AA0000F48801D00EB4100818805EB45020D4861
:103AB000801D00EB4200818001210A48401C4155D5
:103AC00005E000E004E0681CC5B2052DC5DB00BFC1
:103AD000601CC4B2052C82DB02480078BDE8FC877C
:103AE000501100202C11002070B504460D4694F8AA
:103AF0002400012806D125622046FDF7D1FC20468E
:103B0000FDF725FD70BD000010B50446012C04D161
:103B10004021044801F075F803E04021014801F01C
:103B20006EF810BD0004024010B50446012C04D10B
:103B30008021044801F065F803E08021014801F08C
:103B40005EF810BD000402402DE9FE4F04460F460A
:103B5000904627480088384486B2254880884044EB
:103B60001FFA80FA22480089C01E801B1FFA80F9C4
:103B70001F48008B1FFA80FB1D48C0695B464A4600
:103B8000514600903046FFF7EDF90CB9BDE8FE8FC5
:103B9000002524E0605D0D2802D0605D0A2800D178
:103BA00023E009EB060012498969A0EB5100B042FD
:103BB00000D21AE0605D00220D490969CDE90012CA
:103BC00002900B48027D012351463046FFF7CEFBA1
:103BD0000748806906EB500086B2681C85B2605DBC
:103BE0007E2802DC605D2028D4DA00BF00BFCDE76C
:103BF000C419002070B5054600240AE0285D1B4961
:103C0000097801EB41011A4A02EB01110855601CC9
:103C1000C4B2285D7E2804DC285D202801DB2F2C1F
:103C2000ECDB00201149097801EB4101104A02EB5D
:103C3000011108550D490978481CC11700EB517155
:103C4000C910A0EBC101094A11700A480078082880
:103C500005DA08480078401C0649087002E0082090
:103C60000449087000F028F970BD000084000020AD
:103C7000E41900208500002010B500F0B7F810BD51
:103C800008B52D48006840F470002B4908602B48A7
:103C9000006840F0010029490860284808300068A1
:103CA00040F080002549083108600020009002E0C3
:103CB0000098401C00904CF2503100988842F7D395
:103CC0001E480830006840F090001C490831086028
:103CD0000020009002E00098401C00904CF250310F
:103CE00000988842F7D315480830006820F0030098
:103CF00012490831086011480068114908400F490D
:103D000008600846006820F48020086000200B4905
:103D10000831086000BF094808300068002000280A
:103D2000F9D108480549091D0860002003490C31F4
:103D3000086002F0DFF808BD88ED00E000380240BE
:103D4000FFFFF6FE1030002410B50121880702F0B5
:103D5000F0F9012803D10121800702F0E7F90120E1
:103D60000C4908700C480088401C0B490880084624
:103D70000088022804DB0020088001200749087021
:103D80000748D0E900305A1C40F100000449C1E95D
:103D9000002010BD8800002098000020890000202D
:103DA0009000002010B501210D4802F0C2F9012851
:103DB00003D101210A4802F0B9F90A480088401CE1
:103DC00000B2084908800846B0F90000B0F57A7FD3
:103DD00004DB0020088001200349087010BD0000AA
:103DE000000C00409A0000208A000020044800686F
:103DF00020B103480068401E014908607047000078
:103E0000A000002008B5002000902449244802F0BA
:103E1000F8FB60B12149224802F0E6FB204802F09D
:103E20003DFBC0B200909DF8000000F08FF81D49E6
:103E30001B4802F0E6FB012806D11A49184802F097
:103E4000D3FB174802F02AFB1749154802F0D9FBAB
:103E500018B31549124802F0C7FB2520002807DBDC
:103E600000F01F0201219140104A430942F823103B
:103E700000BF6846FFF714FC9DF80010084802F0E8
:103E800012FB0B48FFF7AAFB38B100200949087064
:103E900040F20731024802F08DFB08BD0503050022
:103EA00000100140000503000703070080E200E066
:103EB000641B00209C0000202DE9F0411D4806787D
:103EC0001D4805781D48008B87B20DB9BDE8F0810B
:103ED000082D12DA00240DE0611C7943C91C8AB256
:103EE00004EB4401164B03EB01100321FFF72CFEFA
:103EF000601CC4B2AC42EFDD19E0002415E0611C87
:103F00007943C91C8AB206EB46010D4B03EB011045
:103F10000321FFF719FE701CC11700EB5171C91086
:103F2000A0EBC101CEB2601CC4B2082CE7DB00BF1D
:103F3000CCE700008400002085000020C419002088
:103F4000E419002000BFFEE70170704731B500247E
:103F5000012269460248FDF717FBC4B2204638BD6E
:103F6000701B002070B504460D4611480068A04241
:103F700016D80F484068A04212D32B4622460DA106
:103F8000134800F047F80A4841691148884710492A
:103F900010A000F02FF829462046FFF7D5FF06E0D5
:103FA000034841690CA088470BA000F023F870BDBE
:103FB0007411002057726974653A203078253038C2
:103FC00058202D203078253032580D0A000000008E
:103FD0008C1100202573000057726974653A2049DE
:103FE0006E76616C696420616464726573730D0A36
:103FF000000000000FB4054B10B503A9044A029855
:1040000000F040F810BC5DF814FB00007D4B000888
:10401000A80000200FB4084B10B504A902AA039809
:1040200000F030F8044602A9002000F05CFA2046B7
:1040300010BC5DF814FB0000E744000810B5002830
:1040400004DB0A07130E054A135406E00A07140E90
:10405000034A00F00F031B1FD45410BD00E400E01E
:1040600018ED00E002E008C8121F08C1002AFAD1CA
:1040700070477047002001E001C1121F002AFBD1E8
:10408000704700002DE9FF4F8DB00F460546002612
:1040900006E025280BD0DDE90F1290476D1C761C39
:1040A00028780028F5D111B03046BDE8F08F002403
:1040B000A246A1460122EC4900E0044315F8013F65
:1040C000203B02FA03F00842F7D128782A2810D0C2
:1040D0006FF02F022878A0F13001092914D80AEBDB
:1040E0008A0102EB410144F0020400EB010A6D1C5D
:1040F000F0E701CF5FEA000A03D544F40054CAF1A7
:10410000000A44F002046D1C28782E2817D115F8F7
:10411000010F44F004042A280ED06FF02F022878F3
:10412000A0F1300109290AD809EB890102EB41010C
:1041300000EB01096D1CF2E757F8049B6D1C287811
:104140006C280FD006DC4C2817D068280DD06A28C0
:1041500014D104E0742810D07A280FD10DE044F473
:1041600000140AE044F4801401E044F44014697837
:10417000814202D104F580146D1C6D1C2A786E2AD0
:104180001FD00CDC632A31D004DC002A8BD0582AE3
:1041900011D1A3E0642A68D0692A0CD165E0732AA2
:1041A0002ED004DC6F2A73D0702A04D19BE0752ACC
:1041B0006FD0782A6ED01046DDE90F129047761C3A
:1041C00050E1C4F30250022806D0032809D0042885
:1041D00001CF09D0066045E101CFF117C0E90061C8
:1041E00040E101CF06803DE106703BE117F8040B8A
:1041F0008DF8000000208DF80100EB46012003E05F
:1042000057F804BB4FF0FF3061074FF0000102D4B4
:104210000DE008F10101884649450FDA8045F8DBD9
:104220001BF808100029F4D108E008F101018846C4
:104230008142FADB1BF808100029F6D1DDE90F23D3
:10424000AAEB08008146214600F036F9304400EB25
:10425000080604E0DDE90F121BF8010B9047B8F1E6
:104260000108F7D221464846F7E00A21C4F3025379
:104270004FF0000B0891022B04D001CFC117032B84
:1042800009D00AE0FF1D27F00707F7E8020108E060
:1042900032E01FE020E000B2C117042B01D140B290
:1042A000C117031E71F1000307DA4FF0000CD0EBC9
:1042B0000C006CEB01012D2302E0230504D52B2318
:1042C0008DF82430012303E0E30701D02023F7E732
:1042D000984658E00A2110E010210EE010204FF01F
:1042E000000B08900CE010214FF0000B44F0040488
:1042F0004FF00809089103E008214FF0000B0891E6
:10430000C4F30253022B04D001CF0021032B06D0AB
:1043100006E0FF1D27F00707F7E8020103E080B27F
:10432000042B00D1C0B24FF0000823072BD5702A10
:1043300007D0DDF820C08CF0100C5CEA0B0C05D027
:104340000EE040238DF82430012308E050EA0103F9
:1043500006D030238DF824308DF82520022398468E
:10436000DDF820C08CF0080C5CEA0B0C0BD150EA95
:10437000010301D1630706D530238DF824304FF0B7
:104380000108A9F10109582A04D038A20B9208AA01
:104390000A920BE03AA2F9E75B46089AFBF722FF84
:1043A0000B9B9B5C0A9A521E0A92137050EA010200
:1043B000F2D10A98ADEB000000F1200B600702D5A6
:1043C00024F4803401E04FF00109D94502DDA9EB66
:1043D0000B0000E0002000EB0B0141440890AAEB29
:1043E000010AE00306D4DDE90F232146504600F020
:1043F00063F806444FF0000908E009A911F8090024
:10440000DDE90F12904709F10109761CC145F4DB83
:10441000E0030CD5DDE90F232146504600F04CF8AF
:10442000064404E0DDE90F1230209047761C08991D
:10443000481E08900029F5DC08E00A980A990078DF
:10444000491C0A91DDE90F129047761CBBF100016F
:10445000ABF1010BF1DC21465046DDE90F2300F002
:1044600019F806446D1C1BE609280100303132336F
:1044700034353637383961626364656600000000A0
:10448000303132333435363738394142434445468A
:10449000000000002DE9F041044600251E461746A5
:1044A000880404D405E039462020B0476D1C641E02
:1044B000F9D52846BDE8F0812DE9F04104460025F4
:1044C0001E469046C80301D5302700E02027880407
:1044D00004D505E041463846B0476D1C641EF9D549
:1044E0002846BDE8F0810A68531C0B6010707047C5
:1044F00002460020CB1C23F00301136F8B4205D32F
:10450000136F5B1A1367D06E4318D36670472DE99B
:10451000F05F04468846267B2768656895F800A00A
:1045200000208346814600BF36BB67B9A5684FF4BB
:10453000806229462046636F9847074627B96FF087
:104540000100BDE8F09F6D1C7F1EBBF1000F0AD07B
:104550004FF0000B287810B16FF00500F1E7FF2055
:104560008246287007E095F800A0BAF1FF0F02D14B
:104570004FF0010B0BE080264FEA49090AEA0600DA
:1045800008B109F101097610A8F1010800BFB8F1DE
:10459000000FC9D12673276065604846D1E7000047
:1045A0002DE9F04F87B00C464FF4B55BCDF818B04D
:1045B00041F2511BCDF814B042F6CF1BCDF810B02C
:1045C00041F6905BCDF80CB04FF0000BCDF800B089
:1045D00080E0D0F800C0D0F84080D0F88090D0F8CB
:1045E000C0100CEB090AACEB090BCDF808B0A8EB36
:1045F000010B4FF4B55E0BFB0EFB4FEA2B3741442A
:104600007F1A0AEB010CAAEB0101DDF808B007EBF9
:104610000B08DDF808B0ABEB0709D0F8E050036AEF
:10462000D0F8A060026EA3EB050A5F19A6EB020B9F
:10463000CDF808B03244A7EB020B0BFB0EFB4FEAA0
:104640002B333A44DDF808B0D34441F6905E0BFBBF
:104650000EFB4FEA2B3BCDF804B041F2511B0AFB95
:104660000BFEDDF804B0ABEB2E3542F6CF1EDDF8C5
:1046700008B00BFB0EFEDDF804B0ABEB2E3BABEB52
:1046800002069B1BED1A0CEB020BC0F800B0ACEB62
:10469000020BC0F8E0B008EB060BC0F820B0A8EBA6
:1046A000060BC0F8C0B009EB030BC0F840B0A9EB93
:1046B000030BC0F8A0B001EB050BC0F860B0A1EB94
:1046C000050BC0F880B0001DDDF800B00BF1010B48
:1046D000CDF800B0DDF800B0BBF1080FFFF479AF02
:1046E00020384FF0000BCDF800B0A2E0D0F800B0B9
:1046F0000BF5004CD0F80880D0F8109081690CEBD5
:10470000090AACEB090BCDF808B0A8EB010B4FF48C
:10471000B55E0BFB0EFB4FEA2B3741447F1A0AEBC9
:10472000010CAAEB0101DDF808B007EB0B08DDF87E
:1047300008B0ABEB0709C56943684669C268A3EBDB
:10474000050A5F19A6EB020BCDF808B03244A7EBBF
:10475000020B0BFB0EFB4FEA2B333A44DDF808B09B
:10476000D34441F6905E0BFB0EFB4FEA2B3BCDF89A
:1047700004B041F2511B0AFB0BFEDDF804B0ABEBB9
:104780002E3542F6CF1EDDF808B00BFB0EFEDDF82D
:1047900004B0ABEB2E3BABEB02069B1BED1A0CEB14
:1047A000020BCBF3092BDFF89CE01EF80BB084F86A
:1047B00000B0ACEB020BCBF3092B1EF80BB084F866
:1047C00007B008EB060BCBF3092B1EF80BB084F8EF
:1047D00001B0A8EB060BCBF3092B1EF80BB084F845
:1047E00006B009EB030BCBF3092B1EF80BB084F8D2
:1047F00002B0A9EB030BCBF3092B1EF80BB084F826
:1048000005B001EB050BCBF3092B1EF80BB084F8B8
:1048100003B0A1EB050BCBF3092B1EF80BB084F80A
:1048200004B008342030DDF800B00BF1010BCDF8F6
:1048300000B0DDF800B0BBF1080FFFF457AF07B0D0
:10484000BDE8F08F0CED02082DE9F74F86B00D465C
:1048500016468EE0112E03D2062009B0BDE8F08F77
:10486000113E15F801AB4FEA2A190AF00F00039028
:104870000AF0EE0008B10620EFE710210698FFF7D6
:1048800037FE8046B8F1000F01D10320E5E7069816
:104890002430039900EBC10040F829800020044631
:1048A000074607E015F8010B049008F80400049887
:1048B0000744641C102CF5D379000698FFF718FE06
:1048C0008346BBF1000F01D10320C6E706983430C0
:1048D000039900EBC10040F829B000200190044684
:1048E000059019E018F80400049009E00598421CAE
:1048F000019905922BF810100198401C80B201908C
:104900000498411E04910028F0D14FF6FF710198E0
:1049100001EA40000190641C102CE3D3BE4201D296
:1049200006209AE7F61B39460698FFF7E1FD02904C
:10493000029808B9032090E706984430DDE9021296
:1049400000EBC20040F82910002410E015F801AB7C
:10495000B9F1000F04D1BAF10B0F01DD06207CE79D
:10496000029880F800A00298401C0290641CBC428F
:10497000ECD3002E7FF46EAF00206EE72DE9F047F8
:1049800082460C4616462BE0412E02D20620BDE898
:10499000F087413E14F8018B08F0F00008B10620C2
:1049A000F5E708F003074FF480715046FFF7A0FDCC
:1049B00005460DB90320EAE70AF1540040F82750F4
:1049C00000270BE0084810F8079014F8010B07497E
:1049D00031F81910484345F829007F1C402FF1D3C6
:1049E000002ED1D10020D2E74CEC02088CEC02085A
:1049F00002460023012A03D0022A01D0032A04D14F
:104A00005001A0F1C040436C01E00548036803EA8F
:104A10000100884201D0002070470120FCE700001F
:104A2000580100A0D0E902211143426811430268F5
:104A300041EA4221014A116070470000500100A084
:104A400070B50568042D3AD1D0E908653543C669CB
:104A500035438669354346693543066945EA462547
:104A6000C6683543866845EA063546683543384E9C
:104A70003560856AAD696D1E866A7669761E45EA7F
:104A80000616856A2D696D1E46EA0526856AED685B
:104A90006D1E46EA0536856A2D896D1E46EA054675
:104AA000856AAD886D1E46EA0556856A2D786D1EAD
:104AB00046EA05654FF02046C6F8485147E0244DC8
:104AC0002D6825F4F841D0E9026535434668354341
:104AD0002943D0E908653543C669354386693543BE
:104AE00046693543066945EA06044FF02045C5F896
:104AF0004011C5F84441D5F84851164E05EA060262
:104B0000856AED686D1E2E03856AAD886D1E46EAC6
:104B10000556856A2D896D1E46EA05452A43856A34
:104B2000AD696D1E866A7669761E45EA0616856A47
:104B30002D696D1E46EA0526856A2D786D1E46EAAA
:104B400005634FF02045C5F84821C5F84C3170BDCC
:104B5000400100A0FF0F00FF074A126843F6FE73F2
:104B600022EA03011A4602EA40020A434FF02043B8
:104B7000C3F8542170470000540100A070B50446EA
:104B80000D4600BF0721054801F005FD0028F9D0BA
:104B9000E1B2024801F087FC204670BD00100140E0
:104BA000F0B503461C6A5D6A00200DE001268640D0
:104BB00016403EB187000F26BE40B443860001FA7E
:104BC00006F63443461CB0B20828EFD3082011E0A3
:104BD0000126864016405EB1A0F10806B7000F26F8
:104BE000BE40B543A0F10806B60001FA06F635430B
:104BF000461CB0B21028EBD31C625D62F0BD81622E
:104C000070478161704702461069084008B1012071
:104C100070470020FCE7F0B504460D4616462168B3
:104C2000E268002019E0012787401F409FB14FEA4A
:104C3000400C032707FA0CF7B943470005FA07F7BA
:104C400039434FEA400C032707FA0CF7BA434700F1
:104C500006FA07F73A43471CB8B21028E3D321609D
:104C6000E260F0BDF0B50C461546012C03D1466854
:104C70001E43466002E046689E434660826800210B
:104C80000DE001268E401E403EB14F000326BE407F
:104C9000B2434E0005FA06F632434E1CB1B210295B
:104CA000EFD38260F0BD2DE9FF5F04468846914650
:104CB0009A46267B276865682878039000208346FB
:104CC00002901020019000BF36BB6FB9A5684FF469
:104CD000806229462046636F984707462FB96FF0D8
:104CE000010004B0BDE8F09F6D1C7F1E029850B11A
:104CF00000200290287810B16FF00500F1E7FF2046
:104D00000390287007E0287803900398FF2802D1C9
:104D10000120029022E080264FEA4B0B039830409E
:104D200008B10BF1010B761018F8010B00900EE0A2
:104D300039F8021B594505D12673276065609AF83A
:104D40000000CEE70AF1010A0098401E009000988A
:104D50000028EDD10198401E019000BF0198002865
:104D6000B2D1801FBDE710B540F2174000F0B8FF88
:104D700040F2174000F0A2FF10BD000010B5002265
:104D80004C4B1B6803F0010333B10122494B1B68F4
:104D900023F00103474C2360464B5B6B23F0070372
:104DA000444C6363C3686363C16805295CD2DFE870
:104DB00001F00315253548003E4B9B6B00233D4C0D
:104DC000A363D0E9054343EA0423048A43EA044386
:104DD000047A43EA0463374CA36346E0354B9B6B8C
:104DE00003F07F43334CA363D0E9054343EA042334
:104DF000048A43EA04432F4CA36336E02D4B9B6B9C
:104E00006FF30F032B4CA363D0E9054343EA44132C
:104E1000046943EAC423274CA36326E0254B9B6B1C
:104E20006FF30F03234CA363D0E9054343EA441314
:104E3000046943EA8423846843EAC4331D4CA363B2
:104E400013E01C4B9B6B6FF30F031A4CA363D0E969
:104E5000054343EA0413046943EA0423846843EAEC
:104E60000433144CA36300E000BF00BF114BDB6BA5
:104E70000023104CE3630368E36323461B6C6FF36A
:104E80000D0323644368236423465B6C03F04043B3
:104E90006364848B036A43EA0443064C646C2343D3
:104EA000044C6364012A04D123461B6843F00103C8
:104EB000236010BD00B002400021C16041608160EC
:104EC0000161416181610160C1610162704700005F
:104ED000024989680143014A9160704700B002406D
:104EE000014604484068084008B10120704700208E
:104EF000FCE7000000B002400549096821F4403198
:104F0000034A1160114609680143116070470000AF
:104F100000B002400348006840F001000149086009
:104F20007047000000B002402DE9F74F82B0044600
:104F30001746032F03DD052005B0BDE8F08F67732A
:104F4000A07B4FEAC009E07B4FEAC00A0021A182A2
:104F5000E18221838B46CDF804B0002500262FE0A6
:104F60004FF0000828E0608BA0B15846411C1FFAA2
:104F700081FB618B88420DD10198421C92B201469F
:104F80002046019200F000FF05460DB12846D3E708
:104F90004FF0010B204600F0F3F905460DB128460D
:104FA000CAE7334642462046039900F0DBFA05463D
:104FB0000DB12846C0E7C844E0694045D3D85644FF
:104FC000206AB042CCD82846B6E72DE9FF4F83B01F
:104FD0000446059818B9052007B0BDE8F08F05987C
:104FE000E06606982067049860671098A067002024
:104FF000608300261BE04FF0000A14E0002104F15A
:10500000240000EBC60040F82A1004F1340000EB45
:10501000C60040F82A1004F1440000EBC60040F836
:105020002A100AF1010ABAF1020FE7D3761C022E08
:10503000E1D3002605E0002104F1540040F82610D9
:10504000761C042EF7D34FF480612046FFF750FA08
:105050000546A0600DB90320BEE70222294620467E
:10506000636F9847022801D00220B5E76878297855
:1050700040EA01204FF6D871884201D00620ABE704
:105080004FF0020900BF042229462046636F98476B
:10509000042801D002209FE76878297840EA01209F
:1050A0000290E878A97840EA0127022F04D9FF216D
:1050B0000298B1EB202F01D006208DE7BF1E381DCE
:1050C00081440298C0B2C0381E2872D2DFE800F0D6
:1050D0000FF4F3F272F1F0EF71EEEDEC71EBEAE93F
:1050E000717171717171717171E8A68C715DB7F533
:1050F000806F01D904206FE73A4629462046636F46
:105100009847B84201D0022066E72879E97840EA5A
:105110000120E061A878697840EA0120206268797E
:10512000032801D0082057E700262BE006EB4600B5
:10513000C01D15F800808EB9B8F1110F07D0B8F175
:10514000220F04D0B8F1210F01D0082044E74FEA24
:105150002810A07308F00F00E07304E0B8F1110FFD
:1051600001D0082038E706EB4600083015F800802B
:10517000B8F1030F01DD08202EE704F1100000F85C
:105180000680761C032ED1D3ECE0B7F5806F01D9F1
:10519000042021E73A4629462046636F9847B842E3
:1051A00001D0022018E76878297840EA012060835E
:1051B000D8E0CDE0B7F5806F01D904200CE73A467E
:1051C00029462046636F9847B84201D0022003E782
:1051D0003A4629462046FFF737FBC0B201900198B6
:1051E00008B10198F8E6BDE0B7F5806F01D9042059
:1051F000F2E63A4629462046636F9847B84201D006
:105200000220E9E63A4629462046FFF7B7FBC0B23E
:105210000190019808B10198DEE6A3E0B7F5806F30
:1052200001D90420D8E63A4629462046636F9847BC
:10523000B84201D00220CFE6E06908B1206A08B97F
:105240000620C9E62878032801D00820C4E60026F5
:1052500034E07000801C15F80080B8F1000F04D015
:10526000B8F1110F01D00820B6E60EB1012000E020
:105270000020804604F1240050F8380028B104F1E1
:10528000240000EBC800406808B90620A4E604F139
:105290001000815D443050F8210070B906209BE673
:1052A00054E052E050E04EE04CE04AE048E046E096
:1052B00044E042E040E03EE03CE0761C032EC8D3F0
:1052C000E07BA17B10FB01FBBBF1000F01D10620AD
:1052D00082E6402101EBCB17FF2F00D88F00394623
:1052E0002046FFF705F96066606E08B9032073E693
:1052F0000BF1020081012046FFF7FAF8A066A06ECC
:1053000008B9032068E66560002020602073C9F3B7
:105310000900B0F100090BD0C9F5806205EB090165
:105320002046636F9847206005EB0900401E6060CF
:10533000002051E600BF00BF00BF00BF00BF00BF9C
:1053400000BF00BF00BF00BF00BF00BF082043E692
:105350003A4600212046636F9847B84201D00220A8
:105360003AE600BF8FE6FDF76DF8FDF7F8FB05E0C4
:10537000FEF702F9FEF718F9FEF7F6F8F8E7000075
:105380002DE9F04F89B00446D4F86490A07BE17B0E
:1053900010FB01F0089002200790A06E04904FF0DF
:1053A000000BD4E00898834501D2002003E0089860
:1053B000ABEB0000401C0590059808B1012000E00F
:1053C0000020804604F1240050F83800039004F1D6
:1053D000340050F83800019004F1440050F83800CF
:1053E00002902046DDE901230399FFF75CFC0546A6
:1053F000002D04DA6842C0B209B0BDE8F08F04F1B4
:105400001400059930F91160F5B129462046FFF7DF
:105410007EF88246BAF1000F03DACAF10000C0B28A
:10542000EAE7681E012101FA00F50AEA050020B941
:105430000120C0EB4500AAEB000A564432B204F149
:105440001400059920F8112004F110000599415C21
:10545000443050F82100009000980068704300121A
:10546000C9F80000012703E0002049F827007F1C4D
:10547000402FF9D304F1240000EBC80040680390EA
:1054800004F1340000EBC8004068019004F14400CE
:1054900000EBC80040680290012700BF2046DDE90C
:1054A00001230399FFF7FFFB054605B937E0002DFF
:1054B00002DA6842C0B29FE728090690069828B130
:1054C00006980744402F01D3062095E705F00F000A
:1054D000051E20D029462046FFF719F80646002E63
:1054E00002DA7042C0B287E7681E012101FA00F5B6
:1054F00006EA050018B90120C0EB4500361A184825
:10550000C05D06900699009850F821007043011282
:10551000069849F82010781C07464028BED300BFE3
:10552000607B03280AD1D9F80000C11700EB116194
:1055300009128031CAB204990A7003E048460499FE
:10554000FFF72EF80498403004900BF1010BDDE9D1
:105550000710084458453FF625AF00204CE70000EF
:105560004CEC02082DE9FF4F8DB004464FF48060EB
:105570000C90A07BC700E07BC0000B900F983844D4
:10558000E169884201D8384602E0E1690F98081ABB
:1055900083460B9910980844216A884201D80B98D9
:1055A00002E0216A1098081A0A90607B2BFA00FB2F
:1055B000617B0A98C8400A90BBF1000F01D00A989D
:1055C00018B9002011B0BDE8F08F617B0F98C8407A
:1055D0000F90617B1098C84010900F9880B2ADF882
:1055E00014000F985844401E80B2ADF81600109871
:1055F00080B2ADF818000A9910980844401E80B295
:10560000ADF81A00607B03287DD0656E00266EE041
:10561000D4F8688008EBC60007900B9810280BD1CF
:1056200070084FF4807101EBC0008044082E07D34E
:1056300007984030079003E0F80000EBC600804474
:105640004FF0000950E098F800008038099098F871
:10565000400080380890102F09D1B9F1080F02D10D
:1056600007983830079009F00100804401E008F104
:105670000108079810F801AB079040F29B52089977
:1056800001FB02F0C11700EB91510AEBA121C1F31C
:105690000901984A515C05F8011B4FF4B072099951
:1056A000514340F2DB23089A03FB0210C11700EBC1
:1056B0009151AAEBA121C1F309018E4A515C05F871
:1056C000011B40F21672099901FB02F0C11700EBB1
:1056D00091510AEBA121C1F30901864A515C29705D
:1056E000691C0D4609F10109B945ACD3761C0B982C
:1056F00086428DD3607B002853D0637B5A0094F898
:105700000DE0012300E04DE003FA0EF17B1A03EBFC
:1057100043030093606E002640E04FF000093AE03A
:1057200006FB079E0EEB4E0E636E03EB0E05002389
:1057300001930293039304931DE04FF0000C13E0D8
:1057400015F8013BDDF80CE07344039315F8013BB9
:10575000DDF808E07344029315F8013BDDF804E03E
:10576000734401930CF1010C8C45E9D3009B1D445B
:10577000049B5B1C0493049B8B42DED3039BD340AE
:1057800000F8013B029BD34000F8013B019BD34052
:1057900000F8013B8944B945C2D30E440B9B9E429D
:1057A000BBD35BE0656EA16E0B9807FB001898F801
:1057B00000008038099098F8400080380890002652
:1057C00049E0A06E0790082E02D10798803007901C
:1057D0004FF000093CE0079890F800A0079840308F
:1057E000079040F29B52089901FB02F0C11700EBB1
:1057F00091510AEBA121C1F309013E4A515C05F820
:10580000011B4FF4B0720999514340F2DB23089A0F
:1058100003FB0210C11700EB9151AAEBA121C1F3C8
:105820000901344A515C05F8011B40F216720999CE
:1058300001FB02F0C11700EB91510AEBA121C1F36A
:1058400009012C4A515C2970691C0D4609F10809AF
:10585000B945C0D308360B988642B2D3607BC740A7
:10586000BB4521D2D4F864C061466046002316E0EF
:1058700000220CE010F801CB01F801CB10F801CBAD
:1058800001F801CB10F801CB01F801CB521C5A45AD
:10589000F0D3A7EB0B0C0CEB4C0C60445B1CDDF85D
:1058A00028C06345E4D300BF606E0246DDF828C01F
:1058B0000BFB0CF300BF10F801CB0CF0F80C4FEA17
:1058C0000C2110F801CB0CF0FC0C41EACC0110F8D3
:1058D00001CB41EAEC0122F8021BA3F1010CBCF15F
:1058E0000003E8D105AA2046616E0E9B9847C0B21E
:1058F00068E600000CED02082DE9F04103460D4674
:10590000164600240027A0462A48006800F4E060FC
:10591000B0F5E06F03D100BF4FF0040830E0254838
:10592000006800F4E060B0F5C06F03D101274FF0CC
:10593000030825E01F48006800F4E060B0F5A06FA0
:1059400002D10227B8461BE01A48006800F4E06064
:10595000B0F5806F03D103274FF0010810E0154820
:10596000006800F4E060B0F5407F03D104274FF0F9
:10597000000805E04FF4A06000F020F80227B846C8
:10598000C7F1040005FA00F4C8F104010F20C84073
:105990003040044324010848C45403F01F0101208F
:1059A00088405911890001F1E021C1F80001BDE8EA
:1059B000F08100000CED00E000E400E0024901434A
:1059C000024A1160704700000000FA050CED00E08B
:1059D0002DE9F04F8CB0064600200A903EA090E8DA
:1059E000004CC068CDE905BECDF810A007900FF2BD
:1059F000EC0ADAE9000ACDE9020A0FF2E00ADAE974
:105A0000000ACDE9000A38480068C0F381000B9015
:105A10000B9820B1012804D0022828D103E0334993
:105A200027E0334925E03048001F006800F03F07B9
:105A30002D48001F0068C0F3881C2B48001F006819
:105A4000C0F30140401C4FEA40092748001F00688E
:105A500000F48008B8F5800F01D1254B00E0234BFE
:105A6000B3FBF7F000FB0CF0B0FBF9F101E01F49CC
:105A700000BF00BF1C480068C0F3031404A8055D04
:105A800021FA05F218480068C0F3822402A8055DD7
:105A900022FA05F0099014480068C0F342341DF85A
:105AA000045022FA05F0089036B1012E06D0022EDD
:105AB00006D0032E0AD106E00A9108E00A9206E019
:105AC00009980A9003E008980A9000E000BF00BF20
:105AD0000A980CB0BDE8F08F000000000000000044
