:020000040800F2
:1000000080030320C90100083B0D0008950C00087F
:10001000370D00087B050008610F00080000000094
:10002000000000000000000000000000770E000843
:10003000D90A0008000000003D0D0008790E0008F4
:10004000E3010008E3010008E3010008E301000800
:10005000E3010008E3010008E3010008E3010008F0
:10006000E3010008E3010008E3010008E3010008E0
:10007000E3010008E3010008E3010008E3010008D0
:10008000E3010008E3010008E3010008E3010008C0
:10009000E3010008E3010008E3010008E3010008B0
:1000A000E3010008E3010008E3010008E3010008A0
:1000B000E3010008E3010008E3010008E301000890
:1000C000E3010008E3010008E3010008E301000880
:1000D000E3010008E3010008E3010008E301000870
:1000E000E3010008E3010008E3010008E301000860
:1000F000E3010008E3010008E3010008E301000850
:10010000E30100086F0E0008E3010008E3010008A6
:10011000E3010008E3010008E3010008E30100082F
:10012000E3010008E3010008E3010008E30100081F
:10013000E3010008E3010008E3010008E30100080F
:10014000E3010008E3010008E3010008E3010008FF
:10015000E3010008E3010008E3010008E3010008EF
:10016000E3010008E3010008E3010008E3010008DF
:10017000E3010008E3010008E301000800000000BB
:10018000E3010008E3010008E3010008E3010008BF
:10019000E3010008E3010008E3010008000000009B
:1001A000E3010008E3010008E3010008DFF80CD0D8
:1001B00000F0C2F9004800475D2D000880030320CD
:1001C00080F30888704700000648804706480047CB
:1001D000FEE7FEE7FEE7FEE7FEE7FEE7FEE7FEE7F7
:1001E000FEE7FEE7810E0008AD0100082DE9FE4F95
:1001F00081EA030404F0004421F0004100944FF030
:10020000000B23F0004350EA01045ED052EA0304DD
:100210005BD0C3F30A54C1F30A552C44A4F2F3345F
:100220000194A0FB0254C1F3130141F48011C3F304
:10023000130343F4801301FB024400FB034E840AC2
:10024000970A44EA815447EA8357A4FB076802955A
:100250008D0A05FB07854FEA932C04FB0C542705F8
:10026000029D4FEA065847EA1637B5EB08056EEBD4
:10027000070C870E920E47EA811742EA8312A7FB0A
:100280000201B6EB0B0164EB00042B0D43EA0C33C7
:100290005E1844EB1C50DA465146E7FB0201C5F3F9
:1002A00013044FEA0B3343EA14534FEA0432019C20
:1002B00043EA0603A4F10C040294009CCDE900B4C7
:1002C00000F0EBF803B0BDE8F08F00200146F9E73D
:1002D0002DE9F04D81EA030404F0004B21F00045C4
:1002E00014464FF0000A23F0004150EA050220D0E6
:1002F00054EA01021DD0C5F30A570246C5F31303A1
:10030000C1F31300C1F30A5640F4801543F480137F
:10031000A7EB0608101BD64608F2FD3873EB050064
:1003200002D308F1010801E092185B41B8F1000F17
:1003300003DA00200146BDE8F08D00204FF4801163
:10034000064684460EE0171B73EB050705D3121B08
:1003500063EB050306434CEA010C49084FEA300001
:1003600092185B4150EA0107EDD152EA030012D026
:1003700082EA040083EA0501084305D0101BAB4163
:1003800006D20122002306E000224FF0004302E0E3
:100390006FF0010253101AEB06004CEB085110EB02
:1003A0000A0041EB0B01BDE8F04D00F067B80EB557
:1003B00040F2334102910021CDE900110A460B467B
:1003C00000F06BF803B000BDC1F30A5210B5C1F3E1
:1003D000130140F2FF3341F480119A4201DA002008
:1003E00010BD40F233439A42A2F2334203DC524240
:1003F00000F034F810BD904010BD2DE9F05F0546C7
:10040000002092469B4688460646814640241BE0D3
:10041000284641464746224600F020F853465A46B1
:10042000C01A914110D311461846224600F096F8A2
:100430002D1A67EB01084F4622460120002100F0EB
:100440008DF817EB00094E41201EA4F10104DFDCFA
:10045000484631462A464346BDE8F09F202A04DB41
:10046000203A21FA02F00021704721FA02F3D0402D
:10047000C2F12002914008431946704710B5141E7E
:1004800073F1000408DA401C41F1000192185B414D
:100490001A4301D120F0010010BD2DE9F04D924624
:1004A0009B4611B1B1FA81F202E0B0FA80F220323B
:1004B000904600F053F804460F4640EA0A0041EA2D
:1004C0000B0153465A46084313D0114653EA010024
:1004D00019D0C8F140025046FFF7C0FF05460E464E
:1004E00050465946424600F039F8084305D00120ED
:1004F00004E020463946BDE8F08D0020054346EA79
:10050000E0762C4337430A986305E40AA0EB080021
:100510000022FD0A44EA47540A3002D50020014671
:10052000E9E7010510196941DDE90845001969414C
:10053000BDE8F04DA2E70000064C074D06E0E0687C
:1005400040F0010394E8070098471034AC42F6D31A
:10055000FFF730FEE853000808540008202A04DBA7
:10056000203A00FA02F1002070479140C2F12003C6
:1005700020FA03F319439040704700BFFEE70000E4
:100580002DE9F14F2DED048B90B09FA000F062FC9F
:10059000A5A000F05FFC149800F05CFCA7A000F0A0
:1005A00059FC08A8149901F00DFE044684B1A5A0D9
:1005B00000F050FC149800F04DFCA4A000F04AFCA0
:1005C000A5A000F047FC10B0BDEC048BBDE8F88F8F
:1005D00082E002A908A801F00BFF044614B99DF8B7
:1005E000110030B9A0A000F035FCA5A000F032FC4D
:1005F000E9E70DF1110000F065FB01286CD1BDF8B1
:100600000C0040F2BC7101EB5027BDF80C00C0F3A8
:100610004318BDF80C0000F01F09BDF80E004FEAAA
:10062000D02ABDF80E00C0F3451BBDF80E0000F047
:100630001F0000909CA000F00DFC149800F00AFC34
:100640009FA000F007FC0DF1110000F003FC9DA03D
:1006500000F000FC0121384600F072FB98A000F089
:10066000F9FB0121404600F06BFB95A000F0F2FB86
:100670000121484600F064FB93A000F0EBFB02214F
:10068000504600F05DFB91A000F0E4FB02215846CB
:1006900000F056FB8DA000F0DDFB0221009800F079
:1006A0004FFB88A000F0D6FB0298FFF780FE41ECDC
:1006B000190B9FED870B53EC102BFFF709FE41EC54
:1006C000180B0220B0EE480AF0EE680A00F088FB32
:1006D00081A000F0BFFB00E07BE700BFBDF80E008B
:1006E000BDF80C1040EA014001907D480568019872
:1006F000A84203D17BA000F0ADFB64E70198A842BB
:1007000003D284A000F0A6FB02E08BA000F0A2FBC5
:100710000DF111029148149900F068F990A000F0D1
:1007200099FB01228D49914801F094FC044634B1B3
:100730008FA000F08FFB93A000F08CFB43E7684E86
:100740004036002093490860934908604CE0874890
:100750008068642148438549C968B0FBF1F08E493F
:100760000860084600688B490968401A05280ED3BE
:10077000894800688749086088A000F06BFB012168
:100780008548006800F0DCFA46A000F063FB864B69
:100790004FF400428549754801F05AFD044634B1D2
:1007A00083A000F057FB77A000F054FB0BE77E48D6
:1007B000006830B17C48006882087C49304600F00F
:1007C0008DF9794800680644684880686749C968B7
:1007D000884202D27448006830B97BA000F03AFB2E
:1007E0007EA000F037FB00E0B1E700BF012201A9C5
:1007F0003B4800F073F95D4801F0D4FB08A801F014
:10080000E6FB00BFDFE6000020BFAACABCCBD1CB0D
:10081000F742696ECEC4BCFEB2A2D0A3D1E941704A
:1008200070B0E6B1BE0D0A00202D2D42696ECEC417
:10083000BCFEC4BFC2BCA3BA000000000D0A0D0A72
:100840000000000020C2B7BEB6A3BA0020B2BBB4FD
:10085000E6D4DA0D0A00000020D0A3D1E9BDE1CA38
:10086000F80D0A0D0A00000020C3BBD3D0B2E9D5B1
:10087000D2B5BD42696ECEC4BCFE0D0A00000000B8
:1008800020C7EBBCECB2E942696ECEC4BCFECAC75D
:10089000B7F1D2D1BEADB7C5C8EBD6B8B6A8C4BF04
:1008A000C2BC0D0A0D0A000020B3C9B9A6B2E9D531
:1008B000D2B5BD42696ECEC4BCFEA3BA0000000032
:1008C0002F00000020200000200000003A0000005F
:1008D0000000000000009040204B420D0A0D0A006D
:1008E000C0FF030820B5B1C7B0417070CEAAB0E612
:1008F000B1BED3EBB1BEB5D8417070B0E6B1BED2D7
:10090000BBD6C2A3ACCEDED0E8B8FCD0C20D0A0D77
:100910000A00000020C7EBD7A2D2E2A3ACB5B1C752
:10092000B0417070B2A2B7C7D7EED0C2B0E6B1BEC8
:100930000D0A0D0A0000000020B5B1C7B04170706B
:10094000CEAAD7EED0C2B0E6B1BEA3ACD0E8D2AA50
:10095000B8FCD0C20D0A0D0A00000000648200201D
:1009600020BFAACABCB8FCD0C20D0A003C000020BF
:1009700020B4F2BFAA42696ECEC4BCFECAA7B0DCE6
:100980000D0A000020B8FCD0C2CAA7B0DC0D0A0DC9
:100990000A000000040000200800002020B8FCD05D
:1009A000C2BDF8B6C8A3BA0000000020640200204F
:1009B00020B6C1C8A142696ECEC4BCFECAFDBEDD70
:1009C000CAA7B0DC0D0A000020B8FCD0C2BDF8B642
:1009D000C8A3BA25253130300D0A000020B8FCD05C
:1009E000C2CDEAB3C90D0A0D0A000000F0B50346F6
:1009F0000C460021002005E00D46491C675D0546B8
:100A0000401C5F55655C0DB14028F5D32F27054686
:100A1000401C5F55002105E00D46491C575D054609
:100A2000401C5F55555C0DB14028F5D300251D5481
:100A3000F0BD10B54FF0807002F058FD10BD000001
:100A400010B5044600221146252002F021FA4FF489
:100A5000406002F015FD4FF4007207211C4802F0BF
:100A60003AF84FF4007301220221194802F0B6F857
:100A70004FF4007302220021154802F0D6F841F22B
:100A8000041002F0FDFC134804F08EFB21461148CF
:100A900004F012FB00210F4804F025FC00210D4852
:100AA00004F031FC00210B4804F00DFC042109483E
:100AB00004F011FC0821074804F01DFC054804F06F
:100AC000E1FB40F20531034804F0F0FB10BD0000EB
:100AD0000000024000100140704700002DE9F05F67
:100AE00082468B4691465446002701E0241F7F1C16
:100AF000C4F310000028F9D101F0A4FE002661E043
:100B0000A046002507E03249D8F8000041F825004A
:100B100008F104086D1CB5F5004FF4D32D4884424C
:100B200003D1282001F038FE28E02B48844203D16D
:100B3000302001F031FE21E02848844203D13820E2
:100B400001F02AFE1AE02648844203D1402001F039
:100B500023FE13E02348844203D1482001F01CFE09
:100B60000CE02148844203D1502001F015FE05E03D
:100B70001E48844202D1582001F00EFE09E05BF8C5
:100B80002600134941F82700761C7F1C4E4500D3F0
:100B900002E0B7F5004FF2D300BF0027A0460025C2
:100BA00008E00B4850F82510404601F05DFE08F1C2
:100BB00004086D1CB5F5004FF3D304F500344E4521
:100BC00000D300E09CE700BF01F0CCFDBDE8F09F42
:100BD0004C83002000000208000004080000060802
:100BE0000000080800000A0800000C0800000E08B9
:100BF00070B50446174920680840B0F1005F18D16D
:100C000015A000F027F9184800F024F917A000F00B
:100C100021F916A000F01EF942F2107600BF301E36
:100C2000A6F10106FBD165682068FFF7C9FAA8475D
:100C30000EE00FA000F00EF911A000F00BF90A4829
:100C400000F008F909A000F005F908A000F002F989
:100C500070BD00000000F82F20CCF8D7AAB5BD4128
:100C600070702E2E2E0D0A00A05300080D0A0000F1
:100C700020B7C7B7A8D5BBB6A5B5D8D6B70D0A005B
:100C800020CCF8D7AAB5BD417070CAA7B0DC21212D
:100C9000210D0A0000BFFEE7704710B500F007F80D
:100CA0004FF4E13000F008F8FFF7F6FF10BD10B583
:100CB000FFF7BFFE10BD704710B504462046FFF792
:100CC000BFFE10BD0246002100232EE0505C2E28FE
:100CD0002AD1481C105C422807D0881C105C492887
:100CE00003D0C81C105C4E2801D101231CE0481C15
:100CF000105C422807D0881C105C692803D0C81CEF
:100D0000105C6E2801D101230EE0481C105C6228A3
:100D100007D0881C105C692803D0C81C105C6E28A2
:100D200001D1012300E00023491C505C08B1402997
:100D3000CCD3D8B2704700BFFEE7704770470000C1
:100D40002DE9F04704468946012704E0A9F101098D
:100D500007EB87004700B9F1000FF7D10A20B7FB76
:100D6000F0F7012602E006EB86004600B442FAD214
:100D70000A20B6FBF0F6B74201D93D4600E0354601
:100D80004FF000081CE0012D09D1A246124810F8CE
:100D90000A20404608F1010810490A5411E0B4FB4A
:100DA000F5FAB4FBF5F005FB10440A20B5FBF0F5AD
:100DB000094810F80A20404608F1010807490A547A
:100DC000E1E700BF0020054901F80800084600F0EF
:100DD00041F8BDE8F08700004C5300080C83002068
:100DE0002DE9F0412DED048BB0EE408AF0EE608AE3
:100DF0000446012503E0641E05EB85004500002C38
:100E0000F9D151EC180BFFF7DFFA07462846FFF738
:100E1000CEFA41EC190B53EC182BFFF7E7F941EC34
:100E2000180B51EC180BFFF7CFFAB0FBF5F105FBEF
:100E3000110601213846FFF783FF05A000F00AF8EC
:100E400001213046FFF77CFFBDEC048BBDE8F0814B
:100E50002E00000070B50546002400E0641C285DEB
:100E60000028FBD12146284600F07CF870BD10B563
:100E700003F0E2F910BD704710B500F065F810BD41
:100E800008B52D48006840F470002B4908602B48D5
:100E9000006840F0010029490860284808300068CF
:100EA00040F080002549083108600020009002E0F1
:100EB0000098401C00904CF2503100988842F7D3C3
:100EC0001E480830006840F090001C490831086056
:100ED0000020009002E00098401C00904CF250313D
:100EE00000988842F7D315480830006820F00300C6
:100EF00012490831086011480068114908400F493B
:100F000008600846006820F48020086000200B4933
:100F10000831086000BF0948083000680020002838
:100F2000F9D108480549091D0860002003490C3122
:100F3000086004F0BDF808BD88ED00E0003802400C
:100F4000FFFFF6FE103000240448006820B103487B
:100F50000068401E0149086070470000340000200E
:100F600000BFFEE770B506460C4600250BE0715D3C
:100F7000074804F015F900BF0721054804F087F978
:100F80000028F9D06D1CA542F1D3204670BD0000A9
:100F9000001001400FB4054B10B503A9044A029894
:100FA00000F018F810BC5DF814FB00004D29000893
:100FB0003800002002E008C8121F08C1002AFAD138
:100FC00070477047002001E001C1121F002AFBD1C9
:100FD000704700002DE9FF4F8DB09B460F46044639
:100FE000002606E025280BD05A460F999047641C2E
:100FF000761C20780028F5D111B03046BDE8F08F7E
:101000000025A8460122984900E0054314F8013F55
:10101000203B02FA03F00842F7D120782E2817D19E
:1010200014F8010F45F004052A280ED06FF02F02A6
:101030002078A0F1300109290AD808EB880102EBD9
:10104000410100EB0108641CF2E757F8048B641CB3
:1010500020786C280DD004DC4C2812D06A2811D1DD
:1010600004E074280DD07A280CD10AE045F400156C
:1010700007E0617845F48015814202D1641C05F5D2
:101080008015641C2278692A45D008DC002AB3D078
:10109000582A69D0632A10D0642A08D13BE0702A0C
:1010A00067D0732A13D0752A5CD0782A5CD010469A
:1010B0005A460F999047761CD3E017F8040B8DF829
:1010C000000000208DF80100E946012003E057F8F8
:1010D000049B4FF0FF3069074FF0000501D40AE090
:1010E0006D1C45450DDA8542FADB19F8051000291B
:1010F000F6D106E06D1C8542FCDB19F805100029CD
:10110000F8D12E4404E019F8010B5A460F99904784
:101110006D1EF8D2A5E00A200021CDE90801C5F333
:10112000025002280DD001CFC117031E71F1000338
:101130000DDA4FF0000CD0EB0C006CEB01012D230D
:1011400008E0FF1D27F00707F7E80201EDE72B0590
:1011500004D52B238DF8283001233BE0EB0739D051
:101160002023F7E70A2000E010200021CDE9080144
:1011700007E01020002145F00405CDE908014FF0FB
:101180000808C5F3025002280FD001CF00214FF00C
:10119000000A2B071FD5702A0DD0DDE908C38CF09B
:1011A000100C5CEA030C0CD015E0FF1D27F00707BC
:1011B000F7E80201EBE740228DF828204FF0010A02
:1011C0000BE050EA010306D030238DF828308DF86B
:1011D000292002239A46582A04D024A20DF120097E
:1011E0000B9209E026A2F9E7DDE90823FFF705F9EC
:1011F0000B9B9B5C09F8013D50EA0102F4D1ADEB79
:10120000090020300890680701D44FF001080899C0
:10121000884502DDA8EB010000E0002080460025A3
:1012200006E00AA85A46405D0F9990476D1C761C4F
:101230005545F6DB04E030205A460F999047761C5E
:10124000B8F10001A8F10108F5DC05E019F8010B7F
:101250005A460F999047761C0899481E0890002915
:10126000F4DC641CC5E6000009280100303132338B
:1012700034353637383961626364656600000000D2
:1012800030313233343536373839414243444546BC
:101290000000000070B504460D4600202071401E7D
:1012A000E0622946204601F0D9FD08B1032070BD57
:1012B000B4F82E024AF65521884201D00220F6E702
:1012C000D4F8660020F07F400749884201D1002011
:1012D000EDE7D4F8820020F07F400349884201D135
:1012E0000020E4E70120E2E746415400024600E026
:1012F000521C107810B110788842F9D110787047DC
:1013000030B502460B4600200446014621E001EBC1
:1013100041001D4D55F82000C8B101EB410055F8C2
:1013200020001568A84213D101EB4100164D05EBD2
:10133000800040689568A8420AD101EB4100124D37
:1013400005EB80000089D588A84201D103E0012483
:10135000491C0329DBD300BF032906D10CB9022B9A
:1013600001D1002030BD1220FCE743B901EB410060
:10137000054D05EB80004089B0F5807F01D110203C
:10138000F0E70020EEE700005883022010B5014688
:1013900000200DE000EB4002074B53F822208A4268
:1013A00005D1002200EB4003034C44F82320401CED
:1013B0000328EFD310BD0000588302200246891E87
:1013C0005069801E884201D8002070479378906A47
:1013D00001FB0300F9E7000070B51D25084C00E093
:1013E000641E802003F014FD08B9002CF8D114B954
:1013F0001325284670BD034803F004FD2846F9E78D
:10140000A0860100FF07C0002DE9F0470446894689
:10141000B9F1000F06D1E76817B16069B84215D875
:10142000012713E04946204601F099FA0646022EAC
:1014300002D20120BDE8F087701C08B93046F9E7F8
:101440006069B04201D93046F4E74F463D4600BFDF
:101450006D1C6069A84204D80225BD4201D9002054
:10146000E8E72946204601F07AFA064606B909E07F
:10147000701C08B1012E01D13046DBE7BD42E7D137
:101480000020D7E700BF6FF070422946204601F0E8
:101490006BFD8046B8F1000F08D1B9F1000F05D0FF
:1014A0002A464946204601F05FFD8046B8F1000F0C
:1014B0000BD1E5602069401C78B12069401E206195
:1014C000607940F00100607107E0B8F1010F02D1CE
:1014D0004FF0FF3000E0012005462846AAE7000053
:1014E0002DE9F35F0198D0F8009001E009F10109BE
:1014F00099F800002F28F9D099F800005C28F5D061
:10150000009886690B222021304601F09DFC0025C1
:101510002F46AB464FF0080A00BF58460BF1010BAF
:1015200019F80040202C03DD2F2C01D05C2C00D1B9
:1015300053E02E2C01D057450DD3BAF1080F01D13D
:101540002E2C02D00620BDE8FC9F08274FF00B0A86
:10155000A806050EE1E7802C01DB45F00305812C90
:1015600020DBFE2C1EDC58460BF1010B19F8008025
:10157000B8F1400F02DBB8F17E0F05DDB8F1800F46
:1015800006DBB8F1FE0F03DCAAF10100B84201D876
:101590000620D8E738467F1C345438467F1C06F8AE
:1015A000008019E0214620A0FFF7A0FE08B1062028
:1015B000C9E7412C04DB5A2C02DC45F0020508E0A7
:1015C000612C06DB7A2C04DC45F00105A4F1200037
:1015D000C4B238467F1C34549FE700BF09EB0B01AF
:1015E00001980160202C01DC042000E0002004466A
:1015F0000FB90620A7E73078E52801D10520307023
:10160000BAF1080F01D1A806050E05F00300012864
:1016100001D144F0100405F00C00042801D144F07D
:101620000804F47200208EE7222A2B2C3A3B3C3D22
:101630003E3F5B5D7C7F000030B50246531E1A467C
:10164000032B1BD202EB42030D4C04EB830359899D
:10165000B1F5807F00D1002109B14B1E99B202EB98
:101660004203074C04EB8303598129B9002302EBA1
:101670004204034D45F82430002000E0022030BD34
:10168000588302202DE9F04104460E4600212046F1
:1016900000F030F90546EDB9002700BF2169206848
:1016A00001F0DCFB054605B113E060690078E52830
:1016B00002D06069007820B9781C0746B04201D199
:1016C00007E000270121204600F038F80546002DEC
:1016D000E4D000BF042D00D107252846BDE8F081E5
:1016E0002DE9F04104460021204600F003F90546AB
:1016F00015B12846BDE8F08100BF2169206801F0DE
:10170000ADFB054605B116E0666937780FB90425CB
:1017100011E0F07A00F0080030B90B223046A169E0
:1017200001F068FB00B906E00021204600F006F851
:101730000546002DE1D000BF2846DBE72DE9F0414A
:1017400004468846E088461CB0B208B1206910B94A
:101750000420BDE8F08106F00F0000286CD120695C
:10176000401C2061E06828B920680089B04263D835
:101770000420EEE720688078401E00EA161000285A
:101780005AD1E168206801F0EAF80546012D01D838
:101790000220DEE7681C08B90120DAE7206840690A
:1017A000A84243D8B8F1000F01D10420D1E7E16885
:1017B0002068FFF729FE05460DB90720C9E7012D6E
:1017C00001D10220C5E7681C08B90120C1E72068E3
:1017D00003F0CAFB08B10120BBE7216801F130002A
:1017E0004FF40072002101F02FFB29462068FFF71B
:1017F000E5FD2168C86200270EE00120216808711C
:10180000206803F0B1FB08B10120A2E72068C06A9C
:10181000401C2168C8627F1C20688078B842ECD8E0
:101820002068C06AC01B2168C86200BFE560294605
:101830002068FFF7C3FD2061E6802068303006F0A5
:101840000F0100EB41106061002082E72DE9F047B5
:1018500004468946042526E02169206801F0FEFA45
:10186000054605B122E0D4F8148098F800600EB95E
:1018700004251BE098F80B0000F03F07E52E0BD085
:101880002E2E09D00F2F07D0082F01D1012000E004
:101890000020484500D109E000212046FFF74EFF17
:1018A000054605B102E020690028D5D100BF0DB181
:1018B000002020612846BDE8F08770B5044601216C
:1018C0002046FFF7DFFE054695B92169206801F043
:1018D000C5FA054665B920220021606901F0B4FA15
:1018E0000B22D4E9050101F098FA01202168087162
:1018F000284670BD2DE9F04104460E46E680A568F5
:10190000012D03D020684069A84202D80220BDE81A
:10191000F0812DB920680078032801D12068456A3C
:1019200045B920680089B04201D80220EFE720685D
:10193000476A1EE0206880784FEA001812E02946C6
:10194000206801F00CF80546681C08B90120DEE7A4
:10195000022D03D320684069A84201D80220D6E7AF
:10196000A6EB08064645EAD229462068FFF726FD81
:101970000746E5600FB90220C9E707EB16102061A2
:101980002068303006F00F0100EB4110606100204C
:10199000BDE710B5044614B1012C0AD107E002F0EE
:1019A000D3FB1D2801D1002010BD0120FCE704203D
:1019B000FAE700BF00BF0420F6E770B592B0054615
:1019C0000E46144615B1012D20D11DE0684602F0E7
:1019D00039F936B1012E10D0022E05D0032E11D1C7
:1019E00007E0002012B070BD4FF40070208000208E
:1019F000F8E7109820800020F4E70F98400A206054
:101A00000020EFE70420EDE70420EBE70420E9E7FE
:101A10002DE9F0410746884615461E4616B90420B2
:101A2000BDE8F08117B1012F1DD11AE0012E06D1BA
:101A300069027202404601F0A1FD044607E0690216
:101A400033464FF40072404602F08EFC04461D2CD3
:101A500001D00120E4E700BF03F0F0F80028FBD13B
:101A6000DEE70420DCE70420DAE7014611B10129B2
:101A700004D101E0002070470220FCE70220FAE7D1
:101A80002DE9F0410746884615461E4616B9042042
:101A9000BDE8F08117B1012F1DD11AE0012E06D14A
:101AA00069027202404601F075FE044607E06902D1
:101AB00033464FF40072404602F0A4FD04461D2C4C
:101AC00001D00120E4E700BF03F0B8F80028FBD103
:101AD000DEE70420DCE70420DAE710B501EB410281
:101AE000D30000F11002D25822F0010301EB4102B1
:101AF000D40000F11002135110BD10B501EB4102EA
:101B0000D30000F11002D25842F0010301EB410270
:101B1000D40000F11002135110BD30B5134601EB93
:101B20004104E50000F11004625922F0606242EACB
:101B3000436201EB4104E50000F11004625130BD45
:101B400010B501EB4102D30000F11002D25822F08F
:101B5000010301EB4102D40000F1100213510023F4
:101B600001EB4102D40000F11002135101EB4102DC
:101B7000D40000F11402135101EB4102D40000F132
:101B80001802135101EB4102D40000F11C02135161
:101B900001EB4102D40000F12002135101EB41029C
:101BA000D40000F12402135104290CDA01EB4102A4
:101BB0005300C1F3400203EB82033D229A40836845
:101BC0001A4382600DE00A1FD1B201EB41025300BB
:101BD000C1F3400203EB82033D229A40C3681A43DB
:101BE000C26010BD10B504290CDA01EB41035C00A2
:101BF000C1F3400304EB830302FA03F38468234335
:101C000083600DE00B1FD9B201EB41035C00C1F30F
:101C1000400304EB830302FA03F3C4682343C36065
:101C200010BD10B5034604290FDA01EB4100440052
:101C3000C1F3400004EB800402FA04F01C68204069
:101C400008B1012010BD0020FCE7081FC1B201EB64
:101C500041004400C1F3400004EB800402FA04F0A8
:101C60005C68204008B10120ECE70020EAE730B5CD
:101C700072B901EB4103DC0000F110031B5923F0A2
:101C8000200401EB4103DD0000F110035C510DE085
:101C900001EB4103DC0000F110031B5943F0200469
:101CA00001EB4103DD0000F110035C5130BD000089
:101CB00070B501EB4104E50000F124046459156A94
:101CC00045F004052C4301EB4105EE0000F124052D
:101CD000AC5101EB4104E60000F118041568A55170
:101CE00001EB4104E60000F11C04D568A55101EBAD
:101CF0004104E60000F11404D56AA55101EB41044A
:101D0000E50000F110046359414C23401569546803
:101D10002C43156B2C43956A2C4395692C43D5694C
:101D20002C43234301EB4104E50000F1100463510F
:101D3000946874B901EB4104E50000F110046459A2
:101D400044F4007501EB4104E60000F11004A551D4
:101D50001FE09468012C0ED101EB4104E50000F175
:101D60001004645924F4007501EB4104E60000F10D
:101D70001004A5510DE001EB4104E50000F1100451
:101D8000645944F4004501EB4104E60000F11004FD
:101D9000A551546974B901EB4104E50000F1100448
:101DA000645944F4806501EB4104E60000F110043D
:101DB000A5510DE001EB4104E50000F11004645968
:101DC00024F4806501EB4104E60000F11004A55104
:101DD000546A74B901EB4104E50000F11004645940
:101DE00044F4807501EB4104E60000F11004A551B4
:101DF0000DE001EB4104E50000F11004645924F406
:101E0000807501EB4104E60000F11004A55170BD9E
:101E10003F871CFE30B58DB004460D4601220321DC
:101E20002748FFF7DFFE042203212548FFF7DAFEEB
:101E3000082203212248FFF7D5FE10220321204863
:101E4000FFF7D0FE202203211D48FFF7CBFE032120
:101E50001B48FFF742FE03211948FFF771FE19489E
:101E60000090039400200A900B9001200290002023
:101E700005904FF480500190800004904FF4403062
:101E80000C904FF4001007908000069003200890FB
:101E9000012009906A4603210948FFF709FF012242
:101EA00003210748FFF7E3FE042203210448FFF75C
:101EB00034FE03210248FFF720FE0DB030BD0000C4
:101EC00000640240802C014030B58DB004460D46C0
:101ED000012203212748FFF785FE0422032125481C
:101EE000FFF780FE082203212248FFF77BFE102225
:101EF00003212048FFF776FE202203211D48FFF72B
:101F000071FE03211B48FFF7E8FD03211948FFF785
:101F100017FE19480090039440200A9000200B906F
:101F200001200290002005904FF480500190800025
:101F300004904FF440300C904FF400100790800054
:101F4000069001200990032008906A460321094861
:101F5000FFF7AEFE012203210648FFF788FE0422A8
:101F600003210448FFF7D9FD03210248FFF7C5FD0F
:101F70000DB030BD00640240802C0140002100E023
:101F8000491C032906D201EB4100054A52F8200002
:101F90000028F5D1032901D0012070470020FCE77B
:101FA0005883022070B50546284600F04DFA0446D5
:101FB0005CB9284603F0AFF9044634B9686AFFF704
:101FC0003BFB04460CB900202860204670BD70B56C
:101FD0000446204603F09FF9054645B9E06918B16B
:101FE000E069FFF729FB05460DB90020206028466F
:101FF00070BD0000F7B582B016460398019001A8A5
:1020000000F044FD0546002D02DA0B2005B0F0BDBE
:102010000F4850F8254024B12046FFF7B7F90020BB
:102020002070029810B100200299087008490298A7
:1020300041F82500029808B1012E01D00020E5E703
:10204000002203A902A800F047FA07463846DDE758
:102050004C8302202DE9F7438CB0044615461CB989
:1020600009200FB0BDE8F0830020206005F01F05B7
:1020700025F001020DA904A800F02EFA0746002F52
:102080007ED101A80A9004A80D9900F017FC07461C
:10209000099E6FB90EB906270AE025F0010008B1C4
:1020A000012000E00020014604A8FFF729F90746B7
:1020B00005F01C00002847D077B1042F08D1FFF7A6
:1020C0005DFF18B104A8FFF7F8FB00E012200746F7
:1020D00045F00805099E09E0F07A00F0110008B10A
:1020E000072703E005F0040000B108275FBB05F0F7
:1020F000080040B300F09EFC8146C6F80E90002018
:10210000F072F0613146049800F01EFE8046002116
:10211000304602F0E9FE012004990871B8F1000F81
:1021200011D00498D0F82C904146049801F0F0F9B1
:10213000074647B9A8F101000499C86049460498C8
:1021400000F08CFE07460EE06FB9F07A00F0100048
:1021500008B1042707E005F0020020B1F07A00F092
:10216000010000B10727C7B905F0080008B145F024
:1021700020050498C06AE061266225F0010000E0B5
:102180001EE008B1012000E00020014604A800F094
:102190006DFD6062606A00B902278FB9A5710020E9
:1021A000E0713146049800F0CFFD2061F069E060F5
:1021B0000020A060A061049820602068C088A080F2
:1021C00038464EE733B585B0044614B9092007B048
:1021D00030BD002206A904A800F07EF90546002DB6
:1021E00031D10498206001A8A0612046069900F032
:1021F00065FB05460DBB606958B16069C07A00F0A7
:10220000100028B16169049800F09EFDA06000E014
:10221000052595B90498C088A08000212046FFF7C5
:1022200069FB05464DB9A06840B10021204600F089
:102230001DFDE061E06900B9122501E00020E061C8
:10224000042D00D105250DB1002020602846BEE7F1
:102250002DE9FF4F83B0044615469A46DDF810B0CD
:102260000020CAF80000204603F055F802900298BA
:1022700018B1029807B0BDE8F08FE07908B1E079B5
:10228000F8E7A07900F0010008B90720F2E7D4E9E7
:102290000210401A00900098854200D9009DA2E0EB
:1022A0002089C0F3080000287ED120688078401E75
:1022B000A16800EA512000F0FF09B9F1000F17D121
:1022C000A06810B92069019004E06169206800F0FD
:1022D00046FB01900198022802D20220E071C9E772
:1022E0000198401C10B90120E071C3E701986061BA
:1022F00061692068FFF762F8064616B90220E071AE
:10230000B8E74E444FEA5528B8F1000F29D009EB41
:10231000080021688978884203D920688078A0EB7A
:10232000090821684878434632465946FFF770FB52
:1023300010B10120E0719DE7A07900F0400068B184
:10234000A069801B404509D2A169891B0BEB412084
:102350004FF4007204F1280100F05FFD4FEA4827B6
:1023600037E0A069B04220D0A07900F0400078B1F9
:1023700021684878012304F12801A269FFF780FB56
:1023800010B10120E07175E7A07920F04000A07144
:10239000216848780123324604F12801FFF738FB11
:1023A00018B10120E07165E700E0A6612089C0F363
:1023B0000800C0F50077AF4200D92F462089C0F34E
:1023C000080204F1280011183A46584600F025FD8D
:1023D00000BFBB44A0683844A060DAF8000038446D
:1023E000CAF80000ED1B002D7FF45AAF002041E732
:1023F000FEB505460E46284602F08DFF04460CBB8E
:102400002EB900212846FFF775FA04461AE0C5F8F0
:1024100018D000212846FFF719FA0446042C02D1EF
:102420000020286100246CB93146284600F006FBE4
:1024300000212846FFF782F90446042C02D100202F
:10244000286100242046FEBD2DE9F04104462046C7
:1024500002F061FF0646002E3BD1A07900F020007B
:10246000002836D0A07900F0400078B12168487883
:10247000012304F12801A269FFF702FB10B101203A
:10248000BDE8F081A07920F04000A071E1692068EA
:1024900000F0E4FC0646E6B9256AE87A40F0200040
:1024A000E872E068E8612846216902F01DFD00F04D
:1024B000C1FA0746C5F8167000206882A07920F09E
:1024C0002000A071012021680871206802F010FD31
:1024D00006463046D4E700002DE9F74F88B00021CA
:1024E00008980160099800F0D1FA07900798002831
:1024F00003DA0B200BB0BDE8F08F9649079851F82E
:1025000020400CB90C20F5E708980460207878B1D9
:102510006078FFF7AAFA804608F0010040B90A98EF
:1025200020B108F0040008B10A20E3E70020E1E749
:1025300000202070079860706078FFF72AFA8046C4
:1025400008F0010008B10320D4E70A9820B108F090
:10255000040008B10A20CDE7002739462046FEF7DF
:1025600099FE0546012D01D025BB23E000260BE096
:1025700004F5F77101EB0610017909B1816800E0FB
:1025800000214DF82610761C042EF1D3002606B14A
:10259000761E00BF5DF8267027B139462046FEF74B
:1025A00079FE00E0022005461DB1701C0646042895
:1025B000F0D300BF032D01D101209BE70DB10D2009
:1025C00098E7B4F83B00B0F5007F01D00D2091E70B
:1025D000B4F84690B9F1000F01D1D4F85490C4F882
:1025E00018904020005DE070E078012804D0E07889
:1025F000022801D00D207DE7E07809FB00F93D209D
:10260000005DA070A07818B1A078411E084008B104
:102610000D206FE7B4F841002081207A00F00F0010
:1026200008B10D2066E7B4F843B0BBF1000F01D14B
:10263000D4F850B0E08F0490049808B90D2059E701
:1026400004984844218900EB1110069006988345B0
:1026500001D20D204EE70698ABEB0000A178B0FB4D
:10266000F1FABAF1000F01D10D2043E7012540F640
:10267000F670824500D302254FF6F670824500D3EE
:1026800003250AF102006061E76104983844206282
:1026900006983844A062032D09D1208908B10D2085
:1026A00028E7E06D606260698000059014E0208991
:1026B00008B90D201EE7206A48446062022D02D14D
:1026C0006069400007E0207D00F00100616901EBD6
:1026D000410100EB51000590A169059800F2FF103F
:1026E000B1EB502F01D20D2004E74FF0FF302061F5
:1026F000E06080206071032D1FD16020005B012805
:102700001BD1791C204600F0A9FBB0B900206071F4
:10271000B4F82E024AF6552188420ED10E49206B9C
:1027200088420AD10D49D4F81402884205D1D4F860
:1027300018022061D4F81C02E06025700848008867
:10274000401C80B206490880E0802046FEF71EFE4D
:102750000020CFE64C8302205252614172724161E7
:10276000300000200348006840F000400149086044
:1027700070470000103C024010B50346012400BF22
:1027800000F03AF804465B1E012C01D1002BF7D172
:1027900003B90724204610BD30B5044600256FF06C
:1027A0003040FFF7E9FF05460DBB1248006820F0F6
:1027B000F800104908600846006844F00201084328
:1027C0000C4908600846006840F4803008606FF0EB
:1027D0003040FFF7D1FF05460648006820F00200B0
:1027E000044908600846006820F0F80008602846A0
:1027F00030BD0000103C02400020114A116801F475
:1028000080320AB1012019E001F480720AB102207D
:1028100014E001F080020AB103200FE001F0400251
:102820000AB104200AE001F010020AB1052005E017
:1028300001F002020AB1062000E00020704700000B
:102840000C3C02400548006800F0004028B10448F4
:1028500002490C390860034808607047103C024088
:1028600023016745AB89EFCD70B504460D460026C0
:102870006FF03040FFF780FF0646DEB90E48006873
:1028800020F440700C4908600846006840F400706D
:1028900008600846006840F00100086025606FF09D
:1028A0003040FFF769FF06460348006820F001004A
:1028B00001490860304670BD103C02402DE9F341EB
:1028C0000446019800782F2803D0019800785C28EE
:1028D00002D10198401C01900020A060019800786E
:1028E000202807D200212046FFF704F805460020E3
:1028F000606128E000BF01A92046FEF7F1FD054612
:1029000005B11FE02046FEF7EBFE0546A069C67A3A
:102910003DB1042D04D100BF06F0040000B9052527
:1029200010E006F0040000B10CE06769F87A00F0EE
:10293000100008B9052505E03946206800F004FAC2
:10294000A060D8E700BF2846BDE8FC8138B5044642
:102950008DF8000069460320ABBE204638BD2DE946
:10296000F04105460C46022C02D36869A04202D809
:102970000120BDE8F0812878012804D002282AD05F
:10298000032850D13AE0264606EB5606286A00EBAB
:102990005621284600F062FA00B146E0C6F308016D
:1029A00005F13000475C761C286A00EB562128466A
:1029B00000F054FA00B138E0C6F3080105F1300028
:1029C000405C47EA002704F0010008B13809D0E76D
:1029D000C7F30B00CDE7286A00EB1421284600F06E
:1029E0003DFA00B121E040F2FF1000EA440105F198
:1029F000300001EB0008B8F80000BAE7286A00EBE5
:102A0000D411284600F02AFA00B10EE040F2FF107F
:102A100000EA840105F1300001EB0008D8F800005D
:102A200020F07040A5E70120A3E700BF4FF0FF3082
:102A30009FE70000004870470000E244F0B50446FC
:102A400001F109002269F2B16269002310E01E461B
:102A50005B1C955D202D00D10AE0052D00D1E525F8
:102A6000092B02D12E2600F8016B00F8015B00BF94
:102A70000B2BECD3D67A0E72D6690E60168B8E8035
:102A8000D68ACE8000BF00220270F0BD70B502462B
:102A90004FF0FF301568E5B1116800E0491C0D7872
:102AA000212D02D30D783A2DF8D10D783A2D0FD182
:102AB000146814F8015BA5F130030A2B07D28C428D
:102AC00005D1032B03D218464D1C2946156070BD55
:102AD000002000BFFBE7F0B503461C6A5D6A0020DA
:102AE0000DE00126864016403EB187000F26BE400D
:102AF000B443860001FA06F63443461CB0B20828F7
:102B0000EFD3082011E00126864016405EB1A0F107
:102B10000806B7000F26BE40B543A0F10806B60070
:102B200001FA06F63543461CB0B21028EBD31C62FE
:102B30005D62F0BD10B510220C212448FFF7CBFFD9
:102B40004FF4F0520C212248FFF7C5FF04220C215C
:102B50002048FFF7C0FF1023012202211B4800F08C
:102B60003DF8102303220021184800F05EF84FF4CE
:102B7000606301220221164800F030F84FF46063D0
:102B800003220021124800F050F84FF48053002235
:102B900002210F4800F022F84FF480530322002155
:102BA0000B4800F042F8042301220221094800F0FA
:102BB00015F8042303220021064800F036F8042308
:102BC00001220021044800F009F810BD0004024071
:102BD00000080240000C024000100240F0B504461C
:102BE0000D4616462168E268002019E0012787405B
:102BF0001F409FB14FEA400C032707FA0CF7B94377
:102C0000470005FA07F739434FEA400C032707FA54
:102C10000CF7BA43470006FA07F73A43471CB8B225
:102C20001028E3D32160E260F0BDF0B50C461546F4
:102C3000012C03D146681E43466002E046689E436D
:102C40004660826800210DE001268E401E403EB1A4
:102C50004F000326BE40B2434E0005FA06F632434B
:102C60004E1CB1B21029EFD38260F0BD30B50246E0
:102C70000B4600211BE001EB4100324C54F82000D0
:102C80001468A04212D101EB41002E4C04EB8000ED
:102C900040689468A04209D101EB4100294C04EB43
:102CA00080000089D488A04200D102E0491C032999
:102CB000E1D300BF032927D1002100E0491C0329EB
:102CC00006D201EB41001F4C54F820000028F5D13A
:102CD000032901D1002030BD01EB4104194D1068DA
:102CE00045F8240001EB410405EB84049068606022
:102CF000D08801EB410405EB84042081002001EB26
:102D0000410405EB8404608143B101EB41000D4CAB
:102D100004EB8000408908B10020DCE713B14FF4D8
:102D2000807006E001EB4100064C04EB8000408916
:102D3000401C01EB4104034D05EB84046081481CF9
:102D4000C9E70000588302200246488B1378032B02
:102D500002D18B8A40EA034070470000ADF58C6DCC
:102D6000FDF79BFFFDF7A7FF11A0FEF773F810A07A
:102D7000FEF770F80F48FEF76DF801220EA16846C5
:102D8000FFF738F904461CB10CA0FEF763F805E024
:102D90000FA0FEF75FF813A0FDF7F2FB002206A1DB
:102DA0006846FFF727F91248FDF722FF00BFFEE74C
:102DB0000D0A000058530008303A000020B9D2D460
:102DC000D8CEC4BCFECFB5CDB3CAA7B0DC0D0A00C7
:102DD00020B9D2D4D8CEC4BCFECFB5CDB3B3C9B917
:102DE000A60D0A00303A2F555044415445000000CA
:102DF00000000408F0B503461C460D46002000BF45
:102E0000161EA2F1010207D014F8017B15F801CBC0
:102E1000A7EB0C06301EF3D0F0BD70B503460C4690
:102E20001846214604E00D680560001D091D121FAB
:102E3000042AF8D203E011F8015B00F8015B151ECB
:102E4000A2F10102F7D170BD30B5034601E003F8ED
:102E5000011B141EA2F10102F9D130BD70B5044668
:102E60000D46E06AA84210D0204602F07DF808B175
:102E7000012070BD607801232A4604F13001FEF77D
:102E8000C7FD08B10120F4E7E5620020F1E700008A
:102E90002DE9F04103460D46164600240027A046C2
:102EA0002A48006800F4E060B0F5E06F03D100BF8D
:102EB0004FF0040830E02548006800F4E060B0F509
:102EC000C06F03D101274FF0030825E01F480068B9
:102ED00000F4E060B0F5A06F02D10227B8461BE015
:102EE0001A48006800F4E060B0F5806F03D1032752
:102EF0004FF0010810E01548006800F4E060B0F5FC
:102F0000407F03D104274FF0000805E04FF4A06094
:102F100000F020F80227B846C7F1040005FA00F4D3
:102F2000C8F104010F20C840304004432401084880
:102F3000C45403F01F01012088405911890001F198
:102F4000E021C1F80001BDE8F08100000CED00E0D7
:102F500000E400E002490143024A116070470000AA
:102F60000000FA050CED00E02DE9F04704460D469F
:102F70009046022D02D36069A84201D8022773E06F
:102F80002078012804D002283ED0032867D14EE0E3
:102F9000A94609EB5909206A00EB59212046FFF7A1
:102FA0005DFF074607B15CE0C9F3080104F130009A
:102FB0000E1805F0010028B108F0FF01307861F328
:102FC0001F1000E04046307009F101090120207116
:102FD000206A00EB59212046FFF740FF074607B162
:102FE0003FE0C9F3080104F130000E1805F00100BC
:102FF00010B1C8F3071005E0307800F0F000C8F316
:103000000321084330702CE0206A00EB1521204694
:10301000FFF724FF074607B123E040F2FF1000EA64
:10302000450104F130000E18A6F8008019E0206A6E
:1030300000EBD5112046FFF711FF074607B110E05E
:1030400040F2FF1000EA850104F130000E183068EC
:1030500000F0704040EA0808C6F8008001E002274E
:1030600000BF00BF012020713846BDE8F087000096
:103070002DE9F04105461D27002400261A48046862
:1030800001E01948046804F045000028F9D004F074
:10309000010030B11127012001F0B4FE3846BDE82F
:1030A000F08104F0040028B11327042001F0AAFEE7
:1030B0003846F4E701F010FEA84202D0082738464F
:1030C000EDE70A4801F09EFE002001F0E1FE064611
:1030D0000748304010B91D273846E0E7304600F079
:1030E00009F807463846DAE7342C0140FF07C000EC
:1030F00008E0F9FD01461C2001F000420AB1002061
:103100004EE001F080420AB1012049E001F0005296
:103110000AB1022044E001F080520AB103203FE0EE
:1031200001F000620AB104203AE001F080620AB1C5
:10313000052035E001F080720AB1062030E001F48C
:1031400000020AB107202BE001F480020AB1082036
:1031500026E001F400120AB1092021E001F48012F6
:103160000AB10A201CE001F400220AB10B2017E08A
:1031700001F480320AB10C2012E001F400420AB1DD
:103180000D200DE001F480420AB10E2008E001F4A8
:1031900000520AB10F2003E001F0080202B1102032
:1031A0007047000070B51D2500241048046801E038
:1031B0000E48046804F045000028F9D004F001002E
:1031C00028B11125012001F01DFE284670BD04F034
:1031D000040028B11325042001F014FE2846F5E769
:1031E000034801F00FFE2846F0E70000342C0140B0
:1031F000FF07C00070B51D2500240B48046801E0DE
:103200000948046804F045000028F9D004F00400DF
:1032100028B11325042001F0F5FD284670BD0348B0
:1032200001F0F0FD2846F9E7342C0140FF07C0000B
:103230002DE9F04107460E464FF01D0800250024F9
:103240002348056801E02248056805F0450000288C
:10325000F9D005F0010038B14FF01108012001F05C
:10326000D1FD4046BDE8F08105F0040030B14FF0DB
:103270001308042001F0C6FD4046F3E701F02CFDE1
:10328000B84203D04FF008084046EBE7114801F080
:10329000B9FD002001F0FCFD044604F4604018B9BB
:1032A000200C30804046DDE704F4004010B14FF0C0
:1032B00007080AE004F4804010B14FF0080804E069
:1032C00004F4005008B14FF00B084046CAE7000074
:1032D000342C0140FF07C00070B51C260024104D9F
:1032E0001048046802E00F4804686D1E04F04500B1
:1032F00008B9002DF7D104F0040000B92DB9132648
:10330000042001F07FFD304670BD04F0400028B17C
:103310001D26402001F076FD3046F5E73046F3E704
:10332000A0860100342C01402DE9F04F8CB00646F8
:1033300000200A903EA090E8004CC068CDE905BE90
:10334000CDF810A007900FF2EC0ADAE9000ACDE9F7
:10335000020A0FF2E00ADAE9000ACDE9000A384869
:103360000068C0F381000B900B9820B1012804D0B5
:10337000022828D103E0334927E0334925E03048CB
:10338000001F006800F03F072D48001F0068C0F3D1
:10339000881C2B48001F0068C0F30140401C4FEA06
:1033A00040092748001F006800F48008B8F5800F26
:1033B00001D1254B00E0234BB3FBF7F000FB0CF0F1
:1033C000B0FBF9F101E01F4900BF00BF1C480068D5
:1033D000C0F3031404A8055D21FA05F2184800683B
:1033E000C0F3822402A8055D22FA05F00990144872
:1033F0000068C0F342341DF8045022FA05F008902A
:1034000036B1012E06D0022E06D0032E0AD106E0D8
:103410000A9108E00A9206E009980A9003E00898E9
:103420000A9000E000BF00BF0A980CB0BDE8F08F22
:103430000000000000000000010203040607080964
:10344000083802400024F40040787D0110B540F6B1
:10345000014000F015F840F6024000F011F840F687
:10346000034000F00DF840F6044000F009F841F286
:103470000B1000F005F840F6164000F001F810BD02
:10348000074A02EB9011D1F8001800F01F03012247
:103490009A401143024B03EB9012C2F80018704798
:1034A00000300240074A02EB9011D1F8001800F0FA
:1034B0001F0301229A409143024B03EB9012C2F882
:1034C0000018704700300240074A02EB9011D1F813
:1034D000001800F01F0301229A401143024B03EB36
:1034E0009012C2F800187047003002406FF08071EF
:1034F000884205D1054909680140044A116004E089
:10350000024909680143014A116070478C38024042
:103510002DE9F04104460E46022E02D36069B04206
:1035200001D8022727E0002721E031462046FFF797
:1035300016FA054605B91DE0012D01D1022719E053
:10354000681C08B9012715E0002231462046FFF724
:103550000BFD074607B10DE02069401C30B1206922
:10356000401C2061607940F0010060712E46606966
:10357000B042DAD800BF3846BDE8F0812DE9F84FF7
:103580000646894614461D274FF000084FF0000AF2
:103590004FF0000B3546002000901EB91927384621
:1035A000BDE8F88F1D20724908700020714908603D
:1035B0007149086000221146104601F0B9FB002154
:1035C000084601F0D9FB01F009FC01F0F3FB0020F3
:1035D00001F05EFC00F0007010B106273846DFE70E
:1035E00066480078022802D104024FEA5929601E79
:1035F00000EA040A002C1BDDB4F5006F18DCBAF1F8
:10360000000F15D1204600F0E7FD834640222146F9
:10361000102001F067FB002001F058FC01F07EFB58
:103620001020FFF725FD07461D2F04D03846B7E7C9
:1036300019273846B4E70020514908604E48046015
:103640005A4601684FF0FF3001F072FB0021022062
:1036500001F092FB01F0CCFB40224946112001F021
:1036600041FB002001F032FC01F058FB1120FFF774
:10367000FFFC07461D2F01D0384691E741480068FE
:10368000012851D111E04FF4004001F0C1FB60B1BD
:103690004FF0000805E001F069FB45F8280008F14B
:1036A0000108B8F1080FF6D3203540F22A6001F086
:1036B000AFFB0028E7D0022001F0AAFB28B11227B7
:1036C000022001F09FFB38466AE7082001F0A0FBCA
:1036D00028B11427082001F095FB384660E7202028
:1036E00001F096FB28B11627202001F08BFB38460D
:1036F00056E74FF4007001F08BFB30B117274FF401
:10370000007001F07FFB38464AE703E001F02EFB32
:1037100028602D1D4FF4001001F07AFB0028F5D130
:10372000194801F06FFB21E016480068E8B940F243
:10373000293001F089FB01F047FB21463046FEF7B6
:1037400069FB1248009006E00098401E0090009827
:1037500008B91C2024E7202203210D48FEF761FA56
:1037600020B900980028EFD100E01927384617E764
:1037700024000020280000201C000020140000204D
:103780002000002018000020FF07C000A0860100D4
:10379000006402402DE9F04F85B081468A46144608
:1037A0001D25002004900026834603904F46804646
:1037B000029001900090B9F1000F04D1192528461C
:1037C00005B0BDE8F08F1D20B04908700020B04959
:1037D0000860B049086000221146104601F0A8FABE
:1037E0000021084601F0C8FA01F0F8FA01F0E2FA07
:1037F000002001F04DFB00F0007010B106252846B6
:10380000DEE7A5480078022802D104024FEA5A2ACE
:10381000601E00EA040B002C1BDDB4F5006F18DC01
:10382000BBF1000F15D1204600F0D6FC03904022DA
:103830002146102001F056FA002001F047FB01F06C
:103840006DFA1020FFF714FC05461D2D04D0284604
:10385000B6E719252846B3E79048008801044022BE
:103860000D2001F03FFA002001F030FB01F056FA84
:103870000D20FFF7FDFB05461D2D01D028469FE7D3
:10388000002001F005FB0190854800901AE00098A7
:10389000401E009081480088010440220D2001F064
:1038A00021FA002001F012FB01F038FA0D20FFF799
:1038B000DFFB05461D2D01D0284681E7002001F0E1
:1038C000E7FA0190019800F4807010B90098002880
:1038D000DDD1009808B91C2072E74022514618201B
:1038E00001F000FA002001F0F1FA01F017FA1820B7
:1038F000FFF7BEFB05461D2D01D0284660E70020DE
:103900006849086063480460039A01684FF0FF301B
:1039100001F00EFA0021084601F02EFA01F068FAD3
:1039200061480068012865D134E04FF4804001F01F
:103930006FFA78B357480068A0EB080020281DD222
:1039400054480078A0EB080000F0030008B1012003
:1039500000E000204F490968A1EB080100EB91004D
:103960000290002606E0386801F014FA3F1D08F1C5
:103970000408761C029886420CD2F4E7002604E084
:1039800057F8260001F006FA761C082EF8D32037E7
:1039900008F1200840F21A6001F03AFA0028C4D079
:1039A000022001F035FA28B11225022001F02AFA8E
:1039B000284605E7082001F02BFA28B11425082035
:1039C00001F020FA2846FBE6102001F021FA28B188
:1039D0001525102001F016FA2846F1E64FF4007084
:1039E00001F016FAA8B317254FF4007001F00AFA97
:1039F0002846E5E62C48006860BB40F21A3001F02A
:103A000023FA21464846FEF75FFA01F0DDF9244823
:103A1000009006E00098401E0090009808B91C2015
:103A2000CEE6202203212148FEF7FBF810B90098CA
:103A30000028EFD100BF1648006818B91348007875
:103A40001D28F8D0114800781D2807D00F480078AD
:103A5000B6E603E0FFE719252846B1E6144801F071
:103A6000D1F904A800F0F0FA054603E004A800F03C
:103A7000EBFA05461D2D07D19DF810000728F5D05B
:103A80009DF810000628F1D0284699E62400002071
:103A9000280000201C000020140000201600002038
:103AA000A0860100200000201800002000640240D1
:103AB000FF07C00070B504461D2522480078052880
:103AC00002D11B25284670BD1E48007838B11D481C
:103AD0000078012803D01B480078022830D1B4F5C3
:103AE000805F02D11B252846EDE7B4F5006F12D1A7
:103AF0004FF4802000F028F805461D2D20D1022328
:103B000000221146104601F0C3F8204601F0B2F839
:103B100001F088F914E094B94FF4803000F014F803
:103B200005461D2D0CD1022300221146104601F03E
:103B3000AFF8204601F09EF801F074F900E0192575
:103B40002846C0E71400002070B505461D2400205B
:103B500001F09EF900F0007010B10624204670BDFF
:103B600036493748008800F0AFFF04461D2C01D0CD
:103B70002046F4E7B5F5803F2CD130484068284016
:103B800028B32F48008801044022372001F0AAF80A
:103B9000002001F09BF901F0C1F83720FFF768FA27
:103BA00004461D2C01D02046D9E7402200210620E2
:103BB00001F098F8002001F089F901F0AFF8062033
:103BC000FFF756FA04461D2C02D02046C7E71A24F8
:103BD0002046C4E7B5F5802F2CD11848406828400E
:103BE00028B31748008801044022372001F07AF8F2
:103BF000002001F06BF901F091F83720FFF738FA57
:103C000004461D2C01D02046A9E7402202210620AF
:103C100001F068F8002001F059F901F07FF8062062
:103C2000FFF726FA04461D2C02D0204697E71A24F7
:103C3000204694E71924204691E700000C0000205C
:103C40001600002030B501461D20002209B91920B8
:103C500030BDA84B1B7881F83830A74B1B88A1F8E2
:103C60004430A64B1B681A0E0A70A44B1B68C3F3A2
:103C7000074213024B80A14B1B88C3F307224B88DA
:103C800013434B809D4B1A7813064B609B4B5B682C
:103C90001A0E4B6843EA02434B60984B5B68C3F3D0
:103CA00007424B6843EA02234B60944B9B88C3F363
:103CB00007224B6813434B60904B1A790A729B683A
:103CC0001A0E4A728D4B9B68C3F307421306CB60F2
:103CD0008A4B1B89C3F30722CB6843EA0243CB60BC
:103CE000864B1A7ACB681343CB60844BDB681A0E81
:103CF000CB681343CB60814BDB68C3F3074202F010
:103D00000F034FF6FF7404EA03230B827B4B9B895E
:103D1000C3F307220B8A13430B82784B1A7B530899
:103D20008B74774B1B681A0E93090B75744B1B68C9
:103D3000C3F307424A75724B1B88C3F307228A7587
:103D40006F4B1A78CA755B681A0E14010C836C4BA2
:103D50005B68C3F307420B8B43EA12140C8302F037
:103D60000F048C76664B9B88C3F30722D409CC766C
:103D7000C2F380140C77C2F340144C77C2F30014E2
:103D80008C775C4B1B781BB15A4B1B78012B44D1B1
:103D900093071C0D0C625A4B1A790B6A43EA820492
:103DA0000C62574B9B681A0E0B6A43EA92140C6222
:103DB000C2F3C20424235C5402F0070425235C549C
:103DC0004F4B9B68C3F30742540926235C54C2F34C
:103DD000820427235C5493075C0F28235C54484BD0
:103DE0001B89C3F3072228235B5C43EAD2142823F0
:103DF0005C548C7E0123A3400B640B6A5B1CCB6379
:103E00002824645CA41C0125A540CB6B6B43CB63C9
:103E1000D1E90F346343CB631DE0364B1B78022B93
:103E200019D1374B1A7993069C0A0C62344B9B6864
:103E30001A0E0B6A43EA02240C62314B9B68C3F3EF
:103E400007420B6A13430B624FF400730B640B6A57
:103E50005B1CDB04CB63C2F3801429235C54930600
:103E60005C0E2A235C54264B1A7A2A235B5C43EAB5
:103E7000D2142A235C5402F07F042B235C54204B81
:103E8000DB681A0ED4092C235C54C2F382042D2360
:103E90005C5493071C0F2E235C54194BDB68C3F34F
:103EA00007422E235B5C43EA92142E235C54C2F338
:103EB00040142F235C54124B9B89C3F30722D4096F
:103EC00030235C54C2F3801431235C54C2F3401499
:103ED00032235C54C2F3001433235C54C2F38104D4
:103EE00081F83440064B1A7B540881F8354000BFF6
:103EF000AEE600001400002016000020B48200206E
:103F0000A482002038B51D240120009000F0B4FFE9
:103F100010B91A24204638BD3D480078032824D023
:103F2000C0220021022000F0DDFE002000F0CEFFC4
:103F300000F0F4FEFFF736F904461D2C01D02046B0
:103F4000E9E7002000F0A4FF32490860012000F0FA
:103F50009FFF30494860022000F09AFF2D49886099
:103F6000032000F095FF2B49C8602948007858B11C
:103F700027480078012807D025480078022803D078
:103F800023480078042812D140220021032000F0A9
:103F9000A9FE002000F09AFF00F0C0FE6946032051
:103FA000FFF746F904461D2C01D02046B3E7184818
:103FB000007803282AD0BDF8000017490880BDF812
:103FC00000000104C022092000F08CFE002000F057
:103FD0007DFF00F0A3FEFFF7E5F804461D2C01D09D
:103FE000204698E7002000F053FF0C4908600120AC
:103FF00000F04EFF09494860022000F049FF0749E0
:104000008860032000F044FF0449C860204682E72E
:1040100014000020B482002016000020A48200209A
:1040200070B504461D2521044022072000F05AFEE9
:10403000002000F04BFF00F071FE0720FFF718F89A
:104040000546284670BD00007CB504461D250020AD
:104050000190009026480088010440220D2000F0C5
:1040600041FE002000F032FF00F058FE21480068B9
:10407000019002E01F4800680190019800F045009F
:104080000028F7D0019800F0010028B11125012087
:1040900000F0B8FE28467CBD019800F0040028B16D
:1040A0001325042000F0AEFE2846F4E700F014FECD
:1040B000019001980D2802D008252846EBE70E480C
:1040C00000F0A0FE002000F0E3FE00900098C0F396
:1040D0004320207009490098084010B91D25284642
:1040E000D9E70098FFF706F805462846D3E7000011
:1040F00016000020342C0140FF07C00008E0F9FD45
:1041000070B504461D2514B91925284670BD0D4803
:104110000088010440220D2000F0E4FD002000F0A2
:10412000D5FE00F0FBFD0D20FEF7A2FF05461D2D7C
:1041300001D02846EAE7002000F0AAFE20602846C9
:10414000E4E700001600002038B51D240020009090
:1041500000F04EF804461D2C03D11848FFF772FDFD
:1041600004461D2C05D11549B1F84400FFF758FF4E
:1041700004466846FFF7C4FF0446009800F000704C
:1041800020B10FA0FCF706FF00BFFEE71D2C08D1F1
:10419000009800F0007020B94FF40060FFF78AFC2F
:1041A00004461D2C03D1002000F03CFD04460022F3
:1041B00001213120FEF76CFE204638BDC48200206C
:1041C0000D0A205468652063617264206973206C55
:1041D0006F636B65642100000146002202E0491014
:1041E000501CC2B20129FAD1F02000EA0210704737
:1041F00010B51D24FFF72AF9FEF79CFC00F0D0FD56
:1042000000F0CCFB04461D2C01D0204610BDFFF76A
:1042100079FE04461D2C01D02046F7E70223002238
:104220001146104600F034FD002000F023FD00F0A0
:10423000F9FD2046EAE7000010B51D204649087048
:104240004FF4807000F00EFEE0B144480068012891
:1042500004D100F0FDFC4049087002E01D203E49F9
:1042600008704FF4807000F0F7FD4CF23A3000F027
:10427000E3FD01203A49086000203A4908603648C9
:10428000007810BD022000F0EDFD78B1022000F0B2
:10429000E3FD4CF23A3000F0CFFD002031490860D8
:1042A00012202D49087008460078EAE7082000F03F
:1042B000D9FD78B1082000F0CFFD4CF23A3000F083
:1042C000BBFD0020274908601420234908700846D8
:1042D0000078D6E74FF4007000F0C4FD80B14FF4D1
:1042E000007000F0B9FD4CF23A3000F0A5FD00205E
:1042F0001C49086017201849087008460078C0E774
:10430000102000F0AFFD78B1102000F0A5FD4CF2B8
:104310003A3000F091FD00201249086015200E4946
:10432000087008460078ACE7202000F09BFD78B1CB
:10433000202000F091FD4CF23A3000F07DFD00208D
:10434000084908601620044908700846007898E774
:104350000148007895E7000024000020200000209C
:10436000280000202C0000202DE9FC5F80468A46B2
:1043700014461E461D274FF000094FF0000B002089
:10438000019045460090B8F1000F03D11927384637
:10439000BDE8FC9F1D2092490870002091490860EB
:1043A0009149086000221146104600F0C1FC00212E
:1043B000084600F0E1FC00F011FD00F0FBFC0020DD
:1043C00000F066FD00F0007010B106273846DFE708
:1043D00086480078022802D104024FEA5A2A601E59
:1043E00000EA040B002C1BDDB4F5006F18DCBBF1F8
:1043F000000F15D12046FFF7EFFE01904022214625
:10440000102000F06FFC002000F060FD00F086FC42
:104410001020FEF72DFE07461D2F04D03846B7E7C3
:1044200019273846B4E7012E74D906FB04F0B0F121
:10443000007F02D319273846AAE701206C4908609B
:1044400006FB04F0684908600846019A01684FF0CD
:10445000FF3000F06DFC0021022000F08DFC00F028
:10446000C7FC40225146122000F03CFC002000F026
:104470002DFD00F053FC1220FEF7FAFD07461D2F1C
:1044800001D0384684E75B480068012875D111E007
:104490004FF4004000F0BCFC60B14FF0000905E0B3
:1044A00000F064FC45F8290009F10109B9F1080F91
:1044B000F6D3203540F22A3000F0AAFC0028E7D0DD
:1044C000022000F0A5FC28B11227022000F09AFC7F
:1044D00038465DE7082000F09BFC28B1142708202F
:1044E00000F090FC384653E7202000F091FC28B102
:1044F0001627202000F086FC384649E74FF400706C
:1045000000F086FC38B117274FF4007000F07AFCF9
:1045100038463DE762E003E000F028FC28602D1DEE
:104520004FF4001000F074FC0028F5D14FF48070B7
:1045300000F06EFCE8B12D48007838B12B480078C7
:10454000012803D029480078022812D140220021F6
:104550000C2000F0C7FB002000F0B8FC00F0DEFBF0
:104560000C20FEF785FD07461D2F02D038460FE7C9
:1045700003E0214800F046FC30E01E48006860BBC4
:1045800040F22A3000F060FC00F01EFC1648016882
:104590004046FDF73FFC1948009006E00098401E99
:1045A0000090009808B91C20F2E62022032114484C
:1045B000FDF737FB10B900980028EFD100BF09487C
:1045C000006818B9064800781D28F8D0044800781B
:1045D0001D2803D002480078DAE619273846D7E6C6
:1045E00024000020280000201C00002014000020CF
:1045F0002000002018000020FF07C000A086010056
:10460000006402402DE9F04F85B082468B46144687
:104610001E461D2500200490002703900290D046DE
:10462000814601900090BAF1000F04D11925284667
:1046300005B0BDE8F08F1D20CE4908700020CE499E
:104640000860CE49086000221146104600F070FB59
:104650000021084600F090FB00F0C0FB00F0AAFB30
:10466000002000F015FC00F0007010B1062528466F
:10467000DEE7C3480078022802D104024FEA5B2B30
:10468000601E20400390002C1ADDB4F5006F17DC8B
:104690000398A8B92046FFF79FFD029040222146CB
:1046A000102000F01FFB002000F010FC00F036FB93
:1046B0001020FEF7DDFC05461D2D04D02846B7E787
:1046C00019252846B4E7AF480088010440220D2090
:1046D00000F008FB002000F0F9FB00F01FFB0D20AC
:1046E000FEF7C6FC05461D2D01D02846A0E7012E89
:1046F00070D906FB04F0B0F1007F02D319252846DB
:1047000096E79F48007838B19D480078012803D08B
:104710009B480078022825D19A480088010440224D
:10472000372000F0DFFA002000F0D0FB00F0F6FAAE
:104730003720FEF79DFC05461D2D01D0284677E762
:1047400040223146172000F0CDFA002000F0BEFBD9
:1047500000F0E4FA1720FEF78BFC05461D2D01D072
:10476000284665E740225946192000F0BBFA002090
:1047700000F0ACFB00F0D2FA1920FEF779FC0546F8
:104780001D2D01D0284653E701207F49086006FB14
:1047900004F07A4908600846029A01684FF0FF3039
:1047A00000F0C6FA0021084600F0E6FA00F020FB0F
:1047B0007648006801287DD138E04FF4804000F051
:1047C00027FB98B36D480068A0EB090020280ED3A2
:1047D000002705E0B5E058F8270000F0DBFA7F1C61
:1047E000082FF8D308F1200809F120091EE06348DA
:1047F0000078A0EB090000F0030008B1012000E000
:1048000000205E490968A1EB090100EB91000190CD
:10481000002708E0D8F8000000F0BCFA08F104080E
:1048200009F104097F1C01988742F3D340F21A3042
:1048300000F0EEFA0028C0D0022000F0E9FA28B11A
:104840001225022000F0DEFA2846F1E6082000F0EA
:10485000DFFA28B11425082000F0D4FA2846E7E64C
:10486000102000F0D5FA28B11525102000F0CAFA62
:104870002846DDE64FF4007000F0CAFA30B1172583
:104880004FF4007000F0BEFA2846D1E64FF4807075
:1048900000F0BEFAF0B13A48007838B138480078F4
:1048A000012803D036480078022813D14022002185
:1048B0000C2000E012E000F015FA002000F006FBEA
:1048C00000F02CFA0C20FEF7D3FB05461D2D01D07D
:1048D0002846ADE62E4800F095FA32E02B480068F5
:1048E00060BB40F21A3000F0AFFA00F06DFA2348D6
:1048F00001685046FDF7E8FA2648009006E0009867
:10490000401E0090009808B91C2091E62022032147
:104910002148FDF786F910B900980028EFD100BFB3
:104920001548006818B9134800781D28F8D01148B8
:1049300000781D2805D00F48007879E6192528460B
:1049400076E6134800F05EFA04A8FFF77DFB054603
:1049500003E004A8FFF778FB05461D2D07D19DF85D
:1049600010000728F5D09DF810000628F1D0284641
:104970005EE6000024000020280000201C0000202B
:104980001400002016000020200000201800002045
:10499000FF07C000400D0300006402402DE9F04114
:1049A0001D240027002600254FF000087623002252
:1049B0001146104600F06CF9002000F05BF900F0A1
:1049C00031FA032000F05EFA00F07CF90022114673
:1049D000104600F087F9002000F078FA00F09EF908
:1049E000FCF7FAFC04461D2C02D02046BDE8F081FD
:1049F00040224FF4D571082000F074F9002000F037
:104A000065FA00F08BF9FEF767FC1D2803D1012041
:104A10002B490870870740220021372000F062F9F7
:104A2000002000F053FA00F079F93720FEF720FB60
:104A30001D2842D12CE040220021372000F052F9FD
:104A4000002000F043FA00F069F93720FEF710FB70
:104A500004461D2C01D02046C8E71A4847EA000149
:104A60004022292000F03EF9002000F02FFA00F04B
:104A700055F9FEF7BFFB04461D2C01D02046B5E7D3
:104A8000002000F005FA0646012000EAD6786D1CE9
:104A9000B8F1000F03D14FF6FF708542CBD34FF62C
:104AA000FF70854202D3182420469FE706F080401D
:104AB000061E02D0022002490870204696E7000038
:104AC00014000020000010802DE9FC4106460D4630
:104AD0001D24002000900190002740220821102072
:104AE00000F000F9002000F0F1F900F017F91020B3
:104AF000FEF7BEFA04461D2C02D02046BDE8FC811C
:104B000031044022372000F0EDF8002000F0DEF9FB
:104B100000F004F93720FEF7ABFA04461D2C01D053
:104B20002046EBE7302208214FF0FF3000F000F97B
:104B30000221002000F020F900F05AF94022002163
:104B4000332000F0CFF8002000F0C0F900F0E6F8C4
:104B50003320FEF78DFA04461D2C01D02046CDE708
:104B600009E04FF4001000F053F920B100F0FEF816
:104B70004DF827007F1C40F22A6000F049F9002818
:104B8000EFD0022000F044F928B11224022000F0F6
:104B900039F92046B2E7082000F03AF928B1142488
:104BA000082000F02FF92046A8E7202000F030F977
:104BB00028B11624202000F025F920469EE74FF466
:104BC000007000F025F930B117244FF4007000F0A8
:104BD00019F9204692E7124800F014F901980006EE
:104BE000019901F47F4140EA0120019901F47F011C
:104BF00040EA1120019940EA1160286000980006FF
:104C0000009901F47F4140EA0120009901F47F01FD
:104C100040EA1120009940EA1160686020466DE783
:104C2000FF07C00001461D2009B1012902D1024A37
:104C3000116000E0192070471800002010B5002412
:104C40004FF4405000F0E4F800B10124204610BDBC
:104C500010B51D24402200210C2000F043F8002054
:104C600000F034F900F05AF80C20FEF701FA04467F
:104C7000204610BD0549096821F4C051034A11605E
:104C8000114609680143116070470000042C01407F
:104C900030B504460020094D2868094D2840FF2BF7
:104CA00004D940F00040A3F58075ABB244EA010599
:104CB00015431D432843014D286030BD042C01409D
:104CC00000D9FF7F0348006840F480700149086004
:104CD00070470000042C014001480068C0B27047D2
:104CE000102C014030B5034600200B4C246824F4FE
:104CF0008064094D2C602C1F246800242D1F2C601B
:104D00002C462160241D206820F0FF0043EA0204A5
:104D100020432C1D206030BD0C2C0140034800684E
:104D200040F4806001490860704700000C2C01408D
:104D300010B50D4B1B6800230B4C2360231D1B6813
:104D400003F07E43241D2360231D1B6823F0F00322
:104D5000241D2360044B18601B1D19601B1D1B685C
:104D60001343236010BD0000242C0140014800685B
:104D700070470000802C014002460020044B186858
:104D800020F0060042EA01031843014B1860704707
:104D90002C2C01400149086070470000802C014024
:104DA00010B540F60B10FEF78FFB40F60B10FEF728
:104DB00079FB10BD0348006820F008000149086035
:104DC000704700002C2C01400348006840F00800A8
:104DD00001490860704700002C2C0140034800681E
:104DE00020F0010001490860704700002C2C0140B0
:104DF0000348006840F00100014908607047000066
:104E00002C2C01400149086070470000382C0140FB
:104E100001460020024A12680A4002B10120704790
:104E2000342C01400348006820F4804001490860A8
:104E300070470000042C0140024909688143014A7F
:104E4000116070473C2C0140024909680143014A46
:104E5000116070473C2C0140014908607047000018
:104E6000382C014001460020024A12680A4002B173
:104E700001207047342C0140014800687047000051
:104E8000002C01400149086070470000002C0140DF
:104E90000146002031B1012907D0022909D0032998
:104EA0000FD10AE0084A10680CE0074A121D10688A
:104EB00008E0054A0832106804E0034A0C32106822
:104EC00000E000BF00BF7047142C0140054909688D
:104ED00021F44071034A11601146096801431160D1
:104EE000704700000C2C014041830A0C82827047FD
:104EF00070B50446204600F037F805466DBB2078B3
:104F0000032823D16079012820D14202002104F135
:104F10003000FDF799FF4AF65521A4F82E121048EB
:104F200020631049C4F814122169C4F81812E1680A
:104F3000C4F81C12E069401CE0626078012304F1AF
:104F40003001E26AFCF79CFD00206071607800226D
:104F50001146FCF732FD00B10125284670BD000066
:104F6000525261417272416170B504462079F8B1C4
:104F7000E56A607801232A4604F13001FCF780FDE0
:104F800008B1012070BD00202071206A281AA16993
:104F900088420DD2E67809E0A069054460780123D3
:104FA0002A4604F13001FCF76BFD761E022EF3D287
:104FB0000020E7E7002000213A4A126842F48032DC
:104FC000384B1A6000BF401C364A126802F40031A8
:104FD00019B94FF6FF729042F5D1324A126802F4C5
:104FE00000320AB900BFFEE72E4A4032126842F092
:104FF00080522C4B40331A602B4A126842F44042D4
:10500000294B1A60274A08321268264B08331A6067
:105010001A46126842F400421A601A46126842F4B4
:10502000A0521A60214A1B1F1A601A1F126842F010
:1050300080721B1F1A6000BF1A4A126802F00072C9
:10504000002AF9D0184A126842F48032164B1A60CE
:1050500000BF154A526802F48032002AF9D0124A81
:10506000126842F40032104B1A6000BF0E4A5268B8
:1050700002F40032002AF9D00A4A0832126822F0FB
:105080000302084B08331A601A46126842F0020203
:105090001A6000BF034A0832126802F00802002AB0
:1050A000F8D0704700380240007000401978400A7C
:1050B00010B5FFF77FFF10BD2DE9F04704460D4600
:1050C0000027B846B94600263349601A8C4235D0CD
:1050D0000CDC32482044E8B1B0F5806F1FD0B0F549
:1050E000006F21D0B0F5406F32D122E0B0F5806F73
:1050F00029D0B0F5184F03D0B0F51C4F28D104E0EB
:105100000320FEF711F9074623E00320FEF70CF910
:1051100007461EE00220FEF707F9074619E00220C5
:10512000FEF702F9074614E00220FEF7FDF80746F5
:105130000FE00220FEF7F8F807460AE00220FEF72B
:10514000F3F8074605E00220FEF7EEF8074600E018
:1051500000BF00BFE06800F4004070B1780000EBD1
:105160005500B0FBF5F64FF6F07006EA0008C6F3FE
:10517000420948EA0900A0600CE007EB5500B0FBCB
:10518000F5F64FF6F07006EA000806F00F0948EA57
:105190000900A060BDE8F0870078004000BCFFBFB8
:1051A000C1F308024260704710B504463349601AE3
:1051B0008C424DD00CDC32482044E0B1B0F5806F19
:1051C00022D0B0F5006F31D0B0F5406F52D136E04B
:1051D000B0F5806F45D0B0F5184F03D0B0F51C4F37
:1051E00048D11AE040F60410FEF76EF940F60410BC
:1051F000FEF758F93FE040F61100FEF765F940F67A
:105200001100FEF74FF936E040F61200FEF75CF9A8
:1052100040F61200FEF746F92DE040F60510FEF7C5
:1052200053F940F60510FEF73DF924E040F613006F
:10523000FEF74AF940F61300FEF734F91BE040F69A
:105240001400FEF741F940F61400FEF72BF912E0C6
:1052500040F61E00FEF738F940F61E00FEF722F970
:1052600009E040F61F00FEF72FF940F61F00FEF799
:1052700019F900E000BF00BF10BD00000078004039
:1052800000BCFFBFC16841F40051C160704710B558
:10529000024602EB9110006801F01F040123A340B5
:1052A000184008B1012010BD0020FCE710B500EB4C
:1052B0009112126801F01F040123A3401A4300EB6E
:1052C00091131A6010BDC26822F4C062C260C26845
:1052D0000A43C26070470A460021C16821F00401F8
:1052E0001143C1607047026922F4405202610269B1
:1052F0000A43026170470A460021C16821F0080193
:105300001143C1607047C26822F48052C260C26813
:105310000A43C260704770B505462C464CB1206800
:1053200038B12068007820B12068C088A188884200
:1053300001D0092070BD21684878FCF796FB00F089
:10534000010008B10320F5E70020F3E730313233E4
:1053500034353637383900002D2D2D2D2D2D2D2D9E
:105360002D2D2D2D2D2D2D2D2D2D2D2D2D2D2D2D6D
:105370002D426F6F746C6F616465722056312E30F0
:105380002E302D2D2D2D2D2D2D2D2D2D2D2D2D2D49
:105390002D2D2D2D2D2D2D2D2D2D2D2D2D0D0A00AD
:1053A0002D2D2D2D4C65797574656B28434F505903
:1053B00052494748542032303138202D2032303283
:1053C00031204C65797574656B2E20416C6C2072B0
:1053D00069676874732072657365727665642E29D7
:1053E0002D2D2D2D2D0D0A00085400080000002041
:1053F0003C000000B40F0008445400083C000020AA
:1054000044030300C40F0008000000000000000077
:10541000000000000000000000000000000000008C
:105420000100000000000000000000001D0000005E
:10543000000000000000000000000000000000006C
:045440000000000068
:04000005080001AD41
:00000001FF
