:020000040800F2
:1000000040040020C50100080D030008B5020008E7
:1000100009030008AF0200084105000800000000C5
:10002000000000000000000000000000590400086B
:10003000B302000800000000390300085B04000858
:10004000DF010008DF010008DF010008DF01000810
:10005000DF010008DF010008DF010008DF01000800
:10006000DF010008DF010008DF010008DF010008F0
:10007000DF010008DF010008DF010008DF010008E0
:10008000DF010008DF010008DF010008DF010008D0
:10009000DF010008DF010008DF010008DF010008C0
:1000A000DF010008DF010008DF010008DF010008B0
:1000B000DF010008DF010008DF010008DF010008A0
:1000C000DF010008DF010008DF010008DF01000890
:1000D000DF010008DF010008DF010008DF01000880
:1000E000DF010008DF010008DF010008DF01000870
:1000F000DF010008DF010008DF010008DF01000860
:10010000DF010008DF010008DF010008DF0100084F
:10011000DF010008DF010008DF010008DF0100083F
:10012000DF010008DF010008DF010008DF0100082F
:10013000DF010008DF010008DF010008DF0100081F
:10014000DF010008DF010008DF010008DF0100080F
:10015000DF010008DF010008DF010008DF010008FF
:10016000DF010008DF010008DF010008DF010008EF
:10017000DF010008DF010008DF01000800000000C7
:10018000DF010008DF010008DF010008DF010008CF
:10019000DF010008DF010008DF01000800000000A7
:1001A000DF010008DF010008DF010008DFF810D0E0
:1001B00000F04CF800480047370A0008AFF3008011
:1001C000400400200648804706480047FEE7FEE757
:1001D000FEE7FEE7FEE7FEE7FEE7FEE7FEE7FEE7F7
:1001E00065040008AD0100082DE9F05F0546002018
:1001F00092469B4688460646814640241BE0284698
:1002000041464746224600F042F853465A46C01A35
:10021000914110D311461846224600F029F82D1AB4
:1002200067EB01084F4622460120002100F020F82C
:1002300017EB00094E41201EA4F10104DFDC484603
:1002400031462A464346BDE8F09F0000064C074D64
:1002500006E0E06840F0010394E807009847103496
:10026000AC42F6D3FFF7A6FF441700086417000856
:10027000202A04DB203A00FA02F100207047914066
:10028000C2F1200320FA03F3194390407047202A5B
:1002900004DB203A21FA02F00021704721FA02F330
:1002A000D040C2F12002914008431946704700BF78
:1002B000FEE7704700BFFEE710B54FF4406000F066
:1002C00039FD1023002201210E4800F06CFB1023A1
:1002D000022200210B4800F08DFB1021094800F09C
:1002E00060FBE02300220121064800F05CFBE023D4
:1002F00002220021034800F07DFBE021014800F0CC
:1003000050FB10BD0000024000BFFEE77047000038
:1003100010B5002807DA0A07140E054A00F00F038B
:100320001B1FD45403E00A07130E024A135410BDD6
:1003300018ED00E000E400E07047000010B51BA0DD
:1003400000F00EF941F21C0000F0F4FC00F07AFB22
:1003500000F000FE25480068C0F301202449086031
:100360002448006843F2F021884202D12048006806
:1003700010B900F03DFE15E041F61B5000F008FCFE
:1003800018B11DA000F0ECF807E041F61A5000F09B
:10039000FFFB10B120A000F0E3F827A000F0E0F888
:1003A00000F068FF00F058FB10BD00000A0D20208F
:1003B0002A2A2A2A2A2A2A2A2A2A2A2A2A2A2A2A9D
:1003C0002A2A205254432063616C656E6461722056
:1003D00064656D6F202A2A2A2A2A2A2A2A2A2A2A8A
:1003E0002A2A2A2A2A2A2A0A0D00000070380240E6
:1003F0000C00002050280040706F776572206F6EEF
:10040000207265736574206F636375727265642E04
:100410002E2E2E0A0D00000065787465726E616CD8
:10042000207265736574206F636375727265642EE4
:100430002E2E2E0A0D0000006E6F206E6565642062
:10044000746F20636F6E66696775726520525443DE
:100450002E2E2E2E0A0D0000704710B500F00AFA5D
:1004600010BD000008B53048006840F470002E4907
:1004700008602E48006840F001002C49086000BF69
:100480002A48006800F002000028F9D000BF274881
:100490000830006840F080002449083108600020DE
:1004A000009002E00098401C009000985028F9D37A
:1004B0001E480830006840F090001C490831086070
:1004C0000020009002E00098401C00900098502806
:1004D000F9D300BF15480830006820F00300134925
:1004E0000831086011480068114908400F49086048
:1004F0000846006820F48020086000200B4908317D
:10050000086000BF09480830006800200028F9D1C1
:1005100008480649091D0860002004490C3108609C
:1005200000F060FF08BD000088ED00E000380240E8
:10053000FFFFF6FE1030002410B500F057FF10BD8D
:1005400000BFFEE7FFF7B8FE00F0B2F9FFF7F6FED6
:1005500005E000F08FFE4FF47A7000F081F9F8E7C3
:100560000FB4054B10B503A9044A029800F018F81F
:1005700010BC5DF814FB00008D080008140000207A
:1005800002E008C8121F08C1002AFAD1704770475C
:10059000002001E001C1121F002AFBD170470000BA
:1005A0002DE9FF4F8DB09B460F460446002606E01E
:1005B00025280BD05A460F999047641C761C20784A
:1005C0000028F5D111B03046BDE8F08F0025A846CF
:1005D0000122984900E0054314F8013F203B02FA4C
:1005E00003F00842F7D120782E2817D114F8010F14
:1005F00045F004052A280ED06FF02F022078A0F1D4
:10060000300109290AD808EB880102EB410100EB0F
:100610000108641CF2E757F8048B641C20786C28EE
:100620000DD004DC4C2812D06A2811D104E07428C3
:100630000DD07A280CD10AE045F4001507E0617866
:1006400045F48015814202D1641C05F58015641CB7
:100650002078692844D008DC0028B3D0582867D017
:1006600063280FD0642808D13AE0702865D0732839
:1006700012D075285AD078285AD05A460F999047E8
:10068000761CD5E017F8040B8DF8000000208DF8DB
:100690000100E946012003E057F8049B4FF0FF30CA
:1006A00069074FF0000501D40AE06D1C45450DDADD
:1006B0008542FADB19F805100029F6D106E06D1C19
:1006C0008542FCDB19F805100029F8D12E4404E01E
:1006D00019F8010B5A460F9990476D1EF8D2A7E002
:1006E0000A200021CDE90801C5F3025002280CD0F0
:1006F00001CFC117021E71F100020CDA0023D0EB0A
:10070000030063EB01012D2208E0FF1D27F007071E
:10071000F7E80201EEE72A0504D52B228DF8282000
:1007200001223CE0EA073AD02022F7E70A2000E065
:1007300010200021CDE9080107E01020002145F03C
:100740000405CDE908014FF00808C5F3025002285E
:1007500010D001CF00214FF0000A2A0720D52278BF
:10076000702A0DD0DDE908C38CF0100C5CEA030C94
:100770000CD015E0FF1D27F00707F7E80201EAE7B4
:1007800040228DF828204FF0010A0CE050EA0103C6
:1007900006D030238DF828308DF829200222924689
:1007A0002278582A04D024A20DF120090B9209E0E6
:1007B00026A2F9E7DDE90823FFF716FD0B9B9B5CFA
:1007C00009F8013D50EA0102F4D1ADEB09002030F7
:1007D0000890680701D44FF001080899884503DDA7
:1007E0000898A8EB000000E000208046002506E005
:1007F0000AA85A46405D0F9990476D1C761C5545D6
:10080000F6DB04E030205A460F999047761CB8F189
:100810000001A8F10108F5DC05E019F8010B5A46C2
:100820000F999047761C0899481E08900029F4DC1F
:10083000641CC4E6092801003031323334353637C0
:10084000383961626364656600000000303132331C
:1008500034353637383941424344454600000000BC
:100860000349086000BF024909680029FBD17047AD
:10087000000000200448006820B103480068401EC2
:1008800001490860704700000000002070B5044670
:100890000D46E1B2054800F04AFE00BF07210348BB
:1008A00000F0BDFE0028F9D0204670BD00100140C8
:1008B00010B54FF4406000F03DFA41F2041000F032
:1008C00039FA4FF4007207211C4800F03BF84FF44E
:1008D00080620721194800F035F84FF400730122B7
:1008E0000221164800F05FF84FF400730222002145
:1008F000124800F07FF84FF48063012202210F4874
:1009000000F051F84FF48063022200210B4800F000
:1009100071F80B4800F010FE4FF4E131084800F088
:100920008DFD0421064800F0FDFE0821044800F07A
:1009300001FF034800F06EFE10BD00000000024001
:1009400000100140F0B503461C6A5D6A00200DE00E
:100950000126864016403EB187000F26BE40B443B4
:10096000860001FA06F63443461CB0B20828EFD3DD
:10097000082011E00126864016405EB1A0F108066D
:10098000B7000F26BE40B543A0F10806B60001FA35
:1009900006F63543461CB0B21028EBD31C625D62EC
:1009A000F0BD81627047F0B504460D4616462168D9
:1009B000E268002019E0012787401F409FB14FEAFD
:1009C000400C032707FA0CF7B943470005FA07F76D
:1009D00039434FEA400C032707FA0CF7BA434700A4
:1009E00006FA07F73A43471CB8B21028E3D3216050
:1009F000E260F0BDF0B50C461546012C03D1466807
:100A00001E43466002E046689E43466082680021BD
:100A10000DE001268E401E403EB14F000326BE4031
:100A2000B2434E0005FA06F632434E1CB1B210290D
:100A3000EFD38260F0BD10B5FFF77EFDFFF782FDBA
:100A4000002010BD0348006840F480700149086030
:100A500070470000007000400348006840F080705C
:100A60000149086070470000743802402DE9F04FDA
:100A70008CB0064600200A903EA090E8004CC0686A
:100A8000CDE905BECDF810A007900FF2EC0ADAE927
:100A9000000ACDE9020A0FF2E00ADAE9000ACDE91C
:100AA000000A38480068C0F381000B900B9820B111
:100AB000012804D0022828D103E0334927E0334934
:100AC00025E03048001F006800F03F072D48001F58
:100AD0000068C0F3881C2B48001F0068C0F3014069
:100AE000401C4FEA40092748001F006800F48008B6
:100AF000B8F5800F01D1254B00E0234BB3FBF7F095
:100B000000FB0CF0B0FBF9F101E01F4900BF00BF92
:100B10001C480068C0F3031404A8055D21FA05F21F
:100B200018480068C0F3822402A8055D22FA05F087
:100B3000099014480068C0F342341DF8045022FAAA
:100B400005F0089036B1012E06D0022E06D0032EF5
:100B50000AD106E00A9108E00A9206E009980A9094
:100B600003E008980A9000E000BF00BF0A980CB0AC
:100B7000BDE8F08F00000000000000000102030447
:100B800006070809083802400024F40040787D0177
:100B90000146074A02EB9110D0F8000801F01F034C
:100BA00001229A40104008B1012070470020FCE764
:100BB00000300240074A02EB9011D1F8001800F013
:100BC0001F0301229A401143024B03EB9012C2F81B
:100BD0000018704700300240F0B506460024002798
:100BE00000251C2E7DD007DCB6B3102E10D0182E99
:100BF00067D01A2E76D176E0B6F5E05F19D0B6F55B
:100C0000E85F4CD0A6F5405010380028F2D134E00F
:100C100004E01120FFF7BCFF0546641C1DB94FF628
:100C2000FF708442F5D11120FFF7B2FF00B1012718
:100C30007AE005E041F60140FFF7AAFF0546641C93
:100C40001DB96FF070408442F4D141F60140FFF7C6
:100C50009FFF00B1012767E0FFE704E00120FFF7F5
:100C600097FF0546641C15B9B4F5A06FF6D10120B5
:100C7000FFF78EFF00B1012756E005E043F21100B7
:100C8000FFF786FF0546641C15B929488442F5D153
:100C900043F21100FFF77CFF00B1012744E005E0BB
:100CA00041F60150FFF774FF0546641C15B9204852
:100CB0008442F5D141F60150FFF76AFF00B10127E8
:100CC00032E004E01920FFF763FF0546641C15B904
:100CD00017488442F6D11920FFF75AFF00B10127C7
:100CE00022E010E01FE004E01B20FFF751FF054663
:100CF000641C15B90E488442F6D11B20FFF748FF4B
:100D000000B1012710E004E01D20FFF741FF054678
:100D1000641C15B906488442F6D11D20FFF738FF40
:100D200000B1012700E000BF00BF3846F0BD000061
:100D3000FFFF0F00074A02EB9011D1F8001800F0F6
:100D40001F0301229A401143024B03EB9012C2F899
:100D50000018704700300240074A02EB9011D1F8AA
:100D6000001800F01F0301229A409143024B03EB4D
:100D70009012C2F80018704700300240074A02EB98
:100D80009011D1F8001800F01F0301229A4011437E
:100D9000024B03EB9012C2F800187047003002407B
:100DA000044A116821F4407141EA0002014B1A60C3
:100DB000704700007038024030B500210022002347
:100DC0000024154D29682D1D2A68134D10352B68F8
:100DD000114D08352C68150C0570C2F304254570BB
:100DE00002F03F058570C2F34235C570C1F3054579
:100DF0000571C1F30625457101F07F058571C3F3C7
:100E000006450581C3F30E05458101F48005C560E3
:100E100004F04005056130BD00280040F0B50446EF
:100E200000250026002720784FF47F0101EA0040CA
:100E3000E1784FF4604202EA4131084361784FF4AF
:100E4000F85202EA01210843A17801F03F0140EA8B
:100E5000010721794FF47C1202EA0141E06808435E
:100E600061794FF4FE4202EA01210843A17901F0C1
:100E70007F0140EA0106CA201E490860532008602D
:100E80004FF6FF701B4908390860091D08602220D1
:100E9000184920310860091D086000F02DF805464A
:100EA0001DB320894FF4FE0101EA00406189C1F3BE
:100EB0000E0108430F49143908600E4824380660B3
:100EC000001D0760001D006820F0400009491C3922
:100ED0000860084600682169084306491C39086013
:100EE00000F02EF800F054F80546FF200149086094
:100EF0002846F0BD2428004008B54FF480420092F7
:100F0000002100200D4A126802F040029AB90B4AF3
:100F1000126842F08002094B1A6000BF074A12684B
:100F200002F04001009A521E00920AB10029F5D049
:100F300011B1012000E0012008BD00000C28004094
:100F40000348006820F080000149086070470000F5
:100F50000C28004010B54FF4E050FFF72BFE4FF483
:100F6000E050FFF739FE4FF48070FFF719FFFF20C4
:100F7000054908607F200549086041F60F40FFF7EA
:100F8000D9FE00F005F810BD080000200400002084
:100F900008B54FF40042009200210020134A126865
:100FA00002F0200202BBCA22104B1C331A605322EB
:100FB0001A600E4A121D126822F020020B4B1B1DF4
:100FC0001A6000BF094A121D126802F02001009A3F
:100FD000521E00920AB10029F4D001B10120FF2273
:100FE000024B1C331A6000E0012008BD08280040B5
:100FF0002DE9F0474FF0FF09FF24FF25FF26FF27CB
:10100000A04646480068464908814648006848812D
:10101000162008700620C8700420487030208870A0
:1010200000200861C86040A0FFF79AFA47A0FFF7C8
:1010300097FA06E0632000F001FB8146384880F80B
:101040000090B9F1FF0FF5D049464DA0FFF788FA9F
:101050004EA0FFF785FA05E00C2000F0EFFA0446F9
:101060002F484470FF2CF7D021464EA0FFF778FAA6
:101070004FA0FFF775FA05E01F2000F0DFFA0546E4
:1010800027488570FF2DF7D0294646A0FFF768FA5C
:101090004DA0FFF765FA05E0172000F0CFFA0646ED
:1010A0001F480671FF2EF7D031463EA0FFF758FAD1
:1010B0004BA0FFF755FA05E03B2000F0BFFA0746CA
:1010C00017484771FF2FF7D0394636A0FFF748FA87
:1010D0004AA0FFF745FA06E03B2000F0AFFA804651
:1010E0000F4880F80680B8F1FF0FF5D041462DA0DB
:1010F000FFF736FA0A48FFF791FE18B946A0FFF746
:101100002FFA08E04FA0FFF72BFA00F0B3F843F2F4
:10111000F02057490860BDE8F08700000400002077
:1011200018000020080000203D3D3D3D3D3D3D4371
:101130006F6E666967757265205254432054696DFD
:10114000653D3D3D3D3D3D3D3D0A0D002020706C1F
:10115000656173652073657420746865206C6173C4
:10116000742074776F20646967697473206F6620D8
:1011700063757272656E7420796561723A0A0D004A
:101180002020323025302E32780A0D002020706C5D
:101190006561736520696E707574206D6F6E74681B
:1011A0003A0A0D00202025302E32780A0D0000006A
:1011B0002020706C6561736520696E7075742064A1
:1011C00061793A0A0D0000002020706C656173653A
:1011D00020696E70757420686F75723A0A0D000090
:1011E0002020706C6561736520696E707574206D68
:1011F000696E7574653A0A0D000000002020706C5D
:101200006561736520696E707574207365636F6EB8
:10121000643A0A0D000000000A0D2A2A20525443A5
:101220002074696D6520636F6E666967757261749D
:10123000696F6E206661696C656421202A2A0A0D37
:10124000000000000A0D2A2A205254432074696DC0
:101250006520636F6E66696775726174696F6E2071
:101260007375636365737321202A2A0A0D000000D9
:101270005028004010B50948FFF79EFD07488378C5
:101280004278017806A0FFF76BF904488379427928
:1012900001790CA0FFF764F910BD000018000020D0
:1012A0000D0A43757272656E742074696D653A201B
:1012B000323025302E32782D25302E32782D2530C3
:1012C0002E327800203A2025302E32783A25302EE2
:1012D00032783A25302E3278200D0A000020002185
:1012E0003D4A126842F480323B4B1A6000BF401CFA
:1012F000394A126802F4003119B94FF6FF72904270
:10130000F5D1354A126802F4003232B900BF324AD0
:10131000126802F40032002AF9D02F4A40321268D3
:1013200042F080522C4B40331A602C4A126842F42F
:1013300040422A4B1A60284A08321268264B08336A
:101340001A601A46126842F400421A601A4612687D
:1013500042F4A0521A60224A1B1F1A601A1F126818
:1013600042F080721B1F1A6000BF1B4A126802F015
:101370000072002AF9D0194A126842F48032174BE1
:101380001A6000BF154A526802F48032002AF9D070
:10139000124A126842F40032104B1A6000BF0F4A22
:1013A000526802F40032002AF9D00B4A083212685F
:1013B00022F00302084B08331A601A46126842F002
:1013C00002021A6000BF044A0832126802F00802E2
:1013D000002AF8D07047000000380240007000403A
:1013E0001978400A10B5FFF779FF10BD10B5124803
:1013F00000684FF47A71B0FBF1F4601EB0F1807FA9
:1014000001D301200FE0601E4FF0E02148610F2161
:101410004FF0FF30FEF77CFF00204FF0E0218861A5
:1014200007200861002008B100BFFEE70021481E28
:10143000FEF76EFF10BD0000100000202DE9F04700
:1014400004460D460027B846B94600263349601ABF
:101450008C4235D00CDC32482044E8B1B0F5806FC6
:101460001FD0B0F5006F21D0B0F5406F32D122E02F
:10147000B0F5806F29D0B0F5184F03D0B0F51C4FF0
:1014800028D104E00320FFF7F1FA074623E0032008
:10149000FFF7ECFA07461EE00220FFF7E7FA0746DF
:1014A00019E00220FFF7E2FA074614E00220FFF7F6
:1014B000DDFA07460FE00220FFF7D8FA07460AE0F8
:1014C0000220FFF7D3FA074605E00220FFF7CEFA25
:1014D000074600E000BF00BFE06800F4004070B1C4
:1014E000780000EB5500B0FBF5F64FF6F07006EA19
:1014F0000008C6F3420948EA0900A0600CE007EBC7
:101500005500B0FBF5F64FF6F07006EA000806F05D
:101510000F0948EA0900A060BDE8F08700780040A4
:1015200000BCFFBF01464868C0F308007047C1F324
:10153000080242607047000010B504463349601A43
:101540008C424DD00CDC32482044E0B1B0F5806FC5
:1015500022D0B0F5006F31D0B0F5406F52D136E0F7
:10156000B0F5806F45D0B0F5184F03D0B0F51C4FE3
:1015700048D11AE040F60410FFF700FC40F60410D2
:10158000FFF7EAFB3FE040F61100FFF7F7FB40F6FC
:101590001100FFF7E1FB36E040F61200FFF7EEFB2B
:1015A00040F61200FFF7D8FB2DE040F60510FFF7DC
:1015B000E5FB40F60510FFF7CFFB24E040F61300F3
:1015C000FFF7DCFB40F61300FFF7C6FB1BE040F61D
:1015D0001400FFF7D3FB40F61400FFF7BDFB12E049
:1015E00040F61E00FFF7CAFB40F61E00FFF7B4FBF3
:1015F00009E040F61F00FFF7C1FB40F61F00FFF7B0
:10160000ABFB00E000BF00BF10BD00000078004051
:1016100000BCFFBFC16841F40051C160704710B504
:10162000024602EB9110006801F01F040123A34061
:10163000184008B1012010BD0020FCE77CB505462C
:1016400000240020009001901BE000BF05211A48F3
:10165000FFF7E5FF0028F9D01748FFF763FF2146A1
:10166000641C4DF82100601E5DF82000302804D372
:10167000601E5DF82000392803D910A0FEF770FF26
:10168000641E022CE1D3019830380099303901EB07
:10169000810100EB4104AC4205D9294614A0FEF7B4
:1016A0005FFFFF207CBD019830380099303900EB96
:1016B0000114E0B2F6E70000001001400A0D2070AE
:1016C0006C6561736520696E707574206120766148
:1016D0006C6964206E756D626572206265747765F1
:1016E000656E203020616E642039200A0D000000F4
:1016F0000A0D20706C6561736520696E70757420C9
:10170000612076616C6964206E756D62657220621D
:1017100065747765656E203020616E6420256420D5
:101720000A0D00000A460021C16821F0040111439E
:10173000C16070470A460021C16821F008011143C9
:10174000C160704764170008000000201800000006
:10175000800500087C1700081800002028040000FD
:1017600090050008000000000000000000000000DC
:0C17700000000000001C4E0E00000000F5
:04000005080001AD41
:00000001FF
