:020000040800F2
:10000000889C0020C10100082D330008711A0008E7
:1000100029330008AD040008AD3D000800000000D1
:10002000000000000000000000000000D5340008BF
:10003000E1110008000000002F330008C13A000859
:10004000DB010008DB010008DB010008DB01000820
:10005000DB010008DB010008DB010008DB01000810
:10006000DB010008DB010008DB010008DB01000800
:10007000DB010008DB010008DB010008DB010008F0
:10008000DB010008DB010008DB010008DB010008E0
:10009000DB010008DB010008DB010008DB010008D0
:1000A000DB010008DB010008DB010008DB010008C0
:1000B000913B0008DB010008DB010008DB010008C0
:1000C000DB010008DB010008DB010008DB010008A0
:1000D000DB0100084D3C0008DB010008DB010008E3
:1000E000DB010008DB010008DB010008DB01000880
:1000F000DB010008DB010008DB010008DB01000870
:10010000DB010008DB010008ED3B0008DB01000813
:10011000DB010008DB010008DB010008DB0100084F
:10012000DB010008DB010008DB010008DB0100083F
:10013000DB010008DB010008DB010008DB0100082F
:10014000DB010008DB010008DB010008DB0100081F
:10015000DB010008DB010008DB010008013D0008AD
:10016000DB010008DB010008DB010008DB010008FF
:10017000DB010008DB010008DB01000800000000D3
:10018000DB010008DB010008DB010008DB010008DF
:10019000DB010008DB010008DB01000800000000B3
:1001A000DB010008DB010008DB010008DFF80CD0F0
:1001B00000F018F800480047AB4D0008889C00206C
:1001C0000648804706480047FEE7FEE7FEE7FEE7F1
:1001D000FEE7FEE7FEE7FEE7FEE7FEE7C93A0008B6
:1001E000AD010008064C074D06E0E06840F0010351
:1001F00094E8070098471034AC42F6D3FFF7DAFFD3
:10020000600402088004020802468A4202DD501A95
:1002100080B27047881A80B2FBE700002DE9F041F8
:100220000746022400250AE0164800EB851090F8E6
:100230002400012801D12C4603E0681CC5B2012D21
:10024000F2DB00BF022C1BD00F48065D0F48005D9B
:10025000B04211DD0E4800EB841087550A48005D5E
:10026000401C094908550A4A02EB8411054A02EB71
:10027000841003F060FB03E00448005D0249085568
:10028000BDE8F081C41400205C000020E0030208F7
:10029000041500202DE9F04F8BB006460F4690461E
:1002A000706801F0BBFA6B48008844F642518842FE
:1002B00005D069A003F0A0FD0BB0BDE8F08F704839
:1002C000C08920280BD06E48C089182807D06C48F8
:1002D000C089102803D06BA003F08EFDECE7BA466E
:1002E000C34667484068574638440A906448806867
:1002F000D84600EB08096C48017F0C3050F82110FB
:100300000A98814205D86848017F0C3050F82100D6
:100310000A906548017F143050F82100484504D800
:100320006148017F143050F82190A9F10100039039
:1003300000200490D84687E07068049901F050FBD3
:10034000054600240498401C0490574674E04C482D
:10035000C089202841D1285DC0100790601C285C0E
:1003600080100890A01C285CC0100990E01C285C3C
:1003700006900998C102089841EA4010079908437D
:100380000590241D307890B93846039902F042FE5A
:100390000290059A91B2029A90B2069A00F0A0F8E3
:1003A00001903846019A039902F010FC43E030783E
:1003B000012809D17178069881423CDC3846059ABB
:1003C000039902F003FC36E03078022833D1384636
:1003D000059A039902F0FAFB2DE02948C0891828F4
:1003E00019D1285DC0100790601C285C801008900F
:1003F000A01C285CC01009900998C102089841EA25
:100400004010079908430590E41C3846059A039963
:1004100002F0DCFB0FE01A48C08910280BD1295DDF
:10042000601C285C41EA00200590A41C3846059A0F
:10043000039902F0CBFB7F1C0A98874287D303986D
:10044000401E039008F10108C845FFF475AF00BFD6
:1004500032E70000CC100020424D50446973706CAC
:1004600061793A2074686973206973206E6F742013
:100470006120424D502066696C650D0A0000000045
:10048000DA100020424D50446973706C61793A2053
:10049000756E737570706F7274656420666F726DBF
:1004A00061742121210D0A009C00002000BFFEE79D
:1004B000014600200BE000EBC002074B03EBC20239
:1004C0008A4202D1054A10707047421CD0B20C28F3
:1004D000F1DB00BFF8E700006411002018000020E5
:1004E0002DE9FC4F03460C46052A02DA1846BDE802
:1004F000FC8FDD0AC3F3451603F01F074FEAD42C27
:10050000C4F3451804F01F00019011460CFB01F0E4
:10051000C1F1FF0E05FB0E004FF0FF0E90FBFEF049
:100520001FFA80F908FB01F0C1F1FF0E06FB0E0077
:100530004FF0FF0E90FBFEF01FFA80FA019848433F
:10054000C1F1FF0E07FB0E004FF0FF0E90FBFEF017
:100550001FFA80FB4FEAC92040EA4A1040EA0B002C
:1005600080B200900098C2E710B5044694F82400C9
:10057000012805D1206C58B12046216C884707E03E
:1005800094F8240020B9606C10B12046616C884753
:1005900010BD10B50446E06B10B12046E16B8847F2
:1005A00010BD000070B500240EE0002508E000201A
:1005B00004EB44010B4A02EB01114855681CC5B21B
:1005C000302DF4DB601CC4B20C2CEEDB0C20064991
:1005D000087003F0ABFB0020044908700249087062
:1005E00070BD00007C1500205E0000205D00002032
:1005F00010B5044694F82400012808D1002084F89E
:100600002400204600F004FF204600F058FF10BDF3
:1006100000200149087070477A000020002001493D
:10062000087070477800002000200149087070476A
:100630007900002010B54FF40071184804F001F85B
:1006400040F6044005F04AF80823012211461448F8
:1006500004F003F8082303220021114804F024F8D1
:1006600008210F4803F0EDFF0A2000F0C1FD08212A
:100670000B4803F0E8FF012000F0BAFD4FF40071D1
:10068000064803F0E0FF0A2000F0B2FD0823002234
:100690001146034803F0E1FF10BD000000180240BE
:1006A0000010024010B540F6014005F017F8402355
:1006B00001221146184803F0D0FF402303220021F5
:1006C000154803F0F1FF4021134803F0BCFF8023DD
:1006D00001221146104803F0C0FF802303220021AD
:1006E0000D4803F0E1FF80210B4803F0ACFF4FF40D
:1006F000007301221146094803F0AFFF4FF4007365
:1007000003220021054803F0CFFF4FF40071034896
:1007100003F097FF10BD00000004024000180240E3
:1007200010B540F6014004F0D9FF40F6084004F04F
:10073000D5FF202301221146104803F08EFF20230D
:10074000022200210D4803F0AFFF20210B4803F0E7
:100750007AFF4FF4807301221146094803F07DFFB0
:100760004FF4807302220021054803F09DFF4FF4EF
:100770008071034803F065FF10BD000000040240D3
:100780000020024010B54FF4A06004F039FE10BD07
:1007900010B54FF0807004F0FBFF10BD10B504469B
:1007A00040F6014004F09AFF012C0CD18023012275
:1007B0001146094803F051FF802303220021064817
:1007C00003F072FF06E02CB98023012200210248C9
:1007D00003F043FF10BD000000040240F0B597B0E5
:1007E000064600274FF6FF744FF4606004F076FF72
:1007F0004FF4406004F072FF40F6014004F06EFFD9
:1008000040F6024004F06AFF40F6034004F066FF41
:1008100040F6044004F062FF40F6054004F05EFF3D
:1008200040F6064004F05AFF40F6074004F056FF39
:1008300040F6084004F052FF01220C21FE4803F06C
:10084000D1FE012300220221FB4803F006FF012311
:1008500003220021F84803F027FF02220C21F6486A
:1008600003F0C0FE022300221946F34803F0F5FE10
:10087000022303220021F04803F016FF04220C217A
:10088000ED4803F0AFFE042300220221EA4803F002
:10089000E4FE042303220021E74803F005FF0822B9
:1008A0000C21E54803F09EFE082300220221E248C5
:1008B00003F0D3FE082303220021DF4803F0F4FEF7
:1008C00010220C21DC4803F08DFE102300220221AF
:1008D000D94803F0C2FE102303220021D64803F0BA
:1008E000E3FE20220C21D44803F07CFE20230022CA
:1008F0000221D14803F0B1FE202303220021CE487B
:1009000003F0D2FE4FF480520C21CB4803F06AFE74
:100910004FF4805300220221C74803F09EFE4FF49B
:10092000805303220021C44803F0BEFE4FF400525E
:100930000C21C14803F056FE4FF40053002202215F
:10094000BD4803F08AFE4FF4005303220021BA4849
:1009500003F0AAFE4FF480420C21B74803F042FE98
:100960004FF4804300220221B34803F076FE4FF497
:10097000804303220021B04803F096FE4FF400426A
:100980000C21AD4803F02EFE4FF40043002202215B
:10099000A94803F062FE4FF4004303220021A64859
:1009A00003F082FE01220C21A44803F01BFE012368
:1009B00000220221A14803F050FE0123032200215E
:1009C0009E4803F071FE02220C219C4803F00AFEAF
:1009D000022300221946994803F03FFE0223032216
:1009E0000021964803F060FE04220C21934803F096
:1009F000F9FD042300220221904803F02EFE042377
:100A0000032200218D4803F04FFE4FF480420C2159
:100A10008B4803F0E7FD4FF4804300220221884811
:100A200003F01BFE4FF4804303220021844803F0AF
:100A30003BFE4FF400420C21814803F0D3FD4FF4FC
:100A40000043002202217E4803F007FE4FF40043DA
:100A5000032200217A4803F027FE01220C21784866
:100A600003F0C0FD012300220221754803F0F5FDCB
:100A7000012303220021724803F016FE02220C21FA
:100A80006F4803F0AFFD0223002219466C4803F0C3
:100A9000E4FD022303220021694803F005FE8022C1
:100AA0000C21684803F09EFD802300220221654846
:100AB00003F0D3FD802303220021624803F0F4FDFC
:100AC0004FF480720C215F4803F08CFD4FF480736B
:100AD000002202215B4803F0C0FD4FF48073032223
:100AE0000021584803F0E0FD4FF400720C215548F6
:100AF00003F078FD4FF4007300220221514803F007
:100B0000ACFD4FF40073032200214E4803F0CCFDEE
:100B10004FF480620C214B4803F064FD4FF4806376
:100B200000220221474803F098FD4FF4806303221E
:100B30000021444803F0B8FD4FF400620C21414805
:100B400003F050FD4FF40063002202213D4803F002
:100B500084FD4FF40063032200213A4803F0A4FD12
:100B60004FF480520C21374803F03CFD4FF4805382
:100B700000220221334803F070FD4FF4805303221A
:100B80000021304803F090FD4FF400520C212D4815
:100B900003F028FD4FF4005300220221294803F0FE
:100BA0005CFD4FF4005303220021264803F07CFD36
:100BB0004FF480420C21234803F014FD4FF480438E
:100BC000002202211F4803F048FD4FF48043032216
:100BD00000211C4803F068FD4FF400420C21194825
:100BE00003F000FD4FF4004300220221154803F0FA
:100BF00034FD4FF4004303220021124803F054FD5A
:100C00004FF480720C210E4803F0ECFC4FF480731B
:100C1000002202210A4803F020FD4FF480730322D2
:100C20000021074803F040FD4FF400720C210448F6
:100C300003F0D8FC08E00000001402400018024055
:100C4000000C0240001002404FF400730022022109
:100C5000B14803F002FD4FF4007303220021AE48B7
:100C600003F022FD4FF480620C21AB4803F0BAFC84
:100C70004FF4806300220221A74803F0EEFC4FF4FA
:100C8000806303220021A44803F00EFD10220C21F2
:100C9000A24803F0A7FC1023002202219F4803F082
:100CA000DCFC1023032200219C4803F0FDFC2022E1
:100CB0000C219A4803F096FC202300220221974839
:100CC00003F0CBFC202303220021944803F0ECFC2A
:100CD00001220C21924803F085FC0123002202210D
:100CE0008F4803F0BAFC0123032200218C4803F053
:100CF000DBFC02220C218A4803F074FC0223002250
:100D00001946874803F0A9FC0223032200218448E6
:100D100003F0CAFC20220C21824803F063FC20234C
:100D2000002202217F4803F098FC202303220021A7
:100D30007C4803F0B9FC4FF400420C21774803F0E3
:100D400051FC4FF4004300220221744803F085FC5B
:100D50004FF4004303220021704803F0A5FC4FF438
:100D600000620C21704803F03DFC4FF40063002248
:100D700002216D4803F071FC4FF40063032200214F
:100D8000694803F091FC40220C21664803F02AFCDC
:100D9000402300220221634803F05FFC402303222A
:100DA0000021604803F080FC80220C215D4803F0A4
:100DB00019FC8023002202215A4803F04EFC8023B4
:100DC00003220021574803F06FFC4FF480720C217E
:100DD000524803F007FC4FF48073002202214F4871
:100DE00003F03BFC4FF48073032200214B4803F0D7
:100DF0005BFC042E01D1102500E008250A2000F03C
:100E0000F7F902200B9006200A9003200990052094
:100E1000089001200790069005900C9615900820E8
:100E20001490102013904020129080001190002008
:100E300010904FF440600F9001200E9000200D9014
:100E400005A816900CA803F01DFB01200490039543
:100E50000020029001904FF6FF7400E0641E2021F4
:100E6000304603F0E7FA08B1002CF7D101A803F0EF
:100E7000FBFA0A2000F0BCF9022004900395002040
:100E8000029001904FF6FF7400E0641E202130466E
:100E900003F0D0FA08B1002CF7D101A803F0E4FA6E
:100EA000032004900395E0200290002001904FF66B
:100EB000FF7400E0641E2021304603F0BBFA08B145
:100EC000002CF7D101A803F0CFFA40F2212704202B
:100ED000049003950020029001974FF6FF7400E004
:100EE000641E2021304603F0A5FA08B1002CF7D18A
:100EF00001A803F0B9FA4FF4177003F04FFB4FF657
:100F0000FF7400E0641E2021304603F093FA08B11C
:100F1000002CF7D117B0F0BD000C024000180240C1
:100F200000100240001C0240001402407FB504463D
:100F30000D464FF4805004F0D1FB4FF0804004F098
:100F4000FFFC684604F023FEADF800500020ADF829
:100F500004000294ADF8060069464FF0804004F0AA
:100F6000B7FD0121880704F0FFFD002201211C20AC
:100F700004F0E4F94FF0804004F0A4FD7FBD0000D0
:100F80007FB504460D4641F2030004F0A7FB0F486D
:100F900004F0D6FC684604F0FAFDADF800500020DD
:100FA000ADF804000294ADF806006946074804F065
:100FB0008FFD0121054804F0D7FD002201213220D8
:100FC00004F0BCF9014804F07DFD7FBD000C004039
:100FD00010B5044600221146252004F0AFF94FF465
:100FE000406004F07BFB4FF400720721264803F0B9
:100FF000F9FA4FF480620721234803F0F3FA4FF423
:10100000007301220221204803F027FB4FF40073F4
:10101000022200211C4803F047FB4FF480630022AA
:101020000221194803F019FB41F2041004F056FBA9
:10103000164804F05FFF2146144804F0DDFE00214D
:10104000124805F02CF80021104805F038F800216E
:101050000E4805F014F804210C4805F018F8082192
:101060000A4805F024F8094804F0B2FF40F20531BF
:10107000064804F0CEFF40F20731044804F0C9FFEF
:1010800000200349087010BD00000240001001401C
:101090008C00002010B504464FF4406004F01EFBA5
:1010A0004FF4006208212B4803F09CFA4FF40063D0
:1010B00001220221274803F0D0FA4FF400630322F3
:1010C0000021244803F0F0FA4FF48052082121480F
:1010D00003F088FA4FF48053002202211D4803F0E8
:1010E000BCFA4FF48053032200211A4803F0DCFAC3
:1010F00041F2051004F0F2FA174804F0FBFE214615
:10110000154804F079FE0021134804F0C8FF0021BF
:10111000114804F0D4FF00210F4804F0B0FF04216F
:101120000D4804F0B4FF08210B4804F0C0FF0A4842
:1011300004F04EFF40F20531074804F06AFF40F228
:101140000731054804F058FF00220121472004F030
:10115000F5F810BD000002400014014038B5044607
:10116000A06A28B1A06A009094E80F0000F0C0FACD
:10117000002084F82400204600F0E6F8204600F025
:1011800081F938BD10B50446002084F824002046BB
:1011900000F03EF9204600F092F910BD30B503464C
:1011A000002016E0B3F900509C68645D0C541C8864
:1011B000641C24B21C80B3F90040B3F90450AC4263
:1011C00001DB00241C80441C20B2DC88641E24B295
:1011D000DC80B3F90640002C01DD9042E2DB30BD3B
:1011E000704710B5044604EB840000F013F810BDFE
:1011F00001B50749009808604FF0E02040694FF0C2
:10120000E021886100BF024800680028FBD108BDCA
:101210009000002001B5009806E0002101E04A1C82
:1012200091B22629FBDB401E0028F6D108BD000044
:1012300070B5022400250AE0134800EB851090F8F1
:101240002400012801D12C4603E0681CC5B2012D01
:10125000F2DB00BF022C16D00C48065D002E12DD1A
:1012600000210B4800EB8412701E11540748005DEA
:10127000401E06490855064A02EB8411024A02EB59
:10128000841002F058FB70BDC41400205C000020E4
:101290000415002070B504460D461646A07820B906
:1012A000324629462046FEF7F5FF70BD00B585B0F1
:1012B0000648009045F232100290054842880188A5
:1012C000684600F017F805B000BD0000095D010890
:1012D0006C15002000B585B00548009048F66A609E
:1012E000029000221146684600F004F805B000BDE7
:1012F0004E7D000870B5A0B004460E461546206825
:1013000008B1A06820B90C4802F076FD20B070BD8D
:10131000E6602561002060604FF48053074A084969
:1013200001A8009403F073FB20B90022054901A82D
:1013300003F01CFB00BFE9E7E4030208CC00002037
:10134000EB290008372A00082DE9F84304462568F0
:101350006668A16820684718E168606800EB0108CA
:10136000A06A28B1A06A009094E80F0000F0E8F8A5
:1013700094F8240018BB94F83500052808D1E06BD8
:1013800043463A4631460090284600F06DF93DE06C
:1013900094F83500042839D0206B40B9E06B4346FF
:1013A0003A4631460090284600F05EF92EE094F867
:1013B000353031462846226B00F0FAF826E094F8E2
:1013C0002400012822D194F83400052808D1A06B0C
:1013D00043463A4631460090284600F045F915E06C
:1013E00094F83400042811D0E06A40B9A06B434659
:1013F0003A4631460090284600F036F906E094F867
:10140000343031462846E26A00F0D2F8BDE8F8836D
:101410002DE9F843044625686668A16820684718E6
:10142000E168606800EB010894F82400012812D1FB
:10143000A06A40B9606B43463A4631460090284660
:1014400000F012F91CE094F8303031462846A26AC8
:1014500000F0AEF814E094F8240088B9E06A40B9CE
:10146000A06B43463A4631460090284600F0FCF80F
:1014700006E094F8313031462846E26A00F098F8E8
:10148000BDE8F8832DE9FF4104462169206845182D
:10149000616960684618207E00F092F9A168B1FB8E
:1014A000F0F701210022E06901AB83C30092237EA3
:1014B00031462846226A00F091F8BDE8FF812DE907
:1014C000FF41044621692068451861696068461833
:1014D000207E00F075F9A168B1FBF0F70121002230
:1014E000E06901AB83C30092237E31462846226A1D
:1014F00000F074F8BDE8FF8170B50346002016E0E7
:101500000C5CB3F902609D68AC555C88641C24B225
:101510005C80B3F90240B3F90450AC4201DB002413
:101520005C80441C20B2DC88641C24B2DC80B3F9EB
:101530000640B3F90450AC4201DA9042E0DB70BDE2
:101540002DE9F84304460D4616461F46DDF8208077
:101550003B46324629462046CDF8008001F0D4FAB9
:10156000BDE8F8832DE9FF4F83B0804617461C463F
:10157000DDE911ABDDF840900CB9002506E0012C47
:1015800001D1012502E0022C00D10225BBF1000FA0
:1015900001D1002600E0012633462A46CDE900A904
:1015A00002974046049901F05DFD07B0BDE8F08F59
:1015B0002DE9F04105460E4617461C462CB9324629
:1015C00029463846FFF766FE06E0012C04D1324674
:1015D00029463846FFF78EFEBDE8F0812DE9FF4F22
:1015E00083B0064690469946DDF840A0139D4846D4
:1015F00000F0E6F80746444630E020787E2811DC0B
:10160000207820280EDBDDE91110CDE900A1029041
:1016100022784B4630460499FFF7A4FF641C3E44F1
:101620006D1E1BE02078812817DB6078217840EA66
:10163000012BDDE911104B465A46CDE900A102907D
:1016400030460499FFF78EFFA41C06EB4706022DD7
:1016500001D3AD1E02E0002500E001E0002DCCD159
:1016600000BF07B0BDE8F08F2DE9F84304460D46F2
:1016700016461F46DDF820807B1B321B294620467C
:10168000CDF8008001F080FBBDE8F8832DE9F04142
:1016900006460F461446052C06D34FF0FF30306047
:1016A00038600020BDE8F08100F0DEF90546681CD6
:1016B000005D01280ED104EB4401A81D30F8110093
:1016C000306004EB4401A81D00EB41004088386005
:1016D0000120E7E74FF0FF30306038600020E1E79D
:1016E00070B504460D462946204601F093FC70BDB6
:1016F0002DE9FF5F05460E469146DDF838A0BAF1A8
:10170000000F01D1BDE8FF9FD3464FF000083446DB
:101710000FE02F4608E021463846FFF7E1FF2BF89F
:10172000180008F101087F1C05EB0900B842F2D847
:10173000641C03983044A042EBD800BFE2E70000ED
:101740001FB512A207CA01AB07C30020009001F029
:101750007FFF04460D2C15D0092C0AD169460020C4
:1017600000F03CF870B90C48006881680098884720
:1017700008E00B2C02D1FFF75BFD03E001A9085D37
:10178000FEF74CFD01F082FF1FBD000037383934F1
:101790003536313233533042600000200148007842
:1017A000704700007A000020014800787047000070
:1017B0007800002001480078704700007900002080
:1017C000014609B906207047012901D10820FAE72E
:1017D000022901D10C20F6E70020F4E70246012A95
:1017E00002DB002101207047094800EB821090F8CD
:1017F0002400012809D10748805C002805DD06483F
:1018000000EB821008600020EDE700210120EAE7EC
:10181000C41400205C0000200415002001460022B2
:101820008B5C501C085C43EA00206B4B1880022242
:101830008B5C501C085C43EA0023901C085C43EA64
:101840000043D01C085C43EA0060634BC3F802000D
:1018500006228B5C501C085C43EA00205E4BD8805B
:1018600008228B5C501C085C43EA00205A4B18810C
:101870000A228B5C501C085C43EA0023901C085C25
:1018800043EA0043D01C085C43EA0060524BC3F8B3
:101890000A000E228B5C501C085C43EA0023901C5B
:1018A000085C43EA0043D01C085C43EA00604B4BF1
:1018B000186012228B5C501C085C43EA0023901CC9
:1018C000085C43EA0043D01C085C43EA0060434BD9
:1018D000586016228B5C501C085C43EA0023901C65
:1018E000085C43EA0043D01C085C43EA00603B4BC1
:1018F00098601A228B5C501C085C43EA0020374B2E
:1019000098811C228B5C501C085C43EA0020334BFE
:10191000D8811E228B5C501C085C43EA0023901C7B
:10192000085C43EA0043D01C085C43EA00602B4B90
:10193000186122228B5C501C085C43EA0023901C37
:10194000085C43EA0043D01C085C43EA0060234B78
:10195000586126228B5C501C085C43EA0023901CD3
:10196000085C43EA0043D01C085C43EA00601B4B60
:1019700098612A228B5C501C085C43EA0023901C6F
:10198000085C43EA0043D01C085C43EA0060134B48
:10199000D8612E228B5C501C085C43EA0023901C0B
:1019A000085C43EA0043D01C085C43EA00600B4B30
:1019B000186232228B5C501C085C43EA0023901CA6
:1019C000085C43EA0043D01C085C43EA0060034B18
:1019D0005862002070470000CC100020DA10002070
:1019E00030B502460B46154DED89202D03D1134D20
:1019F0006D68A9001BE0114DED89182D0AD10F4D1E
:101A00006D6805EB450100E0491C01F00305002D60
:101A1000FAD10CE0094DED89102D08D1074D6D6804
:101A2000690000E0491C01F00305002DFAD1044DC6
:101A3000D5F80A5001FB0354101930BDDA1000200C
:101A4000CC10002010B58021034802F0FEFD08B93B
:101A5000002010BD0120FCE700040240014903C939
:101A60007047000080000020004870471C110020D3
:101A700000BFFEE710B50446012021698847002019
:101A8000A16888470120616988470120616888470B
:101A90000120616988470120A168884701206169A8
:101AA000884700202169884710BD70B5044601258C
:101AB0000020216988470120616988470120616809
:101AC0008847012061698847E06880470546002013
:101AD00061688847012061698847284670BD2DE903
:101AE000F04106460F4614461D46DDF81880304684
:101AF00000F0E0F8307820F00101304600F0A9F85D
:101B0000012805D13046FFF7B5FF0120BDE8F0817F
:101B10003912304600F09DF8012804D13046FFF715
:101B2000A9FF0120F2E7F9B2304600F092F801284F
:101B300004D13046FFF79EFF0120E7E73046FFF76C
:101B400099FF304600F0B6F8307840F00101304699
:101B500000F07FF8012804D13046FFF78BFF012009
:101B6000D4E70EE0012D05D14146304600F010F8D3
:101B7000207004E00021304600F00AF82070641C58
:101B80006D1E002DEED13046FFF774FF0020BDE73B
:101B90002DE9F04104460D4600260027002021696A
:101BA000884700BF12E00120616888470120616911
:101BB0008847E068804740EA4700C7B20020616874
:101BC0008847012061698847701CC6B2082EEADB8D
:101BD0001DB9204600F007F802E0204600F01EF88C
:101BE0003846BDE8F08110B50446012021698847D8
:101BF0000020A16888470120616988470120616849
:101C00008847012061698847002061688847012072
:101C10006169884700202169884710BD10B50446D6
:101C20000120216988470120A16888470120616956
:101C30008847012061688847012061698847002042
:101C400061688847012061698847002021698847C9
:101C500010BD2DE9F04104460D4600260127012064
:101C60002169884700BF1CE005F0800018B1012001
:101C7000A168884702E00020A16888476806050E31
:101C800001206169884701206168884701206169F6
:101C90008847002061688847012061698847701C77
:101CA000C6B2082EE0DB2046FFF7FFFE07463846A7
:101CB000BDE8F08110B50446002061688847012026
:101CC000616988470120216988470120A168884708
:101CD00001206169884701206168884701206169A6
:101CE00088470020A1688847012061698847002053
:101CF0006168884701206169884700202169884719
:101D000010BD2DE9F04106460C4615461F463046EB
:101D1000FFF7D0FF307820F001013046FFF799FF40
:101D2000012805D13046FFF7A5FE0120BDE8F0816E
:101D300021123046FFF78DFF012804D13046FFF70E
:101D400099FE0120F2E7E1B23046FFF782FF012859
:101D500004D13046FFF78EFE0120E7E70BE015F8CF
:101D6000011B3046FFF775FF012804D13046FFF70D
:101D700081FE0120DAE7381EA7F10107EFD13046D6
:101D8000FFF778FE0020D1E77047000000210160D6
:101D90004160822181604121C160232101611421C0
:101DA0004161022101764FF6FF71C1610BA1016211
:101DB000002180F8241080F825108162C16201633F
:101DC00080F8341080F835104FF4FC6181631F21D6
:101DD000C16300210164416470470000427574745E
:101DE0006F6E00000EB5FEF75DFCFEF723FC2820A9
:101DF0001249087012484860124888601248C8604A
:101E000012480861124848616420FFF7F1F9012087
:101E1000042301AA48F2401100900848FFF75FFE32
:101E200018B10CA001F0E8FF0EBD00208DF80800ED
:101E300001A910A001F0E0FF00BFF5E704110020A8
:101E40005539000875390008451A00089D07000833
:101E5000E3110008496E6974475431313531513A04
:101E6000204661696C20746F206765742069640D79
:101E70000A000000546F7563682049443A202573B6
:101E80000D0A000010B586B00446002000F08AFE5E
:101E9000FFF720FA00F03AF800F0C6F800F012F967
:101EA000FEF780FB1648E06016482061206880B18C
:101EB00000214FF6FF7201232068CDE90132009323
:101EC000CDE90310102364223C214FF41B7001F074
:101ED0005DF9606880B100214FF6FF7201236068F0
:101EE000CDE901320093CDE9031010236422502183
:101EF0004FF41B7001F04AF90348046006B010BDAE
:101F0000A5050008453A00086000002010B5012032
:101F10003B490870C82048700020887039484860E4
:101F2000012039490870C82048700020887037485F
:101F300048600D203649087000245DE004EBC401C0
:101F4000344A02EBC100FFF721FF334830F8140098
:101F500004EBC4012F4A42F83100304830F8140035
:101F600004EBC40102EBC10148603C2004EBC40156
:101F700002EBC10188602D2004EBC40102EBC1011A
:101F8000C860092C01D00B2C07D1062004EBC4013A
:101F9000204A02EBC101086106E0172004EBC401EE
:101FA0001C4A02EBC10108610A2004EBC401194A72
:101FB00002EBC10148611A4850F8240004EBC40147
:101FC00002EBC10108620E4804EBC40102EBC1013F
:101FD000C8620D4804EBC40102EBC101086311485B
:101FE00004EBC40102EBC101086404EBC40102EB81
:101FF000C100FFF7B3F8641C0C2C9FD310BD000088
:102000004C000020F5D80108540000203BAE010828
:102010001800002064110020B0030208C803020861
:102020001C000020B104000870B500240FE000205F
:102030001C490855002506E000201B4901EB8411CE
:102040004855681CC5B2402DF6DB601CC4B2012C9B
:10205000EDDB164800F074FB15481649086042F69F
:10206000B310886014481549086042F29E70886079
:102070004FF40C700D49086091204860DC208860A6
:102080003220C860032008610A20486106480862BF
:10209000084888620948C8620948C8630846FFF7CB
:1020A00071F870BD5C00002004150020C4140020ED
:1020B000B80B0108441500206B35010858150020A5
:1020C000FD32000870B51420154908803C20488076
:1020D0004FF4027088804FF4C870C8804FF6FF70CC
:1020E0000881182048811E208881FFF7DFF80C49FD
:1020F000888800EBD0710A4A128802EB61018CB229
:102100000749C88800EBD071054A528802EB61018B
:102110008DB22946204600F07DFF0149C88170BD7F
:102120006C15002010B501F0CFFC00F040FB00F072
:1021300028FB4FF4E13000F0C7FB00F091FB00F00A
:1021400067FB00F051FB4FF4E13000F0C5FB10BD20
:102150007047000010B58EB04FF44870FE4908601B
:102160004FF4F0704860002008720877FB4808625E
:102170004FF050404862FA4888620220C86200244A
:102180000AE0F54801680C3040F824100C3841682A
:10219000143040F82410641C022CF2D341F21A10BF
:1021A00003F09CFA4FF4406003F098FA40F60140C7
:1021B00003F094FA40F6024003F090FA40F6034030
:1021C00003F08CFA40F6044003F088FA40F605402C
:1021D00003F084FA40F6064003F080FA40F6074028
:1021E00003F07CFA40F6084003F078FA04220E214E
:1021F000DC4802F0F7F9042300220221D94802F05A
:102200002CFA042303220021D64802F04DFA0822BA
:102210000E21D44802F0E6F9082300220221D14819
:1022200002F01BFA082303220021CE4802F03CFAF8
:102230004FF480720E21CB4802F0D4F94FF4807332
:1022400000220221C74802F008FA4FF480730322EB
:102250000021C44802F028FA01220921C24802F0F4
:10226000C1F9012300220221BF4802F0F6F901233F
:1022700003220021BC4802F017FA4FF480620E21BD
:10228000B84802F0AFF94FF4806300220221B5484C
:1022900002F0E3F94FF4806303220021B14802F019
:1022A00003FA4FF400620E21AE4802F09BF94FF49E
:1022B000006300220221AB4802F0CFF94FF4006323
:1022C00003220021A74802F0EFF902220921A648C3
:1022D00002F088F9022300221946A34802F0BDF952
:1022E000022303220021A04802F0DEF940220E2141
:1022F0009E4802F077F94023002202219B4802F019
:10230000ACF9402303220021984802F0CDF92022A5
:102310000E21974802F066F92023002202219448FA
:1023200002F09BF9202303220021914802F0BCF91E
:1023300040220E218E4802F055F94023002202214E
:102340008B4802F08AF9402303220021884802F0DA
:10235000ABF94FF400520E21824802F043F94FF4DA
:102360000053002202217F4802F077F94FF4005316
:10237000032200217B4802F097F94FF48062092183
:102380007A4802F02FF94FF4806300220221774847
:1023900002F063F94FF4806303220021734802F0D6
:1023A00083F94FF400420E216E4802F01BF94FF4FE
:1023B0000043002202216B4802F04FF94FF4004322
:1023C00003220021674802F06FF901220E216948BB
:1023D00002F008F9012300220221664802F03DF9CB
:1023E000012303220021634802F05EF902220E213C
:1023F000604802F0F7F80223002219465D4802F017
:102400002CF90223032200215A4802F04DF904223C
:102410000E21584802F0E6F8042300220221554814
:1024200002F01BF9042303220021524802F03CF978
:1024300010220E214E4802F0D5F81023002202216E
:102440004B4802F00AF9102303220021484802F009
:102450002BF94FF480520E21444802F0C3F84FF498
:10246000805300220221414802F0F7F84FF48053D4
:10247000032200213D4802F017F940220E213E4878
:1024800002F0B0F84023002202213B4802F0E5F8B8
:10249000402303220021384802F006F94FF400627D
:1024A0000E21324802F09EF84FF400630022022110
:1024B0002E4802F0D2F84FF40063032200212B488B
:1024C00002F0F2F810220E212A4802F08BF81023B5
:1024D00000220221274802F0C0F810230322002125
:1024E000244802F0E1F808220E21244802F07AF88C
:1024F000082300220221214802F0AFF8082303221A
:1025000000211E4802F0D0F84FF480720E211648C8
:1025100002F068F84FF4807300220221124802F0A2
:102520009CF84FF48073032200210F4802F0BCF89E
:102530004FF400720E210C4802F054F84FF400736F
:1025400000220221084802F088F84FF400730322A9
:102550000021054814E000009C000020000000D08D
:10256000C0BB0BD0001C0240000402400018024017
:102570000010024000200240000C02400000024017
:1025800002F092F84FF480620E21674802F02AF8B8
:102590004FF4806300220221634802F05EF84FF49A
:1025A000806303220021604802F07EF84FF400723D
:1025B0000E215E4802F016F84FF40073002202214B
:1025C0005A4802F04AF84FF400730322002157489A
:1025D00002F06AF84FF480620E21544802F002F8CB
:1025E0004FF4806300220221504802F036F84FF485
:1025F0008063032200214D4802F056F880220E210C
:102600004B4801F0EFFF802300220221484802F0EE
:1026100024F8802303220021454802F045F84FF4B6
:10262000005301221146434802F017F84FF40053BB
:10263000022200213F4802F037F84FF400513D4894
:1026400002F001F803F0B5FA01A803F0C3FB04227D
:102650001146F02003F078F808B900BFFEE700202B
:1026600003F0A8F81C2002F079FF1C2002F088FF7C
:1026700008B900BFFEE700200A900B900C900D9067
:102680002F20ADF806000220ADF804008720ADF839
:102690000A002220ADF8080040F2A730049040F272
:1026A0000220039040F2CF30069040F20F200590B8
:1026B000002007900890099001A803F0A1FA4FF4B8
:1026C000F0704FF44873002211460090104600F05D
:1026D000B9FB4FF4F0704FF448730022114600909C
:1026E000012000F0AFFB002000F084FB012000F08F
:1026F0006DFBFF21002000F0B1FDFF21012000F063
:10270000ADFD012003F060FA012003F051FB03F05E
:102710006DFA002000F082FB002000F043FA002058
:1027200000F0B0F90EB010BD0014024000200240CD
:10273000001802400008024010B5FDF7F1FF10BD7F
:10274000002101604160642181603221C1604B2120
:1027500001610A214161022101764FF6FF71C161D9
:10276000002101628162C162012180F8301080F88D
:1027700031104FF4FC6141631F2181630021C1636B
:10278000704710B5FDF7FEFF10BD30B50B460024B5
:10279000048044808280C4808360002104E000249F
:1027A00085686C544C1C21B29142F8DB30BD10B5E9
:1027B000FDF7EEFF10BD000010B505A0064908604A
:1027C00006A04860074888600846FFF75BFB10BD1D
:1027D0005541525435000000BC17002031313532CC
:1027E00030300000F938000810B50520FDF7F6FF7D
:1027F00010BD10B5FFF7A0FFFFF7ACFCFFF7A8FC7A
:10280000FFF7C2FA00F038F8FFF7D6FF10BD00005E
:1028100010B5124800684FF47A71B0FBF1F4601EF5
:10282000B0F1807F01D301200FE0601E4FF0E02166
:1028300048610F214FF0FF3001F0EEFA00204FF019
:10284000E021886107200861002008B100BFFEE791
:102850000021481E01F0E0FA10BD000094000020A5
:1028600010B5EF2140F2E730FEF760FBEF2140F2B8
:10287000E730FEF785FB10BD10B5FFF7B3FA002077
:1028800010490870002419E000210E48401C015531
:102890004FF6FF7104EB4402401D20F8121004EBC8
:1028A000440200EB42004180002104EB4402054851
:1028B000801D00EB42008180601CC4B2052CE3DB6C
:1028C00010BD00001C11002010B5044600F014F8E3
:1028D0002046FEF77DFB10BD10B504466422044976
:1028E0000448FFF752FF2046FEF7D4FB10BD00005E
:1028F000241C0020181C002010B5002406E0002035
:102900000A4908550A490855601C04B2B4F5007F0D
:10291000F5DB4FF4007205490648FFF736FF4FF428
:10292000007203490448FFF730FF10BD181800205B
:10293000181A0020001800200C1800202DE9FC4770
:10294000044626686768A168206800EB0108E16812
:10295000606800EB0109002518E02A46694601A8D5
:10296000FEF794FE01280FD10198B0420BD30198D5
:10297000404508D80098B84205D30098484502D889
:102980000120BDE8FC8700E000BF6D1C052DE4D3ED
:102990000020F6E72DE9FC4704460022694601A81D
:1029A000FEF774FE054615B90020BDE8FC87012D31
:1029B00019D1D4F800906668A16820684718E168CA
:1029C000606800EB0108019848450AD30198B842B5
:1029D00007D80098B04204D30098404501D80120A0
:1029E000E3E70020E1E70020DFE7F0B505460C460D
:1029F000A96FA4B1002000230EE0D1E90167BE4217
:102A000008D2D1E90067F65DE6544E68761C4E6048
:102A1000401C00E002E05B1C9342EED30AE04E68EB
:102A200016448F68BE4204D24E6816444E6010466B
:102A300000E00020F0BD2DE9FC5F07460E4614467D
:102A4000BD6F2088A98908441FFA80F9A088298AC7
:102A500008441FFA80FA6088A98908441FFA80FB9D
:102A6000E088298A084480B20190B046CDF8008001
:102A70005A4651464846019B00F06AF80020BDE8DE
:102A8000FC9F000010B58CB00446A0B26B4601AAB2
:102A900002A900F08EFC40F6174002F01FFE01F084
:102AA00084FE4FF4403001F049FF03A801F026FFF7
:102AB000022006901348006A039000200490FF2033
:102AC00005909DF8080007909DF8040008909DF877
:102AD000000009904FF448700A904FF4F0700B908A
:102AE00003A801F06DFE01F037FF00BF022001F0E6
:102AF00019FF0028FAD0022001F00CFF01F055FE6A
:102B00000CB010BD9C0000202DE9F04F05460C468E
:102B100016461F46DDF824B0A846A1464FF0000A2D
:102B20004C460FE0454608E03BF81A20214628466F
:102B300000F04CF80AF1010A6D1C08EB0600A842EF
:102B4000F2D8641C09EB0700A042EBD8BDE8F08F77
:102B50002DE9F04F04460D4616461F46B44202D9F1
:102B6000A24634465646BD4202D9AA463D4657467D
:102B70004FF0000BA84610E0A1460AE0099830F893
:102B80001B204146484600F021F80BF1010B09F1EA
:102B90000109B145F2D908F10108B845ECD9BDE801
:102BA000F08F0000084A127A82420BD0064A107257
:102BB000D1685269044BDA601A4651611169936910
:102BC00013619161704700009C000020F0B5114D29
:102BD0002E7F0C3555F826400C3D2E7F143555F8C8
:102BE0002630A04201D2994200D3F0BD094D2D7A82
:102BF00035B9084E366A04FB010726F8172007E0AE
:102C00005D1E6D1A03FB0055024F3F6A27F8152021
:102C100000BFEAE79C0000202DE9FF4F95B08346F6
:102C200014461E465748007A68B95648017F0C3052
:102C300050F821800C38017F143050F821000A90A0
:102C40005D46169F1CE04F48007A012818D14D4878
:102C5000017F0C3050F821800C38017F143050F87F
:102C600021000A90CDF82080DDF8288008980A908D
:102C700008943446089E1698A8EB0000051B5F4692
:102C80002819B0F5487F01D9C5F54874B819B0F5D1
:102C9000F07F01D9C7F5F0763A48007A40B9A946E5
:102CA00009F10100049007EB060ACDF80CA00EE034
:102CB0003448007A01280AD10BEB0609CDF81090B0
:102CC00016982044A0F1010AAAF101000390514690
:102CD000484600F09FF90290DDE9031000F09AF9F0
:102CE00001902848006A2749C96A08FB075201FB7E
:102CF00002000B90A8EB04000990229988B205AB62
:102D000006AA07A900F055FB40F6174002F0E6FCC2
:102D100001F04BFD4FF4403001F010FE0CA801F023
:102D2000EDFD02200F900B980C9009980D90FF205C
:102D30000E909DF81C0010909DF8180011909DF8C1
:102D400014001290139414960CA801F039FD01F0B0
:102D500003FE00BF022001F0E5FD0028FAD00220AA
:102D600001F0D8FD01F021FD51464846029AFFF7D7
:102D70002DFF019ADDE90310FFF728FF19B0BDE828
:102D8000F08F00009C0000202DE9F84F04460D460E
:102D900016461F46DDF828B0B44202D9A046344694
:102DA0004646BD4202D9A8463D464746301B00F183
:102DB0000109781B00F1010A53464A46294620467C
:102DC000CDF800B0FFF728FFBDE8F88F10B5044636
:102DD0001CB9074802F072FF05E0012C03D104483A
:102DE000803002F06BFF012002F0E2FF10BD000016
:102DF0000068014010B504461CB9074802F065FFA1
:102E000005E0012C03D10448803002F05EFF012070
:102E100002F0CEFF10BD00000068014028B906494D
:102E2000064A11620021117704E00549034A116244
:102E30000121117770470000000000D09C000020A5
:102E4000C0BB0BD02DE9F04F8BB080460E46174625
:102E50001C46149D01A802F08BFF6A48007A0128E5
:102E600016D1B2467819A0F1010B5646374640F20A
:102E70001F30A0EB0B06B6F5487F02D30BB0BDE8C0
:102E8000F08FB7F5F07F00D3F8E7A1462C464D460A
:102E90003019B0F5487F01D9C6F548747819B0F5F6
:102EA000F07F01D9C7F5F075B8F1000F4FD106F1E9
:102EB000880080B2ADF806003019873080B2ADF8D6
:102EC000040007F1230080B2ADF80A00781922301F
:102ED00080B2ADF8080002200390FF208DF81000AA
:102EE0008DF814008DF813008DF812008DF8110084
:102EF0004FF4C060069007200790434808900320D5
:102F000000EB440080B2ADF826004FF6FF7000EAF7
:102F10004400ADF82400A8B2ADF8280001A93B4850
:102F200002F0DAFE394802F03DFE384802F038FF80
:102F30003448007A18B93348C46045615DE03148CF
:102F4000007A012859D12F48C560446155E0B8F195
:102F5000010F52D106F1880080B2ADF80600301999
:102F6000873080B2ADF8040007F1230080B2ADF8DD
:102F70000A007819223080B2ADF8080002200390D0
:102F8000FF208DF810008DF814008DF813008DF8D7
:102F9000120000208DF811004FF4C0600690072049
:102FA00007901B480890032000EB440080B2ADF866
:102FB00026004FF6FF7000EA4400ADF82400A8B2E6
:102FC000ADF8280001A91148803002F085FE0F48B5
:102FD000803002F0E7FD0D48803002F0E1FE094844
:102FE000007A18B907480461856106E00548007A4F
:102FF000012802D1034805618461012002F0D8FE56
:1030000000BF3BE79C000020000000D000680140AA
:10301000C0BB0BD030B502461148057F0C3050F8CC
:1030200025400C38057F143050F82530A24201D2DB
:10303000994201D3002030BD0948007A30B90848D0
:10304000006A04FB012530F81500F4E7581E401A09
:1030500003FB0200024D2D6A35F81000EBE700007B
:103060009C0000202DE9FF4F84B082460C46154697
:10307000DDF84CB025B1012D04D0022D06D103E0BE
:103080000C2706E0102704E0182702E008B0BDE88E
:10309000F08F00BF25B1012D05D0022D09D105E02B
:1030A0004FF00C0806E04FF0100803E04FF0240842
:1030B00000E0EBE700BF25B1012D0AD0022D16D1AB
:1030C0000DE0ABF1200000EB40002C4901EB800942
:1030D0000EE0ABF120002A4901EB001908E0ABF14A
:1030E000200000EBC000274901EB800900E0CDE79C
:1030F00000BFCDF80090019400263BE00098805D71
:1031000003900020029030E0039800F0800028B186
:1031100021465046119AFFF759FD06E0079820B95D
:1031200021465046129AFFF751FD03984006000EC3
:103130000390641C1448017F143050F82100A04211
:1031400000D8A3E70198201AB8420BD3019C0AF1DA
:10315000010A0D48017F0C3050F82100504500D87D
:1031600094E705E00298401C029002980828CBD30F
:1031700000BF761C4645C1D300BF87E7CE6000087C
:1031800042650008326B00089C0000202DE9FF4FCB
:1031900085B006460F469946DDF85880B246079836
:1031A0005044A0F1010B0BEB0900401E0490129853
:1031B00020B1012804D0022806D103E0062406E04D
:1031C000082404E00C2402E009B0BDE8F08F00BF41
:1031D00000253DE018F80500802818DA18F80500E9
:1031E000DDE91412CDE90012029039463046DDE9DE
:1031F0001223FFF737FF3019584505D956464F447B
:103200000498874201D9DFE726446D1C20E0681C42
:1032100018F8000018F8051040EA01200390DDE9D5
:1032200014120398CDE90012029039463046DDE9C8
:103230001223FFF717FF06EB4400584505D9564601
:103240004F440498874202D9BEE706EB4406AD1C02
:1032500018F805000028BDD100BFB5E770B50546D8
:103260000C4645B90B48006820F0FF00094908608A
:103270000846046009E007488030006820F0FF003D
:1032800004498031086008460460012002F090FD86
:1032900070BD00009868014010B5044613480068EE
:1032A000401C1249086008460068A0421DD3002057
:1032B00008600F48006860B901200D4908602021AE
:1032C0000C4801F0C0F94FF480710B4801F0B9F9D6
:1032D0000BE00020064908602021064801F0B1F902
:1032E0004FF48071044801F0AEF910BD04000020D5
:1032F00008000020000402400020024070B505468E
:1033000000240BE0074800EB8410A84204D00549D4
:1033100001EB8410FDF76CF9601CC4B2012CF1DBE9
:1033200070BD0000C414002000BFFEE77047704766
:1033300010B5FEF733FA08B1FDF76AF910BD0000C9
:1033400010B5FEF731FA78B108480078401C0749FB
:10335000087008460078142804DB00F0BFF900204C
:1033600002490870FDF75AF910BD00000000002066
:1033700010B5FEF71FFA88B1FA20FFF78DFF084855
:103380000078401C0649087008460078142803DBC2
:103390000020087000F01AF8FDF746F910BD000093
:1033A000010000200146C88808B9012070470020AC
:1033B000FCE710B500F47844E40A0C7000F4FC64F7
:1033C0006409147000F01F041C7010BD10B500F0EB
:1033D00003F8FEF7B5F910BD38B5FEF73FFB04461C
:1033E0000D4631E02948007808B9294830C09DF8D9
:1033F00000002849254A1278885424480078401C47
:103400003021B0FBF1F201FB1200204908700846A0
:103410000078022818DB08460078801E1D49085CE9
:103420000D2811D119480078401E085C0A280BD1DC
:1034300000211848154A1278815400201349087059
:1034400015480169134888470121684600F034F89F
:103450000028C7D10D480078002815DD0C48D0E9B8
:103460000010631A65EB00010020D3F1FA028841D5
:103470000AD200200749054A127888540349087087
:10348000054801690348884738BD000068000020EE
:1034900070000020D0170020BC17002070B5044633
:1034A0000025012221460348FDF778FEC5B22846D3
:1034B00070BD00000018002070B504460D460026BF
:1034C0002AB221460248FDF769FE0646304670BD25
:1034D000181C0020704770B5044600252046FFF7F1
:1034E0002DFA012807D194F8240060B9012084F84E
:1034F0002400012507E094F82400012803D10020CE
:1035000084F82400012594F8250028B9012D0AD15A
:103510002046FDF729F806E094F82500012802D19D
:103520002046FDF721F8012D05D12046FDF70CFFBF
:103530002046FDF7A7FF70BD2DE9FF41054601209C
:10354000034603AA48F24E1100903E48FEF7C7FA20
:103550009DF80C0000F00F0003909DF80C002870FF
:1035600000200390012303AA48F24E113548FEF7CC
:10357000C8FB002461E02978601C81424CDB0120FB
:103580000090314830F81410062301AA2D48FEF7A8
:10359000A6FA9DF804009DF8051040EA012104EB0D
:1035A0004402A81D20F812109DF806009DF807108F
:1035B00040EA012104EB4402A81D00EB42004180D7
:1035C0009DF808009DF8091040EA012104EB44022F
:1035D000A81D00EB420081801C48007A012817D109
:1035E00004EB4401A81D30F8116004EB440100EB2A
:1035F0004100478804EB4401A81D20F81170C6F56E
:10360000487081B204EB4402A81D00EB42004180E7
:103610000121681C01550EE00021681C01554FF680
:10362000FF7104EB4402A81D20F8121004EB4402C1
:1036300000EB42004180601CC4B2052C9BDBBDE85E
:10364000FF810000041100200C0000209C000020DD
:1036500010B5002412E00D200A49087004EBC401E3
:10366000094A02EBC100FFF736FF064800780D2833
:1036700002D00448007810BD601CC4B20C2CEADBF8
:103680000D20F8E7180000206411002010B5002478
:1036900006E0054901EB841000F008F8601CC4B294
:1036A000012CF6DB10BD0000C414002010B5044648
:1036B0002046FFF76FF901280ED194F8240058B97D
:1036C0002046FCF766FF012084F824002046FDF721
:1036D0009FFE2046FDF7F3FE10BD00002DE9FC47DC
:1036E000002404E000200DF80400601CC4B2052C86
:1036F000F8DB7F48FFF720FF7D4800787D490870A0
:10370000002470E07B48401C005D012869D14FF027
:10371000000A002558E07648401C405D012851D140
:1037200004EB44017348801D30F8116004EB440140
:1037300000EB4100478805EB45016D48801D30F8DE
:10374000118005EB450100EB4100B0F802904146C5
:103750003046FCF759FD4B2834DC49463846FCF727
:1037600053FD4B282EDC4FF0010A05EB4501604864
:10377000801D30F8111004EB44025E48801D20F8D3
:10378000121005EB45015A48801D00EB41004188AD
:1037900004EB44025748801D00EB4200418005EBDA
:1037A00045015348801D00EB4100818804EB440231
:1037B0005048801D00EB4200818001214D48401C93
:1037C000015503E0681CC5B2052DA4DB00BFBAF1AA
:1037D000000F06D100214748401C015501200DF87B
:1037E0000400601CC4B2052C8CDB00247AE0404845
:1037F000401C005D012873D14FF0000A00252CE029
:103800003C48401C405D012825D104EB4401384868
:10381000801D30F8116004EB440100EB4100478843
:1038200005EB45013348801D30F8118005EB45015B
:1038300000EB4100B0F8029041463046FCF7E4FC52
:103840004B2808DC49463846FCF7DEFC4B2802DCF6
:103850004FF0010A03E0681CC5B2052DD0DB00BFA4
:10386000BAF1000F3CD1002537E02248401C405DF2
:1038700078BB1DF8050060BB04EB44011C48801DAB
:1038800030F8111005EB45021A48801D20F812107F
:1038900004EB44011648801D00EB4100418805EB14
:1038A00045021448801D00EB4200418004EB4401B6
:1038B0000F48801D00EB4100818805EB45020D4853
:1038C000801D00EB4200818001210A48401C4155C7
:1038D00005E000E004E0681CC5B2052DC5DB00BFB3
:1038E000601CC4B2052C82DB02480078BDE8FC876E
:1038F000401100201C11002038B5044604B938BD21
:10390000002507E0605D00900121684600F05CFA48
:10391000681CC5B2605D0028F4D10D200090012123
:10392000684600F051FA0A2000900121684600F034
:103930004BFA00BFE3E770B504460D4694F8240047
:10394000012806D125622046FDF762FD2046FDF7DD
:10395000B6FD70BD10B50446012C04D140210448C9
:1039600000F071FE03E04021014800F06AFE10BD46
:103970000004024010B50446012C04D18021044803
:1039800000F061FE03E08021014800F05AFE10BD06
:10399000000402402DE9FE4F04460F469046284899
:1039A0000088384486B22648408840441FFA80F98F
:1039B00023480088224989880844401F1FFA80FA5A
:1039C0001F48C08900901E488088421F182349461E
:1039D0003046FFF721F90CB9BDE8FE8F002525E040
:1039E000605D0D2802D0605D0A2800D124E01449F2
:1039F000488900EBD071AAEB6101B14200DA1BE00B
:103A0000605D00214FF6FF720123CDE90021029095
:103A1000022249463046FFF725FB0949488900EB59
:103A2000D07106EB61018EB2681C85B2605D7E28A4
:103A300002DC605D2028D3DA00BF00BFCCE70000C5
:103A40006C15002070B5054600240AE0285D194970
:103A5000097801EB4101184A02EB01110855601C7D
:103A6000C4B2285D7E2802DC285D2028EEDA002022
:103A70001049097801EB41010F4A02EB0111085589
:103A80000C480078401C0C2190FBF1F201FB120065
:103A900008490870094800780C2805DA07480078BA
:103AA000401C0649087002E00C200449087000F030
:103AB0003DF970BD5D0000207C1500205E000020F7
:103AC00010B500F0B7F810BD08B52D48006840F4F7
:103AD00070002B4908602B48006840F0010029491C
:103AE000086028480830006840F080002549083107
:103AF00008600020009002E00098401C00904CF20A
:103B0000503100988842F7D31E480830006840F0D2
:103B100090001C49083108600020009002E00098E5
:103B2000401C00904CF2503100988842F7D3154861
:103B30000830006820F0030012490831086011487D
:103B40000068114908400F4908600846006820F4E1
:103B50008020086000200B490831086000BF094838
:103B60000830006800200028F9D108480549091DDF
:103B70000860002003490C31086001F0DDFE08BD3B
:103B800088ED00E000380240FFFFF6FE1030002410
:103B900010B50121880701F0EEFF012803D10121B2
:103BA000800701F0E5FF01200C4908700C480088EF
:103BB000401C0B49088008460088022804DB0020CE
:103BC00008800120074908700748D0E900305A1CD6
:103BD00040F100000449C1E9002010BD7800002038
:103BE00088000020790000208000002010B501210D
:103BF0000D4801F0C0FF012803D101210A4801F05E
:103C0000B7FF0A480088401C00B2084908800846EF
:103C1000B0F90000B0F57A7F04DB002008800120B5
:103C20000349087010BD0000000C00408A0000200D
:103C30007A0000200448006820B103480068401E54
:103C400001490860704700009000002008B500207E
:103C500000902449244802F0F6F960B12149224835
:103C600002F0E4F9204802F03BF9C0B200909DF860
:103C7000000000F09DF81D491B4802F0E4F90128FE
:103C800006D11A49184802F0D1F9174802F028F96C
:103C90001749154802F0D7F918B31549124802F030
:103CA000C5F92520002807DB00F01F020121914003
:103CB000104A430942F8231000BF6846FFF7EEFBA5
:103CC0009DF80010084802F010F90B48FFF76AFB56
:103CD00038B100200949087040F20731024802F06B
:103CE0008BF908BD05030500001001400005030025
:103CF0000703070080E200E0001800208C0000208D
:103D000008B5074802F0ECF8C0B2009001226946FD
:103D10000448FDF7F1FB0449014802F087F908BDAA
:103D200000140140181C00200503050070B51C4854
:103D300006781C48057805B970BD0C2D13DA0024EF
:103D40000EE0C4EB0411490001F11E0204EB440132
:103D5000154B03EB01100321FFF71CFE601CC4B2DE
:103D6000AC42EEDD19E0002415E0C4EB041149007B
:103D700001F11E0206EB46010B4B03EB0110032180
:103D8000FFF708FE701C0C2190FBF1F201FB120002
:103D9000C6B2601CC4B20C2CE7DB00BFCCE700004D
:103DA0005D0000205E0000207C15002000BFFEE7C3
:103DB00031B50024012269460248FDF79DFBC4B2DB
:103DC000204638BD0C18002070B506460C4600256C
:103DD0000BE000BF0721074802F0FFF80028F9D0E8
:103DE000715D044802F081F86D1CA542F1D32046B4
:103DF00070BD0000001401400FB4054B10B503A9BD
:103E0000044A029800F02BF810BC5DF814FB000087
:103E1000C14500089800002010B5002804DB0A07FF
:103E2000130E054A135406E00A07140E034A00F065
:103E30000F031B1FD45410BD00E400E018ED00E098
:103E400002E008C8121F08C1002AFAD17047704763
:103E5000002001E001C1121F002AFBD170472DE9AB
:103E6000F84F9946924688460546002706E02528E1
:103E70000AD051464A4690476D1C7F1C287800287E
:103E8000F5D13846BDE8F88F002315F8011F184614
:103E90002E2915D115F8011F04232A290DD06FF002
:103EA0002F022978A1F13004092C09D800EB8000F9
:103EB00002EB400008446D1CF3E758F8040B6D1C3E
:103EC0002A78002ADDD0632A07D0732A0FD0104643
:103ED00051464A4690477F1C2AE018F8042B8DF87B
:103EE000002000218DF801106E46012103E058F8F2
:103EF000046B4FF0FF315A074FF0000401D409E082
:103F0000641C84420BDA8C42FADB325D002AF7D162
:103F100005E0641C8C42FCDB305D0028F9D12744AD
:103F200004E016F8010B51464A469047641EF8D249
:103F30006D1CA3E702460020CB1C23F00301136F86
:103F40008B4205D3136F5B1A1367D06E4318D36689
:103F500070472DE9F05F04468846267B2768656830
:103F600095F800A000208346814600BF36BB67B9A4
:103F7000A5684FF4806229462046636F984707463C
:103F800027B96FF00100BDE8F09F6D1C7F1EBBF1EB
:103F9000000F0AD04FF0000B287810B16FF0050029
:103FA000F1E7FF208246287007E095F800A0BAF1FB
:103FB000FF0F02D14FF0010B0BE080264FEA4909B9
:103FC0000AEA060008B109F101097610A8F1010812
:103FD00000BFB8F1000FC9D126732760656048465D
:103FE000D1E700002DE9F04F87B00C464FF4B55BE8
:103FF000CDF818B041F2511BCDF814B042F6CF1BEA
:10400000CDF810B041F6905BCDF80CB04FF0000B3E
:10401000CDF800B080E0D0F800C0D0F84080D0F8F3
:104020008090D0F8C0100CEB090AACEB090BCDF86E
:1040300008B0A8EB010B4FF4B55E0BFB0EFB4FEA8B
:104040002B3741447F1A0AEB010CAAEB0101DDF882
:1040500008B007EB0B08DDF808B0ABEB0709D0F8A8
:10406000E050036AD0F8A060026EA3EB050A5F1966
:10407000A6EB020BCDF808B03244A7EB020B0BFB0A
:104080000EFB4FEA2B333A44DDF808B0D34441F637
:10409000905E0BFB0EFB4FEA2B3BCDF804B041F2D8
:1040A000511B0AFB0BFEDDF804B0ABEB2E3542F6DC
:1040B000CF1EDDF808B00BFB0EFEDDF804B0ABEB55
:1040C0002E3BABEB02069B1BED1A0CEB020BC0F870
:1040D00000B0ACEB020BC0F8E0B008EB060BC0F888
:1040E00020B0A8EB060BC0F8C0B009EB030BC0F87A
:1040F00040B0A9EB030BC0F8A0B001EB050BC0F872
:1041000060B0A1EB050BC0F880B0001DDDF800B079
:104110000BF1010BCDF800B0DDF800B0BBF1080FDA
:10412000FFF479AF20384FF0000BCDF800B0A2E0DB
:10413000D0F800B00BF5004CD0F80880D0F8109003
:1041400081690CEB090AACEB090BCDF808B0A8EBC0
:10415000010B4FF4B55E0BFB0EFB4FEA2B374144CE
:104160007F1A0AEB010CAAEB0101DDF808B007EB9E
:104170000B08DDF808B0ABEB0709C5694368466971
:10418000C268A3EB050A5F19A6EB020BCDF808B0D5
:104190003244A7EB020B0BFB0EFB4FEA2B333A44E6
:1041A000DDF808B0D34441F6905E0BFB0EFB4FEAFE
:1041B0002B3BCDF804B041F2511B0AFB0BFEDDF89E
:1041C00004B0ABEB2E3542F6CF1EDDF808B00BFB8A
:1041D0000EFEDDF804B0ABEB2E3BABEB02069B1BF7
:1041E000ED1A0CEB020BCBF3092BDFF89CE01EF869
:1041F0000BB084F800B0ACEB020BCBF3092B1EF82C
:104200000BB084F807B008EB060BCBF3092B1EF8B4
:104210000BB084F801B0A8EB060BCBF3092B1EF80A
:104220000BB084F806B009EB030BCBF3092B1EF897
:104230000BB084F802B0A9EB030BCBF3092B1EF8EB
:104240000BB084F805B001EB050BCBF3092B1EF87E
:104250000BB084F803B0A1EB050BCBF3092B1EF8D0
:104260000BB084F804B008342030DDF800B00BF156
:10427000010BCDF800B0DDF800B0BBF1080FFFF482
:1042800057AF07B0BDE8F08F4E7900082DE9F74F22
:1042900086B00D4616468EE0112E03D2062009B0D8
:1042A000BDE8F08F113E15F801AB4FEA2A190AF06C
:1042B0000F0003900AF0EE0008B10620EFE710218E
:1042C0000698FFF737FE8046B8F1000F01D10320B2
:1042D000E5E706982430039900EBC10040F82980F7
:1042E00000200446074607E015F8010B049008F883
:1042F000040004980744641C102CF5D37900069838
:10430000FFF718FE8346BBF1000F01D10320C6E77B
:1043100006983430039900EBC10040F829B0002022
:1043200001900446059019E018F80400049009E093
:104330000598421C019905922BF810100198401C19
:1043400080B201900498411E04910028F0D14FF6EC
:10435000FF71019801EA40000190641C102CE3D326
:10436000BE4201D206209AE7F61B39460698FFF7AF
:10437000E1FD0290029808B9032090E706984430C6
:10438000DDE9021200EBC20040F82910002410E021
:1043900015F801ABB9F1000F04D1BAF10B0F01DD33
:1043A00006207CE7029880F800A00298401C02904A
:1043B000641CBC42ECD3002E7FF46EAF00206EE78D
:1043C0002DE9F04782460C4616462BE0412E02D2DC
:1043D0000620BDE8F087413E14F8018B08F0F0009C
:1043E00008B10620F5E708F003074FF48071504646
:1043F000FFF7A0FD05460DB90320EAE70AF15400D6
:1044000040F8275000270BE0084810F8079014F8F0
:10441000010B074931F81910484345F829007F1C62
:10442000402FF1D3002ED1D10020D2E78E780008A2
:10443000CE78000802460023012A03D0022A01D0C8
:10444000032A04D15001A0F1C040436C01E00548AB
:10445000036803EA0100884201D000207047012070
:10446000FCE70000580100A0D0E902211143426896
:104470001143026841EA4221014A1160704700007D
:10448000500100A070B50568042D3AD1D0E9086547
:104490003543C66935438669354346693543066900
:1044A00045EA4625C6683543866845EA06354668C6
:1044B0003543384E3560856AAD696D1E866A76690A
:1044C000761E45EA0616856A2D696D1E46EA0526A2
:1044D000856AED686D1E46EA0536856A2D896D1E72
:1044E00046EA0546856AAD886D1E46EA0556856A28
:1044F0002D786D1E46EA05654FF02046C6F84851F6
:1045000047E0244D2D6825F4F841D0E90265354394
:10451000466835432943D0E908653543C6693543C4
:104520008669354346693543066945EA06044FF016
:104530002045C5F84011C5F84441D5F84851164EFC
:1045400005EA0602856AED686D1E2E03856AAD8850
:104550006D1E46EA0556856A2D896D1E46EA05459B
:104560002A43856AAD696D1E866A7669761E45EABC
:104570000616856A2D696D1E46EA0526856A2D7820
:104580006D1E46EA05634FF02045C5F84821C5F881
:104590004C3170BD400100A0FF0F00FF074A1268B8
:1045A00043F6FE7322EA03011A4602EA40020A4376
:1045B0004FF02043C3F8542170470000540100A07D
:1045C00070B504460D4600BF0721054801F005FD02
:1045D0000028F9D0E1B2024801F087FC204670BD06
:1045E00000100140F0B503461C6A5D6A00200DE032
:1045F0000126864016403EB187000F26BE40B443D8
:10460000860001FA06F63443461CB0B20828EFD300
:10461000082011E00126864016405EB1A0F1080690
:10462000B7000F26BE40B543A0F10806B60001FA58
:1046300006F63543461CB0B21028EBD31C625D620F
:10464000F0BD816270478161704702461069084081
:1046500008B1012070470020FCE7F0B504460D4684
:1046600016462168E268002019E0012787401F40B4
:104670009FB14FEA400C032707FA0CF7B9434700F4
:1046800005FA07F739434FEA400C032707FA0CF7FE
:10469000BA43470006FA07F73A43471CB8B2102856
:1046A000E3D32160E260F0BDF0B50C461546012C65
:1046B00003D146681E43466002E046689E4346605A
:1046C000826800210DE001268E401E403EB14F0061
:1046D0000326BE40B2434E0005FA06F632434E1C96
:1046E000B1B21029EFD38260F0BD2DE9FF5F04461F
:1046F000884691469A46267B276865682878039005
:104700000020834602901020019000BF36BB6FB995
:10471000A5684FF4806229462046636F9847074694
:104720002FB96FF0010004B0BDE8F09F6D1C7F1E33
:10473000029850B100200290287810B16FF0050067
:10474000F1E7FF200390287007E028780390039892
:10475000FF2802D10120029022E080264FEA4B0B75
:104760000398304008B10BF1010B761018F8010BDB
:1047700000900EE039F8021B594505D126732760D9
:1047800065609AF80000CEE70AF1010A0098401E21
:10479000009000980028EDD10198401E019000BFC4
:1047A00001980028B2D1801FBDE710B540F2174034
:1047B00000F0B8FF40F2174000F0A2FF10BD00006B
:1047C00010B500224C4B1B6803F0010333B10122EA
:1047D000494B1B6823F00103474C2360464B5B6B3E
:1047E00023F00703444C6363C3686363C16805290E
:1047F0005CD2DFE801F00315253548003E4B9B6B8A
:1048000000233D4CA363D0E9054343EA0423048A13
:1048100043EA0443047A43EA0463374CA36346E063
:10482000354B9B6B03F07F43334CA363D0E90543C7
:1048300043EA0423048A43EA04432F4CA36336E08B
:104840002D4B9B6B6FF30F032B4CA363D0E90543F8
:1048500043EA4413046943EAC423274CA36326E0D4
:10486000254B9B6B6FF30F03234CA363D0E90543E8
:1048700043EA4413046943EA8423846843EAC43363
:104880001D4CA36313E01C4B9B6B6FF30F031A4C7F
:10489000A363D0E9054343EA0413046943EA04230C
:1048A000846843EA0433144CA36300E000BF00BFF4
:1048B000114BDB6B0023104CE3630368E363234677
:1048C0001B6C6FF30D0323644368236423465B6C06
:1048D00003F040436364848B036A43EA0443064C59
:1048E000646C2343044C6364012A04D123461B688F
:1048F00043F00103236010BD00B002400021C160FD
:10490000416081600161416181610160C161016259
:1049100070470000024989680143014A916070476D
:1049200000B00240014604484068084008B1012038
:1049300070470020FCE7000000B00240054909680C
:1049400021F44031034A11601146096801431160A6
:104950007047000000B002400348006840F00100CA
:10496000014908607047000000B002402DE9F74F90
:1049700082B004461746032F03DD052005B0BDE8CD
:10498000F08F6773A07B4FEAC009E07B4FEAC00A53
:104990000021A182E18221838B46CDF804B000255D
:1049A00000262FE04FF0000828E0608BA0B15846A9
:1049B000411C1FFA81FB618B88420DD10198421C7A
:1049C00092B201462046019200F000FF05460DB16B
:1049D0002846D3E74FF0010B204600F0F3F90546D7
:1049E0000DB12846CAE7334642462046039900F0F7
:1049F000DBFA05460DB12846C0E7C844E0694045EA
:104A0000D3D85644206AB042CCD82846B6E72DE920
:104A1000FF4F83B00446059818B9052007B0BDE8DC
:104A2000F08F0598E06606982067049860671098F4
:104A3000A0670020608300261BE04FF0000A14E00E
:104A4000002104F1240000EBC60040F82A1004F114
:104A5000340000EBC60040F82A1004F1440000EBDB
:104A6000C60040F82A100AF1010ABAF1020FE7D392
:104A7000761C022EE1D3002605E0002104F154004B
:104A800040F82610761C042EF7D34FF480612046A0
:104A9000FFF750FA0546A0600DB90320BEE70222D9
:104AA00029462046636F9847022801D00220B5E7C7
:104AB0006878297840EA01204FF6D871884201D001
:104AC0000620ABE74FF0020900BF0422294620462A
:104AD000636F9847042801D002209FE768782978FF
:104AE00040EA01200290E878A97840EA0127022FE5
:104AF00004D9FF210298B1EB202F01D006208DE7C9
:104B0000BF1E381D81440298C0B2C0381E2872D220
:104B1000DFE800F00FF4F3F272F1F0EF71EEEDEC7C
:104B200071EBEAE9717171717171717171E8A68C43
:104B3000715DB7F5806F01D904206FE73A462946C9
:104B40002046636F9847B84201D0022066E7287973
:104B5000E97840EA0120E061A878697840EA01201C
:104B600020626879032801D0082057E700262BE04F
:104B700006EB4600C01D15F800808EB9B8F1110F84
:104B800007D0B8F1220F04D0B8F1210F01D00820CE
:104B900044E74FEA2810A07308F00F00E07304E028
:104BA000B8F1110F01D0082038E706EB46000830B5
:104BB00015F80080B8F1030F01DD08202EE704F19D
:104BC000100000F80680761C032ED1D3ECE0B7F578
:104BD000806F01D9042021E73A4629462046636FB9
:104BE0009847B84201D0022018E76878297840EA4F
:104BF00001206083D8E0CDE0B7F5806F01D90420B3
:104C00000CE73A4629462046636F9847B84201D0E0
:104C1000022003E73A4629462046FFF737FBC0B299
:104C20000190019808B10198F8E6BDE0B7F5806FF2
:104C300001D90420F2E63A4629462046636F984798
:104C4000B84201D00220E9E63A4629462046FFF75D
:104C5000B7FBC0B20190019808B10198DEE6A3E06D
:104C6000B7F5806F01D90420D8E63A462946204698
:104C7000636F9847B84201D00220CFE6E06908B1DF
:104C8000206A08B90620C9E62878032801D0082040
:104C9000C4E6002634E07000801C15F80080B8F1EE
:104CA000000F04D0B8F1110F01D00820B6E60EB104
:104CB000012000E00020804604F1240050F8380074
:104CC00028B104F1240000EBC800406808B90620B0
:104CD000A4E604F11000815D443050F8210070B961
:104CE00006209BE654E052E050E04EE04CE04AE003
:104CF00048E046E044E042E040E03EE03CE0761C34
:104D0000032EC8D3E07BA17B10FB01FBBBF1000F9E
:104D100001D1062082E6402101EBCB17FF2F00D8FE
:104D20008F0039462046FFF705F96066606E08B9C6
:104D3000032073E60BF1020081012046FFF7FAF829
:104D4000A066A06E08B9032068E6656000202060B8
:104D50002073C9F30900B0F100090BD0C9F58062D6
:104D600005EB09012046636F9847206005EB0900B9
:104D7000401E6060002051E600BF00BF00BF00BFC2
:104D800000BF00BF00BF00BF00BF00BF00BF00BF2B
:104D9000082043E63A4600212046636F9847B84210
:104DA00001D002203AE600BF8FE6FDF7BBF9FDF720
:104DB00020FD05E0FEF7C4FAFEF7DAFAFEF7B8FACE
:104DC000F8E700002DE9F04F89B00446D4F864906C
:104DD000A07BE17B10FB01F0089002200790A06E01
:104DE00004904FF0000BD4E00898834501D20020D6
:104DF00003E00898ABEB0000401C0590059808B153
:104E0000012000E00020804604F1240050F8380022
:104E1000039004F1340050F83800019004F144008C
:104E200050F8380002902046DDE901230399FFF78E
:104E30005CFC0546002D04DA6842C0B209B0BDE84A
:104E4000F08F04F11400059930F91160F5B129468D
:104E50002046FFF77EF88246BAF1000F03DACAF166
:104E60000000C0B2EAE7681E012101FA00F50AEA73
:104E7000050020B90120C0EB4500AAEB000A56440A
:104E800032B204F11400059920F8112004F1100049
:104E90000599415C443050F821000090009800686A
:104EA00070430012C9F80000012703E0002049F810
:104EB00027007F1C402FF9D304F1240000EBC80029
:104EC0004068039004F1340000EBC8004068019092
:104ED00004F1440000EBC80040680290012700BFC5
:104EE0002046DDE901230399FFF7FFFB054605B9DD
:104EF00037E0002D02DA6842C0B29FE72809069029
:104F0000069828B106980744402F01D3062095E75C
:104F100005F00F00051E20D029462046FFF719F89E
:104F20000646002E02DA7042C0B287E7681E0121F1
:104F300001FA00F506EA050018B90120C0EB4500AA
:104F4000361A1848C05D06900699009850F821005E
:104F500070430112069849F82010781C0746402833
:104F6000BED300BF607B03280AD1D9F80000C11767
:104F700000EB116109128031CAB204990A7003E092
:104F800048460499FFF72EF80498403004900BF13E
:104F9000010BDDE90710084458453FF625AF002016
:104FA0004CE700008E7800082DE9FF4F8DB00446D5
:104FB0004FF480600C90A07BC700E07BC0000B909A
:104FC0000F983844E169884201D8384602E0E16927
:104FD0000F98081A83460B9910980844216A884252
:104FE00001D80B9802E0216A1098081A0A90607B99
:104FF0002BFA00FB617B0A98C8400A90BBF1000FB6
:1050000001D00A9818B9002011B0BDE8F08F617B7B
:105010000F98C8400F90617B1098C84010900F986F
:1050200080B2ADF814000F985844401E80B2ADF81D
:105030001600109880B2ADF818000A99109808442C
:10504000401E80B2ADF81A00607B03287DD0656EEB
:1050500000266EE0D4F8688008EBC60007900B9835
:1050600010280BD170084FF4807101EBC000804410
:10507000082E07D307984030079003E0F80000EBB4
:10508000C60080444FF0000950E098F800008038D6
:10509000099098F8400080380890102F09D1B9F194
:1050A000080F02D107983830079009F001008044BA
:1050B00001E008F10108079810F801AB079040F2F1
:1050C0009B52089901FB02F0C11700EB91510AEBCA
:1050D000A121C1F30901984A515C05F8011B4FF465
:1050E000B0720999514340F2DB23089A03FB021086
:1050F000C11700EB9151AAEBA121C1F309018E4A1E
:10510000515C05F8011B40F21672099901FB02F08F
:10511000C11700EB91510AEBA121C1F30901864AA5
:10512000515C2970691C0D4609F10109B945ACD3E0
:10513000761C0B9886428DD3607B002853D0637B0E
:105140005A0094F80DE0012300E04DE003FA0EF15F
:105150007B1A03EB43030093606E002640E04FF0A0
:1051600000093AE006FB079E0EEB4E0E636E03EB62
:105170000E05002301930293039304931DE04FF067
:10518000000C13E015F8013BDDF80CE073440393C9
:1051900015F8013BDDF808E07344029315F8013B74
:1051A000DDF804E0734401930CF1010C8C45E9D364
:1051B000009B1D44049B5B1C0493049B8B42DED329
:1051C000039BD34000F8013B029BD34000F8013B16
:1051D000019BD34000F8013B8944B945C2D30E443A
:1051E0000B9B9E42BBD35BE0656EA16E0B9807FBE9
:1051F000001898F800008038099098F8400080382E
:105200000890002649E0A06E0790082E02D107986A
:10521000803007904FF000093CE0079890F800A01C
:1052200007984030079040F29B52089901FB02F02A
:10523000C11700EB91510AEBA121C1F309013E4ACC
:10524000515C05F8011B4FF4B0720999514340F2CB
:10525000DB23089A03FB0210C11700EB9151AAEB64
:10526000A121C1F30901344A515C05F8011B40F248
:105270001672099901FB02F0C11700EB91510AEB7C
:10528000A121C1F309012C4A515C2970691C0D460A
:1052900009F10809B945C0D308360B988642B2D344
:1052A000607BC740BB4521D2D4F864C061466046EC
:1052B000002316E000220CE010F801CB01F801CB2E
:1052C00010F801CB01F801CB10F801CB01F801CBAC
:1052D000521C5A45F0D3A7EB0B0C0CEB4C0C604462
:1052E0005B1CDDF828C06345E4D300BF606E024656
:1052F000DDF828C00BFB0CF300BF10F801CB0CF05D
:10530000F80C4FEA0C2110F801CB0CF0FC0C41EA30
:10531000CC0110F801CB41EAEC0122F8021BA3F109
:10532000010CBCF10003E8D105AA2046616E0E9B7A
:105330009847C0B268E600004E7900082DE9F041B8
:1053400003460D46164600240027A0462A4800685A
:1053500000F4E060B0F5E06F03D100BF4FF0040847
:1053600030E02548006800F4E060B0F5C06F03D17C
:1053700001274FF0030825E01F48006800F4E060B3
:10538000B0F5A06F02D10227B8461BE01A480068AA
:1053900000F4E060B0F5806F03D103274FF00108FF
:1053A00010E01548006800F4E060B0F5407F03D1DC
:1053B00004274FF0000805E04FF4A06000F020F84B
:1053C0000227B846C7F1040005FA00F4C8F1040149
:1053D0000F20C8403040044324010848C45403F05F
:1053E0001F01012088405911890001F1E021C1F815
:1053F0000001BDE8F08100000CED00E000E400E0F9
:1054000002490143024A1160704700000000FA059A
:105410000CED00E02DE9F04F8CB0064600200A901C
:105420003EA090E8004CC068CDE905BECDF810A0C4
:1054300007900FF2EC0ADAE9000ACDE9020A0FF24E
:10544000E00ADAE9000ACDE9000A38480068C0F34A
:1054500081000B900B9820B1012804D0022828D19C
:1054600003E0334927E0334925E03048001F006856
:1054700000F03F072D48001F0068C0F3881C2B4830
:10548000001F0068C0F30140401C4FEA4009274854
:10549000001F006800F48008B8F5800F01D1254B8B
:1054A00000E0234BB3FBF7F000FB0CF0B0FBF9F18D
:1054B00001E01F4900BF00BF1C480068C0F303148F
:1054C00004A8055D21FA05F218480068C0F382249B
:1054D00002A8055D22FA05F0099014480068C0F39F
:1054E00042341DF8045022FA05F0089036B1012E1E
:1054F00006D0022E06D0032E0AD106E00A9108E05B
:105500000A9206E009980A9003E008980A9000E0E1
:1055100000BF00BF0A980CB0BDE8F08F000000008B
:1055200000000000010203040607080908380240D1
:105530000024F40040787D010146074A02EB9110F7
:10554000D0F8000801F01F0301229A40104008B172
:10555000012070470020FCE700300240074A02EBC0
:105560009011D1F8001800F01F0301229A40114356
:10557000024B03EB9012C2F8001870470030024053
:10558000F0B506460024002700251C2E7DD007DC40
:10559000B6B3102E10D0182E67D01A2E76D176E022
:1055A000B6F5E05F19D0B6F5E85F4CD0A6F54050EF
:1055B00010380028F2D134E004E01120FFF7BCFFDE
:1055C0000546641C1DB94FF6FF708442F5D11120C9
:1055D000FFF7B2FF00B101277AE005E041F6014094
:1055E000FFF7AAFF0546641C1DB96FF070408442A6
:1055F000F4D141F60140FFF79FFF00B1012767E0BA
:10560000FFE704E00120FFF797FF0546641C15B98A
:10561000B4F5A06FF6D10120FFF78EFF00B101278E
:1056200056E005E043F21100FFF786FF0546641CD3
:1056300015B929488442F5D143F21100FFF77CFFE8
:1056400000B1012744E005E041F60150FFF774FF87
:105650000546641C15B920488442F5D141F6015035
:10566000FFF76AFF00B1012732E004E01920FFF7DD
:1056700063FF0546641C15B917488442F6D119200A
:10568000FFF75AFF00B1012722E010E01FE004E01D
:105690001B20FFF751FF0546641C15B90E488442D4
:1056A000F6D11B20FFF748FF00B1012710E004E00E
:1056B0001D20FFF741FF0546641C15B906488442CA
:1056C000F6D11D20FFF738FF00B1012700E000BF31
:1056D00000BF3846F0BD0000FFFF0F00074A02EB95
:1056E0009011D1F8001800F01F0301229A401143D5
:1056F000024B03EB9012C2F80018704700300240D2
:10570000074A02EB9011D1F8001800F01F030122A4
:105710009A409143024B03EB9012C2F80018704775
:1057200000300240074A02EB9011D1F8001800F057
:105730001F0301229A401143024B03EB9012C2F85F
:10574000001870470030024010B50346322B19D3C1
:10575000B3F5FA7F16D8022905D0042903D006290B
:1057600001D008290ED1022A0CD3072A0AD89801A1
:105770000124C4EB510440EA044040EA0270034CA7
:10578000206001E0002010BD0120FCE788380240C5
:105790006FF08071884205D1054909680140044ACB
:1057A000116004E0024909680143014A1160704731
:1057B0008C380240044A116821F4403141EA000269
:1057C000014B1A60704700008C3802402DE9F04709
:1057D00004468846666825680027B94614E05DB926
:1057E000A6684FF4806231462046636F98470546AD
:1057F0001DB90220BDE8F087761C6D1E307840EAA6
:10580000072087B209F10109B9F1020FE7D36660F9
:105810002560002020734FF6D87038404FF6D071C5
:10582000884203D17807B0EB487F01D00620E1E73A
:105830000021A182E18221830020DBE700200021FA
:105840003A4A126842F48032384B1A6000BF401C5A
:10585000364A126802F4003119B94FF6FF729042CD
:10586000F5D1324A126802F400320AB900BFFEE7ED
:105870002E4A4032126842F080522C4B40331A605C
:105880002B4A126842F44042294B1A60274A0832D8
:105890001268264B08331A601A46126842F4004216
:1058A0001A601A46126842F4A0521A60214A1B1F5D
:1058B0001A601A1F126842F080721B1F1A6000BF24
:1058C0001A4A126802F00072002AF9D0184A1268C7
:1058D00042F48032164B1A6000BF154A526802F437
:1058E0008032002AF9D0124A126842F40032104B7A
:1058F0001A6000BF0E4A526802F40032002AF9D042
:105900000A4A0832126822F00302084B08331A6070
:105910001A46126842F002021A6000BF034A0832B7
:10592000126802F00802002AF8D0704700380240DE
:10593000007000401978400A10B5FFF77FFF10BDD6
:1059400010B504465C49601A8C426FD019DC5B4983
:10595000A4EB01008C424ED009DCB4F1804F2ED074
:1059600057482044A0B3B0F5806F72D13AE0B0F54B
:10597000806F49D0B0F5006F4FD0B0F5406FF4D1D3
:105980007BE0B0F5923F5BD009DCB0F5806F73D05F
:10599000B0F5644F0AD0B0F5684F5AD147E0B0F582
:1059A000943F57D0B0F5963F53D15CE04FF4106070
:1059B000FFF7B8FE4FF41060FFF7A2FE79E04FF456
:1059C0000060FFF7AFFE4FF40060FFF799FE70E054
:1059D000FFE740F60100FFF7A5FE40F60100FFF7E4
:1059E0008FFE66E040F60200FFF79CFE40F60200E4
:1059F000FFF786FE5DE040F60300FFF793FE40F6FA
:105A00000300FFF77DFE54E040F60400FFF78AFE36
:105A100040F60400FFF774FE4BE040F60500FFF788
:105A200081FE40F60500FFF76BFE42E02EE040F6F7
:105A30000110FFF777FE40F60110FFF761FE38E036
:105A40004FF41160FFF76EFE4FF41160FFF758FE40
:105A50002FE02DE040F61110FFF764FE40F6111024
:105A6000FFF74EFE25E040F61210FFF75BFE40F612
:105A70001210FFF745FE1CE011E040F60600FFF7AC
:105A800051FE40F60600FFF73BFE12E040F607002D
:105A9000FFF748FE40F60700FFF732FE09E040F648
:105AA0000800FFF73FFE40F60800FFF729FE00E080
:105AB00000BF00BF10BD0000001C0040000C0040F3
:105AC00000FCFFBF016841F0010101607047000068
:105AD0000A8882621D4A90420ED0B0F1804F0BD0EE
