:020000040800F2
:1000000078990020C1010008C92400080D100008DB
:10001000C5240008BD020008B12E00080000000041
:10002000000000000000000000000000652500083E
:10003000910E000800000000CB240008E52A00080B
:10004000DB010008DB010008DB010008DB01000820
:10005000DB010008DB010008DB010008DB01000810
:10006000DB010008DB010008DB010008DB01000800
:10007000DB010008DB010008DB010008DB010008F0
:10008000DB010008DB010008DB010008DB010008E0
:10009000DB010008DB010008DB010008DB010008D0
:1000A000DB010008DB010008DB010008DB010008C0
:1000B000B52B0008DB010008DB010008DB010008AC
:1000C000DB010008DB010008DB010008DB010008A0
:1000D000DB0100087D2D0008DB010008DB010008C2
:1000E000DB010008DB010008DB010008592C0008D7
:1000F000DB010008DB010008DB010008DB01000870
:10010000DB010008DB010008112C0008DB010008FE
:10011000DB010008DB010008DB010008DB0100084F
:10012000DB010008DB010008DB010008DB0100083F
:10013000DB010008DB010008DB010008DB0100082F
:10014000DB010008DB010008DB010008DB0100081F
:10015000DB010008DB010008DB010008DB0100080F
:10016000DB010008DB010008DB010008DB010008FF
:10017000DB010008DB010008DB01000800000000D3
:10018000DB010008DB010008DB010008DB010008DF
:10019000DB010008DB010008DB01000800000000B3
:1001A000DB010008DB010008DB010008DFF80CD0F0
:1001B00000F04AF8004800470740000878990020FE
:1001C0000648804706480047FEE7FEE7FEE7FEE7F1
:1001D000FEE7FEE7FEE7FEE7FEE7FEE7ED2A0008A2
:1001E000AD0100082DE9F05F0546002092469B46D0
:1001F00088460646814640241BE02846414647463D
:10020000224600F042F853465A46C01A914110D394
:1002100011461846224600F029F82D1A67EB01080E
:100220004F4622460120002100F020F817EB00097C
:100230004E41201EA4F10104DFDC484631462A4627
:100240004346BDE8F09F0000064C074D06E0E0681D
:1002500040F0010394E8070098471034AC42F6D30D
:10026000FFF7A8FF3C6401085C640108202A04DB56
:10027000203A00FA02F1002070479140C2F12003B9
:1002800020FA03F3194390407047202A04DB203AF8
:1002900021FA02F00021704721FA02F3D040C2F1A6
:1002A0002002914008431946704702468A4202DD07
:1002B000501A80B27047881A80B2FBE700BFFEE791
:1002C00070B500240EE0002508E0002004EB440196
:1002D0000B4A02EB01114855681CC5B2302DF4DB06
:1002E000601CC4B2162CEEDB16200649087002F022
:1002F0009FFD0020044908700249087070BD00008D
:100300003C11002031000020300000200020014975
:10031000087070473A0000200020014908707047BB
:100320003800002000200149087070473900002083
:1003300010B54FF40071184803F0B1FA40F60440CC
:1003400004F0FAFA082301221146144803F0B3FA24
:10035000082303220021114803F0D4FA08210F4892
:1003600003F09DFA0A2000F09BFD08210B4803F0E2
:1003700098FA012000F094FD4FF40071064803F054
:1003800090FA0A2000F08CFD082300221146034851
:1003900003F091FA10BD0000001802400010024066
:1003A00010B540F6014004F0C7FA4023012211467F
:1003B000184803F080FA402303220021154803F077
:1003C000A1FA4021134803F06CFA80230122114660
:1003D000104803F070FA8023032200210D4803F037
:1003E00091FA80210B4803F05CFA4FF4007301226C
:1003F0001146094803F05FFA4FF40073032200210D
:10040000054803F07FFA4FF40071034803F047FA00
:1004100010BD0000000402400018024010B540F674
:10042000014004F089FA40F6084004F085FA2023E0
:1004300001221146104803F03EFA20230222002137
:100440000D4803F05FFA20210B4803F02AFA4FF41D
:10045000807301221146094803F02DFA4FF480738E
:1004600002220021054803F04DFA4FF48071034841
:1004700003F015FA10BD0000000402400020024005
:1004800010B54FF4A06004F0E9F810BD10B54FF0BE
:10049000807004F0ABFA10BD10B5044640F6014080
:1004A00004F04AFA012C0CD180230122114609489C
:1004B00003F001FA802303220021064803F022FA08
:1004C00006E02CB9802301220021024803F0F3F951
:1004D00010BD000000040240F0B597B006460027AA
:1004E0004FF6FF744FF4606004F026FA4FF440605A
:1004F00004F022FA40F6014004F01EFA40F60240F1
:1005000004F01AFA40F6034004F016FA40F60440EC
:1005100004F012FA40F6054004F00EFA40F60640E8
:1005200004F00AFA40F6074004F006FA40F60840E4
:1005300004F002FA01220C21FE4803F081F90123A4
:1005400000220221FB4803F0B6F901230322002117
:10055000F84803F0D7F902220C21F64803F070F9AD
:10056000022300221946F34803F0A5F902230322CF
:100570000021F04803F0C6F904220C21ED4803F0F5
:100580005FF9042300220221EA4803F094F90423CE
:1005900003220021E74803F0B5F908220C21E548C1
:1005A00003F04EF9082300220221E24803F083F908
:1005B000082303220021DF4803F0A4F910220C21B4
:1005C000DC4803F03DF9102300220221D94803F052
:1005D00072F9102303220021D64803F093F9202258
:1005E0000C21D44803F02CF9202300220221D14809
:1005F00003F061F9202303220021CE4803F082F9A1
:100600004FF480520C21CB4803F01AF94FF4805379
:1006100000220221C74803F04EF94FF48053032211
:100620000021C44803F06EF94FF400520C21C14878
:1006300003F006F94FF4005300220221BD4803F0F5
:100640003AF94FF4005303220021BA4803F05AF953
:100650004FF480420C21B74803F0F2F84FF4804386
:1006600000220221B34803F026F94FF4804303220D
:100670000021B04803F046F94FF400420C21AD4888
:1006800003F0DEF84FF4004300220221A94803F0F2
:1006900012F94FF4004303220021A64803F032F977
:1006A00001220C21A44803F0CBF8012300220221EF
:1006B000A14803F000F90123032200219E4803F022
:1006C00021F902220C219C4803F0BAF802230022EF
:1006D0001946994803F0EFF80223032200219648B7
:1006E00003F010F904220C21934803F0A9F8042325
:1006F00000220221904803F0DEF8042303220021A7
:100700008D4803F0FFF84FF480420C218B4803F032
:1007100097F84FF4804300220221884803F0CBF879
:100720004FF4804303220021844803F0EBF84FF498
:1007300000420C21814803F083F84FF4004300226B
:1007400002217E4803F0B7F84FF400430322002152
:100750007A4803F0D7F801220C21784803F070F8AA
:10076000012300220221754803F0A5F8012303228A
:100770000021724803F0C6F802220C216F4803F0F2
:100780005FF80223002219466C4803F094F8022314
:1007900003220021694803F0B5F880220C21684843
:1007A00003F04EF8802300220221654803F083F80D
:1007B000802303220021624803F0A4F84FF48072E2
:1007C0000C215F4803F03CF84FF4807300220221B3
:1007D0005B4803F070F84FF48073032200215848FF
:1007E00003F090F84FF400720C21554803F028F8FC
:1007F0004FF4007300220221514803F05CF84FF4DB
:100800000073032200214E4803F07CF84FF480620D
:100810000C214B4803F014F84FF4806300220221AE
:10082000474803F048F84FF480630322002144480E
:1008300003F068F84FF400620C21414803F000F81F
:100840004FF40063002202213D4803F034F84FF4D6
:100850000063032200213A4803F054F84FF4805219
:100860000C21374802F0ECFF4FF4805300220221A4
:10087000334803F020F84FF480530322002130481E
:1008800003F040F84FF400520C212D4802F0D8FF3D
:100890004FF4005300220221294803F00CF84FF4D2
:1008A000005303220021264803F02CF84FF4804225
:1008B0000C21234802F0C4FF4FF4804300220221A0
:1008C0001F4802F0F8FF4FF48043032200211C4828
:1008D00003F018F84FF400420C21194802F0B0FF61
:1008E0004FF4004300220221154802F0E4FF4FF4C8
:1008F000004303220021124803F004F84FF48072F1
:100900000C210E4802F09CFF4FF48073002202215C
:100910000A4802F0D0FF4FF48073032200210748F9
:1009200002F0F0FF4FF400720C21044802F088FF3F
:1009300008E000000014024000180240000C0240D1
:10094000001002404FF4007300220221B14802F06F
:10095000B2FF4FF4007303220021AE4802F0D2FF31
:100960004FF480620C21AB4802F06AFF4FF48063C1
:1009700000220221A74802F09EFF4FF48063032269
:100980000021A44802F0BEFF10220C21A24802F070
:1009900057FF1023002202219F4802F08CFF1023F2
:1009A000032200219C4802F0ADFF20220C219A482E
:1009B00002F046FF202300220221974802F07BFF2D
:1009C000202303220021944802F09CFF01220C21E5
:1009D000924802F035FF0123002202218F4802F0E5
:1009E0006AFF0123032200218C4802F08BFF0222C0
:1009F0000C218A4802F024FF02230022194687486E
:100A000002F059FF022303220021844802F07AFFFA
:100A100020220C21824802F013FF20230022022111
:100A20007F4802F048FF2023032200217C4802F087
:100A300069FF4FF400420C21774802F001FF4FF4A8
:100A4000004300220221744802F035FF4FF40043B6
:100A500003220021704802F055FF4FF400620C2180
:100A6000704802F0EDFE4FF40063002202216D4851
:100A700002F021FF4FF4006303220021694802F0D5
:100A800041FF40220C21664802F0DAFE402300229A
:100A90000221634802F00FFF402303220021604837
:100AA00002F030FF80220C215D4802F0C9FE802355
:100AB000002202215A4802F0FEFE80230322002178
:100AC000574802F01FFF4FF480720C21524802F089
:100AD000B7FE4FF48073002202214F4802F0EBFE74
:100AE0004FF48073032200214B4802F00BFF042EC9
:100AF00001D1102500E008250A2000F0D1F90220DC
:100B00000B9006200A9003200990052008900120F0
:100B10000790069005900C961590082014901020D0
:100B200013904020129080001190002010904FF4FC
:100B300040600F9001200E9000200D9005A81690A7
:100B40000CA802F0CDFD0120049003950020029036
:100B500001904FF6FF7400E0641E2021304602F041
:100B600097FD08B1002CF7D101A802F0ABFD0A20D7
:100B700000F096F902200490039500200290019065
:100B80004FF6FF7400E0641E2021304602F080FD25
:100B900008B1002CF7D101A802F094FD03200490C5
:100BA0000395E0200290002001904FF6FF7400E0D2
:100BB000641E2021304602F06BFD08B1002CF7D1F5
:100BC00001A802F07FFD40F2212704200490039544
:100BD0000020029001974FF6FF7400E0641E202170
:100BE000304602F055FD08B1002CF7D101A802F003
:100BF00069FD4FF4177002F0FFFD4FF6FF7400E03F
:100C0000641E2021304602F043FD08B1002CF7D1CC
:100C100017B0F0BD000C0240001802400010024066
:100C2000001C0240001402407FB504460D464FF4FC
:100C3000805003F081FE4FF0804003F0FFFF6846D4
:100C400004F0C6F9ADF800500020ADF8040002949D
:100C5000ADF8060069464FF0804004F0B7F8012176
:100C6000880704F0A2F9002201211C2003F094FC63
:100C70004FF0804004F0A4F87FBD00007FB504462B
:100C80000D4641F2030003F057FE0F4803F0D6FF74
:100C9000684604F09DF9ADF800500020ADF804005E
:100CA0000294ADF806006946074804F08FF8012168
:100CB000054804F07AF900220121322003F06CFC8F
:100CC000014804F07DF87FBD000C004000B587B0FE
:100CD00040F6024003F030FE41F2060003F02CFE25
:100CE0004FF400420921264802F0AAFD4FF40043C8
:100CF00000220221224802F0DEFD4FF400430322CD
:100D000000211F4802F0FEFD1E4803F097FF03A8D4
:100D100004F05EF940F2E7300590C720ADF80C0012
:100D20000020ADF80E00ADF81000ADF812008DF8FF
:100D3000180003A9134804F049F801A803F075FF4F
:100D40000020ADF80A00ADF80400ADF8080001205D
:100D5000ADF8060001AA01210A4804F083F8094809
:100D600003F01CFF0121074804F01FF9002211467F
:100D70002B2003F011FC034804F022F807B000BD5B
:100D8000000402400018004010B50446002211463D
:100D9000252003F001FC4FF4406003F0CDFD4FF43B
:100DA00000720721264802F04BFD4FF480620721B4
:100DB000234802F045FD4FF4007301220221204830
:100DC00002F079FD4FF40073022200211C4802F06A
:100DD00099FD4FF4806300220221194802F06BFD57
:100DE00041F2041003F0A8FD164804F0A3FA2146CE
:100DF000144804F021FA0021124804F070FB00218D
:100E0000104804F07CFB00210E4804F058FB04213C
:100E10000C4804F05CFB08210A4804F068FB094810
:100E200004F0F6FA40F20531064804F012FB40F2F5
:100E30000731044804F00DFB00200349087010BD81
:100E400000000240001001404C00002030B5034675
:100E5000002016E0B3F900509C68645D0C541C88B7
:100E6000641C24B21C80B3F90040B3F90450AC42B6
:100E700001DB00241C80441C20B2DC88641E24B2E8
:100E8000DC80B3F90640002C01DD9042E2DB30BD8E
:100E9000704710B5044604EB840000F013F810BD51
:100EA00001B50749009808604FF0E02040694FF015
:100EB000E021886100BF024800680028FBD108BD1E
:100EC0005000002001B5009806E0002101E04A1C16
:100ED00091B22629FBDB401E0028F6D108BD000098
:100EE00000B585B00548009049F2773002900022A5
:100EF0001146684600F018F805B000BD8E71000874
:100F000000B585B00648009045F6F36002900548AC
:100F100042880188684600F007F805B000BD00006F
:100F2000050501082C11002070B5A0B004460E463E
:100F30001546206808B1A06820B90C4801F0C6FF2A
:100F400020B070BDE6602561002060604FF48053E2
:100F5000074A084901A8009402F087FE20B9002240
:100F6000054901A802F030FE00BFE9E7F863010877
:100F70008C000020991C0008E51C000870B5034691
:100F8000002016E00C5CB3F902609D68AC555C88EB
:100F9000641C24B25C80B3F90240B3F90450AC4243
:100FA00001DB00245C80441C20B2DC88641C24B279
:100FB000DC80B3F90640B3F90450AC4201DA904248
:100FC000E0DB70BD01480078704700003A00002067
:100FD0000148007870470000380000200148007880
:100FE000704700003900002010B58021034802F04E
:100FF0005AFC08B9002010BD0120FCE700040240A3
:10100000014903C9704700004000002000BFFEE70F
:1010100010B504460120216988470020A16888474F
:101020000120616988470120616888470120616962
:1010300088470120A168884701206169884700200E
:101040002169884710BD70B504460125002021693B
:10105000884701206169884701206168884701202D
:1010600061698847E06880470546002061688847D5
:10107000012061698847284670BD2DE9F041064688
:101080000F4614461D46DDF81880304600F0E0F8A3
:10109000307820F00101304600F0A9F8012805D190
:1010A0003046FFF7B5FF0120BDE8F0813912304628
:1010B00000F09DF8012804D13046FFF7A9FF012078
:1010C000F2E7F9B2304600F092F8012804D1304638
:1010D000FFF79EFF0120E7E73046FFF799FF304614
:1010E00000F0B6F8307840F00101304600F07FF8AB
:1010F000012804D13046FFF78BFF0120D4E70EE032
:10110000012D05D14146304600F010F8207004E072
:101110000021304600F00AF82070641C6D1E002D7E
:10112000EED13046FFF774FF0020BDE72DE9F04116
:1011300004460D460026002700202169884700BF8D
:1011400012E0012061688847012061698847E068F2
:10115000804740EA4700C7B2002061688847012005
:1011600061698847701CC6B2082EEADB1DB92046AB
:1011700000F007F802E0204600F01EF83846BDE80F
:10118000F08110B504460120216988470020A1683C
:1011900088470120616988470120616888470120EC
:1011A0006169884700206168884701206169884734
:1011B00000202169884710BD10B50446012021692F
:1011C00088470120A168884701206169884701207C
:1011D0006168884701206169884700206168884705
:1011E00001206169884700202169884710BD2DE9E9
:1011F000F04104460D460026012701202169884759
:1012000000BF1CE005F0800018B10120A1688847EC
:1012100002E00020A16888476806050E0120616988
:10122000884701206168884701206169884700205C
:1012300061688847012061698847701CC6B2082E22
:10124000E0DB2046FFF7FFFE07463846BDE8F081A9
:1012500010B504460020616888470120616988470D
:101260000120216988470120A16888470120616920
:10127000884701206168884701206169884700200C
:10128000A168884701206169884700206168884714
:1012900001206169884700202169884710BD2DE938
:1012A000F04106460C4615461F463046FFF7D0FF74
:1012B000307820F001013046FFF799FF012805D171
:1012C0003046FFF7A5FE0120BDE8F081211230462F
:1012D000FFF78DFF012804D13046FFF799FE01206A
:1012E000F2E7E1B23046FFF782FF012804D1304631
:1012F000FFF78EFE0120E7E70BE015F8011B3046F3
:10130000FFF775FF012804D13046FFF781FE012069
:10131000DAE7381EA7F10107EFD13046FFF778FE74
:101320000020D1E7704700000EB5FFF739F8FEF74F
:10133000FFFF282012490870124848601248886050
:101340001248C86012480861124848616420FFF7DB
:10135000A7FD0120042301AA48F24011009008488B
:10136000FFF78BFE18B10CA001F0B0FD0EBD002000
:101370008DF8080001A910A001F0A8FD00BFF5E755
:101380008C1000207D2900089D290008E90F000825
:1013900099040008930E0008496E6974475431316E
:1013A0003531513A204661696C20746F206765744D
:1013B0002069640D0A000000546F75636820494479
:1013C0003A2025730D0A000070B5142015490880D5
:1013D000502048804FF4DC7088804FF42F70C88014
:1013E0004FF6FF700881182048811E208881FFF782
:1013F00087FD0C49888800EBD0710A4A128802EBFD
:1014000061018CB20749C88800EBD071054A528847
:1014100002EB61018DB22946204600F079FF0149B7
:10142000C88170BD2C11002010B501F05FFB00F0E9
:101430001BFB00F003FB4FF4E13000F003FC00F075
:1014400055FB00F02BFB00F013FB10BD70470000B4
:1014500010B58EB04FF44870FE4908604FF4F0703C
:101460004860002008720877FB4808624FF050403F
:101470004862FA4888620220C86200240AE0F548FF
:1014800001680C3040F824100C384168143040F8E2
:101490002410641C022CF2D341F21A1003F04CFA0F
:1014A0004FF4406003F048FA40F6014003F044FA7C
:1014B00040F6024003F040FA40F6034003F03CFAE5
:1014C00040F6044003F038FA40F6054003F034FAE1
:1014D00040F6064003F030FA40F6074003F02CFADD
:1014E00040F6084003F028FA04220E21DC4802F0FE
:1014F000A7F9042300220221D94802F0DCF90423D1
:1015000003220021D64802F0FDF908220E21D4481A
:1015100002F096F9082300220221D14802F0CBF90B
:10152000082303220021CE4802F0ECF94FF4807228
:101530000E21CB4802F084F94FF48073002202217F
:10154000C74802F0B8F94FF4807303220021C44861
:1015500002F0D8F901220921C24802F071F90123F1
:1015600000220221BF4802F0A6F901230322002134
:10157000BC4802F0C7F94FF480620E21B84802F06F
:101580005FF94FF4806300220221B54802F093F91D
:101590004FF4806303220021B14802F0B3F94FF405
:1015A00000620E21AE4802F04BF94FF400630022B6
:1015B0000221AB4802F07FF94FF4006303220021BF
:1015C000A74802F09FF902220921A64802F038F943
:1015D000022300221946A34802F06DF902230322D8
:1015E0000021A04802F08EF940220E219E4802F010
:1015F00027F94023002202219B4802F05CF9402396
:1016000003220021984802F07DF920220E219748FC
:1016100002F016F9202300220221944802F04BF92F
:10162000202303220021914802F06CF940220E2170
:101630008E4802F005F94023002202218B4802F077
:101640003AF9402303220021884802F05BF94FF465
:1016500000520E21824802F0F3F84FF400530022AA
:1016600002217F4802F027F94FF4005303220021A2
:101670007B4802F047F94FF4806209217A4802F072
:10168000DFF84FF4806300220221774802F013F95B
:101690004FF4806303220021734802F033F94FF4C2
:1016A00000420E216E4802F0CBF84FF400430022B6
:1016B00002216B4802F0FFF84FF40043032200219F
:1016C000674802F01FF901220E21694802F0B8F8BC
:1016D000012300220221664802F0EDF801230322D3
:1016E0000021634802F00EF902220E21604802F048
:1016F000A7F80223002219465D4802F0DCF8022315
:10170000032200215A4802F0FDF804220E21584815
:1017100002F096F8042300220221554802F0CBF88B
:10172000042303220021524802F0ECF810220E217B
:101730004E4802F085F81023002202214B4802F0A7
:10174000BAF8102303220021484802F0DBF84FF4D6
:1017500080520E21444802F073F84FF48053002267
:101760000221414802F0A7F84FF4805303220021E0
:101770003D4802F0C7F840220E213E4802F060F8D2
:101780004023002202213B4802F095F84023032227
:101790000021384802F0B6F84FF400620E213248BA
:1017A00002F04EF84FF40063002202212E4802F0AE
:1017B00082F84FF40063032200212B4802F0A2F8C4
:1017C00010220E212A4802F03BF8102300220221A9
:1017D000274802F070F8102303220021244802F069
:1017E00091F808220E21244802F02AF8082300224A
:1017F0000221214802F05FF80823032200211E483D
:1018000002F080F84FF480720E21164802F018F8AA
:101810004FF4807300220221124802F04CF84FF47A
:101820008073032200210F4802F06CF84FF400721D
:101830000E210C4802F004F84FF40073002202213C
:10184000084802F038F84FF40073032200210548DD
:1018500014E000005C000020000000D0C0BB0BD0F2
:10186000001C024000040240001802400010024028
:1018700000200240000C02400000024002F042F84A
:101880004FF480620E21674801F0DAFF4FF4806365
:1018900000220221634802F00EF84FF48063032215
:1018A0000021604802F02EF84FF400720E215E48CD
:1018B00001F0C6FF4FF40073002202215A4801F0E4
:1018C000FAFF4FF4007303220021574802F01AF880
:1018D0004FF480620E21544801F0B2FF4FF4806350
:1018E00000220221504801F0E6FF4FF480630322FA
:1018F00000214D4802F006F880220E214B4801F0ED
:101900009FFF802300220221484801F0D4FF80235A
:1019100003220021454801F0F5FF4FF40053012256
:101920001146434801F0C7FF4FF400530222002143
:101930003F4801F0E7FF4FF400513D4801F0B1FF8F
:1019400003F058FB01A803F065FC04221146F020C7
:1019500003F028F808B900BFFEE7002003F058F8AC
:101960001C2002F029FF1C2002F038FF08B900BF3C
:10197000FEE700200A900B900C900D902F20ADF800
:1019800006000220ADF804008720ADF80A002220EE
:10199000ADF8080040F2A730049040F20220039016
:1019A00040F2CF30069040F20F20059000200790C3
:1019B0000890099001A803F043FB4FF4F0704FF436
:1019C0004873002211460090104600F0B9FB4FF416
:1019D000F0704FF44873002211460090012000F08F
:1019E000AFFB002000F084FB012000F06DFBFF2125
:1019F000002000F049FDFF21012000F045FD0120FD
:101A000003F002FB012003F0F3FB03F00FFB0020C7
:101A100000F082FB002000F043FA002000F0D4F92F
:101A20000EB010BD00140240002002400018024019
:101A30000008024010B5FEF7F1FC10BD10B5FEF72E
:101A40001FFD10BD30B50B46002404804480828009
:101A5000C4808360002104E0002485686C544C1C21
:101A600021B29142F8DB30BD10B5FEF70FFD10BD7D
:101A700010B50520FEF730FD10BD10B5FFF7DAFFF9
:101A8000FFF7E6FCFFF7E2FCFFF74CFC00F03AF84A
:101A900000F060F800F0BCF810BD000010B512486E
:101AA00000684FF47A71B0FBF1F4601EB0F1807FF2
:101AB00001D301200FE0601E4FF0E02148610F21AB
:101AC0004FF0FF3001F026FA00204FF0E02188614E
:101AD00007200861002008B100BFFEE70021481E72
:101AE00001F018FA10BD00005400002010B5EF21DD
:101AF00040F2E730FFF798F8EF2140F2E730FFF7C8
:101B0000BDF810BD10B5FFF70FFC0020104908709C
:101B1000002419E000210E48401C01554FF6FF71CA
:101B200004EB4402401D20F8121004EB440200EBC9
:101B300042004180002104EB44020548801D00EB77
:101B400042008180601CC4B2052CE3DB10BD0000A4
:101B5000A410002010B5FFF7B9F818E0104800886D
:101B60001049088008460088002804DD08460088DF
:101B7000642800DA0CE00CA001F0A8F909480188FB
:101B800014A001F0A3F94FF4FA70FFF789F9E5E723
:101B900000BF0448018816A001F098F910BD0000AC
:101BA0001200002010000020496E6974546F7563A4
:101BB000684B65793A2046616C7420746F206765C4
:101BC000742064656661756C742076616C75650D52
:101BD0000A000000496E6974546F7563684B65793B
:101BE0003A2076616C7565203D2025640D0A000061
:101BF000546F75636B206B65792064656661756CE5
:101C0000742076616C75653A2025640D0A00000029
:101C100010B5012000F044F91F2000F0D5F8FFF7BF
:101C20005FF9FFF7D1FBFEF74BFB02A000F01CFFB2
:101C300010BD0000546F756368204B6579205465B2
:101C40007374000010B5044600F004F82046FFF756
:101C50009BF810BD10B5002406E000200A49085585
:101C60000A490855601C04B2B4F5007FF5DB4FF457
:101C7000007205490648FFF7E5FE4FF4007203497C
:101C80000448FFF7DFFE10BD741500207417002014
:101C90005C15002068150020F0B505460C46A96FBC
:101CA000A4B1002000230EE0D1E90167BE4208D2B2
:101CB000D1E90067F65DE6544E68761C4E60401C24
:101CC00000E002E05B1C9342EED30AE04E6816444B
:101CD0008F68BE4204D24E6816444E60104600E043
:101CE0000020F0BD2DE9FC5F07460E461446BD6F8F
:101CF0002088A98908441FFA80F9A088298A084405
:101D00001FFA80FA6088A98908441FFA80FBE088DE
:101D1000298A084480B20190B046CDF800805A4626
:101D200051464846019B00F091F80020BDE8FC9F19
:101D300070B504460D4622462B4606A10D4801F01B
:101D4000D5F80C4800F090FE0A490BA001F0BEF84F
:101D500070BD00004B657920646F776E3A20757016
:101D60002074696D65203D20256C6C64206D730DB9
:101D70000A000000EC1000202573000070B5044636
:101D80000D4622462B4606A10D4801F0AFF80C483F
:101D900000F06AFE0A490BA001F098F870BD00003F
:101DA0004B65792075703A20646F776E2074696D89
:101DB00065203D20256C6C64206D730D0A000000C9
:101DC000EC1000202573000010B58CB00446A0B2C2
:101DD0006B4601AA02A900F0A9FB40F6174002F0E9
:101DE000ABFD01F010FE4FF4403001F0D5FE03A82A
:101DF00001F0B2FE022006901348006A0390002012
:101E00000490FF2005909DF8080007909DF80400BD
:101E100008909DF8000009904FF448700A904FF424
:101E2000F0700B9003A801F0F9FD01F0C3FE00BFB4
:101E3000022001F0A5FE0028FAD0022001F098FE51
:101E400001F0E1FD0CB010BD5C0000202DE9F04F69
:101E500004460D4616461F46B44202D9A2463446F1
:101E60005646BD4202D9AA463D4657464FF0000BA2
:101E7000A84610E0A1460AE0099830F81B20414628
:101E8000484600F021F80BF1010B09F10109B145B9
:101E9000F2D908F10108B845ECD9BDE8F08F00008F
:101EA000084A127A82420BD0064A1072D1685269EF
:101EB000044BDA601A4651611169936913619161AB
:101EC000704700005C000020F0B5114D2E7F0C35EE
:101ED00055F826400C3D2E7F143555F82630A0428B
:101EE00001D2994200D3F0BD094D2D7A35B9084E83
:101EF000366A04FB010726F8172007E05D1E6D1AFD
:101F000003FB0055024F3F6A27F8152000BFEAE7A0
:101F10005C0000202DE9FF4F95B0834614461E4615
:101F20005748007A68B95648017F0C3050F8218034
:101F30000C38017F143050F821000A905D46169F3E
:101F40001CE04F48007A012818D14D48017F0C3021
:101F500050F821800C38017F143050F821000A908D
:101F6000CDF82080DDF8288008980A90089434463F
:101F7000089E1698A8EB0000051B5F462819B0F5CF
:101F8000487F01D9C5F54874B819B0F5F07F01D97B
:101F9000C7F5F0763A48007A40B9A94609F1010040
:101FA000049007EB060ACDF80CA00EE03448007A46
:101FB00001280AD10BEB0609CDF8109016982044A1
:101FC000A0F1010AAAF1010003905146484600F031
:101FD0009FF90290DDE9031000F09AF9019028487A
:101FE000006A2749C96A08FB075201FB02000B90EF
:101FF000A8EB04000990229988B205AB06AA07A9AC
:1020000000F094FA40F6174002F096FC01F0FBFC59
:102010004FF4403001F0C0FD0CA801F09DFD0220FE
:102020000F900B980C9009980D90FF200E909DF842
:102030001C0010909DF8180011909DF8140012904B
:10204000139414960CA801F0E9FC01F0B3FD00BF55
:10205000022001F095FD0028FAD0022001F088FD51
:1020600001F0D1FC51464846029AFFF72DFF019A34
:10207000DDE90310FFF728FF19B0BDE8F08F00007D
:102080005C0000202DE9F84F04460D4616461F4619
:10209000DDF828B0B44202D9A04634464646BD42D7
:1020A00002D9A8463D464746301B00F10109781B7E
:1020B00000F1010A53464A4629462046CDF800B0B1
:1020C000FFF728FFBDE8F88F10B504461CB9074894
:1020D00003F014F805E0012C03D10448803003F02C
:1020E0000DF8012003F084F810BD000000680140E5
:1020F00010B504461CB9074803F007F805E0012CA9
:1021000003D10448803003F000F8012003F070F898
:1021100010BD00000068014028B90649064A116256
:102120000021117704E00549034A1162012111776A
:1021300070470000000000D05C000020C0BB0BD046
:102140002DE9F04F8BB080460E4617461C46149D75
:1021500001A803F02DF86A48007A012816D1B2468A
:102160007819A0F1010B5646374640F21F30A0EB1C
:102170000B06B6F5487F02D30BB0BDE8F08FB7F57C
:10218000F07F00D3F8E7A1462C464D463019B0F554
:10219000487F01D9C6F548747819B0F5F07F01D9A8
:1021A000C7F5F075B8F1000F4FD106F1880080B285
:1021B000ADF806003019873080B2ADF8040007F1A1
:1021C000230080B2ADF80A007819223080B2ADF851
:1021D000080002200390FF208DF810008DF81400F5
:1021E0008DF813008DF812008DF811004FF4C060C7
:1021F00006900720079043480890032000EB440016
:1022000080B2ADF826004FF6FF7000EA4400ADF84A
:102210002400A8B2ADF8280001A93B4802F07CFFD9
:10222000394802F0E0FE384802F0DAFF3448007A1C
:1022300018B93348C46045615DE03148007A01282F
:1022400059D12F48C560446155E0B8F1010F52D112
:1022500006F1880080B2ADF806003019873080B2F0
:10226000ADF8040007F1230080B2ADF80A00781938
:10227000223080B2ADF8080002200390FF208DF8D4
:1022800010008DF814008DF813008DF81200002056
:102290008DF811004FF4C0600690072007901B488E
:1022A0000890032000EB440080B2ADF826004FF602
:1022B000FF7000EA4400ADF82400A8B2ADF8280091
:1022C00001A91148803002F027FF0F48803002F04A
:1022D0008AFE0D48803002F083FF0948007A18B961
:1022E00007480461856106E00548007A012802D1AB
:1022F000034805618461012002F07AFF00BF3BE7DB
:102300005C000020000000D000680140C0BB0BD082
:1023100030B502461148057F0C3050F825400C3886
:10232000057F143050F82530A24201D2994201D3E2
:10233000002030BD0948007A30B90848006A04FB23
:10234000012530F81500F4E7581E401A03FB02007F
:10235000024D2D6A35F81000EBE700005C0000200C
:102360002DE9FF4F84B082460C461546DDF84CB08F
:1023700025B1012D04D0022D06D103E00C2706E083
:10238000102704E0182702E008B0BDE8F08F00BF76
:1023900025B1012D05D0022D09D105E04FF00C0823
:1023A00006E04FF0100803E04FF0240800E0EBE7F0
:1023B00000BF25B1012D0AD0022D16D10DE0ABF1E1
:1023C000200000EB40002C4901EB80090EE0ABF14E
:1023D00020002A4901EB001908E0ABF1200000EBD6
:1023E000C000274901EB800900E0CDE700BFCDF830
:1023F0000090019400263BE00098805D039000204F
:10240000029030E0039800F0800028B12146504649
:10241000119AFFF759FD06E0079820B9214650466A
:10242000129AFFF751FD03984006000E0390641CBA
:102430001448017F143050F82100A04200D8A3E7CF
:102440000198201AB8420BD3019C0AF1010A0D48E9
:10245000017F0C3050F82100504500D894E705E08A
:102460000298401C029002980828CBD300BF761C2B
:102470004645C1D300BF87E70E55000882590008C2
:10248000725F00085C00002070B505460C4645B937
:102490000B48006820F0FF00094908600846046006
:1024A00009E007488030006820F0FF0004498031CF
:1024B000086008460460012002F09AFE70BD00002A
:1024C0009868014000BFFEE77047704710B5FEF7FF
:1024D00079FD08B1FDF71AFF10BD000010B5FEF739
:1024E00077FD88B109480078401C08490870084603
:1024F0000078142806DB00F0C3F800F035FC00205B
:1025000002490870FDF708FF10BD00000000002020
:1025100010B5FEF763FD08B1FDF704FF10BD0146DD
:10252000C88808B9012070470020FCE710B500F406
:102530007844E40A0C7000F4FC646409147000F040
:102540001F041C7010BD000070B504460025012258
:1025500021460348FEF77AFCC5B2284670BD00004C
:102560005C150020704700002DE9FF410546012061
:10257000034603AA48F24E1100903E48FEF77DFD47
:102580009DF80C0000F00F0003909DF80C002870DF
:1025900000200390012303AA48F24E113548FEF7AC
:1025A0007EFE002461E02978601C81424CDB012022
:1025B0000090314830F81410062301AA2D48FEF788
:1025C0005CFD9DF804009DF8051040EA012104EB34
:1025D0004402A81D20F812109DF806009DF807106F
:1025E00040EA012104EB4402A81D00EB42004180B7
:1025F0009DF808009DF8091040EA012104EB44020F
:10260000A81D00EB420081801C48007A012817D1E8
:1026100004EB4401A81D30F8116004EB440100EB09
:102620004100478804EB4401A81D20F81170C6F54D
:10263000487081B204EB4402A81D00EB42004180C7
:102640000121681C01550EE00021681C01554FF660
:10265000FF7104EB4402A81D20F8121004EB4402A1
:1026600000EB42004180601CC4B2052C9BDBBDE83E
:10267000FF8100008C100020020000205C00002080
:102680002DE9FC47002404E000200DF80400601C44
:10269000C4B2052CF8DB7F48FFF766FF7D48007861
:1026A0007D490870002470E07B48401C005D0128D3
:1026B00069D14FF0000A002558E07648401C405D83
:1026C000012851D104EB44017348801D30F811609A
:1026D00004EB440100EB4100478805EB45016D48E0
:1026E000801D30F8118005EB450100EB4100B0F88A
:1026F000029041463046FDF7D8FD4B2834DC494670
:102700003846FDF7D2FD4B282EDC4FF0010A05EBD1
:1027100045016048801D30F8111004EB44025E480A
:10272000801D20F8121005EB45015A48801D00EB72
:102730004100418804EB44025748801D00EB4200F1
:10274000418005EB45015348801D00EB4100818825
:1027500004EB44025048801D00EB420081800121BF
:102760004D48401C015503E0681CC5B2052DA4DB93
:1027700000BFBAF1000F06D100214748401C0155A7
:1027800001200DF80400601CC4B2052C8CDB002471
:102790007AE04048401C005D012873D14FF0000AE8
:1027A00000252CE03C48401C405D012825D104EB6D
:1027B00044013848801D30F8116004EB440100EBFF
:1027C0004100478805EB45013348801D30F81180F2
:1027D00005EB450100EB4100B0F802904146304660
:1027E000FDF763FD4B2808DC49463846FDF75DFDE3
:1027F0004B2802DC4FF0010A03E0681CC5B2052D2E
:10280000D0DB00BFBAF1000F3CD1002537E02248F1
:10281000401C405D78BB1DF8050060BB04EB440123
:102820001C48801D30F8111005EB45021A48801D28
:1028300020F8121004EB44011648801D00EB410003
:10284000418805EB45021448801D00EB42004180A1
:1028500004EB44010F48801D00EB4100818805EB2B
:1028600045020D48801D00EB4200818001210A488D
:10287000401C415505E000E004E0681CC5B2052D90
:10288000C5DB00BF601CC4B2052C82DB02480078A7
:10289000BDE8FC87C8100020A41000202DE9F041FD
:1028A00006460F46FEF7ACFB04460D462D48018850
:1028B0002D4800881430814203DD00202B49087028
:1028C00002E00120294908702948007801281AD11E
:1028D00026480078B8B9274830C0A6B1264800215C
:1028E000D0E90032084659405040014303D100204E
:1028F0000146B04707E02048D0E90010621A65EBB6
:1029000000011046B0471A480078D0B9174800783F
:10291000012816D1184830C09FB116480021D0E9CF
:102920000032084659405040014303D1002001467F
:10293000B84706E00F4903C9221A65EB01011046AA
:10294000B8470A4800780A4908700848007830B942
:10295000084903C9201A65EB0101BDE8F081002098
:102960000146FAE712000020100000201B000020A2
:102970001A000020200000202800002010B5044686
:10298000012C04D14021044800F08BFF03E04021DA
:10299000014800F084FF10BD0004024010B5044659
:1029A000012C04D18021044800F07BFF03E080214A
:1029B000014800F074FF10BD000402402DE9FE4FF5
:1029C00004460F46904627480088384486B225487A
:1029D000408840441FFA80F92248008821498988AC
:1029E0000844C01F1FFA80FA1E48C08909F1180365
:1029F0005246494600903046FFF744FB0CB9BDE80B
:102A0000FE8F002525E0605D0D2802D0605D0A285C
:102A100000D124E01349488900EBD071AAEB610191
:102A2000B14200DA1BE0605D00220E4909890123F2
:102A3000CDE900120290022249463046FFF790FC91
:102A40000849488900EBD07106EB61018EB2681C21
:102A500085B2605D7E2802DC605D2028D3DA00BF8D
:102A600000BFCCE72C11002070B5054600240AE019
:102A7000285D1949097801EB4101184A02EB01115F
:102A80000855601CC4B2285D7E2802DC285D202821
:102A9000EEDA00201049097801EB41010F4A02EB00
:102AA000011108550C480078401C162190FBF1F2EA
:102AB00001FB12000849087009480078162805DA59
:102AC00007480078401C0649087002E016200449B7
:102AD000087000F0ADF970BD300000203C110020FE
:102AE0003100002010B500F033F910BD08B52D48B5
:102AF000006840F470002B4908602B48006840F0E3
:102B000001002949086028480830006840F080002A
:102B10002549083108600020009002E00098401C20
:102B200000904CF2503100988842F7D31E4808308C
:102B3000006840F090001C490831086000200090B7
:102B400002E00098401C00904CF2503100988842FE
:102B5000F7D315480830006820F003001249083107
:102B6000086011480068114908400F49086008468C
:102B7000006820F48020086000200B4908310860BC
:102B800000BF09480830006800200028F9D1084833
:102B90000549091D0860002003490C31086001F057
:102BA000F9FF08BD88ED00E000380240FFFFF6FEA7
:102BB0001030002410B50121880702F0FDF901282A
:102BC00003D10121800702F0F4F901200C490870BB
:102BD0000C480088401C0B490880084600880228E1
:102BE00004DB002008800120074908700748D0E96D
:102BF00000305A1C40F100000449C1E9002010BD1A
:102C0000380000204800002039000020400000204B
:102C100010B501210D4802F0CFF9012803D101219F
:102C20000A4802F0C6F90A480088401C00B2084968
:102C300008800846B0F90000B0F57A7F04DB002078
:102C4000088001200349087010BD0000000C0040FE
:102C50004A0000203A00002010B50121354802F05A
:102C6000ABF9012865D10121324802F0A2F93248BE
:102C7000007830B9314800883149088000202F4958
:102C800008802D480078401C192190FBF1F201FBCF
:102C90001200294908702B48007820B1012816D06D
:102CA00002283AD128E04FF40043002201212648AF
:102CB00000F001FE4FF4004303220021224800F0FF
:102CC00021FE4FF40041204800F0E9FD26E04FF4DA
:102CD000004209211C4800F0B3FD4FF400430022DC
:102CE0000221194800F0E7FD4FF4004303220021C0
:102CF000154800F007FE11E001210E4801F053FFD6
:102D000012490870084600780C490988884203DD9A
:102D10000E4800780949088000E000BF00BF09485C
:102D20000078401C032190FBF1F201FB12000549E1
:102D3000087010BD00180040150000201800002089
:102D400012000020140000200004024016000020A1
:102D50000448006820B103480068401E014908602B
:102D6000704700005000002010B502490248FFF7EC
:102D700095FD10BD7D1D0008311D000808B500201F
:102D800000902449244802F07EFB60B1214922488A
:102D900002F06CFB204802F0C3FAC0B200909DF82C
:102DA000000000F087F81D491B4802F06CFB012869
:102DB00006D11A49184802F059FB174802F0B0FA38
:102DC0001749154802F05FFB18B31549124802F085
:102DD0004DFB2520002807DB00F01F020121914058
:102DE000104A430942F8231000BF6846FFF7ACFBC6
:102DF0009DF80010084802F098FA0B48FFF78FFB87
:102E000038B100200949087040F20731024802F049
:102E100013FB08BD05030500001001400005030079
:102E20000703070080E200E05C1500204C00002052
:102E300070B51C4806781C48057805B970BD162D7C
:102E400013DA00240EE0C4EB0411490001F128025A
:102E500004EB4401154B03EB01100721FFF7AEFD16
:102E6000601CC4B2AC42EEDD19E0002415E0C4EBF6
:102E70000411490001F1280206EB46010B4B03EB5C
:102E800001100721FFF79AFD701C162190FBF1F24B
:102E900001FB1200C6B2601CC4B2162CE7DB00BFF7
:102EA000CCE7000030000020310000203C11002061
:102EB00000BFFEE731B50024012269460248FEF753
:102EC0005DF8C4B2204638BD681500200FB4054B2C
:102ED00010B503A9044A029800F040F810BC5DF850
:102EE00014FB00001D380008580000200FB4084BE8
:102EF00010B504A902AA039800F030F8044602A90C
:102F0000002000F041F9204610BC5DF814FB0000E1
:102F10008931000810B5002804DB0A07130E054AA2
:102F2000135406E00A07140E034A00F00F031B1F98
:102F3000D45410BD00E400E018ED00E002E008C841
:102F4000121F08C1002AFAD170477047002001E023
:102F500001C1121F002AFBD1704700002DE9FF4F6D
:102F60008BB09A460F460446002606E025280BD073
:102F700052460D999047641C761C20780028F5D1A4
:102F80000FB03046BDE8F08F0025A94601227D49EB
:102F900000E0054314F8013F203B02FA03F0084229
:102FA000F7D120782E2817D114F8010F45F0040529
:102FB0002A280ED06FF02F022078A0F130010929C5
:102FC0000AD809EB890102EB410100EB0109641CFD
:102FD000F2E757F8049B641C20786C280DD004DCC1
:102FE0004C2812D06A2811D104E074280DD07A2818
:102FF0000CD10AE045F4001507E0617845F480152E
:10300000814202D1641C05F58015641C2078692872
:103010003ED006DC0028B3D063280BD0642804D14E
:1030200036E0732810D075285CD052460D99904731
:10303000761CA5E017F8040B8DF8000000208DF831
:103040000100E846012003E057F8048B4FF0FF3001
:1030500069074FF0000501D40AE06D1C4D450DDAFB
:103060008542FADB18F805100029F6D106E06D1C40
:103070008542FCDB18F805100029F8D12E4404E045
:1030800018F8010B52460D9990476D1EF8D277E063
:1030900000200A90C5F302504FF00A0B02280CD012
:1030A00001CFC117021E71F100020CDA0023D0EB30
:1030B000030063EB01012D2208E0FF1D27F0070745
:1030C000F7E80201EEE72A0504D52B228DF824202B
:1030D000012203E0EA070FD02022F7E70DF12008D4
:1030E000089218E000200A90C5F302504FF00A0B36
:1030F000022803D001CF00210022EFE7FF1D27F0B7
:103100000707F7E80201F7E75A460A9BFDF76AF856
:10311000303208F8012D50EA0102F5D1ADEB08007C
:1031200000F1200B680701D44FF00109D94502DDF9
:10313000A9EB0B0000E000208146002506E009A86D
:103140005246405D0D9990476D1C761C089885424B
:10315000F5DB04E0302052460D999047761CB9F11A
:103160000001A9F10109F5DC05E018F8010B524650
:103170000D999047761CBBF10001ABF1010BF4DC1B
:10318000641CFAE6092801000A68531C0B601070E1
:10319000704702460020CB1C23F00301136F8B42C3
:1031A00005D3136F5B1A1367D06E4318D36670474D
:1031B0002DE9F05F04468846267B2768656895F808
:1031C00000A000208346814600BF36BB67B9A568D2
:1031D0004FF4806229462046636F9847074627B917
:1031E0006FF00100BDE8F09F6D1C7F1EBBF1000F6A
:1031F0000AD04FF0000B287810B16FF00500F1E70E
:10320000FF208246287007E095F800A0BAF1FF0F72
:1032100002D14FF0010B0BE080264FEA49090AEA80
:10322000060008B109F101097610A8F1010800BFF4
:10323000B8F1000FC9D12673276065604846D1E711
:103240002DE9F04F87B00C464FF4B55BCDF818B0C0
:1032500041F2511BCDF814B042F6CF1BCDF810B09F
:1032600041F6905BCDF80CB04FF0000BCDF800B0FC
:1032700080E0D0F800C0D0F84080D0F88090D0F83E
:10328000C0100CEB090AACEB090BCDF808B0A8EBA9
:10329000010B4FF4B55E0BFB0EFB4FEA2B3741449D
:1032A0007F1A0AEB010CAAEB0101DDF808B007EB6D
:1032B0000B08DDF808B0ABEB0709D0F8E050036A63
:1032C000D0F8A060026EA3EB050A5F19A6EB020B13
:1032D000CDF808B03244A7EB020B0BFB0EFB4FEA14
:1032E0002B333A44DDF808B0D34441F6905E0BFB33
:1032F0000EFB4FEA2B3BCDF804B041F2511B0AFB09
:103300000BFEDDF804B0ABEB2E3542F6CF1EDDF838
:1033100008B00BFB0EFEDDF804B0ABEB2E3BABEBC5
:1033200002069B1BED1A0CEB020BC0F800B0ACEBD5
:10333000020BC0F8E0B008EB060BC0F820B0A8EB19
:10334000060BC0F8C0B009EB030BC0F840B0A9EB06
:10335000030BC0F8A0B001EB050BC0F860B0A1EB07
:10336000050BC0F880B0001DDDF800B00BF1010BBB
:10337000CDF800B0DDF800B0BBF1080FFFF479AF75
:1033800020384FF0000BCDF800B0A2E0D0F800B02C
:103390000BF5004CD0F80880D0F8109081690CEB48
:1033A000090AACEB090BCDF808B0A8EB010B4FF400
:1033B000B55E0BFB0EFB4FEA2B3741447F1A0AEB3D
:1033C000010CAAEB0101DDF808B007EB0B08DDF8F2
:1033D00008B0ABEB0709C56943684669C268A3EB4F
:1033E000050A5F19A6EB020BCDF808B03244A7EB33
:1033F000020B0BFB0EFB4FEA2B333A44DDF808B00F
:10340000D34441F6905E0BFB0EFB4FEA2B3BCDF80D
:1034100004B041F2511B0AFB0BFEDDF804B0ABEB2C
:103420002E3542F6CF1EDDF808B00BFB0EFEDDF8A0
:1034300004B0ABEB2E3BABEB02069B1BED1A0CEB87
:10344000020BCBF3092BDFF89CE01EF80BB084F8DD
:1034500000B0ACEB020BCBF3092B1EF80BB084F8D9
:1034600007B008EB060BCBF3092B1EF80BB084F862
:1034700001B0A8EB060BCBF3092B1EF80BB084F8B8
:1034800006B009EB030BCBF3092B1EF80BB084F845
:1034900002B0A9EB030BCBF3092B1EF80BB084F899
:1034A00005B001EB050BCBF3092B1EF80BB084F82C
:1034B00003B0A1EB050BCBF3092B1EF80BB084F87E
:1034C00004B008342030DDF800B00BF1010BCDF86A
:1034D00000B0DDF800B0BBF1080FFFF457AF07B044
:1034E000BDE8F08F8E6D00082DE9F74F86B00D46D0
:1034F00016468EE0112E03D2062009B0BDE8F08FEB
:10350000113E15F801AB4FEA2A190AF00F0003909B
:103510000AF0EE0008B10620EFE710210698FFF749
:1035200038FE8046B8F1000F01D10320E5E7069888
:103530002430039900EBC10040F8298000200446A4
:10354000074607E015F8010B049008F804000498FA
:103550000744641C102CF5D379000698FFF719FE78
:103560008346BBF1000F01D10320C6E70698343033
:10357000039900EBC10040F829B0002001900446F7
:10358000059019E018F80400049009E00598421C21
:10359000019905922BF810100198401C80B20190FF
:1035A0000498411E04910028F0D14FF6FF71019854
:1035B00001EA40000190641C102CE3D3BE4201D20A
:1035C00006209AE7F61B39460698FFF7E2FD0290BF
:1035D000029808B9032090E706984430DDE902120A
:1035E00000EBC20040F82910002410E015F801ABF0
:1035F000B9F1000F04D1BAF10B0F01DD06207CE711
:10360000029880F800A00298401C0290641CBC4202
:10361000ECD3002E7FF46EAF00206EE72DE9F0476B
:1036200082460C4616462BE0412E02D20620BDE80B
:10363000F087413E14F8018B08F0F00008B1062035
:10364000F5E708F003074FF480715046FFF7A1FD3E
:1036500005460DB90320EAE70AF1540040F8275067
:1036600000270BE0084810F8079014F8010B0749F1
:1036700031F81910484345F829007F1C402FF1D339
:10368000002ED1D10020D2E7CE6C00080E6D0008CC
:1036900002460023012A03D0022A01D0032A04D1C2
:1036A0005001A0F1C040436C01E00548036803EA03
:1036B0000100884201D0002070470120FCE7000093
:1036C000580100A0D0E90221114342681143026869
:1036D00041EA4221014A116070470000500100A0F8
:1036E00070B50568042D3AD1D0E908653543C6693F
:1036F00035438669354346693543066945EA4625BB
:10370000C6683543866845EA063546683543384E0F
:103710003560856AAD696D1E866A7669761E45EAF2
:103720000616856A2D696D1E46EA0526856AED68CE
:103730006D1E46EA0536856A2D896D1E46EA0546E8
:10374000856AAD886D1E46EA0556856A2D786D1E20
:1037500046EA05654FF02046C6F8485147E0244D3B
:103760002D6825F4F841D0E90265354346683543B4
:103770002943D0E908653543C66935438669354331
:1037800046693543066945EA06044FF02045C5F809
:103790004011C5F84441D5F84851164E05EA0602D5
:1037A000856AED686D1E2E03856AAD886D1E46EA3A
:1037B0000556856A2D896D1E46EA05452A43856AA8
:1037C000AD696D1E866A7669761E45EA0616856ABB
:1037D0002D696D1E46EA0526856A2D786D1E46EA1E
:1037E00005634FF02045C5F84821C5F84C3170BD40
:1037F000400100A0FF0F00FF074A126843F6FE7366
:1038000022EA03011A4602EA40020A434FF020432B
:10381000C3F8542170470000540100A070B504465D
:103820000D4600BF0721054801F0F7FD0028F9D03B
:10383000E1B2024801F079FD204670BD0010014060
:10384000F0B503461C6A5D6A00200DE00126864043
:1038500016403EB187000F26BE40B443860001FAF1
:1038600006F63443461CB0B20828EFD3082011E016
:103870000126864016405EB1A0F10806B7000F266B
:10388000BE40B543A0F10806B60001FA06F635437E
:10389000461CB0B21028EBD31C625D62F0BD8162A1
:1038A00070478161704702461069084008B10120E5
:1038B00070470020FCE7F0B504460D461646216827
:1038C000E268002019E0012787401F409FB14FEABE
:1038D000400C032707FA0CF7B943470005FA07F72E
:1038E00039434FEA400C032707FA0CF7BA43470065
:1038F00006FA07F73A43471CB8B21028E3D3216011
:10390000E260F0BDF0B50C461546012C03D14668C7
:103910001E43466002E046689E434660826800217E
:103920000DE001268E401E403EB14F000326BE40F2
:10393000B2434E0005FA06F632434E1CB1B21029CE
:10394000EFD38260F0BD2DE9FF5F044688469146C3
:103950009A46267B2768656828780390002083466E
:1039600002901020019000BF36BB6FB9A5684FF4DC
:10397000806229462046636F984707462FB96FF04B
:10398000010004B0BDE8F09F6D1C7F1E029850B18D
:1039900000200290287810B16FF00500F1E7FF20B9
:1039A0000390287007E0287803900398FF2802D13D
:1039B0000120029022E080264FEA4B0B0398304012
:1039C00008B10BF1010B761018F8010B00900EE016
:1039D00039F8021B594505D12673276065609AF8AE
:1039E0000000CEE70AF1010A0098401E00900098FE
:1039F0000028EDD10198401E019000BF01980028D9
:103A0000B2D1801FBDE710B540F2174000F0B8FFFB
:103A100040F2174000F0A2FF10BD000010B50022D8
:103A20004C4B1B6803F0010333B10122494B1B6867
:103A300023F00103474C2360464B5B6B23F00703E5
:103A4000444C6363C3686363C16805295CD2DFE8E3
:103A500001F00315253548003E4B9B6B00233D4C80
:103A6000A363D0E9054343EA0423048A43EA0443F9
:103A7000047A43EA0463374CA36346E0354B9B6BFF
:103A800003F07F43334CA363D0E9054343EA0423A7
:103A9000048A43EA04432F4CA36336E02D4B9B6B0F
:103AA0006FF30F032B4CA363D0E9054343EA4413A0
:103AB000046943EAC423274CA36326E0254B9B6B90
:103AC0006FF30F03234CA363D0E9054343EA441388
:103AD000046943EA8423846843EAC4331D4CA36326
:103AE00013E01C4B9B6B6FF30F031A4CA363D0E9DD
:103AF000054343EA0413046943EA0423846843EA60
:103B00000433144CA36300E000BF00BF114BDB6B18
:103B10000023104CE3630368E36323461B6C6FF3DD
:103B20000D0323644368236423465B6C03F0404326
:103B30006364848B036A43EA0443064C646C234346
:103B4000044C6364012A04D123461B6843F001033B
:103B5000236010BD00B002400021C160416081605F
:103B60000161416181610160C161016270470000D2
:103B7000024989680143014A9160704700B00240E0
:103B8000014604484068084008B101207047002001
:103B9000FCE7000000B002400549096821F440310B
:103BA000034A116011460968014311607047000023
:103BB00000B002400348006840F00100014908607D
:103BC0007047000000B002402DE9F74F82B0044674
:103BD0001746032F03DD052005B0BDE8F08F67739E
:103BE000A07B4FEAC009E07B4FEAC00A0021A18216
:103BF000E18221838B46CDF804B0002500262FE01A
:103C00004FF0000828E0608BA0B15846411C1FFA15
:103C100081FB618B88420DD10198421C92B2014612
:103C20002046019200F000FF05460DB12846D3E77B
:103C30004FF0010B204600F0F3F905460DB1284680
:103C4000CAE7334642462046039900F0DBFA0546B0
:103C50000DB12846C0E7C844E0694045D3D8564472
:103C6000206AB042CCD82846B6E72DE9FF4F83B092
:103C70000446059818B9052007B0BDE8F08F0598EF
:103C8000E06606982067049860671098A067002097
:103C9000608300261BE04FF0000A14E0002104F1CD
:103CA000240000EBC60040F82A1004F1340000EBB9
:103CB000C60040F82A1004F1440000EBC60040F8AA
:103CC0002A100AF1010ABAF1020FE7D3761C022E7C
:103CD000E1D3002605E0002104F1540040F826104D
:103CE000761C042EF7D34FF480612046FFF751FA7B
:103CF0000546A0600DB90320BEE7022229462046F2
:103D0000636F9847022801D00220B5E768782978C8
:103D100040EA01204FF6D871884201D00620ABE777
:103D20004FF0020900BF042229462046636F9847DE
:103D3000042801D002209FE76878297840EA012012
:103D40000290E878A97840EA0127022F04D9FF21E0
:103D50000298B1EB202F01D006208DE7BF1E381D41
:103D600081440298C0B2C0381E2872D2DFE800F049
:103D70000FF4F3F272F1F0EF71EEEDEC71EBEAE9B2
:103D8000717171717171717171E8A68C715DB7F5A6
:103D9000806F01D904206FE73A4629462046636FB9
:103DA0009847B84201D0022066E72879E97840EACE
:103DB0000120E061A878697840EA012020626879F2
:103DC000032801D0082057E700262BE006EB460029
:103DD000C01D15F800808EB9B8F1110F07D0B8F1E9
:103DE000220F04D0B8F1210F01D0082044E74FEA98
:103DF0002810A07308F00F00E07304E0B8F1110F71
:103E000001D0082038E706EB4600083015F800809E
:103E1000B8F1030F01DD08202EE704F1100000F8CF
:103E20000680761C032ED1D3ECE0B7F5806F01D964
:103E3000042021E73A4629462046636F9847B84256
:103E400001D0022018E76878297840EA01206083D1
:103E5000D8E0CDE0B7F5806F01D904200CE73A46F1
:103E600029462046636F9847B84201D0022003E7F5
:103E70003A4629462046FFF737FBC0B20190019829
:103E800008B10198F8E6BDE0B7F5806F01D90420CC
:103E9000F2E63A4629462046636F9847B84201D079
:103EA0000220E9E63A4629462046FFF7B7FBC0B2B2
:103EB0000190019808B10198DEE6A3E0B7F5806FA4
:103EC00001D90420D8E63A4629462046636F984730
:103ED000B84201D00220CFE6E06908B1206A08B9F3
:103EE0000620C9E62878032801D00820C4E6002669
:103EF00034E07000801C15F80080B8F1000F04D089
:103F0000B8F1110F01D00820B6E60EB1012000E093
:103F10000020804604F1240050F8380028B104F154
:103F2000240000EBC800406808B90620A4E604F1AC
:103F30001000815D443050F8210070B906209BE6E6
:103F400054E052E050E04EE04CE04AE048E046E009
:103F500044E042E040E03EE03CE0761C032EC8D363
:103F6000E07BA17B10FB01FBBBF1000F01D1062020
:103F700082E6402101EBCB17FF2F00D88F00394696
:103F80002046FFF706F96066606E08B9032073E605
:103F90000BF1020081012046FFF7FBF8A066A06E3E
:103FA00008B9032068E66560002020602073C9F32B
:103FB0000900B0F100090BD0C9F5806205EB0901D9
:103FC0002046636F9847206005EB0900401E606043
:103FD000002051E600BF00BF00BF00BF00BF00BF10
:103FE00000BF00BF00BF00BF00BF00BF082043E606
:103FF0003A4600212046636F9847B84201D002201C
:104000003AE600BF8FE6FDF70FFAFDF736FD05E053
:10401000FEF764FAFEF77CFAFEF758FAF8E70000BC
:104020002DE9F04F89B00446D4F86490A07BE17B81
:1040300010FB01F0089002200790A06E04904FF052
:10404000000BD4E00898834501D2002003E00898D3
:10405000ABEB0000401C0590059808B1012000E082
:104060000020804604F1240050F83800039004F149
:10407000340050F83800019004F1440050F8380042
:1040800002902046DDE901230399FFF75CFC054619
:10409000002D04DA6842C0B209B0BDE8F08F04F127
:1040A0001400059930F91160F5B129462046FFF753
:1040B0007FF88246BAF1000F03DACAF10000C0B2FD
:1040C000EAE7681E012101FA00F50AEA050020B9B5
:1040D0000120C0EB4500AAEB000A564432B204F1BD
:1040E0001400059920F8112004F110000599415C95
:1040F000443050F82100009000980068704300128E
:10410000C9F80000012703E0002049F827007F1CC0
:10411000402FF9D304F1240000EBC800406803905D
:1041200004F1340000EBC8004068019004F1440041
:1041300000EBC80040680290012700BF2046DDE97F
:1041400001230399FFF7FFFB054605B937E0002D72
:1041500002DA6842C0B29FE728090690069828B1A3
:1041600006980744402F01D3062095E705F00F007D
:10417000051E20D029462046FFF71AF80646002ED5
:1041800002DA7042C0B287E7681E012101FA00F529
:1041900006EA050018B90120C0EB4500361A184898
:1041A000C05D06900699009850F8210070430112F6
:1041B000069849F82010781C07464028BED300BF57
:1041C000607B03280AD1D9F80000C11700EB116108
:1041D00009128031CAB204990A7003E04846049972
:1041E000FFF72EF80498403004900BF1010BDDE945
:1041F0000710084458453FF625AF00204CE7000063
:10420000CE6C00082DE9FF4F8DB004464FF480605E
:104210000C90A07BC700E07BC0000B900F98384447
:10422000E169884201D8384602E0E1690F98081A2E
:1042300083460B9910980844216A884201D80B984C
:1042400002E0216A1098081A0A90607B2BFA00FBA2
:10425000617B0A98C8400A90BBF1000F01D00A9810
:1042600018B9002011B0BDE8F08F617B0F98C840ED
:104270000F90617B1098C84010900F9880B2ADF8F5
:1042800014000F985844401E80B2ADF816001098E4
:1042900080B2ADF818000A9910980844401E80B208
:1042A000ADF81A00607B03287DD0656E00266EE0B5
:1042B000D4F8688008EBC60007900B9810280BD143
:1042C00070084FF4807101EBC0008044082E07D3C2
:1042D00007984030079003E0F80000EBC6008044E8
:1042E0004FF0000950E098F800008038099098F8E5
:1042F000400080380890102F09D1B9F1080F02D181
:1043000007983830079009F00100804401E008F177
:104310000108079810F801AB079040F29B520899EA
:1043200001FB02F0C11700EB91510AEBA121C1F38F
:104330000901984A515C05F8011B4FF4B0720999C4
:10434000514340F2DB23089A03FB0210C11700EB34
:104350009151AAEBA121C1F309018E4A515C05F8E4
:10436000011B40F21672099901FB02F0C11700EB24
:1043700091510AEBA121C1F30901864A515C2970D0
:10438000691C0D4609F10109B945ACD3761C0B989F
:1043900086428DD3607B002853D0637B5A0094F80B
:1043A0000DE0012300E04DE003FA0EF17B1A03EB70
:1043B00043030093606E002640E04FF000093AE0AE
:1043C00006FB079E0EEB4E0E636E03EB0E050023FD
:1043D00001930293039304931DE04FF0000C13E04C
:1043E00015F8013BDDF80CE07344039315F8013B2D
:1043F000DDF808E07344029315F8013BDDF804E0B2
:10440000734401930CF1010C8C45E9D3009B1D44CE
:10441000049B5B1C0493049B8B42DED3039BD34021
:1044200000F8013B029BD34000F8013B019BD340C5
:1044300000F8013B8944B945C2D30E440B9B9E4210
:10444000BBD35BE0656EA16E0B9807FB001898F874
:1044500000008038099098F84000803808900026C5
:1044600049E0A06E0790082E02D10798803007908F
:104470004FF000093CE0079890F800A00798403002
:10448000079040F29B52089901FB02F0C11700EB24
:1044900091510AEBA121C1F309013E4A515C05F893
:1044A000011B4FF4B0720999514340F2DB23089A83
:1044B00003FB0210C11700EB9151AAEBA121C1F33C
:1044C0000901344A515C05F8011B40F21672099942
:1044D00001FB02F0C11700EB91510AEBA121C1F3DE
:1044E00009012C4A515C2970691C0D4609F1080923
:1044F000B945C0D308360B988642B2D3607BC7401B
:10450000BB4521D2D4F864C061466046002316E062
:1045100000220CE010F801CB01F801CB10F801CB20
:1045200001F801CB10F801CB01F801CB521C5A4520
:10453000F0D3A7EB0B0C0CEB4C0C60445B1CDDF8D0
:1045400028C06345E4D300BF606E0246DDF828C092
:104550000BFB0CF300BF10F801CB0CF0F80C4FEA8A
:104560000C2110F801CB0CF0FC0C41EACC0110F846
:1045700001CB41EAEC0122F8021BA3F1010CBCF1D2
:104580000003E8D105AA2046616E0E9B9847C0B291
:1045900068E600008E6D00082DE9F04103460D46E7
:1045A000164600240027A0462A48006800F4E06070
:1045B000B0F5E06F03D100BF4FF0040830E02548AC
:1045C000006800F4E060B0F5C06F03D101274FF040
:1045D000030825E01F48006800F4E060B0F5A06F14
:1045E00002D10227B8461BE01A48006800F4E060D8
:1045F000B0F5806F03D103274FF0010810E0154894
:10460000006800F4E060B0F5407F03D104274FF06C
:10461000000805E04FF4A06000F020F80227B8463B
:10462000C7F1040005FA00F4C8F104010F20C840E6
:104630003040044324010848C45403F01F01012002
:1046400088405911890001F1E021C1F80001BDE85D
:10465000F08100000CED00E000E400E002490143BD
:10466000024A1160704700000000FA050CED00E0FE
:104670002DE9F04F8CB0064600200A903EA090E84D
:10468000004CC068CDE905BECDF810A007900FF230
:10469000EC0ADAE9000ACDE9020A0FF2E00ADAE9E7
:1046A000000ACDE9000A38480068C0F381000B9089
:1046B0000B9820B1012804D0022828D103E0334907
:1046C00027E0334925E03048001F006800F03F072D
:1046D0002D48001F0068C0F3881C2B48001F00688D
:1046E000C0F30140401C4FEA40092748001F006802
:1046F00000F48008B8F5800F01D1254B00E0234B72
:10470000B3FBF7F000FB0CF0B0FBF9F101E01F493F
:1047100000BF00BF1C480068C0F3031404A8055D77
:1047200021FA05F218480068C0F3822402A8055D4A
:1047300022FA05F0099014480068C0F342341DF8CD
:10474000045022FA05F0089036B1012E06D0022E50
:1047500006D0032E0AD106E00A9108E00A9206E08C
:1047600009980A9003E008980A9000E000BF00BF93
:104770000A980CB0BDE8F08F0000000000000000B7
:104780000102030406070809083802400024F40067
:1047900040787D010146074A02EB9110D0F80008ED
:1047A00001F01F0301229A40104008B10120704718
:1047B0000020FCE700300240074A02EB9011D1F8DC
:1047C000001800F01F0301229A401143024B03EB33
:1047D0009012C2F80018704700300240F0B506464B
:1047E0000024002700251C2E7DD007DCB6B3102E38
:1047F00010D0182E67D01A2E76D176E0B6F5E05F8D
:1048000019D0B6F5E85F4CD0A6F540501038002816
:10481000F2D134E004E01120FFF7BCFF0546641C30
:104820001DB94FF6FF708442F5D11120FFF7B2FF9A
:1048300000B101277AE005E041F60140FFF7AAFF49
:104840000546641C1DB96FF070408442F4D141F6F6
:104850000140FFF79FFF00B1012767E0FFE704E099
:104860000120FFF797FF0546641C15B9B4F5A06F4A
:10487000F6D10120FFF78EFF00B1012756E005E0D9
:1048800043F21100FFF786FF0546641C15B929485D
:104890008442F5D143F21100FFF77CFF00B10127FC
:1048A00044E005E041F60150FFF774FF0546641C43
:1048B00015B920488442F5D141F60150FFF76AFF4F
:1048C00000B1012732E004E01920FFF763FF05463D
:1048D000641C15B917488442F6D11920FFF75AFF16
:1048E00000B1012722E010E01FE004E01B20FFF7E9
:1048F00051FF0546641C15B90E488442F6D11B20B1
:10490000FFF748FF00B1012710E004E01D20FFF78A
:1049100041FF0546641C15B906488442F6D11D20A6
:10492000FFF738FF00B1012700E000BF00BF3846A5
:10493000F0BD0000FFFF0F00074A02EB9011D1F815
:10494000001800F01F0301229A401143024B03EBB1
:104950009012C2F80018704700300240074A02EB7C
:104960009011D1F8001800F01F0301229A409143E2
:10497000024B03EB9012C2F800187047003002405F
:10498000074A02EB9011D1F8001800F01F03012232
:104990009A401143024B03EB9012C2F80018704783
:1049A0000030024010B50346322B19D3B3F5FA7F1D
:1049B00016D8022905D0042903D0062901D00829D8
:1049C0000ED1022A0CD3072A0AD898010124C4EB7D
:1049D000510440EA044040EA0270034C206001E0C8
:1049E000002010BD0120FCE7883802406FF0807184
:1049F000884205D1054909680140044A116004E074
:104A0000024909680143014A116070478C3802402D
:104A1000044A116821F4403141EA0002014B1A6056
:104A2000704700008C3802402DE9F0470446884664
:104A3000666825680027B94614E05DB9A6684FF49A
:104A4000806231462046636F984705461DB90220B3
:104A5000BDE8F087761C6D1E307840EA072087B2EB
:104A600009F10109B9F1020FE7D366602560002062
:104A700020734FF6D87038404FF6D071884203D17A
:104A80007807B0EB487F01D00620E1E70021A18242
:104A9000E18221830020DBE7002000213A4A1268EE
:104AA00042F48032384B1A6000BF401C364A12680C
:104AB00002F4003119B94FF6FF729042F5D1324A33
:104AC000126802F400320AB900BFFEE72E4A4032F3
:104AD000126842F080522C4B40331A602B4A126805
:104AE00042F44042294B1A60274A08321268264B8A
:104AF00008331A601A46126842F400421A601A46D5
:104B0000126842F4A0521A60214A1B1F1A601A1F31
:104B1000126842F080721B1F1A6000BF1A4A1268A6
:104B200002F00072002AF9D0184A126842F480326A
:104B3000164B1A6000BF154A526802F48032002AF0
:104B4000F9D0124A126842F40032104B1A6000BFCA
:104B50000E4A526802F40032002AF9D00A4A08329A
:104B6000126822F00302084B08331A601A461268D2
:104B700042F002021A6000BF034A0832126802F0D3
:104B80000802002AF8D07047003802400070004048
:104B90001978400A10B5FFF77FFF10BD016841F09A
:104BA0008001016070470246002031B1012906D022
:104BB000022906D0032908D105E0506B06E0906B6E
:104BC00004E0D06B02E0106C00E000BF00BF704753
:104BD00031B101290CD0022913D0032922D118E0C8
:104BE000836923F00C0383618369134383611AE0B3
:104BF000836923F440638361836943EA0223836109
:104C000011E0C36923F00C03C361C3691343C3619B
:104C100009E0C36923F44063C361C36943EA022323
:104C2000C36100E000BF00BF704700210180012187
:104C3000418000218180C1807047000010B504468A
:104C40005C49601A8C426FD019DC5B49A4EB01000F
:104C50008C424ED009DCB4F1804F2ED0574820440E
:104C6000A0B3B0F5806F72D13AE0B0F5806F49D053
:104C7000B0F5006F4FD0B0F5406FF4D17BE0B0F5E8
:104C8000923F5BD009DCB0F5806F73D0B0F5644F14
:104C90000AD0B0F5684F5AD147E0B0F5943F57D0ED
:104CA000B0F5963F53D15CE04FF41060FFF768FE1B
:104CB0004FF41060FFF752FE79E04FF40060FFF709
:104CC0005FFE4FF40060FFF749FE70E0FFE740F63B
:104CD0000100FFF755FE40F60100FFF73FFE66E0DA
:104CE00040F60200FFF74CFE40F60200FFF736FEEA
:104CF0005DE040F60300FFF743FE40F60300FFF7D8
:104D00002DFE54E040F60400FFF73AFE40F60400A2
:104D1000FFF724FE4BE040F60500FFF731FE40F6BA
:104D20000500FFF71BFE42E02EE040F60110FFF702
:104D300027FE40F60110FFF711FE38E04FF4116036
:104D4000FFF71EFE4FF41160FFF708FE2FE02DE085
:104D500040F61110FFF714FE40F61110FFF7FEFDAC
:104D600025E040F61210FFF70BFE40F61210FFF799
:104D7000F5FD1CE011E040F60600FFF701FE40F6ED
:104D80000600FFF7EBFD12E040F60700FFF7F8FD25
:104D900040F60700FFF7E2FD09E040F60800FFF7E4
:104DA000EFFD40F60800FFF7D9FD00E000BF00BFAF
:104DB00010BD0000001C0040000C004000FCFFBFC4
:104DC000016841F001010160704700000A888262B9
:104DD0001D4A90420ED0B0F1804F0BD01B4A90423A
:104DE00008D01B4A904205D01A4A904202D01A4A73
:104DF00090420BD1026822F07002026002684B8878
:104E00001A43026002688B881A4302608A68C26291
:104E1000124A90420AD0124A904207D0026822F405
:104E2000407202600268CB881A430260064A9042D0
:104E300002D0094A904201D10A7B0263426942F0E2
:104E40000102426170470000000001400004004080
:104E500000080040000C0040000401400010004029
:104E60000014004070B504460E46154636B1012EBA
:104E700026D0022E48D0032E7DD168E0206A20F093
:104E800001002062206A20F00A002062206A29883E
:104E900008432062A06920F00300A061A06969882E
:104EA0000843A061A06920F0F000A061A069E98832
:104EB00040EA0110A061206A40F0010020626DE02C
:104EC000206A20F010002062206A20F0A0002062FA
:104ED000206A298840EA01102062A06920F440700D
:104EE000A061A069698840EA0120A061A06920F45E
:104EF0007040A061A069E98840EA0130A061206AA1
:104F000040F01000206249E0206A20F480702062A6
:104F1000206A20F420602062206A298840EA01206B
:104F20002062E06920F00300E061E06969880843DD
:104F3000E061E06920F0F000E061E069E98840EAC2
:104F40000110E061206A40F48070206226E0206A4F
:104F500020F480502062206A20F400502062206AF1
:104F6000298840EA01302062E06920F44070E06165
:104F7000E069698800E010E040EA0120E061E06952
:104F800020F47040E061E069E98840EA0130E061C6
:104F9000206A40F48050206200E000BF00BFAA8871
:104FA00031462046FFF714FE70BDC2680A43C26056
:104FB0007047CA43026170470246D06800EA0103A5
:104FC0001069084010B10BB1012070470020FCE7C8
:104FD00000210180418081804FF6FF7181600021B6
:104FE000C18001737047D0F8841021F00201C0F82D
:104FF0008410704710B540F61A10FFF7C1FC40F658
:105000001A10FFF7ABFC10BD012806D1064909684C
:1050100041F48031044A116005E00349096821F434
:105020008031014A116070471868014003480068E8
:1050300040F0010001490860704700001868014015
:105040002D49096801F0F0212B4A1160018842883E
:1050500041EA0241284A1160111D096801F0F0215E
:10506000121D11608188C28841EA0241224A121D44
:105070001160111D096801F0F021121D1160828973
:10508000816841EA02411C4A08321160111D096819
:1050900001F0F021121D1160828A016941EA02418A
:1050A000154A0C32116014492431096801F07F411E
:1050B000114A24321160D0E9072141EA0221028B12
:1050C00041EA02410C4A243211600B49103109684F
:1050D00021F07041084A10321160D0E909121143E1
:1050E000C26A1143026B1143034A10321268114322
:1050F000014A10321160704708680140D0F88410EE
:1051000021F00101C0F884107047D0F8841041F0FC
:105110000101C0F88410704750F8882F02F0F02287
:1051200002604A880B8842EA03420260426802F049
:10513000F0224260CA888B8842EA03424260C26819
:1051400022F00702C2608A68C260026922F0FF0290
:1051500002610A7B02614269002242610A7CCB7BC8
:1051600042EA03228B7B42EA03424B7B42EA036220
:105170004261826940F207739A438261D1E9053244
:105180001A438261426A00224262CA694262826AAA
:1051900002F0C02282624A8C0B8C42EA0342826295
:1051A000C26A6FF30A02C2628A8CC2628838704790
:1051B0000021018041808180C1808160FF210173D5
:1051C000002141738173C17301744FF4C061416167
:1051D000072181610021C16101844184818470477C
:1051E000D0F8841021F01001C0F88410704700003E
:1051F00030B90749096841F00201054A116005E02C
:105200000349096841F00101014A1160704700003B
:10521000246801400021018041808180C18081603B
:10522000C160016141618161C1610162416281626C
:10523000C1620163704700002DE9F04704460D4646
:105240000027B846B94600263349601A8C4235D04B
:105250000CDC32482044E8B1B0F5806F1FD0B0F5C7
:10526000006F21D0B0F5406F32D122E0B0F5806FF1
:1052700029D0B0F5184F03D0B0F51C4F28D104E069
:105280000320FFF7F5F9074623E00320FFF7F0F9C5
:1052900007461EE00220FFF7EBF9074619E002205F
:1052A000FFF7E6F9074614E00220FFF7E1F90746A9
:1052B0000FE00220FFF7DCF907460AE00220FFF7C3
:1052C000D7F9074605E00220FFF7D2F9074600E0CC
:1052D00000BF00BFE06800F4004070B1780000EB50
:1052E0005500B0FBF5F64FF6F07006EA0008C6F37D
:1052F000420948EA0900A0600CE007EB5500B0FB4A
:10530000F5F64FF6F07006EA000806F00F0948EAD5
:105310000900A060BDE8F0870078004000BCFFBF36
:1053200001464868C0F308007047C1F308024260B4
:105330007047000010B504463349601A8C424DD0C6
:105340000CDC32482044E0B1B0F5806F22D0B0F5DB
:10535000006F31D0B0F5406F52D136E0B0F5806FBC
:1053600045D0B0F5184F03D0B0F51C4F48D11AE026
:1053700040F60410FFF704FB40F60410FFF7EEFAC6
:105380003FE040F61100FFF7FBFA40F61100FFF78F
:10539000E5FA36E040F61200FFF7F2FA40F61200A6
:1053A000FFF7DCFA2DE040F60510FFF7E9FA40F6CA
:1053B0000510FFF7D3FA24E040F61300FFF7E0FAF8
:1053C00040F61300FFF7CAFA1BE040F61400FFF79F
:1053D000D7FA40F61400FFF7C1FA12E040F61E00BB
:1053E000FFF7CEFA40F61E00FFF7B8FA09E040F6E4
:1053F0001F00FFF7C5FA40F61F00FFF7AFFA00E005
:1054000000BF00BF10BD00000078004000BCFFBF1F
:10541000C16841F40051C160704710B5024602EB0B
:105420009110006801F01F040123A340184008B147
:10543000012010BD0020FCE710B500EB91121268AE
:1054400001F01F040123A3409A4300EB91131A605B
:1054500010BD10B500EB9112126801F01F0401237A
:10546000A3401A4300EB91131A6010BD10B500EB76
:1054700091521268C1F304440123A3409A4300EB04
:1054800091531A6010BD70B5024600230024C1F389
:105490008910105801F01F060125B54000EA0503E8
:1054A00002EB91500068C1F304460125B54000EAC3
:1054B000050414B10BB1012070BD0020FCE7C268E7
:1054C00022F4C062C260C2680A43C26070470A46E2
:1054D0000021C16821F004011143C16070470269D5
:1054E00022F44052026102690A43026170470A468F
:1054F0000021C16821F008011143C1607047C268F2
:1055000022F48052C260C2680A43C2607047000041
:1055100000000000000000000000000000003F400C
:10552000000000000000000030004000300040009B
:10553000000009000BC03D000BC03D00090018C071
:1055400024407FE0224031800000180024C01B006E
:105550000D803240018003801C4027401C800740A2
:10556000004010006000000000000000000000008B
:10557000000000001F80204040200000402020400C
:105580001F8000000000090006001F8006000900BF
:105590000000040004003F8004000400000000102C
:1055A000006000000000000000000400040004008F
:1055B00004000400000000000040000000000000A3
:1055C0000000002001C006003800400000001F80DD
:1055D0002040204020401F800000000010403FC0BD
:1055E00000400000000018C0214022402440184024
:1055F000000010802040244024401B800000020056
:105600000D0011003FC0014000003C8024402440B8
:105610002440238000001F80244024403440038025
:1056200000003000200027C03800200000001B8050
:105630002440244024401B8000001C0022C0224043
:1056400022401F8000000000000008400000000011
:1056500000000000000004600000000000000000E6
:1056600004000A00110020804040090009000900E0
:1056700009000900000000004040208011000A00DD
:1056800004001800200023402400180000001F80A0
:105690002040274029401F400000004007C039003B
:1056A0000F0001C0004020403FC0244024401B8028
:1056B00000001F802040204020403080000020401B
:1056C0003FC0204020401F80000020403FC02440B9
:1056D0002E4030C0000020403FC024402E0030004B
:1056E00000000F0010802040224033800200204044
:1056F0003FC0040004003FC02040204020403FC085
:105700002040204000000060202020203FC02000DA
:10571000200020403FC024400B0030C020402040EB
:105720003FC020400040004000C03FC03C0003C0DC
:105730003C003FC0000020403FC00C4023003FC061
:1057400020001F802040204020401F80000020407B
:105750003FC024402400180000001F802140214049
:1057600020E01FA0000020403FC02440260019C0B8
:10577000004018C024402440224031800000300006
:1057800020403FC020403000000020003F8000400B
:1057900000403F80200020003E0001C0070038008C
:1057A0002000380007C03C0007C03800000020403F
:1057B00039C0060039C0204000002000384007C032
:1057C000384020000000304021C02640384020C032
:1057D0000000000000007FE04020402000000000AA
:1057E00070000C00038000400000000040204020BA
:1057F0007FE00000000000002000400020000000CA
:105800000000001000100010001000100010000038
:105810000000400000000000000000000280054081
:10582000054003C0004020003FC004400440038006
:105830000000000003800440044006400000000017
:105840000380044024403FC0004000000380054026
:10585000054003400000000004401FC024402440D5
:105860002000000002E005500550065004202040B2
:105870003FC00440040003C000400000044027C0B3
:1058800000400000000000100010041027E000009D
:10589000000020403FC00140070004C004402040F9
:1058A00020403FC000400040000007C0040007C087
:1058B000040003C00000044007C00440040003C00B
:1058C00000400000038004400440038000000410F6
:1058D00007F00450044003800000000003800440EF
:1058E000045007F00010044007C002400400040008
:1058F0000000000006400540054004C00000000014
:1059000004001F80044000400000040007800040A5
:10591000044007C000400400070004C001800600E6
:105920000400060001C0070001C00600000004409A
:1059300006C0010006C0044000000410071004E087
:105940000180060004000000044005C00640044039
:1059500000000000000004007BE040200000000088
:1059600000000000FFF000000000000040207BE08D
:1059700004000000000040008000400020002000E3
:1059800040000000000000000000000000000000D7
:1059900000000000000000001FCC000C0000000010
:1059A00000000000080030006000080030006000C7
:1059B0000000022003FC1E20022003FC1E20022007
:1059C000000000000E1811043FFF10840C78000046
:1059D00000000F0010840F3800C00778188400788A
:1059E000000000780F8410C411240E9800E4008495
:1059F00000080800680070000000000000000000BF
:105A0000000000000000000007E018182004400219
:105A10000000000040022004181807E00000000009
:105A200000000240024001800FF00180024002406D
:105A300000000080008000800FF80080008000805F
:105A400000000001000D000E00000000000000003A
:105A50000000000000800080008000800080008046
:105A600000800000000C000C00000000000000009E
:105A70000000000000060018006001800600180009
:105A80002000000007F0080810041004080807F0C0
:105A900000000000080408041FFC000400040000CB
:105AA000000000000E0C10141024104411840E0C81
:105AB000000000000C1810041104110412880C706E
:105AC0000000000000E00320042408241FFC002440
:105AD000000000001F981084110411041088107039
