:020000040800F2
:1000000050350120C1010008592C0008491A000888
:10001000552C0008090A00087D3400080000000083
:10002000000000000000000000000000552E000845
:10003000F9150008000000005B2C00083D320008A4
:10004000DB010008DB010008DB010008DB01000820
:10005000DB010008DB010008DB010008DB01000810
:10006000DB010008DB010008DB010008DB01000800
:10007000DB010008DB010008DB010008DB010008F0
:10008000DB010008DB010008DB010008DB010008E0
:10009000DB010008DB010008DB010008DB010008D0
:1000A000DB010008DB010008DB010008DB010008C0
:1000B0000D330008DB010008DB010008DB0100084C
:1000C000DB010008DB010008DB010008DB010008A0
:1000D000DB010008C9330008DB010008DB01000870
:1000E000DB010008DB010008DB010008DB01000880
:1000F000DB010008DB010008DB010008DB01000870
:10010000DB010008DB01000869330008DB0100089F
:10011000DB010008DB010008DB010008DB0100084F
:10012000DB010008DB010008DB010008DB0100083F
:10013000DB010008DB010008DB010008DB0100082F
:10014000DB010008DB010008DB010008DB0100081F
:10015000DB010008DB010008DB010008DB0100080F
:10016000DB010008DB010008DB010008DB010008FF
:10017000DB010008DB010008DB01000800000000D3
:10018000DB010008DB010008DB010008DB010008DF
:10019000DB010008DB010008DB01000800000000B3
:1001A000DB010008DB010008DB010008DFF80CD0F0
:1001B00000F0C0FA004800472F49000850350120E0
:1001C0000648804706480047FEE7FEE7FEE7FEE7F1
:1001D000FEE7FEE7FEE7FEE7FEE7FEE74532000842
:1001E000AD0100082DE9FE4F804681EA0300C00FF3
:1001F0000C46009021F0004123F00045B8EB0200CE
:10020000A94105D24046214690461C460B4602466F
:1002100023F00040104347D0270DC7F30A00C3F373
:100220000A510290401A019040286BDAC3F3130080
:1002300040F4801B0098924620B10023D2EB030AC1
:1002400063EB0B0B01985946C0F14002504600F099
:1002500083F906460D4650465946019A00F09BF92F
:1002600010EB08006141002487EA115284EAE77329
:100270001A4340D0009A62B3019A012A4FEA07520A
:1002800015DC001B61EB02014FF0004202EA07524D
:10029000CDE90042001C41F5801132462B4600F0AA
:1002A0009BF903B0BDE8F08F40462146F9E7001BFB
:1002B00061EB0201001C41F5801300185B4120181E
:1002C000A2F5001747EB030140EAD570B6196D415E
:1002D00011E06D084FEA360645EAC0754FEA07524D
:1002E000001B61EB0201001C41F5801149084FEA37
:1002F00030000019514132462B4603B0BDE8F04FA3
:1003000000F05BB90098012240000023D0EB02020C
:1003100063EBE073009821464FEAE074B8EB00000D
:1003200061EB0401E9E783F000435BE781F0004102
:1003300058E72DE9FE4F81EA030404F0004421F060
:10034000004100944FF0000B23F0004350EA0104F9
:100350005ED052EA03045BD0C3F30A54C1F30A55DA
:100360002C44A4F2F3340194A0FB0254C1F3130112
:1003700041F48011C3F3130343F4801301FB0244DF
:1003800000FB034E840A970A44EA815447EA8357E4
:10039000A4FB076802958D0A05FB07854FEA932C9D
:1003A00004FB0C542705029D4FEA065847EA16370E
:1003B000B5EB08056EEB070C870E920E47EA811726
:1003C00042EA8312A7FB0201B6EB0B0164EB0004C7
:1003D0002B0D43EA0C335E1844EB1C50DA465146B1
:1003E000E7FB0201C5F313044FEA0B3343EA14534E
:1003F0004FEA0432019C43EA0603A4F10C04029480
:10040000009CCDE900B400F0E7F803B0BDE8F08F40
:1004100000200146F9E72DE9F04D81EA030404F0DC
:10042000004B21F0004514464FF0000A23F0004134
:1004300050EA050220D054EA01021DD0C5F30A5744
:100440000246C5F31303C1F31300C1F30A5640F487
:10045000801543F48013A7EB0608101BD64608F25C
:10046000FD3873EB050002D308F1010801E0921892
:100470005B41B8F1000F03DA00200146BDE8F08DC2
:1004800000204FF48011064684460EE0171B73EBE4
:10049000050705D3121B63EB050306434CEA010C69
:1004A00049084FEA300092185B4150EA0107EDD14C
:1004B00052EA030012D082EA040083EA05010843ED
:1004C00005D0101BAB4106D20122002306E000221A
:1004D0004FF0004302E06FF0010253101AEB0600E8
:1004E0004CEB085110EB0A0041EB0B01BDE8F04D5D
:1004F00000F063B80EB540F2334102910021CDE91E
:1005000000110A460B4600F067F803B000BD0EB5B7
:1005100040F2334202920022CDE90022134600F05D
:100520005BF803B000BDC1F30A5210B5C1F313016B
:1005300040F2FF3341F480119A4201DA002010BDED
:1005400040F233439A42A2F2334203DC524200F0BB
:1005500012F810BD904010BD202A04DB203A00FAAA
:1005600002F1002070479140C2F1200320FA03F30A
:10057000194390407047202A04DB203A21FA02F008
:100580000021704721FA02F3D040C2F120029140CD
:10059000084319467047202A06DBCB17203A41FA58
:1005A00002F043EAE07306E041FA02F3D040C2F100
:1005B0002002914008431946704710B5141E73F18C
:1005C000000408DA401C41F1000192185B411A4313
:1005D00001D120F0010010BD2DE9F04D92469B465F
:1005E00011B1B1FA81F202E0B0FA80F22032904605
:1005F000FFF7B2FF04460F4640EA0A0041EA0B014A
:1006000053465A46084313D0114653EA010019D005
:10061000C8F140025046FFF7AEFF05460E46504671
:1006200059464246FFF798FF084305D0012004E0F1
:1006300020463946BDE8F08D0020054346EAE076C5
:100640002C4337430A986305E40AA0EB0800002214
:10065000FD0A44EA47540A3002D500200146E9E782
:10066000010510196941DDE9084500196941BDE836
:10067000F04DA2E70EB5C10F80EAE0700844CA074A
:10068000002140F233438DE80E000A460B46FFF787
:10069000A3FF03B000BD70B5C1F30A5201F00045DD
:1006A0000024C1F3130140F2FF3341F480119A4258
:1006B00001DA002070BD40F233439A42A2F2334285
:1006C00003DC5242FFF757FF00E090402C43F1D08B
:1006D000404270BD30B5041E71F1000404DB4FF0E0
:1006E0000044404264EB0101141E73F1000405DB79
:1006F0001C464FF00043524263EB04038B4208BF99
:10070000824230BD30B5041E71F1000404DB4FF0AD
:100710000044404264EB0101141E73F1000405DB48
:100720001C464FF00043524263EB0403994208BF5A
:10073000904230BD064C074D06E0E06840F00103F2
:1007400094E8070098471034AC42F6D3FFF732FD27
:100750005C0401087C04010802468A4202DD501A4A
:1007600080B27047881A80B2FBE700002DE9F74F8E
:1007700088B00E461746089801F032F846480088BF
:1007800044F64251884205D044A002F085FE0BB0E9
:10079000BDE8F08F4B48C089202807D04948C08960
:1007A000182803D048A002F077FEF0E7B146BA4619
:1007B000444840684E4600EB060B42488068574666
:1007C00000EB070849480068584502D84748D0F868
:1007D00000B046484068404502D84448D0F80480FC
:1007E000A8F1010001900020029057464FE00299C5
:1007F000089801F0D5F8054600240298401C0290A4
:100800004E463EE02F48C089202817D1285DC010F1
:100810000590601C285C80100690A01C285CC0100D
:100820000790E01C285C04900798C102069841EAF2
:100830004010059908430390241D19E02148C08900
:10084000182815D1285DC0100590601C285C801008
:100850000690A01C285CC01007900798C10206985B
:1008600041EA401005990843039001200490E41CDC
:100870000498322804DB3046039A019901F080FF86
:10088000761C5E45BED30198401E01907F1C4745F3
:10089000ADD300BF7BE7000080100020424D5044E4
:1008A0006973706C61793A20746869732069732088
:1008B0006E6F74206120424D502066696C650D0A90
:1008C0000000000090100020424D50446973706C8D
:1008D00061793A20756E737570706F7274656420FB
:1008E000666F726D61742121210D0A005000002095
:1008F0002DE9F0472DED0C8B8046314801210CC8C5
:10090000514019430AD12E4A1160516001F086F816
:100910002C4A03C2BDEC0C8BBDE8F08701F07EF8D9
:100920000D460446274A06CA661A65EB020740468A
:10093000FFF7E0FD41EC1B0B30463946FFF7E7FDC2
:100940009FED210B53EC102BFFF7F3FC53EC1B2B0B
:10095000FFF761FD9FED1E0B53EC102BFFF742FCE0
:1009600041EC180B51EC180B81F0004153EC182BA3
:10097000FFF7DFFC41EC1A0BB0EE4A0AF0EE6A0A10
:1009800002F0C6FDB0EE409AF0EE609A1249086897
:10099000FFF7B0FD53EC192BFFF7CBFCFFF7C3FDBE
:1009A00081464A4601210C482C3804F0AEFEB6EBD5
:1009B000080177F1000001D3024830C000BFA9E769
:1009C000200000201800002000000000000010405F
:1009D00000000000000000C02C04004010B50948D1
:1009E00002F0C6FA0748008940F6C4114843642162
:1009F00090FBF1F4322C00D232242046FFF778FF2E
:100A000010BD00001811002000BFFEE700200149C2
:100A1000087070472A0000200020014908707047C4
:100A2000280000200020014908707047290000209C
:100A300010B541F2010004F013FC40F6014004F04F
:100A40000FFC20220221084803F08EFB2023002205
:100A50000221054803F0C3FB2023032200210248A2
:100A600003F0E4FB10BD00000004024000B587B0B5
:100A700041F2010004F0F4FB204804F087FEC72097
:100A8000ADF800000020ADF80200ADF8040040F21F
:100A9000F31002900020ADF806008DF80C006946B6
:100AA000164804F03BFF0120ADF810000020ADF81F
:100AB0001200ADF81400ADF81600ADF81800ADF84E
:100AC0001A0004AA01210D4804F0FCFC00220121B7
:100AD0000A4804F01AFE60220121084804F0E8FDEB
:100AE00000220121054804F023FE0121034804F0FF
:100AF00074FF024804F00CFF07B000BD0004004082
:100B000010B54FF40071184803F05DFB40F6044047
:100B100004F0A6FB082301221146144803F05FFBF2
:100B2000082303220021114803F080FB08210F480D
:100B300003F049FB0A2000F067FD08210B4803F091
:100B400044FB012000F060FD4FF40071064803F003
:100B50003CFB0A2000F058FD082300221146034800
:100B600003F03DFB10BD00000018024000100240E1
:100B700010B540F6014004F073FB402301221146FA
:100B8000184803F02CFB402303220021154803F0F2
:100B90004DFB4021134803F018FB8023012211462E
:100BA000104803F01CFB8023032200210D4803F0B2
:100BB0003DFB80210B4803F008FB4FF4007301223A
:100BC0001146094803F00BFB4FF400730322002188
:100BD000054803F02BFB4FF40071034803F0F3FAD0
:100BE00010BD0000000402400018024010B540F69D
:100BF000014004F035FB40F6084004F031FB2023AF
:100C000001221146104803F0EAFA202302220021B3
:100C10000D4803F00BFB20210B4803F0D6FA4FF4EC
:100C2000807301221146094803F0D9FA4FF480730A
:100C300002220021054803F0F9FA4FF480710348BD
:100C400003F0C1FA10BD0000000402400020024081
:100C500010B54FF4A06004F095F910BD10B54FF039
:100C6000807004F057FB10BD10B5044640F60140FB
:100C700004F0F6FA012C0CD1802301221146094818
:100C800003F0ADFA802303220021064803F0CEFAD8
:100C900006E02CB9802301220021024803F09FFACC
:100CA00010BD000000040240F0B597B006460027D2
:100CB0004FF6FF744FF4606004F0D2FA4FF44060D6
:100CC00004F0CEFA40F6014004F0CAFA40F60240C1
:100CD00004F0C6FA40F6034004F0C2FA40F60440BD
:100CE00004F0BEFA40F6054004F0BAFA40F60640B9
:100CF00004F0B6FA40F6074004F0B2FA40F60840B5
:100D000004F0AEFA01220C21FE4803F02DFA012373
:100D100000220221FB4803F062FA01230322002192
:100D2000F84803F083FA02220C21F64803F01CFA7B
:100D3000022300221946F34803F051FA022303224A
:100D40000021F04803F072FA04220C21ED4803F070
:100D50000BFA042300220221EA4803F040FA04239C
:100D600003220021E74803F061FA08220C21E5483C
:100D700003F0FAF9082300220221E24803F02FFAD7
:100D8000082303220021DF4803F050FA10220C212F
:100D9000DC4803F0E9F9102300220221D94803F0CE
:100DA0001EFA102303220021D64803F03FFA202226
:100DB0000C21D44803F0D8F9202300220221D14885
:100DC00003F00DFA202303220021CE4803F02EFA6F
:100DD0004FF480520C21CB4803F0C6F94FF48053F6
:100DE00000220221C74803F0FAF94FF4805303228E
:100DF0000021C44803F01AFA4FF400520C21C148F4
:100E000003F0B2F94FF4005300220221BD4803F071
:100E1000E6F94FF4005303220021BA4803F006FA22
:100E20004FF480420C21B74803F09EF94FF4804301
:100E300000220221B34803F0D2F94FF48043032289
:100E40000021B04803F0F2F94FF400420C21AD4804
:100E500003F08AF94FF4004300220221A94803F06D
:100E6000BEF94FF4004303220021A64803F0DEF947
:100E700001220C21A44803F077F90123002202216A
:100E8000A14803F0ACF90123032200219E4803F09E
:100E9000CDF902220C219C4803F066F902230022BE
:100EA0001946994803F09BF9022303220021964832
:100EB00003F0BCF904220C21934803F055F90423F4
:100EC00000220221904803F08AF904230322002122
:100ED0008D4803F0ABF94FF480420C218B4803F0AE
:100EE00043F94FF4804300220221884803F077F948
:100EF0004FF4804303220021844803F097F94FF414
:100F000000420C21814803F02FF94FF400430022E6
:100F100002217E4803F063F94FF4004303220021CD
:100F20007A4803F083F901220C21784803F01CF978
:100F3000012300220221754803F051F90123032205
:100F40000021724803F072F902220C216F4803F06D
:100F50000BF90223002219466C4803F040F90223E2
:100F600003220021694803F061F980220C216848BE
:100F700003F0FAF8802300220221654803F02FF9DC
:100F8000802303220021624803F050F94FF480725D
:100F90000C215F4803F0E8F84FF48073002202212F
:100FA0005B4803F01CF94FF480730322002158487A
:100FB00003F03CF94FF400720C21554803F0D4F8CB
:100FC0004FF4007300220221514803F008F94FF456
:100FD0000073032200214E4803F028F94FF4806289
:100FE0000C214B4803F0C0F84FF48063002202212B
:100FF000474803F0F4F84FF480630322002144488B
:1010000003F014F94FF400620C21414803F0ACF8EE
:101010004FF40063002202213D4803F0E0F84FF452
:101020000063032200213A4803F000F94FF4805294
:101030000C21374803F098F84FF480530022022126
:10104000334803F0CCF84FF480530322002130489A
:1010500003F0ECF84FF400520C212D4803F084F813
:101060004FF4005300220221294803F0B8F84FF44E
:10107000005303220021264803F0D8F84FF48042A1
:101080000C21234803F070F84FF480430022022122
:101090001F4803F0A4F84FF48043032200211C48AA
:1010A00003F0C4F84FF400420C21194803F05CF837
:1010B0004FF4004300220221154803F090F84FF44A
:1010C000004303220021124803F0B0F84FF480726D
:1010D0000C210E4803F048F84FF4807300220221DF
:1010E0000A4803F07CF84FF480730322002107487C
:1010F00003F09CF84FF400720C21044803F034F81C
:1011000008E000000014024000180240000C0240F9
:10111000001002404FF4007300220221B14803F096
:101120005EF84FF4007303220021AE4803F07EF80E
:101130004FF480620C21AB4803F016F84FF4806343
:1011400000220221A74803F04AF84FF480630322EB
:101150000021A44803F06AF810220C21A24803F0F1
:1011600003F81023002202219F4803F038F81023CF
:10117000032200219C4803F059F820220C219A48B0
:1011800002F0F2FF202300220221974803F027F803
:10119000202303220021944803F048F801220C2167
:1011A000924802F0E1FF0123002202218F4803F060
:1011B00016F80123032200218C4803F037F802229D
:1011C0000C218A4802F0D0FF0223002219468748EA
:1011D00003F005F8022303220021844803F026F8D7
:1011E00020220C21824802F0BFFF2023002202218E
:1011F0007F4802F0F4FF2023032200217C4803F003
:1012000015F84FF400420C21774802F0ADFF4FF47F
:10121000004300220221744802F0E1FF4FF4004332
:1012200003220021704803F001F84FF400620C2102
:10123000704802F099FF4FF40063002202216D48CC
:1012400002F0CDFF4FF4006303220021694802F051
:10125000EDFF40220C21664802F086FF4023002269
:101260000221634802F0BBFF4023032200216048B3
:1012700002F0DCFF80220C215D4802F075FF802324
:10128000002202215A4802F0AAFF802303220021F3
:10129000574802F0CBFF4FF480720C21524802F005
:1012A00063FF4FF48073002202214F4802F097FF42
:1012B0004FF48073032200214B4802F0B7FF042E45
:1012C00001D1102500E008250A2000F09DF9022038
:1012D0000B9006200A900320099005200890012019
:1012E0000790069005900C961590082014901020F9
:1012F00013904020129080001190002010904FF425
:1013000040600F9001200E9000200D9005A81690CF
:101310000CA802F079FE01200490039500200290B1
:1013200001904FF6FF7400E0641E2021304602F069
:1013300043FE08B1002CF7D101A802F057FE0A20A5
:1013400000F062F9022004900395002002900190C1
:101350004FF6FF7400E0641E2021304602F02CFEA0
:1013600008B1002CF7D101A802F040FE0320049040
:101370000395E0200290002001904FF6FF7400E0FA
:10138000641E2021304602F017FE08B1002CF7D170
:1013900001A802F02BFE40F22127042004900395BF
:1013A0000020029001974FF6FF7400E0641E202198
:1013B000304602F001FE08B1002CF7D101A802F07E
:1013C00015FE4FF4177002F0ABFE4FF6FF7400E00D
:1013D000641E2021304602F0EFFD08B1002CF7D149
:1013E00017B0F0BD000C024000180240001002408F
:1013F000001C0240001402407FB504460D464FF425
:10140000805003F02DFF4FF0804004F0BFF9684694
:1014100004F0EFFAADF800500020ADF8040002949B
:10142000ADF8060069464FF0804004F077FA0121DC
:10143000880704F0BFFA002201211C2003F040FDC0
:101440004FF0804004F064FA7FBD00007FB5044691
:101450000D4641F2030003F003FF0F4804F096F934
:10146000684604F0C6FAADF800500020ADF804005C
:101470000294ADF806006946074804F04FFA0121CE
:10148000054804F097FA00220121322003F018FDEC
:10149000014804F03DFA7FBD000C004010B5044641
:1014A00000221146252003F00BFD4FF4406003F0AD
:1014B000D7FE4FF400720721264802F055FE4FF484
:1014C00080620721234802F04FFE4FF4007301228F
:1014D0000221204802F083FE4FF400730222002113
:1014E0001C4802F0A3FE4FF4806300220221194839
:1014F00002F075FE41F2041003F0B2FE164804F04B
:101500002BFC2146144804F0A9FB0021124804F0EA
:10151000F8FC0021104804F004FD00210E4804F0FE
:10152000E0FC04210C4804F0E4FC08210A4804F023
:10153000F0FC094804F07EFC40F20531064804F056
:101540009AFC40F20731044804F095FC002003495E
:10155000087010BD00000240001001403C00002057
:101560002DE9F0410446E06910B90120BDE8F081A1
:101570000027D4F81C80658812E0268809E02946F7
:10158000304601F021FB28F81700781C87B2701C48
:1015900086B22088A1880844B042F0DC681C85B27D
:1015A0006088E1880844A842E7DC204601F0A2FBFD
:1015B0000020DBE730B50346002016E0B3F9005009
:1015C0009C68645D0C541C88641C24B21C80B3F9B4
:1015D0000040B3F90450AC4201DB00241C80441CE1
:1015E00020B2DC88641E24B2DC80B3F90640002CF3
:1015F00001DD9042E2DB30BD704710B5044604EBDC
:10160000840000F013F810BD01B507490098086088
:101610004FF0E02040694FF0E021886100BF0248B0
:1016200000680028FBD108BD4000002001B50098EB
:1016300006E0002101E04A1C91B22629FBDB401E96
:101640000028F6D108BD000000B585B0054800901F
:1016500049F22F10029000221146684600F004F86B
:1016600005B000BDF263000870B5A0B004460E4698
:101670001546206808B1A06820B90C4801F00CFF9D
:1016800020B070BDE6602561002060604FF480539B
:10169000074A084901A8009402F07BFF20B9002204
:1016A000054901A802F024FF00BFE9E7180401087A
:1016B00080000020E9250008352600082DE9FF5F9D
:1016C00005460E4692460024D0460320A0EB4A0B66
:1016D00047E0A14647460FE0A6EB090105EB0800ED
:1016E000039A01F04DF806EB0801A5EB0900039AF7
:1016F00001F046F8A9F10109B9F1000FECDC1EE098
:10170000F11B281B039A01F03BF8311BE81B039ADD
:1017100001F036F8F11B2819039A01F031F831195C
:10172000E81B039A01F02CF8F1192819039A01F02B
:1017300027F83119E819039A01F022F87F1E002FCB
:10174000DEDC641CBBF1000F03DAA000801D8344C3
:1017500006E0A4EB080080000A308344A8F10108E9
:1017600000BF4445B5DD31462846039A01F008F82C
:10177000BDE8FF9F70B50346002016E00C5CB3F98E
:1017800002609D68AC555C88641C24B25C80B3F92F
:101790000240B3F90450AC4201DB00245C80441CDD
:1017A00020B2DC88641C24B2DC80B3F90640B3F9B3
:1017B0000450AC4201DA9042E0DB70BD0148007891
:1017C000704700002A0000200148007870470000A0
:1017D0002800002001480078704700002900002000
:1017E000014600228B5C501C085C43EA00206A4BD7
:1017F000188002228B5C501C085C43EA0023901C7A
:10180000085C43EA0043D01C085C43EA0060624B7A
:10181000586006228B5C501C085C43EA00205E4B3B
:10182000188108228B5C501C085C43EA00205A4B4C
:1018300058810A228B5C501C085C43EA0023901CF0
:10184000085C43EA0043D01C085C43EA0060524B4A
:10185000D8600E228B5C501C085C43EA0023901C6D
:10186000085C43EA0043D01C085C43EA00604B4B31
:10187000186012228B5C501C085C43EA0023901C09
:10188000085C43EA0043D01C085C43EA0060434B19
:10189000586016228B5C501C085C43EA0023901CA5
:1018A000085C43EA0043D01C085C43EA00603B4B01
:1018B00098601A228B5C501C085C43EA0020374B6E
:1018C00098811C228B5C501C085C43EA0020334B3F
:1018D000D8811E228B5C501C085C43EA0023901CBC
:1018E000085C43EA0043D01C085C43EA00602B4BD1
:1018F000186122228B5C501C085C43EA0023901C78
:10190000085C43EA0043D01C085C43EA0060234BB8
:10191000586126228B5C501C085C43EA0023901C13
:10192000085C43EA0043D01C085C43EA00601B4BA0
:1019300098612A228B5C501C085C43EA0023901CAF
:10194000085C43EA0043D01C085C43EA0060134B88
:10195000D8612E228B5C501C085C43EA0023901C4B
:10196000085C43EA0043D01C085C43EA00600B4B70
:10197000186232228B5C501C085C43EA0023901CE6
:10198000085C43EA0043D01C085C43EA0060034B58
:101990005862002070470000801000209010002046
:1019A00030B502460B46154DED89202D03D1134D60
:1019B0006D68A9001BE0114DED89182D0AD10F4D5E
:1019C0006D6805EB450100E0491C01F00305002DA1
:1019D000FAD10CE0094DED89102D08D1074D6D6845
:1019E000690000E0491C01F00305002DFAD1044D07
:1019F000ED6801FB0354101930BD00009010002069
:101A00008010002010B58021034802F0E0FB08B9E7
:101A1000002010BD0120FCE700040240014903C979
:101A2000704700003000002001460648C08808804A
:101A300004480089488003484089888001484078EC
:101A400070470000D010002000BFFEE710B504462C
:101A50000120216988470020A16888470120616929
:101A60008847012061688847012061698847012013
:101A7000A16888470120616988470020216988475B
:101A800010BD70B50446012500202169884701205A
:101A9000616988470120616888470120616988473A
:101AA000E068804705460020616888470120616939
:101AB0008847284670BD2DE9F04106460F4614467A
:101AC0001D46DDF81880304600F0E0F8307820F050
:101AD0000101304600F0A9F8012805D13046FFF792
:101AE000B5FF0120BDE8F0813912304600F09DF8C5
:101AF000012804D13046FFF7A9FF0120F2E7F9B22F
:101B0000304600F092F8012804D13046FFF79EFFDE
:101B10000120E7E73046FFF799FF304600F0B6F8BE
:101B2000307840F00101304600F07FF8012804D100
:101B30003046FFF78BFF0120D4E70EE0012D05D1E1
:101B40004146304600F010F8207004E00021304695
:101B500000F00AF82070641C6D1E002DEED1304696
:101B6000FFF774FF0020BDE72DE9F04104460D4664
:101B70000026002700202169884700BF12E00120CD
:101B800061688847012061698847E068804740EACA
:101B90004700C7B200206168884701206169884713
:101BA000701CC6B2082EEADB1DB9204600F007F80B
:101BB00002E0204600F01EF83846BDE8F08110B57E
:101BC00004460120216988470020A1688847012038
:101BD00061698847012061688847012061698847F9
:101BE00000206168884701206169884700202169D9
:101BF000884710BD10B5044601202169884701209F
:101C0000A168884701206169884701206168884789
:101C10000120616988470020616888470120616967
:101C2000884700202169884710BD2DE9F04104460E
:101C30000D460026012701202169884700BF1CE0CE
:101C400005F0800018B10120A168884702E000205B
:101C5000A16888476806050E012061698847012050
:101C6000616888470120616988470020616888476A
:101C7000012061698847701CC6B2082EE0DB20464F
:101C8000FFF7FFFE07463846BDE8F08110B5044671
:101C90000020616888470120616988470120216927
:101CA00088470120A1688847012061698847012091
:101CB000616888470120616988470020A1688847DA
:101CC00001206169884700206168884701206169B7
:101CD000884700202169884710BD2DE9F04106465C
:101CE0000C4615461F463046FFF7D0FF307820F0EF
:101CF00001013046FFF799FF012805D13046FFF773
:101D0000A5FE0120BDE8F08121123046FFF78DFFCE
:101D1000012804D13046FFF799FE0120F2E7E1B235
:101D20003046FFF782FF012804D13046FFF78EFED0
:101D30000120E7E70BE015F8011B3046FFF775FFC0
:101D4000012804D13046FFF781FE0120DAE7381E72
:101D5000A7F10107EFD13046FFF778FE0020D1E769
:101D6000704710B5FEF764FEFEF780FE10BD000060
:101D700010B5002000F0F0FC1F2000F081FCFFF700
:101D800063FC64200D4908804FF496704880400041
:101D900088801E20C880322008810020C860084842
:101DA0000861032088824FF6CA50C882088305481C
:101DB000C8610846FFF7D4FB10BD000018110020D1
:101DC00021F50008381100200EB5FEF7D1FEFEF710
:101DD00097FE28201249087012484860124888600F
:101DE0001248C86012480861124848616420FFF731
:101DF0000BFC0120042301AA48F24011009008487E
:101E0000FFF759FE18B10CA001F046FB0EBD0020F3
:101E10008DF8080001A910A001F03EFB00BFF5E716
:101E2000B8100020FD3100081D320008051A000816
:101E3000690C0008FB150008496E6974475431317C
:101E40003531513A204661696C20746F20676574A2
:101E50002069640D0A000000546F756368204944CE
:101E60003A2025730D0A000010B501F0EBF900F0DF
:101E70001BFB00F003FB4FF4E13000F08BFB00F0A4
:101E800055FB00F02BFB00F013FB10BD704700006A
:101E900010B58EB04FF44870FE4908604FF4F070F2
:101EA0004860002008720877FB4808624FF05040F5
:101EB0004862FA4888620220C86200240AE0F548B5
:101EC00001680C3040F824100C384168143040F898
:101ED0002410641C022CF2D341F21A1003F0C0F952
:101EE0004FF4406003F0BCF940F6014003F0B8F94C
:101EF00040F6024003F0B4F940F6034003F0B0F9B5
:101F000040F6044003F0ACF940F6054003F0A8F9B0
:101F100040F6064003F0A4F940F6074003F0A0F9AC
:101F200040F6084003F09CF904220E21DC4802F040
:101F30001BF9042300220221D94802F050F904239E
:101F400003220021D64802F071F908220E21D4485C
:101F500002F00AF9082300220221D14802F03FF9D9
:101F6000082303220021CE4802F060F94FF480726A
:101F70000E21CB4802F0F8F84FF4807300220221C2
:101F8000C74802F02CF94FF4807303220021C448A3
:101F900002F04CF901220921C24802F0E5F80123C0
:101FA00000220221BF4802F01AF901230322002176
:101FB000BC4802F03BF94FF480620E21B84802F0B1
:101FC000D3F84FF4806300220221B54802F007F9EC
:101FD0004FF4806303220021B14802F027F94FF447
:101FE00000620E21AE4802F0BFF84FF400630022F9
:101FF0000221AB4802F0F3F84FF400630322002102
:10200000A74802F013F902220921A64802F0ACF811
:10201000022300221946A34802F0E1F8022303221A
:102020000021A04802F002F940220E219E4802F051
:102030009BF84023002202219B4802F0D0F8402365
:1020400003220021984802F0F1F820220E2197483F
:1020500002F08AF8202300220221944802F0BFF8FF
:10206000202303220021914802F0E0F840220E21B3
:102070008E4802F079F84023002202218B4802F0BA
:10208000AEF8402303220021884802F0CFF84FF435
:1020900000520E21824802F067F84FF400530022EC
:1020A00002217F4802F09BF84FF4005303220021E5
:1020B0007B4802F0BBF84FF4806209217A4802F0B5
:1020C00053F84FF4806300220221774802F087F82A
:1020D0004FF4806303220021734802F0A7F84FF405
:1020E00000420E216E4802F03FF84FF400430022F8
:1020F00002216B4802F073F84FF4004303220021E1
:10210000674802F093F801220E21694802F02CF88A
:10211000012300220221664802F061F80123032214
:102120000021634802F082F802220E21604802F08A
:102130001BF80223002219465D4802F050F80223E2
:10214000032200215A4802F071F804220E21584857
:1021500002F00AF8042300220221554802F03FF859
:10216000042303220021524802F060F810220E21BD
:102170004E4801F0F9FF1023002202214B4802F0E3
:102180002EF8102303220021484802F04FF84FF4A4
:1021900080520E21444801F0E7FF4FF480530022A3
:1021A0000221414802F01BF84FF480530322002122
:1021B0003D4802F03BF840220E213E4801F0D4FF9A
:1021C0004023002202213B4802F009F84023032269
:1021D0000021384802F02AF84FF400620E213248FC
:1021E00001F0C2FF4FF40063002202212E4801F0EB
:1021F000F6FF4FF40063032200212B4802F016F88B
:1022000010220E212A4801F0AFFF102300220221E4
:10221000274801F0E4FF102303220021244802F0A4
:1022200005F808220E21244801F09EFF0823002211
:102230000221214801F0D3FF0823032200211E4878
:1022400001F0F4FF4FF480720E21164801F08CFF6C
:102250004FF4807300220221124801F0C0FF4FF4B6
:102260008073032200210F4801F0E0FF4FF4007259
:102270000E210C4801F078FF4FF400730022022178
:10228000084801F0ACFF4FF4007303220021054819
:1022900014E0000050000020000000D0C0BB0BD0B4
:1022A000001C0240000402400018024000100240DE
:1022B00000200240000C02400000024001F0B6FF86
:1022C0004FF480620E21674801F04EFF4FF48063A7
:1022D00000220221634801F082FF4FF48063032251
:1022E0000021604801F0A2FF4FF400720E215E4809
:1022F00001F03AFF4FF40073002202215A4801F026
:102300006EFF4FF4007303220021574801F08EFF47
:102310004FF480620E21544801F026FF4FF4806391
:1023200000220221504801F05AFF4FF4806303223B
:1023300000214D4801F07AFF80220E214B4801F028
:1023400013FF802300220221484801F048FF802328
:1023500003220021454801F069FF4FF40053012298
:102360001146434801F03BFF4FF400530222002185
:102370003F4801F05BFF4FF400513D4801F025FF5D
:1023800003F049FB01A803F057FC04221146F0209A
:1023900002F09CFF08B900BFFEE7002002F0CCFF6E
:1023A0001C2002F09DFE1C2002F0ACFE08B900BF0C
:1023B000FEE700200A900B900C900D902F20ADF8B6
:1023C00006000220ADF804008720ADF80A002220A4
:1023D000ADF8080040F2A730049040F202200390CC
:1023E00040F2CF30069040F20F2005900020079079
:1023F0000890099001A803F035FB4FF4F0704FF4FA
:102400004873002211460090104600F0F5FA4FF490
:10241000F0704FF44873002211460090012000F044
:10242000EBFA002000F0C0FA012000F0A9FAFF2129
:10243000002000F0F1FBFF21012000F0EDFB012066
:1024400003F0F4FA012003F0E5FB03F001FB0020A8
:1024500000F0BEFA002000F07FF9002000F010F933
:102460000EB010BD001402400020024000180240CF
:102470000008024010B5FEF7B9FB10BD10B5FEF71D
:10248000E7FB10BD30B50B460024048044808280F9
:10249000C4808360002104E0002485686C544C1CD7
:1024A00021B29142F8DB30BD10B5FEF7D7FB10BD6D
:1024B00010B50520FEF7F8FB10BD10B5FFF7DAFFE9
:1024C000FFF7E6FCFFF7E2FCFFF74AFC00F03AF802
:1024D000FFF747FCFFF74CFC10BD000010B5124899
:1024E00000684FF47A71B0FBF1F4601EB0F1807FA8
:1024F00001D301200FE0601E4FF0E02148610F2161
:102500004FF0FF3000F0F0FF00204FF0E021886135
:1025100007200861002008B100BFFEE70021481E27
:1025200000F0E2FF10BD00004400002010B5EF21D4
:1025300040F2E730FEF760FFEF2140F2E730FEF7B0
:1025400085FF10BD10B5FFF73FFC00201049087053
:10255000002419E000210E48401C01554FF6FF7180
:1025600004EB4402401D20F8121004EB440200EB7F
:1025700042004180002104EB44020548801D00EB2D
:1025800042008180601CC4B2052CE3DB10BD00005A
:10259000D010002010B5044600F004F82046FEF7E5
:1025A0007DFF10BD10B5002406E000200A49085543
:1025B0000A490855601C04B2B4F5007FF5DB4FF4FE
:1025C000007205490648FFF75DFF4FF400720349AA
:1025D0000448FFF757FF10BD50B1002050B3002052
:1025E00038B1002044B10020F0B505460C46A96F73
:1025F000A4B1002000230EE0D1E90167BE4208D259
:10260000D1E90067F65DE6544E68761C4E60401CCA
:1026100000E002E05B1C9342EED30AE04E681644F1
:102620008F68BE4204D24E6816444E60104600E0E9
:102630000020F0BD2DE9FC5F07460E461446BD6F35
:102640002088A98908441FFA80F9A088298A0844AB
:102650001FFA80FA6088A98908441FFA80FBE08885
:10266000298A084480B20190B046CDF800805A46CD
:1026700051464846019B00F045F80020BDE8FC9F0C
:1026800010B58CB00446A0B26B4601AA02A900F0B6
:1026900015FB40F6174002F0E3FD01F048FE4FF451
:1026A000403001F00DFF03A801F0EAFE0220069081
:1026B0001348006A039000200490FF2005909DF8C5
:1026C000080007909DF8040008909DF8000009900C
:1026D0004FF448700A904FF4F0700B9003A801F08B
:1026E00031FE01F0FBFE00BF022001F0DDFE0028FC
:1026F000FAD0022001F0D0FE01F019FE0CB010BD9E
:10270000500000202DE9F04F04460D4616461F46A6
:10271000B44202D9A24634465646BD4202D9AA4620
:102720003D4657464FF0000BA84610E0A1460AE090
:10273000099830F81B204146484600F021F80BF17B
:10274000010B09F10109B145F2D908F10108B845B9
:10275000ECD9BDE8F08F0000084A127A82420BD013
:10276000064A1072D1685269044BDA601A46516108
:102770001169936913619161704700005000002056
:10278000F0B5114D2E7F0C3555F826400C3D2E7FAF
:10279000143555F82630A04201D2994200D3F0BD3D
:1027A000094D2D7A35B9084E366A04FB010726F823
:1027B000172007E05D1E6D1A03FB0055024F3F6AAC
:1027C00027F8152000BFEAE7500000202DE9FF4F51
:1027D00095B0834614461E465748007A68B9564855
:1027E000017F0C3050F821800C38017F143050F8F4
:1027F00021000A905D46169F1CE04F48007A012890
:1028000018D14D48017F0C3050F821800C38017FE1
:10281000143050F821000A90CDF82080DDF828808F
:1028200008980A9008943446089E1698A8EB000071
:10283000051B5F462819B0F5487F01D9C5F54874D6
:10284000B819B0F5F07F01D9C7F5F0763A48007AAB
:1028500040B9A94609F10100049007EB060ACDF83A
:102860000CA00EE03448007A01280AD10BEB0609CF
:10287000CDF8109016982044A0F1010AAAF10100A9
:1028800003905146484600F09FF90290DDE903109D
:1028900000F09AF901902848006A2749C96A08FBA4
:1028A000075201FB02000B90A8EB0400099022994B
:1028B00088B205AB06AA07A900F000FA40F6174057
:1028C00002F0CEFC01F033FD4FF4403001F0F8FD92
:1028D0000CA801F0D5FD02200F900B980C900998E0
:1028E0000D90FF200E909DF81C0010909DF8180090
:1028F00011909DF814001290139414960CA801F0F6
:1029000021FD01F0EBFD00BF022001F0CDFD00280C
:10291000FAD0022001F0C0FD01F009FD5146484601
:10292000029AFFF72DFF019ADDE90310FFF728FF58
:1029300019B0BDE8F08F0000500000202DE9F84FDD
:1029400004460D4616461F46DDF828B0B44202D9AB
:10295000A04634464646BD4202D9A8463D464746B3
:10296000301B00F10109781B00F1010A53464A4669
:1029700029462046CDF800B0FFF728FFBDE8F88FC4
:1029800010B504461CB9074803F0CAF805E0012C4D
:1029900003D10448803003F0C3F8012003F03AF972
:1029A00010BD00000068014010B504461CB907487E
:1029B00003F0BDF805E0012C03D10448803003F09A
:1029C000B6F8012003F026F910BD000000680140B0
:1029D00028B90649064A11620021117704E0054929
:1029E000034A11620121117770470000000000D0F6
:1029F00050000020C0BB0BD02DE9F04F8BB08046BB
:102A00000E4617461C46149D01A803F0E3F86A48D9
:102A1000007A012816D1B2467819A0F1010B56466A
:102A2000374640F21F30A0EB0B06B6F5487F02D3C5
:102A30000BB0BDE8F08FB7F5F07F00D3F8E7A14603
:102A40002C464D463019B0F5487F01D9C6F548747B
:102A50007819B0F5F07F01D9C7F5F075B8F1000F1E
:102A60004FD106F1880080B2ADF8060030198730EA
:102A700080B2ADF8040007F1230080B2ADF80A007F
:102A80007819223080B2ADF8080002200390FF20B0
:102A90008DF810008DF814008DF813008DF81200D9
:102AA0008DF811004FF4C06006900720079043484E
:102AB0000890032000EB440080B2ADF826004FF6EA
:102AC000FF7000EA4400ADF82400A8B2ADF8280079
:102AD00001A93B4803F032F8394802F095FF384825
:102AE00003F090F83448007A18B93348C46045615F
:102AF0005DE03148007A012859D12F48C560446112
:102B000055E0B8F1010F52D106F1880080B2ADF85E
:102B100006003019873080B2ADF8040007F12300B9
:102B200080B2ADF80A007819223080B2ADF8080002
:102B300002200390FF208DF810008DF814008DF80E
:102B400013008DF8120000208DF811004FF4C060C2
:102B50000690072007901B480890032000EB4400D4
:102B600080B2ADF826004FF6FF7000EA4400ADF8E1
:102B70002400A8B2ADF8280001A91148803002F065
:102B8000DDFF0F48803002F03FFF0D48803003F03A
:102B900039F80948007A18B907480461856106E0E8
:102BA0000548007A012802D10348056184610120AB
:102BB00003F030F800BF3BE750000020000000D0D9
:102BC00000680140C0BB0BD030B502461148057FFC
:102BD0000C3050F825400C38057F143050F8253063
:102BE000A24201D2994201D3002030BD0948007AA7
:102BF00030B90848006A04FB012530F81500F4E7F5
:102C0000581E401A03FB0200024D2D6A35F81000D1
:102C1000EBE700005000002070B505460C4645B9B2
:102C20000B48006820F0FF0009490860084604606E
:102C300009E007488030006820F0FF000449803137
:102C4000086008460460012002F0E4FF70BD000047
:102C50009868014000BFFEE77047704710B5FEF767
:102C6000ADFD08B1FDF7D2FE10BD000010B5FEF7B6
:102C7000ABFD88B109480078401C08490870084637
:102C80000078142806DB00F0ABF9FDF7A7FE002062
:102C900002490870FDF7C0FE10BD000000000020D2
:102CA00010B5FEF797FD08B1FDF7BCFE10BD01465B
:102CB000C88808B9012070470020FCE710B500F46F
:102CC0007844E40A0C7000F4FC646409147000F0A9
:102CD0001F041C7010BD000070B5044600250122C1
:102CE00021460348FEF766FCC5B2284670BD0000C9
:102CF00038B100202DE9F04F8BB00446FEF78EFE70
:102D0000CDE90801524BDDE908100CCB891A60EBC4
:102D10000300643970F1000070D34D4ADDE90810FA
:102D2000C2E900102688B4F802802088A1880844EF
:102D30001FFA80F96088E18808441FFA80FAE06988
:102D4000AAF10103A9F10102414600903046FFF7C4
:102D5000D9FCE06828B142463146E068FDF706FD3F
:102D60002DE008EB0A0000EBD071C1F34F01079191
:102D7000A08A304480B20690A08AA9EB000080B2FD
:102D80000590A08A0799081A80B20490A08A079932
:102D9000084480B20390E08A0090DDE90331DDE968
:102DA0000520FFF7CBFDE38AA28ADDE90601FEF7E5
:102DB00085FCE38AA28A07990598FEF77FFC2069C3
:102DC000E8B1E08800EBD0714910491E8DB2F01CCB
:102DD000284487B2A9F10300401B1FFA80FBABEB2C
:102DE000070021894843642190FBF1F03844401BDF
:102DF00087B2424639462069FDF7B8FC24E0E088F6
:102E000000EBD0714910491E8DB2701C284487B266
:102E1000A9F10100401B1FFA80FBABEB07002189E1
:102E20004843642190FBF1F0384480B2029008EBF3
:102E30000A0000EBD071C1F34F010191238B2A46A8
:102E4000DDE90110FEF73AFC0BB0BDE8F08F0000A1
:102E500010000020704700002DE9FF4105460120C9
:102E6000034603AA48F24E1100903E48FEF723FEA7
:102E70009DF80C0000F00F0003909DF80C002870E6
:102E800000200390012303AA48F24E113548FEF7B3
:102E900024FF002461E02978601C81424CDB012082
:102EA0000090314830F81410062301AA2D48FEF78F
:102EB00002FE9DF804009DF8051040EA012104EB94
:102EC0004402A81D20F812109DF806009DF8071076
:102ED00040EA012104EB4402A81D00EB42004180BE
:102EE0009DF808009DF8091040EA012104EB440216
:102EF000A81D00EB420081801C48007A012817D1F0
:102F000004EB4401A81D30F8116004EB440100EB10
:102F10004100478804EB4401A81D20F81170C6F554
:102F2000487081B204EB4402A81D00EB42004180CE
:102F30000121681C01550EE00021681C01554FF667
:102F4000FF7104EB4402A81D20F8121004EB4402A8
:102F500000EB42004180601CC4B2052C9BDBBDE845
:102F6000FF810000B8100020020000205000002067
:102F70002DE9FC4704466846FEF756FD8246BAF145
:102F8000010F2BD12588B4F802802088A18808443D
:102F900086B26088E18808441FFA80F9BDF8000015
:102FA000A8421BDBBDF80000B04217DCBDF80200F0
:102FB000404513DBBDF8020048450FDCBDF80000BA
:102FC000401B64214843711B90FBF1F0C7B220897C
:102FD000B84203D027812046FFF78CFEBDE8FC876E
:102FE0002DE9FC47002404E000200DF80400601CDB
:102FF000C4B2052CF8DB7F48FFF72EFF7D48007830
:103000007D490870002470E07B48401C005D012869
:1030100069D14FF0000A002558E07648401C405D19
:10302000012851D104EB44017348801D30F8116030
:1030300004EB440100EB4100478805EB45016D4876
:10304000801D30F8118005EB450100EB4100B0F820
:10305000029041463046FDF77FFB4B2834DC494661
:103060003846FDF779FB4B282EDC4FF0010A05EBC3
:1030700045016048801D30F8111004EB44025E48A1
:10308000801D20F8121005EB45015A48801D00EB09
:103090004100418804EB44025748801D00EB420088
:1030A000418005EB45015348801D00EB41008188BC
:1030B00004EB44025048801D00EB42008180012156
:1030C0004D48401C015503E0681CC5B2052DA4DB2A
:1030D00000BFBAF1000F06D100214748401C01553E
:1030E00001200DF80400601CC4B2052C8CDB002408
:1030F0007AE04048401C005D012873D14FF0000A7F
:1031000000252CE03C48401C405D012825D104EB03
:1031100044013848801D30F8116004EB440100EB95
:103120004100478805EB45013348801D30F8118088
:1031300005EB450100EB4100B0F8029041463046F6
:10314000FDF70AFB4B2808DC49463846FDF704FB2F
:103150004B2802DC4FF0010A03E0681CC5B2052DC4
:10316000D0DB00BFBAF1000F3CD1002537E0224888
:10317000401C405D78BB1DF8050060BB04EB4401BA
:103180001C48801D30F8111005EB45021A48801DBF
:1031900020F8121004EB44011648801D00EB41009A
:1031A000418805EB45021448801D00EB4200418038
:1031B00004EB44010F48801D00EB4100818805EBC2
:1031C00045020D48801D00EB4200818001210A4824
:1031D000401C415505E000E004E0681CC5B2052D27
:1031E000C5DB00BF601CC4B2052C82DB024800783E
:1031F000BDE8FC87F4100020D010002010B5044674
:10320000012C04D14021044800F0DFFF03E04021FD
:10321000014800F0D8FF10BD0004024010B504467C
:10322000012C04D18021044800F0CFFF03E080216D
:10323000014800F0C8FF10BD0004024010B500F0C6
:10324000B7F810BD08B52D48006840F470002B4950
:1032500008602B48006840F00100294908602848B0
:103260000830006840F080002549083108600020DF
:10327000009002E00098401C00904CF25031009801
:103280008842F7D31E480830006840F090001C497F
:10329000083108600020009002E00098401C009077
:1032A0004CF2503100988842F7D315480830006836
:1032B00020F00300124908310860114800681149E4
:1032C00008400F4908600846006820F48020086024
:1032D00000200B490831086000BF09480830006829
:1032E00000200028F9D108480549091D0860002080
:1032F00003490C31086002F0E1F808BD88ED00E0F8
:1033000000380240FFFFF6FE1030002410B5012106
:10331000880702F056FB012803D10121800702F043
:103320004DFB01200C4908700C480088401C0B49DB
:10333000088008460088022804DB0020088001205D
:10334000074908700748D0E900305A1C40F10000D6
:103350000449C1E9002010BD2800002038000020E9
:10336000290000203000002010B501210D4802F096
:1033700028FB012803D101210A4802F01FFB0A485B
:103380000088401C00B2084908800846B0F90000D7
:10339000B0F57A7F04DB0020088001200349087023
:1033A00010BD0000000C00403A0000202A00002060
:1033B0000448006820B103480068401E01490860C5
:1033C000704700004000002008B50020009024490C
:1033D000244802F06AFD60B12149224802F058FDFC
:1033E000204802F0AFFCC0B200909DF8000000F051
:1033F00047F81D491B4802F058FD012806D11A491B
:10340000184802F045FD174802F09CFC1749154882
:1034100002F04BFD18B31549124802F039FD252082
:10342000002807DB00F01F0201219140104A4309E8
:1034300042F8231000BF6846FFF74EFC9DF80010CD
:10344000084802F084FC0B48FFF731FC38B100203B
:103450000949087040F20731024802F0FFFC08BD3C
:1034600005030500001001400005030007030700E5
:1034700080E200E038B100203C00002000BFFEE701
:1034800031B50024012269460248FEF773F9C4B23F
:10349000204638BD44B100200FB4054B10B503A938
:1034A000044A029800F09EFA10BC5DF814FB00007C
:1034B000454100084800002003B4019841000098ED
:1034C00050EAC12018BF04204A0D18BF40F0010087
:1034D00040F2FF72B2EB515F08BF40F002000128DA
:1034E00008BF052002B0704710B5002804DB0A07AA
:1034F000130E054A135406E00A07140E034A00F09F
:103500000F031B1FD45410BD00E400E018ED00E0D1
:1035100070B52DED020B2DED0A8B82B00D98C40F06
:1035200020F00045AE48854248D3AE48854219D3C5
:103530000C99C5F31300084309D09DED0C0B02B0A4
:10354000BDEC0A8B02B0BDE8704000F009BA002C57
:1035500014BF9FEDA50B9DED0C0B02B0BDEC0A8BCB
:1035600002B070BD9FEDA20B53EC102B9DED0C0B28
:1035700051EC100BFDF7C6F80AD2022000F02CFA2D
:1035800002B0BDEC0A8B02B0BDE8704000F0F4B9A7
:103590009FED990B53EC102B9DED0C0B51EC100B88
:1035A000FDF798F80AD2022000F016FA02B0BDEC3E
:1035B0000A8B02B0BDE8704000F0EEB990489FED74
:1035C00092BBA8425CD29248854219D29148784475
:1035D00000EBC40090ED000B53EC102B9DED0C0B99
:1035E00051EC100BFCF79FFE41EC1A0B8A48784413
:1035F00000EBC40090ED009BC4F10100041B36E019
:103600009FED870B53EC102B9DED0C0B51EC100B29
:10361000FCF78FFE41EC100B8348784400EBC400AC
:1036200090ED001B51EC100B53EC112BFCF7DAFD65
:10363000FDF731F80446FDF71DF841EC180B9FED3E
:103640007C0B53EC102BFCF774FE9DED0C1B53EC24
:10365000112BFCF76BFE41EC1A0B9FED770B51EC35
:10366000180B53EC102BFCF764FE41EC190B51ECDA
:103670001A0B53EC192BFCF756FECDE90C011BE09D
:103680006F48854217D29FED700B53EC102B9DEDC8
:103690000C0B51EC100BFCF7A5FD53EC1B2BFDF7AD
:1036A00031F808D29DED0C0B53EC1B2B51EC100B99
:1036B000FCF798FD6EE000249DED0C0B53EC102BF5
:1036C00051EC100BFCF735FE41EC180B604805215E
:1036D000B0EE480AF0EE680A784400F0C5F853EC02
:1036E000182B51EC100BFCF724FE9DED0C1B53EC3A
:1036F000112BFCF71BFE41EC180B9FED570B5CB335
:1037000053EC182B51EC100BFCF70DFE9DED0C0B40
:1037100041EC1C0B53EC182B51EC100BFCF709FE81
:1037200053EC1C2BFCF777FE53EC192BFCF7FEFD3A
:1037300053EC1A2BFCF7F7FD53EC1B2BFCF7F6FDB3
:10374000CDE900016FF47F70844226DB01EB045069
:1037500001909DED000B00E753EC102B51EC180B82
:10376000FCF7E1FD9DED0C0B41EC190B53EC182B14
:1037700051EC100BFCF7DDFD53EC192BFCF74BFE65
:103780009DED0C1B53EC112BFCF7CDFD53EC1B2BCB
:10379000FCF7CCFD41EC100BDFE608464FF07A5108
:1037A00001EB04519FED2E0B084453EC102B0190BC
:1037B0009DED000B51EC100BFCF7BBFD0D4645ECED
:1037C000100B044651EC100BFFF776FE042808BFDF
:1037D00000F0E2F845EC104BBFE6000000000000EE
:1037E000422E86400000F07F000000000000000034
:1037F000EF39FAFE422E864051302DD5104987C050
:10380000422ED63F00000000000000000000F03F04
:10381000B2A2F03FFECD0000EECD0000000000009F
:10382000FE822B654715F73FA2CD00000000000087
:103830000000E0FE422EE63F763C7935EF39EA3D66
:103840000000303E000000009C7500883CE4377E9C
:1038500014CD000000000000000000000000004047
:10386000000000000000700170B504462DED028BD1
:103870004D1E00EBC500B0EE408AF0EE608A90ED80
:10388000000B35F0060017D053EC182B51EC100B41
:10389000FCF74FFD41EC100B6D1E04EBC50090EDE5
:1038A000001B51EC100B53EC112BFCF79BFC41EC73
:1038B000100B35F00600E7D1022D36D0042D1CD0B8
:1038C000062D1CBFBDEC028B70BD53EC182B51ECC8
:1038D000100BFCF72EFD94ED0A1B53EC112BFCF79B
:1038E00081FC53EC182BFCF724FD94ED081B53ECE2
:1038F000112BFCF777FC41EC100B53EC182B51EC1F
:10390000100BFCF716FD94ED061B53EC112BFCF786
:1039100069FC53EC182BFCF70CFD94ED040B53ECF5
:10392000102BFCF75FFC41EC100B53EC182B51EC07
:10393000100BFCF7FEFC94ED021B53EC112BFCF773
:1039400051FC53EC182BFCF7F4FC94ED001B53ECEA
:10395000112BFCF747FCBDEC028B41EC100B70BD4A
:1039600010B553EC102B51EC100BFCF73BFC41EC69
:10397000100B10BD000000009FED050B10B553ECBF
:10398000102B51EC100BFCF7D4FC41EC100B10BDCC
:1039900000000000000000709FED050B10B553EC17
:1039A000102B51EC100BFCF7C4FC41EC100B10BDBC
:1039B000000000000000001002E008C8121F08C14B
:1039C000002AFAD170477047002001E001C1121FA0
:1039D000002AFBD1704700000149086070470000D1
:1039E0004C0000202DE9F84F99469246884605463E
:1039F000002706E025280AD051464A4690476D1C0C
:103A00007F1C28780028F5D13846BDE8F88F0023C0
:103A100015F8011F18462E2915D115F8011F04238A
:103A20002A290DD06FF02F022978A1F13004092C3A
:103A300009D800EB800002EB400008446D1CF3E75E
:103A400058F8040B6D1C2A78002ADDD0632A07D0B1
:103A5000732A0FD0104651464A4690477F1C2AE0F1
:103A600018F8042B8DF8002000218DF801106E4607
:103A7000012103E058F8046B4FF0FF315A074FF073
:103A8000000401D409E0641C84420BDA8C42FADBA6
:103A9000325D002AF7D105E0641C8C42FCDB305D0E
:103AA0000028F9D1274404E016F8010B51464A4694
:103AB0009047641EF8D26D1CA3E702460020CB1C81
:103AC00023F00301136F8B4205D3136F5B1A136747
:103AD000D06E4318D36670472DE9F05F04468846E0
:103AE000267B2768656895F800A0002083468146FC
:103AF00000BF36BB67B9A5684FF4806229462046EF
:103B0000636F9847074627B96FF00100BDE8F09F43
:103B10006D1C7F1EBBF1000F0AD04FF0000B287800
:103B200010B16FF00500F1E7FF208246287007E032
:103B300095F800A0BAF1FF0F02D14FF0010B0BE096
:103B400080264FEA49090AEA060008B109F101098D
:103B50007610A8F1010800BFB8F1000FC9D1267393
:103B6000276065604846D1E72DE9F04F87B00C46E5
:103B70004FF4B55BCDF818B041F2511BCDF814B03D
:103B800042F6CF1BCDF810B041F6905BCDF80CB0EB
:103B90004FF0000BCDF800B080E0D0F800C0D0F8B6
:103BA0004080D0F88090D0F8C0100CEB090AACEB44
:103BB000090BCDF808B0A8EB010B4FF4B55E0BFB79
:103BC0000EFB4FEA2B3741447F1A0AEB010CAAEB9C
:103BD0000101DDF808B007EB0B08DDF808B0ABEB2E
:103BE0000709D0F8E050036AD0F8A060026EA3EB9A
:103BF000050A5F19A6EB020BCDF808B03244A7EB1B
:103C0000020B0BFB0EFB4FEA2B333A44DDF808B0F6
:103C1000D34441F6905E0BFB0EFB4FEA2B3BCDF8F5
:103C200004B041F2511B0AFB0BFEDDF804B0ABEB14
:103C30002E3542F6CF1EDDF808B00BFB0EFEDDF888
:103C400004B0ABEB2E3BABEB02069B1BED1A0CEB6F
:103C5000020BC0F800B0ACEB020BC0F8E0B008EB10
:103C6000060BC0F820B0A8EB060BC0F8C0B009EBFB
:103C7000030BC0F840B0A9EB030BC0F8A0B001EBF8
:103C8000050BC0F860B0A1EB050BC0F880B0001DBB
:103C9000DDF800B00BF1010BCDF800B0DDF800B09D
:103CA000BBF1080FFFF479AF20384FF0000BCDF8CF
:103CB00000B0A2E0D0F800B00BF5004CD0F80880BE
:103CC000D0F8109081690CEB090AACEB090BCDF828
:103CD00008B0A8EB010B4FF4B55E0BFB0EFB4FEAEF
:103CE0002B3741447F1A0AEB010CAAEB0101DDF8E6
:103CF00008B007EB0B08DDF808B0ABEB0709C569A6
:103D000043684669C268A3EB050A5F19A6EB020B7C
:103D1000CDF808B03244A7EB020B0BFB0EFB4FEAC9
:103D20002B333A44DDF808B0D34441F6905E0BFBE8
:103D30000EFB4FEA2B3BCDF804B041F2511B0AFBBE
:103D40000BFEDDF804B0ABEB2E3542F6CF1EDDF8EE
:103D500008B00BFB0EFEDDF804B0ABEB2E3BABEB7B
:103D600002069B1BED1A0CEB020BCBF3092BDFF8C1
:103D70009CE01EF80BB084F800B0ACEB020BCBF368
:103D8000092B1EF80BB084F807B008EB060BCBF339
:103D9000092B1EF80BB084F801B0A8EB060BCBF38F
:103DA000092B1EF80BB084F806B009EB030BCBF31C
:103DB000092B1EF80BB084F802B0A9EB030BCBF370
:103DC000092B1EF80BB084F805B001EB050BCBF303
:103DD000092B1EF80BB084F803B0A1EB050BCBF355
:103DE000092B1EF80BB084F804B008342030DDF83D
:103DF00000B00BF1010BCDF800B0DDF800B0BBF165
:103E0000080FFFF457AF07B0BDE8F08FF25F00086E
:103E10002DE9F74F86B00D4616468EE0112E03D2DF
:103E2000062009B0BDE8F08F113E15F801AB4FEA4E
:103E30002A190AF00F0003900AF0EE0008B10620DC
:103E4000EFE710210698FFF738FE8046B8F1000F23
:103E500001D10320E5E706982430039900EBC10067
:103E600040F8298000200446074607E015F8010BBA
:103E7000049008F8040004980744641C102CF5D33F
:103E800079000698FFF719FE8346BBF1000F01D1B8
:103E90000320C6E706983430039900EBC10040F8D0
:103EA00029B0002001900446059019E018F804009C
:103EB000049009E00598421C019905922BF8101016
:103EC0000198401C80B201900498411E0491002882
:103ED000F0D14FF6FF71019801EA40000190641C97
:103EE000102CE3D3BE4201D206209AE7F61B3946D6
:103EF0000698FFF7E2FD0290029808B9032090E7C8
:103F000006984430DDE9021200EBC20040F82910A7
:103F1000002410E015F801ABB9F1000F04D1BAF19B
:103F20000B0F01DD06207CE7029880F800A00298C4
:103F3000401C0290641CBC42ECD3002E7FF46EAF98
:103F400000206EE72DE9F04782460C4616462BE02E
:103F5000412E02D20620BDE8F087413E14F8018BC5
:103F600008F0F00008B10620F5E708F003074FF469
:103F700080715046FFF7A1FD05460DB90320EAE721
:103F80000AF1540040F8275000270BE0084810F8C9
:103F9000079014F8010B074931F81910484345F808
:103FA00029007F1C402FF1D3002ED1D10020D2E771
:103FB000325F0008725F000802460023012A03D026
:103FC000022A01D0032A04D15001A0F1C040436C61
:103FD00001E00548036803EA0100884201D000209F
:103FE00070470120FCE70000580100A0D0E9022141
:103FF000114342681143026841EA4221014A1160BB
:1040000070470000500100A070B50568042D3AD13A
:10401000D0E908653543C669354386693543466945
:104020003543066945EA4625C6683543866845EA4C
:10403000063546683543384E3560856AAD696D1E74
:10404000866A7669761E45EA0616856A2D696D1EB2
:1040500046EA0526856AED686D1E46EA0536856ADC
:104060002D896D1E46EA0546856AAD886D1E46EAB5
:104070000556856A2D786D1E46EA05654FF0204687
:10408000C6F8485147E0244D2D6825F4F841D0E9A1
:1040900002653543466835432943D0E90865354311
:1040A000C66935438669354346693543066945EA3D
:1040B00006044FF02045C5F84011C5F84441D5F835
:1040C0004851164E05EA0602856AED686D1E2E03FC
:1040D000856AAD886D1E46EA0556856A2D896D1E76
:1040E00046EA05452A43856AAD696D1E866A76698A
:1040F000761E45EA0616856A2D696D1E46EA052676
:10410000856A2D786D1E46EA05634FF02045C5F897
:104110004821C5F84C3170BD400100A0FF0F00FFE1
:10412000074A126843F6FE7322EA03011A4602EABE
:1041300040020A434FF02043C3F854217047000067
:10414000540100A070B504460D4600BF0721054884
:1041500001F075FE0028F9D0E1B2024801F0F7FD48
:10416000204670BD00100140F0B503461C6A5D6A30
:1041700000200DE00126864016403EB187000F2644
:10418000BE40B443860001FA06F63443461CB0B282
:104190000828EFD3082011E00126864016405EB1C2
:1041A000A0F10806B7000F26BE40B543A0F10806EF
:1041B000B60001FA06F63543461CB0B21028EBD320
:1041C0001C625D62F0BD816270478161704702468A
:1041D0001069084008B1012070470020FCE7F0B5E5
:1041E00004460D4616462168E268002019E00127C2
:1041F00087401F409FB14FEA400C032707FA0CF796
:10420000B943470005FA07F739434FEA400C032743
:1042100007FA0CF7BA43470006FA07F73A43471C78
:10422000B8B21028E3D32160E260F0BDF0B50C46CF
:104230001546012C03D146681E43466002E04668DD
:104240009E434660826800210DE001268E401E409C
:104250003EB14F000326BE40B2434E0005FA06F6BB
:1042600032434E1CB1B21029EFD38260F0BD2DE96C
:10427000FF5F0446884691469A46267B2768656814
:10428000287803900020834602901020019000BF00
:1042900036BB6FB9A5684FF4806229462046636F2C
:1042A000984707462FB96FF0010004B0BDE8F09FB2
:1042B0006D1C7F1E029850B100200290287810B12A
:1042C0006FF00500F1E7FF200390287007E02878E1
:1042D00003900398FF2802D10120029022E080265B
:1042E0004FEA4B0B0398304008B10BF1010B7610ED
:1042F00018F8010B00900EE039F8021B594505D162
:104300002673276065609AF80000CEE70AF1010A7B
:104310000098401E009000980028EDD10198401EA2
:10432000019000BF01980028B2D1801FBDE710B5F1
:1043300040F2174000F0B8FF40F2174000F0A2FF33
:1043400010BD000010B500224C4B1B6803F00103A8
:1043500033B10122494B1B6823F00103474C236012
:10436000464B5B6B23F00703444C6363C368636392
:10437000C16805295CD2DFE801F003152535480046
:104380003E4B9B6B00233D4CA363D0E9054343EABE
:104390000423048A43EA0443047A43EA0463374C5F
:1043A000A36346E0354B9B6B03F07F43334CA36321
:1043B000D0E9054343EA0423048A43EA04432F4C2B
:1043C000A36336E02D4B9B6B6FF30F032B4CA36362
:1043D000D0E9054343EA4413046943EAC423274C64
:1043E000A36326E0254B9B6B6FF30F03234CA36362
:1043F000D0E9054343EA4413046943EA842384680B
:1044000043EAC4331D4CA36313E01C4B9B6B6FF357
:104410000F031A4CA363D0E9054343EA041304696C
:1044200043EA0423846843EA0433144CA36300E0A2
:1044300000BF00BF114BDB6B0023104CE36303682C
:10444000E36323461B6C6FF30D032364436823640B
:1044500023465B6C03F040436364848B036A43EA46
:104460000443064C646C2343044C6364012A04D166
:1044700023461B6843F00103236010BD00B00240D7
:104480000021C16041608160016141618161016021
:10449000C161016270470000024989680143014A15
:1044A0009160704700B002400146044840680840EF
:1044B00008B1012070470020FCE7000000B0024076
:1044C0000549096821F44031034A11601146096821
:1044D000014311607047000000B0024003480068CB
:1044E00040F00100014908607047000000B0024040
:1044F0002DE9F74F82B004461746032F03DD052050
:1045000005B0BDE8F08F6773A07B4FEAC009E07B80
:104510004FEAC00A0021A182E18221838B46CDF8B7
:1045200004B0002500262FE04FF0000828E0608B43
:10453000A0B15846411C1FFA81FB618B88420DD106
:104540000198421C92B201462046019200F000FF01
:1045500005460DB12846D3E74FF0010B204600F089
:10456000F3F905460DB12846CAE7334642462046D0
:10457000039900F0DBFA05460DB12846C0E7C844B0
:10458000E0694045D3D85644206AB042CCD828468A
:10459000B6E72DE9FF4F83B00446059818B905200A
:1045A00007B0BDE8F08F0598E0660698206704988C
:1045B00060671098A0670020608300261BE04FF022
:1045C000000A14E0002104F1240000EBC60040F8CA
:1045D0002A1004F1340000EBC60040F82A1004F160
:1045E000440000EBC60040F82A100AF1010ABAF1B3
:1045F000020FE7D3761C022EE1D3002605E000214E
:1046000004F1540040F82610761C042EF7D34FF422
:1046100080612046FFF751FA0546A0600DB90320DE
:10462000BEE7022229462046636F9847022801D040
:104630000220B5E76878297840EA01204FF6D87162
:10464000884201D00620ABE74FF0020900BF0422E8
:1046500029462046636F9847042801D002209FE72F
:104660006878297840EA01200290E878A97840EA41
:104670000127022F04D9FF210298B1EB202F01D08E
:1046800006208DE7BF1E381D81440298C0B2C03895
:104690001E2872D2DFE800F00FF4F3F272F1F0EFAF
:1046A00071EEEDEC71EBEAE971717171717171711B
:1046B00071E8A68C715DB7F5806F01D904206FE7B2
:1046C0003A4629462046636F9847B84201D00220F7
:1046D00066E72879E97840EA0120E061A8786978FE
:1046E00040EA012020626879032801D0082057E7BA
:1046F00000262BE006EB4600C01D15F800808EB9A1
:10470000B8F1110F07D0B8F1220F04D0B8F1210F82
:1047100001D0082044E74FEA2810A07308F00F00EA
:10472000E07304E0B8F1110F01D0082038E706EB80
:104730004600083015F80080B8F1030F01DD0820AD
:104740002EE704F1100000F80680761C032ED1D36A
:10475000ECE0B7F5806F01D9042021E73A462946FD
:104760002046636F9847B84201D0022018E7687866
:10477000297840EA01206083D8E0CDE0B7F5806F6A
:1047800001D904200CE73A4629462046636F984732
:10479000B84201D0022003E73A4629462046FFF7F7
:1047A00037FBC0B20190019808B10198F8E6BDE06E
:1047B000B7F5806F01D90420F2E63A462946204633
:1047C000636F9847B84201D00220E9E63A4629468D
:1047D0002046FFF7B7FBC0B20190019808B10198DD
:1047E000DEE6A3E0B7F5806F01D90420D8E63A46AB
:1047F00029462046636F9847B84201D00220CFE691
:10480000E06908B1206A08B90620C9E628780328BB
:1048100001D00820C4E6002634E07000801C15F8A2
:104820000080B8F1000F04D0B8F1110F01D00820BA
:10483000B6E60EB1012000E00020804604F124001D
:1048400050F8380028B104F1240000EBC80040689B
:1048500008B90620A4E604F11000815D443050F848
:10486000210070B906209BE654E052E050E04EE093
:104870004CE04AE048E046E044E042E040E03EE010
:104880003CE0761C032EC8D3E07BA17B10FB01FB30
:10489000BBF1000F01D1062082E6402101EBCB17CE
:1048A000FF2F00D88F0039462046FFF706F96066D3
:1048B000606E08B9032073E60BF102008101204607
:1048C000FFF7FBF8A066A06E08B9032068E66560F4
:1048D000002020602073C9F30900B0F100090BD05B
:1048E000C9F5806205EB09012046636F9847206097
:1048F00005EB0900401E6060002051E600BF00BFCC
:1049000000BF00BF00BF00BF00BF00BF00BF00BFAF
:1049100000BF00BF082043E63A4600212046636FEF
:104920009847B84201D002203AE600BF8FE6FDF773
:104930009BFAFDF7C2FD05E0FEF798F9FEF7B0F926
:10494000FEF78CF9F8E700002DE9F04F89B0044636
:10495000D4F86490A07BE17B10FB01F0089002206A
:104960000790A06E04904FF0000BD4E008988345A8
:1049700001D2002003E00898ABEB0000401C05903A
:10498000059808B1012000E00020804604F12400D1
:1049900050F83800039004F1340050F838000190CA
:1049A00004F1440050F8380002902046DDE901236C
:1049B0000399FFF75CFC0546002D04DA6842C0B29B
:1049C00009B0BDE8F08F04F11400059930F91160C9
:1049D000F5B129462046FFF77FF88246BAF1000F6D
:1049E00003DACAF10000C0B2EAE7681E012101FA49
:1049F00000F50AEA050020B90120C0EB4500AAEB4A
:104A0000000A564432B204F11400059920F811202E
:104A100004F110000599415C443050F821000090E9
:104A20000098006870430012C9F80000012703E0F5
:104A3000002049F827007F1C402FF9D304F12400FF
:104A400000EBC8004068039004F1340000EBC8009C
:104A50004068019004F1440000EBC80040680290F7
:104A6000012700BF2046DDE901230399FFF7FFFB83
:104A7000054605B937E0002D02DA6842C0B29FE76B
:104A800028090690069828B106980744402F01D3BC
:104A9000062095E705F00F00051E20D02946204688
:104AA000FFF71AF80646002E02DA7042C0B287E716
:104AB000681E012101FA00F506EA050018B9012077
:104AC000C0EB4500361A1848C05D0690069900985C
:104AD00050F8210070430112069849F82010781C04
:104AE00007464028BED300BF607B03280AD1D9F80F
:104AF0000000C11700EB116109128031CAB204999C
:104B00000A7003E048460499FFF72EF804984030F5
:104B100004900BF1010BDDE90710084458453FF6FE
:104B200025AF00204CE70000325F00082DE9FF4F61
:104B30008DB004464FF480600C90A07BC700E07BF2
:104B4000C0000B900F983844E169884201D838467C
:104B500002E0E1690F98081A83460B9910980844FF
:104B6000216A884201D80B9802E0216A1098081A3D
:104B70000A90607B2BFA00FB617B0A98C8400A9080
:104B8000BBF1000F01D00A9818B9002011B0BDE8A0
:104B9000F08F617B0F98C8400F90617B1098C840E0
:104BA00010900F9880B2ADF814000F985844401E32
:104BB00080B2ADF81600109880B2ADF818000A99CE
:104BC00010980844401E80B2ADF81A00607B03289C
:104BD0007DD0656E00266EE0D4F8688008EBC600D4
:104BE00007900B9810280BD170084FF4807101EBDF
:104BF000C0008044082E07D307984030079003E098
:104C0000F80000EBC60080444FF0000950E098F82F
:104C100000008038099098F8400080380890102FE4
:104C200009D1B9F1080F02D107983830079009F07F
:104C30000100804401E008F10108079810F801AB79
:104C4000079040F29B52089901FB02F0C11700EB5C
:104C500091510AEBA121C1F30901984A515C05F871
:104C6000011B4FF4B0720999514340F2DB23089ABB
:104C700003FB0210C11700EB9151AAEBA121C1F374
:104C800009018E4A515C05F8011B40F21672099920
:104C900001FB02F0C11700EB91510AEBA121C1F316
:104CA0000901864A515C2970691C0D4609F1010908
:104CB000B945ACD3761C0B9886428DD3607B002817
:104CC00053D0637B5A0094F80DE0012300E04DE0DF
:104CD00003FA0EF17B1A03EB43030093606E002688
:104CE00040E04FF000093AE006FB079E0EEB4E0E47
:104CF000636E03EB0E050023019302930393049369
:104D00001DE04FF0000C13E015F8013BDDF80CE05E
:104D10007344039315F8013BDDF808E073440293F4
:104D200015F8013BDDF804E0734401930CF1010C2C
:104D30008C45E9D3009B1D44049B5B1C0493049B9E
:104D40008B42DED3039BD34000F8013B029BD34050
:104D500000F8013B019BD34000F8013B8944B94571
:104D6000C2D30E440B9B9E42BBD35BE0656EA16E2B
:104D70000B9807FB001898F800008038099098F805
:104D8000400080380890002649E0A06E0790082E69
:104D900002D10798803007904FF000093CE0079857
:104DA00090F800A007984030079040F29B52089975
:104DB00001FB02F0C11700EB91510AEBA121C1F3F5
:104DC00009013E4A515C05F8011B4FF4B072099984
:104DD000514340F2DB23089A03FB0210C11700EB9A
:104DE0009151AAEBA121C1F30901344A515C05F8A4
:104DF000011B40F21672099901FB02F0C11700EB8A
:104E000091510AEBA121C1F309012C4A515C29708F
:104E1000691C0D4609F10809B945C0D308360B983D
:104E20008642B2D3607BC740BB4521D2D4F864C070
:104E300061466046002316E000220CE010F801CB2A
:104E400001F801CB10F801CB01F801CB10F801CB30
:104E500001F801CB521C5A45F0D3A7EB0B0C0CEB1D
:104E60004C0C60445B1CDDF828C06345E4D300BFF4
:104E7000606E0246DDF828C00BFB0CF300BF10F893
:104E800001CB0CF0F80C4FEA0C2110F801CB0CF020
:104E9000FC0C41EACC0110F801CB41EAEC0122F80C
:104EA000021BA3F1010CBCF10003E8D105AA2046C6
:104EB000616E0E9B9847C0B268E60000F25F000882
:104EC0002DE9F04103460D46164600240027A04672
:104ED0002A48006800F4E060B0F5E06F03D100BF3D
:104EE0004FF0040830E02548006800F4E060B0F5B9
:104EF000C06F03D101274FF0030825E01F48006869
:104F000000F4E060B0F5A06F02D10227B8461BE0C4
:104F10001A48006800F4E060B0F5806F03D1032701
:104F20004FF0010810E01548006800F4E060B0F5AB
:104F3000407F03D104274FF0000805E04FF4A06044
:104F400000F020F80227B846C7F1040005FA00F483
:104F5000C8F104010F20C840304004432401084830
:104F6000C45403F01F01012088405911890001F148
:104F7000E021C1F80001BDE8F08100000CED00E087
:104F800000E400E002490143024A1160704700005A
:104F90000000FA050CED00E02DE9F04F8CB006465C
:104FA00000200A903EA090E8004CC068CDE905BE04
:104FB000CDF810A007900FF2EC0ADAE9000ACDE96B
:104FC000020A0FF2E00ADAE9000ACDE9000A3848DD
:104FD0000068C0F381000B900B9820B1012804D029
:104FE000022828D103E0334927E0334925E030483F
:104FF000001F006800F03F072D48001F0068C0F345
:10500000881C2B48001F0068C0F30140401C4FEA79
:1050100040092748001F006800F48008B8F5800F99
:1050200001D1254B00E0234BB3FBF7F000FB0CF064
:10503000B0FBF9F101E01F4900BF00BF1C48006848
:10504000C0F3031404A8055D21FA05F218480068AE
:10505000C0F3822402A8055D22FA05F009901448E5
:105060000068C0F342341DF8045022FA05F008909D
:1050700036B1012E06D0022E06D0032E0AD106E04C
:105080000A9108E00A9206E009980A9003E008985D
:105090000A9000E000BF00BF0A980CB0BDE8F08F96
:1050A00000000000000000000102030406070809D8
:1050B000083802400024F40040787D010146074A88
:1050C00002EB9110D0F8000801F01F0301229A4072
:1050D000104008B1012070470020FCE7003002407A
:1050E000074A02EB9011D1F8001800F01F030122CB
:1050F0009A401143024B03EB9012C2F8001870471C
:1051000000300240F0B506460024002700251C2E82
:105110007DD007DCB6B3102E10D0182E67D01A2E13
:1051200076D176E0B6F5E05F19D0B6F5E85F4CD001
:10513000A6F5405010380028F2D134E004E01120E8
:10514000FFF7BCFF0546641C1DB94FF6FF70844293
:10515000F5D11120FFF7B2FF00B101277AE005E099
:1051600041F60140FFF7AAFF0546641C1DB96FF028
:1051700070408442F4D141F60140FFF79FFF00B137
:10518000012767E0FFE704E00120FFF797FF0546EE
:10519000641C15B9B4F5A06FF6D10120FFF78EFF9E
:1051A00000B1012756E005E043F21100FFF786FF4A
:1051B0000546641C15B929488442F5D143F2110013
:1051C000FFF77CFF00B1012744E005E041F6015004
:1051D000FFF774FF0546641C15B920488442F5D1D9
:1051E00041F60150FFF76AFF00B1012732E004E009
:1051F0001920FFF763FF0546641C15B91748844260
:10520000F6D11920FFF75AFF00B1012722E010E084
:105210001FE004E01B20FFF751FF0546641C15B991
:105220000E488442F6D11B20FFF748FF00B101274A
:1052300010E004E01D20FFF741FF0546641C15B98E
:1052400006488442F6D11D20FFF738FF00B1012740
:1052500000E000BF00BF3846F0BD0000FFFF0F00B8
:10526000074A02EB9011D1F8001800F01F03012249
:105270009A401143024B03EB9012C2F8001870479A
:1052800000300240074A02EB9011D1F8001800F0FC
:105290001F0301229A409143024B03EB9012C2F884
:1052A0000018704700300240074A02EB9011D1F815
:1052B000001800F01F0301229A401143024B03EB38
:1052C0009012C2F8001870470030024010B5034633
:1052D000322B19D3B3F5FA7F16D8022905D0042949
:1052E00003D0062901D008290ED1022A0CD3072A9F
:1052F0000AD898010124C4EB510440EA044040EA72
:105300000270034C206001E0002010BD0120FCE78A
:10531000883802406FF08071884205D105490968DC
:105320000140044A116004E0024909680143014A4E
:10533000116070478C380240044A116821F44031F2
:1053400041EA0002014B1A60704700008C380240AD
:105350002DE9F04704468846666825680027B94667
:1053600014E05DB9A6684FF4806231462046636F51
:10537000984705461DB90220BDE8F087761C6D1ED2
:10538000307840EA072087B209F10109B9F1020F2C
:10539000E7D366602560002020734FF6D870384050
:1053A0004FF6D071884203D17807B0EB487F01D027
:1053B0000620E1E70021A182E18221830020DBE7D2
:1053C000002000213A4A126842F48032384B1A60B9
:1053D00000BF401C364A126802F4003119B94FF67A
:1053E000FF729042F5D1324A126802F400320AB9D3
:1053F00000BFFEE72E4A4032126842F080522C4B2A
:1054000040331A602B4A126842F44042294B1A601A
:10541000274A08321268264B08331A601A46126867
:1054200042F400421A601A46126842F4A0521A600E
:10543000214A1B1F1A601A1F126842F080721B1F3C
:105440001A6000BF1A4A126802F00072002AF9D0EE
:10545000184A126842F48032164B1A6000BF154A8F
:10546000526802F48032002AF9D0124A126842F4DB
:105470000032104B1A6000BF0E4A526802F400322C
:10548000002AF9D00A4A0832126822F00302084BB7
:1054900008331A601A46126842F002021A6000BF0E
:1054A000034A0832126802F00802002AF8D0704756
:1054B00000380240007000401978400A10B5FFF72C
:1054C0007FFF10BD10B531B101293FD002297DD039
:1054D00003297CD1BFE0036A23F0010303628369DF
:1054E00023F003038361036A148823430362036A7E
:1054F00023F002030362036A9488234303626A4B26
:10550000984202D0694B98421FD1036A23F00403EA
:105510000362036A548823430362036A23F0080387
:105520000362036AD48823430362436823F48073CD
:1055300043604368148923434360436823F4007342
:1055400043604368548923434360ABE0036A23F01C
:1055500010030362836923F440738361036A148830
:1055600043EA04130362036A23F020030362036A1D
:10557000948843EA041303624B4B984202D04B4B8E
:10558000984226D1036A23F040030362036A5488D9
:1055900043EA04130362036A23F080030362036A8D
:1055A000D48843EA04130362436823F480634360AE
:1055B0004368148943EA84034360436823F4006327
:1055C00043604368548943EA840301E002E068E0F1
:1055D000436067E0036A23F480730362C36923F0C6
:1055E0000303C361036A148843EA04230362036A62
:1055F00023F400730362036A948843EA042303627A
:10560000294B984202D0294B984223D1036A23F4B4
:1056100080630362036A548843EA04230362036AD3
:1056200023F400630362036AD48843EA0423036219
:10563000436823F4805343604368148943EA0413A6
:105640004360436823F4005343604368548943EA4A
:105650000413436026E0036A23F480530362C369A2
:1056600023F44073C361036A148843EA043303627A
:10567000036A23F400530362036A948843EA043301
:105680000362094B984202D0084B984208D1436804
:1056900023F4804343604368148943EA84134360DE
:1056A00000E000BF00BF10BD000001400004014049
:1056B00031B101290CD0022913D0032922D118E0DD
:1056C000836923F0700383618369134383611AE064
:1056D000836923F4E0438361836943EA022383619E
:1056E00011E0C36923F07003C361C3691343C3614D
:1056F00009E0C36923F4E043C361C36943EA0223B9
:10570000C36100E000BF00BF704731B1012906D07E
:10571000022906D0032908D105E0426306E082632E
:1057200004E0C26302E0026400E000BF00BF704713
:1057300031B101290CD0022913D0032922D118E05C
:10574000836923F0080383618369134383611AE04B
:10575000836923F400638361836943EA02238361DD
:1057600011E0C36923F00803C361C3691343C36134
:1057700009E0C36923F40063C361C36943EA0223F8
:10578000C36100E000BF00BF7047000010B50446D1
:105790005C49601A8C426FD019DC5B49A4EB0100B4
:1057A0008C424ED009DCB4F1804F2ED057482044B3
:1057B000A0B3B0F5806F72D13AE0B0F5806F49D0F8
:1057C000B0F5006F4FD0B0F5406FF4D17BE0B0F58D
:1057D000923F5BD009DCB0F5806F73D0B0F5644FB9
:1057E0000AD0B0F5684F5AD147E0B0F5943F57D092
:1057F000B0F5963F53D15CE04FF41060FFF754FDD5
:105800004FF41060FFF73EFD79E04FF40060FFF7C2
:105810004BFD4FF40060FFF735FD70E0FFE740F609
:105820000100FFF741FD40F60100FFF72BFD66E0A8
:1058300040F60200FFF738FD40F60200FFF722FDB8
:105840005DE040F60300FFF72FFD40F60300FFF791
:1058500019FD54E040F60400FFF726FD40F6040071
:10586000FFF710FD4BE040F60500FFF71DFD40F689
:105870000500FFF707FD42E02EE040F60110FFF7BC
:1058800013FD40F60110FFF7FDFC38E04FF4116006
:10589000FFF70AFD4FF41160FFF7F4FC2FE02DE055
:1058A00040F61110FFF700FD40F61110FFF7EAFC7B
:1058B00025E040F61210FFF7F7FC40F61210FFF754
:1058C000E1FC1CE011E040F60600FFF7EDFC40F6BD
:1058D0000600FFF7D7FC12E040F60700FFF7E4FCF4
:1058E00040F60700FFF7CEFC09E040F60800FFF79E
:1058F000DBFC40F60800FFF7C5FC00E000BF00BF7E
:1059000010BD0000001C0040000C004000FCFFBF68
:10591000016841F001010160704700000A8882625D
:105920001D4A90420ED0B0F1804F0BD01B4A9042DE
:1059300008D01B4A904205D01A4A904202D01A4A17
:1059400090420BD1026822F07002026002684B881C
:105950001A43026002688B881A4302608A68C26236
:10596000124A90420AD0124A904207D0026822F4AA
:10597000407202600268CB881A430260064A904275
:1059800002D0094A904201D10A7B0263426942F087
:105990000102426170470000000001400004004025
:1059A00000080040000C00400004014000100040CE
:1059B00000140040C2680A43C2607047CA430261D3
:1059C00070470246D06800EA01031069084010B130
:1059D0000BB1012070470020FCE7012904D1426C83
:1059E00042F40042426403E0426C22F4004242640A
:1059F000704700210180418081804FF6FF718160F6
:105A00000021C18001737047D0F8841021F0020199
:105A1000C0F88410704710B540F61A10FFF744FC28
:105A200040F61A10FFF72EFC10BD0000012806D129
:105A30000649096841F48031044A116005E00349D0
:105A4000096821F48031014A1160704718680140EB
:105A50000348006840F001000149086070470000F9
:105A6000186801402D49096801F0F0212B4A1160A6
:105A70000188428841EA0241284A1160111D0968E3
:105A800001F0F021121D11608188C28841EA0241B3
:105A9000224A121D1160111D096801F0F021121D2A
:105AA00011608289816841EA02411C4A0832116012
:105AB000111D096801F0F021121D1160828A01692F
:105AC00041EA0241154A0C32116014492431096837
:105AD00001F07F41114A24321160D0E9072141EAE7
